{
  "_format": "hh-sol-artifact-1",
  "contractName": "DustSwapRouter",
  "sourceName": "contracts/DustSwapRouter.sol",
  "abi": [
    {
      "inputs": [
        {
          "internalType": "address",
          "name": "_pancakeRouter",
          "type": "address"
        }
      ],
      "stateMutability": "nonpayable",
      "type": "constructor"
    },
    {
      "inputs": [],
      "name": "DeadlineExpired",
      "type": "error"
    },
    {
      "inputs": [],
      "name": "EmptySwapList",
      "type": "error"
    },
    {
      "inputs": [],
      "name": "InsufficientOutput",
      "type": "error"
    },
    {
      "inputs": [],
      "name": "InvalidRouter",
      "type": "error"
    },
    {
      "inputs": [],
      "name": "InvalidToken",
      "type": "error"
    },
    {
      "inputs": [
        {
          "internalType": "address",
          "name": "owner",
          "type": "address"
        }
      ],
      "name": "OwnableInvalidOwner",
      "type": "error"
    },
    {
      "inputs": [
        {
          "internalType": "address",
          "name": "account",
          "type": "address"
        }
      ],
      "name": "OwnableUnauthorizedAccount",
      "type": "error"
    },
    {
      "inputs": [],
      "name": "ReentrancyGuardReentrantCall",
      "type": "error"
    },
    {
      "inputs": [],
      "name": "TransferFailed",
      "type": "error"
    },
    {
      "anonymous": false,
      "inputs": [
        {
          "indexed": true,
          "internalType": "address",
          "name": "user",
          "type": "address"
        },
        {
          "indexed": false,
          "internalType": "uint256",
          "name": "tokensSwapped",
          "type": "uint256"
        },
        {
          "indexed": false,
          "internalType": "uint256",
          "name": "totalBNBReceived",
          "type": "uint256"
        }
      ],
      "name": "BatchSwapCompleted",
      "type": "event"
    },
    {
      "anonymous": false,
      "inputs": [
        {
          "indexed": true,
          "internalType": "address",
          "name": "user",
          "type": "address"
        },
        {
          "indexed": true,
          "internalType": "address",
          "name": "token",
          "type": "address"
        },
        {
          "indexed": false,
          "internalType": "uint256",
          "name": "amount",
          "type": "uint256"
        }
      ],
      "name": "EmergencyWithdraw",
      "type": "event"
    },
    {
      "anonymous": false,
      "inputs": [
        {
          "indexed": true,
          "internalType": "address",
          "name": "previousOwner",
          "type": "address"
        },
        {
          "indexed": true,
          "internalType": "address",
          "name": "newOwner",
          "type": "address"
        }
      ],
      "name": "OwnershipTransferred",
      "type": "event"
    },
    {
      "anonymous": false,
      "inputs": [
        {
          "indexed": true,
          "internalType": "address",
          "name": "user",
          "type": "address"
        },
        {
          "indexed": true,
          "internalType": "address",
          "name": "tokenIn",
          "type": "address"
        },
        {
          "indexed": false,
          "internalType": "uint256",
          "name": "amountIn",
          "type": "uint256"
        },
        {
          "indexed": false,
          "internalType": "uint256",
          "name": "amountOut",
          "type": "uint256"
        }
      ],
      "name": "SingleSwapCompleted",
      "type": "event"
    },
    {
      "inputs": [],
      "name": "WBNB",
      "outputs": [
        {
          "internalType": "address",
          "name": "",
          "type": "address"
        }
      ],
      "stateMutability": "view",
      "type": "function"
    },
    {
      "inputs": [
        {
          "internalType": "address[]",
          "name": "tokens",
          "type": "address[]"
        },
        {
          "internalType": "uint256[]",
          "name": "amounts",
          "type": "uint256[]"
        },
        {
          "internalType": "uint256[]",
          "name": "minAmountsOut",
          "type": "uint256[]"
        },
        {
          "internalType": "uint256",
          "name": "deadline",
          "type": "uint256"
        }
      ],
      "name": "batchSwapExactTokensForETH",
      "outputs": [
        {
          "internalType": "uint256",
          "name": "totalBNBReceived",
          "type": "uint256"
        }
      ],
      "stateMutability": "nonpayable",
      "type": "function"
    },
    {
      "inputs": [
        {
          "internalType": "address[]",
          "name": "tokensIn",
          "type": "address[]"
        },
        {
          "internalType": "uint256[]",
          "name": "amountsIn",
          "type": "uint256[]"
        },
        {
          "internalType": "address",
          "name": "tokenOut",
          "type": "address"
        },
        {
          "internalType": "uint256[]",
          "name": "minAmountsOut",
          "type": "uint256[]"
        },
        {
          "internalType": "uint256",
          "name": "deadline",
          "type": "uint256"
        }
      ],
      "name": "batchSwapExactTokensForTokens",
      "outputs": [
        {
          "internalType": "uint256",
          "name": "totalTokensReceived",
          "type": "uint256"
        }
      ],
      "stateMutability": "nonpayable",
      "type": "function"
    },
    {
      "inputs": [
        {
          "internalType": "address",
          "name": "token",
          "type": "address"
        },
        {
          "internalType": "uint256",
          "name": "amount",
          "type": "uint256"
        }
      ],
      "name": "emergencyWithdraw",
      "outputs": [],
      "stateMutability": "nonpayable",
      "type": "function"
    },
    {
      "inputs": [
        {
          "internalType": "address[]",
          "name": "tokens",
          "type": "address[]"
        },
        {
          "internalType": "uint256[]",
          "name": "amounts",
          "type": "uint256[]"
        }
      ],
      "name": "getEstimatedBNBOutputs",
      "outputs": [
        {
          "internalType": "uint256[]",
          "name": "estimatedOutputs",
          "type": "uint256[]"
        }
      ],
      "stateMutability": "view",
      "type": "function"
    },
    {
      "inputs": [],
      "name": "owner",
      "outputs": [
        {
          "internalType": "address",
          "name": "",
          "type": "address"
        }
      ],
      "stateMutability": "view",
      "type": "function"
    },
    {
      "inputs": [],
      "name": "pancakeRouter",
      "outputs": [
        {
          "internalType": "contract IPancakeRouter02",
          "name": "",
          "type": "address"
        }
      ],
      "stateMutability": "view",
      "type": "function"
    },
    {
      "inputs": [],
      "name": "renounceOwnership",
      "outputs": [],
      "stateMutability": "nonpayable",
      "type": "function"
    },
    {
      "inputs": [
        {
          "internalType": "address",
          "name": "newOwner",
          "type": "address"
        }
      ],
      "name": "transferOwnership",
      "outputs": [],
      "stateMutability": "nonpayable",
      "type": "function"
    },
    {
      "stateMutability": "payable",
      "type": "receive"
    }
  ],
  "bytecode": "0x60c060409080825234620001855762000032906200162e80380380916200002782856200018a565b8339810190620001c4565b33156200016d5760008054336001600160a01b0319821681178355845192936001600160a01b039290919083167f8be0079c531659141344cd1fd0a4f28419497f9722a3daafe3b4186f6b6457e08680a360018055169081156200015e57506020816004926080528451928380926315ab88c960e31b82525afa9182156200015357916200011e575b5060a052516114489081620001e6823960805181818161012c0152818161038d01528181610471015281816108ba01528181610d830152610e98015260a0518181816104140152818161069f0152818161077d015281816108de0152610e1b0152f35b62000144915060203d81116200014b575b6200013b81836200018a565b810190620001c4565b38620000bb565b503d6200012f565b8351903d90823e3d90fd5b63466d7fef60e01b8152600490fd5b8151631e4fbdf760e01b815260006004820152602490fd5b600080fd5b601f909101601f19168101906001600160401b03821190821017620001ae57604052565b634e487b7160e01b600052604160045260246000fd5b908160209103126200018557516001600160a01b038116810362000185579056fe6080604052600436101561001b575b361561001957600080fd5b005b60003560e01c8063135c8e8914610a6b5780636b77dd371461082e578063715018a6146107d55780638da5cb5b146107ac5780638dd950021461076757806395ccea6714610742578063b93b25951461015b578063c21ebd07146101165763f2fde38b0361000e57346101115760203660031901126101115761009c6110eb565b6100a4611101565b6001600160a01b039081169081156100f857600054826bffffffffffffffffffffffff60a01b821617600055167f8be0079c531659141344cd1fd0a4f28419497f9722a3daafe3b4186f6b6457e0600080a3005b604051631e4fbdf760e01b815260006004820152602490fd5b600080fd5b34610111576000366003190112610111576040517f00000000000000000000000000000000000000000000000000000000000000006001600160a01b03168152602090f35b346101115760803660031901126101115767ffffffffffffffff6004358181116101115761018d9036906004016110ba565b90602435838111610111576101a69036906004016110ba565b93604435908111610111576101bf9036906004016110ba565b906101c861133c565b606435421161073057841561071e57858514801590610714575b6106d657479360005b86811061026c57866101fd87476111b6565b80610243575b60209160405190815281838201527fc767de13f13f210028ee47bbc51d3b5c5bdd470eddf6cc16787d8f41f82d537e60403392a260018055604051908152f35b600080808084335af16102546112fc565b50610203575b6040516312171d8360e31b8152600490fd5b6001600160a01b03610287610282838a8661113c565b61114c565b16158015610694575b6106825761029f81898761113c565b3515610679576001600160a01b036102bb610282838a8661113c565b16906040516370a0823160e01b8152306004820152602081602481865afa90811561051f57600091610647575b5061032560206102f9848d8b61113c565b6040516323b872dd60e01b81523360048201523060248201529035604482015291829081906064820190565b03816000885af190811561051f57600091610628575b501561025a576040516370a0823160e01b815230600482015290602082602481875afa801561051f576000906105f4575b61037692506111b6565b60405163095ea7b360e01b81526001600160a01b037f0000000000000000000000000000000000000000000000000000000000000000166004820152602481018290526020816044816000885af1801561051f576105d5575b5061046c60008a6103fc61028286604051936103ea85611160565b6002855260403660208701378a61113c565b610405826111db565b6001600160a01b0391821690527f00000000000000000000000000000000000000000000000000000000000000001661043d826111e8565b52610449858a8a61113c565b6040516318cbafe560e01b815293849283926064359130913589600487016112c3565b0381837f00000000000000000000000000000000000000000000000000000000000000006001600160a01b03165af1600091816105b0575b5061052b575060405163a9059cbb60e01b8152336004820152602481019190915291602090839060449082906000905af191821561051f576104eb926104f0575b5061112d565b6101eb565b6105119060203d602011610518575b610509818361117c565b81019061119e565b50896104e5565b503d6104ff565b6040513d6000823e3d90fd5b925061053b610282838b8761113c565b83518060001981011161059a576104eb9461055a9160001901906111f8565b51604051928352602083015260018060a01b0316907f1aa3261573bea280c7ed9ac232f8790370c62aa2da9b8fc62f8176be616bbb1060403392a361112d565b634e487b7160e01b600052601160045260246000fd5b6105ce9192503d806000833e6105c6818361117c565b81019061120c565b908c6104a4565b6105ed9060203d60201161051857610509818361117c565b508a6103cf565b506020823d602011610620575b8161060e6020938361117c565b8101031261011157610376915161036c565b3d9150610601565b610641915060203d60201161051857610509818361117c565b8b61033b565b90506020813d602011610671575b816106626020938361117c565b8101031261011157518a6102e8565b3d9150610655565b6104eb9061112d565b60405163c1ab6dc160e01b8152600490fd5b506001600160a01b037f00000000000000000000000000000000000000000000000000000000000000008116906106cf610282848b8761113c565b1614610290565b60405162461bcd60e51b8152602060048201526016602482015275082e4e4c2f240d8cadccee8d0e640dad2e6dac2e8c6d60531b6044820152606490fd5b50818514156101e2565b6040516386724c7f60e01b8152600490fd5b604051631ab7da6b60e01b8152600490fd5b346101115760403660031901126101115761001961075e6110eb565b6024359061135f565b34610111576000366003190112610111576040517f00000000000000000000000000000000000000000000000000000000000000006001600160a01b03168152602090f35b34610111576000366003190112610111576000546040516001600160a01b039091168152602090f35b34610111576000366003190112610111576107ee611101565b600080546001600160a01b0319811682556001600160a01b03167f8be0079c531659141344cd1fd0a4f28419497f9722a3daafe3b4186f6b6457e08280a3005b346101115760403660031901126101115767ffffffffffffffff600435818111610111576108609036906004016110ba565b9160249081359081116101115761087b9036906004016110ba565b939092610887826111c3565b92610895604051948561117c565b8284526108a1836111c3565b6020968588019691601f19013688376001600160a01b037f00000000000000000000000000000000000000000000000000000000000000008116947f00000000000000000000000000000000000000000000000000000000000000008216919060005b8b89821061094e578a8c604051928392818401908285525180915260408401929160005b82811061093757505050500390f35b835185528695509381019392810192600101610928565b90858789610a0e94868e868a61096861028283858761113c565b16158015610a58575b610a44576040966000966109a5610282846109c3966109e8988d80519b6109978d611160565b60028d5236908d013761113c565b8d6109af886111db565b911690528d6109bd876111e8565b5261113c565b35918551958694859463d06ca61f60e01b865260048601528401526044830190611286565b03818d5afa60009181610a27575b50610a1357506000610a08828d6111f8565b5261112d565b610904565b610a1c906111e8565b51610a08828d6111f8565b610a3d9192503d806000833e6105c6818361117c565b908f6109f6565b935050505060009250610a0891508d6111f8565b50610a6481888861113c565b3515610971565b346101115760a03660031901126101115760043567ffffffffffffffff811161011157610a9c9036906004016110ba565b9060243567ffffffffffffffff811161011157610abd9036906004016110ba565b60443592916001600160a01b03841684036101115760643567ffffffffffffffff811161011157610af29036906004016110ba565b93610afb61133c565b608435421161073057861561071e576001600160a01b03861615610682578387148015906110b0575b6106d6576040516370a0823160e01b8152306004820152946020866024816001600160a01b038b165afa95861561051f5760009661107c575b5060005b888110610c93576040516370a0823160e01b815230600482015289908990896020826024816001600160a01b0387165afa801561051f57600090610c5f575b610baa92506111b6565b9081610bf2575b5060209160405190815281838201527fc767de13f13f210028ee47bbc51d3b5c5bdd470eddf6cc16787d8f41f82d537e60403392a260018055604051908152f35b60405163a9059cbb60e01b81523360048201526024810183905290602090829060449082906000906001600160a01b03165af190811561051f57600091610c40575b501561025a5782610bb1565b610c59915060203d60201161051857610509818361117c565b83610c34565b506020823d602011610c8b575b81610c796020938361117c565b8101031261011157610baa9151610ba0565b3d9150610c6c565b6001600160a01b03610ca9610282838c8761113c565b1615801561105a575b61105157610cc181878761113c565b3515611051576001600160a01b03610cdd610282838c8761113c565b16906040516370a0823160e01b8152306004820152602081602481865afa90811561051f5760009161101f575b50610d1b60206102f9848b8b61113c565b03816000885af190811561051f57600091611000575b501561025a576040516370a0823160e01b815230600482015290602082602481875afa801561051f57600090610fcc575b610d6c92506111b6565b60405163095ea7b360e01b81526001600160a01b037f0000000000000000000000000000000000000000000000000000000000000000166004820152602481018290526020816044816000885af1801561051f57610fad575b5060405180608081011067ffffffffffffffff608083011117610f9757610e03610282848e608085016040526003855260603660208701378961113c565b610e0c826111db565b6001600160a01b0391821690527f000000000000000000000000000000000000000000000000000000000000000016610e44826111e8565b52805160021015610f81576001600160a01b038b166060820152610e9390600090610e7085888b61113c565b6040516338ed173960e01b815293849283926084359130913589600487016112c3565b0381837f00000000000000000000000000000000000000000000000000000000000000006001600160a01b03165af160009181610f64575b50610f35575060405163a9059cbb60e01b8152336004820152602481019190915291602090839060449082906000905af191821561051f57610f1192610f16575061112d565b610b61565b610f2e9060203d60201161051857610509818361117c565b508a6104e5565b9250610f45610282838d8861113c565b83518060001981011161059a57610f119461055a9160001901906111f8565b610f7a9192503d806000833e6105c6818361117c565b908d610ecb565b634e487b7160e01b600052603260045260246000fd5b634e487b7160e01b600052604160045260246000fd5b610fc59060203d60201161051857610509818361117c565b508b610dc5565b506020823d602011610ff8575b81610fe66020938361117c565b8101031261011157610d6c9151610d62565b3d9150610fd9565b611019915060203d60201161051857610509818361117c565b8c610d31565b90506020813d602011611049575b8161103a6020938361117c565b8101031261011157518b610d0a565b3d915061102d565b610f119061112d565b506001600160a01b0388811690611075610282848d8861113c565b1614610cb2565b9095506020813d6020116110a8575b816110986020938361117c565b8101031261011157519488610b5d565b3d915061108b565b5084871415610b24565b9181601f840112156101115782359167ffffffffffffffff8311610111576020808501948460051b01011161011157565b600435906001600160a01b038216820361011157565b6000546001600160a01b0316330361111557565b60405163118cdaa760e01b8152336004820152602490fd5b600019811461059a5760010190565b9190811015610f815760051b0190565b356001600160a01b03811681036101115790565b6060810190811067ffffffffffffffff821117610f9757604052565b90601f8019910116810190811067ffffffffffffffff821117610f9757604052565b90816020910312610111575180151581036101115790565b9190820391821161059a57565b67ffffffffffffffff8111610f975760051b60200190565b805115610f815760200190565b805160011015610f815760400190565b8051821015610f815760209160051b010190565b60209081818403126101115780519067ffffffffffffffff821161011157019180601f84011215610111578251611242816111c3565b93611250604051958661117c565b818552838086019260051b820101928311610111578301905b828210611277575050505090565b81518152908301908301611269565b90815180825260208080930193019160005b8281106112a6575050505090565b83516001600160a01b031685529381019392810192600101611298565b91926080936112e892979695978452602084015260a0604084015260a0830190611286565b6001600160a01b0390951660608201520152565b3d15611337573d9067ffffffffffffffff8211610f97576040519161132b601f8201601f19166020018461117c565b82523d6000602084013e565b606090565b60026001541461134d576002600155565b604051633ee5aeb560e01b8152600490fd5b811561140e576001600160a01b031690816113ba57600080808084335af16113856112fc565b501561025a575b6040519081527ff24ef89f38eadc1bde50701ad6e4d6d11a2dc24f7cf834a486991f388332850460203392a3565b60405163a9059cbb60e01b8152336004820152602481018290526020816044816000875af1801561051f576113f0575b5061138c565b6114079060203d811161051857610509818361117c565b50386113ea565b505056fea264697066735822122046fde8f9f0cfe6585db14b3d54a259476f704fb47c54c79107a7e4ed8d713bc064736f6c63430008140033",
  "linkReferences": {},
  "deployedLinkReferences": {}
}