{
  "_format": "hh-sol-artifact-1",
  "contractName": "DustSwapRouterX",
  "sourceName": "contracts/DustSwapRouterX.sol",
  "abi": [
    {
      "inputs": [
        {
          "internalType": "address",
          "name": "_pancakeRouterV2",
          "type": "address"
        },
        {
          "internalType": "address",
          "name": "_pancakeRouterV3",
          "type": "address"
        },
        {
          "internalType": "address",
          "name": "_outputToken",
          "type": "address"
        },
        {
          "internalType": "address",
          "name": "_feeRecipient",
          "type": "address"
        },
        {
          "internalType": "uint256",
          "name": "_initialFee",
          "type": "uint256"
        }
      ],
      "stateMutability": "nonpayable",
      "type": "constructor"
    },
    {
      "inputs": [],
      "name": "DeadlineExpired",
      "type": "error"
    },
    {
      "inputs": [],
      "name": "ECDSAInvalidSignature",
      "type": "error"
    },
    {
      "inputs": [
        {
          "internalType": "uint256",
          "name": "length",
          "type": "uint256"
        }
      ],
      "name": "ECDSAInvalidSignatureLength",
      "type": "error"
    },
    {
      "inputs": [
        {
          "internalType": "bytes32",
          "name": "s",
          "type": "bytes32"
        }
      ],
      "name": "ECDSAInvalidSignatureS",
      "type": "error"
    },
    {
      "inputs": [],
      "name": "EmptySwapList",
      "type": "error"
    },
    {
      "inputs": [],
      "name": "FeeTooHigh",
      "type": "error"
    },
    {
      "inputs": [],
      "name": "InsufficientOutput",
      "type": "error"
    },
    {
      "inputs": [],
      "name": "InvalidFeeRecipient",
      "type": "error"
    },
    {
      "inputs": [],
      "name": "InvalidNonce",
      "type": "error"
    },
    {
      "inputs": [],
      "name": "InvalidOutputToken",
      "type": "error"
    },
    {
      "inputs": [],
      "name": "InvalidRouter",
      "type": "error"
    },
    {
      "inputs": [],
      "name": "InvalidSignature",
      "type": "error"
    },
    {
      "inputs": [],
      "name": "InvalidToken",
      "type": "error"
    },
    {
      "inputs": [],
      "name": "NoPendingProposal",
      "type": "error"
    },
    {
      "inputs": [
        {
          "internalType": "address",
          "name": "owner",
          "type": "address"
        }
      ],
      "name": "OwnableInvalidOwner",
      "type": "error"
    },
    {
      "inputs": [
        {
          "internalType": "address",
          "name": "account",
          "type": "address"
        }
      ],
      "name": "OwnableUnauthorizedAccount",
      "type": "error"
    },
    {
      "inputs": [],
      "name": "ReentrancyGuardReentrantCall",
      "type": "error"
    },
    {
      "inputs": [
        {
          "internalType": "uint256",
          "name": "activeAt",
          "type": "uint256"
        }
      ],
      "name": "TimelockActive",
      "type": "error"
    },
    {
      "inputs": [],
      "name": "TransferFailed",
      "type": "error"
    },
    {
      "anonymous": false,
      "inputs": [
        {
          "indexed": true,
          "internalType": "address",
          "name": "user",
          "type": "address"
        },
        {
          "indexed": false,
          "internalType": "uint256",
          "name": "tokensSwapped",
          "type": "uint256"
        },
        {
          "indexed": false,
          "internalType": "uint256",
          "name": "totalOutput",
          "type": "uint256"
        },
        {
          "indexed": false,
          "internalType": "uint256",
          "name": "fee",
          "type": "uint256"
        },
        {
          "indexed": false,
          "internalType": "uint256",
          "name": "userAmount",
          "type": "uint256"
        },
        {
          "indexed": true,
          "internalType": "address",
          "name": "outputToken",
          "type": "address"
        }
      ],
      "name": "BatchSwapCompleted",
      "type": "event"
    },
    {
      "anonymous": false,
      "inputs": [
        {
          "indexed": false,
          "internalType": "uint256",
          "name": "cancelledFee",
          "type": "uint256"
        }
      ],
      "name": "FeeProposalCancelled",
      "type": "event"
    },
    {
      "anonymous": false,
      "inputs": [
        {
          "indexed": false,
          "internalType": "uint256",
          "name": "newFee",
          "type": "uint256"
        },
        {
          "indexed": false,
          "internalType": "uint256",
          "name": "activeAt",
          "type": "uint256"
        }
      ],
      "name": "FeeProposed",
      "type": "event"
    },
    {
      "anonymous": false,
      "inputs": [
        {
          "indexed": true,
          "internalType": "address",
          "name": "cancelledRecipient",
          "type": "address"
        }
      ],
      "name": "FeeRecipientProposalCancelled",
      "type": "event"
    },
    {
      "anonymous": false,
      "inputs": [
        {
          "indexed": true,
          "internalType": "address",
          "name": "newRecipient",
          "type": "address"
        },
        {
          "indexed": false,
          "internalType": "uint256",
          "name": "activeAt",
          "type": "uint256"
        }
      ],
      "name": "FeeRecipientProposed",
      "type": "event"
    },
    {
      "anonymous": false,
      "inputs": [
        {
          "indexed": true,
          "internalType": "address",
          "name": "oldRecipient",
          "type": "address"
        },
        {
          "indexed": true,
          "internalType": "address",
          "name": "newRecipient",
          "type": "address"
        }
      ],
      "name": "FeeRecipientUpdated",
      "type": "event"
    },
    {
      "anonymous": false,
      "inputs": [
        {
          "indexed": false,
          "internalType": "uint256",
          "name": "oldFee",
          "type": "uint256"
        },
        {
          "indexed": false,
          "internalType": "uint256",
          "name": "newFee",
          "type": "uint256"
        }
      ],
      "name": "FeeUpdated",
      "type": "event"
    },
    {
      "anonymous": false,
      "inputs": [
        {
          "indexed": true,
          "internalType": "address",
          "name": "owner",
          "type": "address"
        },
        {
          "indexed": false,
          "internalType": "uint256",
          "name": "wordPos",
          "type": "uint256"
        },
        {
          "indexed": false,
          "internalType": "uint256",
          "name": "mask",
          "type": "uint256"
        }
      ],
      "name": "NonceInvalidation",
      "type": "event"
    },
    {
      "anonymous": false,
      "inputs": [
        {
          "indexed": true,
          "internalType": "address",
          "name": "cancelledToken",
          "type": "address"
        }
      ],
      "name": "OutputTokenProposalCancelled",
      "type": "event"
    },
    {
      "anonymous": false,
      "inputs": [
        {
          "indexed": true,
          "internalType": "address",
          "name": "newToken",
          "type": "address"
        },
        {
          "indexed": false,
          "internalType": "uint256",
          "name": "activeAt",
          "type": "uint256"
        }
      ],
      "name": "OutputTokenProposed",
      "type": "event"
    },
    {
      "anonymous": false,
      "inputs": [
        {
          "indexed": true,
          "internalType": "address",
          "name": "oldToken",
          "type": "address"
        },
        {
          "indexed": true,
          "internalType": "address",
          "name": "newToken",
          "type": "address"
        }
      ],
      "name": "OutputTokenUpdated",
      "type": "event"
    },
    {
      "anonymous": false,
      "inputs": [
        {
          "indexed": true,
          "internalType": "address",
          "name": "previousOwner",
          "type": "address"
        },
        {
          "indexed": true,
          "internalType": "address",
          "name": "newOwner",
          "type": "address"
        }
      ],
      "name": "OwnershipTransferred",
      "type": "event"
    },
    {
      "anonymous": false,
      "inputs": [
        {
          "indexed": true,
          "internalType": "address",
          "name": "user",
          "type": "address"
        },
        {
          "indexed": true,
          "internalType": "address",
          "name": "token",
          "type": "address"
        },
        {
          "indexed": false,
          "internalType": "uint256",
          "name": "amountIn",
          "type": "uint256"
        },
        {
          "indexed": false,
          "internalType": "uint256",
          "name": "amountOut",
          "type": "uint256"
        },
        {
          "indexed": false,
          "internalType": "enum DustSwapRouterX.RouterVersion",
          "name": "version",
          "type": "uint8"
        }
      ],
      "name": "SingleSwapCompleted",
      "type": "event"
    },
    {
      "inputs": [],
      "name": "DOMAIN_SEPARATOR",
      "outputs": [
        {
          "internalType": "bytes32",
          "name": "",
          "type": "bytes32"
        }
      ],
      "stateMutability": "view",
      "type": "function"
    },
    {
      "inputs": [],
      "name": "FEE_DENOMINATOR",
      "outputs": [
        {
          "internalType": "uint256",
          "name": "",
          "type": "uint256"
        }
      ],
      "stateMutability": "view",
      "type": "function"
    },
    {
      "inputs": [],
      "name": "MAX_FEE",
      "outputs": [
        {
          "internalType": "uint256",
          "name": "",
          "type": "uint256"
        }
      ],
      "stateMutability": "view",
      "type": "function"
    },
    {
      "inputs": [],
      "name": "PERMIT_TRANSFER_TYPEHASH",
      "outputs": [
        {
          "internalType": "bytes32",
          "name": "",
          "type": "bytes32"
        }
      ],
      "stateMutability": "view",
      "type": "function"
    },
    {
      "inputs": [],
      "name": "TIMELOCK",
      "outputs": [
        {
          "internalType": "uint256",
          "name": "",
          "type": "uint256"
        }
      ],
      "stateMutability": "view",
      "type": "function"
    },
    {
      "inputs": [],
      "name": "TOKEN_PERMISSIONS_TYPEHASH",
      "outputs": [
        {
          "internalType": "bytes32",
          "name": "",
          "type": "bytes32"
        }
      ],
      "stateMutability": "view",
      "type": "function"
    },
    {
      "inputs": [],
      "name": "WBNB",
      "outputs": [
        {
          "internalType": "address",
          "name": "",
          "type": "address"
        }
      ],
      "stateMutability": "view",
      "type": "function"
    },
    {
      "inputs": [],
      "name": "applyFee",
      "outputs": [],
      "stateMutability": "nonpayable",
      "type": "function"
    },
    {
      "inputs": [],
      "name": "applyFeeRecipient",
      "outputs": [],
      "stateMutability": "nonpayable",
      "type": "function"
    },
    {
      "inputs": [],
      "name": "applyOutputToken",
      "outputs": [],
      "stateMutability": "nonpayable",
      "type": "function"
    },
    {
      "inputs": [
        {
          "components": [
            {
              "internalType": "address",
              "name": "token",
              "type": "address"
            },
            {
              "internalType": "uint256",
              "name": "amount",
              "type": "uint256"
            },
            {
              "internalType": "uint256",
              "name": "minAmountOut",
              "type": "uint256"
            },
            {
              "internalType": "enum DustSwapRouterX.RouterVersion",
              "name": "version",
              "type": "uint8"
            },
            {
              "internalType": "uint24",
              "name": "v3Fee",
              "type": "uint24"
            },
            {
              "internalType": "uint256",
              "name": "permit2Nonce",
              "type": "uint256"
            },
            {
              "internalType": "uint256",
              "name": "permit2Deadline",
              "type": "uint256"
            },
            {
              "internalType": "bytes",
              "name": "permit2Sig",
              "type": "bytes"
            },
            {
              "internalType": "uint256",
              "name": "permitDeadline",
              "type": "uint256"
            },
            {
              "internalType": "uint8",
              "name": "permitV",
              "type": "uint8"
            },
            {
              "internalType": "bytes32",
              "name": "permitR",
              "type": "bytes32"
            },
            {
              "internalType": "bytes32",
              "name": "permitS",
              "type": "bytes32"
            }
          ],
          "internalType": "struct DustSwapRouterX.SwapInstruction[]",
          "name": "instructions",
          "type": "tuple[]"
        },
        {
          "internalType": "uint256",
          "name": "deadline",
          "type": "uint256"
        }
      ],
      "name": "batchSwapToToken",
      "outputs": [
        {
          "internalType": "uint256",
          "name": "userAmount",
          "type": "uint256"
        }
      ],
      "stateMutability": "nonpayable",
      "type": "function"
    },
    {
      "inputs": [],
      "name": "cancelFee",
      "outputs": [],
      "stateMutability": "nonpayable",
      "type": "function"
    },
    {
      "inputs": [],
      "name": "cancelFeeRecipient",
      "outputs": [],
      "stateMutability": "nonpayable",
      "type": "function"
    },
    {
      "inputs": [],
      "name": "cancelOutputToken",
      "outputs": [],
      "stateMutability": "nonpayable",
      "type": "function"
    },
    {
      "inputs": [
        {
          "internalType": "address",
          "name": "token",
          "type": "address"
        },
        {
          "internalType": "uint256",
          "name": "amount",
          "type": "uint256"
        }
      ],
      "name": "emergencyWithdraw",
      "outputs": [],
      "stateMutability": "nonpayable",
      "type": "function"
    },
    {
      "inputs": [],
      "name": "feeRecipient",
      "outputs": [
        {
          "internalType": "address",
          "name": "",
          "type": "address"
        }
      ],
      "stateMutability": "view",
      "type": "function"
    },
    {
      "inputs": [
        {
          "internalType": "address[]",
          "name": "tokens",
          "type": "address[]"
        },
        {
          "internalType": "uint256[]",
          "name": "amounts",
          "type": "uint256[]"
        }
      ],
      "name": "getEstimatedOutputs",
      "outputs": [
        {
          "internalType": "uint256[]",
          "name": "estimates",
          "type": "uint256[]"
        }
      ],
      "stateMutability": "view",
      "type": "function"
    },
    {
      "inputs": [
        {
          "internalType": "uint256",
          "name": "wordPos",
          "type": "uint256"
        },
        {
          "internalType": "uint256",
          "name": "mask",
          "type": "uint256"
        }
      ],
      "name": "invalidateNonces",
      "outputs": [],
      "stateMutability": "nonpayable",
      "type": "function"
    },
    {
      "inputs": [
        {
          "internalType": "address",
          "name": "",
          "type": "address"
        },
        {
          "internalType": "uint256",
          "name": "",
          "type": "uint256"
        }
      ],
      "name": "nonceBitmap",
      "outputs": [
        {
          "internalType": "uint256",
          "name": "",
          "type": "uint256"
        }
      ],
      "stateMutability": "view",
      "type": "function"
    },
    {
      "inputs": [],
      "name": "outputToken",
      "outputs": [
        {
          "internalType": "address",
          "name": "",
          "type": "address"
        }
      ],
      "stateMutability": "view",
      "type": "function"
    },
    {
      "inputs": [],
      "name": "owner",
      "outputs": [
        {
          "internalType": "address",
          "name": "",
          "type": "address"
        }
      ],
      "stateMutability": "view",
      "type": "function"
    },
    {
      "inputs": [],
      "name": "pancakeRouterV2",
      "outputs": [
        {
          "internalType": "contract IPancakeRouter02",
          "name": "",
          "type": "address"
        }
      ],
      "stateMutability": "view",
      "type": "function"
    },
    {
      "inputs": [],
      "name": "pancakeRouterV3",
      "outputs": [
        {
          "internalType": "contract IPancakeV3SwapRouter",
          "name": "",
          "type": "address"
        }
      ],
      "stateMutability": "view",
      "type": "function"
    },
    {
      "inputs": [],
      "name": "pendingFee",
      "outputs": [
        {
          "internalType": "uint256",
          "name": "",
          "type": "uint256"
        }
      ],
      "stateMutability": "view",
      "type": "function"
    },
    {
      "inputs": [],
      "name": "pendingFeeActiveAt",
      "outputs": [
        {
          "internalType": "uint256",
          "name": "",
          "type": "uint256"
        }
      ],
      "stateMutability": "view",
      "type": "function"
    },
    {
      "inputs": [],
      "name": "pendingFeeRecipient",
      "outputs": [
        {
          "internalType": "address",
          "name": "",
          "type": "address"
        }
      ],
      "stateMutability": "view",
      "type": "function"
    },
    {
      "inputs": [],
      "name": "pendingFeeRecipientActiveAt",
      "outputs": [
        {
          "internalType": "uint256",
          "name": "",
          "type": "uint256"
        }
      ],
      "stateMutability": "view",
      "type": "function"
    },
    {
      "inputs": [],
      "name": "pendingOutputToken",
      "outputs": [
        {
          "internalType": "address",
          "name": "",
          "type": "address"
        }
      ],
      "stateMutability": "view",
      "type": "function"
    },
    {
      "inputs": [],
      "name": "pendingOutputTokenActiveAt",
      "outputs": [
        {
          "internalType": "uint256",
          "name": "",
          "type": "uint256"
        }
      ],
      "stateMutability": "view",
      "type": "function"
    },
    {
      "inputs": [
        {
          "internalType": "uint256",
          "name": "_newFee",
          "type": "uint256"
        }
      ],
      "name": "proposeFee",
      "outputs": [],
      "stateMutability": "nonpayable",
      "type": "function"
    },
    {
      "inputs": [
        {
          "internalType": "address",
          "name": "_newRecipient",
          "type": "address"
        }
      ],
      "name": "proposeFeeRecipient",
      "outputs": [],
      "stateMutability": "nonpayable",
      "type": "function"
    },
    {
      "inputs": [
        {
          "internalType": "address",
          "name": "_newToken",
          "type": "address"
        }
      ],
      "name": "proposeOutputToken",
      "outputs": [],
      "stateMutability": "nonpayable",
      "type": "function"
    },
    {
      "inputs": [],
      "name": "renounceOwnership",
      "outputs": [],
      "stateMutability": "nonpayable",
      "type": "function"
    },
    {
      "inputs": [],
      "name": "serviceFee",
      "outputs": [
        {
          "internalType": "uint256",
          "name": "",
          "type": "uint256"
        }
      ],
      "stateMutability": "view",
      "type": "function"
    },
    {
      "inputs": [
        {
          "internalType": "address",
          "name": "newOwner",
          "type": "address"
        }
      ],
      "name": "transferOwnership",
      "outputs": [],
      "stateMutability": "nonpayable",
      "type": "function"
    },
    {
      "stateMutability": "payable",
      "type": "receive"
    }
  ],
  "bytecode": "0x610100604081815234620003445760a08262002822803803809162000025828562000349565b83398101031262000344576200003b8262000383565b6020906200004b82850162000383565b6200005884860162000383565b946080620000696060830162000383565b9101519233156200032c5760008054336001600160a01b0319808316821784558951939a90956001600160a01b0395919493909286929183167f8be0079c531659141344cd1fd0a4f28419497f9722a3daafe3b4186f6b6457e08e80a36001805516918215801562000321575b620003125750831694851562000301576113888711620002f057818489926004946080521660a0528951928380926315ab88c960e31b82525afa918215620002e65783918a93620002a0575b508260c0521691821591821562000293575b5050620002835781600354161760035560065416176006556009558151908101917f8cad95687ba82c2ce50e74f7b754645e5117c3a5bec8151c0726d5857980a86683527fbb9ef1c19d254c3a436bda7cbd5ee057a57e19a2190e5c8796cee57c173c5fd6818301524660608301523060808301526080825260a082019382851060018060401b038611176200026f575083905251902060e05261248990816200039982396080518181816104550152818161106401528181611139015281816111a0015281816119150152612052015260a05181818161026e01528181611e620152611fa9015260c0518181816105d30152818161086e015281816110d50152818161164e015281816118a801528181611ee301528181612096015281816120f401526121dc015260e051818181610f0b01526116f00152f35b634e487b7160e01b81526041600452602490fd5b85516231010160e51b8152600490fd5b1682149050388062000134565b88809294508193503d8311620002de575b620002bd818362000349565b81010312620002da57620002d2839162000383565b913862000122565b8880fd5b503d620002b1565b88513d8b823e3d90fd5b885163cd4e616760e01b8152600490fd5b8851630ed1b8b360e31b8152600490fd5b63466d7fef60e01b8152600490fd5b5084871615620000d6565b8551631e4fbdf760e01b815260006004820152602490fd5b600080fd5b601f909101601f19168101906001600160401b038211908210176200036d57604052565b634e487b7160e01b600052604160045260246000fd5b51906001600160a01b0382168203620003445756fe6080604052600436101561001b575b361561001957600080fd5b005b60003560e01c806314025dcd14611a64578063273efee01461177d5780632bce68d2146117135780633644e515146116d8578063413510ea14610a555780634690484014610a2c57806349fcf0e4146109c75780634fe02b441461097f57806350fd70c4146108fd5780635efc228e146108965780636078af92146107cb578063643090bc146107ad578063696c11e5146107725780636a19c9c714610754578063715018a6146106fb578063733ec0c4146106675780637aadef8b146106495780638abdf5aa1461062b5780638da5cb5b146106025780638dd95002146105bd578063901a54021461059457806395ccea6714610567578063b5c86c46146104e8578063bc063e1a146104cb578063c1d8d1d9146104a2578063c22481d414610484578063d20ccdc21461043f578063d73792a914610422578063d99426a51461038e578063dc49c1b214610370578063dcc9def5146102d8578063e05558011461029d578063e47aaf6d14610258578063e4dcfa6e1461022f5763f2fde38b0361000e573461022a57602036600319011261022a576101ba611aee565b6101c2611b04565b6001600160a01b0390811690811561021157600054826001600160601b0360a01b821617600055167f8be0079c531659141344cd1fd0a4f28419497f9722a3daafe3b4186f6b6457e0600080a3005b604051631e4fbdf760e01b815260006004820152602490fd5b600080fd5b3461022a57600036600319011261022a576007546040516001600160a01b039091168152602090f35b3461022a57600036600319011261022a576040517f00000000000000000000000000000000000000000000000000000000000000006001600160a01b03168152602090f35b3461022a57600036600319011261022a5760206040517f939c21a48a8dbe3a9a2404a1d46691e4d39f6583d6ec6b35714604c986d801068152f35b3461022a57600036600319011261022a576102f1611b04565b600b54801561035e57804210610346576009547f528d9479e9f9889a87a3c30c7f7ba537e5e59c4c85a37733b16e57c62df613026040600a54928151908152836020820152a16009556000600a819055600b55005b602490604051906350ba9f2960e01b82526004820152fd5b6040516358b89db560e11b8152600490fd5b3461022a57600036600319011261022a576020600b54604051908152f35b3461022a57602036600319011261022a576004356103aa611b04565b61138881116104105780600a556202a30042018042116103fa577ff737d309c7ec2dfc95ac81f194900d7820487d0a7e5f81627c1e9b0b06d71afe9181604092600b5582519182526020820152a1005b634e487b7160e01b600052601160045260246000fd5b60405163cd4e616760e01b8152600490fd5b3461022a57600036600319011261022a5760206040516127108152f35b3461022a57600036600319011261022a576040517f00000000000000000000000000000000000000000000000000000000000000006001600160a01b03168152602090f35b3461022a57600036600319011261022a576020600854604051908152f35b3461022a57600036600319011261022a576003546040516001600160a01b039091168152602090f35b3461022a57600036600319011261022a5760206040516113888152f35b3461022a57600036600319011261022a57610501611b04565b600854801561035e57804210610346576006546007546001600160a01b0380821690819084167faaebcf1bfa00580e41d966056b48521fa9f202645c86d4ddf28113e617c1b1d3600080a36001600160a01b031992831617600655166007556000600855005b3461022a57604036600319011261022a57610019610583611aee565b61058b611b04565b60243590612393565b3461022a57600036600319011261022a576004546040516001600160a01b039091168152602090f35b3461022a57600036600319011261022a576040517f00000000000000000000000000000000000000000000000000000000000000006001600160a01b03168152602090f35b3461022a57600036600319011261022a576000546040516001600160a01b039091168152602090f35b3461022a57600036600319011261022a576020600954604051908152f35b3461022a57600036600319011261022a5760206040516202a3008152f35b3461022a57602036600319011261022a57610680611aee565b610688611b04565b6001600160a01b031680156106e957806001600160601b0360a01b60075416176007556202a30042018042116103fa576020817fd25bd1071600ba5b7ee8abcdb6b4d39b01f5a7f2818f41f73682b87d802911cd92600855604051908152a2005b604051630ed1b8b360e31b8152600490fd5b3461022a57600036600319011261022a57610714611b04565b600080546001600160a01b0319811682556001600160a01b03167f8be0079c531659141344cd1fd0a4f28419497f9722a3daafe3b4186f6b6457e08280a3005b3461022a57600036600319011261022a576020600554604051908152f35b3461022a57600036600319011261022a5760206040517f618358ac3db8dc274f0cd8829da7e234bd48cd73c4a740aede1adec9846d06a18152f35b3461022a57600036600319011261022a576020600a54604051908152f35b3461022a57602036600319011261022a576107e4611aee565b6107ec611b04565b6001600160a01b0390811690811590811561086a575b5061085957806001600160601b0360a01b60045416176004556202a30042018042116103fa576020817f29de7ba5cd5ca8e6f6a34f38a4b954ecabe1538ae30bb80e43569719b04a111e92600555604051908152a2005b6040516231010160e51b8152600490fd5b90507f000000000000000000000000000000000000000000000000000000000000000016811482610802565b3461022a57600036600319011261022a576108af611b04565b6008541561035e576007546001600160a01b0381167f3e28ced8fcb9933a225edba42bb1f70c43c60d8a79ffa26f769aac0f5544e1a5600080a26001600160a01b0319166007556000600855005b3461022a57600036600319011261022a57610916611b04565b6004546001600160a01b0380821691821561035e576005548042106103465750600354906001600160601b0360a01b908482841617600355166004556000600555167ffdef5fa97f9834c3ce5c25f08d33b4e5a200f1055bc73fa7b69cc974c47b7b34600080a3005b3461022a57604036600319011261022a576001600160a01b036109a0611aee565b16600052600260205260406000206024356000526020526020604060002054604051908152f35b3461022a57600036600319011261022a576109e0611b04565b6004546001600160a01b038116801561035e577f075237797d8ac452994d7896e187caf611428526b127868f65e5e3b0b721a370600080a26001600160a01b0319166004556000600555005b3461022a57600036600319011261022a576006546040516001600160a01b039091168152602090f35b3461022a57604036600319011261022a576004356001600160401b03811161022a57610a85903690600401611abe565b6002600154146116c6576002600155602435421161146c5780156116b4576003546040516370a0823160e01b81523060048201526001600160a01b0390911692602082602481875afa918215610c1657600092611680575b5060009260005b818110610cdf5750506040516370a0823160e01b8152306004820152919050602082602481875afa8015610c1657600090610cab575b610b249250611ba2565b918215610c995760095480840290848204036103fa57612710900491610b4a8385611ba2565b9280610c22575b60405163a9059cbb60e01b8152336004820152602481018590526020816044816000885af1908115610c1657600091610be7575b5015610bd5576020946040519283528583015260408201528260608201527fc5f91541570ee410396e78fff4d3ef181d35ec6e43cc346f958f4fe06b56c47260803392a360018055604051908152f35b6040516312171d8360e31b8152600490fd5b610c09915060203d602011610c0f575b610c018183611b5e565b810190611baf565b86610b85565b503d610bf7565b6040513d6000823e3d90fd5b60065460405163a9059cbb60e01b81526001600160a01b039091166004820152602481018290526020816044816000885af1908115610c1657600091610c7a575b50610b51576040516312171d8360e31b8152600490fd5b610c93915060203d602011610c0f57610c018183611b5e565b86610c63565b60405163bb2875c360e01b8152600490fd5b506020823d602011610cd7575b81610cc560209383611b5e565b8101031261022a57610b249151610b1a565b3d9150610cb8565b61017e19833603018160051b840135121561022a576001600160a01b03610d0e600583901b8501358501611b8e565b1615801561163a575b8015611617575b6116055760208160051b840135840101351561121e576001600160a01b03610d4e600583901b8501358501611b8e565b166040516370a0823160e01b8152306004820152602081602481855afa908115610c16576000916115d3575b50600583901b850135850160e0810190610d95908290611bc7565b15905061148757600584901b860135860160c00135801561147e575b610dd4610dc58660051b8901358901611b8e565b928660051b8901358901611bc7565b92909180421161146c57600160ff60a08960051b8c01358c010135161b336000526002602052604060002060a08960051b8c01358c01013560081c600052602052604060002081815418809155161561145a576040519160208301907f618358ac3db8dc274f0cd8829da7e234bd48cd73c4a740aede1adec9846d06a1825260018060a01b0316604084015260609260208960051b8c01358c01013584820152838152610e8081611b43565b51902091604051927f939c21a48a8dbe3a9a2404a1d46691e4d39f6583d6ec6b35714604c986d8010660208501526040840152309083015260a08760051b8a01358a010135608083015260a082015260a081528060c08101106001600160401b0360c0830111176114445760c0810160405260c0815160208301209160e081019261190160f01b84527f000000000000000000000000000000000000000000000000000000000000000060e2830152610102820152604282820152610f46828201611b43565b01519020610f5383611bf9565b90610f616040519283611b5e565b838252368484011161022a576000602085610f9096610f87968387013784010152611c14565b90929192611ce0565b336001600160a01b0390911603611432576040516323b872dd60e01b81523360048201523060248201526020600585901b87013587018101356044830152816064816000875af1908115610c1657600091611413575b5015610bd5575b6040516370a0823160e01b815230600482015290602082602481865afa8015610c16576000906113df575b6110229250611ba2565b90600260608460051b87013587010135101561022a5760608360051b86013586010135156000146113975760405163095ea7b360e01b81526001600160a01b037f0000000000000000000000000000000000000000000000000000000000000000166004820152602481018390526020816044816000865af18015610c1657611378575b506040516110b381611b43565b600381526060366020830137816110c982611d7c565b526110d381611d9f565b7f00000000000000000000000000000000000000000000000000000000000000006001600160a01b031690528861110982611daf565b526040516370a0823160e01b8152306004820152906020826024818d5afa918215610c1657600092611344575b507f00000000000000000000000000000000000000000000000000000000000000006001600160a01b03163b1561022a57600061119b9160405180938192635c11d79560e01b83528b60243591604030928d60051b8101350101358b60048701611e10565b0381837f00000000000000000000000000000000000000000000000000000000000000006001600160a01b03165af19081611335575b506112c6575060405163a9059cbb60e01b81523360048201526024810183905290602090829060449082906000905af18015610c16576112a7575b5060005b905b81611241575b5061122c575b61122790611b7f565b610ae4565b9361123961122791611b7f565b94905061121e565b6001600160a01b0361125b600585901b8701358701611b8e565b169060405190815282602082015260608460051b8701358701013560408201527fa2c87abc3341789e0370a7baabed4f58835304c2b16a29536744ad19fcfd2e8460603392a387611218565b6112bf9060203d602011610c0f57610c018183611b5e565b508761120c565b6040516370a0823160e01b815230600482015291506020826024818c5afa8015610c1657600090611301575b6112fc9250611ba2565b611210565b506020823d60201161132d575b8161131b60209383611b5e565b8101031261022a576112fc91516112f2565b3d915061130e565b61133e90611b30565b8a6111d1565b9091506020813d602011611370575b8161136060209383611b5e565b8101031261022a5751908a611136565b3d9150611353565b6113909060203d602011610c0f57610c018183611b5e565b50886110a6565b600583901b85013585016080013562ffffff8116900361022a576113d990602435908990600586901b8801358801604081013591608090910135908690611e49565b90611212565b506020823d60201161140b575b816113f960209383611b5e565b8101031261022a576110229151611018565b3d91506113ec565b61142c915060203d602011610c0f57610c018183611b5e565b89610fe6565b604051638baa579f60e01b8152600490fd5b634e487b7160e01b600052604160045260246000fd5b604051633ab3447f60e11b8152600490fd5b604051631ab7da6b60e01b8152600490fd5b50602435610db1565b506101008360051b86013586010135611516575b6040516323b872dd60e01b81523360048201523060248201526020600585901b87013587018101356044830152816064816000875af1908115610c16576000916114f7575b50610fed576040516312171d8360e31b8152600490fd5b611510915060203d602011610c0f57610c018183611b5e565b896114e0565b6001600160a01b03611530600585901b8701358701611b8e565b166101208460051b8701358701013560ff8116810361022a57813b1561022a5760405163d505accf60e01b8152336004820152306024820152600586901b880135880160208101356044830152610100810135606483015260ff92909216608482015261014082013560a48201526101609091013560c482015290600090829060e490829084905af16115c4575b5061149b565b6115cd90611b30565b886115be565b90506020813d6020116115fd575b816115ee60209383611b5e565b8101031261022a575188610d7a565b3d91506115e1565b60405163c1ab6dc160e01b8152600490fd5b50856001600160a01b03611633600584901b8601358601611b8e565b1614610d1e565b5061164c8160051b8401358401611b8e565b7f00000000000000000000000000000000000000000000000000000000000000006001600160a01b03908116911614610d17565b9091506020813d6020116116ac575b8161169c60209383611b5e565b8101031261022a57519084610add565b3d915061168f565b6040516386724c7f60e01b8152600490fd5b604051633ee5aeb560e01b8152600490fd5b3461022a57600036600319011261022a5760206040517f00000000000000000000000000000000000000000000000000000000000000008152f35b3461022a57604036600319011261022a57600435602435336000526002602052604060002082600052602052604060002081815417905560405191825260208201527f8bde7bf9be24658f5c1d48843fb04034cae6c6ceacf23b0cf97b724e4cdc599f60403392a2005b3461022a57604036600319011261022a576004356001600160401b03811161022a576117ad903690600401611abe565b6024356001600160401b03811161022a576117cc903690600401611abe565b808394929403611a2d576117df83611d65565b936117ed6040519586611b5e565b838552601f196117fc85611d65565b013660208701376003546001600160a01b031660005b85811061185f578660405180916020820160208352815180915260206040840192019060005b818110611846575050500390f35b8251845285945060209384019390920191600101611838565b61191190600060405161187181611b43565b60038152606036602083013761189061188b848b8b612383565b611b8e565b61189982611d7c565b6001600160a01b0391821690527f0000000000000000000000000000000000000000000000000000000000000000166118d182611d9f565b52846118dc82611daf565b526118e8838888612383565b35604051948592839263d06ca61f60e01b84526004840152604060248401526044830190611dd3565b03817f00000000000000000000000000000000000000000000000000000000000000006001600160a01b03165afa8060009161197d575b61196493506119695750600061195e828a611dbf565b52611b7f565b611812565b61197290611daf565b5161195e828a611dbf565b919290503d806000833e6119918183611b5e565b602082828101031261022a578151916001600160401b03831161022a57818101601f84830101121561022a5782810151906119cb82611d65565b936119d96040519586611b5e565b8285526020850193820160208460051b83850101011161022a57602081830101935b60208460051b83850101018510611a1d57505050505090611964929190611948565b84518152602094850194016119fb565b60405162461bcd60e51b815260206004820152600f60248201526e098cadccee8d040dad2e6dac2e8c6d608b1b6044820152606490fd5b3461022a57600036600319011261022a57611a7d611b04565b600b541561035e577f2deddd1421c6af279bef431a0556923b575d045194f9a28ed0e009e1c65780bb6020600a54604051908152a16000600a819055600b55005b9181601f8401121561022a578235916001600160401b03831161022a576020808501948460051b01011161022a57565b600435906001600160a01b038216820361022a57565b6000546001600160a01b03163303611b1857565b60405163118cdaa760e01b8152336004820152602490fd5b6001600160401b03811161144457604052565b608081019081106001600160401b0382111761144457604052565b90601f801991011681019081106001600160401b0382111761144457604052565b60001981146103fa5760010190565b356001600160a01b038116810361022a5790565b919082039182116103fa57565b9081602091031261022a5751801515810361022a5790565b903590601e198136030182121561022a57018035906001600160401b03821161022a5760200191813603831361022a57565b6001600160401b03811161144457601f01601f191660200190565b8151919060418303611c4557611c3e92506020820151906060604084015193015160001a90611c50565b9192909190565b505060009160029190565b91907f7fffffffffffffffffffffffffffffff5d576e7357a4501ddfe92f46681b20a08411611cd457926020929160ff608095604051948552168484015260408301526060820152600092839182805260015afa15611cc85780516001600160a01b03811615611cbf57918190565b50809160019190565b604051903d90823e3d90fd5b50505060009160039190565b6004811015611d4f5780611cf2575050565b60018103611d0c5760405163f645eedf60e01b8152600490fd5b60028103611d2d5760405163fce698f760e01b815260048101839052602490fd5b600314611d375750565b602490604051906335e2f38360e21b82526004820152fd5b634e487b7160e01b600052602160045260246000fd5b6001600160401b0381116114445760051b60200190565b805115611d895760200190565b634e487b7160e01b600052603260045260246000fd5b805160011015611d895760400190565b805160021015611d895760600190565b8051821015611d895760209160051b010190565b90815180825260208080930193019160005b828110611df3575050505090565b83516001600160a01b031685529381019392810192600101611de5565b9192608093611e3592979695978452602084015260a0604084015260a0830190611dd3565b6001600160a01b0390951660608201520152565b6040805163095ea7b360e01b8082526001600160a01b037f0000000000000000000000000000000000000000000000000000000000000000811660048401526024830186905293909316976000979296949594929392916020816044818c8e5af180156122cb57612364575b5086519460e086018681106001600160401b03821117612350579062ffffff9189528a875260018060a01b037f000000000000000000000000000000000000000000000000000000000000000016602088015216878601523060608601528560808601528760a08601528760c08601528651946304e45aaf60e01b865260018060a01b03815116600487015260018060a01b03602082015116602487015262ffffff8882015116604487015260018060a01b0360608201511660648701526080810151608487015260a081015160a487015260c060018060a01b039101511660c486015260208560e4818b60018060a01b037f0000000000000000000000000000000000000000000000000000000000000000165af188958161231c575b5061203e575050845163a9059cbb60e01b81523360048201526024810194909452509394919350602091849150604490829087905af19081156120355750612019575090565b6120319060203d602011610c0f57610c018183611b5e565b5090565b513d84823e3d90fd5b9193975091935086156123125784519283527f00000000000000000000000000000000000000000000000000000000000000006001600160a01b0316600484018190526024840188905292602081806044810103818a7f00000000000000000000000000000000000000000000000000000000000000006001600160a01b03165af18015612308576122e9575b50845192606084018481106001600160401b038211176122d557865260028452853660208601377f00000000000000000000000000000000000000000000000000000000000000006001600160a01b031661212585611d7c565b5261212f84611d9f565b6001600160a01b039095169485905285516370a0823160e01b808252306004830152909490936020866024818a5afa9586156122cb578996612297575b50823b156122935791899189809461219b8b5197889687958694635c11d79560e01b8652309260048701611e10565b03925af19081612280575b5061220e575050815163a9059cbb60e01b8152336004820152602481019490945250909190602082604481866001600160a01b037f0000000000000000000000000000000000000000000000000000000000000000165af19081156120355750612019575090565b60209194929550602484518097819382523060048301525afa918215612276575090612242575b61223f9250611ba2565b90565b506020823d60201161226e575b8161225c60209383611b5e565b8101031261022a5761223f9151612235565b3d915061224f565b51903d90823e3d90fd5b61228c90969196611b30565b94386121a6565b8880fd5b9095506020813d6020116122c3575b816122b360209383611b5e565b810103126122935751943861216c565b3d91506122a6565b88513d8b823e3d90fd5b634e487b7160e01b88526041600452602488fd5b6123019060203d602011610c0f57610c018183611b5e565b50386120cb565b86513d89823e3d90fd5b5050505050905090565b9095506020813d602011612348575b8161233860209383611b5e565b8101031261229357519438611fd3565b3d915061232b565b634e487b7160e01b8a52604160045260248afd5b61237c9060203d602011610c0f57610c018183611b5e565b5038611eb5565b9190811015611d895760051b0190565b811561244f576001600160a01b03908116806123ed575060008080809481948254165af1903d156123e7573d906123c982611bf9565b916123d76040519384611b5e565b825260203d92013e5b15610bd557565b506123e0565b6000805460405163a9059cbb60e01b815293166001600160a01b031660048401526024830193909352909160209183918290816044810103925af18015610c16576124355750565b61244c9060203d8111610c0f57610c018183611b5e565b50565b505056fea2646970667358221220d603704c85d544fbcf00f5c829b58d71db0ca76ae464395b61610e8b3ce9fabb64736f6c63430008140033",
  "linkReferences": {},
  "deployedLinkReferences": {}
}