{
  "_format": "hh-sol-artifact-1",
  "contractName": "DustSwapRouterX",
  "sourceName": "contracts/DustSwapRouterX.sol",
  "abi": [
    {
      "inputs": [
        {
          "internalType": "address",
          "name": "_pancakeRouterV2",
          "type": "address"
        },
        {
          "internalType": "address",
          "name": "_pancakeRouterV3",
          "type": "address"
        },
        {
          "internalType": "address",
          "name": "_outputToken",
          "type": "address"
        },
        {
          "internalType": "address",
          "name": "_feeRecipient",
          "type": "address"
        },
        {
          "internalType": "uint256",
          "name": "_initialFee",
          "type": "uint256"
        }
      ],
      "stateMutability": "nonpayable",
      "type": "constructor"
    },
    {
      "inputs": [],
      "name": "DeadlineExpired",
      "type": "error"
    },
    {
      "inputs": [],
      "name": "EmptySwapList",
      "type": "error"
    },
    {
      "inputs": [],
      "name": "FeeTooHigh",
      "type": "error"
    },
    {
      "inputs": [],
      "name": "InsufficientOutput",
      "type": "error"
    },
    {
      "inputs": [],
      "name": "InvalidFeeRecipient",
      "type": "error"
    },
    {
      "inputs": [],
      "name": "InvalidOutputToken",
      "type": "error"
    },
    {
      "inputs": [],
      "name": "InvalidRouter",
      "type": "error"
    },
    {
      "inputs": [],
      "name": "InvalidToken",
      "type": "error"
    },
    {
      "inputs": [],
      "name": "NoPendingOutputToken",
      "type": "error"
    },
    {
      "inputs": [
        {
          "internalType": "address",
          "name": "owner",
          "type": "address"
        }
      ],
      "name": "OwnableInvalidOwner",
      "type": "error"
    },
    {
      "inputs": [
        {
          "internalType": "address",
          "name": "account",
          "type": "address"
        }
      ],
      "name": "OwnableUnauthorizedAccount",
      "type": "error"
    },
    {
      "inputs": [],
      "name": "ReentrancyGuardReentrantCall",
      "type": "error"
    },
    {
      "inputs": [
        {
          "internalType": "uint256",
          "name": "activeAt",
          "type": "uint256"
        }
      ],
      "name": "TimelockActive",
      "type": "error"
    },
    {
      "inputs": [],
      "name": "TransferFailed",
      "type": "error"
    },
    {
      "anonymous": false,
      "inputs": [
        {
          "indexed": true,
          "internalType": "address",
          "name": "user",
          "type": "address"
        },
        {
          "indexed": false,
          "internalType": "uint256",
          "name": "tokensSwapped",
          "type": "uint256"
        },
        {
          "indexed": false,
          "internalType": "uint256",
          "name": "totalOutput",
          "type": "uint256"
        },
        {
          "indexed": false,
          "internalType": "uint256",
          "name": "fee",
          "type": "uint256"
        },
        {
          "indexed": false,
          "internalType": "uint256",
          "name": "userAmount",
          "type": "uint256"
        },
        {
          "indexed": true,
          "internalType": "address",
          "name": "outputToken",
          "type": "address"
        }
      ],
      "name": "BatchSwapCompleted",
      "type": "event"
    },
    {
      "anonymous": false,
      "inputs": [
        {
          "indexed": true,
          "internalType": "address",
          "name": "oldRecipient",
          "type": "address"
        },
        {
          "indexed": true,
          "internalType": "address",
          "name": "newRecipient",
          "type": "address"
        }
      ],
      "name": "FeeRecipientUpdated",
      "type": "event"
    },
    {
      "anonymous": false,
      "inputs": [
        {
          "indexed": false,
          "internalType": "uint256",
          "name": "oldFee",
          "type": "uint256"
        },
        {
          "indexed": false,
          "internalType": "uint256",
          "name": "newFee",
          "type": "uint256"
        }
      ],
      "name": "FeeUpdated",
      "type": "event"
    },
    {
      "anonymous": false,
      "inputs": [
        {
          "indexed": true,
          "internalType": "address",
          "name": "cancelledToken",
          "type": "address"
        }
      ],
      "name": "OutputTokenProposalCancelled",
      "type": "event"
    },
    {
      "anonymous": false,
      "inputs": [
        {
          "indexed": true,
          "internalType": "address",
          "name": "newToken",
          "type": "address"
        },
        {
          "indexed": false,
          "internalType": "uint256",
          "name": "activeAt",
          "type": "uint256"
        }
      ],
      "name": "OutputTokenProposed",
      "type": "event"
    },
    {
      "anonymous": false,
      "inputs": [
        {
          "indexed": true,
          "internalType": "address",
          "name": "oldToken",
          "type": "address"
        },
        {
          "indexed": true,
          "internalType": "address",
          "name": "newToken",
          "type": "address"
        }
      ],
      "name": "OutputTokenUpdated",
      "type": "event"
    },
    {
      "anonymous": false,
      "inputs": [
        {
          "indexed": true,
          "internalType": "address",
          "name": "previousOwner",
          "type": "address"
        },
        {
          "indexed": true,
          "internalType": "address",
          "name": "newOwner",
          "type": "address"
        }
      ],
      "name": "OwnershipTransferred",
      "type": "event"
    },
    {
      "anonymous": false,
      "inputs": [
        {
          "indexed": true,
          "internalType": "address",
          "name": "user",
          "type": "address"
        },
        {
          "indexed": true,
          "internalType": "address",
          "name": "token",
          "type": "address"
        },
        {
          "indexed": false,
          "internalType": "uint256",
          "name": "amountIn",
          "type": "uint256"
        },
        {
          "indexed": false,
          "internalType": "uint256",
          "name": "amountOut",
          "type": "uint256"
        },
        {
          "indexed": false,
          "internalType": "enum DustSwapRouterX.RouterVersion",
          "name": "version",
          "type": "uint8"
        }
      ],
      "name": "SingleSwapCompleted",
      "type": "event"
    },
    {
      "inputs": [],
      "name": "FEE_DENOMINATOR",
      "outputs": [
        {
          "internalType": "uint256",
          "name": "",
          "type": "uint256"
        }
      ],
      "stateMutability": "view",
      "type": "function"
    },
    {
      "inputs": [],
      "name": "MAX_FEE",
      "outputs": [
        {
          "internalType": "uint256",
          "name": "",
          "type": "uint256"
        }
      ],
      "stateMutability": "view",
      "type": "function"
    },
    {
      "inputs": [],
      "name": "OUTPUT_TOKEN_TIMELOCK",
      "outputs": [
        {
          "internalType": "uint256",
          "name": "",
          "type": "uint256"
        }
      ],
      "stateMutability": "view",
      "type": "function"
    },
    {
      "inputs": [],
      "name": "WBNB",
      "outputs": [
        {
          "internalType": "address",
          "name": "",
          "type": "address"
        }
      ],
      "stateMutability": "view",
      "type": "function"
    },
    {
      "inputs": [],
      "name": "applyOutputToken",
      "outputs": [],
      "stateMutability": "nonpayable",
      "type": "function"
    },
    {
      "inputs": [
        {
          "components": [
            {
              "internalType": "address",
              "name": "token",
              "type": "address"
            },
            {
              "internalType": "uint256",
              "name": "amount",
              "type": "uint256"
            },
            {
              "internalType": "uint256",
              "name": "minAmountOut",
              "type": "uint256"
            },
            {
              "internalType": "enum DustSwapRouterX.RouterVersion",
              "name": "version",
              "type": "uint8"
            },
            {
              "internalType": "uint24",
              "name": "v3Fee",
              "type": "uint24"
            },
            {
              "internalType": "uint256",
              "name": "permitDeadline",
              "type": "uint256"
            },
            {
              "internalType": "uint8",
              "name": "permitV",
              "type": "uint8"
            },
            {
              "internalType": "bytes32",
              "name": "permitR",
              "type": "bytes32"
            },
            {
              "internalType": "bytes32",
              "name": "permitS",
              "type": "bytes32"
            }
          ],
          "internalType": "struct DustSwapRouterX.SwapInstruction[]",
          "name": "instructions",
          "type": "tuple[]"
        },
        {
          "internalType": "uint256",
          "name": "deadline",
          "type": "uint256"
        }
      ],
      "name": "batchSwapToToken",
      "outputs": [
        {
          "internalType": "uint256",
          "name": "userAmount",
          "type": "uint256"
        }
      ],
      "stateMutability": "nonpayable",
      "type": "function"
    },
    {
      "inputs": [],
      "name": "cancelOutputToken",
      "outputs": [],
      "stateMutability": "nonpayable",
      "type": "function"
    },
    {
      "inputs": [
        {
          "internalType": "address",
          "name": "token",
          "type": "address"
        },
        {
          "internalType": "uint256",
          "name": "amount",
          "type": "uint256"
        }
      ],
      "name": "emergencyWithdraw",
      "outputs": [],
      "stateMutability": "nonpayable",
      "type": "function"
    },
    {
      "inputs": [],
      "name": "feeRecipient",
      "outputs": [
        {
          "internalType": "address",
          "name": "",
          "type": "address"
        }
      ],
      "stateMutability": "view",
      "type": "function"
    },
    {
      "inputs": [
        {
          "internalType": "address[]",
          "name": "tokens",
          "type": "address[]"
        },
        {
          "internalType": "uint256[]",
          "name": "amounts",
          "type": "uint256[]"
        }
      ],
      "name": "getEstimatedOutputs",
      "outputs": [
        {
          "internalType": "uint256[]",
          "name": "estimates",
          "type": "uint256[]"
        }
      ],
      "stateMutability": "view",
      "type": "function"
    },
    {
      "inputs": [],
      "name": "outputToken",
      "outputs": [
        {
          "internalType": "address",
          "name": "",
          "type": "address"
        }
      ],
      "stateMutability": "view",
      "type": "function"
    },
    {
      "inputs": [],
      "name": "owner",
      "outputs": [
        {
          "internalType": "address",
          "name": "",
          "type": "address"
        }
      ],
      "stateMutability": "view",
      "type": "function"
    },
    {
      "inputs": [],
      "name": "pancakeRouterV2",
      "outputs": [
        {
          "internalType": "contract IPancakeRouter02",
          "name": "",
          "type": "address"
        }
      ],
      "stateMutability": "view",
      "type": "function"
    },
    {
      "inputs": [],
      "name": "pancakeRouterV3",
      "outputs": [
        {
          "internalType": "contract IPancakeV3SwapRouter",
          "name": "",
          "type": "address"
        }
      ],
      "stateMutability": "view",
      "type": "function"
    },
    {
      "inputs": [],
      "name": "pendingOutputToken",
      "outputs": [
        {
          "internalType": "address",
          "name": "",
          "type": "address"
        }
      ],
      "stateMutability": "view",
      "type": "function"
    },
    {
      "inputs": [],
      "name": "pendingOutputTokenActiveAt",
      "outputs": [
        {
          "internalType": "uint256",
          "name": "",
          "type": "uint256"
        }
      ],
      "stateMutability": "view",
      "type": "function"
    },
    {
      "inputs": [
        {
          "internalType": "address",
          "name": "_newToken",
          "type": "address"
        }
      ],
      "name": "proposeOutputToken",
      "outputs": [],
      "stateMutability": "nonpayable",
      "type": "function"
    },
    {
      "inputs": [],
      "name": "renounceOwnership",
      "outputs": [],
      "stateMutability": "nonpayable",
      "type": "function"
    },
    {
      "inputs": [],
      "name": "serviceFee",
      "outputs": [
        {
          "internalType": "uint256",
          "name": "",
          "type": "uint256"
        }
      ],
      "stateMutability": "view",
      "type": "function"
    },
    {
      "inputs": [
        {
          "internalType": "uint256",
          "name": "_newFee",
          "type": "uint256"
        }
      ],
      "name": "setFee",
      "outputs": [],
      "stateMutability": "nonpayable",
      "type": "function"
    },
    {
      "inputs": [
        {
          "internalType": "address",
          "name": "_newRecipient",
          "type": "address"
        }
      ],
      "name": "setFeeRecipient",
      "outputs": [],
      "stateMutability": "nonpayable",
      "type": "function"
    },
    {
      "inputs": [
        {
          "internalType": "address",
          "name": "newOwner",
          "type": "address"
        }
      ],
      "name": "transferOwnership",
      "outputs": [],
      "stateMutability": "nonpayable",
      "type": "function"
    },
    {
      "stateMutability": "payable",
      "type": "receive"
    }
  ],
  "bytecode": "0x60e060409080825234620002a55760a08162001ed88038038091620000258285620002aa565b833981010312620002a5576200003b81620002e4565b906200004a60208201620002e4565b9062000058848201620002e4565b9260806200006960608401620002e4565b9201519333156200028d5760008054336001600160a01b031980831682178455895190966001600160a01b03969495949193909287929183167f8be0079c531659141344cd1fd0a4f28419497f9722a3daafe3b4186f6b6457e08880a36001805516918215801562000282575b620002735750841695861562000262576113888811620002515781856020926004946080521660a0528951928380926315ab88c960e31b82525afa9283156200024657908185939294620001fb575b50508260c05216918215918215620001ee575b5050620001de57816002541617600255600554161760055560065551611bde9081620002fa82396080518181816105d2015281816106a70152818161070e01528181610c900152818161126c01526117d6015260a051818181610c2e015281816115d90152611720015260c05181818161064301528181610adf01528181610d7101528181610f6f015281816111ff0152818161165a0152818161181a01526118710152f35b84516231010160e51b8152600490fd5b1682149050388062000138565b91935091506020823d82116200023d575b816200021b60209383620002aa565b810103126200023a5750620002318391620002e4565b91388062000125565b80fd5b3d91506200020c565b8851903d90823e3d90fd5b885163cd4e616760e01b8152600490fd5b8851630ed1b8b360e31b8152600490fd5b63466d7fef60e01b8152600490fd5b5085881615620000d6565b8551631e4fbdf760e01b815260006004820152602490fd5b600080fd5b601f909101601f19168101906001600160401b03821190821017620002ce57604052565b634e487b7160e01b600052604160045260246000fd5b51906001600160a01b0382168203620002a55756fe608080604052600436101561001d575b50361561001b57600080fd5b005b60003560e01c908163273efee0146110d15750806346904840146110a857806349fcf0e41461104357806350fd70c414610f975780636078af9214610ecc57806369fe0e2d14610e5e5780636a19c9c714610e40578063715018a614610de75780638abdf5aa14610dc95780638da5cb5b14610da05780638dd9500214610d5b578063901a540214610d3257806395ccea6714610d05578063bc063e1a14610ce8578063c1d8d1d914610cbf578063d20ccdc214610c7a578063d73792a914610c5d578063e47aaf6d14610c18578063e74b981b14610b97578063ed56dac914610b79578063f1ae159c146101aa5763f2fde38b1461011c573861000f565b346101a55760203660031901126101a5576101356113ea565b61013d611400565b6001600160a01b0390811690811561018c57600054826001600160601b0360a01b821617600055167f8be0079c531659141344cd1fd0a4f28419497f9722a3daafe3b4186f6b6457e0600080a3005b604051631e4fbdf760e01b815260006004820152602490fd5b600080fd5b346101a55760403660031901126101a55767ffffffffffffffff80600435116101a5573660236004350112156101a55760043560040135116101a55736602461012060043560040135026004350101116101a557600260015414610b675760026001556024354211610b55576004356004013515610b43576002546040516370a0823160e01b81523060048201526001600160a01b0390911690602081602481855afa90811561039857600091610b11575b5060009060005b60043560040135811061047757506040516370a0823160e01b815230600482015290602082602481875afa801561039857600090610443575b6102a692506114b7565b91821561043157600654808402908482040361041b576127109004916102cc83856114b7565b92806103a4575b60405163a9059cbb60e01b8152336004820152602481018590526020816044816000885af190811561039857600091610369575b5015610357576020946040519283528583015260408201528260608201527fc5f91541570ee410396e78fff4d3ef181d35ec6e43cc346f958f4fe06b56c47260803392a360018055604051908152f35b6040516312171d8360e31b8152600490fd5b61038b915060203d602011610391575b6103838183611472565b8101906114c4565b86610307565b503d610379565b6040513d6000823e3d90fd5b60055460405163a9059cbb60e01b81526001600160a01b039091166004820152602481018290526020816044816000885af1908115610398576000916103fc575b506102d3576040516312171d8360e31b8152600490fd5b610415915060203d602011610391576103838183611472565b866103e5565b634e487b7160e01b600052601160045260246000fd5b60405163bb2875c360e01b8152600490fd5b506020823d60201161046f575b8161045d60209383611472565b810103126101a5576102a6915161029c565b3d9150610450565b6001600160a01b036104936004356101208402016024016114a3565b16158015610ac8575b8015610aa3575b610a9157604461012082026004350101351561078c5760c461012082026004350101356109d2575b6001600160a01b036104e76004356101208402016024016114a3565b166040516370a0823160e01b8152306004820152602081602481855afa908115610398576000916109a0575b506040516323b872dd60e01b81523360048201523060248201526044610120850260043501013560448201526020816064816000875af190811561039857600091610981575b5015610357576040516370a0823160e01b815230600482015290602082602481865afa80156103985760009061094d575b61059492506114b7565b9060026084610120850260043501013510156101a557600435610120840201608401356109075760405163095ea7b360e01b81526001600160a01b037f0000000000000000000000000000000000000000000000000000000000000000166004820152602481018390526020816044816000865af18015610398576108e8575b5060405161062181611456565b60038152606036602083013781610637826114f4565b5261064181611517565b7f00000000000000000000000000000000000000000000000000000000000000006001600160a01b031690528661067782611527565b526040516370a0823160e01b8152306004820152906020826024818b5afa918215610398576000926108b4575b507f00000000000000000000000000000000000000000000000000000000000000006001600160a01b03163b156101a55760006107099160405180938192635c11d79560e01b835260243590309060646101208d026004350101358b60048701611588565b0381837f00000000000000000000000000000000000000000000000000000000000000006001600160a01b03165af190816108a5575b50610836575060405163a9059cbb60e01b81523360048201526024810183905290602090829060449082906000905af1801561039857610817575b5060005b905b816107af575b5061079a575b61079590611494565b610263565b916107a761079591611494565b92905061078c565b6001600160a01b036107cb6004356101208602016024016114a3565b16906040519081528260208201526084610120850260043501013560408201527fa2c87abc3341789e0370a7baabed4f58835304c2b16a29536744ad19fcfd2e8460603392a385610786565b61082f9060203d602011610391576103838183611472565b508561077a565b6040516370a0823160e01b815230600482015291506020826024818a5afa801561039857600090610871575b61086c92506114b7565b61077e565b506020823d60201161089d575b8161088b60209383611472565b810103126101a55761086c9151610862565b3d915061087e565b6108ae9061142c565b8861073f565b9091506020813d6020116108e0575b816108d060209383611472565b810103126101a5575190886106a4565b3d91506108c3565b6109009060203d602011610391576103838183611472565b5086610614565b60043561012084020160a4013562ffffff811690036101a5576109479060243590879060043561012087020160648101359160a4909101359086906115c1565b90610780565b506020823d602011610979575b8161096760209383611472565b810103126101a557610594915161058a565b3d915061095a565b61099a915060203d602011610391576103838183611472565b87610559565b90506020813d6020116109ca575b816109bb60209383611472565b810103126101a5575186610513565b3d91506109ae565b6001600160a01b036109ee6004356101208402016024016114a3565b1660e4610120830260043501013560ff811681036101a557813b156101a55760405163d505accf60e01b815233600480830191909152306024830152356101208502016044818101359083015260c480820135606484015260ff93909316608483015261010481013560a483015261012401359181019190915290600090829060e490829084905af1610a82575b506104cb565b610a8b9061142c565b84610a7c565b60405163c1ab6dc160e01b8152600490fd5b50836001600160a01b03610ac16004356101208502016024016114a3565b16146104a3565b50610add6024610120830260043501016114a3565b7f00000000000000000000000000000000000000000000000000000000000000006001600160a01b0390811691161461049c565b90506020813d602011610b3b575b81610b2c60209383611472565b810103126101a557518261025c565b3d9150610b1f565b6040516386724c7f60e01b8152600490fd5b604051631ab7da6b60e01b8152600490fd5b604051633ee5aeb560e01b8152600490fd5b346101a55760003660031901126101a55760206040516202a3008152f35b346101a55760203660031901126101a557610bb06113ea565b610bb8611400565b6001600160a01b03908116908115610c0657816005549182167faaebcf1bfa00580e41d966056b48521fa9f202645c86d4ddf28113e617c1b1d3600080a36001600160a01b03191617600555005b604051630ed1b8b360e31b8152600490fd5b346101a55760003660031901126101a5576040517f00000000000000000000000000000000000000000000000000000000000000006001600160a01b03168152602090f35b346101a55760003660031901126101a55760206040516127108152f35b346101a55760003660031901126101a5576040517f00000000000000000000000000000000000000000000000000000000000000006001600160a01b03168152602090f35b346101a55760003660031901126101a5576002546040516001600160a01b039091168152602090f35b346101a55760003660031901126101a55760206040516113888152f35b346101a55760403660031901126101a55761001b610d216113ea565b610d29611400565b60243590611ac4565b346101a55760003660031901126101a5576003546040516001600160a01b039091168152602090f35b346101a55760003660031901126101a5576040517f00000000000000000000000000000000000000000000000000000000000000006001600160a01b03168152602090f35b346101a55760003660031901126101a5576000546040516001600160a01b039091168152602090f35b346101a55760003660031901126101a5576020600654604051908152f35b346101a55760003660031901126101a557610e00611400565b600080546001600160a01b0319811682556001600160a01b03167f8be0079c531659141344cd1fd0a4f28419497f9722a3daafe3b4186f6b6457e08280a3005b346101a55760003660031901126101a5576020600454604051908152f35b346101a55760203660031901126101a557600435610e7a611400565b6113888111610eba577f528d9479e9f9889a87a3c30c7f7ba537e5e59c4c85a37733b16e57c62df6130260406006548151908152836020820152a1600655005b60405163cd4e616760e01b8152600490fd5b346101a55760203660031901126101a557610ee56113ea565b610eed611400565b6001600160a01b03908116908115908115610f6b575b50610f5a57806001600160601b0360a01b60035416176003556202a300420180421161041b576020817f29de7ba5cd5ca8e6f6a34f38a4b954ecabe1538ae30bb80e43569719b04a111e92600455604051908152a2005b6040516231010160e51b8152600490fd5b90507f000000000000000000000000000000000000000000000000000000000000000016811482610f03565b346101a55760003660031901126101a557610fb0611400565b6003546001600160a01b03808216918215611031576004548042106110195750600254906001600160601b0360a01b908482841617600255166003556000600455167ffdef5fa97f9834c3ce5c25f08d33b4e5a200f1055bc73fa7b69cc974c47b7b34600080a3005b602490604051906350ba9f2960e01b82526004820152fd5b6040516322fc91fd60e21b8152600490fd5b346101a55760003660031901126101a55761105c611400565b6003546001600160a01b0381168015611031577f075237797d8ac452994d7896e187caf611428526b127868f65e5e3b0b721a370600080a26001600160a01b0319166003556000600455005b346101a55760003660031901126101a5576005546040516001600160a01b039091168152602090f35b346101a55760403660031901126101a55760043567ffffffffffffffff81116101a5576111029036906004016113b9565b9060243567ffffffffffffffff81116101a5576111239036906004016113b9565b90938184036113855750611136836114dc565b936111446040519586611472565b838552601f19611153856114dc565b013660208701376002546001600160a01b031660005b8581106111b6578660405180916020820160208352815180915260206040840192019060005b81811061119d575050500390f35b825184528594506020938401939092019160010161118f565b6112689060006040516111c881611456565b6003815260603660208301376111e76111e2848b8b611ab4565b6114a3565b6111f0826114f4565b6001600160a01b0391821690527f00000000000000000000000000000000000000000000000000000000000000001661122882611517565b528461123382611527565b5261123f838888611ab4565b35604051948592839263d06ca61f60e01b8452600484015260406024840152604483019061154b565b03817f00000000000000000000000000000000000000000000000000000000000000006001600160a01b03165afa806000916112d4575b6112bb93506112c0575060006112b5828a611537565b52611494565b611169565b6112c990611527565b516112b5828a611537565b919290503d806000833e6112e88183611472565b60208282810103126101a55781519167ffffffffffffffff83116101a557818101601f8483010112156101a5578281015190611323826114dc565b936113316040519586611472565b8285526020850193820160208460051b8385010101116101a557602081830101935b60208460051b83850101018510611375575050505050906112bb92919061129f565b8451815260209485019401611353565b62461bcd60e51b815260206004820152600f60248201526e098cadccee8d040dad2e6dac2e8c6d608b1b6044820152606490fd5b9181601f840112156101a55782359167ffffffffffffffff83116101a5576020808501948460051b0101116101a557565b600435906001600160a01b03821682036101a557565b6000546001600160a01b0316330361141457565b60405163118cdaa760e01b8152336004820152602490fd5b67ffffffffffffffff811161144057604052565b634e487b7160e01b600052604160045260246000fd5b6080810190811067ffffffffffffffff82111761144057604052565b90601f8019910116810190811067ffffffffffffffff82111761144057604052565b600019811461041b5760010190565b356001600160a01b03811681036101a55790565b9190820391821161041b57565b908160209103126101a5575180151581036101a55790565b67ffffffffffffffff81116114405760051b60200190565b8051156115015760200190565b634e487b7160e01b600052603260045260246000fd5b8051600110156115015760400190565b8051600210156115015760600190565b80518210156115015760209160051b010190565b90815180825260208080930193019160005b82811061156b575050505090565b83516001600160a01b03168552938101939281019260010161155d565b91926080936115ad92979695978452602084015260a0604084015260a083019061154b565b6001600160a01b0390951660608201520152565b6040805163095ea7b360e01b81526001600160a01b037f0000000000000000000000000000000000000000000000000000000000000000811660048301526024820185905297989760009792969316949192906020816044818b8a5af18015611aaa57611a8b575b5085519867ffffffffffffffff9260e08b018481118c821017611a77579062ffffff918952878c5260018060a01b037f00000000000000000000000000000000000000000000000000000000000000001660208d015216878b01523060608b01528460808b01528760a08b01528760c08b01528651996304e45aaf60e01b8b5260018060a01b0381511660048c015260018060a01b0360208201511660248c015262ffffff888201511660448c015260018060a01b0360608201511660648c0152608081015160848c015260a081015160a48c015260c060018060a01b039101511660c48b015260208a60e4818b60018060a01b037f0000000000000000000000000000000000000000000000000000000000000000165af1808991611a3c575b899a9b50156000146117b9575050855163a9059cbb60e01b81523360048201526024810194909452509194602093869350604492508391905af19081156117b05750611794575090565b6117ac9060203d602011610391576103838183611472565b5090565b513d84823e3d90fd5b9296955092965092508015611a3357835163095ea7b360e01b81527f00000000000000000000000000000000000000000000000000000000000000006001600160a01b0316600482018190526024820183905290602081806044810103818c7f00000000000000000000000000000000000000000000000000000000000000006001600160a01b03165af18015611a2957611a0a575b5084519560608701908111878210176119f657855260028652843660208801377f00000000000000000000000000000000000000000000000000000000000000006001600160a01b03166118a2876114f4565b526118ac86611517565b6001600160a01b039097169687905284516370a0823160e01b808252306004830152909690946020886024818c5afa9788156119ec578a986119b8575b50823b156119b457908980949392611918895197889687958694635c11d79560e01b8652309260048701611588565b03925af190816119a1575b5061192f575050505090565b60209060248394959693518097819382523060048301525afa918215611997575090611963575b61196092506114b7565b90565b506020823d60201161198f575b8161197d60209383611472565b810103126101a5576119609151611956565b3d9150611970565b51903d90823e3d90fd5b6119ad9096919661142c565b9438611923565b8980fd5b9097506020813d6020116119e4575b816119d460209383611472565b810103126119b4575196386118e9565b3d91506119c7565b87513d8c823e3d90fd5b634e487b7160e01b89526041600452602489fd5b611a229060203d602011610391576103838183611472565b503861184f565b86513d8b823e3d90fd5b50505050505090565b905060208b3d602011611a6f575b81611a5760209383611472565b81010312611a6b57995198998a999061174a565b8880fd5b3d9150611a4a565b634e487b7160e01b8a52604160045260248afd5b611aa39060203d602011610391576103838183611472565b5038611629565b87513d8a823e3d90fd5b91908110156115015760051b0190565b8115611ba4576001600160a01b0390811680611b42575060008080809481948254165af1903d15611b3c573d9067ffffffffffffffff8211611b285760405191611b18601f8201601f191660200184611472565b825260203d92013e5b1561035757565b634e487b7160e01b81526041600452602490fd5b50611b21565b6000805460405163a9059cbb60e01b815293166001600160a01b031660048401526024830193909352909160209183918290816044810103925af1801561039857611b8a5750565b611ba19060203d8111610391576103838183611472565b50565b505056fea264697066735822122050150bdbf632f3613deaa54d4f84be9c82d1030da217ba3caf48b23ff0ab428c64736f6c63430008140033",
  "linkReferences": {},
  "deployedLinkReferences": {}
}