{
  "_format": "hh-sol-artifact-1",
  "contractName": "DustSwapRouterX",
  "sourceName": "contracts/DustSwapRouterX.sol",
  "abi": [
    {
      "inputs": [
        {
          "internalType": "address",
          "name": "_pancakeRouterV2",
          "type": "address"
        },
        {
          "internalType": "address",
          "name": "_pancakeRouterV3",
          "type": "address"
        },
        {
          "internalType": "address",
          "name": "_outputToken",
          "type": "address"
        },
        {
          "internalType": "address",
          "name": "_feeRecipient",
          "type": "address"
        },
        {
          "internalType": "uint256",
          "name": "_initialFee",
          "type": "uint256"
        }
      ],
      "stateMutability": "nonpayable",
      "type": "constructor"
    },
    {
      "inputs": [],
      "name": "DeadlineExpired",
      "type": "error"
    },
    {
      "inputs": [],
      "name": "EmptySwapList",
      "type": "error"
    },
    {
      "inputs": [],
      "name": "FeeTooHigh",
      "type": "error"
    },
    {
      "inputs": [],
      "name": "InsufficientOutput",
      "type": "error"
    },
    {
      "inputs": [],
      "name": "InvalidFeeRecipient",
      "type": "error"
    },
    {
      "inputs": [],
      "name": "InvalidOutputToken",
      "type": "error"
    },
    {
      "inputs": [],
      "name": "InvalidRouter",
      "type": "error"
    },
    {
      "inputs": [],
      "name": "InvalidToken",
      "type": "error"
    },
    {
      "inputs": [
        {
          "internalType": "address",
          "name": "owner",
          "type": "address"
        }
      ],
      "name": "OwnableInvalidOwner",
      "type": "error"
    },
    {
      "inputs": [
        {
          "internalType": "address",
          "name": "account",
          "type": "address"
        }
      ],
      "name": "OwnableUnauthorizedAccount",
      "type": "error"
    },
    {
      "inputs": [],
      "name": "ReentrancyGuardReentrantCall",
      "type": "error"
    },
    {
      "inputs": [],
      "name": "TransferFailed",
      "type": "error"
    },
    {
      "anonymous": false,
      "inputs": [
        {
          "indexed": true,
          "internalType": "address",
          "name": "user",
          "type": "address"
        },
        {
          "indexed": false,
          "internalType": "uint256",
          "name": "tokensSwapped",
          "type": "uint256"
        },
        {
          "indexed": false,
          "internalType": "uint256",
          "name": "totalOutput",
          "type": "uint256"
        },
        {
          "indexed": false,
          "internalType": "uint256",
          "name": "fee",
          "type": "uint256"
        },
        {
          "indexed": false,
          "internalType": "uint256",
          "name": "userAmount",
          "type": "uint256"
        },
        {
          "indexed": true,
          "internalType": "address",
          "name": "outputToken",
          "type": "address"
        }
      ],
      "name": "BatchSwapCompleted",
      "type": "event"
    },
    {
      "anonymous": false,
      "inputs": [
        {
          "indexed": true,
          "internalType": "address",
          "name": "oldRecipient",
          "type": "address"
        },
        {
          "indexed": true,
          "internalType": "address",
          "name": "newRecipient",
          "type": "address"
        }
      ],
      "name": "FeeRecipientUpdated",
      "type": "event"
    },
    {
      "anonymous": false,
      "inputs": [
        {
          "indexed": false,
          "internalType": "uint256",
          "name": "oldFee",
          "type": "uint256"
        },
        {
          "indexed": false,
          "internalType": "uint256",
          "name": "newFee",
          "type": "uint256"
        }
      ],
      "name": "FeeUpdated",
      "type": "event"
    },
    {
      "anonymous": false,
      "inputs": [
        {
          "indexed": true,
          "internalType": "address",
          "name": "oldToken",
          "type": "address"
        },
        {
          "indexed": true,
          "internalType": "address",
          "name": "newToken",
          "type": "address"
        }
      ],
      "name": "OutputTokenUpdated",
      "type": "event"
    },
    {
      "anonymous": false,
      "inputs": [
        {
          "indexed": true,
          "internalType": "address",
          "name": "previousOwner",
          "type": "address"
        },
        {
          "indexed": true,
          "internalType": "address",
          "name": "newOwner",
          "type": "address"
        }
      ],
      "name": "OwnershipTransferred",
      "type": "event"
    },
    {
      "anonymous": false,
      "inputs": [
        {
          "indexed": true,
          "internalType": "address",
          "name": "user",
          "type": "address"
        },
        {
          "indexed": true,
          "internalType": "address",
          "name": "token",
          "type": "address"
        },
        {
          "indexed": false,
          "internalType": "uint256",
          "name": "amountIn",
          "type": "uint256"
        },
        {
          "indexed": false,
          "internalType": "uint256",
          "name": "amountOut",
          "type": "uint256"
        },
        {
          "indexed": false,
          "internalType": "enum DustSwapRouterX.RouterVersion",
          "name": "version",
          "type": "uint8"
        }
      ],
      "name": "SingleSwapCompleted",
      "type": "event"
    },
    {
      "inputs": [],
      "name": "FEE_DENOMINATOR",
      "outputs": [
        {
          "internalType": "uint256",
          "name": "",
          "type": "uint256"
        }
      ],
      "stateMutability": "view",
      "type": "function"
    },
    {
      "inputs": [],
      "name": "MAX_FEE",
      "outputs": [
        {
          "internalType": "uint256",
          "name": "",
          "type": "uint256"
        }
      ],
      "stateMutability": "view",
      "type": "function"
    },
    {
      "inputs": [],
      "name": "WBNB",
      "outputs": [
        {
          "internalType": "address",
          "name": "",
          "type": "address"
        }
      ],
      "stateMutability": "view",
      "type": "function"
    },
    {
      "inputs": [
        {
          "components": [
            {
              "internalType": "address",
              "name": "token",
              "type": "address"
            },
            {
              "internalType": "uint256",
              "name": "amount",
              "type": "uint256"
            },
            {
              "internalType": "uint256",
              "name": "minAmountOut",
              "type": "uint256"
            },
            {
              "internalType": "enum DustSwapRouterX.RouterVersion",
              "name": "version",
              "type": "uint8"
            },
            {
              "internalType": "uint24",
              "name": "v3Fee",
              "type": "uint24"
            },
            {
              "internalType": "uint256",
              "name": "permitDeadline",
              "type": "uint256"
            },
            {
              "internalType": "uint8",
              "name": "permitV",
              "type": "uint8"
            },
            {
              "internalType": "bytes32",
              "name": "permitR",
              "type": "bytes32"
            },
            {
              "internalType": "bytes32",
              "name": "permitS",
              "type": "bytes32"
            }
          ],
          "internalType": "struct DustSwapRouterX.SwapInstruction[]",
          "name": "instructions",
          "type": "tuple[]"
        },
        {
          "internalType": "uint256",
          "name": "deadline",
          "type": "uint256"
        }
      ],
      "name": "batchSwapToToken",
      "outputs": [
        {
          "internalType": "uint256",
          "name": "userAmount",
          "type": "uint256"
        }
      ],
      "stateMutability": "nonpayable",
      "type": "function"
    },
    {
      "inputs": [
        {
          "internalType": "address",
          "name": "token",
          "type": "address"
        },
        {
          "internalType": "uint256",
          "name": "amount",
          "type": "uint256"
        }
      ],
      "name": "emergencyWithdraw",
      "outputs": [],
      "stateMutability": "nonpayable",
      "type": "function"
    },
    {
      "inputs": [],
      "name": "feeRecipient",
      "outputs": [
        {
          "internalType": "address",
          "name": "",
          "type": "address"
        }
      ],
      "stateMutability": "view",
      "type": "function"
    },
    {
      "inputs": [
        {
          "internalType": "address[]",
          "name": "tokens",
          "type": "address[]"
        },
        {
          "internalType": "uint256[]",
          "name": "amounts",
          "type": "uint256[]"
        }
      ],
      "name": "getEstimatedOutputs",
      "outputs": [
        {
          "internalType": "uint256[]",
          "name": "estimates",
          "type": "uint256[]"
        }
      ],
      "stateMutability": "view",
      "type": "function"
    },
    {
      "inputs": [],
      "name": "outputToken",
      "outputs": [
        {
          "internalType": "address",
          "name": "",
          "type": "address"
        }
      ],
      "stateMutability": "view",
      "type": "function"
    },
    {
      "inputs": [],
      "name": "owner",
      "outputs": [
        {
          "internalType": "address",
          "name": "",
          "type": "address"
        }
      ],
      "stateMutability": "view",
      "type": "function"
    },
    {
      "inputs": [],
      "name": "pancakeRouterV2",
      "outputs": [
        {
          "internalType": "contract IPancakeRouter02",
          "name": "",
          "type": "address"
        }
      ],
      "stateMutability": "view",
      "type": "function"
    },
    {
      "inputs": [],
      "name": "pancakeRouterV3",
      "outputs": [
        {
          "internalType": "contract IPancakeV3SwapRouter",
          "name": "",
          "type": "address"
        }
      ],
      "stateMutability": "view",
      "type": "function"
    },
    {
      "inputs": [],
      "name": "renounceOwnership",
      "outputs": [],
      "stateMutability": "nonpayable",
      "type": "function"
    },
    {
      "inputs": [],
      "name": "serviceFee",
      "outputs": [
        {
          "internalType": "uint256",
          "name": "",
          "type": "uint256"
        }
      ],
      "stateMutability": "view",
      "type": "function"
    },
    {
      "inputs": [
        {
          "internalType": "uint256",
          "name": "_newFee",
          "type": "uint256"
        }
      ],
      "name": "setFee",
      "outputs": [],
      "stateMutability": "nonpayable",
      "type": "function"
    },
    {
      "inputs": [
        {
          "internalType": "address",
          "name": "_newRecipient",
          "type": "address"
        }
      ],
      "name": "setFeeRecipient",
      "outputs": [],
      "stateMutability": "nonpayable",
      "type": "function"
    },
    {
      "inputs": [
        {
          "internalType": "address",
          "name": "_newToken",
          "type": "address"
        }
      ],
      "name": "setOutputToken",
      "outputs": [],
      "stateMutability": "nonpayable",
      "type": "function"
    },
    {
      "inputs": [
        {
          "internalType": "address",
          "name": "newOwner",
          "type": "address"
        }
      ],
      "name": "transferOwnership",
      "outputs": [],
      "stateMutability": "nonpayable",
      "type": "function"
    },
    {
      "stateMutability": "payable",
      "type": "receive"
    }
  ],
  "bytecode": "0x60e060409080825234620002a55760a08162001d178038038091620000258285620002aa565b833981010312620002a5576200003b81620002e4565b906200004a60208201620002e4565b9062000058848201620002e4565b9260806200006960608401620002e4565b9201519333156200028d5760008054336001600160a01b031980831682178455895190966001600160a01b03969495949193909287929183167f8be0079c531659141344cd1fd0a4f28419497f9722a3daafe3b4186f6b6457e08880a36001805516918215801562000282575b620002735750841695861562000262576113888811620002515781856020926004946080521660a0528951928380926315ab88c960e31b82525afa9283156200024657908185939294620001fb575b50508260c05216918215918215620001ee575b5050620001de57816002541617600255600354161760035560045551611a1d9081620002fa82396080518181816105a001528181610675015281816106dc01528181610c40015281816110ab0152611615015260a051818181610bde01528181611418015261155f015260c05181818161061101528181610aad01528181610cf801528181610e520152818161103e015281816114990152818161165901526116b00152f35b84516231010160e51b8152600490fd5b1682149050388062000138565b91935091506020823d82116200023d575b816200021b60209383620002aa565b810103126200023a5750620002318391620002e4565b91388062000125565b80fd5b3d91506200020c565b8851903d90823e3d90fd5b885163cd4e616760e01b8152600490fd5b8851630ed1b8b360e31b8152600490fd5b63466d7fef60e01b8152600490fd5b5085881615620000d6565b8551631e4fbdf760e01b815260006004820152602490fd5b600080fd5b601f909101601f19168101906001600160401b03821190821017620002ce57604052565b634e487b7160e01b600052604160045260246000fd5b51906001600160a01b0382168203620002a55756fe608080604052600436101561001d575b50361561001b57600080fd5b005b60003560e01c908163273efee014610f10575080634690484014610ee757806369fe0e2d14610e795780636b5b2c3114610dc7578063715018a614610d6e5780638abdf5aa14610d505780638da5cb5b14610d275780638dd9500214610ce257806395ccea6714610cb5578063bc063e1a14610c98578063c1d8d1d914610c6f578063d20ccdc214610c2a578063d73792a914610c0d578063e47aaf6d14610bc8578063e74b981b14610b47578063f1ae159c146101785763f2fde38b146100e5573861000f565b34610173576020366003190112610173576100fe611229565b61010661123f565b6001600160a01b0390811690811561015a57600054826bffffffffffffffffffffffff60a01b821617600055167f8be0079c531659141344cd1fd0a4f28419497f9722a3daafe3b4186f6b6457e0600080a3005b604051631e4fbdf760e01b815260006004820152602490fd5b600080fd5b346101735760403660031901126101735767ffffffffffffffff80600435116101735736602360043501121561017357600435600401351161017357366024610120600435600401350260043501011161017357600260015414610b355760026001556024354211610b23576004356004013515610b11576002546040516370a0823160e01b81523060048201526001600160a01b0390911690602081602481855afa90811561036657600091610adf575b5060009060005b60043560040135811061044557506040516370a0823160e01b815230600482015290602082602481875afa801561036657600090610411575b61027492506112f6565b9182156103ff5760045480840290848204036103e95761271090049161029a83856112f6565b9280610372575b60405163a9059cbb60e01b8152336004820152602481018590526020816044816000885af190811561036657600091610337575b5015610325576020946040519283528583015260408201528260608201527fc5f91541570ee410396e78fff4d3ef181d35ec6e43cc346f958f4fe06b56c47260803392a360018055604051908152f35b6040516312171d8360e31b8152600490fd5b610359915060203d60201161035f575b61035181836112b1565b810190611303565b866102d5565b503d610347565b6040513d6000823e3d90fd5b60035460405163a9059cbb60e01b81526001600160a01b039091166004820152602481018290526020816044816000885af1908115610366576000916103ca575b506102a1576040516312171d8360e31b8152600490fd5b6103e3915060203d60201161035f5761035181836112b1565b866103b3565b634e487b7160e01b600052601160045260246000fd5b60405163bb2875c360e01b8152600490fd5b506020823d60201161043d575b8161042b602093836112b1565b8101031261017357610274915161026a565b3d915061041e565b6001600160a01b036104616004356101208402016024016112e2565b16158015610a96575b8015610a71575b610a5f57604461012082026004350101351561075a5760c461012082026004350101356109a0575b6001600160a01b036104b56004356101208402016024016112e2565b166040516370a0823160e01b8152306004820152602081602481855afa9081156103665760009161096e575b506040516323b872dd60e01b81523360048201523060248201526044610120850260043501013560448201526020816064816000875af19081156103665760009161094f575b5015610325576040516370a0823160e01b815230600482015290602082602481865afa80156103665760009061091b575b61056292506112f6565b90600260846101208502600435010135101561017357600435610120840201608401356108d55760405163095ea7b360e01b81526001600160a01b037f0000000000000000000000000000000000000000000000000000000000000000166004820152602481018390526020816044816000865af18015610366576108b6575b506040516105ef81611295565b6003815260603660208301378161060582611333565b5261060f81611356565b7f00000000000000000000000000000000000000000000000000000000000000006001600160a01b031690528661064582611366565b526040516370a0823160e01b8152306004820152906020826024818b5afa91821561036657600092610882575b507f00000000000000000000000000000000000000000000000000000000000000006001600160a01b03163b156101735760006106d79160405180938192635c11d79560e01b835260243590309060646101208d026004350101358b600487016113c7565b0381837f00000000000000000000000000000000000000000000000000000000000000006001600160a01b03165af19081610873575b50610804575060405163a9059cbb60e01b81523360048201526024810183905290602090829060449082906000905af18015610366576107e5575b5060005b905b8161077d575b50610768575b610763906112d3565b610231565b91610775610763916112d3565b92905061075a565b6001600160a01b036107996004356101208602016024016112e2565b16906040519081528260208201526084610120850260043501013560408201527fa2c87abc3341789e0370a7baabed4f58835304c2b16a29536744ad19fcfd2e8460603392a385610754565b6107fd9060203d60201161035f5761035181836112b1565b5085610748565b6040516370a0823160e01b815230600482015291506020826024818a5afa80156103665760009061083f575b61083a92506112f6565b61074c565b506020823d60201161086b575b81610859602093836112b1565b810103126101735761083a9151610830565b3d915061084c565b61087c9061126b565b8861070d565b9091506020813d6020116108ae575b8161089e602093836112b1565b8101031261017357519088610672565b3d9150610891565b6108ce9060203d60201161035f5761035181836112b1565b50866105e2565b60043561012084020160a4013562ffffff81169003610173576109159060243590879060043561012087020160648101359160a490910135908690611400565b9061074e565b506020823d602011610947575b81610935602093836112b1565b81010312610173576105629151610558565b3d9150610928565b610968915060203d60201161035f5761035181836112b1565b87610527565b90506020813d602011610998575b81610989602093836112b1565b810103126101735751866104e1565b3d915061097c565b6001600160a01b036109bc6004356101208402016024016112e2565b1660e4610120830260043501013560ff8116810361017357813b156101735760405163d505accf60e01b815233600480830191909152306024830152356101208502016044818101359083015260c480820135606484015260ff93909316608483015261010481013560a483015261012401359181019190915290600090829060e490829084905af1610a50575b50610499565b610a599061126b565b84610a4a565b60405163c1ab6dc160e01b8152600490fd5b50836001600160a01b03610a8f6004356101208502016024016112e2565b1614610471565b50610aab6024610120830260043501016112e2565b7f00000000000000000000000000000000000000000000000000000000000000006001600160a01b0390811691161461046a565b90506020813d602011610b09575b81610afa602093836112b1565b8101031261017357518261022a565b3d9150610aed565b6040516386724c7f60e01b8152600490fd5b604051631ab7da6b60e01b8152600490fd5b604051633ee5aeb560e01b8152600490fd5b3461017357602036600319011261017357610b60611229565b610b6861123f565b6001600160a01b03908116908115610bb657816003549182167faaebcf1bfa00580e41d966056b48521fa9f202645c86d4ddf28113e617c1b1d3600080a36001600160a01b03191617600355005b604051630ed1b8b360e31b8152600490fd5b34610173576000366003190112610173576040517f00000000000000000000000000000000000000000000000000000000000000006001600160a01b03168152602090f35b346101735760003660031901126101735760206040516127108152f35b34610173576000366003190112610173576040517f00000000000000000000000000000000000000000000000000000000000000006001600160a01b03168152602090f35b34610173576000366003190112610173576002546040516001600160a01b039091168152602090f35b346101735760003660031901126101735760206040516113888152f35b346101735760403660031901126101735761001b610cd1611229565b610cd961123f565b60243590611903565b34610173576000366003190112610173576040517f00000000000000000000000000000000000000000000000000000000000000006001600160a01b03168152602090f35b34610173576000366003190112610173576000546040516001600160a01b039091168152602090f35b34610173576000366003190112610173576020600454604051908152f35b3461017357600036600319011261017357610d8761123f565b600080546001600160a01b0319811682556001600160a01b03167f8be0079c531659141344cd1fd0a4f28419497f9722a3daafe3b4186f6b6457e08280a3005b3461017357602036600319011261017357610de0611229565b610de861123f565b6001600160a01b039081169081158015610e4e575b610e3d57816002549182167ffdef5fa97f9834c3ce5c25f08d33b4e5a200f1055bc73fa7b69cc974c47b7b34600080a36001600160a01b03191617600255005b6040516231010160e51b8152600490fd5b50807f0000000000000000000000000000000000000000000000000000000000000000168214610dfd565b3461017357602036600319011261017357600435610e9561123f565b6113888111610ed5577f528d9479e9f9889a87a3c30c7f7ba537e5e59c4c85a37733b16e57c62df6130260406004548151908152836020820152a1600455005b60405163cd4e616760e01b8152600490fd5b34610173576000366003190112610173576003546040516001600160a01b039091168152602090f35b346101735760403660031901126101735760043567ffffffffffffffff811161017357610f419036906004016111f8565b9060243567ffffffffffffffff811161017357610f629036906004016111f8565b90938184036111c45750610f758361131b565b93610f8360405195866112b1565b838552601f19610f928561131b565b013660208701376002546001600160a01b031660005b858110610ff5578660405180916020820160208352815180915260206040840192019060005b818110610fdc575050500390f35b8251845285945060209384019390920191600101610fce565b6110a790600060405161100781611295565b600381526060366020830137611026611021848b8b6118f3565b6112e2565b61102f82611333565b6001600160a01b0391821690527f00000000000000000000000000000000000000000000000000000000000000001661106782611356565b528461107282611366565b5261107e8388886118f3565b35604051948592839263d06ca61f60e01b8452600484015260406024840152604483019061138a565b03817f00000000000000000000000000000000000000000000000000000000000000006001600160a01b03165afa80600091611113575b6110fa93506110ff575060006110f4828a611376565b526112d3565b610fa8565b61110890611366565b516110f4828a611376565b919290503d806000833e61112781836112b1565b60208282810103126101735781519167ffffffffffffffff831161017357818101601f8483010112156101735782810151906111628261131b565b9361117060405195866112b1565b8285526020850193820160208460051b83850101011161017357602081830101935b60208460051b838501010185106111b4575050505050906110fa9291906110de565b8451815260209485019401611192565b62461bcd60e51b815260206004820152600f60248201526e098cadccee8d040dad2e6dac2e8c6d608b1b6044820152606490fd5b9181601f840112156101735782359167ffffffffffffffff8311610173576020808501948460051b01011161017357565b600435906001600160a01b038216820361017357565b6000546001600160a01b0316330361125357565b60405163118cdaa760e01b8152336004820152602490fd5b67ffffffffffffffff811161127f57604052565b634e487b7160e01b600052604160045260246000fd5b6080810190811067ffffffffffffffff82111761127f57604052565b90601f8019910116810190811067ffffffffffffffff82111761127f57604052565b60001981146103e95760010190565b356001600160a01b03811681036101735790565b919082039182116103e957565b90816020910312610173575180151581036101735790565b67ffffffffffffffff811161127f5760051b60200190565b8051156113405760200190565b634e487b7160e01b600052603260045260246000fd5b8051600110156113405760400190565b8051600210156113405760600190565b80518210156113405760209160051b010190565b90815180825260208080930193019160005b8281106113aa575050505090565b83516001600160a01b03168552938101939281019260010161139c565b91926080936113ec92979695978452602084015260a0604084015260a083019061138a565b6001600160a01b0390951660608201520152565b6040805163095ea7b360e01b81526001600160a01b037f0000000000000000000000000000000000000000000000000000000000000000811660048301526024820185905297989760009792969316949192906020816044818b8a5af180156118e9576118ca575b5085519867ffffffffffffffff9260e08b018481118c8210176118b6579062ffffff918952878c5260018060a01b037f00000000000000000000000000000000000000000000000000000000000000001660208d015216878b01523060608b01528460808b01528760a08b01528760c08b01528651996304e45aaf60e01b8b5260018060a01b0381511660048c015260018060a01b0360208201511660248c015262ffffff888201511660448c015260018060a01b0360608201511660648c0152608081015160848c015260a081015160a48c015260c060018060a01b039101511660c48b015260208a60e4818b60018060a01b037f0000000000000000000000000000000000000000000000000000000000000000165af180899161187b575b899a9b50156000146115f8575050855163a9059cbb60e01b81523360048201526024810194909452509194602093869350604492508391905af19081156115ef57506115d3575090565b6115eb9060203d60201161035f5761035181836112b1565b5090565b513d84823e3d90fd5b929695509296509250801561187257835163095ea7b360e01b81527f00000000000000000000000000000000000000000000000000000000000000006001600160a01b0316600482018190526024820183905290602081806044810103818c7f00000000000000000000000000000000000000000000000000000000000000006001600160a01b03165af1801561186857611849575b50845195606087019081118782101761183557855260028652843660208801377f00000000000000000000000000000000000000000000000000000000000000006001600160a01b03166116e187611333565b526116eb86611356565b6001600160a01b039097169687905284516370a0823160e01b808252306004830152909690946020886024818c5afa97881561182b578a986117f7575b50823b156117f357908980949392611757895197889687958694635c11d79560e01b86523092600487016113c7565b03925af190816117e0575b5061176e575050505090565b60209060248394959693518097819382523060048301525afa9182156117d65750906117a2575b61179f92506112f6565b90565b506020823d6020116117ce575b816117bc602093836112b1565b810103126101735761179f9151611795565b3d91506117af565b51903d90823e3d90fd5b6117ec9096919661126b565b9438611762565b8980fd5b9097506020813d602011611823575b81611813602093836112b1565b810103126117f357519638611728565b3d9150611806565b87513d8c823e3d90fd5b634e487b7160e01b89526041600452602489fd5b6118619060203d60201161035f5761035181836112b1565b503861168e565b86513d8b823e3d90fd5b50505050505090565b905060208b3d6020116118ae575b81611896602093836112b1565b810103126118aa57995198998a9990611589565b8880fd5b3d9150611889565b634e487b7160e01b8a52604160045260248afd5b6118e29060203d60201161035f5761035181836112b1565b5038611468565b87513d8a823e3d90fd5b91908110156113405760051b0190565b81156119e3576001600160a01b0390811680611981575060008080809481948254165af1903d1561197b573d9067ffffffffffffffff82116119675760405191611957601f8201601f1916602001846112b1565b825260203d92013e5b1561032557565b634e487b7160e01b81526041600452602490fd5b50611960565b6000805460405163a9059cbb60e01b815293166001600160a01b031660048401526024830193909352909160209183918290816044810103925af18015610366576119c95750565b6119e09060203d811161035f5761035181836112b1565b50565b505056fea2646970667358221220bc96eec9fd070d3e20870894597ade1ce9b087aa69a38e3f179e27550457bf9664736f6c63430008140033",
  "linkReferences": {},
  "deployedLinkReferences": {}
}