{
  "_format": "hh-sol-artifact-1",
  "contractName": "DustSwapRouterX",
  "sourceName": "contracts/DustSwapRouterX.sol",
  "abi": [
    {
      "inputs": [
        {
          "internalType": "address",
          "name": "_pancakeRouterV2",
          "type": "address"
        },
        {
          "internalType": "address",
          "name": "_pancakeRouterV3",
          "type": "address"
        },
        {
          "internalType": "address",
          "name": "_outputToken",
          "type": "address"
        },
        {
          "internalType": "address",
          "name": "_feeRecipient",
          "type": "address"
        },
        {
          "internalType": "uint256",
          "name": "_initialFee",
          "type": "uint256"
        }
      ],
      "stateMutability": "nonpayable",
      "type": "constructor"
    },
    {
      "inputs": [],
      "name": "DeadlineExpired",
      "type": "error"
    },
    {
      "inputs": [],
      "name": "EmptySwapList",
      "type": "error"
    },
    {
      "inputs": [],
      "name": "FeeTooHigh",
      "type": "error"
    },
    {
      "inputs": [],
      "name": "InsufficientOutput",
      "type": "error"
    },
    {
      "inputs": [],
      "name": "InvalidFeeRecipient",
      "type": "error"
    },
    {
      "inputs": [],
      "name": "InvalidOutputToken",
      "type": "error"
    },
    {
      "inputs": [],
      "name": "InvalidRouter",
      "type": "error"
    },
    {
      "inputs": [],
      "name": "InvalidToken",
      "type": "error"
    },
    {
      "inputs": [
        {
          "internalType": "address",
          "name": "owner",
          "type": "address"
        }
      ],
      "name": "OwnableInvalidOwner",
      "type": "error"
    },
    {
      "inputs": [
        {
          "internalType": "address",
          "name": "account",
          "type": "address"
        }
      ],
      "name": "OwnableUnauthorizedAccount",
      "type": "error"
    },
    {
      "inputs": [],
      "name": "ReentrancyGuardReentrantCall",
      "type": "error"
    },
    {
      "inputs": [],
      "name": "TransferFailed",
      "type": "error"
    },
    {
      "anonymous": false,
      "inputs": [
        {
          "indexed": true,
          "internalType": "address",
          "name": "user",
          "type": "address"
        },
        {
          "indexed": false,
          "internalType": "uint256",
          "name": "tokensSwapped",
          "type": "uint256"
        },
        {
          "indexed": false,
          "internalType": "uint256",
          "name": "totalOutput",
          "type": "uint256"
        },
        {
          "indexed": false,
          "internalType": "uint256",
          "name": "fee",
          "type": "uint256"
        },
        {
          "indexed": false,
          "internalType": "uint256",
          "name": "userAmount",
          "type": "uint256"
        },
        {
          "indexed": true,
          "internalType": "address",
          "name": "outputToken",
          "type": "address"
        }
      ],
      "name": "BatchSwapCompleted",
      "type": "event"
    },
    {
      "anonymous": false,
      "inputs": [
        {
          "indexed": true,
          "internalType": "address",
          "name": "oldRecipient",
          "type": "address"
        },
        {
          "indexed": true,
          "internalType": "address",
          "name": "newRecipient",
          "type": "address"
        }
      ],
      "name": "FeeRecipientUpdated",
      "type": "event"
    },
    {
      "anonymous": false,
      "inputs": [
        {
          "indexed": false,
          "internalType": "uint256",
          "name": "oldFee",
          "type": "uint256"
        },
        {
          "indexed": false,
          "internalType": "uint256",
          "name": "newFee",
          "type": "uint256"
        }
      ],
      "name": "FeeUpdated",
      "type": "event"
    },
    {
      "anonymous": false,
      "inputs": [
        {
          "indexed": true,
          "internalType": "address",
          "name": "oldToken",
          "type": "address"
        },
        {
          "indexed": true,
          "internalType": "address",
          "name": "newToken",
          "type": "address"
        }
      ],
      "name": "OutputTokenUpdated",
      "type": "event"
    },
    {
      "anonymous": false,
      "inputs": [
        {
          "indexed": true,
          "internalType": "address",
          "name": "previousOwner",
          "type": "address"
        },
        {
          "indexed": true,
          "internalType": "address",
          "name": "newOwner",
          "type": "address"
        }
      ],
      "name": "OwnershipTransferred",
      "type": "event"
    },
    {
      "anonymous": false,
      "inputs": [
        {
          "indexed": true,
          "internalType": "address",
          "name": "user",
          "type": "address"
        },
        {
          "indexed": true,
          "internalType": "address",
          "name": "token",
          "type": "address"
        },
        {
          "indexed": false,
          "internalType": "uint256",
          "name": "amountIn",
          "type": "uint256"
        },
        {
          "indexed": false,
          "internalType": "uint256",
          "name": "amountOut",
          "type": "uint256"
        },
        {
          "indexed": false,
          "internalType": "enum DustSwapRouterX.RouterVersion",
          "name": "version",
          "type": "uint8"
        }
      ],
      "name": "SingleSwapCompleted",
      "type": "event"
    },
    {
      "inputs": [],
      "name": "FEE_DENOMINATOR",
      "outputs": [
        {
          "internalType": "uint256",
          "name": "",
          "type": "uint256"
        }
      ],
      "stateMutability": "view",
      "type": "function"
    },
    {
      "inputs": [],
      "name": "MAX_FEE",
      "outputs": [
        {
          "internalType": "uint256",
          "name": "",
          "type": "uint256"
        }
      ],
      "stateMutability": "view",
      "type": "function"
    },
    {
      "inputs": [],
      "name": "WBNB",
      "outputs": [
        {
          "internalType": "address",
          "name": "",
          "type": "address"
        }
      ],
      "stateMutability": "view",
      "type": "function"
    },
    {
      "inputs": [
        {
          "components": [
            {
              "internalType": "address",
              "name": "token",
              "type": "address"
            },
            {
              "internalType": "uint256",
              "name": "amount",
              "type": "uint256"
            },
            {
              "internalType": "uint256",
              "name": "minAmountOut",
              "type": "uint256"
            },
            {
              "internalType": "enum DustSwapRouterX.RouterVersion",
              "name": "version",
              "type": "uint8"
            },
            {
              "internalType": "uint24",
              "name": "v3Fee",
              "type": "uint24"
            }
          ],
          "internalType": "struct DustSwapRouterX.SwapInstruction[]",
          "name": "instructions",
          "type": "tuple[]"
        },
        {
          "internalType": "uint256",
          "name": "deadline",
          "type": "uint256"
        }
      ],
      "name": "batchSwapToToken",
      "outputs": [
        {
          "internalType": "uint256",
          "name": "userAmount",
          "type": "uint256"
        }
      ],
      "stateMutability": "nonpayable",
      "type": "function"
    },
    {
      "inputs": [
        {
          "internalType": "address",
          "name": "token",
          "type": "address"
        },
        {
          "internalType": "uint256",
          "name": "amount",
          "type": "uint256"
        }
      ],
      "name": "emergencyWithdraw",
      "outputs": [],
      "stateMutability": "nonpayable",
      "type": "function"
    },
    {
      "inputs": [],
      "name": "feeRecipient",
      "outputs": [
        {
          "internalType": "address",
          "name": "",
          "type": "address"
        }
      ],
      "stateMutability": "view",
      "type": "function"
    },
    {
      "inputs": [
        {
          "internalType": "address[]",
          "name": "tokens",
          "type": "address[]"
        },
        {
          "internalType": "uint256[]",
          "name": "amounts",
          "type": "uint256[]"
        }
      ],
      "name": "getEstimatedOutputs",
      "outputs": [
        {
          "internalType": "uint256[]",
          "name": "estimates",
          "type": "uint256[]"
        }
      ],
      "stateMutability": "view",
      "type": "function"
    },
    {
      "inputs": [],
      "name": "outputToken",
      "outputs": [
        {
          "internalType": "address",
          "name": "",
          "type": "address"
        }
      ],
      "stateMutability": "view",
      "type": "function"
    },
    {
      "inputs": [],
      "name": "owner",
      "outputs": [
        {
          "internalType": "address",
          "name": "",
          "type": "address"
        }
      ],
      "stateMutability": "view",
      "type": "function"
    },
    {
      "inputs": [],
      "name": "pancakeRouterV2",
      "outputs": [
        {
          "internalType": "contract IPancakeRouter02",
          "name": "",
          "type": "address"
        }
      ],
      "stateMutability": "view",
      "type": "function"
    },
    {
      "inputs": [],
      "name": "pancakeRouterV3",
      "outputs": [
        {
          "internalType": "contract IPancakeV3SwapRouter",
          "name": "",
          "type": "address"
        }
      ],
      "stateMutability": "view",
      "type": "function"
    },
    {
      "inputs": [],
      "name": "renounceOwnership",
      "outputs": [],
      "stateMutability": "nonpayable",
      "type": "function"
    },
    {
      "inputs": [],
      "name": "serviceFee",
      "outputs": [
        {
          "internalType": "uint256",
          "name": "",
          "type": "uint256"
        }
      ],
      "stateMutability": "view",
      "type": "function"
    },
    {
      "inputs": [
        {
          "internalType": "uint256",
          "name": "_newFee",
          "type": "uint256"
        }
      ],
      "name": "setFee",
      "outputs": [],
      "stateMutability": "nonpayable",
      "type": "function"
    },
    {
      "inputs": [
        {
          "internalType": "address",
          "name": "_newRecipient",
          "type": "address"
        }
      ],
      "name": "setFeeRecipient",
      "outputs": [],
      "stateMutability": "nonpayable",
      "type": "function"
    },
    {
      "inputs": [
        {
          "internalType": "address",
          "name": "_newToken",
          "type": "address"
        }
      ],
      "name": "setOutputToken",
      "outputs": [],
      "stateMutability": "nonpayable",
      "type": "function"
    },
    {
      "inputs": [
        {
          "internalType": "address",
          "name": "newOwner",
          "type": "address"
        }
      ],
      "name": "transferOwnership",
      "outputs": [],
      "stateMutability": "nonpayable",
      "type": "function"
    },
    {
      "stateMutability": "payable",
      "type": "receive"
    }
  ],
  "bytecode": "0x60e060409080825234620002a55760a08162001c2f8038038091620000258285620002aa565b833981010312620002a5576200003b81620002e4565b906200004a60208201620002e4565b9062000058848201620002e4565b9260806200006960608401620002e4565b9201519333156200028d5760008054336001600160a01b031980831682178455895190966001600160a01b03969495949193909287929183167f8be0079c531659141344cd1fd0a4f28419497f9722a3daafe3b4186f6b6457e08880a36001805516918215801562000282575b620002735750841695861562000262576113888811620002515781856020926004946080521660a0528951928380926315ab88c960e31b82525afa9283156200024657908185939294620001fb575b50508260c05216918215918215620001ee575b5050620001de578160025416176002556003541617600355600455516119359081620002fa823960805181818161027101528181610927015281816109fc01528181610a6201528181610fc3015261152d015260a05181818161020f015281816113300152611477015260c051818181610329015281816104830152818161099801528181610d6501528181610f56015281816113b10152818161157101526115c80152f35b84516231010160e51b8152600490fd5b1682149050388062000138565b91935091506020823d82116200023d575b816200021b60209383620002aa565b810103126200023a5750620002318391620002e4565b91388062000125565b80fd5b3d91506200020c565b8851903d90823e3d90fd5b885163cd4e616760e01b8152600490fd5b8851630ed1b8b360e31b8152600490fd5b63466d7fef60e01b8152600490fd5b5085881615620000d6565b8551631e4fbdf760e01b815260006004820152602490fd5b600080fd5b601f909101601f19168101906001600160401b03821190821017620002ce57604052565b634e487b7160e01b600052604160045260246000fd5b51906001600160a01b0382168203620002a55756fe608080604052600436101561001d575b50361561001b57600080fd5b005b60003560e01c908163273efee014610e28575080634690484014610dff578063647ebac01461051857806369fe0e2d146104aa5780636b5b2c31146103f8578063715018a61461039f5780638abdf5aa146103815780638da5cb5b146103585780638dd950021461031357806395ccea67146102e6578063bc063e1a146102c9578063c1d8d1d9146102a0578063d20ccdc21461025b578063d73792a91461023e578063e47aaf6d146101f9578063e74b981b146101785763f2fde38b146100e5573861000f565b34610173576020366003190112610173576100fe611141565b610106611157565b6001600160a01b0390811690811561015a57600054826bffffffffffffffffffffffff60a01b821617600055167f8be0079c531659141344cd1fd0a4f28419497f9722a3daafe3b4186f6b6457e0600080a3005b604051631e4fbdf760e01b815260006004820152602490fd5b600080fd5b3461017357602036600319011261017357610191611141565b610199611157565b6001600160a01b039081169081156101e757816003549182167faaebcf1bfa00580e41d966056b48521fa9f202645c86d4ddf28113e617c1b1d3600080a36001600160a01b03191617600355005b604051630ed1b8b360e31b8152600490fd5b34610173576000366003190112610173576040517f00000000000000000000000000000000000000000000000000000000000000006001600160a01b03168152602090f35b346101735760003660031901126101735760206040516127108152f35b34610173576000366003190112610173576040517f00000000000000000000000000000000000000000000000000000000000000006001600160a01b03168152602090f35b34610173576000366003190112610173576002546040516001600160a01b039091168152602090f35b346101735760003660031901126101735760206040516113888152f35b346101735760403660031901126101735761001b610302611141565b61030a611157565b6024359061181b565b34610173576000366003190112610173576040517f00000000000000000000000000000000000000000000000000000000000000006001600160a01b03168152602090f35b34610173576000366003190112610173576000546040516001600160a01b039091168152602090f35b34610173576000366003190112610173576020600454604051908152f35b34610173576000366003190112610173576103b8611157565b600080546001600160a01b0319811682556001600160a01b03167f8be0079c531659141344cd1fd0a4f28419497f9722a3daafe3b4186f6b6457e08280a3005b3461017357602036600319011261017357610411611141565b610419611157565b6001600160a01b03908116908115801561047f575b61046e57816002549182167ffdef5fa97f9834c3ce5c25f08d33b4e5a200f1055bc73fa7b69cc974c47b7b34600080a36001600160a01b03191617600255005b6040516231010160e51b8152600490fd5b50807f000000000000000000000000000000000000000000000000000000000000000016821461042e565b34610173576020366003190112610173576004356104c6611157565b6113888111610506577f528d9479e9f9889a87a3c30c7f7ba537e5e59c4c85a37733b16e57c62df6130260406004548151908152836020820152a1600455005b60405163cd4e616760e01b8152600490fd5b346101735760403660031901126101735767ffffffffffffffff8060043511610173573660236004350112156101735760043560040135116101735736602460a0600435600401350260043501011161017357600260015414610ded5760026001556024354211610ddb576004356004013515610dc9576002546040516370a0823160e01b81523060048201526001600160a01b0390911690602081602481855afa90811561070557600091610d97575b5060009060005b6004356004013581106107e457506040516370a0823160e01b815230600482015290602082602481875afa8015610705576000906107b0575b6106139250611226565b91821561079e576004548084029084820403610788576127109004916106398385611226565b9280610711575b60405163a9059cbb60e01b8152336004820152602481018590526020816044816000885af1908115610705576000916106d6575b50156106c4576020946040519283528583015260408201528260608201527fc5f91541570ee410396e78fff4d3ef181d35ec6e43cc346f958f4fe06b56c47260803392a360018055604051908152f35b6040516312171d8360e31b8152600490fd5b6106f8915060203d6020116106fe575b6106f081836111c9565b81019061120e565b86610674565b503d6106e6565b6040513d6000823e3d90fd5b60035460405163a9059cbb60e01b81526001600160a01b039091166004820152602481018290526020816044816000885af190811561070557600091610769575b50610640576040516312171d8360e31b8152600490fd5b610782915060203d6020116106fe576106f081836111c9565b86610752565b634e487b7160e01b600052601160045260246000fd5b60405163bb2875c360e01b8152600490fd5b506020823d6020116107dc575b816107ca602093836111c9565b81010312610173576106139151610609565b3d91506107bd565b6001600160a01b036107ff60043560a08402016024016111fa565b16158015610d4f575b8015610d2b575b610d1957604460a0820260043501013515610d10576001600160a01b0361083f60043560a08402016024016111fa565b166040516370a0823160e01b8152306004820152602081602481855afa90811561070557600091610cde575b506040516323b872dd60e01b8152336004820152306024820152604460a0850260043501013560448201526020816064816000875af190811561070557600091610cbf575b50156106c4576040516370a0823160e01b815230600482015290602082602481865afa801561070557600090610c8b575b6108eb9250611226565b906002608460a0850260043501013510156101735760043560a084020160840135610c4d5760405163095ea7b360e01b81526001600160a01b037f0000000000000000000000000000000000000000000000000000000000000000166004820152602481018390526020816044816000865af1801561070557610c2e575b50604051610976816111ad565b6003815260603660208301378161098c8261124b565b526109968161126e565b7f00000000000000000000000000000000000000000000000000000000000000006001600160a01b03169052866109cc8261127e565b526040516370a0823160e01b8152306004820152906020826024818b5afa91821561070557600092610bfa575b507f00000000000000000000000000000000000000000000000000000000000000006001600160a01b03163b15610173576000610a5d9160405180938192635c11d79560e01b8352602435903090606460a08d026004350101358b600487016112df565b0381837f00000000000000000000000000000000000000000000000000000000000000006001600160a01b03165af19081610beb575b50610b7c575060405163a9059cbb60e01b81523360048201526024810183905290602090829060449082906000905af1801561070557610b5d575b5060005b80610ae8575b5050610ae3906111eb565b6105d0565b610af6610ae39392956111eb565b946001600160a01b03610b1260043560a08602016024016111fa565b16916040519182526020820152608460a0840260043501013560408201527fa2c87abc3341789e0370a7baabed4f58835304c2b16a29536744ad19fcfd2e8460603392a39085610ad8565b610b759060203d6020116106fe576106f081836111c9565b5085610ace565b6040516370a0823160e01b815230600482015291506020826024818a5afa801561070557600090610bb7575b610bb29250611226565b610ad2565b506020823d602011610be3575b81610bd1602093836111c9565b8101031261017357610bb29151610ba8565b3d9150610bc4565b610bf490611183565b88610a93565b9091506020813d602011610c26575b81610c16602093836111c9565b81010312610173575190886109f9565b3d9150610c09565b610c469060203d6020116106fe576106f081836111c9565b5086610969565b60043560a084020160a4013562ffffff8116900361017357610bb29060243590879060043560a087020160648101359160a490910135908690611318565b506020823d602011610cb7575b81610ca5602093836111c9565b81010312610173576108eb91516108e1565b3d9150610c98565b610cd8915060203d6020116106fe576106f081836111c9565b876108b0565b90506020813d602011610d08575b81610cf9602093836111c9565b8101031261017357518661086b565b3d9150610cec565b610ae3906111eb565b60405163c1ab6dc160e01b8152600490fd5b50836001600160a01b03610d4860043560a08502016024016111fa565b161461080f565b50610d63602460a0830260043501016111fa565b7f00000000000000000000000000000000000000000000000000000000000000006001600160a01b03908116911614610808565b90506020813d602011610dc1575b81610db2602093836111c9565b810103126101735751826105c9565b3d9150610da5565b6040516386724c7f60e01b8152600490fd5b604051631ab7da6b60e01b8152600490fd5b604051633ee5aeb560e01b8152600490fd5b34610173576000366003190112610173576003546040516001600160a01b039091168152602090f35b346101735760403660031901126101735760043567ffffffffffffffff811161017357610e59903690600401611110565b9060243567ffffffffffffffff811161017357610e7a903690600401611110565b90938184036110dc5750610e8d83611233565b93610e9b60405195866111c9565b838552601f19610eaa85611233565b013660208701376002546001600160a01b031660005b858110610f0d578660405180916020820160208352815180915260206040840192019060005b818110610ef4575050500390f35b8251845285945060209384019390920191600101610ee6565b610fbf906000604051610f1f816111ad565b600381526060366020830137610f3e610f39848b8b61180b565b6111fa565b610f478261124b565b6001600160a01b0391821690527f000000000000000000000000000000000000000000000000000000000000000016610f7f8261126e565b5284610f8a8261127e565b52610f9683888861180b565b35604051948592839263d06ca61f60e01b845260048401526040602484015260448301906112a2565b03817f00000000000000000000000000000000000000000000000000000000000000006001600160a01b03165afa8060009161102b575b61101293506110175750600061100c828a61128e565b526111eb565b610ec0565b6110209061127e565b5161100c828a61128e565b919290503d806000833e61103f81836111c9565b60208282810103126101735781519167ffffffffffffffff831161017357818101601f84830101121561017357828101519061107a82611233565b9361108860405195866111c9565b8285526020850193820160208460051b83850101011161017357602081830101935b60208460051b838501010185106110cc57505050505090611012929190610ff6565b84518152602094850194016110aa565b62461bcd60e51b815260206004820152600f60248201526e098cadccee8d040dad2e6dac2e8c6d608b1b6044820152606490fd5b9181601f840112156101735782359167ffffffffffffffff8311610173576020808501948460051b01011161017357565b600435906001600160a01b038216820361017357565b6000546001600160a01b0316330361116b57565b60405163118cdaa760e01b8152336004820152602490fd5b67ffffffffffffffff811161119757604052565b634e487b7160e01b600052604160045260246000fd5b6080810190811067ffffffffffffffff82111761119757604052565b90601f8019910116810190811067ffffffffffffffff82111761119757604052565b60001981146107885760010190565b356001600160a01b03811681036101735790565b90816020910312610173575180151581036101735790565b9190820391821161078857565b67ffffffffffffffff81116111975760051b60200190565b8051156112585760200190565b634e487b7160e01b600052603260045260246000fd5b8051600110156112585760400190565b8051600210156112585760600190565b80518210156112585760209160051b010190565b90815180825260208080930193019160005b8281106112c2575050505090565b83516001600160a01b0316855293810193928101926001016112b4565b919260809361130492979695978452602084015260a0604084015260a08301906112a2565b6001600160a01b0390951660608201520152565b6040805163095ea7b360e01b81526001600160a01b037f0000000000000000000000000000000000000000000000000000000000000000811660048301526024820185905297989760009792969316949192906020816044818b8a5af18015611801576117e2575b5085519867ffffffffffffffff9260e08b018481118c8210176117ce579062ffffff918952878c5260018060a01b037f00000000000000000000000000000000000000000000000000000000000000001660208d015216878b01523060608b01528460808b01528760a08b01528760c08b01528651996304e45aaf60e01b8b5260018060a01b0381511660048c015260018060a01b0360208201511660248c015262ffffff888201511660448c015260018060a01b0360608201511660648c0152608081015160848c015260a081015160a48c015260c060018060a01b039101511660c48b015260208a60e4818b60018060a01b037f0000000000000000000000000000000000000000000000000000000000000000165af1808991611793575b899a9b5015600014611510575050855163a9059cbb60e01b81523360048201526024810194909452509194602093869350604492508391905af190811561150757506114eb575090565b6115039060203d6020116106fe576106f081836111c9565b5090565b513d84823e3d90fd5b929695509296509250801561178a57835163095ea7b360e01b81527f00000000000000000000000000000000000000000000000000000000000000006001600160a01b0316600482018190526024820183905290602081806044810103818c7f00000000000000000000000000000000000000000000000000000000000000006001600160a01b03165af1801561178057611761575b50845195606087019081118782101761174d57855260028652843660208801377f00000000000000000000000000000000000000000000000000000000000000006001600160a01b03166115f98761124b565b526116038661126e565b6001600160a01b039097169687905284516370a0823160e01b808252306004830152909690946020886024818c5afa978815611743578a9861170f575b50823b1561170b5790898094939261166f895197889687958694635c11d79560e01b86523092600487016112df565b03925af190816116f8575b50611686575050505090565b60209060248394959693518097819382523060048301525afa9182156116ee5750906116ba575b6116b79250611226565b90565b506020823d6020116116e6575b816116d4602093836111c9565b81010312610173576116b791516116ad565b3d91506116c7565b51903d90823e3d90fd5b61170490969196611183565b943861167a565b8980fd5b9097506020813d60201161173b575b8161172b602093836111c9565b8101031261170b57519638611640565b3d915061171e565b87513d8c823e3d90fd5b634e487b7160e01b89526041600452602489fd5b6117799060203d6020116106fe576106f081836111c9565b50386115a6565b86513d8b823e3d90fd5b50505050505090565b905060208b3d6020116117c6575b816117ae602093836111c9565b810103126117c257995198998a99906114a1565b8880fd5b3d91506117a1565b634e487b7160e01b8a52604160045260248afd5b6117fa9060203d6020116106fe576106f081836111c9565b5038611380565b87513d8a823e3d90fd5b91908110156112585760051b0190565b81156118fb576001600160a01b0390811680611899575060008080809481948254165af1903d15611893573d9067ffffffffffffffff821161187f576040519161186f601f8201601f1916602001846111c9565b825260203d92013e5b156106c457565b634e487b7160e01b81526041600452602490fd5b50611878565b6000805460405163a9059cbb60e01b815293166001600160a01b031660048401526024830193909352909160209183918290816044810103925af18015610705576118e15750565b6118f89060203d81116106fe576106f081836111c9565b50565b505056fea26469706673582212205d12ee3cc13d9a453533c06ad48ac226d675881fd7de76134bf7ce487c11a5b964736f6c63430008140033",
  "linkReferences": {},
  "deployedLinkReferences": {}
}