{"contracts/DustSwapRouterV2V3.sol":{"DustSwapRouterV2V3":{"abi":[{"inputs":[{"internalType":"address","name":"_pancakeRouterV2","type":"address"},{"internalType":"address","name":"_pancakeRouterV3","type":"address"},{"internalType":"address","name":"_feeRecipient","type":"address"}],"stateMutability":"nonpayable","type":"constructor"},{"inputs":[],"name":"DeadlineExpired","type":"error"},{"inputs":[],"name":"EmptySwapList","type":"error"},{"inputs":[],"name":"InsufficientOutput","type":"error"},{"inputs":[],"name":"InvalidFee","type":"error"},{"inputs":[],"name":"InvalidFeeRecipient","type":"error"},{"inputs":[],"name":"InvalidRouter","type":"error"},{"inputs":[],"name":"InvalidToken","type":"error"},{"inputs":[{"internalType":"address","name":"owner","type":"address"}],"name":"OwnableInvalidOwner","type":"error"},{"inputs":[{"internalType":"address","name":"account","type":"address"}],"name":"OwnableUnauthorizedAccount","type":"error"},{"inputs":[],"name":"ReentrancyGuardReentrantCall","type":"error"},{"inputs":[],"name":"TransferFailed","type":"error"},{"anonymous":false,"inputs":[{"indexed":true,"internalType":"address","name":"user","type":"address"},{"indexed":false,"internalType":"uint256","name":"tokensSwapped","type":"uint256"},{"indexed":false,"internalType":"uint256","name":"totalBNBReceived","type":"uint256"},{"indexed":false,"internalType":"uint256","name":"serviceFee","type":"uint256"},{"indexed":false,"internalType":"uint256","name":"userAmount","type":"uint256"}],"name":"BatchSwapCompleted","type":"event"},{"anonymous":false,"inputs":[{"indexed":true,"internalType":"address","name":"oldRecipient","type":"address"},{"indexed":true,"internalType":"address","name":"newRecipient","type":"address"}],"name":"FeeRecipientUpdated","type":"event"},{"anonymous":false,"inputs":[{"indexed":true,"internalType":"address","name":"previousOwner","type":"address"},{"indexed":true,"internalType":"address","name":"newOwner","type":"address"}],"name":"OwnershipTransferred","type":"event"},{"anonymous":false,"inputs":[{"indexed":true,"internalType":"address","name":"user","type":"address"},{"indexed":true,"internalType":"address","name":"token","type":"address"},{"indexed":false,"internalType":"uint256","name":"amountIn","type":"uint256"},{"indexed":false,"internalType":"uint256","name":"bnbOut","type":"uint256"},{"indexed":false,"internalType":"enum DustSwapRouterV2V3.RouterVersion","name":"version","type":"uint8"}],"name":"SingleSwapCompleted","type":"event"},{"inputs":[],"name":"FEE_DENOMINATOR","outputs":[{"internalType":"uint256","name":"","type":"uint256"}],"stateMutability":"view","type":"function"},{"inputs":[],"name":"SERVICE_FEE_PERCENT","outputs":[{"internalType":"uint256","name":"","type":"uint256"}],"stateMutability":"view","type":"function"},{"inputs":[],"name":"WBNB","outputs":[{"internalType":"address","name":"","type":"address"}],"stateMutability":"view","type":"function"},{"inputs":[{"components":[{"internalType":"address","name":"token","type":"address"},{"internalType":"uint256","name":"amount","type":"uint256"},{"internalType":"uint256","name":"minAmountOut","type":"uint256"},{"internalType":"enum DustSwapRouterV2V3.RouterVersion","name":"version","type":"uint8"},{"internalType":"uint24","name":"v3Fee","type":"uint24"}],"internalType":"struct DustSwapRouterV2V3.SwapInstruction[]","name":"instructions","type":"tuple[]"},{"internalType":"uint256","name":"deadline","type":"uint256"}],"name":"batchSwapToBNB","outputs":[{"internalType":"uint256","name":"userAmount","type":"uint256"}],"stateMutability":"nonpayable","type":"function"},{"inputs":[{"internalType":"address","name":"token","type":"address"},{"internalType":"uint256","name":"amount","type":"uint256"}],"name":"emergencyWithdraw","outputs":[],"stateMutability":"nonpayable","type":"function"},{"inputs":[],"name":"feeRecipient","outputs":[{"internalType":"address","name":"","type":"address"}],"stateMutability":"view","type":"function"},{"inputs":[],"name":"owner","outputs":[{"internalType":"address","name":"","type":"address"}],"stateMutability":"view","type":"function"},{"inputs":[],"name":"pancakeRouterV2","outputs":[{"internalType":"contract IPancakeRouter02","name":"","type":"address"}],"stateMutability":"view","type":"function"},{"inputs":[],"name":"pancakeRouterV3","outputs":[{"internalType":"contract IPancakeV3SwapRouter","name":"","type":"address"}],"stateMutability":"view","type":"function"},{"inputs":[],"name":"renounceOwnership","outputs":[],"stateMutability":"nonpayable","type":"function"},{"inputs":[{"internalType":"address","name":"_newFeeRecipient","type":"address"}],"name":"setFeeRecipient","outputs":[],"stateMutability":"nonpayable","type":"function"},{"inputs":[{"internalType":"address","name":"newOwner","type":"address"}],"name":"transferOwnership","outputs":[],"stateMutability":"nonpayable","type":"function"},{"stateMutability":"payable","type":"receive"}],"evm":{"bytecode":{"linkReferences":{},"object":"60e06040908082523462000219576060816200136580380380916200002582856200021e565b83398101031262000219576200003b8162000258565b62000056836200004e6020850162000258565b930162000258565b903315620002015760008054336001600160a01b03198083168217845587519095939490936001600160a01b0393909284929183167f8be0079c531659141344cd1fd0a4f28419497f9722a3daafe3b4186f6b6457e08880a360018055169283158015620001f6575b620001e757508116948515620001d65760808390521660a05284516315ab88c960e31b815290602090829060049082905afa918215620001cb57809262000184575b505060c0526002541617600255516110f790816200026e823960805181818161023f015281816106b10152818161079c01528181610b2a0152610c46015260a0518181816101de015281816109660152610a8e015260c0518181816102b10152818161073e015281816109ec01528181610b6f01528181610bd60152610dcb0152f35b9091506020823d8211620001c2575b81620001a2602093836200021e565b81010312620001bf5750620001b79062000258565b388062000101565b80fd5b3d915062000193565b8551903d90823e3d90fd5b8651630ed1b8b360e31b8152600490fd5b63466d7fef60e01b8152600490fd5b5082871615620000bf565b8351631e4fbdf760e01b815260006004820152602490fd5b600080fd5b601f909101601f19168101906001600160401b038211908210176200024257604052565b634e487b7160e01b600052604160045260246000fd5b51906001600160a01b0382168203620002195756fe608080604052600436101561001d575b50361561001b57600080fd5b005b60003560e01c90816304d87f3914610e52575080634690484014610e295780635092364014610362578063715018a6146103095780638da5cb5b146102e05780638dd950021461029b57806395ccea671461026e578063d20ccdc214610229578063d73792a91461020d578063e47aaf6d146101c8578063e74b981b146101415763f2fde38b146100ae573861000f565b3461013c57602036600319011261013c576100c7610e6c565b6100cf610e82565b6001600160a01b0390811690811561012357600054826bffffffffffffffffffffffff60a01b821617600055167f8be0079c531659141344cd1fd0a4f28419497f9722a3daafe3b4186f6b6457e0600080a3005b604051631e4fbdf760e01b815260006004820152602490fd5b600080fd5b3461013c57602036600319011261013c5761015a610e6c565b610162610e82565b6001600160a01b039081169081156101b657600254826bffffffffffffffffffffffff60a01b821617600255167faaebcf1bfa00580e41d966056b48521fa9f202645c86d4ddf28113e617c1b1d3600080a3005b604051630ed1b8b360e31b8152600490fd5b3461013c57600036600319011261013c576040517f00000000000000000000000000000000000000000000000000000000000000006001600160a01b03168152602090f35b3461013c57600036600319011261013c57602060405160648152f35b3461013c57600036600319011261013c576040517f00000000000000000000000000000000000000000000000000000000000000006001600160a01b03168152602090f35b3461013c57604036600319011261013c5761001b61028a610e6c565b610292610e82565b60243590611028565b3461013c57600036600319011261013c576040517f00000000000000000000000000000000000000000000000000000000000000006001600160a01b03168152602090f35b3461013c57600036600319011261013c576000546040516001600160a01b039091168152602090f35b3461013c57600036600319011261013c57610322610e82565b600080546001600160a01b0319811682556001600160a01b03167f8be0079c531659141344cd1fd0a4f28419497f9722a3daafe3b4186f6b6457e08280a3005b3461013c57604036600319011261013c5767ffffffffffffffff6004351161013c5736602360043501121561013c5767ffffffffffffffff600435600401351161013c5736602460a0600435600401350260043501011161013c57600260015414610e175760026001556024354211610e05576004356004013515610df3574760005b600435600401358110610500576103fc8247610ee8565b80156104ee57600a8102818104600a036104d857606490049061041f8282610ee8565b90826104a6575b8161047d575b602092604051916004356004013583528483015260408201528160608201527f788dbb508fb70253f6b188d53b81c01671ee1c1d0659d189b95b5cef318b87c760803392a260018055604051908152f35b600080808085335af161048e610ef5565b5061042c575b6040516312171d8360e31b8152600490fd5b60008080808660018060a01b03600254165af16104c1610ef5565b50610426576040516312171d8360e31b8152600490fd5b634e487b7160e01b600052601160045260246000fd5b60405163bb2875c360e01b8152600490fd5b60a0600435828202013603602319011261013c5760405160a0810181811067ffffffffffffffff8211176109185760405260043560a0830201602401356001600160a01b038116900361013c5760043560a083020160248101358252604481013560208301526064810135604083015260840135600281101561013c57606082015260043560a083020160a4013562ffffff8116900361013c5760043560a083020160a48101356080830152602401356001600160a01b0316158015610db1575b610d9f57602081015115610d995780516040516370a0823160e01b81523060048201526001600160a01b0390911690602081602481855afa9081156108c357600091610d67575b506020830151604051906323b872dd60e01b825233600483015230602483015260448201526020816064816000875af19081156108c357600091610d48575b5015610494576040516370a0823160e01b815230600482015290602082602481865afa80156108c357600090610d14575b6106829250610ee8565b906060830151600281101561087e5761094d57604083810151905163095ea7b360e01b81526001600160a01b037f0000000000000000000000000000000000000000000000000000000000000000166004820152602481018490524791906020816044816000885af180156108c35761092e575b506040519081606081011067ffffffffffffffff60608401111761091857606082016040526002825260403660208401378361073183610f35565b52815160011015610902577f00000000000000000000000000000000000000000000000000000000000000006001600160a01b0316604080840191909152516318cbafe560e01b8152916000918391829161079791602435913091908b60048701610fbe565b0381837f00000000000000000000000000000000000000000000000000000000000000006001600160a01b03165af190816108df575b506108cf575060405163a9059cbb60e01b81523360048201526024810183905290602090829060449082906000905af180156108c357610894575b5060005b80610827575b5050505b60001981146104d8576001016103e5565b606060018060a01b0384511693015190600282101561087e57604051928352602083015260408201527fa2c87abc3341789e0370a7baabed4f58835304c2b16a29536744ad19fcfd2e8460603392a3828080610812565b634e487b7160e01b600052602160045260246000fd5b6108b59060203d6020116108bc575b6108ad8183610eae565b810190610ed0565b5084610808565b503d6108a3565b6040513d6000823e3d90fd5b6108da915047610ee8565b61080c565b6108fb903d806000833e6108f38183610eae565b810190610f42565b50876107cd565b634e487b7160e01b600052603260045260246000fd5b634e487b7160e01b600052604160045260246000fd5b6109469060203d6020116108bc576108ad8183610eae565b50876106f6565b6040838101516080850151915163095ea7b360e01b81527f00000000000000000000000000000000000000000000000000000000000000006001600160a01b031660048201526024810185905262ffffff909216916020816044816000885af180156108c357610cf5575b50604051918260e081011067ffffffffffffffff60e0850111176109185760e0830160409081528484526001600160a01b037f0000000000000000000000000000000000000000000000000000000000000000811660208087019182528387019485523060608801908152608088018a815260a08901978852600060c08a0181815296516304e45aaf60e01b81529951861660048b01529351851660248a0152955162ffffff166044890152518316606488015293516084870152935160a48601529051811660c48501529091839160e49183917f0000000000000000000000000000000000000000000000000000000000000000165af160009181610cc1575b50610b1b575060405163a9059cbb60e01b81523360048201526024810183905290602090829060449082906000905af180156108c357610afc575b50600061080c565b610b149060203d6020116108bc576108ad8183610eae565b5084610af4565b60405163095ea7b360e01b81527f00000000000000000000000000000000000000000000000000000000000000006001600160a01b03166004820152602481018290529091506020818060448101038160007f00000000000000000000000000000000000000000000000000000000000000006001600160a01b03165af180156108c357610ca2575b506040519081604081011067ffffffffffffffff604084011117610918576040820160405260018252602036818401377f00000000000000000000000000000000000000000000000000000000000000006001600160a01b0316610c0783610f35565b52479061012c420142116104d8576040516318cbafe560e01b81529260009184918291610c41914261012c01913091908060048701610fbe565b0381837f00000000000000000000000000000000000000000000000000000000000000006001600160a01b03165af19182156108c3576108da92610c87575b5047610ee8565b610c9b903d806000833e6108f38183610eae565b5086610c80565b610cba9060203d6020116108bc576108ad8183610eae565b5085610ba4565b9091506020813d602011610ced575b81610cdd60209383610eae565b8101031261013c57519087610ab9565b3d9150610cd0565b610d0d9060203d6020116108bc576108ad8183610eae565b50876109b8565b506020823d602011610d40575b81610d2e60209383610eae565b8101031261013c576106829151610678565b3d9150610d21565b610d61915060203d6020116108bc576108ad8183610eae565b86610647565b90506020813d602011610d91575b81610d8260209383610eae565b8101031261013c575185610608565b3d9150610d75565b50610816565b60405163c1ab6dc160e01b8152600490fd5b5060043560a0830201602401356001600160a01b039081167f0000000000000000000000000000000000000000000000000000000000000000909116146105c1565b6040516386724c7f60e01b8152600490fd5b604051631ab7da6b60e01b8152600490fd5b604051633ee5aeb560e01b8152600490fd5b3461013c57600036600319011261013c576002546040516001600160a01b039091168152602090f35b3461013c57600036600319011261013c5780600a60209252f35b600435906001600160a01b038216820361013c57565b6000546001600160a01b03163303610e9657565b60405163118cdaa760e01b8152336004820152602490fd5b90601f8019910116810190811067ffffffffffffffff82111761091857604052565b9081602091031261013c5751801515810361013c5790565b919082039182116104d857565b3d15610f30573d9067ffffffffffffffff82116109185760405191610f24601f8201601f191660200184610eae565b82523d6000602084013e565b606090565b8051156109025760200190565b90602090818382031261013c57825167ffffffffffffffff9384821161013c570181601f8201121561013c578051938411610918578360051b9060405194610f8c85840187610eae565b8552838086019282010192831161013c578301905b828210610faf575050505090565b81518152908301908301610fa1565b9291909594939560a084019084526020918285015260a0604085015282518091528160c0850193019160005b82811061100b5750505050906080919460018060a01b031660608201520152565b83516001600160a01b031685529381019392810192600101610fea565b81156110bd576001600160a01b039081168061105b5750600080809381938254165af1611053610ef5565b501561049457565b6000805460405163a9059cbb60e01b815293166001600160a01b031660048401526024830193909352909160209183918290816044810103925af180156108c3576110a35750565b6110ba9060203d81116108bc576108ad8183610eae565b50565b505056fea2646970667358221220202059261ddea7b12a9c3aab66a4e2f1153bb637f1ca56fe6d8fb3400c59ad8e64736f6c63430008140033","opcodes":"PUSH1 0xE0 PUSH1 0x40 SWAP1 DUP1 DUP3 MSTORE CALLVALUE PUSH3 0x219 JUMPI PUSH1 0x60 DUP2 PUSH3 0x1365 DUP1 CODESIZE SUB DUP1 SWAP2 PUSH3 0x25 DUP3 DUP6 PUSH3 0x21E JUMP JUMPDEST DUP4 CODECOPY DUP2 ADD SUB SLT PUSH3 0x219 JUMPI PUSH3 0x3B DUP2 PUSH3 0x258 JUMP JUMPDEST PUSH3 0x56 DUP4 PUSH3 0x4E PUSH1 0x20 DUP6 ADD PUSH3 0x258 JUMP JUMPDEST SWAP4 ADD PUSH3 0x258 JUMP JUMPDEST SWAP1 CALLER ISZERO PUSH3 0x201 JUMPI PUSH1 0x0 DUP1 SLOAD CALLER PUSH1 0x1 PUSH1 0x1 PUSH1 0xA0 SHL SUB NOT DUP1 DUP4 AND DUP3 OR DUP5 SSTORE DUP8 MLOAD SWAP1 SWAP6 SWAP4 SWAP5 SWAP1 SWAP4 PUSH1 0x1 PUSH1 0x1 PUSH1 0xA0 SHL SUB SWAP4 SWAP1 SWAP3 DUP5 SWAP3 SWAP2 DUP4 AND PUSH32 0x8BE0079C531659141344CD1FD0A4F28419497F9722A3DAAFE3B4186F6B6457E0 DUP9 DUP1 LOG3 PUSH1 0x1 DUP1 SSTORE AND SWAP3 DUP4 ISZERO DUP1 ISZERO PUSH3 0x1F6 JUMPI JUMPDEST PUSH3 0x1E7 JUMPI POP DUP2 AND SWAP5 DUP6 ISZERO PUSH3 0x1D6 JUMPI PUSH1 0x80 DUP4 SWAP1 MSTORE AND PUSH1 0xA0 MSTORE DUP5 MLOAD PUSH4 0x15AB88C9 PUSH1 0xE3 SHL DUP2 MSTORE SWAP1 PUSH1 0x20 SWAP1 DUP3 SWAP1 PUSH1 0x4 SWAP1 DUP3 SWAP1 GAS STATICCALL SWAP2 DUP3 ISZERO PUSH3 0x1CB JUMPI DUP1 SWAP3 PUSH3 0x184 JUMPI JUMPDEST POP POP PUSH1 0xC0 MSTORE PUSH1 0x2 SLOAD AND OR PUSH1 0x2 SSTORE MLOAD PUSH2 0x10F7 SWAP1 DUP2 PUSH3 0x26E DUP3 CODECOPY PUSH1 0x80 MLOAD DUP2 DUP2 DUP2 PUSH2 0x23F ADD MSTORE DUP2 DUP2 PUSH2 0x6B1 ADD MSTORE DUP2 DUP2 PUSH2 0x79C ADD MSTORE DUP2 DUP2 PUSH2 0xB2A ADD MSTORE PUSH2 0xC46 ADD MSTORE PUSH1 0xA0 MLOAD DUP2 DUP2 DUP2 PUSH2 0x1DE ADD MSTORE DUP2 DUP2 PUSH2 0x966 ADD MSTORE PUSH2 0xA8E ADD MSTORE PUSH1 0xC0 MLOAD DUP2 DUP2 DUP2 PUSH2 0x2B1 ADD MSTORE DUP2 DUP2 PUSH2 0x73E ADD MSTORE DUP2 DUP2 PUSH2 0x9EC ADD MSTORE DUP2 DUP2 PUSH2 0xB6F ADD MSTORE DUP2 DUP2 PUSH2 0xBD6 ADD MSTORE PUSH2 0xDCB ADD MSTORE RETURN JUMPDEST SWAP1 SWAP2 POP PUSH1 0x20 DUP3 RETURNDATASIZE DUP3 GT PUSH3 0x1C2 JUMPI JUMPDEST DUP2 PUSH3 0x1A2 PUSH1 0x20 SWAP4 DUP4 PUSH3 0x21E JUMP JUMPDEST DUP2 ADD SUB SLT PUSH3 0x1BF JUMPI POP PUSH3 0x1B7 SWAP1 PUSH3 0x258 JUMP JUMPDEST CODESIZE DUP1 PUSH3 0x101 JUMP JUMPDEST DUP1 REVERT JUMPDEST RETURNDATASIZE SWAP2 POP PUSH3 0x193 JUMP JUMPDEST DUP6 MLOAD SWAP1 RETURNDATASIZE SWAP1 DUP3 RETURNDATACOPY RETURNDATASIZE SWAP1 REVERT JUMPDEST DUP7 MLOAD PUSH4 0xED1B8B3 PUSH1 0xE3 SHL DUP2 MSTORE PUSH1 0x4 SWAP1 REVERT JUMPDEST PUSH4 0x466D7FEF PUSH1 0xE0 SHL DUP2 MSTORE PUSH1 0x4 SWAP1 REVERT JUMPDEST POP DUP3 DUP8 AND ISZERO PUSH3 0xBF JUMP JUMPDEST DUP4 MLOAD PUSH4 0x1E4FBDF7 PUSH1 0xE0 SHL DUP2 MSTORE PUSH1 0x0 PUSH1 0x4 DUP3 ADD MSTORE PUSH1 0x24 SWAP1 REVERT JUMPDEST PUSH1 0x0 DUP1 REVERT JUMPDEST PUSH1 0x1F SWAP1 SWAP2 ADD PUSH1 0x1F NOT AND DUP2 ADD SWAP1 PUSH1 0x1 PUSH1 0x1 PUSH1 0x40 SHL SUB DUP3 GT SWAP1 DUP3 LT OR PUSH3 0x242 JUMPI PUSH1 0x40 MSTORE JUMP JUMPDEST PUSH4 0x4E487B71 PUSH1 0xE0 SHL PUSH1 0x0 MSTORE PUSH1 0x41 PUSH1 0x4 MSTORE PUSH1 0x24 PUSH1 0x0 REVERT JUMPDEST MLOAD SWAP1 PUSH1 0x1 PUSH1 0x1 PUSH1 0xA0 SHL SUB DUP3 AND DUP3 SUB PUSH3 0x219 JUMPI JUMP INVALID PUSH1 0x80 DUP1 PUSH1 0x40 MSTORE PUSH1 0x4 CALLDATASIZE LT ISZERO PUSH2 0x1D JUMPI JUMPDEST POP CALLDATASIZE ISZERO PUSH2 0x1B JUMPI PUSH1 0x0 DUP1 REVERT JUMPDEST STOP JUMPDEST PUSH1 0x0 CALLDATALOAD PUSH1 0xE0 SHR SWAP1 DUP2 PUSH4 0x4D87F39 EQ PUSH2 0xE52 JUMPI POP DUP1 PUSH4 0x46904840 EQ PUSH2 0xE29 JUMPI DUP1 PUSH4 0x50923640 EQ PUSH2 0x362 JUMPI DUP1 PUSH4 0x715018A6 EQ PUSH2 0x309 JUMPI DUP1 PUSH4 0x8DA5CB5B EQ PUSH2 0x2E0 JUMPI DUP1 PUSH4 0x8DD95002 EQ PUSH2 0x29B JUMPI DUP1 PUSH4 0x95CCEA67 EQ PUSH2 0x26E JUMPI DUP1 PUSH4 0xD20CCDC2 EQ PUSH2 0x229 JUMPI DUP1 PUSH4 0xD73792A9 EQ PUSH2 0x20D JUMPI DUP1 PUSH4 0xE47AAF6D EQ PUSH2 0x1C8 JUMPI DUP1 PUSH4 0xE74B981B EQ PUSH2 0x141 JUMPI PUSH4 0xF2FDE38B EQ PUSH2 0xAE JUMPI CODESIZE PUSH2 0xF JUMP JUMPDEST CALLVALUE PUSH2 0x13C JUMPI PUSH1 0x20 CALLDATASIZE PUSH1 0x3 NOT ADD SLT PUSH2 0x13C JUMPI PUSH2 0xC7 PUSH2 0xE6C JUMP JUMPDEST PUSH2 0xCF PUSH2 0xE82 JUMP JUMPDEST PUSH1 0x1 PUSH1 0x1 PUSH1 0xA0 SHL SUB SWAP1 DUP2 AND SWAP1 DUP2 ISZERO PUSH2 0x123 JUMPI PUSH1 0x0 SLOAD DUP3 PUSH12 0xFFFFFFFFFFFFFFFFFFFFFFFF PUSH1 0xA0 SHL DUP3 AND OR PUSH1 0x0 SSTORE AND PUSH32 0x8BE0079C531659141344CD1FD0A4F28419497F9722A3DAAFE3B4186F6B6457E0 PUSH1 0x0 DUP1 LOG3 STOP JUMPDEST PUSH1 0x40 MLOAD PUSH4 0x1E4FBDF7 PUSH1 0xE0 SHL DUP2 MSTORE PUSH1 0x0 PUSH1 0x4 DUP3 ADD MSTORE PUSH1 0x24 SWAP1 REVERT JUMPDEST PUSH1 0x0 DUP1 REVERT JUMPDEST CALLVALUE PUSH2 0x13C JUMPI PUSH1 0x20 CALLDATASIZE PUSH1 0x3 NOT ADD SLT PUSH2 0x13C JUMPI PUSH2 0x15A PUSH2 0xE6C JUMP JUMPDEST PUSH2 0x162 PUSH2 0xE82 JUMP JUMPDEST PUSH1 0x1 PUSH1 0x1 PUSH1 0xA0 SHL SUB SWAP1 DUP2 AND SWAP1 DUP2 ISZERO PUSH2 0x1B6 JUMPI PUSH1 0x2 SLOAD DUP3 PUSH12 0xFFFFFFFFFFFFFFFFFFFFFFFF PUSH1 0xA0 SHL DUP3 AND OR PUSH1 0x2 SSTORE AND PUSH32 0xAAEBCF1BFA00580E41D966056B48521FA9F202645C86D4DDF28113E617C1B1D3 PUSH1 0x0 DUP1 LOG3 STOP JUMPDEST PUSH1 0x40 MLOAD PUSH4 0xED1B8B3 PUSH1 0xE3 SHL DUP2 MSTORE PUSH1 0x4 SWAP1 REVERT JUMPDEST CALLVALUE PUSH2 0x13C JUMPI PUSH1 0x0 CALLDATASIZE PUSH1 0x3 NOT ADD SLT PUSH2 0x13C JUMPI PUSH1 0x40 MLOAD PUSH32 0x0 PUSH1 0x1 PUSH1 0x1 PUSH1 0xA0 SHL SUB AND DUP2 MSTORE PUSH1 0x20 SWAP1 RETURN JUMPDEST CALLVALUE PUSH2 0x13C JUMPI PUSH1 0x0 CALLDATASIZE PUSH1 0x3 NOT ADD SLT PUSH2 0x13C JUMPI PUSH1 0x20 PUSH1 0x40 MLOAD PUSH1 0x64 DUP2 MSTORE RETURN JUMPDEST CALLVALUE PUSH2 0x13C JUMPI PUSH1 0x0 CALLDATASIZE PUSH1 0x3 NOT ADD SLT PUSH2 0x13C JUMPI PUSH1 0x40 MLOAD PUSH32 0x0 PUSH1 0x1 PUSH1 0x1 PUSH1 0xA0 SHL SUB AND DUP2 MSTORE PUSH1 0x20 SWAP1 RETURN JUMPDEST CALLVALUE PUSH2 0x13C JUMPI PUSH1 0x40 CALLDATASIZE PUSH1 0x3 NOT ADD SLT PUSH2 0x13C JUMPI PUSH2 0x1B PUSH2 0x28A PUSH2 0xE6C JUMP JUMPDEST PUSH2 0x292 PUSH2 0xE82 JUMP JUMPDEST PUSH1 0x24 CALLDATALOAD SWAP1 PUSH2 0x1028 JUMP JUMPDEST CALLVALUE PUSH2 0x13C JUMPI PUSH1 0x0 CALLDATASIZE PUSH1 0x3 NOT ADD SLT PUSH2 0x13C JUMPI PUSH1 0x40 MLOAD PUSH32 0x0 PUSH1 0x1 PUSH1 0x1 PUSH1 0xA0 SHL SUB AND DUP2 MSTORE PUSH1 0x20 SWAP1 RETURN JUMPDEST CALLVALUE PUSH2 0x13C JUMPI PUSH1 0x0 CALLDATASIZE PUSH1 0x3 NOT ADD SLT PUSH2 0x13C JUMPI PUSH1 0x0 SLOAD PUSH1 0x40 MLOAD PUSH1 0x1 PUSH1 0x1 PUSH1 0xA0 SHL SUB SWAP1 SWAP2 AND DUP2 MSTORE PUSH1 0x20 SWAP1 RETURN JUMPDEST CALLVALUE PUSH2 0x13C JUMPI PUSH1 0x0 CALLDATASIZE PUSH1 0x3 NOT ADD SLT PUSH2 0x13C JUMPI PUSH2 0x322 PUSH2 0xE82 JUMP JUMPDEST PUSH1 0x0 DUP1 SLOAD PUSH1 0x1 PUSH1 0x1 PUSH1 0xA0 SHL SUB NOT DUP2 AND DUP3 SSTORE PUSH1 0x1 PUSH1 0x1 PUSH1 0xA0 SHL SUB AND PUSH32 0x8BE0079C531659141344CD1FD0A4F28419497F9722A3DAAFE3B4186F6B6457E0 DUP3 DUP1 LOG3 STOP JUMPDEST CALLVALUE PUSH2 0x13C JUMPI PUSH1 0x40 CALLDATASIZE PUSH1 0x3 NOT ADD SLT PUSH2 0x13C JUMPI PUSH8 0xFFFFFFFFFFFFFFFF PUSH1 0x4 CALLDATALOAD GT PUSH2 0x13C JUMPI CALLDATASIZE PUSH1 0x23 PUSH1 0x4 CALLDATALOAD ADD SLT ISZERO PUSH2 0x13C JUMPI PUSH8 0xFFFFFFFFFFFFFFFF PUSH1 0x4 CALLDATALOAD PUSH1 0x4 ADD CALLDATALOAD GT PUSH2 0x13C JUMPI CALLDATASIZE PUSH1 0x24 PUSH1 0xA0 PUSH1 0x4 CALLDATALOAD PUSH1 0x4 ADD CALLDATALOAD MUL PUSH1 0x4 CALLDATALOAD ADD ADD GT PUSH2 0x13C JUMPI PUSH1 0x2 PUSH1 0x1 SLOAD EQ PUSH2 0xE17 JUMPI PUSH1 0x2 PUSH1 0x1 SSTORE PUSH1 0x24 CALLDATALOAD TIMESTAMP GT PUSH2 0xE05 JUMPI PUSH1 0x4 CALLDATALOAD PUSH1 0x4 ADD CALLDATALOAD ISZERO PUSH2 0xDF3 JUMPI SELFBALANCE PUSH1 0x0 JUMPDEST PUSH1 0x4 CALLDATALOAD PUSH1 0x4 ADD CALLDATALOAD DUP2 LT PUSH2 0x500 JUMPI PUSH2 0x3FC DUP3 SELFBALANCE PUSH2 0xEE8 JUMP JUMPDEST DUP1 ISZERO PUSH2 0x4EE JUMPI PUSH1 0xA DUP2 MUL DUP2 DUP2 DIV PUSH1 0xA SUB PUSH2 0x4D8 JUMPI PUSH1 0x64 SWAP1 DIV SWAP1 PUSH2 0x41F DUP3 DUP3 PUSH2 0xEE8 JUMP JUMPDEST SWAP1 DUP3 PUSH2 0x4A6 JUMPI JUMPDEST DUP2 PUSH2 0x47D JUMPI JUMPDEST PUSH1 0x20 SWAP3 PUSH1 0x40 MLOAD SWAP2 PUSH1 0x4 CALLDATALOAD PUSH1 0x4 ADD CALLDATALOAD DUP4 MSTORE DUP5 DUP4 ADD MSTORE PUSH1 0x40 DUP3 ADD MSTORE DUP2 PUSH1 0x60 DUP3 ADD MSTORE PUSH32 0x788DBB508FB70253F6B188D53B81C01671EE1C1D0659D189B95B5CEF318B87C7 PUSH1 0x80 CALLER SWAP3 LOG2 PUSH1 0x1 DUP1 SSTORE PUSH1 0x40 MLOAD SWAP1 DUP2 MSTORE RETURN JUMPDEST PUSH1 0x0 DUP1 DUP1 DUP1 DUP6 CALLER GAS CALL PUSH2 0x48E PUSH2 0xEF5 JUMP JUMPDEST POP PUSH2 0x42C JUMPI JUMPDEST PUSH1 0x40 MLOAD PUSH4 0x12171D83 PUSH1 0xE3 SHL DUP2 MSTORE PUSH1 0x4 SWAP1 REVERT JUMPDEST PUSH1 0x0 DUP1 DUP1 DUP1 DUP7 PUSH1 0x1 DUP1 PUSH1 0xA0 SHL SUB PUSH1 0x2 SLOAD AND GAS CALL PUSH2 0x4C1 PUSH2 0xEF5 JUMP JUMPDEST POP PUSH2 0x426 JUMPI PUSH1 0x40 MLOAD PUSH4 0x12171D83 PUSH1 0xE3 SHL DUP2 MSTORE PUSH1 0x4 SWAP1 REVERT JUMPDEST PUSH4 0x4E487B71 PUSH1 0xE0 SHL PUSH1 0x0 MSTORE PUSH1 0x11 PUSH1 0x4 MSTORE PUSH1 0x24 PUSH1 0x0 REVERT JUMPDEST PUSH1 0x40 MLOAD PUSH4 0xBB2875C3 PUSH1 0xE0 SHL DUP2 MSTORE PUSH1 0x4 SWAP1 REVERT JUMPDEST PUSH1 0xA0 PUSH1 0x4 CALLDATALOAD DUP3 DUP3 MUL ADD CALLDATASIZE SUB PUSH1 0x23 NOT ADD SLT PUSH2 0x13C JUMPI PUSH1 0x40 MLOAD PUSH1 0xA0 DUP2 ADD DUP2 DUP2 LT PUSH8 0xFFFFFFFFFFFFFFFF DUP3 GT OR PUSH2 0x918 JUMPI PUSH1 0x40 MSTORE PUSH1 0x4 CALLDATALOAD PUSH1 0xA0 DUP4 MUL ADD PUSH1 0x24 ADD CALLDATALOAD PUSH1 0x1 PUSH1 0x1 PUSH1 0xA0 SHL SUB DUP2 AND SWAP1 SUB PUSH2 0x13C JUMPI PUSH1 0x4 CALLDATALOAD PUSH1 0xA0 DUP4 MUL ADD PUSH1 0x24 DUP2 ADD CALLDATALOAD DUP3 MSTORE PUSH1 0x44 DUP2 ADD CALLDATALOAD PUSH1 0x20 DUP4 ADD MSTORE PUSH1 0x64 DUP2 ADD CALLDATALOAD PUSH1 0x40 DUP4 ADD MSTORE PUSH1 0x84 ADD CALLDATALOAD PUSH1 0x2 DUP2 LT ISZERO PUSH2 0x13C JUMPI PUSH1 0x60 DUP3 ADD MSTORE PUSH1 0x4 CALLDATALOAD PUSH1 0xA0 DUP4 MUL ADD PUSH1 0xA4 ADD CALLDATALOAD PUSH3 0xFFFFFF DUP2 AND SWAP1 SUB PUSH2 0x13C JUMPI PUSH1 0x4 CALLDATALOAD PUSH1 0xA0 DUP4 MUL ADD PUSH1 0xA4 DUP2 ADD CALLDATALOAD PUSH1 0x80 DUP4 ADD MSTORE PUSH1 0x24 ADD CALLDATALOAD PUSH1 0x1 PUSH1 0x1 PUSH1 0xA0 SHL SUB AND ISZERO DUP1 ISZERO PUSH2 0xDB1 JUMPI JUMPDEST PUSH2 0xD9F JUMPI PUSH1 0x20 DUP2 ADD MLOAD ISZERO PUSH2 0xD99 JUMPI DUP1 MLOAD PUSH1 0x40 MLOAD PUSH4 0x70A08231 PUSH1 0xE0 SHL DUP2 MSTORE ADDRESS PUSH1 0x4 DUP3 ADD MSTORE PUSH1 0x1 PUSH1 0x1 PUSH1 0xA0 SHL SUB SWAP1 SWAP2 AND SWAP1 PUSH1 0x20 DUP2 PUSH1 0x24 DUP2 DUP6 GAS STATICCALL SWAP1 DUP2 ISZERO PUSH2 0x8C3 JUMPI PUSH1 0x0 SWAP2 PUSH2 0xD67 JUMPI JUMPDEST POP PUSH1 0x20 DUP4 ADD MLOAD PUSH1 0x40 MLOAD SWAP1 PUSH4 0x23B872DD PUSH1 0xE0 SHL DUP3 MSTORE CALLER PUSH1 0x4 DUP4 ADD MSTORE ADDRESS PUSH1 0x24 DUP4 ADD MSTORE PUSH1 0x44 DUP3 ADD MSTORE PUSH1 0x20 DUP2 PUSH1 0x64 DUP2 PUSH1 0x0 DUP8 GAS CALL SWAP1 DUP2 ISZERO PUSH2 0x8C3 JUMPI PUSH1 0x0 SWAP2 PUSH2 0xD48 JUMPI JUMPDEST POP ISZERO PUSH2 0x494 JUMPI PUSH1 0x40 MLOAD PUSH4 0x70A08231 PUSH1 0xE0 SHL DUP2 MSTORE ADDRESS PUSH1 0x4 DUP3 ADD MSTORE SWAP1 PUSH1 0x20 DUP3 PUSH1 0x24 DUP2 DUP7 GAS STATICCALL DUP1 ISZERO PUSH2 0x8C3 JUMPI PUSH1 0x0 SWAP1 PUSH2 0xD14 JUMPI JUMPDEST PUSH2 0x682 SWAP3 POP PUSH2 0xEE8 JUMP JUMPDEST SWAP1 PUSH1 0x60 DUP4 ADD MLOAD PUSH1 0x2 DUP2 LT ISZERO PUSH2 0x87E JUMPI PUSH2 0x94D JUMPI PUSH1 0x40 DUP4 DUP2 ADD MLOAD SWAP1 MLOAD PUSH4 0x95EA7B3 PUSH1 0xE0 SHL DUP2 MSTORE PUSH1 0x1 PUSH1 0x1 PUSH1 0xA0 SHL SUB PUSH32 0x0 AND PUSH1 0x4 DUP3 ADD MSTORE PUSH1 0x24 DUP2 ADD DUP5 SWAP1 MSTORE SELFBALANCE SWAP2 SWAP1 PUSH1 0x20 DUP2 PUSH1 0x44 DUP2 PUSH1 0x0 DUP9 GAS CALL DUP1 ISZERO PUSH2 0x8C3 JUMPI PUSH2 0x92E JUMPI JUMPDEST POP PUSH1 0x40 MLOAD SWAP1 DUP2 PUSH1 0x60 DUP2 ADD LT PUSH8 0xFFFFFFFFFFFFFFFF PUSH1 0x60 DUP5 ADD GT OR PUSH2 0x918 JUMPI PUSH1 0x60 DUP3 ADD PUSH1 0x40 MSTORE PUSH1 0x2 DUP3 MSTORE PUSH1 0x40 CALLDATASIZE PUSH1 0x20 DUP5 ADD CALLDATACOPY DUP4 PUSH2 0x731 DUP4 PUSH2 0xF35 JUMP JUMPDEST MSTORE DUP2 MLOAD PUSH1 0x1 LT ISZERO PUSH2 0x902 JUMPI PUSH32 0x0 PUSH1 0x1 PUSH1 0x1 PUSH1 0xA0 SHL SUB AND PUSH1 0x40 DUP1 DUP5 ADD SWAP2 SWAP1 SWAP2 MSTORE MLOAD PUSH4 0x18CBAFE5 PUSH1 0xE0 SHL DUP2 MSTORE SWAP2 PUSH1 0x0 SWAP2 DUP4 SWAP2 DUP3 SWAP2 PUSH2 0x797 SWAP2 PUSH1 0x24 CALLDATALOAD SWAP2 ADDRESS SWAP2 SWAP1 DUP12 PUSH1 0x4 DUP8 ADD PUSH2 0xFBE JUMP JUMPDEST SUB DUP2 DUP4 PUSH32 0x0 PUSH1 0x1 PUSH1 0x1 PUSH1 0xA0 SHL SUB AND GAS CALL SWAP1 DUP2 PUSH2 0x8DF JUMPI JUMPDEST POP PUSH2 0x8CF JUMPI POP PUSH1 0x40 MLOAD PUSH4 0xA9059CBB PUSH1 0xE0 SHL DUP2 MSTORE CALLER PUSH1 0x4 DUP3 ADD MSTORE PUSH1 0x24 DUP2 ADD DUP4 SWAP1 MSTORE SWAP1 PUSH1 0x20 SWAP1 DUP3 SWAP1 PUSH1 0x44 SWAP1 DUP3 SWAP1 PUSH1 0x0 SWAP1 GAS CALL DUP1 ISZERO PUSH2 0x8C3 JUMPI PUSH2 0x894 JUMPI JUMPDEST POP PUSH1 0x0 JUMPDEST DUP1 PUSH2 0x827 JUMPI JUMPDEST POP POP POP JUMPDEST PUSH1 0x0 NOT DUP2 EQ PUSH2 0x4D8 JUMPI PUSH1 0x1 ADD PUSH2 0x3E5 JUMP JUMPDEST PUSH1 0x60 PUSH1 0x1 DUP1 PUSH1 0xA0 SHL SUB DUP5 MLOAD AND SWAP4 ADD MLOAD SWAP1 PUSH1 0x2 DUP3 LT ISZERO PUSH2 0x87E JUMPI PUSH1 0x40 MLOAD SWAP3 DUP4 MSTORE PUSH1 0x20 DUP4 ADD MSTORE PUSH1 0x40 DUP3 ADD MSTORE PUSH32 0xA2C87ABC3341789E0370A7BAABED4F58835304C2B16A29536744AD19FCFD2E84 PUSH1 0x60 CALLER SWAP3 LOG3 DUP3 DUP1 DUP1 PUSH2 0x812 JUMP JUMPDEST PUSH4 0x4E487B71 PUSH1 0xE0 SHL PUSH1 0x0 MSTORE PUSH1 0x21 PUSH1 0x4 MSTORE PUSH1 0x24 PUSH1 0x0 REVERT JUMPDEST PUSH2 0x8B5 SWAP1 PUSH1 0x20 RETURNDATASIZE PUSH1 0x20 GT PUSH2 0x8BC JUMPI JUMPDEST PUSH2 0x8AD DUP2 DUP4 PUSH2 0xEAE JUMP JUMPDEST DUP2 ADD SWAP1 PUSH2 0xED0 JUMP JUMPDEST POP DUP5 PUSH2 0x808 JUMP JUMPDEST POP RETURNDATASIZE PUSH2 0x8A3 JUMP JUMPDEST PUSH1 0x40 MLOAD RETURNDATASIZE PUSH1 0x0 DUP3 RETURNDATACOPY RETURNDATASIZE SWAP1 REVERT JUMPDEST PUSH2 0x8DA SWAP2 POP SELFBALANCE PUSH2 0xEE8 JUMP JUMPDEST PUSH2 0x80C JUMP JUMPDEST PUSH2 0x8FB SWAP1 RETURNDATASIZE DUP1 PUSH1 0x0 DUP4 RETURNDATACOPY PUSH2 0x8F3 DUP2 DUP4 PUSH2 0xEAE JUMP JUMPDEST DUP2 ADD SWAP1 PUSH2 0xF42 JUMP JUMPDEST POP DUP8 PUSH2 0x7CD JUMP JUMPDEST PUSH4 0x4E487B71 PUSH1 0xE0 SHL PUSH1 0x0 MSTORE PUSH1 0x32 PUSH1 0x4 MSTORE PUSH1 0x24 PUSH1 0x0 REVERT JUMPDEST PUSH4 0x4E487B71 PUSH1 0xE0 SHL PUSH1 0x0 MSTORE PUSH1 0x41 PUSH1 0x4 MSTORE PUSH1 0x24 PUSH1 0x0 REVERT JUMPDEST PUSH2 0x946 SWAP1 PUSH1 0x20 RETURNDATASIZE PUSH1 0x20 GT PUSH2 0x8BC JUMPI PUSH2 0x8AD DUP2 DUP4 PUSH2 0xEAE JUMP JUMPDEST POP DUP8 PUSH2 0x6F6 JUMP JUMPDEST PUSH1 0x40 DUP4 DUP2 ADD MLOAD PUSH1 0x80 DUP6 ADD MLOAD SWAP2 MLOAD PUSH4 0x95EA7B3 PUSH1 0xE0 SHL DUP2 MSTORE PUSH32 0x0 PUSH1 0x1 PUSH1 0x1 PUSH1 0xA0 SHL SUB AND PUSH1 0x4 DUP3 ADD MSTORE PUSH1 0x24 DUP2 ADD DUP6 SWAP1 MSTORE PUSH3 0xFFFFFF SWAP1 SWAP3 AND SWAP2 PUSH1 0x20 DUP2 PUSH1 0x44 DUP2 PUSH1 0x0 DUP9 GAS CALL DUP1 ISZERO PUSH2 0x8C3 JUMPI PUSH2 0xCF5 JUMPI JUMPDEST POP PUSH1 0x40 MLOAD SWAP2 DUP3 PUSH1 0xE0 DUP2 ADD LT PUSH8 0xFFFFFFFFFFFFFFFF PUSH1 0xE0 DUP6 ADD GT OR PUSH2 0x918 JUMPI PUSH1 0xE0 DUP4 ADD PUSH1 0x40 SWAP1 DUP2 MSTORE DUP5 DUP5 MSTORE PUSH1 0x1 PUSH1 0x1 PUSH1 0xA0 SHL SUB PUSH32 0x0 DUP2 AND PUSH1 0x20 DUP1 DUP8 ADD SWAP2 DUP3 MSTORE DUP4 DUP8 ADD SWAP5 DUP6 MSTORE ADDRESS PUSH1 0x60 DUP9 ADD SWAP1 DUP2 MSTORE PUSH1 0x80 DUP9 ADD DUP11 DUP2 MSTORE PUSH1 0xA0 DUP10 ADD SWAP8 DUP9 MSTORE PUSH1 0x0 PUSH1 0xC0 DUP11 ADD DUP2 DUP2 MSTORE SWAP7 MLOAD PUSH4 0x4E45AAF PUSH1 0xE0 SHL DUP2 MSTORE SWAP10 MLOAD DUP7 AND PUSH1 0x4 DUP12 ADD MSTORE SWAP4 MLOAD DUP6 AND PUSH1 0x24 DUP11 ADD MSTORE SWAP6 MLOAD PUSH3 0xFFFFFF AND PUSH1 0x44 DUP10 ADD MSTORE MLOAD DUP4 AND PUSH1 0x64 DUP9 ADD MSTORE SWAP4 MLOAD PUSH1 0x84 DUP8 ADD MSTORE SWAP4 MLOAD PUSH1 0xA4 DUP7 ADD MSTORE SWAP1 MLOAD DUP2 AND PUSH1 0xC4 DUP6 ADD MSTORE SWAP1 SWAP2 DUP4 SWAP2 PUSH1 0xE4 SWAP2 DUP4 SWAP2 PUSH32 0x0 AND GAS CALL PUSH1 0x0 SWAP2 DUP2 PUSH2 0xCC1 JUMPI JUMPDEST POP PUSH2 0xB1B JUMPI POP PUSH1 0x40 MLOAD PUSH4 0xA9059CBB PUSH1 0xE0 SHL DUP2 MSTORE CALLER PUSH1 0x4 DUP3 ADD MSTORE PUSH1 0x24 DUP2 ADD DUP4 SWAP1 MSTORE SWAP1 PUSH1 0x20 SWAP1 DUP3 SWAP1 PUSH1 0x44 SWAP1 DUP3 SWAP1 PUSH1 0x0 SWAP1 GAS CALL DUP1 ISZERO PUSH2 0x8C3 JUMPI PUSH2 0xAFC JUMPI JUMPDEST POP PUSH1 0x0 PUSH2 0x80C JUMP JUMPDEST PUSH2 0xB14 SWAP1 PUSH1 0x20 RETURNDATASIZE PUSH1 0x20 GT PUSH2 0x8BC JUMPI PUSH2 0x8AD DUP2 DUP4 PUSH2 0xEAE JUMP JUMPDEST POP DUP5 PUSH2 0xAF4 JUMP JUMPDEST PUSH1 0x40 MLOAD PUSH4 0x95EA7B3 PUSH1 0xE0 SHL DUP2 MSTORE PUSH32 0x0 PUSH1 0x1 PUSH1 0x1 PUSH1 0xA0 SHL SUB AND PUSH1 0x4 DUP3 ADD MSTORE PUSH1 0x24 DUP2 ADD DUP3 SWAP1 MSTORE SWAP1 SWAP2 POP PUSH1 0x20 DUP2 DUP1 PUSH1 0x44 DUP2 ADD SUB DUP2 PUSH1 0x0 PUSH32 0x0 PUSH1 0x1 PUSH1 0x1 PUSH1 0xA0 SHL SUB AND GAS CALL DUP1 ISZERO PUSH2 0x8C3 JUMPI PUSH2 0xCA2 JUMPI JUMPDEST POP PUSH1 0x40 MLOAD SWAP1 DUP2 PUSH1 0x40 DUP2 ADD LT PUSH8 0xFFFFFFFFFFFFFFFF PUSH1 0x40 DUP5 ADD GT OR PUSH2 0x918 JUMPI PUSH1 0x40 DUP3 ADD PUSH1 0x40 MSTORE PUSH1 0x1 DUP3 MSTORE PUSH1 0x20 CALLDATASIZE DUP2 DUP5 ADD CALLDATACOPY PUSH32 0x0 PUSH1 0x1 PUSH1 0x1 PUSH1 0xA0 SHL SUB AND PUSH2 0xC07 DUP4 PUSH2 0xF35 JUMP JUMPDEST MSTORE SELFBALANCE SWAP1 PUSH2 0x12C TIMESTAMP ADD TIMESTAMP GT PUSH2 0x4D8 JUMPI PUSH1 0x40 MLOAD PUSH4 0x18CBAFE5 PUSH1 0xE0 SHL DUP2 MSTORE SWAP3 PUSH1 0x0 SWAP2 DUP5 SWAP2 DUP3 SWAP2 PUSH2 0xC41 SWAP2 TIMESTAMP PUSH2 0x12C ADD SWAP2 ADDRESS SWAP2 SWAP1 DUP1 PUSH1 0x4 DUP8 ADD PUSH2 0xFBE JUMP JUMPDEST SUB DUP2 DUP4 PUSH32 0x0 PUSH1 0x1 PUSH1 0x1 PUSH1 0xA0 SHL SUB AND GAS CALL SWAP2 DUP3 ISZERO PUSH2 0x8C3 JUMPI PUSH2 0x8DA SWAP3 PUSH2 0xC87 JUMPI JUMPDEST POP SELFBALANCE PUSH2 0xEE8 JUMP JUMPDEST PUSH2 0xC9B SWAP1 RETURNDATASIZE DUP1 PUSH1 0x0 DUP4 RETURNDATACOPY PUSH2 0x8F3 DUP2 DUP4 PUSH2 0xEAE JUMP JUMPDEST POP DUP7 PUSH2 0xC80 JUMP JUMPDEST PUSH2 0xCBA SWAP1 PUSH1 0x20 RETURNDATASIZE PUSH1 0x20 GT PUSH2 0x8BC JUMPI PUSH2 0x8AD DUP2 DUP4 PUSH2 0xEAE JUMP JUMPDEST POP DUP6 PUSH2 0xBA4 JUMP JUMPDEST SWAP1 SWAP2 POP PUSH1 0x20 DUP2 RETURNDATASIZE PUSH1 0x20 GT PUSH2 0xCED JUMPI JUMPDEST DUP2 PUSH2 0xCDD PUSH1 0x20 SWAP4 DUP4 PUSH2 0xEAE JUMP JUMPDEST DUP2 ADD SUB SLT PUSH2 0x13C JUMPI MLOAD SWAP1 DUP8 PUSH2 0xAB9 JUMP JUMPDEST RETURNDATASIZE SWAP2 POP PUSH2 0xCD0 JUMP JUMPDEST PUSH2 0xD0D SWAP1 PUSH1 0x20 RETURNDATASIZE PUSH1 0x20 GT PUSH2 0x8BC JUMPI PUSH2 0x8AD DUP2 DUP4 PUSH2 0xEAE JUMP JUMPDEST POP DUP8 PUSH2 0x9B8 JUMP JUMPDEST POP PUSH1 0x20 DUP3 RETURNDATASIZE PUSH1 0x20 GT PUSH2 0xD40 JUMPI JUMPDEST DUP2 PUSH2 0xD2E PUSH1 0x20 SWAP4 DUP4 PUSH2 0xEAE JUMP JUMPDEST DUP2 ADD SUB SLT PUSH2 0x13C JUMPI PUSH2 0x682 SWAP2 MLOAD PUSH2 0x678 JUMP JUMPDEST RETURNDATASIZE SWAP2 POP PUSH2 0xD21 JUMP JUMPDEST PUSH2 0xD61 SWAP2 POP PUSH1 0x20 RETURNDATASIZE PUSH1 0x20 GT PUSH2 0x8BC JUMPI PUSH2 0x8AD DUP2 DUP4 PUSH2 0xEAE JUMP JUMPDEST DUP7 PUSH2 0x647 JUMP JUMPDEST SWAP1 POP PUSH1 0x20 DUP2 RETURNDATASIZE PUSH1 0x20 GT PUSH2 0xD91 JUMPI JUMPDEST DUP2 PUSH2 0xD82 PUSH1 0x20 SWAP4 DUP4 PUSH2 0xEAE JUMP JUMPDEST DUP2 ADD SUB SLT PUSH2 0x13C JUMPI MLOAD DUP6 PUSH2 0x608 JUMP JUMPDEST RETURNDATASIZE SWAP2 POP PUSH2 0xD75 JUMP JUMPDEST POP PUSH2 0x816 JUMP JUMPDEST PUSH1 0x40 MLOAD PUSH4 0xC1AB6DC1 PUSH1 0xE0 SHL DUP2 MSTORE PUSH1 0x4 SWAP1 REVERT JUMPDEST POP PUSH1 0x4 CALLDATALOAD PUSH1 0xA0 DUP4 MUL ADD PUSH1 0x24 ADD CALLDATALOAD PUSH1 0x1 PUSH1 0x1 PUSH1 0xA0 SHL SUB SWAP1 DUP2 AND PUSH32 0x0 SWAP1 SWAP2 AND EQ PUSH2 0x5C1 JUMP JUMPDEST PUSH1 0x40 MLOAD PUSH4 0x86724C7F PUSH1 0xE0 SHL DUP2 MSTORE PUSH1 0x4 SWAP1 REVERT JUMPDEST PUSH1 0x40 MLOAD PUSH4 0x1AB7DA6B PUSH1 0xE0 SHL DUP2 MSTORE PUSH1 0x4 SWAP1 REVERT JUMPDEST PUSH1 0x40 MLOAD PUSH4 0x3EE5AEB5 PUSH1 0xE0 SHL DUP2 MSTORE PUSH1 0x4 SWAP1 REVERT JUMPDEST CALLVALUE PUSH2 0x13C JUMPI PUSH1 0x0 CALLDATASIZE PUSH1 0x3 NOT ADD SLT PUSH2 0x13C JUMPI PUSH1 0x2 SLOAD PUSH1 0x40 MLOAD PUSH1 0x1 PUSH1 0x1 PUSH1 0xA0 SHL SUB SWAP1 SWAP2 AND DUP2 MSTORE PUSH1 0x20 SWAP1 RETURN JUMPDEST CALLVALUE PUSH2 0x13C JUMPI PUSH1 0x0 CALLDATASIZE PUSH1 0x3 NOT ADD SLT PUSH2 0x13C JUMPI DUP1 PUSH1 0xA PUSH1 0x20 SWAP3 MSTORE RETURN JUMPDEST PUSH1 0x4 CALLDATALOAD SWAP1 PUSH1 0x1 PUSH1 0x1 PUSH1 0xA0 SHL SUB DUP3 AND DUP3 SUB PUSH2 0x13C JUMPI JUMP JUMPDEST PUSH1 0x0 SLOAD PUSH1 0x1 PUSH1 0x1 PUSH1 0xA0 SHL SUB AND CALLER SUB PUSH2 0xE96 JUMPI JUMP JUMPDEST PUSH1 0x40 MLOAD PUSH4 0x118CDAA7 PUSH1 0xE0 SHL DUP2 MSTORE CALLER PUSH1 0x4 DUP3 ADD MSTORE PUSH1 0x24 SWAP1 REVERT JUMPDEST SWAP1 PUSH1 0x1F DUP1 NOT SWAP2 ADD AND DUP2 ADD SWAP1 DUP2 LT PUSH8 0xFFFFFFFFFFFFFFFF DUP3 GT OR PUSH2 0x918 JUMPI PUSH1 0x40 MSTORE JUMP JUMPDEST SWAP1 DUP2 PUSH1 0x20 SWAP2 SUB SLT PUSH2 0x13C JUMPI MLOAD DUP1 ISZERO ISZERO DUP2 SUB PUSH2 0x13C JUMPI SWAP1 JUMP JUMPDEST SWAP2 SWAP1 DUP3 SUB SWAP2 DUP3 GT PUSH2 0x4D8 JUMPI JUMP JUMPDEST RETURNDATASIZE ISZERO PUSH2 0xF30 JUMPI RETURNDATASIZE SWAP1 PUSH8 0xFFFFFFFFFFFFFFFF DUP3 GT PUSH2 0x918 JUMPI PUSH1 0x40 MLOAD SWAP2 PUSH2 0xF24 PUSH1 0x1F DUP3 ADD PUSH1 0x1F NOT AND PUSH1 0x20 ADD DUP5 PUSH2 0xEAE JUMP JUMPDEST DUP3 MSTORE RETURNDATASIZE PUSH1 0x0 PUSH1 0x20 DUP5 ADD RETURNDATACOPY JUMP JUMPDEST PUSH1 0x60 SWAP1 JUMP JUMPDEST DUP1 MLOAD ISZERO PUSH2 0x902 JUMPI PUSH1 0x20 ADD SWAP1 JUMP JUMPDEST SWAP1 PUSH1 0x20 SWAP1 DUP2 DUP4 DUP3 SUB SLT PUSH2 0x13C JUMPI DUP3 MLOAD PUSH8 0xFFFFFFFFFFFFFFFF SWAP4 DUP5 DUP3 GT PUSH2 0x13C JUMPI ADD DUP2 PUSH1 0x1F DUP3 ADD SLT ISZERO PUSH2 0x13C JUMPI DUP1 MLOAD SWAP4 DUP5 GT PUSH2 0x918 JUMPI DUP4 PUSH1 0x5 SHL SWAP1 PUSH1 0x40 MLOAD SWAP5 PUSH2 0xF8C DUP6 DUP5 ADD DUP8 PUSH2 0xEAE JUMP JUMPDEST DUP6 MSTORE DUP4 DUP1 DUP7 ADD SWAP3 DUP3 ADD ADD SWAP3 DUP4 GT PUSH2 0x13C JUMPI DUP4 ADD SWAP1 JUMPDEST DUP3 DUP3 LT PUSH2 0xFAF JUMPI POP POP POP POP SWAP1 JUMP JUMPDEST DUP2 MLOAD DUP2 MSTORE SWAP1 DUP4 ADD SWAP1 DUP4 ADD PUSH2 0xFA1 JUMP JUMPDEST SWAP3 SWAP2 SWAP1 SWAP6 SWAP5 SWAP4 SWAP6 PUSH1 0xA0 DUP5 ADD SWAP1 DUP5 MSTORE PUSH1 0x20 SWAP2 DUP3 DUP6 ADD MSTORE PUSH1 0xA0 PUSH1 0x40 DUP6 ADD MSTORE DUP3 MLOAD DUP1 SWAP2 MSTORE DUP2 PUSH1 0xC0 DUP6 ADD SWAP4 ADD SWAP2 PUSH1 0x0 JUMPDEST DUP3 DUP2 LT PUSH2 0x100B JUMPI POP POP POP POP SWAP1 PUSH1 0x80 SWAP2 SWAP5 PUSH1 0x1 DUP1 PUSH1 0xA0 SHL SUB AND PUSH1 0x60 DUP3 ADD MSTORE ADD MSTORE JUMP JUMPDEST DUP4 MLOAD PUSH1 0x1 PUSH1 0x1 PUSH1 0xA0 SHL SUB AND DUP6 MSTORE SWAP4 DUP2 ADD SWAP4 SWAP3 DUP2 ADD SWAP3 PUSH1 0x1 ADD PUSH2 0xFEA JUMP JUMPDEST DUP2 ISZERO PUSH2 0x10BD JUMPI PUSH1 0x1 PUSH1 0x1 PUSH1 0xA0 SHL SUB SWAP1 DUP2 AND DUP1 PUSH2 0x105B JUMPI POP PUSH1 0x0 DUP1 DUP1 SWAP4 DUP2 SWAP4 DUP3 SLOAD AND GAS CALL PUSH2 0x1053 PUSH2 0xEF5 JUMP JUMPDEST POP ISZERO PUSH2 0x494 JUMPI JUMP JUMPDEST PUSH1 0x0 DUP1 SLOAD PUSH1 0x40 MLOAD PUSH4 0xA9059CBB PUSH1 0xE0 SHL DUP2 MSTORE SWAP4 AND PUSH1 0x1 PUSH1 0x1 PUSH1 0xA0 SHL SUB AND PUSH1 0x4 DUP5 ADD MSTORE PUSH1 0x24 DUP4 ADD SWAP4 SWAP1 SWAP4 MSTORE SWAP1 SWAP2 PUSH1 0x20 SWAP2 DUP4 SWAP2 DUP3 SWAP1 DUP2 PUSH1 0x44 DUP2 ADD SUB SWAP3 GAS CALL DUP1 ISZERO PUSH2 0x8C3 JUMPI PUSH2 0x10A3 JUMPI POP JUMP JUMPDEST PUSH2 0x10BA SWAP1 PUSH1 0x20 RETURNDATASIZE DUP2 GT PUSH2 0x8BC JUMPI PUSH2 0x8AD DUP2 DUP4 PUSH2 0xEAE JUMP JUMPDEST POP JUMP JUMPDEST POP POP JUMP INVALID LOG2 PUSH5 0x6970667358 0x22 SLT KECCAK256 KECCAK256 KECCAK256 MSIZE 0x26 SAR 0xDE 0xA7 0xB1 0x2A SWAP13 GASPRICE 0xAB PUSH7 0xA4E2F1153BB637 CALL 0xCA JUMP INVALID PUSH14 0x8FB3400C59AD8E64736F6C634300 ADDMOD EQ STOP CALLER "},"methodIdentifiers":{"FEE_DENOMINATOR()":"d73792a9","SERVICE_FEE_PERCENT()":"04d87f39","WBNB()":"8dd95002","batchSwapToBNB((address,uint256,uint256,uint8,uint24)[],uint256)":"50923640","emergencyWithdraw(address,uint256)":"95ccea67","feeRecipient()":"46904840","owner()":"8da5cb5b","pancakeRouterV2()":"d20ccdc2","pancakeRouterV3()":"e47aaf6d","renounceOwnership()":"715018a6","setFeeRecipient(address)":"e74b981b","transferOwnership(address)":"f2fde38b"}}}}}