{"contracts/DustSwapRouterX.sol":{"DustSwapRouterX":{"abi":[{"inputs":[{"internalType":"address","name":"_pancakeRouterV2","type":"address"},{"internalType":"address","name":"_pancakeRouterV3","type":"address"},{"internalType":"address","name":"_outputToken","type":"address"},{"internalType":"address","name":"_feeRecipient","type":"address"},{"internalType":"uint256","name":"_initialFee","type":"uint256"}],"stateMutability":"nonpayable","type":"constructor"},{"inputs":[],"name":"DeadlineExpired","type":"error"},{"inputs":[],"name":"EmptySwapList","type":"error"},{"inputs":[],"name":"FeeTooHigh","type":"error"},{"inputs":[],"name":"InsufficientOutput","type":"error"},{"inputs":[],"name":"InvalidFeeRecipient","type":"error"},{"inputs":[],"name":"InvalidOutputToken","type":"error"},{"inputs":[],"name":"InvalidRouter","type":"error"},{"inputs":[],"name":"InvalidToken","type":"error"},{"inputs":[],"name":"NoPendingOutputToken","type":"error"},{"inputs":[{"internalType":"address","name":"owner","type":"address"}],"name":"OwnableInvalidOwner","type":"error"},{"inputs":[{"internalType":"address","name":"account","type":"address"}],"name":"OwnableUnauthorizedAccount","type":"error"},{"inputs":[],"name":"ReentrancyGuardReentrantCall","type":"error"},{"inputs":[{"internalType":"uint256","name":"activeAt","type":"uint256"}],"name":"TimelockActive","type":"error"},{"inputs":[],"name":"TransferFailed","type":"error"},{"anonymous":false,"inputs":[{"indexed":true,"internalType":"address","name":"user","type":"address"},{"indexed":false,"internalType":"uint256","name":"tokensSwapped","type":"uint256"},{"indexed":false,"internalType":"uint256","name":"totalOutput","type":"uint256"},{"indexed":false,"internalType":"uint256","name":"fee","type":"uint256"},{"indexed":false,"internalType":"uint256","name":"userAmount","type":"uint256"},{"indexed":true,"internalType":"address","name":"outputToken","type":"address"}],"name":"BatchSwapCompleted","type":"event"},{"anonymous":false,"inputs":[{"indexed":true,"internalType":"address","name":"oldRecipient","type":"address"},{"indexed":true,"internalType":"address","name":"newRecipient","type":"address"}],"name":"FeeRecipientUpdated","type":"event"},{"anonymous":false,"inputs":[{"indexed":false,"internalType":"uint256","name":"oldFee","type":"uint256"},{"indexed":false,"internalType":"uint256","name":"newFee","type":"uint256"}],"name":"FeeUpdated","type":"event"},{"anonymous":false,"inputs":[{"indexed":true,"internalType":"address","name":"cancelledToken","type":"address"}],"name":"OutputTokenProposalCancelled","type":"event"},{"anonymous":false,"inputs":[{"indexed":true,"internalType":"address","name":"newToken","type":"address"},{"indexed":false,"internalType":"uint256","name":"activeAt","type":"uint256"}],"name":"OutputTokenProposed","type":"event"},{"anonymous":false,"inputs":[{"indexed":true,"internalType":"address","name":"oldToken","type":"address"},{"indexed":true,"internalType":"address","name":"newToken","type":"address"}],"name":"OutputTokenUpdated","type":"event"},{"anonymous":false,"inputs":[{"indexed":true,"internalType":"address","name":"previousOwner","type":"address"},{"indexed":true,"internalType":"address","name":"newOwner","type":"address"}],"name":"OwnershipTransferred","type":"event"},{"anonymous":false,"inputs":[{"indexed":true,"internalType":"address","name":"user","type":"address"},{"indexed":true,"internalType":"address","name":"token","type":"address"},{"indexed":false,"internalType":"uint256","name":"amountIn","type":"uint256"},{"indexed":false,"internalType":"uint256","name":"amountOut","type":"uint256"},{"indexed":false,"internalType":"enum DustSwapRouterX.RouterVersion","name":"version","type":"uint8"}],"name":"SingleSwapCompleted","type":"event"},{"inputs":[],"name":"FEE_DENOMINATOR","outputs":[{"internalType":"uint256","name":"","type":"uint256"}],"stateMutability":"view","type":"function"},{"inputs":[],"name":"MAX_FEE","outputs":[{"internalType":"uint256","name":"","type":"uint256"}],"stateMutability":"view","type":"function"},{"inputs":[],"name":"OUTPUT_TOKEN_TIMELOCK","outputs":[{"internalType":"uint256","name":"","type":"uint256"}],"stateMutability":"view","type":"function"},{"inputs":[],"name":"WBNB","outputs":[{"internalType":"address","name":"","type":"address"}],"stateMutability":"view","type":"function"},{"inputs":[],"name":"applyOutputToken","outputs":[],"stateMutability":"nonpayable","type":"function"},{"inputs":[{"components":[{"internalType":"address","name":"token","type":"address"},{"internalType":"uint256","name":"amount","type":"uint256"},{"internalType":"uint256","name":"minAmountOut","type":"uint256"},{"internalType":"enum DustSwapRouterX.RouterVersion","name":"version","type":"uint8"},{"internalType":"uint24","name":"v3Fee","type":"uint24"},{"internalType":"uint256","name":"permitDeadline","type":"uint256"},{"internalType":"uint8","name":"permitV","type":"uint8"},{"internalType":"bytes32","name":"permitR","type":"bytes32"},{"internalType":"bytes32","name":"permitS","type":"bytes32"}],"internalType":"struct DustSwapRouterX.SwapInstruction[]","name":"instructions","type":"tuple[]"},{"internalType":"uint256","name":"deadline","type":"uint256"}],"name":"batchSwapToToken","outputs":[{"internalType":"uint256","name":"userAmount","type":"uint256"}],"stateMutability":"nonpayable","type":"function"},{"inputs":[],"name":"cancelOutputToken","outputs":[],"stateMutability":"nonpayable","type":"function"},{"inputs":[{"internalType":"address","name":"token","type":"address"},{"internalType":"uint256","name":"amount","type":"uint256"}],"name":"emergencyWithdraw","outputs":[],"stateMutability":"nonpayable","type":"function"},{"inputs":[],"name":"feeRecipient","outputs":[{"internalType":"address","name":"","type":"address"}],"stateMutability":"view","type":"function"},{"inputs":[{"internalType":"address[]","name":"tokens","type":"address[]"},{"internalType":"uint256[]","name":"amounts","type":"uint256[]"}],"name":"getEstimatedOutputs","outputs":[{"internalType":"uint256[]","name":"estimates","type":"uint256[]"}],"stateMutability":"view","type":"function"},{"inputs":[],"name":"outputToken","outputs":[{"internalType":"address","name":"","type":"address"}],"stateMutability":"view","type":"function"},{"inputs":[],"name":"owner","outputs":[{"internalType":"address","name":"","type":"address"}],"stateMutability":"view","type":"function"},{"inputs":[],"name":"pancakeRouterV2","outputs":[{"internalType":"contract IPancakeRouter02","name":"","type":"address"}],"stateMutability":"view","type":"function"},{"inputs":[],"name":"pancakeRouterV3","outputs":[{"internalType":"contract IPancakeV3SwapRouter","name":"","type":"address"}],"stateMutability":"view","type":"function"},{"inputs":[],"name":"pendingOutputToken","outputs":[{"internalType":"address","name":"","type":"address"}],"stateMutability":"view","type":"function"},{"inputs":[],"name":"pendingOutputTokenActiveAt","outputs":[{"internalType":"uint256","name":"","type":"uint256"}],"stateMutability":"view","type":"function"},{"inputs":[{"internalType":"address","name":"_newToken","type":"address"}],"name":"proposeOutputToken","outputs":[],"stateMutability":"nonpayable","type":"function"},{"inputs":[],"name":"renounceOwnership","outputs":[],"stateMutability":"nonpayable","type":"function"},{"inputs":[],"name":"serviceFee","outputs":[{"internalType":"uint256","name":"","type":"uint256"}],"stateMutability":"view","type":"function"},{"inputs":[{"internalType":"uint256","name":"_newFee","type":"uint256"}],"name":"setFee","outputs":[],"stateMutability":"nonpayable","type":"function"},{"inputs":[{"internalType":"address","name":"_newRecipient","type":"address"}],"name":"setFeeRecipient","outputs":[],"stateMutability":"nonpayable","type":"function"},{"inputs":[{"internalType":"address","name":"newOwner","type":"address"}],"name":"transferOwnership","outputs":[],"stateMutability":"nonpayable","type":"function"},{"stateMutability":"payable","type":"receive"}],"evm":{"bytecode":{"linkReferences":{},"object":"60e060409080825234620002a55760a08162001ed88038038091620000258285620002aa565b833981010312620002a5576200003b81620002e4565b906200004a60208201620002e4565b9062000058848201620002e4565b9260806200006960608401620002e4565b9201519333156200028d5760008054336001600160a01b031980831682178455895190966001600160a01b03969495949193909287929183167f8be0079c531659141344cd1fd0a4f28419497f9722a3daafe3b4186f6b6457e08880a36001805516918215801562000282575b620002735750841695861562000262576113888811620002515781856020926004946080521660a0528951928380926315ab88c960e31b82525afa9283156200024657908185939294620001fb575b50508260c05216918215918215620001ee575b5050620001de57816002541617600255600554161760055560065551611bde9081620002fa82396080518181816105d2015281816106a70152818161070e01528181610c900152818161126c01526117d6015260a051818181610c2e015281816115d90152611720015260c05181818161064301528181610adf01528181610d7101528181610f6f015281816111ff0152818161165a0152818161181a01526118710152f35b84516231010160e51b8152600490fd5b1682149050388062000138565b91935091506020823d82116200023d575b816200021b60209383620002aa565b810103126200023a5750620002318391620002e4565b91388062000125565b80fd5b3d91506200020c565b8851903d90823e3d90fd5b885163cd4e616760e01b8152600490fd5b8851630ed1b8b360e31b8152600490fd5b63466d7fef60e01b8152600490fd5b5085881615620000d6565b8551631e4fbdf760e01b815260006004820152602490fd5b600080fd5b601f909101601f19168101906001600160401b03821190821017620002ce57604052565b634e487b7160e01b600052604160045260246000fd5b51906001600160a01b0382168203620002a55756fe608080604052600436101561001d575b50361561001b57600080fd5b005b60003560e01c908163273efee0146110d15750806346904840146110a857806349fcf0e41461104357806350fd70c414610f975780636078af9214610ecc57806369fe0e2d14610e5e5780636a19c9c714610e40578063715018a614610de75780638abdf5aa14610dc95780638da5cb5b14610da05780638dd9500214610d5b578063901a540214610d3257806395ccea6714610d05578063bc063e1a14610ce8578063c1d8d1d914610cbf578063d20ccdc214610c7a578063d73792a914610c5d578063e47aaf6d14610c18578063e74b981b14610b97578063ed56dac914610b79578063f1ae159c146101aa5763f2fde38b1461011c573861000f565b346101a55760203660031901126101a5576101356113ea565b61013d611400565b6001600160a01b0390811690811561018c57600054826001600160601b0360a01b821617600055167f8be0079c531659141344cd1fd0a4f28419497f9722a3daafe3b4186f6b6457e0600080a3005b604051631e4fbdf760e01b815260006004820152602490fd5b600080fd5b346101a55760403660031901126101a55767ffffffffffffffff80600435116101a5573660236004350112156101a55760043560040135116101a55736602461012060043560040135026004350101116101a557600260015414610b675760026001556024354211610b55576004356004013515610b43576002546040516370a0823160e01b81523060048201526001600160a01b0390911690602081602481855afa90811561039857600091610b11575b5060009060005b60043560040135811061047757506040516370a0823160e01b815230600482015290602082602481875afa801561039857600090610443575b6102a692506114b7565b91821561043157600654808402908482040361041b576127109004916102cc83856114b7565b92806103a4575b60405163a9059cbb60e01b8152336004820152602481018590526020816044816000885af190811561039857600091610369575b5015610357576020946040519283528583015260408201528260608201527fc5f91541570ee410396e78fff4d3ef181d35ec6e43cc346f958f4fe06b56c47260803392a360018055604051908152f35b6040516312171d8360e31b8152600490fd5b61038b915060203d602011610391575b6103838183611472565b8101906114c4565b86610307565b503d610379565b6040513d6000823e3d90fd5b60055460405163a9059cbb60e01b81526001600160a01b039091166004820152602481018290526020816044816000885af1908115610398576000916103fc575b506102d3576040516312171d8360e31b8152600490fd5b610415915060203d602011610391576103838183611472565b866103e5565b634e487b7160e01b600052601160045260246000fd5b60405163bb2875c360e01b8152600490fd5b506020823d60201161046f575b8161045d60209383611472565b810103126101a5576102a6915161029c565b3d9150610450565b6001600160a01b036104936004356101208402016024016114a3565b16158015610ac8575b8015610aa3575b610a9157604461012082026004350101351561078c5760c461012082026004350101356109d2575b6001600160a01b036104e76004356101208402016024016114a3565b166040516370a0823160e01b8152306004820152602081602481855afa908115610398576000916109a0575b506040516323b872dd60e01b81523360048201523060248201526044610120850260043501013560448201526020816064816000875af190811561039857600091610981575b5015610357576040516370a0823160e01b815230600482015290602082602481865afa80156103985760009061094d575b61059492506114b7565b9060026084610120850260043501013510156101a557600435610120840201608401356109075760405163095ea7b360e01b81526001600160a01b037f0000000000000000000000000000000000000000000000000000000000000000166004820152602481018390526020816044816000865af18015610398576108e8575b5060405161062181611456565b60038152606036602083013781610637826114f4565b5261064181611517565b7f00000000000000000000000000000000000000000000000000000000000000006001600160a01b031690528661067782611527565b526040516370a0823160e01b8152306004820152906020826024818b5afa918215610398576000926108b4575b507f00000000000000000000000000000000000000000000000000000000000000006001600160a01b03163b156101a55760006107099160405180938192635c11d79560e01b835260243590309060646101208d026004350101358b60048701611588565b0381837f00000000000000000000000000000000000000000000000000000000000000006001600160a01b03165af190816108a5575b50610836575060405163a9059cbb60e01b81523360048201526024810183905290602090829060449082906000905af1801561039857610817575b5060005b905b816107af575b5061079a575b61079590611494565b610263565b916107a761079591611494565b92905061078c565b6001600160a01b036107cb6004356101208602016024016114a3565b16906040519081528260208201526084610120850260043501013560408201527fa2c87abc3341789e0370a7baabed4f58835304c2b16a29536744ad19fcfd2e8460603392a385610786565b61082f9060203d602011610391576103838183611472565b508561077a565b6040516370a0823160e01b815230600482015291506020826024818a5afa801561039857600090610871575b61086c92506114b7565b61077e565b506020823d60201161089d575b8161088b60209383611472565b810103126101a55761086c9151610862565b3d915061087e565b6108ae9061142c565b8861073f565b9091506020813d6020116108e0575b816108d060209383611472565b810103126101a5575190886106a4565b3d91506108c3565b6109009060203d602011610391576103838183611472565b5086610614565b60043561012084020160a4013562ffffff811690036101a5576109479060243590879060043561012087020160648101359160a4909101359086906115c1565b90610780565b506020823d602011610979575b8161096760209383611472565b810103126101a557610594915161058a565b3d915061095a565b61099a915060203d602011610391576103838183611472565b87610559565b90506020813d6020116109ca575b816109bb60209383611472565b810103126101a5575186610513565b3d91506109ae565b6001600160a01b036109ee6004356101208402016024016114a3565b1660e4610120830260043501013560ff811681036101a557813b156101a55760405163d505accf60e01b815233600480830191909152306024830152356101208502016044818101359083015260c480820135606484015260ff93909316608483015261010481013560a483015261012401359181019190915290600090829060e490829084905af1610a82575b506104cb565b610a8b9061142c565b84610a7c565b60405163c1ab6dc160e01b8152600490fd5b50836001600160a01b03610ac16004356101208502016024016114a3565b16146104a3565b50610add6024610120830260043501016114a3565b7f00000000000000000000000000000000000000000000000000000000000000006001600160a01b0390811691161461049c565b90506020813d602011610b3b575b81610b2c60209383611472565b810103126101a557518261025c565b3d9150610b1f565b6040516386724c7f60e01b8152600490fd5b604051631ab7da6b60e01b8152600490fd5b604051633ee5aeb560e01b8152600490fd5b346101a55760003660031901126101a55760206040516202a3008152f35b346101a55760203660031901126101a557610bb06113ea565b610bb8611400565b6001600160a01b03908116908115610c0657816005549182167faaebcf1bfa00580e41d966056b48521fa9f202645c86d4ddf28113e617c1b1d3600080a36001600160a01b03191617600555005b604051630ed1b8b360e31b8152600490fd5b346101a55760003660031901126101a5576040517f00000000000000000000000000000000000000000000000000000000000000006001600160a01b03168152602090f35b346101a55760003660031901126101a55760206040516127108152f35b346101a55760003660031901126101a5576040517f00000000000000000000000000000000000000000000000000000000000000006001600160a01b03168152602090f35b346101a55760003660031901126101a5576002546040516001600160a01b039091168152602090f35b346101a55760003660031901126101a55760206040516113888152f35b346101a55760403660031901126101a55761001b610d216113ea565b610d29611400565b60243590611ac4565b346101a55760003660031901126101a5576003546040516001600160a01b039091168152602090f35b346101a55760003660031901126101a5576040517f00000000000000000000000000000000000000000000000000000000000000006001600160a01b03168152602090f35b346101a55760003660031901126101a5576000546040516001600160a01b039091168152602090f35b346101a55760003660031901126101a5576020600654604051908152f35b346101a55760003660031901126101a557610e00611400565b600080546001600160a01b0319811682556001600160a01b03167f8be0079c531659141344cd1fd0a4f28419497f9722a3daafe3b4186f6b6457e08280a3005b346101a55760003660031901126101a5576020600454604051908152f35b346101a55760203660031901126101a557600435610e7a611400565b6113888111610eba577f528d9479e9f9889a87a3c30c7f7ba537e5e59c4c85a37733b16e57c62df6130260406006548151908152836020820152a1600655005b60405163cd4e616760e01b8152600490fd5b346101a55760203660031901126101a557610ee56113ea565b610eed611400565b6001600160a01b03908116908115908115610f6b575b50610f5a57806001600160601b0360a01b60035416176003556202a300420180421161041b576020817f29de7ba5cd5ca8e6f6a34f38a4b954ecabe1538ae30bb80e43569719b04a111e92600455604051908152a2005b6040516231010160e51b8152600490fd5b90507f000000000000000000000000000000000000000000000000000000000000000016811482610f03565b346101a55760003660031901126101a557610fb0611400565b6003546001600160a01b03808216918215611031576004548042106110195750600254906001600160601b0360a01b908482841617600255166003556000600455167ffdef5fa97f9834c3ce5c25f08d33b4e5a200f1055bc73fa7b69cc974c47b7b34600080a3005b602490604051906350ba9f2960e01b82526004820152fd5b6040516322fc91fd60e21b8152600490fd5b346101a55760003660031901126101a55761105c611400565b6003546001600160a01b0381168015611031577f075237797d8ac452994d7896e187caf611428526b127868f65e5e3b0b721a370600080a26001600160a01b0319166003556000600455005b346101a55760003660031901126101a5576005546040516001600160a01b039091168152602090f35b346101a55760403660031901126101a55760043567ffffffffffffffff81116101a5576111029036906004016113b9565b9060243567ffffffffffffffff81116101a5576111239036906004016113b9565b90938184036113855750611136836114dc565b936111446040519586611472565b838552601f19611153856114dc565b013660208701376002546001600160a01b031660005b8581106111b6578660405180916020820160208352815180915260206040840192019060005b81811061119d575050500390f35b825184528594506020938401939092019160010161118f565b6112689060006040516111c881611456565b6003815260603660208301376111e76111e2848b8b611ab4565b6114a3565b6111f0826114f4565b6001600160a01b0391821690527f00000000000000000000000000000000000000000000000000000000000000001661122882611517565b528461123382611527565b5261123f838888611ab4565b35604051948592839263d06ca61f60e01b8452600484015260406024840152604483019061154b565b03817f00000000000000000000000000000000000000000000000000000000000000006001600160a01b03165afa806000916112d4575b6112bb93506112c0575060006112b5828a611537565b52611494565b611169565b6112c990611527565b516112b5828a611537565b919290503d806000833e6112e88183611472565b60208282810103126101a55781519167ffffffffffffffff83116101a557818101601f8483010112156101a5578281015190611323826114dc565b936113316040519586611472565b8285526020850193820160208460051b8385010101116101a557602081830101935b60208460051b83850101018510611375575050505050906112bb92919061129f565b8451815260209485019401611353565b62461bcd60e51b815260206004820152600f60248201526e098cadccee8d040dad2e6dac2e8c6d608b1b6044820152606490fd5b9181601f840112156101a55782359167ffffffffffffffff83116101a5576020808501948460051b0101116101a557565b600435906001600160a01b03821682036101a557565b6000546001600160a01b0316330361141457565b60405163118cdaa760e01b8152336004820152602490fd5b67ffffffffffffffff811161144057604052565b634e487b7160e01b600052604160045260246000fd5b6080810190811067ffffffffffffffff82111761144057604052565b90601f8019910116810190811067ffffffffffffffff82111761144057604052565b600019811461041b5760010190565b356001600160a01b03811681036101a55790565b9190820391821161041b57565b908160209103126101a5575180151581036101a55790565b67ffffffffffffffff81116114405760051b60200190565b8051156115015760200190565b634e487b7160e01b600052603260045260246000fd5b8051600110156115015760400190565b8051600210156115015760600190565b80518210156115015760209160051b010190565b90815180825260208080930193019160005b82811061156b575050505090565b83516001600160a01b03168552938101939281019260010161155d565b91926080936115ad92979695978452602084015260a0604084015260a083019061154b565b6001600160a01b0390951660608201520152565b6040805163095ea7b360e01b81526001600160a01b037f0000000000000000000000000000000000000000000000000000000000000000811660048301526024820185905297989760009792969316949192906020816044818b8a5af18015611aaa57611a8b575b5085519867ffffffffffffffff9260e08b018481118c821017611a77579062ffffff918952878c5260018060a01b037f00000000000000000000000000000000000000000000000000000000000000001660208d015216878b01523060608b01528460808b01528760a08b01528760c08b01528651996304e45aaf60e01b8b5260018060a01b0381511660048c015260018060a01b0360208201511660248c015262ffffff888201511660448c015260018060a01b0360608201511660648c0152608081015160848c015260a081015160a48c015260c060018060a01b039101511660c48b015260208a60e4818b60018060a01b037f0000000000000000000000000000000000000000000000000000000000000000165af1808991611a3c575b899a9b50156000146117b9575050855163a9059cbb60e01b81523360048201526024810194909452509194602093869350604492508391905af19081156117b05750611794575090565b6117ac9060203d602011610391576103838183611472565b5090565b513d84823e3d90fd5b9296955092965092508015611a3357835163095ea7b360e01b81527f00000000000000000000000000000000000000000000000000000000000000006001600160a01b0316600482018190526024820183905290602081806044810103818c7f00000000000000000000000000000000000000000000000000000000000000006001600160a01b03165af18015611a2957611a0a575b5084519560608701908111878210176119f657855260028652843660208801377f00000000000000000000000000000000000000000000000000000000000000006001600160a01b03166118a2876114f4565b526118ac86611517565b6001600160a01b039097169687905284516370a0823160e01b808252306004830152909690946020886024818c5afa9788156119ec578a986119b8575b50823b156119b457908980949392611918895197889687958694635c11d79560e01b8652309260048701611588565b03925af190816119a1575b5061192f575050505090565b60209060248394959693518097819382523060048301525afa918215611997575090611963575b61196092506114b7565b90565b506020823d60201161198f575b8161197d60209383611472565b810103126101a5576119609151611956565b3d9150611970565b51903d90823e3d90fd5b6119ad9096919661142c565b9438611923565b8980fd5b9097506020813d6020116119e4575b816119d460209383611472565b810103126119b4575196386118e9565b3d91506119c7565b87513d8c823e3d90fd5b634e487b7160e01b89526041600452602489fd5b611a229060203d602011610391576103838183611472565b503861184f565b86513d8b823e3d90fd5b50505050505090565b905060208b3d602011611a6f575b81611a5760209383611472565b81010312611a6b57995198998a999061174a565b8880fd5b3d9150611a4a565b634e487b7160e01b8a52604160045260248afd5b611aa39060203d602011610391576103838183611472565b5038611629565b87513d8a823e3d90fd5b91908110156115015760051b0190565b8115611ba4576001600160a01b0390811680611b42575060008080809481948254165af1903d15611b3c573d9067ffffffffffffffff8211611b285760405191611b18601f8201601f191660200184611472565b825260203d92013e5b1561035757565b634e487b7160e01b81526041600452602490fd5b50611b21565b6000805460405163a9059cbb60e01b815293166001600160a01b031660048401526024830193909352909160209183918290816044810103925af1801561039857611b8a5750565b611ba19060203d8111610391576103838183611472565b50565b505056fea264697066735822122050150bdbf632f3613deaa54d4f84be9c82d1030da217ba3caf48b23ff0ab428c64736f6c63430008140033","opcodes":"PUSH1 0xE0 PUSH1 0x40 SWAP1 DUP1 DUP3 MSTORE CALLVALUE PUSH3 0x2A5 JUMPI PUSH1 0xA0 DUP2 PUSH3 0x1ED8 DUP1 CODESIZE SUB DUP1 SWAP2 PUSH3 0x25 DUP3 DUP6 PUSH3 0x2AA JUMP JUMPDEST DUP4 CODECOPY DUP2 ADD SUB SLT PUSH3 0x2A5 JUMPI PUSH3 0x3B DUP2 PUSH3 0x2E4 JUMP JUMPDEST SWAP1 PUSH3 0x4A PUSH1 0x20 DUP3 ADD PUSH3 0x2E4 JUMP JUMPDEST SWAP1 PUSH3 0x58 DUP5 DUP3 ADD PUSH3 0x2E4 JUMP JUMPDEST SWAP3 PUSH1 0x80 PUSH3 0x69 PUSH1 0x60 DUP5 ADD PUSH3 0x2E4 JUMP JUMPDEST SWAP3 ADD MLOAD SWAP4 CALLER ISZERO PUSH3 0x28D JUMPI PUSH1 0x0 DUP1 SLOAD CALLER PUSH1 0x1 PUSH1 0x1 PUSH1 0xA0 SHL SUB NOT DUP1 DUP4 AND DUP3 OR DUP5 SSTORE DUP10 MLOAD SWAP1 SWAP7 PUSH1 0x1 PUSH1 0x1 PUSH1 0xA0 SHL SUB SWAP7 SWAP5 SWAP6 SWAP5 SWAP2 SWAP4 SWAP1 SWAP3 DUP8 SWAP3 SWAP2 DUP4 AND PUSH32 0x8BE0079C531659141344CD1FD0A4F28419497F9722A3DAAFE3B4186F6B6457E0 DUP9 DUP1 LOG3 PUSH1 0x1 DUP1 SSTORE AND SWAP2 DUP3 ISZERO DUP1 ISZERO PUSH3 0x282 JUMPI JUMPDEST PUSH3 0x273 JUMPI POP DUP5 AND SWAP6 DUP7 ISZERO PUSH3 0x262 JUMPI PUSH2 0x1388 DUP9 GT PUSH3 0x251 JUMPI DUP2 DUP6 PUSH1 0x20 SWAP3 PUSH1 0x4 SWAP5 PUSH1 0x80 MSTORE AND PUSH1 0xA0 MSTORE DUP10 MLOAD SWAP3 DUP4 DUP1 SWAP3 PUSH4 0x15AB88C9 PUSH1 0xE3 SHL DUP3 MSTORE GAS STATICCALL SWAP3 DUP4 ISZERO PUSH3 0x246 JUMPI SWAP1 DUP2 DUP6 SWAP4 SWAP3 SWAP5 PUSH3 0x1FB JUMPI JUMPDEST POP POP DUP3 PUSH1 0xC0 MSTORE AND SWAP2 DUP3 ISZERO SWAP2 DUP3 ISZERO PUSH3 0x1EE JUMPI JUMPDEST POP POP PUSH3 0x1DE JUMPI DUP2 PUSH1 0x2 SLOAD AND OR PUSH1 0x2 SSTORE PUSH1 0x5 SLOAD AND OR PUSH1 0x5 SSTORE PUSH1 0x6 SSTORE MLOAD PUSH2 0x1BDE SWAP1 DUP2 PUSH3 0x2FA DUP3 CODECOPY PUSH1 0x80 MLOAD DUP2 DUP2 DUP2 PUSH2 0x5D2 ADD MSTORE DUP2 DUP2 PUSH2 0x6A7 ADD MSTORE DUP2 DUP2 PUSH2 0x70E ADD MSTORE DUP2 DUP2 PUSH2 0xC90 ADD MSTORE DUP2 DUP2 PUSH2 0x126C ADD MSTORE PUSH2 0x17D6 ADD MSTORE PUSH1 0xA0 MLOAD DUP2 DUP2 DUP2 PUSH2 0xC2E ADD MSTORE DUP2 DUP2 PUSH2 0x15D9 ADD MSTORE PUSH2 0x1720 ADD MSTORE PUSH1 0xC0 MLOAD DUP2 DUP2 DUP2 PUSH2 0x643 ADD MSTORE DUP2 DUP2 PUSH2 0xADF ADD MSTORE DUP2 DUP2 PUSH2 0xD71 ADD MSTORE DUP2 DUP2 PUSH2 0xF6F ADD MSTORE DUP2 DUP2 PUSH2 0x11FF ADD MSTORE DUP2 DUP2 PUSH2 0x165A ADD MSTORE DUP2 DUP2 PUSH2 0x181A ADD MSTORE PUSH2 0x1871 ADD MSTORE RETURN JUMPDEST DUP5 MLOAD PUSH3 0x310101 PUSH1 0xE5 SHL DUP2 MSTORE PUSH1 0x4 SWAP1 REVERT JUMPDEST AND DUP3 EQ SWAP1 POP CODESIZE DUP1 PUSH3 0x138 JUMP JUMPDEST SWAP2 SWAP4 POP SWAP2 POP PUSH1 0x20 DUP3 RETURNDATASIZE DUP3 GT PUSH3 0x23D JUMPI JUMPDEST DUP2 PUSH3 0x21B PUSH1 0x20 SWAP4 DUP4 PUSH3 0x2AA JUMP JUMPDEST DUP2 ADD SUB SLT PUSH3 0x23A JUMPI POP PUSH3 0x231 DUP4 SWAP2 PUSH3 0x2E4 JUMP JUMPDEST SWAP2 CODESIZE DUP1 PUSH3 0x125 JUMP JUMPDEST DUP1 REVERT JUMPDEST RETURNDATASIZE SWAP2 POP PUSH3 0x20C JUMP JUMPDEST DUP9 MLOAD SWAP1 RETURNDATASIZE SWAP1 DUP3 RETURNDATACOPY RETURNDATASIZE SWAP1 REVERT JUMPDEST DUP9 MLOAD PUSH4 0xCD4E6167 PUSH1 0xE0 SHL DUP2 MSTORE PUSH1 0x4 SWAP1 REVERT JUMPDEST DUP9 MLOAD PUSH4 0xED1B8B3 PUSH1 0xE3 SHL DUP2 MSTORE PUSH1 0x4 SWAP1 REVERT JUMPDEST PUSH4 0x466D7FEF PUSH1 0xE0 SHL DUP2 MSTORE PUSH1 0x4 SWAP1 REVERT JUMPDEST POP DUP6 DUP9 AND ISZERO PUSH3 0xD6 JUMP JUMPDEST DUP6 MLOAD PUSH4 0x1E4FBDF7 PUSH1 0xE0 SHL DUP2 MSTORE PUSH1 0x0 PUSH1 0x4 DUP3 ADD MSTORE PUSH1 0x24 SWAP1 REVERT JUMPDEST PUSH1 0x0 DUP1 REVERT JUMPDEST PUSH1 0x1F SWAP1 SWAP2 ADD PUSH1 0x1F NOT AND DUP2 ADD SWAP1 PUSH1 0x1 PUSH1 0x1 PUSH1 0x40 SHL SUB DUP3 GT SWAP1 DUP3 LT OR PUSH3 0x2CE JUMPI PUSH1 0x40 MSTORE JUMP JUMPDEST PUSH4 0x4E487B71 PUSH1 0xE0 SHL PUSH1 0x0 MSTORE PUSH1 0x41 PUSH1 0x4 MSTORE PUSH1 0x24 PUSH1 0x0 REVERT JUMPDEST MLOAD SWAP1 PUSH1 0x1 PUSH1 0x1 PUSH1 0xA0 SHL SUB DUP3 AND DUP3 SUB PUSH3 0x2A5 JUMPI JUMP INVALID PUSH1 0x80 DUP1 PUSH1 0x40 MSTORE PUSH1 0x4 CALLDATASIZE LT ISZERO PUSH2 0x1D JUMPI JUMPDEST POP CALLDATASIZE ISZERO PUSH2 0x1B JUMPI PUSH1 0x0 DUP1 REVERT JUMPDEST STOP JUMPDEST PUSH1 0x0 CALLDATALOAD PUSH1 0xE0 SHR SWAP1 DUP2 PUSH4 0x273EFEE0 EQ PUSH2 0x10D1 JUMPI POP DUP1 PUSH4 0x46904840 EQ PUSH2 0x10A8 JUMPI DUP1 PUSH4 0x49FCF0E4 EQ PUSH2 0x1043 JUMPI DUP1 PUSH4 0x50FD70C4 EQ PUSH2 0xF97 JUMPI DUP1 PUSH4 0x6078AF92 EQ PUSH2 0xECC JUMPI DUP1 PUSH4 0x69FE0E2D EQ PUSH2 0xE5E JUMPI DUP1 PUSH4 0x6A19C9C7 EQ PUSH2 0xE40 JUMPI DUP1 PUSH4 0x715018A6 EQ PUSH2 0xDE7 JUMPI DUP1 PUSH4 0x8ABDF5AA EQ PUSH2 0xDC9 JUMPI DUP1 PUSH4 0x8DA5CB5B EQ PUSH2 0xDA0 JUMPI DUP1 PUSH4 0x8DD95002 EQ PUSH2 0xD5B JUMPI DUP1 PUSH4 0x901A5402 EQ PUSH2 0xD32 JUMPI DUP1 PUSH4 0x95CCEA67 EQ PUSH2 0xD05 JUMPI DUP1 PUSH4 0xBC063E1A EQ PUSH2 0xCE8 JUMPI DUP1 PUSH4 0xC1D8D1D9 EQ PUSH2 0xCBF JUMPI DUP1 PUSH4 0xD20CCDC2 EQ PUSH2 0xC7A JUMPI DUP1 PUSH4 0xD73792A9 EQ PUSH2 0xC5D JUMPI DUP1 PUSH4 0xE47AAF6D EQ PUSH2 0xC18 JUMPI DUP1 PUSH4 0xE74B981B EQ PUSH2 0xB97 JUMPI DUP1 PUSH4 0xED56DAC9 EQ PUSH2 0xB79 JUMPI DUP1 PUSH4 0xF1AE159C EQ PUSH2 0x1AA JUMPI PUSH4 0xF2FDE38B EQ PUSH2 0x11C JUMPI CODESIZE PUSH2 0xF JUMP JUMPDEST CALLVALUE PUSH2 0x1A5 JUMPI PUSH1 0x20 CALLDATASIZE PUSH1 0x3 NOT ADD SLT PUSH2 0x1A5 JUMPI PUSH2 0x135 PUSH2 0x13EA JUMP JUMPDEST PUSH2 0x13D PUSH2 0x1400 JUMP JUMPDEST PUSH1 0x1 PUSH1 0x1 PUSH1 0xA0 SHL SUB SWAP1 DUP2 AND SWAP1 DUP2 ISZERO PUSH2 0x18C JUMPI PUSH1 0x0 SLOAD DUP3 PUSH1 0x1 PUSH1 0x1 PUSH1 0x60 SHL SUB PUSH1 0xA0 SHL DUP3 AND OR PUSH1 0x0 SSTORE AND PUSH32 0x8BE0079C531659141344CD1FD0A4F28419497F9722A3DAAFE3B4186F6B6457E0 PUSH1 0x0 DUP1 LOG3 STOP JUMPDEST PUSH1 0x40 MLOAD PUSH4 0x1E4FBDF7 PUSH1 0xE0 SHL DUP2 MSTORE PUSH1 0x0 PUSH1 0x4 DUP3 ADD MSTORE PUSH1 0x24 SWAP1 REVERT JUMPDEST PUSH1 0x0 DUP1 REVERT JUMPDEST CALLVALUE PUSH2 0x1A5 JUMPI PUSH1 0x40 CALLDATASIZE PUSH1 0x3 NOT ADD SLT PUSH2 0x1A5 JUMPI PUSH8 0xFFFFFFFFFFFFFFFF DUP1 PUSH1 0x4 CALLDATALOAD GT PUSH2 0x1A5 JUMPI CALLDATASIZE PUSH1 0x23 PUSH1 0x4 CALLDATALOAD ADD SLT ISZERO PUSH2 0x1A5 JUMPI PUSH1 0x4 CALLDATALOAD PUSH1 0x4 ADD CALLDATALOAD GT PUSH2 0x1A5 JUMPI CALLDATASIZE PUSH1 0x24 PUSH2 0x120 PUSH1 0x4 CALLDATALOAD PUSH1 0x4 ADD CALLDATALOAD MUL PUSH1 0x4 CALLDATALOAD ADD ADD GT PUSH2 0x1A5 JUMPI PUSH1 0x2 PUSH1 0x1 SLOAD EQ PUSH2 0xB67 JUMPI PUSH1 0x2 PUSH1 0x1 SSTORE PUSH1 0x24 CALLDATALOAD TIMESTAMP GT PUSH2 0xB55 JUMPI PUSH1 0x4 CALLDATALOAD PUSH1 0x4 ADD CALLDATALOAD ISZERO PUSH2 0xB43 JUMPI PUSH1 0x2 SLOAD PUSH1 0x40 MLOAD PUSH4 0x70A08231 PUSH1 0xE0 SHL DUP2 MSTORE ADDRESS PUSH1 0x4 DUP3 ADD MSTORE PUSH1 0x1 PUSH1 0x1 PUSH1 0xA0 SHL SUB SWAP1 SWAP2 AND SWAP1 PUSH1 0x20 DUP2 PUSH1 0x24 DUP2 DUP6 GAS STATICCALL SWAP1 DUP2 ISZERO PUSH2 0x398 JUMPI PUSH1 0x0 SWAP2 PUSH2 0xB11 JUMPI JUMPDEST POP PUSH1 0x0 SWAP1 PUSH1 0x0 JUMPDEST PUSH1 0x4 CALLDATALOAD PUSH1 0x4 ADD CALLDATALOAD DUP2 LT PUSH2 0x477 JUMPI POP PUSH1 0x40 MLOAD PUSH4 0x70A08231 PUSH1 0xE0 SHL DUP2 MSTORE ADDRESS PUSH1 0x4 DUP3 ADD MSTORE SWAP1 PUSH1 0x20 DUP3 PUSH1 0x24 DUP2 DUP8 GAS STATICCALL DUP1 ISZERO PUSH2 0x398 JUMPI PUSH1 0x0 SWAP1 PUSH2 0x443 JUMPI JUMPDEST PUSH2 0x2A6 SWAP3 POP PUSH2 0x14B7 JUMP JUMPDEST SWAP2 DUP3 ISZERO PUSH2 0x431 JUMPI PUSH1 0x6 SLOAD DUP1 DUP5 MUL SWAP1 DUP5 DUP3 DIV SUB PUSH2 0x41B JUMPI PUSH2 0x2710 SWAP1 DIV SWAP2 PUSH2 0x2CC DUP4 DUP6 PUSH2 0x14B7 JUMP JUMPDEST SWAP3 DUP1 PUSH2 0x3A4 JUMPI JUMPDEST PUSH1 0x40 MLOAD PUSH4 0xA9059CBB PUSH1 0xE0 SHL DUP2 MSTORE CALLER PUSH1 0x4 DUP3 ADD MSTORE PUSH1 0x24 DUP2 ADD DUP6 SWAP1 MSTORE PUSH1 0x20 DUP2 PUSH1 0x44 DUP2 PUSH1 0x0 DUP9 GAS CALL SWAP1 DUP2 ISZERO PUSH2 0x398 JUMPI PUSH1 0x0 SWAP2 PUSH2 0x369 JUMPI JUMPDEST POP ISZERO PUSH2 0x357 JUMPI PUSH1 0x20 SWAP5 PUSH1 0x40 MLOAD SWAP3 DUP4 MSTORE DUP6 DUP4 ADD MSTORE PUSH1 0x40 DUP3 ADD MSTORE DUP3 PUSH1 0x60 DUP3 ADD MSTORE PUSH32 0xC5F91541570EE410396E78FFF4D3EF181D35EC6E43CC346F958F4FE06B56C472 PUSH1 0x80 CALLER SWAP3 LOG3 PUSH1 0x1 DUP1 SSTORE PUSH1 0x40 MLOAD SWAP1 DUP2 MSTORE RETURN JUMPDEST PUSH1 0x40 MLOAD PUSH4 0x12171D83 PUSH1 0xE3 SHL DUP2 MSTORE PUSH1 0x4 SWAP1 REVERT JUMPDEST PUSH2 0x38B SWAP2 POP PUSH1 0x20 RETURNDATASIZE PUSH1 0x20 GT PUSH2 0x391 JUMPI JUMPDEST PUSH2 0x383 DUP2 DUP4 PUSH2 0x1472 JUMP JUMPDEST DUP2 ADD SWAP1 PUSH2 0x14C4 JUMP JUMPDEST DUP7 PUSH2 0x307 JUMP JUMPDEST POP RETURNDATASIZE PUSH2 0x379 JUMP JUMPDEST PUSH1 0x40 MLOAD RETURNDATASIZE PUSH1 0x0 DUP3 RETURNDATACOPY RETURNDATASIZE SWAP1 REVERT JUMPDEST PUSH1 0x5 SLOAD PUSH1 0x40 MLOAD PUSH4 0xA9059CBB PUSH1 0xE0 SHL DUP2 MSTORE PUSH1 0x1 PUSH1 0x1 PUSH1 0xA0 SHL SUB SWAP1 SWAP2 AND PUSH1 0x4 DUP3 ADD MSTORE PUSH1 0x24 DUP2 ADD DUP3 SWAP1 MSTORE PUSH1 0x20 DUP2 PUSH1 0x44 DUP2 PUSH1 0x0 DUP9 GAS CALL SWAP1 DUP2 ISZERO PUSH2 0x398 JUMPI PUSH1 0x0 SWAP2 PUSH2 0x3FC JUMPI JUMPDEST POP PUSH2 0x2D3 JUMPI PUSH1 0x40 MLOAD PUSH4 0x12171D83 PUSH1 0xE3 SHL DUP2 MSTORE PUSH1 0x4 SWAP1 REVERT JUMPDEST PUSH2 0x415 SWAP2 POP PUSH1 0x20 RETURNDATASIZE PUSH1 0x20 GT PUSH2 0x391 JUMPI PUSH2 0x383 DUP2 DUP4 PUSH2 0x1472 JUMP JUMPDEST DUP7 PUSH2 0x3E5 JUMP JUMPDEST PUSH4 0x4E487B71 PUSH1 0xE0 SHL PUSH1 0x0 MSTORE PUSH1 0x11 PUSH1 0x4 MSTORE PUSH1 0x24 PUSH1 0x0 REVERT JUMPDEST PUSH1 0x40 MLOAD PUSH4 0xBB2875C3 PUSH1 0xE0 SHL DUP2 MSTORE PUSH1 0x4 SWAP1 REVERT JUMPDEST POP PUSH1 0x20 DUP3 RETURNDATASIZE PUSH1 0x20 GT PUSH2 0x46F JUMPI JUMPDEST DUP2 PUSH2 0x45D PUSH1 0x20 SWAP4 DUP4 PUSH2 0x1472 JUMP JUMPDEST DUP2 ADD SUB SLT PUSH2 0x1A5 JUMPI PUSH2 0x2A6 SWAP2 MLOAD PUSH2 0x29C JUMP JUMPDEST RETURNDATASIZE SWAP2 POP PUSH2 0x450 JUMP JUMPDEST PUSH1 0x1 PUSH1 0x1 PUSH1 0xA0 SHL SUB PUSH2 0x493 PUSH1 0x4 CALLDATALOAD PUSH2 0x120 DUP5 MUL ADD PUSH1 0x24 ADD PUSH2 0x14A3 JUMP JUMPDEST AND ISZERO DUP1 ISZERO PUSH2 0xAC8 JUMPI JUMPDEST DUP1 ISZERO PUSH2 0xAA3 JUMPI JUMPDEST PUSH2 0xA91 JUMPI PUSH1 0x44 PUSH2 0x120 DUP3 MUL PUSH1 0x4 CALLDATALOAD ADD ADD CALLDATALOAD ISZERO PUSH2 0x78C JUMPI PUSH1 0xC4 PUSH2 0x120 DUP3 MUL PUSH1 0x4 CALLDATALOAD ADD ADD CALLDATALOAD PUSH2 0x9D2 JUMPI JUMPDEST PUSH1 0x1 PUSH1 0x1 PUSH1 0xA0 SHL SUB PUSH2 0x4E7 PUSH1 0x4 CALLDATALOAD PUSH2 0x120 DUP5 MUL ADD PUSH1 0x24 ADD PUSH2 0x14A3 JUMP JUMPDEST AND PUSH1 0x40 MLOAD PUSH4 0x70A08231 PUSH1 0xE0 SHL DUP2 MSTORE ADDRESS PUSH1 0x4 DUP3 ADD MSTORE PUSH1 0x20 DUP2 PUSH1 0x24 DUP2 DUP6 GAS STATICCALL SWAP1 DUP2 ISZERO PUSH2 0x398 JUMPI PUSH1 0x0 SWAP2 PUSH2 0x9A0 JUMPI JUMPDEST POP PUSH1 0x40 MLOAD PUSH4 0x23B872DD PUSH1 0xE0 SHL DUP2 MSTORE CALLER PUSH1 0x4 DUP3 ADD MSTORE ADDRESS PUSH1 0x24 DUP3 ADD MSTORE PUSH1 0x44 PUSH2 0x120 DUP6 MUL PUSH1 0x4 CALLDATALOAD ADD ADD CALLDATALOAD PUSH1 0x44 DUP3 ADD MSTORE PUSH1 0x20 DUP2 PUSH1 0x64 DUP2 PUSH1 0x0 DUP8 GAS CALL SWAP1 DUP2 ISZERO PUSH2 0x398 JUMPI PUSH1 0x0 SWAP2 PUSH2 0x981 JUMPI JUMPDEST POP ISZERO PUSH2 0x357 JUMPI PUSH1 0x40 MLOAD PUSH4 0x70A08231 PUSH1 0xE0 SHL DUP2 MSTORE ADDRESS PUSH1 0x4 DUP3 ADD MSTORE SWAP1 PUSH1 0x20 DUP3 PUSH1 0x24 DUP2 DUP7 GAS STATICCALL DUP1 ISZERO PUSH2 0x398 JUMPI PUSH1 0x0 SWAP1 PUSH2 0x94D JUMPI JUMPDEST PUSH2 0x594 SWAP3 POP PUSH2 0x14B7 JUMP JUMPDEST SWAP1 PUSH1 0x2 PUSH1 0x84 PUSH2 0x120 DUP6 MUL PUSH1 0x4 CALLDATALOAD ADD ADD CALLDATALOAD LT ISZERO PUSH2 0x1A5 JUMPI PUSH1 0x4 CALLDATALOAD PUSH2 0x120 DUP5 MUL ADD PUSH1 0x84 ADD CALLDATALOAD PUSH2 0x907 JUMPI PUSH1 0x40 MLOAD PUSH4 0x95EA7B3 PUSH1 0xE0 SHL DUP2 MSTORE PUSH1 0x1 PUSH1 0x1 PUSH1 0xA0 SHL SUB PUSH32 0x0 AND PUSH1 0x4 DUP3 ADD MSTORE PUSH1 0x24 DUP2 ADD DUP4 SWAP1 MSTORE PUSH1 0x20 DUP2 PUSH1 0x44 DUP2 PUSH1 0x0 DUP7 GAS CALL DUP1 ISZERO PUSH2 0x398 JUMPI PUSH2 0x8E8 JUMPI JUMPDEST POP PUSH1 0x40 MLOAD PUSH2 0x621 DUP2 PUSH2 0x1456 JUMP JUMPDEST PUSH1 0x3 DUP2 MSTORE PUSH1 0x60 CALLDATASIZE PUSH1 0x20 DUP4 ADD CALLDATACOPY DUP2 PUSH2 0x637 DUP3 PUSH2 0x14F4 JUMP JUMPDEST MSTORE PUSH2 0x641 DUP2 PUSH2 0x1517 JUMP JUMPDEST PUSH32 0x0 PUSH1 0x1 PUSH1 0x1 PUSH1 0xA0 SHL SUB AND SWAP1 MSTORE DUP7 PUSH2 0x677 DUP3 PUSH2 0x1527 JUMP JUMPDEST MSTORE PUSH1 0x40 MLOAD PUSH4 0x70A08231 PUSH1 0xE0 SHL DUP2 MSTORE ADDRESS PUSH1 0x4 DUP3 ADD MSTORE SWAP1 PUSH1 0x20 DUP3 PUSH1 0x24 DUP2 DUP12 GAS STATICCALL SWAP2 DUP3 ISZERO PUSH2 0x398 JUMPI PUSH1 0x0 SWAP3 PUSH2 0x8B4 JUMPI JUMPDEST POP PUSH32 0x0 PUSH1 0x1 PUSH1 0x1 PUSH1 0xA0 SHL SUB AND EXTCODESIZE ISZERO PUSH2 0x1A5 JUMPI PUSH1 0x0 PUSH2 0x709 SWAP2 PUSH1 0x40 MLOAD DUP1 SWAP4 DUP2 SWAP3 PUSH4 0x5C11D795 PUSH1 0xE0 SHL DUP4 MSTORE PUSH1 0x24 CALLDATALOAD SWAP1 ADDRESS SWAP1 PUSH1 0x64 PUSH2 0x120 DUP14 MUL PUSH1 0x4 CALLDATALOAD ADD ADD CALLDATALOAD DUP12 PUSH1 0x4 DUP8 ADD PUSH2 0x1588 JUMP JUMPDEST SUB DUP2 DUP4 PUSH32 0x0 PUSH1 0x1 PUSH1 0x1 PUSH1 0xA0 SHL SUB AND GAS CALL SWAP1 DUP2 PUSH2 0x8A5 JUMPI JUMPDEST POP PUSH2 0x836 JUMPI POP PUSH1 0x40 MLOAD PUSH4 0xA9059CBB PUSH1 0xE0 SHL DUP2 MSTORE CALLER PUSH1 0x4 DUP3 ADD MSTORE PUSH1 0x24 DUP2 ADD DUP4 SWAP1 MSTORE SWAP1 PUSH1 0x20 SWAP1 DUP3 SWAP1 PUSH1 0x44 SWAP1 DUP3 SWAP1 PUSH1 0x0 SWAP1 GAS CALL DUP1 ISZERO PUSH2 0x398 JUMPI PUSH2 0x817 JUMPI JUMPDEST POP PUSH1 0x0 JUMPDEST SWAP1 JUMPDEST DUP2 PUSH2 0x7AF JUMPI JUMPDEST POP PUSH2 0x79A JUMPI JUMPDEST PUSH2 0x795 SWAP1 PUSH2 0x1494 JUMP JUMPDEST PUSH2 0x263 JUMP JUMPDEST SWAP2 PUSH2 0x7A7 PUSH2 0x795 SWAP2 PUSH2 0x1494 JUMP JUMPDEST SWAP3 SWAP1 POP PUSH2 0x78C JUMP JUMPDEST PUSH1 0x1 PUSH1 0x1 PUSH1 0xA0 SHL SUB PUSH2 0x7CB PUSH1 0x4 CALLDATALOAD PUSH2 0x120 DUP7 MUL ADD PUSH1 0x24 ADD PUSH2 0x14A3 JUMP JUMPDEST AND SWAP1 PUSH1 0x40 MLOAD SWAP1 DUP2 MSTORE DUP3 PUSH1 0x20 DUP3 ADD MSTORE PUSH1 0x84 PUSH2 0x120 DUP6 MUL PUSH1 0x4 CALLDATALOAD ADD ADD CALLDATALOAD PUSH1 0x40 DUP3 ADD MSTORE PUSH32 0xA2C87ABC3341789E0370A7BAABED4F58835304C2B16A29536744AD19FCFD2E84 PUSH1 0x60 CALLER SWAP3 LOG3 DUP6 PUSH2 0x786 JUMP JUMPDEST PUSH2 0x82F SWAP1 PUSH1 0x20 RETURNDATASIZE PUSH1 0x20 GT PUSH2 0x391 JUMPI PUSH2 0x383 DUP2 DUP4 PUSH2 0x1472 JUMP JUMPDEST POP DUP6 PUSH2 0x77A JUMP JUMPDEST PUSH1 0x40 MLOAD PUSH4 0x70A08231 PUSH1 0xE0 SHL DUP2 MSTORE ADDRESS PUSH1 0x4 DUP3 ADD MSTORE SWAP2 POP PUSH1 0x20 DUP3 PUSH1 0x24 DUP2 DUP11 GAS STATICCALL DUP1 ISZERO PUSH2 0x398 JUMPI PUSH1 0x0 SWAP1 PUSH2 0x871 JUMPI JUMPDEST PUSH2 0x86C SWAP3 POP PUSH2 0x14B7 JUMP JUMPDEST PUSH2 0x77E JUMP JUMPDEST POP PUSH1 0x20 DUP3 RETURNDATASIZE PUSH1 0x20 GT PUSH2 0x89D JUMPI JUMPDEST DUP2 PUSH2 0x88B PUSH1 0x20 SWAP4 DUP4 PUSH2 0x1472 JUMP JUMPDEST DUP2 ADD SUB SLT PUSH2 0x1A5 JUMPI PUSH2 0x86C SWAP2 MLOAD PUSH2 0x862 JUMP JUMPDEST RETURNDATASIZE SWAP2 POP PUSH2 0x87E JUMP JUMPDEST PUSH2 0x8AE SWAP1 PUSH2 0x142C JUMP JUMPDEST DUP9 PUSH2 0x73F JUMP JUMPDEST SWAP1 SWAP2 POP PUSH1 0x20 DUP2 RETURNDATASIZE PUSH1 0x20 GT PUSH2 0x8E0 JUMPI JUMPDEST DUP2 PUSH2 0x8D0 PUSH1 0x20 SWAP4 DUP4 PUSH2 0x1472 JUMP JUMPDEST DUP2 ADD SUB SLT PUSH2 0x1A5 JUMPI MLOAD SWAP1 DUP9 PUSH2 0x6A4 JUMP JUMPDEST RETURNDATASIZE SWAP2 POP PUSH2 0x8C3 JUMP JUMPDEST PUSH2 0x900 SWAP1 PUSH1 0x20 RETURNDATASIZE PUSH1 0x20 GT PUSH2 0x391 JUMPI PUSH2 0x383 DUP2 DUP4 PUSH2 0x1472 JUMP JUMPDEST POP DUP7 PUSH2 0x614 JUMP JUMPDEST PUSH1 0x4 CALLDATALOAD PUSH2 0x120 DUP5 MUL ADD PUSH1 0xA4 ADD CALLDATALOAD PUSH3 0xFFFFFF DUP2 AND SWAP1 SUB PUSH2 0x1A5 JUMPI PUSH2 0x947 SWAP1 PUSH1 0x24 CALLDATALOAD SWAP1 DUP8 SWAP1 PUSH1 0x4 CALLDATALOAD PUSH2 0x120 DUP8 MUL ADD PUSH1 0x64 DUP2 ADD CALLDATALOAD SWAP2 PUSH1 0xA4 SWAP1 SWAP2 ADD CALLDATALOAD SWAP1 DUP7 SWAP1 PUSH2 0x15C1 JUMP JUMPDEST SWAP1 PUSH2 0x780 JUMP JUMPDEST POP PUSH1 0x20 DUP3 RETURNDATASIZE PUSH1 0x20 GT PUSH2 0x979 JUMPI JUMPDEST DUP2 PUSH2 0x967 PUSH1 0x20 SWAP4 DUP4 PUSH2 0x1472 JUMP JUMPDEST DUP2 ADD SUB SLT PUSH2 0x1A5 JUMPI PUSH2 0x594 SWAP2 MLOAD PUSH2 0x58A JUMP JUMPDEST RETURNDATASIZE SWAP2 POP PUSH2 0x95A JUMP JUMPDEST PUSH2 0x99A SWAP2 POP PUSH1 0x20 RETURNDATASIZE PUSH1 0x20 GT PUSH2 0x391 JUMPI PUSH2 0x383 DUP2 DUP4 PUSH2 0x1472 JUMP JUMPDEST DUP8 PUSH2 0x559 JUMP JUMPDEST SWAP1 POP PUSH1 0x20 DUP2 RETURNDATASIZE PUSH1 0x20 GT PUSH2 0x9CA JUMPI JUMPDEST DUP2 PUSH2 0x9BB PUSH1 0x20 SWAP4 DUP4 PUSH2 0x1472 JUMP JUMPDEST DUP2 ADD SUB SLT PUSH2 0x1A5 JUMPI MLOAD DUP7 PUSH2 0x513 JUMP JUMPDEST RETURNDATASIZE SWAP2 POP PUSH2 0x9AE JUMP JUMPDEST PUSH1 0x1 PUSH1 0x1 PUSH1 0xA0 SHL SUB PUSH2 0x9EE PUSH1 0x4 CALLDATALOAD PUSH2 0x120 DUP5 MUL ADD PUSH1 0x24 ADD PUSH2 0x14A3 JUMP JUMPDEST AND PUSH1 0xE4 PUSH2 0x120 DUP4 MUL PUSH1 0x4 CALLDATALOAD ADD ADD CALLDATALOAD PUSH1 0xFF DUP2 AND DUP2 SUB PUSH2 0x1A5 JUMPI DUP2 EXTCODESIZE ISZERO PUSH2 0x1A5 JUMPI PUSH1 0x40 MLOAD PUSH4 0xD505ACCF PUSH1 0xE0 SHL DUP2 MSTORE CALLER PUSH1 0x4 DUP1 DUP4 ADD SWAP2 SWAP1 SWAP2 MSTORE ADDRESS PUSH1 0x24 DUP4 ADD MSTORE CALLDATALOAD PUSH2 0x120 DUP6 MUL ADD PUSH1 0x44 DUP2 DUP2 ADD CALLDATALOAD SWAP1 DUP4 ADD MSTORE PUSH1 0xC4 DUP1 DUP3 ADD CALLDATALOAD PUSH1 0x64 DUP5 ADD MSTORE PUSH1 0xFF SWAP4 SWAP1 SWAP4 AND PUSH1 0x84 DUP4 ADD MSTORE PUSH2 0x104 DUP2 ADD CALLDATALOAD PUSH1 0xA4 DUP4 ADD MSTORE PUSH2 0x124 ADD CALLDATALOAD SWAP2 DUP2 ADD SWAP2 SWAP1 SWAP2 MSTORE SWAP1 PUSH1 0x0 SWAP1 DUP3 SWAP1 PUSH1 0xE4 SWAP1 DUP3 SWAP1 DUP5 SWAP1 GAS CALL PUSH2 0xA82 JUMPI JUMPDEST POP PUSH2 0x4CB JUMP JUMPDEST PUSH2 0xA8B SWAP1 PUSH2 0x142C JUMP JUMPDEST DUP5 PUSH2 0xA7C JUMP JUMPDEST PUSH1 0x40 MLOAD PUSH4 0xC1AB6DC1 PUSH1 0xE0 SHL DUP2 MSTORE PUSH1 0x4 SWAP1 REVERT JUMPDEST POP DUP4 PUSH1 0x1 PUSH1 0x1 PUSH1 0xA0 SHL SUB PUSH2 0xAC1 PUSH1 0x4 CALLDATALOAD PUSH2 0x120 DUP6 MUL ADD PUSH1 0x24 ADD PUSH2 0x14A3 JUMP JUMPDEST AND EQ PUSH2 0x4A3 JUMP JUMPDEST POP PUSH2 0xADD PUSH1 0x24 PUSH2 0x120 DUP4 MUL PUSH1 0x4 CALLDATALOAD ADD ADD PUSH2 0x14A3 JUMP JUMPDEST PUSH32 0x0 PUSH1 0x1 PUSH1 0x1 PUSH1 0xA0 SHL SUB SWAP1 DUP2 AND SWAP2 AND EQ PUSH2 0x49C JUMP JUMPDEST SWAP1 POP PUSH1 0x20 DUP2 RETURNDATASIZE PUSH1 0x20 GT PUSH2 0xB3B JUMPI JUMPDEST DUP2 PUSH2 0xB2C PUSH1 0x20 SWAP4 DUP4 PUSH2 0x1472 JUMP JUMPDEST DUP2 ADD SUB SLT PUSH2 0x1A5 JUMPI MLOAD DUP3 PUSH2 0x25C JUMP JUMPDEST RETURNDATASIZE SWAP2 POP PUSH2 0xB1F JUMP JUMPDEST PUSH1 0x40 MLOAD PUSH4 0x86724C7F PUSH1 0xE0 SHL DUP2 MSTORE PUSH1 0x4 SWAP1 REVERT JUMPDEST PUSH1 0x40 MLOAD PUSH4 0x1AB7DA6B PUSH1 0xE0 SHL DUP2 MSTORE PUSH1 0x4 SWAP1 REVERT JUMPDEST PUSH1 0x40 MLOAD PUSH4 0x3EE5AEB5 PUSH1 0xE0 SHL DUP2 MSTORE PUSH1 0x4 SWAP1 REVERT JUMPDEST CALLVALUE PUSH2 0x1A5 JUMPI PUSH1 0x0 CALLDATASIZE PUSH1 0x3 NOT ADD SLT PUSH2 0x1A5 JUMPI PUSH1 0x20 PUSH1 0x40 MLOAD PUSH3 0x2A300 DUP2 MSTORE RETURN JUMPDEST CALLVALUE PUSH2 0x1A5 JUMPI PUSH1 0x20 CALLDATASIZE PUSH1 0x3 NOT ADD SLT PUSH2 0x1A5 JUMPI PUSH2 0xBB0 PUSH2 0x13EA JUMP JUMPDEST PUSH2 0xBB8 PUSH2 0x1400 JUMP JUMPDEST PUSH1 0x1 PUSH1 0x1 PUSH1 0xA0 SHL SUB SWAP1 DUP2 AND SWAP1 DUP2 ISZERO PUSH2 0xC06 JUMPI DUP2 PUSH1 0x5 SLOAD SWAP2 DUP3 AND PUSH32 0xAAEBCF1BFA00580E41D966056B48521FA9F202645C86D4DDF28113E617C1B1D3 PUSH1 0x0 DUP1 LOG3 PUSH1 0x1 PUSH1 0x1 PUSH1 0xA0 SHL SUB NOT AND OR PUSH1 0x5 SSTORE STOP JUMPDEST PUSH1 0x40 MLOAD PUSH4 0xED1B8B3 PUSH1 0xE3 SHL DUP2 MSTORE PUSH1 0x4 SWAP1 REVERT JUMPDEST CALLVALUE PUSH2 0x1A5 JUMPI PUSH1 0x0 CALLDATASIZE PUSH1 0x3 NOT ADD SLT PUSH2 0x1A5 JUMPI PUSH1 0x40 MLOAD PUSH32 0x0 PUSH1 0x1 PUSH1 0x1 PUSH1 0xA0 SHL SUB AND DUP2 MSTORE PUSH1 0x20 SWAP1 RETURN JUMPDEST CALLVALUE PUSH2 0x1A5 JUMPI PUSH1 0x0 CALLDATASIZE PUSH1 0x3 NOT ADD SLT PUSH2 0x1A5 JUMPI PUSH1 0x20 PUSH1 0x40 MLOAD PUSH2 0x2710 DUP2 MSTORE RETURN JUMPDEST CALLVALUE PUSH2 0x1A5 JUMPI PUSH1 0x0 CALLDATASIZE PUSH1 0x3 NOT ADD SLT PUSH2 0x1A5 JUMPI PUSH1 0x40 MLOAD PUSH32 0x0 PUSH1 0x1 PUSH1 0x1 PUSH1 0xA0 SHL SUB AND DUP2 MSTORE PUSH1 0x20 SWAP1 RETURN JUMPDEST CALLVALUE PUSH2 0x1A5 JUMPI PUSH1 0x0 CALLDATASIZE PUSH1 0x3 NOT ADD SLT PUSH2 0x1A5 JUMPI PUSH1 0x2 SLOAD PUSH1 0x40 MLOAD PUSH1 0x1 PUSH1 0x1 PUSH1 0xA0 SHL SUB SWAP1 SWAP2 AND DUP2 MSTORE PUSH1 0x20 SWAP1 RETURN JUMPDEST CALLVALUE PUSH2 0x1A5 JUMPI PUSH1 0x0 CALLDATASIZE PUSH1 0x3 NOT ADD SLT PUSH2 0x1A5 JUMPI PUSH1 0x20 PUSH1 0x40 MLOAD PUSH2 0x1388 DUP2 MSTORE RETURN JUMPDEST CALLVALUE PUSH2 0x1A5 JUMPI PUSH1 0x40 CALLDATASIZE PUSH1 0x3 NOT ADD SLT PUSH2 0x1A5 JUMPI PUSH2 0x1B PUSH2 0xD21 PUSH2 0x13EA JUMP JUMPDEST PUSH2 0xD29 PUSH2 0x1400 JUMP JUMPDEST PUSH1 0x24 CALLDATALOAD SWAP1 PUSH2 0x1AC4 JUMP JUMPDEST CALLVALUE PUSH2 0x1A5 JUMPI PUSH1 0x0 CALLDATASIZE PUSH1 0x3 NOT ADD SLT PUSH2 0x1A5 JUMPI PUSH1 0x3 SLOAD PUSH1 0x40 MLOAD PUSH1 0x1 PUSH1 0x1 PUSH1 0xA0 SHL SUB SWAP1 SWAP2 AND DUP2 MSTORE PUSH1 0x20 SWAP1 RETURN JUMPDEST CALLVALUE PUSH2 0x1A5 JUMPI PUSH1 0x0 CALLDATASIZE PUSH1 0x3 NOT ADD SLT PUSH2 0x1A5 JUMPI PUSH1 0x40 MLOAD PUSH32 0x0 PUSH1 0x1 PUSH1 0x1 PUSH1 0xA0 SHL SUB AND DUP2 MSTORE PUSH1 0x20 SWAP1 RETURN JUMPDEST CALLVALUE PUSH2 0x1A5 JUMPI PUSH1 0x0 CALLDATASIZE PUSH1 0x3 NOT ADD SLT PUSH2 0x1A5 JUMPI PUSH1 0x0 SLOAD PUSH1 0x40 MLOAD PUSH1 0x1 PUSH1 0x1 PUSH1 0xA0 SHL SUB SWAP1 SWAP2 AND DUP2 MSTORE PUSH1 0x20 SWAP1 RETURN JUMPDEST CALLVALUE PUSH2 0x1A5 JUMPI PUSH1 0x0 CALLDATASIZE PUSH1 0x3 NOT ADD SLT PUSH2 0x1A5 JUMPI PUSH1 0x20 PUSH1 0x6 SLOAD PUSH1 0x40 MLOAD SWAP1 DUP2 MSTORE RETURN JUMPDEST CALLVALUE PUSH2 0x1A5 JUMPI PUSH1 0x0 CALLDATASIZE PUSH1 0x3 NOT ADD SLT PUSH2 0x1A5 JUMPI PUSH2 0xE00 PUSH2 0x1400 JUMP JUMPDEST PUSH1 0x0 DUP1 SLOAD PUSH1 0x1 PUSH1 0x1 PUSH1 0xA0 SHL SUB NOT DUP2 AND DUP3 SSTORE PUSH1 0x1 PUSH1 0x1 PUSH1 0xA0 SHL SUB AND PUSH32 0x8BE0079C531659141344CD1FD0A4F28419497F9722A3DAAFE3B4186F6B6457E0 DUP3 DUP1 LOG3 STOP JUMPDEST CALLVALUE PUSH2 0x1A5 JUMPI PUSH1 0x0 CALLDATASIZE PUSH1 0x3 NOT ADD SLT PUSH2 0x1A5 JUMPI PUSH1 0x20 PUSH1 0x4 SLOAD PUSH1 0x40 MLOAD SWAP1 DUP2 MSTORE RETURN JUMPDEST CALLVALUE PUSH2 0x1A5 JUMPI PUSH1 0x20 CALLDATASIZE PUSH1 0x3 NOT ADD SLT PUSH2 0x1A5 JUMPI PUSH1 0x4 CALLDATALOAD PUSH2 0xE7A PUSH2 0x1400 JUMP JUMPDEST PUSH2 0x1388 DUP2 GT PUSH2 0xEBA JUMPI PUSH32 0x528D9479E9F9889A87A3C30C7F7BA537E5E59C4C85A37733B16E57C62DF61302 PUSH1 0x40 PUSH1 0x6 SLOAD DUP2 MLOAD SWAP1 DUP2 MSTORE DUP4 PUSH1 0x20 DUP3 ADD MSTORE LOG1 PUSH1 0x6 SSTORE STOP JUMPDEST PUSH1 0x40 MLOAD PUSH4 0xCD4E6167 PUSH1 0xE0 SHL DUP2 MSTORE PUSH1 0x4 SWAP1 REVERT JUMPDEST CALLVALUE PUSH2 0x1A5 JUMPI PUSH1 0x20 CALLDATASIZE PUSH1 0x3 NOT ADD SLT PUSH2 0x1A5 JUMPI PUSH2 0xEE5 PUSH2 0x13EA JUMP JUMPDEST PUSH2 0xEED PUSH2 0x1400 JUMP JUMPDEST PUSH1 0x1 PUSH1 0x1 PUSH1 0xA0 SHL SUB SWAP1 DUP2 AND SWAP1 DUP2 ISZERO SWAP1 DUP2 ISZERO PUSH2 0xF6B JUMPI JUMPDEST POP PUSH2 0xF5A JUMPI DUP1 PUSH1 0x1 PUSH1 0x1 PUSH1 0x60 SHL SUB PUSH1 0xA0 SHL PUSH1 0x3 SLOAD AND OR PUSH1 0x3 SSTORE PUSH3 0x2A300 TIMESTAMP ADD DUP1 TIMESTAMP GT PUSH2 0x41B JUMPI PUSH1 0x20 DUP2 PUSH32 0x29DE7BA5CD5CA8E6F6A34F38A4B954ECABE1538AE30BB80E43569719B04A111E SWAP3 PUSH1 0x4 SSTORE PUSH1 0x40 MLOAD SWAP1 DUP2 MSTORE LOG2 STOP JUMPDEST PUSH1 0x40 MLOAD PUSH3 0x310101 PUSH1 0xE5 SHL DUP2 MSTORE PUSH1 0x4 SWAP1 REVERT JUMPDEST SWAP1 POP PUSH32 0x0 AND DUP2 EQ DUP3 PUSH2 0xF03 JUMP JUMPDEST CALLVALUE PUSH2 0x1A5 JUMPI PUSH1 0x0 CALLDATASIZE PUSH1 0x3 NOT ADD SLT PUSH2 0x1A5 JUMPI PUSH2 0xFB0 PUSH2 0x1400 JUMP JUMPDEST PUSH1 0x3 SLOAD PUSH1 0x1 PUSH1 0x1 PUSH1 0xA0 SHL SUB DUP1 DUP3 AND SWAP2 DUP3 ISZERO PUSH2 0x1031 JUMPI PUSH1 0x4 SLOAD DUP1 TIMESTAMP LT PUSH2 0x1019 JUMPI POP PUSH1 0x2 SLOAD SWAP1 PUSH1 0x1 PUSH1 0x1 PUSH1 0x60 SHL SUB PUSH1 0xA0 SHL SWAP1 DUP5 DUP3 DUP5 AND OR PUSH1 0x2 SSTORE AND PUSH1 0x3 SSTORE PUSH1 0x0 PUSH1 0x4 SSTORE AND PUSH32 0xFDEF5FA97F9834C3CE5C25F08D33B4E5A200F1055BC73FA7B69CC974C47B7B34 PUSH1 0x0 DUP1 LOG3 STOP JUMPDEST PUSH1 0x24 SWAP1 PUSH1 0x40 MLOAD SWAP1 PUSH4 0x50BA9F29 PUSH1 0xE0 SHL DUP3 MSTORE PUSH1 0x4 DUP3 ADD MSTORE REVERT JUMPDEST PUSH1 0x40 MLOAD PUSH4 0x22FC91FD PUSH1 0xE2 SHL DUP2 MSTORE PUSH1 0x4 SWAP1 REVERT JUMPDEST CALLVALUE PUSH2 0x1A5 JUMPI PUSH1 0x0 CALLDATASIZE PUSH1 0x3 NOT ADD SLT PUSH2 0x1A5 JUMPI PUSH2 0x105C PUSH2 0x1400 JUMP JUMPDEST PUSH1 0x3 SLOAD PUSH1 0x1 PUSH1 0x1 PUSH1 0xA0 SHL SUB DUP2 AND DUP1 ISZERO PUSH2 0x1031 JUMPI PUSH32 0x75237797D8AC452994D7896E187CAF611428526B127868F65E5E3B0B721A370 PUSH1 0x0 DUP1 LOG2 PUSH1 0x1 PUSH1 0x1 PUSH1 0xA0 SHL SUB NOT AND PUSH1 0x3 SSTORE PUSH1 0x0 PUSH1 0x4 SSTORE STOP JUMPDEST CALLVALUE PUSH2 0x1A5 JUMPI PUSH1 0x0 CALLDATASIZE PUSH1 0x3 NOT ADD SLT PUSH2 0x1A5 JUMPI PUSH1 0x5 SLOAD PUSH1 0x40 MLOAD PUSH1 0x1 PUSH1 0x1 PUSH1 0xA0 SHL SUB SWAP1 SWAP2 AND DUP2 MSTORE PUSH1 0x20 SWAP1 RETURN JUMPDEST CALLVALUE PUSH2 0x1A5 JUMPI PUSH1 0x40 CALLDATASIZE PUSH1 0x3 NOT ADD SLT PUSH2 0x1A5 JUMPI PUSH1 0x4 CALLDATALOAD PUSH8 0xFFFFFFFFFFFFFFFF DUP2 GT PUSH2 0x1A5 JUMPI PUSH2 0x1102 SWAP1 CALLDATASIZE SWAP1 PUSH1 0x4 ADD PUSH2 0x13B9 JUMP JUMPDEST SWAP1 PUSH1 0x24 CALLDATALOAD PUSH8 0xFFFFFFFFFFFFFFFF DUP2 GT PUSH2 0x1A5 JUMPI PUSH2 0x1123 SWAP1 CALLDATASIZE SWAP1 PUSH1 0x4 ADD PUSH2 0x13B9 JUMP JUMPDEST SWAP1 SWAP4 DUP2 DUP5 SUB PUSH2 0x1385 JUMPI POP PUSH2 0x1136 DUP4 PUSH2 0x14DC JUMP JUMPDEST SWAP4 PUSH2 0x1144 PUSH1 0x40 MLOAD SWAP6 DUP7 PUSH2 0x1472 JUMP JUMPDEST DUP4 DUP6 MSTORE PUSH1 0x1F NOT PUSH2 0x1153 DUP6 PUSH2 0x14DC JUMP JUMPDEST ADD CALLDATASIZE PUSH1 0x20 DUP8 ADD CALLDATACOPY PUSH1 0x2 SLOAD PUSH1 0x1 PUSH1 0x1 PUSH1 0xA0 SHL SUB AND PUSH1 0x0 JUMPDEST DUP6 DUP2 LT PUSH2 0x11B6 JUMPI DUP7 PUSH1 0x40 MLOAD DUP1 SWAP2 PUSH1 0x20 DUP3 ADD PUSH1 0x20 DUP4 MSTORE DUP2 MLOAD DUP1 SWAP2 MSTORE PUSH1 0x20 PUSH1 0x40 DUP5 ADD SWAP3 ADD SWAP1 PUSH1 0x0 JUMPDEST DUP2 DUP2 LT PUSH2 0x119D JUMPI POP POP POP SUB SWAP1 RETURN JUMPDEST DUP3 MLOAD DUP5 MSTORE DUP6 SWAP5 POP PUSH1 0x20 SWAP4 DUP5 ADD SWAP4 SWAP1 SWAP3 ADD SWAP2 PUSH1 0x1 ADD PUSH2 0x118F JUMP JUMPDEST PUSH2 0x1268 SWAP1 PUSH1 0x0 PUSH1 0x40 MLOAD PUSH2 0x11C8 DUP2 PUSH2 0x1456 JUMP JUMPDEST PUSH1 0x3 DUP2 MSTORE PUSH1 0x60 CALLDATASIZE PUSH1 0x20 DUP4 ADD CALLDATACOPY PUSH2 0x11E7 PUSH2 0x11E2 DUP5 DUP12 DUP12 PUSH2 0x1AB4 JUMP JUMPDEST PUSH2 0x14A3 JUMP JUMPDEST PUSH2 0x11F0 DUP3 PUSH2 0x14F4 JUMP JUMPDEST PUSH1 0x1 PUSH1 0x1 PUSH1 0xA0 SHL SUB SWAP2 DUP3 AND SWAP1 MSTORE PUSH32 0x0 AND PUSH2 0x1228 DUP3 PUSH2 0x1517 JUMP JUMPDEST MSTORE DUP5 PUSH2 0x1233 DUP3 PUSH2 0x1527 JUMP JUMPDEST MSTORE PUSH2 0x123F DUP4 DUP9 DUP9 PUSH2 0x1AB4 JUMP JUMPDEST CALLDATALOAD PUSH1 0x40 MLOAD SWAP5 DUP6 SWAP3 DUP4 SWAP3 PUSH4 0xD06CA61F PUSH1 0xE0 SHL DUP5 MSTORE PUSH1 0x4 DUP5 ADD MSTORE PUSH1 0x40 PUSH1 0x24 DUP5 ADD MSTORE PUSH1 0x44 DUP4 ADD SWAP1 PUSH2 0x154B JUMP JUMPDEST SUB DUP2 PUSH32 0x0 PUSH1 0x1 PUSH1 0x1 PUSH1 0xA0 SHL SUB AND GAS STATICCALL DUP1 PUSH1 0x0 SWAP2 PUSH2 0x12D4 JUMPI JUMPDEST PUSH2 0x12BB SWAP4 POP PUSH2 0x12C0 JUMPI POP PUSH1 0x0 PUSH2 0x12B5 DUP3 DUP11 PUSH2 0x1537 JUMP JUMPDEST MSTORE PUSH2 0x1494 JUMP JUMPDEST PUSH2 0x1169 JUMP JUMPDEST PUSH2 0x12C9 SWAP1 PUSH2 0x1527 JUMP JUMPDEST MLOAD PUSH2 0x12B5 DUP3 DUP11 PUSH2 0x1537 JUMP JUMPDEST SWAP2 SWAP3 SWAP1 POP RETURNDATASIZE DUP1 PUSH1 0x0 DUP4 RETURNDATACOPY PUSH2 0x12E8 DUP2 DUP4 PUSH2 0x1472 JUMP JUMPDEST PUSH1 0x20 DUP3 DUP3 DUP2 ADD SUB SLT PUSH2 0x1A5 JUMPI DUP2 MLOAD SWAP2 PUSH8 0xFFFFFFFFFFFFFFFF DUP4 GT PUSH2 0x1A5 JUMPI DUP2 DUP2 ADD PUSH1 0x1F DUP5 DUP4 ADD ADD SLT ISZERO PUSH2 0x1A5 JUMPI DUP3 DUP2 ADD MLOAD SWAP1 PUSH2 0x1323 DUP3 PUSH2 0x14DC JUMP JUMPDEST SWAP4 PUSH2 0x1331 PUSH1 0x40 MLOAD SWAP6 DUP7 PUSH2 0x1472 JUMP JUMPDEST DUP3 DUP6 MSTORE PUSH1 0x20 DUP6 ADD SWAP4 DUP3 ADD PUSH1 0x20 DUP5 PUSH1 0x5 SHL DUP4 DUP6 ADD ADD ADD GT PUSH2 0x1A5 JUMPI PUSH1 0x20 DUP2 DUP4 ADD ADD SWAP4 JUMPDEST PUSH1 0x20 DUP5 PUSH1 0x5 SHL DUP4 DUP6 ADD ADD ADD DUP6 LT PUSH2 0x1375 JUMPI POP POP POP POP POP SWAP1 PUSH2 0x12BB SWAP3 SWAP2 SWAP1 PUSH2 0x129F JUMP JUMPDEST DUP5 MLOAD DUP2 MSTORE PUSH1 0x20 SWAP5 DUP6 ADD SWAP5 ADD PUSH2 0x1353 JUMP JUMPDEST PUSH3 0x461BCD PUSH1 0xE5 SHL DUP2 MSTORE PUSH1 0x20 PUSH1 0x4 DUP3 ADD MSTORE PUSH1 0xF PUSH1 0x24 DUP3 ADD MSTORE PUSH15 0x98CADCCEE8D040DAD2E6DAC2E8C6D PUSH1 0x8B SHL PUSH1 0x44 DUP3 ADD MSTORE PUSH1 0x64 SWAP1 REVERT JUMPDEST SWAP2 DUP2 PUSH1 0x1F DUP5 ADD SLT ISZERO PUSH2 0x1A5 JUMPI DUP3 CALLDATALOAD SWAP2 PUSH8 0xFFFFFFFFFFFFFFFF DUP4 GT PUSH2 0x1A5 JUMPI PUSH1 0x20 DUP1 DUP6 ADD SWAP5 DUP5 PUSH1 0x5 SHL ADD ADD GT PUSH2 0x1A5 JUMPI JUMP JUMPDEST PUSH1 0x4 CALLDATALOAD SWAP1 PUSH1 0x1 PUSH1 0x1 PUSH1 0xA0 SHL SUB DUP3 AND DUP3 SUB PUSH2 0x1A5 JUMPI JUMP JUMPDEST PUSH1 0x0 SLOAD PUSH1 0x1 PUSH1 0x1 PUSH1 0xA0 SHL SUB AND CALLER SUB PUSH2 0x1414 JUMPI JUMP JUMPDEST PUSH1 0x40 MLOAD PUSH4 0x118CDAA7 PUSH1 0xE0 SHL DUP2 MSTORE CALLER PUSH1 0x4 DUP3 ADD MSTORE PUSH1 0x24 SWAP1 REVERT JUMPDEST PUSH8 0xFFFFFFFFFFFFFFFF DUP2 GT PUSH2 0x1440 JUMPI PUSH1 0x40 MSTORE JUMP JUMPDEST PUSH4 0x4E487B71 PUSH1 0xE0 SHL PUSH1 0x0 MSTORE PUSH1 0x41 PUSH1 0x4 MSTORE PUSH1 0x24 PUSH1 0x0 REVERT JUMPDEST PUSH1 0x80 DUP2 ADD SWAP1 DUP2 LT PUSH8 0xFFFFFFFFFFFFFFFF DUP3 GT OR PUSH2 0x1440 JUMPI PUSH1 0x40 MSTORE JUMP JUMPDEST SWAP1 PUSH1 0x1F DUP1 NOT SWAP2 ADD AND DUP2 ADD SWAP1 DUP2 LT PUSH8 0xFFFFFFFFFFFFFFFF DUP3 GT OR PUSH2 0x1440 JUMPI PUSH1 0x40 MSTORE JUMP JUMPDEST PUSH1 0x0 NOT DUP2 EQ PUSH2 0x41B JUMPI PUSH1 0x1 ADD SWAP1 JUMP JUMPDEST CALLDATALOAD PUSH1 0x1 PUSH1 0x1 PUSH1 0xA0 SHL SUB DUP2 AND DUP2 SUB PUSH2 0x1A5 JUMPI SWAP1 JUMP JUMPDEST SWAP2 SWAP1 DUP3 SUB SWAP2 DUP3 GT PUSH2 0x41B JUMPI JUMP JUMPDEST SWAP1 DUP2 PUSH1 0x20 SWAP2 SUB SLT PUSH2 0x1A5 JUMPI MLOAD DUP1 ISZERO ISZERO DUP2 SUB PUSH2 0x1A5 JUMPI SWAP1 JUMP JUMPDEST PUSH8 0xFFFFFFFFFFFFFFFF DUP2 GT PUSH2 0x1440 JUMPI PUSH1 0x5 SHL PUSH1 0x20 ADD SWAP1 JUMP JUMPDEST DUP1 MLOAD ISZERO PUSH2 0x1501 JUMPI PUSH1 0x20 ADD SWAP1 JUMP JUMPDEST PUSH4 0x4E487B71 PUSH1 0xE0 SHL PUSH1 0x0 MSTORE PUSH1 0x32 PUSH1 0x4 MSTORE PUSH1 0x24 PUSH1 0x0 REVERT JUMPDEST DUP1 MLOAD PUSH1 0x1 LT ISZERO PUSH2 0x1501 JUMPI PUSH1 0x40 ADD SWAP1 JUMP JUMPDEST DUP1 MLOAD PUSH1 0x2 LT ISZERO PUSH2 0x1501 JUMPI PUSH1 0x60 ADD SWAP1 JUMP JUMPDEST DUP1 MLOAD DUP3 LT ISZERO PUSH2 0x1501 JUMPI PUSH1 0x20 SWAP2 PUSH1 0x5 SHL ADD ADD SWAP1 JUMP JUMPDEST SWAP1 DUP2 MLOAD DUP1 DUP3 MSTORE PUSH1 0x20 DUP1 DUP1 SWAP4 ADD SWAP4 ADD SWAP2 PUSH1 0x0 JUMPDEST DUP3 DUP2 LT PUSH2 0x156B JUMPI POP POP POP POP SWAP1 JUMP JUMPDEST DUP4 MLOAD PUSH1 0x1 PUSH1 0x1 PUSH1 0xA0 SHL SUB AND DUP6 MSTORE SWAP4 DUP2 ADD SWAP4 SWAP3 DUP2 ADD SWAP3 PUSH1 0x1 ADD PUSH2 0x155D JUMP JUMPDEST SWAP2 SWAP3 PUSH1 0x80 SWAP4 PUSH2 0x15AD SWAP3 SWAP8 SWAP7 SWAP6 SWAP8 DUP5 MSTORE PUSH1 0x20 DUP5 ADD MSTORE PUSH1 0xA0 PUSH1 0x40 DUP5 ADD MSTORE PUSH1 0xA0 DUP4 ADD SWAP1 PUSH2 0x154B JUMP JUMPDEST PUSH1 0x1 PUSH1 0x1 PUSH1 0xA0 SHL SUB SWAP1 SWAP6 AND PUSH1 0x60 DUP3 ADD MSTORE ADD MSTORE JUMP JUMPDEST PUSH1 0x40 DUP1 MLOAD PUSH4 0x95EA7B3 PUSH1 0xE0 SHL DUP2 MSTORE PUSH1 0x1 PUSH1 0x1 PUSH1 0xA0 SHL SUB PUSH32 0x0 DUP2 AND PUSH1 0x4 DUP4 ADD MSTORE PUSH1 0x24 DUP3 ADD DUP6 SWAP1 MSTORE SWAP8 SWAP9 SWAP8 PUSH1 0x0 SWAP8 SWAP3 SWAP7 SWAP4 AND SWAP5 SWAP2 SWAP3 SWAP1 PUSH1 0x20 DUP2 PUSH1 0x44 DUP2 DUP12 DUP11 GAS CALL DUP1 ISZERO PUSH2 0x1AAA JUMPI PUSH2 0x1A8B JUMPI JUMPDEST POP DUP6 MLOAD SWAP9 PUSH8 0xFFFFFFFFFFFFFFFF SWAP3 PUSH1 0xE0 DUP12 ADD DUP5 DUP2 GT DUP13 DUP3 LT OR PUSH2 0x1A77 JUMPI SWAP1 PUSH3 0xFFFFFF SWAP2 DUP10 MSTORE DUP8 DUP13 MSTORE PUSH1 0x1 DUP1 PUSH1 0xA0 SHL SUB PUSH32 0x0 AND PUSH1 0x20 DUP14 ADD MSTORE AND DUP8 DUP12 ADD MSTORE ADDRESS PUSH1 0x60 DUP12 ADD MSTORE DUP5 PUSH1 0x80 DUP12 ADD MSTORE DUP8 PUSH1 0xA0 DUP12 ADD MSTORE DUP8 PUSH1 0xC0 DUP12 ADD MSTORE DUP7 MLOAD SWAP10 PUSH4 0x4E45AAF PUSH1 0xE0 SHL DUP12 MSTORE PUSH1 0x1 DUP1 PUSH1 0xA0 SHL SUB DUP2 MLOAD AND PUSH1 0x4 DUP13 ADD MSTORE PUSH1 0x1 DUP1 PUSH1 0xA0 SHL SUB PUSH1 0x20 DUP3 ADD MLOAD AND PUSH1 0x24 DUP13 ADD MSTORE PUSH3 0xFFFFFF DUP9 DUP3 ADD MLOAD AND PUSH1 0x44 DUP13 ADD MSTORE PUSH1 0x1 DUP1 PUSH1 0xA0 SHL SUB PUSH1 0x60 DUP3 ADD MLOAD AND PUSH1 0x64 DUP13 ADD MSTORE PUSH1 0x80 DUP2 ADD MLOAD PUSH1 0x84 DUP13 ADD MSTORE PUSH1 0xA0 DUP2 ADD MLOAD PUSH1 0xA4 DUP13 ADD MSTORE PUSH1 0xC0 PUSH1 0x1 DUP1 PUSH1 0xA0 SHL SUB SWAP2 ADD MLOAD AND PUSH1 0xC4 DUP12 ADD MSTORE PUSH1 0x20 DUP11 PUSH1 0xE4 DUP2 DUP12 PUSH1 0x1 DUP1 PUSH1 0xA0 SHL SUB PUSH32 0x0 AND GAS CALL DUP1 DUP10 SWAP2 PUSH2 0x1A3C JUMPI JUMPDEST DUP10 SWAP11 SWAP12 POP ISZERO PUSH1 0x0 EQ PUSH2 0x17B9 JUMPI POP POP DUP6 MLOAD PUSH4 0xA9059CBB PUSH1 0xE0 SHL DUP2 MSTORE CALLER PUSH1 0x4 DUP3 ADD MSTORE PUSH1 0x24 DUP2 ADD SWAP5 SWAP1 SWAP5 MSTORE POP SWAP2 SWAP5 PUSH1 0x20 SWAP4 DUP7 SWAP4 POP PUSH1 0x44 SWAP3 POP DUP4 SWAP2 SWAP1 GAS CALL SWAP1 DUP2 ISZERO PUSH2 0x17B0 JUMPI POP PUSH2 0x1794 JUMPI POP SWAP1 JUMP JUMPDEST PUSH2 0x17AC SWAP1 PUSH1 0x20 RETURNDATASIZE PUSH1 0x20 GT PUSH2 0x391 JUMPI PUSH2 0x383 DUP2 DUP4 PUSH2 0x1472 JUMP JUMPDEST POP SWAP1 JUMP JUMPDEST MLOAD RETURNDATASIZE DUP5 DUP3 RETURNDATACOPY RETURNDATASIZE SWAP1 REVERT JUMPDEST SWAP3 SWAP7 SWAP6 POP SWAP3 SWAP7 POP SWAP3 POP DUP1 ISZERO PUSH2 0x1A33 JUMPI DUP4 MLOAD PUSH4 0x95EA7B3 PUSH1 0xE0 SHL DUP2 MSTORE PUSH32 0x0 PUSH1 0x1 PUSH1 0x1 PUSH1 0xA0 SHL SUB AND PUSH1 0x4 DUP3 ADD DUP2 SWAP1 MSTORE PUSH1 0x24 DUP3 ADD DUP4 SWAP1 MSTORE SWAP1 PUSH1 0x20 DUP2 DUP1 PUSH1 0x44 DUP2 ADD SUB DUP2 DUP13 PUSH32 0x0 PUSH1 0x1 PUSH1 0x1 PUSH1 0xA0 SHL SUB AND GAS CALL DUP1 ISZERO PUSH2 0x1A29 JUMPI PUSH2 0x1A0A JUMPI JUMPDEST POP DUP5 MLOAD SWAP6 PUSH1 0x60 DUP8 ADD SWAP1 DUP2 GT DUP8 DUP3 LT OR PUSH2 0x19F6 JUMPI DUP6 MSTORE PUSH1 0x2 DUP7 MSTORE DUP5 CALLDATASIZE PUSH1 0x20 DUP9 ADD CALLDATACOPY PUSH32 0x0 PUSH1 0x1 PUSH1 0x1 PUSH1 0xA0 SHL SUB AND PUSH2 0x18A2 DUP8 PUSH2 0x14F4 JUMP JUMPDEST MSTORE PUSH2 0x18AC DUP7 PUSH2 0x1517 JUMP JUMPDEST PUSH1 0x1 PUSH1 0x1 PUSH1 0xA0 SHL SUB SWAP1 SWAP8 AND SWAP7 DUP8 SWAP1 MSTORE DUP5 MLOAD PUSH4 0x70A08231 PUSH1 0xE0 SHL DUP1 DUP3 MSTORE ADDRESS PUSH1 0x4 DUP4 ADD MSTORE SWAP1 SWAP7 SWAP1 SWAP5 PUSH1 0x20 DUP9 PUSH1 0x24 DUP2 DUP13 GAS STATICCALL SWAP8 DUP9 ISZERO PUSH2 0x19EC JUMPI DUP11 SWAP9 PUSH2 0x19B8 JUMPI JUMPDEST POP DUP3 EXTCODESIZE ISZERO PUSH2 0x19B4 JUMPI SWAP1 DUP10 DUP1 SWAP5 SWAP4 SWAP3 PUSH2 0x1918 DUP10 MLOAD SWAP8 DUP9 SWAP7 DUP8 SWAP6 DUP7 SWAP5 PUSH4 0x5C11D795 PUSH1 0xE0 SHL DUP7 MSTORE ADDRESS SWAP3 PUSH1 0x4 DUP8 ADD PUSH2 0x1588 JUMP JUMPDEST SUB SWAP3 GAS CALL SWAP1 DUP2 PUSH2 0x19A1 JUMPI JUMPDEST POP PUSH2 0x192F JUMPI POP POP POP POP SWAP1 JUMP JUMPDEST PUSH1 0x20 SWAP1 PUSH1 0x24 DUP4 SWAP5 SWAP6 SWAP7 SWAP4 MLOAD DUP1 SWAP8 DUP2 SWAP4 DUP3 MSTORE ADDRESS PUSH1 0x4 DUP4 ADD MSTORE GAS STATICCALL SWAP2 DUP3 ISZERO PUSH2 0x1997 JUMPI POP SWAP1 PUSH2 0x1963 JUMPI JUMPDEST PUSH2 0x1960 SWAP3 POP PUSH2 0x14B7 JUMP JUMPDEST SWAP1 JUMP JUMPDEST POP PUSH1 0x20 DUP3 RETURNDATASIZE PUSH1 0x20 GT PUSH2 0x198F JUMPI JUMPDEST DUP2 PUSH2 0x197D PUSH1 0x20 SWAP4 DUP4 PUSH2 0x1472 JUMP JUMPDEST DUP2 ADD SUB SLT PUSH2 0x1A5 JUMPI PUSH2 0x1960 SWAP2 MLOAD PUSH2 0x1956 JUMP JUMPDEST RETURNDATASIZE SWAP2 POP PUSH2 0x1970 JUMP JUMPDEST MLOAD SWAP1 RETURNDATASIZE SWAP1 DUP3 RETURNDATACOPY RETURNDATASIZE SWAP1 REVERT JUMPDEST PUSH2 0x19AD SWAP1 SWAP7 SWAP2 SWAP7 PUSH2 0x142C JUMP JUMPDEST SWAP5 CODESIZE PUSH2 0x1923 JUMP JUMPDEST DUP10 DUP1 REVERT JUMPDEST SWAP1 SWAP8 POP PUSH1 0x20 DUP2 RETURNDATASIZE PUSH1 0x20 GT PUSH2 0x19E4 JUMPI JUMPDEST DUP2 PUSH2 0x19D4 PUSH1 0x20 SWAP4 DUP4 PUSH2 0x1472 JUMP JUMPDEST DUP2 ADD SUB SLT PUSH2 0x19B4 JUMPI MLOAD SWAP7 CODESIZE PUSH2 0x18E9 JUMP JUMPDEST RETURNDATASIZE SWAP2 POP PUSH2 0x19C7 JUMP JUMPDEST DUP8 MLOAD RETURNDATASIZE DUP13 DUP3 RETURNDATACOPY RETURNDATASIZE SWAP1 REVERT JUMPDEST PUSH4 0x4E487B71 PUSH1 0xE0 SHL DUP10 MSTORE PUSH1 0x41 PUSH1 0x4 MSTORE PUSH1 0x24 DUP10 REVERT JUMPDEST PUSH2 0x1A22 SWAP1 PUSH1 0x20 RETURNDATASIZE PUSH1 0x20 GT PUSH2 0x391 JUMPI PUSH2 0x383 DUP2 DUP4 PUSH2 0x1472 JUMP JUMPDEST POP CODESIZE PUSH2 0x184F JUMP JUMPDEST DUP7 MLOAD RETURNDATASIZE DUP12 DUP3 RETURNDATACOPY RETURNDATASIZE SWAP1 REVERT JUMPDEST POP POP POP POP POP POP SWAP1 JUMP JUMPDEST SWAP1 POP PUSH1 0x20 DUP12 RETURNDATASIZE PUSH1 0x20 GT PUSH2 0x1A6F JUMPI JUMPDEST DUP2 PUSH2 0x1A57 PUSH1 0x20 SWAP4 DUP4 PUSH2 0x1472 JUMP JUMPDEST DUP2 ADD SUB SLT PUSH2 0x1A6B JUMPI SWAP10 MLOAD SWAP9 SWAP10 DUP11 SWAP10 SWAP1 PUSH2 0x174A JUMP JUMPDEST DUP9 DUP1 REVERT JUMPDEST RETURNDATASIZE SWAP2 POP PUSH2 0x1A4A JUMP JUMPDEST PUSH4 0x4E487B71 PUSH1 0xE0 SHL DUP11 MSTORE PUSH1 0x41 PUSH1 0x4 MSTORE PUSH1 0x24 DUP11 REVERT JUMPDEST PUSH2 0x1AA3 SWAP1 PUSH1 0x20 RETURNDATASIZE PUSH1 0x20 GT PUSH2 0x391 JUMPI PUSH2 0x383 DUP2 DUP4 PUSH2 0x1472 JUMP JUMPDEST POP CODESIZE PUSH2 0x1629 JUMP JUMPDEST DUP8 MLOAD RETURNDATASIZE DUP11 DUP3 RETURNDATACOPY RETURNDATASIZE SWAP1 REVERT JUMPDEST SWAP2 SWAP1 DUP2 LT ISZERO PUSH2 0x1501 JUMPI PUSH1 0x5 SHL ADD SWAP1 JUMP JUMPDEST DUP2 ISZERO PUSH2 0x1BA4 JUMPI PUSH1 0x1 PUSH1 0x1 PUSH1 0xA0 SHL SUB SWAP1 DUP2 AND DUP1 PUSH2 0x1B42 JUMPI POP PUSH1 0x0 DUP1 DUP1 DUP1 SWAP5 DUP2 SWAP5 DUP3 SLOAD AND GAS CALL SWAP1 RETURNDATASIZE ISZERO PUSH2 0x1B3C JUMPI RETURNDATASIZE SWAP1 PUSH8 0xFFFFFFFFFFFFFFFF DUP3 GT PUSH2 0x1B28 JUMPI PUSH1 0x40 MLOAD SWAP2 PUSH2 0x1B18 PUSH1 0x1F DUP3 ADD PUSH1 0x1F NOT AND PUSH1 0x20 ADD DUP5 PUSH2 0x1472 JUMP JUMPDEST DUP3 MSTORE PUSH1 0x20 RETURNDATASIZE SWAP3 ADD RETURNDATACOPY JUMPDEST ISZERO PUSH2 0x357 JUMPI JUMP JUMPDEST PUSH4 0x4E487B71 PUSH1 0xE0 SHL DUP2 MSTORE PUSH1 0x41 PUSH1 0x4 MSTORE PUSH1 0x24 SWAP1 REVERT JUMPDEST POP PUSH2 0x1B21 JUMP JUMPDEST PUSH1 0x0 DUP1 SLOAD PUSH1 0x40 MLOAD PUSH4 0xA9059CBB PUSH1 0xE0 SHL DUP2 MSTORE SWAP4 AND PUSH1 0x1 PUSH1 0x1 PUSH1 0xA0 SHL SUB AND PUSH1 0x4 DUP5 ADD MSTORE PUSH1 0x24 DUP4 ADD SWAP4 SWAP1 SWAP4 MSTORE SWAP1 SWAP2 PUSH1 0x20 SWAP2 DUP4 SWAP2 DUP3 SWAP1 DUP2 PUSH1 0x44 DUP2 ADD SUB SWAP3 GAS CALL DUP1 ISZERO PUSH2 0x398 JUMPI PUSH2 0x1B8A JUMPI POP JUMP JUMPDEST PUSH2 0x1BA1 SWAP1 PUSH1 0x20 RETURNDATASIZE DUP2 GT PUSH2 0x391 JUMPI PUSH2 0x383 DUP2 DUP4 PUSH2 0x1472 JUMP JUMPDEST POP JUMP JUMPDEST POP POP JUMP INVALID LOG2 PUSH5 0x6970667358 0x22 SLT KECCAK256 POP ISZERO SIGNEXTEND 0xDB 0xF6 ORIGIN RETURN PUSH2 0x3DEA 0xA5 0x4D 0x4F DUP5 0xBE SWAP13 DUP3 0xD1 SUB 0xD LOG2 OR 0xBA EXTCODECOPY 0xAF BASEFEE 0xB2 EXTCODEHASH CREATE 0xAB TIMESTAMP DUP13 PUSH5 0x736F6C6343 STOP ADDMOD EQ STOP CALLER "},"methodIdentifiers":{"FEE_DENOMINATOR()":"d73792a9","MAX_FEE()":"bc063e1a","OUTPUT_TOKEN_TIMELOCK()":"ed56dac9","WBNB()":"8dd95002","applyOutputToken()":"50fd70c4","batchSwapToToken((address,uint256,uint256,uint8,uint24,uint256,uint8,bytes32,bytes32)[],uint256)":"f1ae159c","cancelOutputToken()":"49fcf0e4","emergencyWithdraw(address,uint256)":"95ccea67","feeRecipient()":"46904840","getEstimatedOutputs(address[],uint256[])":"273efee0","outputToken()":"c1d8d1d9","owner()":"8da5cb5b","pancakeRouterV2()":"d20ccdc2","pancakeRouterV3()":"e47aaf6d","pendingOutputToken()":"901a5402","pendingOutputTokenActiveAt()":"6a19c9c7","proposeOutputToken(address)":"6078af92","renounceOwnership()":"715018a6","serviceFee()":"8abdf5aa","setFee(uint256)":"69fe0e2d","setFeeRecipient(address)":"e74b981b","transferOwnership(address)":"f2fde38b"}}}}}