{"contracts/DustSwapRouterV2V3.sol":{"DustSwapRouterV2V3":{"abi":[{"inputs":[{"internalType":"address","name":"_pancakeRouterV2","type":"address"},{"internalType":"address","name":"_pancakeRouterV3","type":"address"},{"internalType":"address","name":"_pancakeQuoterV3","type":"address"}],"stateMutability":"nonpayable","type":"constructor"},{"inputs":[],"name":"DeadlineExpired","type":"error"},{"inputs":[],"name":"EmptySwapList","type":"error"},{"inputs":[],"name":"InvalidFee","type":"error"},{"inputs":[],"name":"InvalidRouter","type":"error"},{"inputs":[],"name":"InvalidToken","type":"error"},{"inputs":[{"internalType":"address","name":"owner","type":"address"}],"name":"OwnableInvalidOwner","type":"error"},{"inputs":[{"internalType":"address","name":"account","type":"address"}],"name":"OwnableUnauthorizedAccount","type":"error"},{"inputs":[],"name":"ReentrancyGuardReentrantCall","type":"error"},{"inputs":[],"name":"TransferFailed","type":"error"},{"anonymous":false,"inputs":[{"indexed":true,"internalType":"address","name":"user","type":"address"},{"indexed":false,"internalType":"uint256","name":"tokensSwapped","type":"uint256"},{"indexed":false,"internalType":"uint256","name":"totalBNBReceived","type":"uint256"}],"name":"BatchSwapCompleted","type":"event"},{"anonymous":false,"inputs":[{"indexed":true,"internalType":"address","name":"previousOwner","type":"address"},{"indexed":true,"internalType":"address","name":"newOwner","type":"address"}],"name":"OwnershipTransferred","type":"event"},{"anonymous":false,"inputs":[{"indexed":true,"internalType":"address","name":"token","type":"address"},{"indexed":false,"internalType":"enum DustSwapRouterV2V3.RouterVersion","name":"version","type":"uint8"},{"indexed":false,"internalType":"uint256","name":"amountOut","type":"uint256"}],"name":"RouterVersionUsed","type":"event"},{"anonymous":false,"inputs":[{"indexed":true,"internalType":"address","name":"user","type":"address"},{"indexed":true,"internalType":"address","name":"tokenIn","type":"address"},{"indexed":false,"internalType":"uint256","name":"amountIn","type":"uint256"},{"indexed":false,"internalType":"uint256","name":"amountOut","type":"uint256"},{"indexed":false,"internalType":"enum DustSwapRouterV2V3.RouterVersion","name":"version","type":"uint8"}],"name":"SingleSwapCompleted","type":"event"},{"inputs":[],"name":"WBNB","outputs":[{"internalType":"address","name":"","type":"address"}],"stateMutability":"view","type":"function"},{"inputs":[{"internalType":"uint24","name":"fee","type":"uint24"}],"name":"addV3PoolFee","outputs":[],"stateMutability":"nonpayable","type":"function"},{"inputs":[{"internalType":"address[]","name":"tokens","type":"address[]"},{"internalType":"uint256[]","name":"amounts","type":"uint256[]"},{"internalType":"uint256[]","name":"minAmountsOut","type":"uint256[]"},{"internalType":"uint256","name":"deadline","type":"uint256"}],"name":"batchSwapAuto","outputs":[{"internalType":"uint256","name":"totalBNBReceived","type":"uint256"}],"stateMutability":"nonpayable","type":"function"},{"inputs":[{"components":[{"internalType":"address","name":"token","type":"address"},{"internalType":"uint256","name":"amount","type":"uint256"},{"internalType":"uint256","name":"minAmountOut","type":"uint256"},{"internalType":"enum DustSwapRouterV2V3.RouterVersion","name":"version","type":"uint8"},{"internalType":"uint24","name":"v3Fee","type":"uint24"}],"internalType":"struct DustSwapRouterV2V3.SwapConfig[]","name":"configs","type":"tuple[]"},{"internalType":"uint256","name":"deadline","type":"uint256"}],"name":"batchSwapManual","outputs":[{"internalType":"uint256","name":"totalBNBReceived","type":"uint256"}],"stateMutability":"nonpayable","type":"function"},{"inputs":[{"internalType":"address","name":"token","type":"address"},{"internalType":"uint256","name":"amount","type":"uint256"}],"name":"emergencyWithdraw","outputs":[],"stateMutability":"nonpayable","type":"function"},{"inputs":[{"internalType":"address","name":"token","type":"address"},{"internalType":"uint256","name":"amount","type":"uint256"}],"name":"getQuotes","outputs":[{"internalType":"uint256","name":"v2Quote","type":"uint256"},{"internalType":"uint256","name":"v3Quote","type":"uint256"},{"internalType":"uint24","name":"v3Fee","type":"uint24"}],"stateMutability":"nonpayable","type":"function"},{"inputs":[],"name":"owner","outputs":[{"internalType":"address","name":"","type":"address"}],"stateMutability":"view","type":"function"},{"inputs":[],"name":"pancakeQuoterV3","outputs":[{"internalType":"contract IPancakeV3Quoter","name":"","type":"address"}],"stateMutability":"view","type":"function"},{"inputs":[],"name":"pancakeRouterV2","outputs":[{"internalType":"contract IPancakeRouter02","name":"","type":"address"}],"stateMutability":"view","type":"function"},{"inputs":[],"name":"pancakeRouterV3","outputs":[{"internalType":"contract IPancakeV3SwapRouter","name":"","type":"address"}],"stateMutability":"view","type":"function"},{"inputs":[],"name":"renounceOwnership","outputs":[],"stateMutability":"nonpayable","type":"function"},{"inputs":[{"internalType":"address","name":"newOwner","type":"address"}],"name":"transferOwnership","outputs":[],"stateMutability":"nonpayable","type":"function"},{"inputs":[{"internalType":"uint256","name":"","type":"uint256"}],"name":"v3PoolFees","outputs":[{"internalType":"uint24","name":"","type":"uint24"}],"stateMutability":"view","type":"function"},{"stateMutability":"payable","type":"receive"}],"evm":{"bytecode":{"linkReferences":{},"object":"61010060409080825234620003895760608162001c8180380380916200002682856200038e565b83398101031262000389576200003c81620003c8565b906020620000598462000051838501620003c8565b9301620003c8565b913315620003715760008054336001600160a01b03198216811783558751929592936001600160a01b03939290919084167f8be0079c531659141344cd1fd0a4f28419497f9722a3daafe3b4186f6b6457e08880a38260019788805516938415801562000366575b6200035757506080849052821660a0521660c05284516315ab88c960e31b815260049183908290849082905afa9081156200034d5784916200030c575b5060e052600291825493680100000000000000009384861015620002f957868601808255861015620002e65780825282822093600a9788958689040180549860039788910602871b62ffffff998a6064831b921b1916179055825487811015620002d357818101808555811015620002c0578385528585208a82040190878b8354920602881b908a6101f4831b921b1916179055825487811015620002d357818101808555811015620002c0578385528585208a82040190878b8354920602881b908a6109c4831b921b1916179055825496871015620002ad5786018083558610156200029a57509083929181522085840401948554930602901b91612710831b921b1916179055516118a39081620003de82396080518181816101f001528181610fda015281816111db01526115a8015260a0518181816101ab015281816113f90152611517015260c051818181610c430152611075015260e0518181816105e9015281816106c201528181610ba601528181610f8b0152818161104f0152818161126901528181611470015281816115f1015261164f0152f35b634e487b7160e01b835260329052602482fd5b634e487b7160e01b845260418252602484fd5b634e487b7160e01b855260328352602485fd5b634e487b7160e01b855260418352602485fd5b634e487b7160e01b825260328452602482fd5b634e487b7160e01b825260418452602482fd5b90508281813d831162000345575b6200032681836200038e565b8101031262000341576200033a90620003c8565b38620000fe565b8380fd5b503d6200031a565b86513d86823e3d90fd5b63466d7fef60e01b8152600490fd5b5083821615620000c1565b8451631e4fbdf760e01b815260006004820152602490fd5b600080fd5b601f909101601f19168101906001600160401b03821190821017620003b257604052565b634e487b7160e01b600052604160045260246000fd5b51906001600160a01b0382168203620003895756fe608080604052600436101561001d575b50361561001b57600080fd5b005b60003560e01c908163660080ce14610c3057508063715018a614610bd757806372224d10146107fe5780637740da0914610757578063810cd53e1461071a5780638da5cb5b146106f15780638dd95002146106ac57806395ccea6714610687578063a593bff31461021f578063d20ccdc2146101da578063e47aaf6d14610195578063e785f45b1461014c5763f2fde38b146100b9573861000f565b34610147576020366003190112610147576100d2610cc7565b6100da610d0e565b6001600160a01b0390811690811561012e57600054826bffffffffffffffffffffffff60a01b821617600055167f8be0079c531659141344cd1fd0a4f28419497f9722a3daafe3b4186f6b6457e0600080a3005b604051631e4fbdf760e01b815260006004820152602490fd5b600080fd5b34610147576040366003190112610147576060610167610cc7565b62ffffff61018160243561017b8185610f49565b93611040565b906040519384526020840152166040820152f35b34610147576000366003190112610147576040517f00000000000000000000000000000000000000000000000000000000000000006001600160a01b03168152602090f35b34610147576000366003190112610147576040517f00000000000000000000000000000000000000000000000000000000000000006001600160a01b03168152602090f35b346101475760803660031901126101475767ffffffffffffffff60043581811161014757610251903690600401610cdd565b91906024358281116101475761026b903690600401610cdd565b909260443590811161014757610285903690600401610cdd565b919061028f610e26565b606435421161067557851561066357818614801590610659575b61061b57479360005b87811061033357876102c48747610dd9565b8061030a575b60209160405190815281838201527fc767de13f13f210028ee47bbc51d3b5c5bdd470eddf6cc16787d8f41f82d537e60403392a260018055604051908152f35b600080808084335af161031b610de6565b506102ca575b6040516312171d8360e31b8152600490fd5b6001600160a01b0361034e610349838b86610d5f565b610d6f565b161580156105d8575b6105c657610366818589610d5f565b35156105bd576001600160a01b03610382610349838b86610d5f565b6040516370a0823160e01b81523060048201529116602082602481845afa91821561054e57600092610589575b506103ec60206103c085898d610d5f565b6040516323b872dd60e01b81523360048201523060248201529035604482015291829081906064820190565b03816000865af190811561054e5760009161055a575b5015610321576040516370a0823160e01b8152306004820152602081602481855afa92831561054e5784938c92600091610513575b5061034961044c61045a949361045593610dd9565b96879389610d5f565b610e49565b9160038194929410156104fd5784886040936104dd988d7f076b96a5e6b8bf1ec473d94d41818c945b4ad8621008640191099110d5e5273b9786156000146104e257506104b5946104ae9160643595610d5f565b35916111c3565b8c6104cb6103498760018060a01b03938b610d5f565b169382519182526020820152a2610d3a565b6102b2565b93946104f1916104f896610d5f565b35916113e1565b6104b5565b634e487b7160e01b600052602160045260246000fd5b92505092506020813d602011610546575b8161053160209383610d9f565b81010312610147575183928b91610349610437565b3d9150610524565b6040513d6000823e3d90fd5b61057c915060203d602011610582575b6105748183610d9f565b810190610dc1565b8b610402565b503d61056a565b9091506020813d6020116105b5575b816105a560209383610d9f565b810103126101475751908a6103af565b3d9150610598565b6104dd90610d3a565b60405163c1ab6dc160e01b8152600490fd5b506105e7610349828a85610d5f565b7f00000000000000000000000000000000000000000000000000000000000000006001600160a01b03908116911614610357565b60405162461bcd60e51b8152602060048201526016602482015275082e4e4c2f240d8cadccee8d0e640dad2e6dac2e8c6d60531b6044820152606490fd5b50828614156102a9565b6040516386724c7f60e01b8152600490fd5b604051631ab7da6b60e01b8152600490fd5b346101475760403660031901126101475761001b6106a3610cc7565b602435906117ef565b34610147576000366003190112610147576040517f00000000000000000000000000000000000000000000000000000000000000006001600160a01b03168152602090f35b34610147576000366003190112610147576000546040516001600160a01b039091168152602090f35b34610147576020366003190112610147576004356002548110156101475762ffffff610747602092610c72565b9190546040519260031b1c168152f35b346101475760203660031901126101475760043562ffffff9081811680910361014757610782610d0e565b801580156107f2575b6107e057600254680100000000000000008110156107ca578060016107b39201600255610c72565b909283549160031b92831b921b1916179055600080f35b634e487b7160e01b600052604160045260246000fd5b6040516358d620b360e01b8152600490fd5b50620186a0811161078b565b346101475760403660031901126101475767ffffffffffffffff60043511610147573660236004350112156101475767ffffffffffffffff60043560040135116101475736602460a0600435600401350260043501011161014757610861610e26565b6024354211610675576004356004013515610663574760005b600435600401358110610905576108918247610dd9565b806108dd575b60209060405160043560040135815281838201527fc767de13f13f210028ee47bbc51d3b5c5bdd470eddf6cc16787d8f41f82d537e60403392a260018055604051908152f35b600080808084335af16108ee610de6565b50610897576040516312171d8360e31b8152600490fd5b60a08102600435019060a06023198336030112610147576040519160a0830183811067ffffffffffffffff8211176107ca5760405260248101356001600160a01b0381169190828103610147578452604481013560208501526064810135604085015260848101359060038210156101475760a4916060860152013562ffffff811681036101475760808401528015908115610ba4575b506105c657602082015115610b9a5781516040516370a0823160e01b81523060048201526001600160a01b0390911690602081602481855afa90811561054e57600091610b68575b506020848101516040516323b872dd60e01b8152336004820152306024820152604481019190915290816064816000875af190811561054e57600091610b49575b5015610321576040516370a0823160e01b815230600482015290602082602481865afa801561054e57600090610b15575b610a609250610dd9565b606084015160038110156104fd57610a935792610a8991610a8e946040602435930151916111c3565b610d3a565b61087a565b92606081015160038110156104fd57600103610ac7579081610a8e9462ffffff60806040610a8996015193015116926113e1565b8051610add9085906001600160a01b0316610e49565b939195905060038610156104fd57610a8e95610b0657610a8993506040602435930151916111c3565b6040610a8994930151916113e1565b506020823d602011610b41575b81610b2f60209383610d9f565b8101031261014757610a609151610a56565b3d9150610b22565b610b62915060203d602011610582576105748183610d9f565b86610a25565b90506020813d602011610b92575b81610b8360209383610d9f565b810103126101475751856109e4565b3d9150610b76565b610a8e9150610d3a565b7f00000000000000000000000000000000000000000000000000000000000000006001600160a01b03161490508461099c565b3461014757600036600319011261014757610bf0610d0e565b600080546001600160a01b0319811682556001600160a01b03167f8be0079c531659141344cd1fd0a4f28419497f9722a3daafe3b4186f6b6457e08280a3005b34610147576000366003190112610147577f00000000000000000000000000000000000000000000000000000000000000006001600160a01b03168152602090f35b90600254821015610cb15760026000526003600a8084047f405787fa12a823e0f2b7631cc41b3ba8828b3321ca811111fa75cd3aa3bb5ace0193060290565b634e487b7160e01b600052603260045260246000fd5b600435906001600160a01b038216820361014757565b9181601f840112156101475782359167ffffffffffffffff8311610147576020808501948460051b01011161014757565b6000546001600160a01b03163303610d2257565b60405163118cdaa760e01b8152336004820152602490fd5b6000198114610d495760010190565b634e487b7160e01b600052601160045260246000fd5b9190811015610cb15760051b0190565b356001600160a01b03811681036101475790565b6060810190811067ffffffffffffffff8211176107ca57604052565b90601f8019910116810190811067ffffffffffffffff8211176107ca57604052565b90816020910312610147575180151581036101475790565b91908203918211610d4957565b3d15610e21573d9067ffffffffffffffff82116107ca5760405191610e15601f8201601f191660200184610d9f565b82523d6000602084013e565b606090565b600260015414610e37576002600155565b604051633ee5aeb560e01b8152600490fd5b9190610e599061017b8185610f49565b818410610e6b57505060009190600090565b600193509091565b805115610cb15760200190565b805160011015610cb15760400190565b90602090818382031261014757825167ffffffffffffffff93848211610147570181601f820112156101475780519384116107ca578360051b9060405194610eda85840187610d9f565b85528380860192820101928311610147578301905b828210610efd575050505090565b81518152908301908301610eef565b90815180825260208080930193019160005b828110610f2c575050505090565b83516001600160a01b031685529381019392810192600101610f1e565b610fd69160009160405191610f5d83610d83565b600283526040366020850137610f7283610e73565b6001600160a01b039283169052610f8883610e80565b827f000000000000000000000000000000000000000000000000000000000000000016905260405180958194829363d06ca61f60e01b84526004840152604060248401526044830190610f0c565b03917f0000000000000000000000000000000000000000000000000000000000000000165afa6000918161101d575b506110105750600090565b61101990610e80565b5190565b61103991923d8091833e6110318183610d9f565b810190610e90565b9038611005565b600092916001600160a01b03917f000000000000000000000000000000000000000000000000000000000000000083169185907f000000000000000000000000000000000000000000000000000000000000000085169082805b60025481101561117e576110ad81610c72565b905460405163f7729d4360e01b81528a8916600482015289602482015262ffffff8092600394851b1c1660448201528560648201528c60848201528c602091828160a481858d5af191928261114a575b50506111145750505061110f90610d3a565b61109a565b878111611128575b50505061110f90610d3a565b965091925061110f919061113b84610c72565b9054911b1c169190388061111c565b9080929350813d8311611177575b6111628183610d9f565b8101031261117357519038806110fd565b8d80fd5b503d611158565b50969550505094505050565b91926080936111af92979695978452602084015260a0604084015260a0830190610f0c565b6001600160a01b0390951660608201520152565b6040805163095ea7b360e01b81526001600160a01b037f0000000000000000000000000000000000000000000000000000000000000000811660048301819052602483018690526020976000979496958316959490939192909189816044818c8b5af180156113d7578994926112ac96949286926113ba575b5089519061124982610d83565b600282528a368e8401378961125d83610e73565b5261126782610e80565b7f0000000000000000000000000000000000000000000000000000000000000000909116905289516318cbafe560e01b81529687958694859330918c6004870161118a565b03925af185918161139e575b5061131c5750825163a9059cbb60e01b81523360048201526024810191909152929084908490604490829085905af19182156113125750506112f9575b5050565b8161130f92903d10610582576105748183610d9f565b50565b51903d90823e3d90fd5b8051929591949392600019810190811161138a5781518110156113765790829160051b0101519082519485528401528201527fa2c87abc3341789e0370a7baabed4f58835304c2b16a29536744ad19fcfd2e8460603392a3565b634e487b7160e01b85526032600452602485fd5b634e487b7160e01b85526011600452602485fd5b6113b39192503d8088833e6110318183610d9f565b90386112b8565b6113d0908d803d10610582576105748183610d9f565b503861123c565b88513d8b823e3d90fd5b6040805163095ea7b360e01b81526001600160a01b037f0000000000000000000000000000000000000000000000000000000000000000811660048301526024820185905260009796929593169392906020816044818b895af180156117e5576117c6575b5084519160e0830183811067ffffffffffffffff8211176117b25786528483526001600160a01b037f00000000000000000000000000000000000000000000000000000000000000008116602080860191825262ffffff938416868a0190815230606088019081526080880189815260a0890197885260c089018e81528c516304e45aaf60e01b81529951871660048b01529451861660248a01529151909516604488015293518316606487015292516084860152925160a48501529151821660c484015290829060e49082908a907f0000000000000000000000000000000000000000000000000000000000000000165af186918161177a575b5061159a5750825163a9059cbb60e01b815233600482015260248101919091529293906020908490604490829085905af19182156113125750506115825750565b61130f9060203d602011610582576105748183610d9f565b835163095ea7b360e01b81527f00000000000000000000000000000000000000000000000000000000000000006001600160a01b0316600482018190526024820183905296939492939060208180604481010381857f00000000000000000000000000000000000000000000000000000000000000006001600160a01b03165af1801561177057611751575b5082519683880188811067ffffffffffffffff82111761173d57845260018852602036818a01377f00000000000000000000000000000000000000000000000000000000000000006001600160a01b031661168089610e73565b5261012c420197884211611729579782916116b599838751809c819582946318cbafe560e01b845230908b806004870161118a565b03925af196871561171d57600194959697611702575b5050815193845260208401528201527fa2c87abc3341789e0370a7baabed4f58835304c2b16a29536744ad19fcfd2e8460603392a3565b611715913d8091833e6110318183610d9f565b5038806116cb565b508251903d90823e3d90fd5b634e487b7160e01b83526011600452602483fd5b634e487b7160e01b83526041600452602483fd5b6117699060203d602011610582576105748183610d9f565b5038611626565b84513d84823e3d90fd5b9091506020813d6020116117aa575b8161179660209383610d9f565b810103126117a657519038611541565b8680fd5b3d9150611789565b634e487b7160e01b89526041600452602489fd5b6117de9060203d602011610582576105748183610d9f565b5038611446565b86513d8a823e3d90fd5b9080156112f5576000916001600160a01b03168061181f575081808092335af1611817610de6565b501561032157565b60405163a9059cbb60e01b81523360048201526024810192909252909160209183916044918391905af1801561054e576118565750565b61130f9060203d8111610582576105748183610d9f56fea264697066735822122048b43dca57ac97eec395a531532182891f926649fce1d5e1148e14823e99cebb64736f6c63430008140033","opcodes":"PUSH2 0x100 PUSH1 0x40 SWAP1 DUP1 DUP3 MSTORE CALLVALUE PUSH3 0x389 JUMPI PUSH1 0x60 DUP2 PUSH3 0x1C81 DUP1 CODESIZE SUB DUP1 SWAP2 PUSH3 0x26 DUP3 DUP6 PUSH3 0x38E JUMP JUMPDEST DUP4 CODECOPY DUP2 ADD SUB SLT PUSH3 0x389 JUMPI PUSH3 0x3C DUP2 PUSH3 0x3C8 JUMP JUMPDEST SWAP1 PUSH1 0x20 PUSH3 0x59 DUP5 PUSH3 0x51 DUP4 DUP6 ADD PUSH3 0x3C8 JUMP JUMPDEST SWAP4 ADD PUSH3 0x3C8 JUMP JUMPDEST SWAP2 CALLER ISZERO PUSH3 0x371 JUMPI PUSH1 0x0 DUP1 SLOAD CALLER PUSH1 0x1 PUSH1 0x1 PUSH1 0xA0 SHL SUB NOT DUP3 AND DUP2 OR DUP4 SSTORE DUP8 MLOAD SWAP3 SWAP6 SWAP3 SWAP4 PUSH1 0x1 PUSH1 0x1 PUSH1 0xA0 SHL SUB SWAP4 SWAP3 SWAP1 SWAP2 SWAP1 DUP5 AND PUSH32 0x8BE0079C531659141344CD1FD0A4F28419497F9722A3DAAFE3B4186F6B6457E0 DUP9 DUP1 LOG3 DUP3 PUSH1 0x1 SWAP8 DUP9 DUP1 SSTORE AND SWAP4 DUP5 ISZERO DUP1 ISZERO PUSH3 0x366 JUMPI JUMPDEST PUSH3 0x357 JUMPI POP PUSH1 0x80 DUP5 SWAP1 MSTORE DUP3 AND PUSH1 0xA0 MSTORE AND PUSH1 0xC0 MSTORE DUP5 MLOAD PUSH4 0x15AB88C9 PUSH1 0xE3 SHL DUP2 MSTORE PUSH1 0x4 SWAP2 DUP4 SWAP1 DUP3 SWAP1 DUP5 SWAP1 DUP3 SWAP1 GAS STATICCALL SWAP1 DUP2 ISZERO PUSH3 0x34D JUMPI DUP5 SWAP2 PUSH3 0x30C JUMPI JUMPDEST POP PUSH1 0xE0 MSTORE PUSH1 0x2 SWAP2 DUP3 SLOAD SWAP4 PUSH9 0x10000000000000000 SWAP4 DUP5 DUP7 LT ISZERO PUSH3 0x2F9 JUMPI DUP7 DUP7 ADD DUP1 DUP3 SSTORE DUP7 LT ISZERO PUSH3 0x2E6 JUMPI DUP1 DUP3 MSTORE DUP3 DUP3 KECCAK256 SWAP4 PUSH1 0xA SWAP8 DUP9 SWAP6 DUP7 DUP10 DIV ADD DUP1 SLOAD SWAP9 PUSH1 0x3 SWAP8 DUP9 SWAP2 MOD MUL DUP8 SHL PUSH3 0xFFFFFF SWAP10 DUP11 PUSH1 0x64 DUP4 SHL SWAP3 SHL NOT AND OR SWAP1 SSTORE DUP3 SLOAD DUP8 DUP2 LT ISZERO PUSH3 0x2D3 JUMPI DUP2 DUP2 ADD DUP1 DUP6 SSTORE DUP2 LT ISZERO PUSH3 0x2C0 JUMPI DUP4 DUP6 MSTORE DUP6 DUP6 KECCAK256 DUP11 DUP3 DIV ADD SWAP1 DUP8 DUP12 DUP4 SLOAD SWAP3 MOD MUL DUP9 SHL SWAP1 DUP11 PUSH2 0x1F4 DUP4 SHL SWAP3 SHL NOT AND OR SWAP1 SSTORE DUP3 SLOAD DUP8 DUP2 LT ISZERO PUSH3 0x2D3 JUMPI DUP2 DUP2 ADD DUP1 DUP6 SSTORE DUP2 LT ISZERO PUSH3 0x2C0 JUMPI DUP4 DUP6 MSTORE DUP6 DUP6 KECCAK256 DUP11 DUP3 DIV ADD SWAP1 DUP8 DUP12 DUP4 SLOAD SWAP3 MOD MUL DUP9 SHL SWAP1 DUP11 PUSH2 0x9C4 DUP4 SHL SWAP3 SHL NOT AND OR SWAP1 SSTORE DUP3 SLOAD SWAP7 DUP8 LT ISZERO PUSH3 0x2AD JUMPI DUP7 ADD DUP1 DUP4 SSTORE DUP7 LT ISZERO PUSH3 0x29A JUMPI POP SWAP1 DUP4 SWAP3 SWAP2 DUP2 MSTORE KECCAK256 DUP6 DUP5 DIV ADD SWAP5 DUP6 SLOAD SWAP4 MOD MUL SWAP1 SHL SWAP2 PUSH2 0x2710 DUP4 SHL SWAP3 SHL NOT AND OR SWAP1 SSTORE MLOAD PUSH2 0x18A3 SWAP1 DUP2 PUSH3 0x3DE DUP3 CODECOPY PUSH1 0x80 MLOAD DUP2 DUP2 DUP2 PUSH2 0x1F0 ADD MSTORE DUP2 DUP2 PUSH2 0xFDA ADD MSTORE DUP2 DUP2 PUSH2 0x11DB ADD MSTORE PUSH2 0x15A8 ADD MSTORE PUSH1 0xA0 MLOAD DUP2 DUP2 DUP2 PUSH2 0x1AB ADD MSTORE DUP2 DUP2 PUSH2 0x13F9 ADD MSTORE PUSH2 0x1517 ADD MSTORE PUSH1 0xC0 MLOAD DUP2 DUP2 DUP2 PUSH2 0xC43 ADD MSTORE PUSH2 0x1075 ADD MSTORE PUSH1 0xE0 MLOAD DUP2 DUP2 DUP2 PUSH2 0x5E9 ADD MSTORE DUP2 DUP2 PUSH2 0x6C2 ADD MSTORE DUP2 DUP2 PUSH2 0xBA6 ADD MSTORE DUP2 DUP2 PUSH2 0xF8B ADD MSTORE DUP2 DUP2 PUSH2 0x104F ADD MSTORE DUP2 DUP2 PUSH2 0x1269 ADD MSTORE DUP2 DUP2 PUSH2 0x1470 ADD MSTORE DUP2 DUP2 PUSH2 0x15F1 ADD MSTORE PUSH2 0x164F ADD MSTORE RETURN JUMPDEST PUSH4 0x4E487B71 PUSH1 0xE0 SHL DUP4 MSTORE PUSH1 0x32 SWAP1 MSTORE PUSH1 0x24 DUP3 REVERT JUMPDEST PUSH4 0x4E487B71 PUSH1 0xE0 SHL DUP5 MSTORE PUSH1 0x41 DUP3 MSTORE PUSH1 0x24 DUP5 REVERT JUMPDEST PUSH4 0x4E487B71 PUSH1 0xE0 SHL DUP6 MSTORE PUSH1 0x32 DUP4 MSTORE PUSH1 0x24 DUP6 REVERT JUMPDEST PUSH4 0x4E487B71 PUSH1 0xE0 SHL DUP6 MSTORE PUSH1 0x41 DUP4 MSTORE PUSH1 0x24 DUP6 REVERT JUMPDEST PUSH4 0x4E487B71 PUSH1 0xE0 SHL DUP3 MSTORE PUSH1 0x32 DUP5 MSTORE PUSH1 0x24 DUP3 REVERT JUMPDEST PUSH4 0x4E487B71 PUSH1 0xE0 SHL DUP3 MSTORE PUSH1 0x41 DUP5 MSTORE PUSH1 0x24 DUP3 REVERT JUMPDEST SWAP1 POP DUP3 DUP2 DUP2 RETURNDATASIZE DUP4 GT PUSH3 0x345 JUMPI JUMPDEST PUSH3 0x326 DUP2 DUP4 PUSH3 0x38E JUMP JUMPDEST DUP2 ADD SUB SLT PUSH3 0x341 JUMPI PUSH3 0x33A SWAP1 PUSH3 0x3C8 JUMP JUMPDEST CODESIZE PUSH3 0xFE JUMP JUMPDEST DUP4 DUP1 REVERT JUMPDEST POP RETURNDATASIZE PUSH3 0x31A JUMP JUMPDEST DUP7 MLOAD RETURNDATASIZE DUP7 DUP3 RETURNDATACOPY RETURNDATASIZE SWAP1 REVERT JUMPDEST PUSH4 0x466D7FEF PUSH1 0xE0 SHL DUP2 MSTORE PUSH1 0x4 SWAP1 REVERT JUMPDEST POP DUP4 DUP3 AND ISZERO PUSH3 0xC1 JUMP JUMPDEST DUP5 MLOAD PUSH4 0x1E4FBDF7 PUSH1 0xE0 SHL DUP2 MSTORE PUSH1 0x0 PUSH1 0x4 DUP3 ADD MSTORE PUSH1 0x24 SWAP1 REVERT JUMPDEST PUSH1 0x0 DUP1 REVERT JUMPDEST PUSH1 0x1F SWAP1 SWAP2 ADD PUSH1 0x1F NOT AND DUP2 ADD SWAP1 PUSH1 0x1 PUSH1 0x1 PUSH1 0x40 SHL SUB DUP3 GT SWAP1 DUP3 LT OR PUSH3 0x3B2 JUMPI PUSH1 0x40 MSTORE JUMP JUMPDEST PUSH4 0x4E487B71 PUSH1 0xE0 SHL PUSH1 0x0 MSTORE PUSH1 0x41 PUSH1 0x4 MSTORE PUSH1 0x24 PUSH1 0x0 REVERT JUMPDEST MLOAD SWAP1 PUSH1 0x1 PUSH1 0x1 PUSH1 0xA0 SHL SUB DUP3 AND DUP3 SUB PUSH3 0x389 JUMPI JUMP INVALID PUSH1 0x80 DUP1 PUSH1 0x40 MSTORE PUSH1 0x4 CALLDATASIZE LT ISZERO PUSH2 0x1D JUMPI JUMPDEST POP CALLDATASIZE ISZERO PUSH2 0x1B JUMPI PUSH1 0x0 DUP1 REVERT JUMPDEST STOP JUMPDEST PUSH1 0x0 CALLDATALOAD PUSH1 0xE0 SHR SWAP1 DUP2 PUSH4 0x660080CE EQ PUSH2 0xC30 JUMPI POP DUP1 PUSH4 0x715018A6 EQ PUSH2 0xBD7 JUMPI DUP1 PUSH4 0x72224D10 EQ PUSH2 0x7FE JUMPI DUP1 PUSH4 0x7740DA09 EQ PUSH2 0x757 JUMPI DUP1 PUSH4 0x810CD53E EQ PUSH2 0x71A JUMPI DUP1 PUSH4 0x8DA5CB5B EQ PUSH2 0x6F1 JUMPI DUP1 PUSH4 0x8DD95002 EQ PUSH2 0x6AC JUMPI DUP1 PUSH4 0x95CCEA67 EQ PUSH2 0x687 JUMPI DUP1 PUSH4 0xA593BFF3 EQ PUSH2 0x21F JUMPI DUP1 PUSH4 0xD20CCDC2 EQ PUSH2 0x1DA JUMPI DUP1 PUSH4 0xE47AAF6D EQ PUSH2 0x195 JUMPI DUP1 PUSH4 0xE785F45B EQ PUSH2 0x14C JUMPI PUSH4 0xF2FDE38B EQ PUSH2 0xB9 JUMPI CODESIZE PUSH2 0xF JUMP JUMPDEST CALLVALUE PUSH2 0x147 JUMPI PUSH1 0x20 CALLDATASIZE PUSH1 0x3 NOT ADD SLT PUSH2 0x147 JUMPI PUSH2 0xD2 PUSH2 0xCC7 JUMP JUMPDEST PUSH2 0xDA PUSH2 0xD0E JUMP JUMPDEST PUSH1 0x1 PUSH1 0x1 PUSH1 0xA0 SHL SUB SWAP1 DUP2 AND SWAP1 DUP2 ISZERO PUSH2 0x12E JUMPI PUSH1 0x0 SLOAD DUP3 PUSH12 0xFFFFFFFFFFFFFFFFFFFFFFFF PUSH1 0xA0 SHL DUP3 AND OR PUSH1 0x0 SSTORE AND PUSH32 0x8BE0079C531659141344CD1FD0A4F28419497F9722A3DAAFE3B4186F6B6457E0 PUSH1 0x0 DUP1 LOG3 STOP JUMPDEST PUSH1 0x40 MLOAD PUSH4 0x1E4FBDF7 PUSH1 0xE0 SHL DUP2 MSTORE PUSH1 0x0 PUSH1 0x4 DUP3 ADD MSTORE PUSH1 0x24 SWAP1 REVERT JUMPDEST PUSH1 0x0 DUP1 REVERT JUMPDEST CALLVALUE PUSH2 0x147 JUMPI PUSH1 0x40 CALLDATASIZE PUSH1 0x3 NOT ADD SLT PUSH2 0x147 JUMPI PUSH1 0x60 PUSH2 0x167 PUSH2 0xCC7 JUMP JUMPDEST PUSH3 0xFFFFFF PUSH2 0x181 PUSH1 0x24 CALLDATALOAD PUSH2 0x17B DUP2 DUP6 PUSH2 0xF49 JUMP JUMPDEST SWAP4 PUSH2 0x1040 JUMP JUMPDEST SWAP1 PUSH1 0x40 MLOAD SWAP4 DUP5 MSTORE PUSH1 0x20 DUP5 ADD MSTORE AND PUSH1 0x40 DUP3 ADD MSTORE RETURN JUMPDEST CALLVALUE PUSH2 0x147 JUMPI PUSH1 0x0 CALLDATASIZE PUSH1 0x3 NOT ADD SLT PUSH2 0x147 JUMPI PUSH1 0x40 MLOAD PUSH32 0x0 PUSH1 0x1 PUSH1 0x1 PUSH1 0xA0 SHL SUB AND DUP2 MSTORE PUSH1 0x20 SWAP1 RETURN JUMPDEST CALLVALUE PUSH2 0x147 JUMPI PUSH1 0x0 CALLDATASIZE PUSH1 0x3 NOT ADD SLT PUSH2 0x147 JUMPI PUSH1 0x40 MLOAD PUSH32 0x0 PUSH1 0x1 PUSH1 0x1 PUSH1 0xA0 SHL SUB AND DUP2 MSTORE PUSH1 0x20 SWAP1 RETURN JUMPDEST CALLVALUE PUSH2 0x147 JUMPI PUSH1 0x80 CALLDATASIZE PUSH1 0x3 NOT ADD SLT PUSH2 0x147 JUMPI PUSH8 0xFFFFFFFFFFFFFFFF PUSH1 0x4 CALLDATALOAD DUP2 DUP2 GT PUSH2 0x147 JUMPI PUSH2 0x251 SWAP1 CALLDATASIZE SWAP1 PUSH1 0x4 ADD PUSH2 0xCDD JUMP JUMPDEST SWAP2 SWAP1 PUSH1 0x24 CALLDATALOAD DUP3 DUP2 GT PUSH2 0x147 JUMPI PUSH2 0x26B SWAP1 CALLDATASIZE SWAP1 PUSH1 0x4 ADD PUSH2 0xCDD JUMP JUMPDEST SWAP1 SWAP3 PUSH1 0x44 CALLDATALOAD SWAP1 DUP2 GT PUSH2 0x147 JUMPI PUSH2 0x285 SWAP1 CALLDATASIZE SWAP1 PUSH1 0x4 ADD PUSH2 0xCDD JUMP JUMPDEST SWAP2 SWAP1 PUSH2 0x28F PUSH2 0xE26 JUMP JUMPDEST PUSH1 0x64 CALLDATALOAD TIMESTAMP GT PUSH2 0x675 JUMPI DUP6 ISZERO PUSH2 0x663 JUMPI DUP2 DUP7 EQ DUP1 ISZERO SWAP1 PUSH2 0x659 JUMPI JUMPDEST PUSH2 0x61B JUMPI SELFBALANCE SWAP4 PUSH1 0x0 JUMPDEST DUP8 DUP2 LT PUSH2 0x333 JUMPI DUP8 PUSH2 0x2C4 DUP8 SELFBALANCE PUSH2 0xDD9 JUMP JUMPDEST DUP1 PUSH2 0x30A JUMPI JUMPDEST PUSH1 0x20 SWAP2 PUSH1 0x40 MLOAD SWAP1 DUP2 MSTORE DUP2 DUP4 DUP3 ADD MSTORE PUSH32 0xC767DE13F13F210028EE47BBC51D3B5C5BDD470EDDF6CC16787D8F41F82D537E PUSH1 0x40 CALLER SWAP3 LOG2 PUSH1 0x1 DUP1 SSTORE PUSH1 0x40 MLOAD SWAP1 DUP2 MSTORE RETURN JUMPDEST PUSH1 0x0 DUP1 DUP1 DUP1 DUP5 CALLER GAS CALL PUSH2 0x31B PUSH2 0xDE6 JUMP JUMPDEST POP PUSH2 0x2CA JUMPI JUMPDEST PUSH1 0x40 MLOAD PUSH4 0x12171D83 PUSH1 0xE3 SHL DUP2 MSTORE PUSH1 0x4 SWAP1 REVERT JUMPDEST PUSH1 0x1 PUSH1 0x1 PUSH1 0xA0 SHL SUB PUSH2 0x34E PUSH2 0x349 DUP4 DUP12 DUP7 PUSH2 0xD5F JUMP JUMPDEST PUSH2 0xD6F JUMP JUMPDEST AND ISZERO DUP1 ISZERO PUSH2 0x5D8 JUMPI JUMPDEST PUSH2 0x5C6 JUMPI PUSH2 0x366 DUP2 DUP6 DUP10 PUSH2 0xD5F JUMP JUMPDEST CALLDATALOAD ISZERO PUSH2 0x5BD JUMPI PUSH1 0x1 PUSH1 0x1 PUSH1 0xA0 SHL SUB PUSH2 0x382 PUSH2 0x349 DUP4 DUP12 DUP7 PUSH2 0xD5F JUMP JUMPDEST PUSH1 0x40 MLOAD PUSH4 0x70A08231 PUSH1 0xE0 SHL DUP2 MSTORE ADDRESS PUSH1 0x4 DUP3 ADD MSTORE SWAP2 AND PUSH1 0x20 DUP3 PUSH1 0x24 DUP2 DUP5 GAS STATICCALL SWAP2 DUP3 ISZERO PUSH2 0x54E JUMPI PUSH1 0x0 SWAP3 PUSH2 0x589 JUMPI JUMPDEST POP PUSH2 0x3EC PUSH1 0x20 PUSH2 0x3C0 DUP6 DUP10 DUP14 PUSH2 0xD5F JUMP JUMPDEST PUSH1 0x40 MLOAD PUSH4 0x23B872DD PUSH1 0xE0 SHL DUP2 MSTORE CALLER PUSH1 0x4 DUP3 ADD MSTORE ADDRESS PUSH1 0x24 DUP3 ADD MSTORE SWAP1 CALLDATALOAD PUSH1 0x44 DUP3 ADD MSTORE SWAP2 DUP3 SWAP1 DUP2 SWAP1 PUSH1 0x64 DUP3 ADD SWAP1 JUMP JUMPDEST SUB DUP2 PUSH1 0x0 DUP7 GAS CALL SWAP1 DUP2 ISZERO PUSH2 0x54E JUMPI PUSH1 0x0 SWAP2 PUSH2 0x55A JUMPI JUMPDEST POP ISZERO PUSH2 0x321 JUMPI PUSH1 0x40 MLOAD PUSH4 0x70A08231 PUSH1 0xE0 SHL DUP2 MSTORE ADDRESS PUSH1 0x4 DUP3 ADD MSTORE PUSH1 0x20 DUP2 PUSH1 0x24 DUP2 DUP6 GAS STATICCALL SWAP3 DUP4 ISZERO PUSH2 0x54E JUMPI DUP5 SWAP4 DUP13 SWAP3 PUSH1 0x0 SWAP2 PUSH2 0x513 JUMPI JUMPDEST POP PUSH2 0x349 PUSH2 0x44C PUSH2 0x45A SWAP5 SWAP4 PUSH2 0x455 SWAP4 PUSH2 0xDD9 JUMP JUMPDEST SWAP7 DUP8 SWAP4 DUP10 PUSH2 0xD5F JUMP JUMPDEST PUSH2 0xE49 JUMP JUMPDEST SWAP2 PUSH1 0x3 DUP2 SWAP5 SWAP3 SWAP5 LT ISZERO PUSH2 0x4FD JUMPI DUP5 DUP9 PUSH1 0x40 SWAP4 PUSH2 0x4DD SWAP9 DUP14 PUSH32 0x76B96A5E6B8BF1EC473D94D41818C945B4AD8621008640191099110D5E5273B SWAP8 DUP7 ISZERO PUSH1 0x0 EQ PUSH2 0x4E2 JUMPI POP PUSH2 0x4B5 SWAP5 PUSH2 0x4AE SWAP2 PUSH1 0x64 CALLDATALOAD SWAP6 PUSH2 0xD5F JUMP JUMPDEST CALLDATALOAD SWAP2 PUSH2 0x11C3 JUMP JUMPDEST DUP13 PUSH2 0x4CB PUSH2 0x349 DUP8 PUSH1 0x1 DUP1 PUSH1 0xA0 SHL SUB SWAP4 DUP12 PUSH2 0xD5F JUMP JUMPDEST AND SWAP4 DUP3 MLOAD SWAP2 DUP3 MSTORE PUSH1 0x20 DUP3 ADD MSTORE LOG2 PUSH2 0xD3A JUMP JUMPDEST PUSH2 0x2B2 JUMP JUMPDEST SWAP4 SWAP5 PUSH2 0x4F1 SWAP2 PUSH2 0x4F8 SWAP7 PUSH2 0xD5F JUMP JUMPDEST CALLDATALOAD SWAP2 PUSH2 0x13E1 JUMP JUMPDEST PUSH2 0x4B5 JUMP JUMPDEST PUSH4 0x4E487B71 PUSH1 0xE0 SHL PUSH1 0x0 MSTORE PUSH1 0x21 PUSH1 0x4 MSTORE PUSH1 0x24 PUSH1 0x0 REVERT JUMPDEST SWAP3 POP POP SWAP3 POP PUSH1 0x20 DUP2 RETURNDATASIZE PUSH1 0x20 GT PUSH2 0x546 JUMPI JUMPDEST DUP2 PUSH2 0x531 PUSH1 0x20 SWAP4 DUP4 PUSH2 0xD9F JUMP JUMPDEST DUP2 ADD SUB SLT PUSH2 0x147 JUMPI MLOAD DUP4 SWAP3 DUP12 SWAP2 PUSH2 0x349 PUSH2 0x437 JUMP JUMPDEST RETURNDATASIZE SWAP2 POP PUSH2 0x524 JUMP JUMPDEST PUSH1 0x40 MLOAD RETURNDATASIZE PUSH1 0x0 DUP3 RETURNDATACOPY RETURNDATASIZE SWAP1 REVERT JUMPDEST PUSH2 0x57C SWAP2 POP PUSH1 0x20 RETURNDATASIZE PUSH1 0x20 GT PUSH2 0x582 JUMPI JUMPDEST PUSH2 0x574 DUP2 DUP4 PUSH2 0xD9F JUMP JUMPDEST DUP2 ADD SWAP1 PUSH2 0xDC1 JUMP JUMPDEST DUP12 PUSH2 0x402 JUMP JUMPDEST POP RETURNDATASIZE PUSH2 0x56A JUMP JUMPDEST SWAP1 SWAP2 POP PUSH1 0x20 DUP2 RETURNDATASIZE PUSH1 0x20 GT PUSH2 0x5B5 JUMPI JUMPDEST DUP2 PUSH2 0x5A5 PUSH1 0x20 SWAP4 DUP4 PUSH2 0xD9F JUMP JUMPDEST DUP2 ADD SUB SLT PUSH2 0x147 JUMPI MLOAD SWAP1 DUP11 PUSH2 0x3AF JUMP JUMPDEST RETURNDATASIZE SWAP2 POP PUSH2 0x598 JUMP JUMPDEST PUSH2 0x4DD SWAP1 PUSH2 0xD3A JUMP JUMPDEST PUSH1 0x40 MLOAD PUSH4 0xC1AB6DC1 PUSH1 0xE0 SHL DUP2 MSTORE PUSH1 0x4 SWAP1 REVERT JUMPDEST POP PUSH2 0x5E7 PUSH2 0x349 DUP3 DUP11 DUP6 PUSH2 0xD5F JUMP JUMPDEST PUSH32 0x0 PUSH1 0x1 PUSH1 0x1 PUSH1 0xA0 SHL SUB SWAP1 DUP2 AND SWAP2 AND EQ PUSH2 0x357 JUMP JUMPDEST PUSH1 0x40 MLOAD PUSH3 0x461BCD PUSH1 0xE5 SHL DUP2 MSTORE PUSH1 0x20 PUSH1 0x4 DUP3 ADD MSTORE PUSH1 0x16 PUSH1 0x24 DUP3 ADD MSTORE PUSH22 0x82E4E4C2F240D8CADCCEE8D0E640DAD2E6DAC2E8C6D PUSH1 0x53 SHL PUSH1 0x44 DUP3 ADD MSTORE PUSH1 0x64 SWAP1 REVERT JUMPDEST POP DUP3 DUP7 EQ ISZERO PUSH2 0x2A9 JUMP JUMPDEST PUSH1 0x40 MLOAD PUSH4 0x86724C7F PUSH1 0xE0 SHL DUP2 MSTORE PUSH1 0x4 SWAP1 REVERT JUMPDEST PUSH1 0x40 MLOAD PUSH4 0x1AB7DA6B PUSH1 0xE0 SHL DUP2 MSTORE PUSH1 0x4 SWAP1 REVERT JUMPDEST CALLVALUE PUSH2 0x147 JUMPI PUSH1 0x40 CALLDATASIZE PUSH1 0x3 NOT ADD SLT PUSH2 0x147 JUMPI PUSH2 0x1B PUSH2 0x6A3 PUSH2 0xCC7 JUMP JUMPDEST PUSH1 0x24 CALLDATALOAD SWAP1 PUSH2 0x17EF JUMP JUMPDEST CALLVALUE PUSH2 0x147 JUMPI PUSH1 0x0 CALLDATASIZE PUSH1 0x3 NOT ADD SLT PUSH2 0x147 JUMPI PUSH1 0x40 MLOAD PUSH32 0x0 PUSH1 0x1 PUSH1 0x1 PUSH1 0xA0 SHL SUB AND DUP2 MSTORE PUSH1 0x20 SWAP1 RETURN JUMPDEST CALLVALUE PUSH2 0x147 JUMPI PUSH1 0x0 CALLDATASIZE PUSH1 0x3 NOT ADD SLT PUSH2 0x147 JUMPI PUSH1 0x0 SLOAD PUSH1 0x40 MLOAD PUSH1 0x1 PUSH1 0x1 PUSH1 0xA0 SHL SUB SWAP1 SWAP2 AND DUP2 MSTORE PUSH1 0x20 SWAP1 RETURN JUMPDEST CALLVALUE PUSH2 0x147 JUMPI PUSH1 0x20 CALLDATASIZE PUSH1 0x3 NOT ADD SLT PUSH2 0x147 JUMPI PUSH1 0x4 CALLDATALOAD PUSH1 0x2 SLOAD DUP2 LT ISZERO PUSH2 0x147 JUMPI PUSH3 0xFFFFFF PUSH2 0x747 PUSH1 0x20 SWAP3 PUSH2 0xC72 JUMP JUMPDEST SWAP2 SWAP1 SLOAD PUSH1 0x40 MLOAD SWAP3 PUSH1 0x3 SHL SHR AND DUP2 MSTORE RETURN JUMPDEST CALLVALUE PUSH2 0x147 JUMPI PUSH1 0x20 CALLDATASIZE PUSH1 0x3 NOT ADD SLT PUSH2 0x147 JUMPI PUSH1 0x4 CALLDATALOAD PUSH3 0xFFFFFF SWAP1 DUP2 DUP2 AND DUP1 SWAP2 SUB PUSH2 0x147 JUMPI PUSH2 0x782 PUSH2 0xD0E JUMP JUMPDEST DUP1 ISZERO DUP1 ISZERO PUSH2 0x7F2 JUMPI JUMPDEST PUSH2 0x7E0 JUMPI PUSH1 0x2 SLOAD PUSH9 0x10000000000000000 DUP2 LT ISZERO PUSH2 0x7CA JUMPI DUP1 PUSH1 0x1 PUSH2 0x7B3 SWAP3 ADD PUSH1 0x2 SSTORE PUSH2 0xC72 JUMP JUMPDEST SWAP1 SWAP3 DUP4 SLOAD SWAP2 PUSH1 0x3 SHL SWAP3 DUP4 SHL SWAP3 SHL NOT AND OR SWAP1 SSTORE PUSH1 0x0 DUP1 RETURN JUMPDEST PUSH4 0x4E487B71 PUSH1 0xE0 SHL PUSH1 0x0 MSTORE PUSH1 0x41 PUSH1 0x4 MSTORE PUSH1 0x24 PUSH1 0x0 REVERT JUMPDEST PUSH1 0x40 MLOAD PUSH4 0x58D620B3 PUSH1 0xE0 SHL DUP2 MSTORE PUSH1 0x4 SWAP1 REVERT JUMPDEST POP PUSH3 0x186A0 DUP2 GT PUSH2 0x78B JUMP JUMPDEST CALLVALUE PUSH2 0x147 JUMPI PUSH1 0x40 CALLDATASIZE PUSH1 0x3 NOT ADD SLT PUSH2 0x147 JUMPI PUSH8 0xFFFFFFFFFFFFFFFF PUSH1 0x4 CALLDATALOAD GT PUSH2 0x147 JUMPI CALLDATASIZE PUSH1 0x23 PUSH1 0x4 CALLDATALOAD ADD SLT ISZERO PUSH2 0x147 JUMPI PUSH8 0xFFFFFFFFFFFFFFFF PUSH1 0x4 CALLDATALOAD PUSH1 0x4 ADD CALLDATALOAD GT PUSH2 0x147 JUMPI CALLDATASIZE PUSH1 0x24 PUSH1 0xA0 PUSH1 0x4 CALLDATALOAD PUSH1 0x4 ADD CALLDATALOAD MUL PUSH1 0x4 CALLDATALOAD ADD ADD GT PUSH2 0x147 JUMPI PUSH2 0x861 PUSH2 0xE26 JUMP JUMPDEST PUSH1 0x24 CALLDATALOAD TIMESTAMP GT PUSH2 0x675 JUMPI PUSH1 0x4 CALLDATALOAD PUSH1 0x4 ADD CALLDATALOAD ISZERO PUSH2 0x663 JUMPI SELFBALANCE PUSH1 0x0 JUMPDEST PUSH1 0x4 CALLDATALOAD PUSH1 0x4 ADD CALLDATALOAD DUP2 LT PUSH2 0x905 JUMPI PUSH2 0x891 DUP3 SELFBALANCE PUSH2 0xDD9 JUMP JUMPDEST DUP1 PUSH2 0x8DD JUMPI JUMPDEST PUSH1 0x20 SWAP1 PUSH1 0x40 MLOAD PUSH1 0x4 CALLDATALOAD PUSH1 0x4 ADD CALLDATALOAD DUP2 MSTORE DUP2 DUP4 DUP3 ADD MSTORE PUSH32 0xC767DE13F13F210028EE47BBC51D3B5C5BDD470EDDF6CC16787D8F41F82D537E PUSH1 0x40 CALLER SWAP3 LOG2 PUSH1 0x1 DUP1 SSTORE PUSH1 0x40 MLOAD SWAP1 DUP2 MSTORE RETURN JUMPDEST PUSH1 0x0 DUP1 DUP1 DUP1 DUP5 CALLER GAS CALL PUSH2 0x8EE PUSH2 0xDE6 JUMP JUMPDEST POP PUSH2 0x897 JUMPI PUSH1 0x40 MLOAD PUSH4 0x12171D83 PUSH1 0xE3 SHL DUP2 MSTORE PUSH1 0x4 SWAP1 REVERT JUMPDEST PUSH1 0xA0 DUP2 MUL PUSH1 0x4 CALLDATALOAD ADD SWAP1 PUSH1 0xA0 PUSH1 0x23 NOT DUP4 CALLDATASIZE SUB ADD SLT PUSH2 0x147 JUMPI PUSH1 0x40 MLOAD SWAP2 PUSH1 0xA0 DUP4 ADD DUP4 DUP2 LT PUSH8 0xFFFFFFFFFFFFFFFF DUP3 GT OR PUSH2 0x7CA JUMPI PUSH1 0x40 MSTORE PUSH1 0x24 DUP2 ADD CALLDATALOAD PUSH1 0x1 PUSH1 0x1 PUSH1 0xA0 SHL SUB DUP2 AND SWAP2 SWAP1 DUP3 DUP2 SUB PUSH2 0x147 JUMPI DUP5 MSTORE PUSH1 0x44 DUP2 ADD CALLDATALOAD PUSH1 0x20 DUP6 ADD MSTORE PUSH1 0x64 DUP2 ADD CALLDATALOAD PUSH1 0x40 DUP6 ADD MSTORE PUSH1 0x84 DUP2 ADD CALLDATALOAD SWAP1 PUSH1 0x3 DUP3 LT ISZERO PUSH2 0x147 JUMPI PUSH1 0xA4 SWAP2 PUSH1 0x60 DUP7 ADD MSTORE ADD CALLDATALOAD PUSH3 0xFFFFFF DUP2 AND DUP2 SUB PUSH2 0x147 JUMPI PUSH1 0x80 DUP5 ADD MSTORE DUP1 ISZERO SWAP1 DUP2 ISZERO PUSH2 0xBA4 JUMPI JUMPDEST POP PUSH2 0x5C6 JUMPI PUSH1 0x20 DUP3 ADD MLOAD ISZERO PUSH2 0xB9A JUMPI DUP2 MLOAD PUSH1 0x40 MLOAD PUSH4 0x70A08231 PUSH1 0xE0 SHL DUP2 MSTORE ADDRESS PUSH1 0x4 DUP3 ADD MSTORE PUSH1 0x1 PUSH1 0x1 PUSH1 0xA0 SHL SUB SWAP1 SWAP2 AND SWAP1 PUSH1 0x20 DUP2 PUSH1 0x24 DUP2 DUP6 GAS STATICCALL SWAP1 DUP2 ISZERO PUSH2 0x54E JUMPI PUSH1 0x0 SWAP2 PUSH2 0xB68 JUMPI JUMPDEST POP PUSH1 0x20 DUP5 DUP2 ADD MLOAD PUSH1 0x40 MLOAD PUSH4 0x23B872DD PUSH1 0xE0 SHL DUP2 MSTORE CALLER PUSH1 0x4 DUP3 ADD MSTORE ADDRESS PUSH1 0x24 DUP3 ADD MSTORE PUSH1 0x44 DUP2 ADD SWAP2 SWAP1 SWAP2 MSTORE SWAP1 DUP2 PUSH1 0x64 DUP2 PUSH1 0x0 DUP8 GAS CALL SWAP1 DUP2 ISZERO PUSH2 0x54E JUMPI PUSH1 0x0 SWAP2 PUSH2 0xB49 JUMPI JUMPDEST POP ISZERO PUSH2 0x321 JUMPI PUSH1 0x40 MLOAD PUSH4 0x70A08231 PUSH1 0xE0 SHL DUP2 MSTORE ADDRESS PUSH1 0x4 DUP3 ADD MSTORE SWAP1 PUSH1 0x20 DUP3 PUSH1 0x24 DUP2 DUP7 GAS STATICCALL DUP1 ISZERO PUSH2 0x54E JUMPI PUSH1 0x0 SWAP1 PUSH2 0xB15 JUMPI JUMPDEST PUSH2 0xA60 SWAP3 POP PUSH2 0xDD9 JUMP JUMPDEST PUSH1 0x60 DUP5 ADD MLOAD PUSH1 0x3 DUP2 LT ISZERO PUSH2 0x4FD JUMPI PUSH2 0xA93 JUMPI SWAP3 PUSH2 0xA89 SWAP2 PUSH2 0xA8E SWAP5 PUSH1 0x40 PUSH1 0x24 CALLDATALOAD SWAP4 ADD MLOAD SWAP2 PUSH2 0x11C3 JUMP JUMPDEST PUSH2 0xD3A JUMP JUMPDEST PUSH2 0x87A JUMP JUMPDEST SWAP3 PUSH1 0x60 DUP2 ADD MLOAD PUSH1 0x3 DUP2 LT ISZERO PUSH2 0x4FD JUMPI PUSH1 0x1 SUB PUSH2 0xAC7 JUMPI SWAP1 DUP2 PUSH2 0xA8E SWAP5 PUSH3 0xFFFFFF PUSH1 0x80 PUSH1 0x40 PUSH2 0xA89 SWAP7 ADD MLOAD SWAP4 ADD MLOAD AND SWAP3 PUSH2 0x13E1 JUMP JUMPDEST DUP1 MLOAD PUSH2 0xADD SWAP1 DUP6 SWAP1 PUSH1 0x1 PUSH1 0x1 PUSH1 0xA0 SHL SUB AND PUSH2 0xE49 JUMP JUMPDEST SWAP4 SWAP2 SWAP6 SWAP1 POP PUSH1 0x3 DUP7 LT ISZERO PUSH2 0x4FD JUMPI PUSH2 0xA8E SWAP6 PUSH2 0xB06 JUMPI PUSH2 0xA89 SWAP4 POP PUSH1 0x40 PUSH1 0x24 CALLDATALOAD SWAP4 ADD MLOAD SWAP2 PUSH2 0x11C3 JUMP JUMPDEST PUSH1 0x40 PUSH2 0xA89 SWAP5 SWAP4 ADD MLOAD SWAP2 PUSH2 0x13E1 JUMP JUMPDEST POP PUSH1 0x20 DUP3 RETURNDATASIZE PUSH1 0x20 GT PUSH2 0xB41 JUMPI JUMPDEST DUP2 PUSH2 0xB2F PUSH1 0x20 SWAP4 DUP4 PUSH2 0xD9F JUMP JUMPDEST DUP2 ADD SUB SLT PUSH2 0x147 JUMPI PUSH2 0xA60 SWAP2 MLOAD PUSH2 0xA56 JUMP JUMPDEST RETURNDATASIZE SWAP2 POP PUSH2 0xB22 JUMP JUMPDEST PUSH2 0xB62 SWAP2 POP PUSH1 0x20 RETURNDATASIZE PUSH1 0x20 GT PUSH2 0x582 JUMPI PUSH2 0x574 DUP2 DUP4 PUSH2 0xD9F JUMP JUMPDEST DUP7 PUSH2 0xA25 JUMP JUMPDEST SWAP1 POP PUSH1 0x20 DUP2 RETURNDATASIZE PUSH1 0x20 GT PUSH2 0xB92 JUMPI JUMPDEST DUP2 PUSH2 0xB83 PUSH1 0x20 SWAP4 DUP4 PUSH2 0xD9F JUMP JUMPDEST DUP2 ADD SUB SLT PUSH2 0x147 JUMPI MLOAD DUP6 PUSH2 0x9E4 JUMP JUMPDEST RETURNDATASIZE SWAP2 POP PUSH2 0xB76 JUMP JUMPDEST PUSH2 0xA8E SWAP2 POP PUSH2 0xD3A JUMP JUMPDEST PUSH32 0x0 PUSH1 0x1 PUSH1 0x1 PUSH1 0xA0 SHL SUB AND EQ SWAP1 POP DUP5 PUSH2 0x99C JUMP JUMPDEST CALLVALUE PUSH2 0x147 JUMPI PUSH1 0x0 CALLDATASIZE PUSH1 0x3 NOT ADD SLT PUSH2 0x147 JUMPI PUSH2 0xBF0 PUSH2 0xD0E JUMP JUMPDEST PUSH1 0x0 DUP1 SLOAD PUSH1 0x1 PUSH1 0x1 PUSH1 0xA0 SHL SUB NOT DUP2 AND DUP3 SSTORE PUSH1 0x1 PUSH1 0x1 PUSH1 0xA0 SHL SUB AND PUSH32 0x8BE0079C531659141344CD1FD0A4F28419497F9722A3DAAFE3B4186F6B6457E0 DUP3 DUP1 LOG3 STOP JUMPDEST CALLVALUE PUSH2 0x147 JUMPI PUSH1 0x0 CALLDATASIZE PUSH1 0x3 NOT ADD SLT PUSH2 0x147 JUMPI PUSH32 0x0 PUSH1 0x1 PUSH1 0x1 PUSH1 0xA0 SHL SUB AND DUP2 MSTORE PUSH1 0x20 SWAP1 RETURN JUMPDEST SWAP1 PUSH1 0x2 SLOAD DUP3 LT ISZERO PUSH2 0xCB1 JUMPI PUSH1 0x2 PUSH1 0x0 MSTORE PUSH1 0x3 PUSH1 0xA DUP1 DUP5 DIV PUSH32 0x405787FA12A823E0F2B7631CC41B3BA8828B3321CA811111FA75CD3AA3BB5ACE ADD SWAP4 MOD MUL SWAP1 JUMP JUMPDEST PUSH4 0x4E487B71 PUSH1 0xE0 SHL PUSH1 0x0 MSTORE PUSH1 0x32 PUSH1 0x4 MSTORE PUSH1 0x24 PUSH1 0x0 REVERT JUMPDEST PUSH1 0x4 CALLDATALOAD SWAP1 PUSH1 0x1 PUSH1 0x1 PUSH1 0xA0 SHL SUB DUP3 AND DUP3 SUB PUSH2 0x147 JUMPI JUMP JUMPDEST SWAP2 DUP2 PUSH1 0x1F DUP5 ADD SLT ISZERO PUSH2 0x147 JUMPI DUP3 CALLDATALOAD SWAP2 PUSH8 0xFFFFFFFFFFFFFFFF DUP4 GT PUSH2 0x147 JUMPI PUSH1 0x20 DUP1 DUP6 ADD SWAP5 DUP5 PUSH1 0x5 SHL ADD ADD GT PUSH2 0x147 JUMPI JUMP JUMPDEST PUSH1 0x0 SLOAD PUSH1 0x1 PUSH1 0x1 PUSH1 0xA0 SHL SUB AND CALLER SUB PUSH2 0xD22 JUMPI JUMP JUMPDEST PUSH1 0x40 MLOAD PUSH4 0x118CDAA7 PUSH1 0xE0 SHL DUP2 MSTORE CALLER PUSH1 0x4 DUP3 ADD MSTORE PUSH1 0x24 SWAP1 REVERT JUMPDEST PUSH1 0x0 NOT DUP2 EQ PUSH2 0xD49 JUMPI PUSH1 0x1 ADD SWAP1 JUMP JUMPDEST PUSH4 0x4E487B71 PUSH1 0xE0 SHL PUSH1 0x0 MSTORE PUSH1 0x11 PUSH1 0x4 MSTORE PUSH1 0x24 PUSH1 0x0 REVERT JUMPDEST SWAP2 SWAP1 DUP2 LT ISZERO PUSH2 0xCB1 JUMPI PUSH1 0x5 SHL ADD SWAP1 JUMP JUMPDEST CALLDATALOAD PUSH1 0x1 PUSH1 0x1 PUSH1 0xA0 SHL SUB DUP2 AND DUP2 SUB PUSH2 0x147 JUMPI SWAP1 JUMP JUMPDEST PUSH1 0x60 DUP2 ADD SWAP1 DUP2 LT PUSH8 0xFFFFFFFFFFFFFFFF DUP3 GT OR PUSH2 0x7CA JUMPI PUSH1 0x40 MSTORE JUMP JUMPDEST SWAP1 PUSH1 0x1F DUP1 NOT SWAP2 ADD AND DUP2 ADD SWAP1 DUP2 LT PUSH8 0xFFFFFFFFFFFFFFFF DUP3 GT OR PUSH2 0x7CA JUMPI PUSH1 0x40 MSTORE JUMP JUMPDEST SWAP1 DUP2 PUSH1 0x20 SWAP2 SUB SLT PUSH2 0x147 JUMPI MLOAD DUP1 ISZERO ISZERO DUP2 SUB PUSH2 0x147 JUMPI SWAP1 JUMP JUMPDEST SWAP2 SWAP1 DUP3 SUB SWAP2 DUP3 GT PUSH2 0xD49 JUMPI JUMP JUMPDEST RETURNDATASIZE ISZERO PUSH2 0xE21 JUMPI RETURNDATASIZE SWAP1 PUSH8 0xFFFFFFFFFFFFFFFF DUP3 GT PUSH2 0x7CA JUMPI PUSH1 0x40 MLOAD SWAP2 PUSH2 0xE15 PUSH1 0x1F DUP3 ADD PUSH1 0x1F NOT AND PUSH1 0x20 ADD DUP5 PUSH2 0xD9F JUMP JUMPDEST DUP3 MSTORE RETURNDATASIZE PUSH1 0x0 PUSH1 0x20 DUP5 ADD RETURNDATACOPY JUMP JUMPDEST PUSH1 0x60 SWAP1 JUMP JUMPDEST PUSH1 0x2 PUSH1 0x1 SLOAD EQ PUSH2 0xE37 JUMPI PUSH1 0x2 PUSH1 0x1 SSTORE JUMP JUMPDEST PUSH1 0x40 MLOAD PUSH4 0x3EE5AEB5 PUSH1 0xE0 SHL DUP2 MSTORE PUSH1 0x4 SWAP1 REVERT JUMPDEST SWAP2 SWAP1 PUSH2 0xE59 SWAP1 PUSH2 0x17B DUP2 DUP6 PUSH2 0xF49 JUMP JUMPDEST DUP2 DUP5 LT PUSH2 0xE6B JUMPI POP POP PUSH1 0x0 SWAP2 SWAP1 PUSH1 0x0 SWAP1 JUMP JUMPDEST PUSH1 0x1 SWAP4 POP SWAP1 SWAP2 JUMP JUMPDEST DUP1 MLOAD ISZERO PUSH2 0xCB1 JUMPI PUSH1 0x20 ADD SWAP1 JUMP JUMPDEST DUP1 MLOAD PUSH1 0x1 LT ISZERO PUSH2 0xCB1 JUMPI PUSH1 0x40 ADD SWAP1 JUMP JUMPDEST SWAP1 PUSH1 0x20 SWAP1 DUP2 DUP4 DUP3 SUB SLT PUSH2 0x147 JUMPI DUP3 MLOAD PUSH8 0xFFFFFFFFFFFFFFFF SWAP4 DUP5 DUP3 GT PUSH2 0x147 JUMPI ADD DUP2 PUSH1 0x1F DUP3 ADD SLT ISZERO PUSH2 0x147 JUMPI DUP1 MLOAD SWAP4 DUP5 GT PUSH2 0x7CA JUMPI DUP4 PUSH1 0x5 SHL SWAP1 PUSH1 0x40 MLOAD SWAP5 PUSH2 0xEDA DUP6 DUP5 ADD DUP8 PUSH2 0xD9F JUMP JUMPDEST DUP6 MSTORE DUP4 DUP1 DUP7 ADD SWAP3 DUP3 ADD ADD SWAP3 DUP4 GT PUSH2 0x147 JUMPI DUP4 ADD SWAP1 JUMPDEST DUP3 DUP3 LT PUSH2 0xEFD JUMPI POP POP POP POP SWAP1 JUMP JUMPDEST DUP2 MLOAD DUP2 MSTORE SWAP1 DUP4 ADD SWAP1 DUP4 ADD PUSH2 0xEEF JUMP JUMPDEST SWAP1 DUP2 MLOAD DUP1 DUP3 MSTORE PUSH1 0x20 DUP1 DUP1 SWAP4 ADD SWAP4 ADD SWAP2 PUSH1 0x0 JUMPDEST DUP3 DUP2 LT PUSH2 0xF2C JUMPI POP POP POP POP SWAP1 JUMP JUMPDEST DUP4 MLOAD PUSH1 0x1 PUSH1 0x1 PUSH1 0xA0 SHL SUB AND DUP6 MSTORE SWAP4 DUP2 ADD SWAP4 SWAP3 DUP2 ADD SWAP3 PUSH1 0x1 ADD PUSH2 0xF1E JUMP JUMPDEST PUSH2 0xFD6 SWAP2 PUSH1 0x0 SWAP2 PUSH1 0x40 MLOAD SWAP2 PUSH2 0xF5D DUP4 PUSH2 0xD83 JUMP JUMPDEST PUSH1 0x2 DUP4 MSTORE PUSH1 0x40 CALLDATASIZE PUSH1 0x20 DUP6 ADD CALLDATACOPY PUSH2 0xF72 DUP4 PUSH2 0xE73 JUMP JUMPDEST PUSH1 0x1 PUSH1 0x1 PUSH1 0xA0 SHL SUB SWAP3 DUP4 AND SWAP1 MSTORE PUSH2 0xF88 DUP4 PUSH2 0xE80 JUMP JUMPDEST DUP3 PUSH32 0x0 AND SWAP1 MSTORE PUSH1 0x40 MLOAD DUP1 SWAP6 DUP2 SWAP5 DUP3 SWAP4 PUSH4 0xD06CA61F PUSH1 0xE0 SHL DUP5 MSTORE PUSH1 0x4 DUP5 ADD MSTORE PUSH1 0x40 PUSH1 0x24 DUP5 ADD MSTORE PUSH1 0x44 DUP4 ADD SWAP1 PUSH2 0xF0C JUMP JUMPDEST SUB SWAP2 PUSH32 0x0 AND GAS STATICCALL PUSH1 0x0 SWAP2 DUP2 PUSH2 0x101D JUMPI JUMPDEST POP PUSH2 0x1010 JUMPI POP PUSH1 0x0 SWAP1 JUMP JUMPDEST PUSH2 0x1019 SWAP1 PUSH2 0xE80 JUMP JUMPDEST MLOAD SWAP1 JUMP JUMPDEST PUSH2 0x1039 SWAP2 SWAP3 RETURNDATASIZE DUP1 SWAP2 DUP4 RETURNDATACOPY PUSH2 0x1031 DUP2 DUP4 PUSH2 0xD9F JUMP JUMPDEST DUP2 ADD SWAP1 PUSH2 0xE90 JUMP JUMPDEST SWAP1 CODESIZE PUSH2 0x1005 JUMP JUMPDEST PUSH1 0x0 SWAP3 SWAP2 PUSH1 0x1 PUSH1 0x1 PUSH1 0xA0 SHL SUB SWAP2 PUSH32 0x0 DUP4 AND SWAP2 DUP6 SWAP1 PUSH32 0x0 DUP6 AND SWAP1 DUP3 DUP1 JUMPDEST PUSH1 0x2 SLOAD DUP2 LT ISZERO PUSH2 0x117E JUMPI PUSH2 0x10AD DUP2 PUSH2 0xC72 JUMP JUMPDEST SWAP1 SLOAD PUSH1 0x40 MLOAD PUSH4 0xF7729D43 PUSH1 0xE0 SHL DUP2 MSTORE DUP11 DUP10 AND PUSH1 0x4 DUP3 ADD MSTORE DUP10 PUSH1 0x24 DUP3 ADD MSTORE PUSH3 0xFFFFFF DUP1 SWAP3 PUSH1 0x3 SWAP5 DUP6 SHL SHR AND PUSH1 0x44 DUP3 ADD MSTORE DUP6 PUSH1 0x64 DUP3 ADD MSTORE DUP13 PUSH1 0x84 DUP3 ADD MSTORE DUP13 PUSH1 0x20 SWAP2 DUP3 DUP2 PUSH1 0xA4 DUP2 DUP6 DUP14 GAS CALL SWAP2 SWAP3 DUP3 PUSH2 0x114A JUMPI JUMPDEST POP POP PUSH2 0x1114 JUMPI POP POP POP PUSH2 0x110F SWAP1 PUSH2 0xD3A JUMP JUMPDEST PUSH2 0x109A JUMP JUMPDEST DUP8 DUP2 GT PUSH2 0x1128 JUMPI JUMPDEST POP POP POP PUSH2 0x110F SWAP1 PUSH2 0xD3A JUMP JUMPDEST SWAP7 POP SWAP2 SWAP3 POP PUSH2 0x110F SWAP2 SWAP1 PUSH2 0x113B DUP5 PUSH2 0xC72 JUMP JUMPDEST SWAP1 SLOAD SWAP2 SHL SHR AND SWAP2 SWAP1 CODESIZE DUP1 PUSH2 0x111C JUMP JUMPDEST SWAP1 DUP1 SWAP3 SWAP4 POP DUP2 RETURNDATASIZE DUP4 GT PUSH2 0x1177 JUMPI JUMPDEST PUSH2 0x1162 DUP2 DUP4 PUSH2 0xD9F JUMP JUMPDEST DUP2 ADD SUB SLT PUSH2 0x1173 JUMPI MLOAD SWAP1 CODESIZE DUP1 PUSH2 0x10FD JUMP JUMPDEST DUP14 DUP1 REVERT JUMPDEST POP RETURNDATASIZE PUSH2 0x1158 JUMP JUMPDEST POP SWAP7 SWAP6 POP POP POP SWAP5 POP POP POP JUMP JUMPDEST SWAP2 SWAP3 PUSH1 0x80 SWAP4 PUSH2 0x11AF SWAP3 SWAP8 SWAP7 SWAP6 SWAP8 DUP5 MSTORE PUSH1 0x20 DUP5 ADD MSTORE PUSH1 0xA0 PUSH1 0x40 DUP5 ADD MSTORE PUSH1 0xA0 DUP4 ADD SWAP1 PUSH2 0xF0C JUMP JUMPDEST PUSH1 0x1 PUSH1 0x1 PUSH1 0xA0 SHL SUB SWAP1 SWAP6 AND PUSH1 0x60 DUP3 ADD MSTORE ADD MSTORE JUMP JUMPDEST PUSH1 0x40 DUP1 MLOAD PUSH4 0x95EA7B3 PUSH1 0xE0 SHL DUP2 MSTORE PUSH1 0x1 PUSH1 0x1 PUSH1 0xA0 SHL SUB PUSH32 0x0 DUP2 AND PUSH1 0x4 DUP4 ADD DUP2 SWAP1 MSTORE PUSH1 0x24 DUP4 ADD DUP7 SWAP1 MSTORE PUSH1 0x20 SWAP8 PUSH1 0x0 SWAP8 SWAP5 SWAP7 SWAP6 DUP4 AND SWAP6 SWAP5 SWAP1 SWAP4 SWAP2 SWAP3 SWAP1 SWAP2 DUP10 DUP2 PUSH1 0x44 DUP2 DUP13 DUP12 GAS CALL DUP1 ISZERO PUSH2 0x13D7 JUMPI DUP10 SWAP5 SWAP3 PUSH2 0x12AC SWAP7 SWAP5 SWAP3 DUP7 SWAP3 PUSH2 0x13BA JUMPI JUMPDEST POP DUP10 MLOAD SWAP1 PUSH2 0x1249 DUP3 PUSH2 0xD83 JUMP JUMPDEST PUSH1 0x2 DUP3 MSTORE DUP11 CALLDATASIZE DUP15 DUP5 ADD CALLDATACOPY DUP10 PUSH2 0x125D DUP4 PUSH2 0xE73 JUMP JUMPDEST MSTORE PUSH2 0x1267 DUP3 PUSH2 0xE80 JUMP JUMPDEST PUSH32 0x0 SWAP1 SWAP2 AND SWAP1 MSTORE DUP10 MLOAD PUSH4 0x18CBAFE5 PUSH1 0xE0 SHL DUP2 MSTORE SWAP7 DUP8 SWAP6 DUP7 SWAP5 DUP6 SWAP4 ADDRESS SWAP2 DUP13 PUSH1 0x4 DUP8 ADD PUSH2 0x118A JUMP JUMPDEST SUB SWAP3 GAS CALL DUP6 SWAP2 DUP2 PUSH2 0x139E JUMPI JUMPDEST POP PUSH2 0x131C JUMPI POP DUP3 MLOAD PUSH4 0xA9059CBB PUSH1 0xE0 SHL DUP2 MSTORE CALLER PUSH1 0x4 DUP3 ADD MSTORE PUSH1 0x24 DUP2 ADD SWAP2 SWAP1 SWAP2 MSTORE SWAP3 SWAP1 DUP5 SWAP1 DUP5 SWAP1 PUSH1 0x44 SWAP1 DUP3 SWAP1 DUP6 SWAP1 GAS CALL SWAP2 DUP3 ISZERO PUSH2 0x1312 JUMPI POP POP PUSH2 0x12F9 JUMPI JUMPDEST POP POP JUMP JUMPDEST DUP2 PUSH2 0x130F SWAP3 SWAP1 RETURNDATASIZE LT PUSH2 0x582 JUMPI PUSH2 0x574 DUP2 DUP4 PUSH2 0xD9F JUMP JUMPDEST POP JUMP JUMPDEST MLOAD SWAP1 RETURNDATASIZE SWAP1 DUP3 RETURNDATACOPY RETURNDATASIZE SWAP1 REVERT JUMPDEST DUP1 MLOAD SWAP3 SWAP6 SWAP2 SWAP5 SWAP4 SWAP3 PUSH1 0x0 NOT DUP2 ADD SWAP1 DUP2 GT PUSH2 0x138A JUMPI DUP2 MLOAD DUP2 LT ISZERO PUSH2 0x1376 JUMPI SWAP1 DUP3 SWAP2 PUSH1 0x5 SHL ADD ADD MLOAD SWAP1 DUP3 MLOAD SWAP5 DUP6 MSTORE DUP5 ADD MSTORE DUP3 ADD MSTORE PUSH32 0xA2C87ABC3341789E0370A7BAABED4F58835304C2B16A29536744AD19FCFD2E84 PUSH1 0x60 CALLER SWAP3 LOG3 JUMP JUMPDEST PUSH4 0x4E487B71 PUSH1 0xE0 SHL DUP6 MSTORE PUSH1 0x32 PUSH1 0x4 MSTORE PUSH1 0x24 DUP6 REVERT JUMPDEST PUSH4 0x4E487B71 PUSH1 0xE0 SHL DUP6 MSTORE PUSH1 0x11 PUSH1 0x4 MSTORE PUSH1 0x24 DUP6 REVERT JUMPDEST PUSH2 0x13B3 SWAP2 SWAP3 POP RETURNDATASIZE DUP1 DUP9 DUP4 RETURNDATACOPY PUSH2 0x1031 DUP2 DUP4 PUSH2 0xD9F JUMP JUMPDEST SWAP1 CODESIZE PUSH2 0x12B8 JUMP JUMPDEST PUSH2 0x13D0 SWAP1 DUP14 DUP1 RETURNDATASIZE LT PUSH2 0x582 JUMPI PUSH2 0x574 DUP2 DUP4 PUSH2 0xD9F JUMP JUMPDEST POP CODESIZE PUSH2 0x123C JUMP JUMPDEST DUP9 MLOAD RETURNDATASIZE DUP12 DUP3 RETURNDATACOPY RETURNDATASIZE SWAP1 REVERT JUMPDEST PUSH1 0x40 DUP1 MLOAD PUSH4 0x95EA7B3 PUSH1 0xE0 SHL DUP2 MSTORE PUSH1 0x1 PUSH1 0x1 PUSH1 0xA0 SHL SUB PUSH32 0x0 DUP2 AND PUSH1 0x4 DUP4 ADD MSTORE PUSH1 0x24 DUP3 ADD DUP6 SWAP1 MSTORE PUSH1 0x0 SWAP8 SWAP7 SWAP3 SWAP6 SWAP4 AND SWAP4 SWAP3 SWAP1 PUSH1 0x20 DUP2 PUSH1 0x44 DUP2 DUP12 DUP10 GAS CALL DUP1 ISZERO PUSH2 0x17E5 JUMPI PUSH2 0x17C6 JUMPI JUMPDEST POP DUP5 MLOAD SWAP2 PUSH1 0xE0 DUP4 ADD DUP4 DUP2 LT PUSH8 0xFFFFFFFFFFFFFFFF DUP3 GT OR PUSH2 0x17B2 JUMPI DUP7 MSTORE DUP5 DUP4 MSTORE PUSH1 0x1 PUSH1 0x1 PUSH1 0xA0 SHL SUB PUSH32 0x0 DUP2 AND PUSH1 0x20 DUP1 DUP7 ADD SWAP2 DUP3 MSTORE PUSH3 0xFFFFFF SWAP4 DUP5 AND DUP7 DUP11 ADD SWAP1 DUP2 MSTORE ADDRESS PUSH1 0x60 DUP9 ADD SWAP1 DUP2 MSTORE PUSH1 0x80 DUP9 ADD DUP10 DUP2 MSTORE PUSH1 0xA0 DUP10 ADD SWAP8 DUP9 MSTORE PUSH1 0xC0 DUP10 ADD DUP15 DUP2 MSTORE DUP13 MLOAD PUSH4 0x4E45AAF PUSH1 0xE0 SHL DUP2 MSTORE SWAP10 MLOAD DUP8 AND PUSH1 0x4 DUP12 ADD MSTORE SWAP5 MLOAD DUP7 AND PUSH1 0x24 DUP11 ADD MSTORE SWAP2 MLOAD SWAP1 SWAP6 AND PUSH1 0x44 DUP9 ADD MSTORE SWAP4 MLOAD DUP4 AND PUSH1 0x64 DUP8 ADD MSTORE SWAP3 MLOAD PUSH1 0x84 DUP7 ADD MSTORE SWAP3 MLOAD PUSH1 0xA4 DUP6 ADD MSTORE SWAP2 MLOAD DUP3 AND PUSH1 0xC4 DUP5 ADD MSTORE SWAP1 DUP3 SWAP1 PUSH1 0xE4 SWAP1 DUP3 SWAP1 DUP11 SWAP1 PUSH32 0x0 AND GAS CALL DUP7 SWAP2 DUP2 PUSH2 0x177A JUMPI JUMPDEST POP PUSH2 0x159A JUMPI POP DUP3 MLOAD PUSH4 0xA9059CBB PUSH1 0xE0 SHL DUP2 MSTORE CALLER PUSH1 0x4 DUP3 ADD MSTORE PUSH1 0x24 DUP2 ADD SWAP2 SWAP1 SWAP2 MSTORE SWAP3 SWAP4 SWAP1 PUSH1 0x20 SWAP1 DUP5 SWAP1 PUSH1 0x44 SWAP1 DUP3 SWAP1 DUP6 SWAP1 GAS CALL SWAP2 DUP3 ISZERO PUSH2 0x1312 JUMPI POP POP PUSH2 0x1582 JUMPI POP JUMP JUMPDEST PUSH2 0x130F SWAP1 PUSH1 0x20 RETURNDATASIZE PUSH1 0x20 GT PUSH2 0x582 JUMPI PUSH2 0x574 DUP2 DUP4 PUSH2 0xD9F JUMP JUMPDEST DUP4 MLOAD PUSH4 0x95EA7B3 PUSH1 0xE0 SHL DUP2 MSTORE PUSH32 0x0 PUSH1 0x1 PUSH1 0x1 PUSH1 0xA0 SHL SUB AND PUSH1 0x4 DUP3 ADD DUP2 SWAP1 MSTORE PUSH1 0x24 DUP3 ADD DUP4 SWAP1 MSTORE SWAP7 SWAP4 SWAP5 SWAP3 SWAP4 SWAP1 PUSH1 0x20 DUP2 DUP1 PUSH1 0x44 DUP2 ADD SUB DUP2 DUP6 PUSH32 0x0 PUSH1 0x1 PUSH1 0x1 PUSH1 0xA0 SHL SUB AND GAS CALL DUP1 ISZERO PUSH2 0x1770 JUMPI PUSH2 0x1751 JUMPI JUMPDEST POP DUP3 MLOAD SWAP7 DUP4 DUP9 ADD DUP9 DUP2 LT PUSH8 0xFFFFFFFFFFFFFFFF DUP3 GT OR PUSH2 0x173D JUMPI DUP5 MSTORE PUSH1 0x1 DUP9 MSTORE PUSH1 0x20 CALLDATASIZE DUP2 DUP11 ADD CALLDATACOPY PUSH32 0x0 PUSH1 0x1 PUSH1 0x1 PUSH1 0xA0 SHL SUB AND PUSH2 0x1680 DUP10 PUSH2 0xE73 JUMP JUMPDEST MSTORE PUSH2 0x12C TIMESTAMP ADD SWAP8 DUP9 TIMESTAMP GT PUSH2 0x1729 JUMPI SWAP8 DUP3 SWAP2 PUSH2 0x16B5 SWAP10 DUP4 DUP8 MLOAD DUP1 SWAP13 DUP2 SWAP6 DUP3 SWAP5 PUSH4 0x18CBAFE5 PUSH1 0xE0 SHL DUP5 MSTORE ADDRESS SWAP1 DUP12 DUP1 PUSH1 0x4 DUP8 ADD PUSH2 0x118A JUMP JUMPDEST SUB SWAP3 GAS CALL SWAP7 DUP8 ISZERO PUSH2 0x171D JUMPI PUSH1 0x1 SWAP5 SWAP6 SWAP7 SWAP8 PUSH2 0x1702 JUMPI JUMPDEST POP POP DUP2 MLOAD SWAP4 DUP5 MSTORE PUSH1 0x20 DUP5 ADD MSTORE DUP3 ADD MSTORE PUSH32 0xA2C87ABC3341789E0370A7BAABED4F58835304C2B16A29536744AD19FCFD2E84 PUSH1 0x60 CALLER SWAP3 LOG3 JUMP JUMPDEST PUSH2 0x1715 SWAP2 RETURNDATASIZE DUP1 SWAP2 DUP4 RETURNDATACOPY PUSH2 0x1031 DUP2 DUP4 PUSH2 0xD9F JUMP JUMPDEST POP CODESIZE DUP1 PUSH2 0x16CB JUMP JUMPDEST POP DUP3 MLOAD SWAP1 RETURNDATASIZE SWAP1 DUP3 RETURNDATACOPY RETURNDATASIZE SWAP1 REVERT JUMPDEST PUSH4 0x4E487B71 PUSH1 0xE0 SHL DUP4 MSTORE PUSH1 0x11 PUSH1 0x4 MSTORE PUSH1 0x24 DUP4 REVERT JUMPDEST PUSH4 0x4E487B71 PUSH1 0xE0 SHL DUP4 MSTORE PUSH1 0x41 PUSH1 0x4 MSTORE PUSH1 0x24 DUP4 REVERT JUMPDEST PUSH2 0x1769 SWAP1 PUSH1 0x20 RETURNDATASIZE PUSH1 0x20 GT PUSH2 0x582 JUMPI PUSH2 0x574 DUP2 DUP4 PUSH2 0xD9F JUMP JUMPDEST POP CODESIZE PUSH2 0x1626 JUMP JUMPDEST DUP5 MLOAD RETURNDATASIZE DUP5 DUP3 RETURNDATACOPY RETURNDATASIZE SWAP1 REVERT JUMPDEST SWAP1 SWAP2 POP PUSH1 0x20 DUP2 RETURNDATASIZE PUSH1 0x20 GT PUSH2 0x17AA JUMPI JUMPDEST DUP2 PUSH2 0x1796 PUSH1 0x20 SWAP4 DUP4 PUSH2 0xD9F JUMP JUMPDEST DUP2 ADD SUB SLT PUSH2 0x17A6 JUMPI MLOAD SWAP1 CODESIZE PUSH2 0x1541 JUMP JUMPDEST DUP7 DUP1 REVERT JUMPDEST RETURNDATASIZE SWAP2 POP PUSH2 0x1789 JUMP JUMPDEST PUSH4 0x4E487B71 PUSH1 0xE0 SHL DUP10 MSTORE PUSH1 0x41 PUSH1 0x4 MSTORE PUSH1 0x24 DUP10 REVERT JUMPDEST PUSH2 0x17DE SWAP1 PUSH1 0x20 RETURNDATASIZE PUSH1 0x20 GT PUSH2 0x582 JUMPI PUSH2 0x574 DUP2 DUP4 PUSH2 0xD9F JUMP JUMPDEST POP CODESIZE PUSH2 0x1446 JUMP JUMPDEST DUP7 MLOAD RETURNDATASIZE DUP11 DUP3 RETURNDATACOPY RETURNDATASIZE SWAP1 REVERT JUMPDEST SWAP1 DUP1 ISZERO PUSH2 0x12F5 JUMPI PUSH1 0x0 SWAP2 PUSH1 0x1 PUSH1 0x1 PUSH1 0xA0 SHL SUB AND DUP1 PUSH2 0x181F JUMPI POP DUP2 DUP1 DUP1 SWAP3 CALLER GAS CALL PUSH2 0x1817 PUSH2 0xDE6 JUMP JUMPDEST POP ISZERO PUSH2 0x321 JUMPI JUMP JUMPDEST PUSH1 0x40 MLOAD PUSH4 0xA9059CBB PUSH1 0xE0 SHL DUP2 MSTORE CALLER PUSH1 0x4 DUP3 ADD MSTORE PUSH1 0x24 DUP2 ADD SWAP3 SWAP1 SWAP3 MSTORE SWAP1 SWAP2 PUSH1 0x20 SWAP2 DUP4 SWAP2 PUSH1 0x44 SWAP2 DUP4 SWAP2 SWAP1 GAS CALL DUP1 ISZERO PUSH2 0x54E JUMPI PUSH2 0x1856 JUMPI POP JUMP JUMPDEST PUSH2 0x130F SWAP1 PUSH1 0x20 RETURNDATASIZE DUP2 GT PUSH2 0x582 JUMPI PUSH2 0x574 DUP2 DUP4 PUSH2 0xD9F JUMP INVALID LOG2 PUSH5 0x6970667358 0x22 SLT KECCAK256 BASEFEE 0xB4 RETURNDATASIZE 0xCA JUMPI 0xAC SWAP8 0xEE 0xC3 SWAP6 0xA5 BALANCE MSTORE8 0x21 DUP3 DUP10 0x1F SWAP3 PUSH7 0x49FCE1D5E1148E EQ DUP3 RETURNDATACOPY SWAP10 0xCE 0xBB PUSH5 0x736F6C6343 STOP ADDMOD EQ STOP CALLER "},"methodIdentifiers":{"WBNB()":"8dd95002","addV3PoolFee(uint24)":"7740da09","batchSwapAuto(address[],uint256[],uint256[],uint256)":"a593bff3","batchSwapManual((address,uint256,uint256,uint8,uint24)[],uint256)":"72224d10","emergencyWithdraw(address,uint256)":"95ccea67","getQuotes(address,uint256)":"e785f45b","owner()":"8da5cb5b","pancakeQuoterV3()":"660080ce","pancakeRouterV2()":"d20ccdc2","pancakeRouterV3()":"e47aaf6d","renounceOwnership()":"715018a6","transferOwnership(address)":"f2fde38b","v3PoolFees(uint256)":"810cd53e"}}}}}