{"contracts/DustSwapRouterX.sol":{"DustSwapRouterX":{"abi":[{"inputs":[{"internalType":"address","name":"_pancakeRouterV2","type":"address"},{"internalType":"address","name":"_pancakeRouterV3","type":"address"},{"internalType":"address","name":"_outputToken","type":"address"},{"internalType":"address","name":"_feeRecipient","type":"address"},{"internalType":"uint256","name":"_initialFee","type":"uint256"}],"stateMutability":"nonpayable","type":"constructor"},{"inputs":[],"name":"DeadlineExpired","type":"error"},{"inputs":[],"name":"EmptySwapList","type":"error"},{"inputs":[],"name":"FeeTooHigh","type":"error"},{"inputs":[],"name":"InsufficientOutput","type":"error"},{"inputs":[],"name":"InvalidFeeRecipient","type":"error"},{"inputs":[],"name":"InvalidOutputToken","type":"error"},{"inputs":[],"name":"InvalidRouter","type":"error"},{"inputs":[],"name":"InvalidToken","type":"error"},{"inputs":[{"internalType":"address","name":"owner","type":"address"}],"name":"OwnableInvalidOwner","type":"error"},{"inputs":[{"internalType":"address","name":"account","type":"address"}],"name":"OwnableUnauthorizedAccount","type":"error"},{"inputs":[],"name":"ReentrancyGuardReentrantCall","type":"error"},{"inputs":[],"name":"TransferFailed","type":"error"},{"anonymous":false,"inputs":[{"indexed":true,"internalType":"address","name":"user","type":"address"},{"indexed":false,"internalType":"uint256","name":"tokensSwapped","type":"uint256"},{"indexed":false,"internalType":"uint256","name":"totalOutput","type":"uint256"},{"indexed":false,"internalType":"uint256","name":"fee","type":"uint256"},{"indexed":false,"internalType":"uint256","name":"userAmount","type":"uint256"},{"indexed":true,"internalType":"address","name":"outputToken","type":"address"}],"name":"BatchSwapCompleted","type":"event"},{"anonymous":false,"inputs":[{"indexed":true,"internalType":"address","name":"oldRecipient","type":"address"},{"indexed":true,"internalType":"address","name":"newRecipient","type":"address"}],"name":"FeeRecipientUpdated","type":"event"},{"anonymous":false,"inputs":[{"indexed":false,"internalType":"uint256","name":"oldFee","type":"uint256"},{"indexed":false,"internalType":"uint256","name":"newFee","type":"uint256"}],"name":"FeeUpdated","type":"event"},{"anonymous":false,"inputs":[{"indexed":true,"internalType":"address","name":"oldToken","type":"address"},{"indexed":true,"internalType":"address","name":"newToken","type":"address"}],"name":"OutputTokenUpdated","type":"event"},{"anonymous":false,"inputs":[{"indexed":true,"internalType":"address","name":"previousOwner","type":"address"},{"indexed":true,"internalType":"address","name":"newOwner","type":"address"}],"name":"OwnershipTransferred","type":"event"},{"anonymous":false,"inputs":[{"indexed":true,"internalType":"address","name":"user","type":"address"},{"indexed":true,"internalType":"address","name":"token","type":"address"},{"indexed":false,"internalType":"uint256","name":"amountIn","type":"uint256"},{"indexed":false,"internalType":"uint256","name":"amountOut","type":"uint256"},{"indexed":false,"internalType":"enum DustSwapRouterX.RouterVersion","name":"version","type":"uint8"}],"name":"SingleSwapCompleted","type":"event"},{"inputs":[],"name":"FEE_DENOMINATOR","outputs":[{"internalType":"uint256","name":"","type":"uint256"}],"stateMutability":"view","type":"function"},{"inputs":[],"name":"MAX_FEE","outputs":[{"internalType":"uint256","name":"","type":"uint256"}],"stateMutability":"view","type":"function"},{"inputs":[],"name":"WBNB","outputs":[{"internalType":"address","name":"","type":"address"}],"stateMutability":"view","type":"function"},{"inputs":[{"components":[{"internalType":"address","name":"token","type":"address"},{"internalType":"uint256","name":"amount","type":"uint256"},{"internalType":"uint256","name":"minAmountOut","type":"uint256"},{"internalType":"enum DustSwapRouterX.RouterVersion","name":"version","type":"uint8"},{"internalType":"uint24","name":"v3Fee","type":"uint24"},{"internalType":"uint256","name":"permitDeadline","type":"uint256"},{"internalType":"uint8","name":"permitV","type":"uint8"},{"internalType":"bytes32","name":"permitR","type":"bytes32"},{"internalType":"bytes32","name":"permitS","type":"bytes32"}],"internalType":"struct DustSwapRouterX.SwapInstruction[]","name":"instructions","type":"tuple[]"},{"internalType":"uint256","name":"deadline","type":"uint256"}],"name":"batchSwapToToken","outputs":[{"internalType":"uint256","name":"userAmount","type":"uint256"}],"stateMutability":"nonpayable","type":"function"},{"inputs":[{"internalType":"address","name":"token","type":"address"},{"internalType":"uint256","name":"amount","type":"uint256"}],"name":"emergencyWithdraw","outputs":[],"stateMutability":"nonpayable","type":"function"},{"inputs":[],"name":"feeRecipient","outputs":[{"internalType":"address","name":"","type":"address"}],"stateMutability":"view","type":"function"},{"inputs":[{"internalType":"address[]","name":"tokens","type":"address[]"},{"internalType":"uint256[]","name":"amounts","type":"uint256[]"}],"name":"getEstimatedOutputs","outputs":[{"internalType":"uint256[]","name":"estimates","type":"uint256[]"}],"stateMutability":"view","type":"function"},{"inputs":[],"name":"outputToken","outputs":[{"internalType":"address","name":"","type":"address"}],"stateMutability":"view","type":"function"},{"inputs":[],"name":"owner","outputs":[{"internalType":"address","name":"","type":"address"}],"stateMutability":"view","type":"function"},{"inputs":[],"name":"pancakeRouterV2","outputs":[{"internalType":"contract IPancakeRouter02","name":"","type":"address"}],"stateMutability":"view","type":"function"},{"inputs":[],"name":"pancakeRouterV3","outputs":[{"internalType":"contract IPancakeV3SwapRouter","name":"","type":"address"}],"stateMutability":"view","type":"function"},{"inputs":[],"name":"renounceOwnership","outputs":[],"stateMutability":"nonpayable","type":"function"},{"inputs":[],"name":"serviceFee","outputs":[{"internalType":"uint256","name":"","type":"uint256"}],"stateMutability":"view","type":"function"},{"inputs":[{"internalType":"uint256","name":"_newFee","type":"uint256"}],"name":"setFee","outputs":[],"stateMutability":"nonpayable","type":"function"},{"inputs":[{"internalType":"address","name":"_newRecipient","type":"address"}],"name":"setFeeRecipient","outputs":[],"stateMutability":"nonpayable","type":"function"},{"inputs":[{"internalType":"address","name":"_newToken","type":"address"}],"name":"setOutputToken","outputs":[],"stateMutability":"nonpayable","type":"function"},{"inputs":[{"internalType":"address","name":"newOwner","type":"address"}],"name":"transferOwnership","outputs":[],"stateMutability":"nonpayable","type":"function"},{"stateMutability":"payable","type":"receive"}],"evm":{"bytecode":{"linkReferences":{},"object":"60e060409080825234620002a55760a08162001d178038038091620000258285620002aa565b833981010312620002a5576200003b81620002e4565b906200004a60208201620002e4565b9062000058848201620002e4565b9260806200006960608401620002e4565b9201519333156200028d5760008054336001600160a01b031980831682178455895190966001600160a01b03969495949193909287929183167f8be0079c531659141344cd1fd0a4f28419497f9722a3daafe3b4186f6b6457e08880a36001805516918215801562000282575b620002735750841695861562000262576113888811620002515781856020926004946080521660a0528951928380926315ab88c960e31b82525afa9283156200024657908185939294620001fb575b50508260c05216918215918215620001ee575b5050620001de57816002541617600255600354161760035560045551611a1d9081620002fa82396080518181816105a001528181610675015281816106dc01528181610c40015281816110ab0152611615015260a051818181610bde01528181611418015261155f015260c05181818161061101528181610aad01528181610cf801528181610e520152818161103e015281816114990152818161165901526116b00152f35b84516231010160e51b8152600490fd5b1682149050388062000138565b91935091506020823d82116200023d575b816200021b60209383620002aa565b810103126200023a5750620002318391620002e4565b91388062000125565b80fd5b3d91506200020c565b8851903d90823e3d90fd5b885163cd4e616760e01b8152600490fd5b8851630ed1b8b360e31b8152600490fd5b63466d7fef60e01b8152600490fd5b5085881615620000d6565b8551631e4fbdf760e01b815260006004820152602490fd5b600080fd5b601f909101601f19168101906001600160401b03821190821017620002ce57604052565b634e487b7160e01b600052604160045260246000fd5b51906001600160a01b0382168203620002a55756fe608080604052600436101561001d575b50361561001b57600080fd5b005b60003560e01c908163273efee014610f10575080634690484014610ee757806369fe0e2d14610e795780636b5b2c3114610dc7578063715018a614610d6e5780638abdf5aa14610d505780638da5cb5b14610d275780638dd9500214610ce257806395ccea6714610cb5578063bc063e1a14610c98578063c1d8d1d914610c6f578063d20ccdc214610c2a578063d73792a914610c0d578063e47aaf6d14610bc8578063e74b981b14610b47578063f1ae159c146101785763f2fde38b146100e5573861000f565b34610173576020366003190112610173576100fe611229565b61010661123f565b6001600160a01b0390811690811561015a57600054826bffffffffffffffffffffffff60a01b821617600055167f8be0079c531659141344cd1fd0a4f28419497f9722a3daafe3b4186f6b6457e0600080a3005b604051631e4fbdf760e01b815260006004820152602490fd5b600080fd5b346101735760403660031901126101735767ffffffffffffffff80600435116101735736602360043501121561017357600435600401351161017357366024610120600435600401350260043501011161017357600260015414610b355760026001556024354211610b23576004356004013515610b11576002546040516370a0823160e01b81523060048201526001600160a01b0390911690602081602481855afa90811561036657600091610adf575b5060009060005b60043560040135811061044557506040516370a0823160e01b815230600482015290602082602481875afa801561036657600090610411575b61027492506112f6565b9182156103ff5760045480840290848204036103e95761271090049161029a83856112f6565b9280610372575b60405163a9059cbb60e01b8152336004820152602481018590526020816044816000885af190811561036657600091610337575b5015610325576020946040519283528583015260408201528260608201527fc5f91541570ee410396e78fff4d3ef181d35ec6e43cc346f958f4fe06b56c47260803392a360018055604051908152f35b6040516312171d8360e31b8152600490fd5b610359915060203d60201161035f575b61035181836112b1565b810190611303565b866102d5565b503d610347565b6040513d6000823e3d90fd5b60035460405163a9059cbb60e01b81526001600160a01b039091166004820152602481018290526020816044816000885af1908115610366576000916103ca575b506102a1576040516312171d8360e31b8152600490fd5b6103e3915060203d60201161035f5761035181836112b1565b866103b3565b634e487b7160e01b600052601160045260246000fd5b60405163bb2875c360e01b8152600490fd5b506020823d60201161043d575b8161042b602093836112b1565b8101031261017357610274915161026a565b3d915061041e565b6001600160a01b036104616004356101208402016024016112e2565b16158015610a96575b8015610a71575b610a5f57604461012082026004350101351561075a5760c461012082026004350101356109a0575b6001600160a01b036104b56004356101208402016024016112e2565b166040516370a0823160e01b8152306004820152602081602481855afa9081156103665760009161096e575b506040516323b872dd60e01b81523360048201523060248201526044610120850260043501013560448201526020816064816000875af19081156103665760009161094f575b5015610325576040516370a0823160e01b815230600482015290602082602481865afa80156103665760009061091b575b61056292506112f6565b90600260846101208502600435010135101561017357600435610120840201608401356108d55760405163095ea7b360e01b81526001600160a01b037f0000000000000000000000000000000000000000000000000000000000000000166004820152602481018390526020816044816000865af18015610366576108b6575b506040516105ef81611295565b6003815260603660208301378161060582611333565b5261060f81611356565b7f00000000000000000000000000000000000000000000000000000000000000006001600160a01b031690528661064582611366565b526040516370a0823160e01b8152306004820152906020826024818b5afa91821561036657600092610882575b507f00000000000000000000000000000000000000000000000000000000000000006001600160a01b03163b156101735760006106d79160405180938192635c11d79560e01b835260243590309060646101208d026004350101358b600487016113c7565b0381837f00000000000000000000000000000000000000000000000000000000000000006001600160a01b03165af19081610873575b50610804575060405163a9059cbb60e01b81523360048201526024810183905290602090829060449082906000905af18015610366576107e5575b5060005b905b8161077d575b50610768575b610763906112d3565b610231565b91610775610763916112d3565b92905061075a565b6001600160a01b036107996004356101208602016024016112e2565b16906040519081528260208201526084610120850260043501013560408201527fa2c87abc3341789e0370a7baabed4f58835304c2b16a29536744ad19fcfd2e8460603392a385610754565b6107fd9060203d60201161035f5761035181836112b1565b5085610748565b6040516370a0823160e01b815230600482015291506020826024818a5afa80156103665760009061083f575b61083a92506112f6565b61074c565b506020823d60201161086b575b81610859602093836112b1565b810103126101735761083a9151610830565b3d915061084c565b61087c9061126b565b8861070d565b9091506020813d6020116108ae575b8161089e602093836112b1565b8101031261017357519088610672565b3d9150610891565b6108ce9060203d60201161035f5761035181836112b1565b50866105e2565b60043561012084020160a4013562ffffff81169003610173576109159060243590879060043561012087020160648101359160a490910135908690611400565b9061074e565b506020823d602011610947575b81610935602093836112b1565b81010312610173576105629151610558565b3d9150610928565b610968915060203d60201161035f5761035181836112b1565b87610527565b90506020813d602011610998575b81610989602093836112b1565b810103126101735751866104e1565b3d915061097c565b6001600160a01b036109bc6004356101208402016024016112e2565b1660e4610120830260043501013560ff8116810361017357813b156101735760405163d505accf60e01b815233600480830191909152306024830152356101208502016044818101359083015260c480820135606484015260ff93909316608483015261010481013560a483015261012401359181019190915290600090829060e490829084905af1610a50575b50610499565b610a599061126b565b84610a4a565b60405163c1ab6dc160e01b8152600490fd5b50836001600160a01b03610a8f6004356101208502016024016112e2565b1614610471565b50610aab6024610120830260043501016112e2565b7f00000000000000000000000000000000000000000000000000000000000000006001600160a01b0390811691161461046a565b90506020813d602011610b09575b81610afa602093836112b1565b8101031261017357518261022a565b3d9150610aed565b6040516386724c7f60e01b8152600490fd5b604051631ab7da6b60e01b8152600490fd5b604051633ee5aeb560e01b8152600490fd5b3461017357602036600319011261017357610b60611229565b610b6861123f565b6001600160a01b03908116908115610bb657816003549182167faaebcf1bfa00580e41d966056b48521fa9f202645c86d4ddf28113e617c1b1d3600080a36001600160a01b03191617600355005b604051630ed1b8b360e31b8152600490fd5b34610173576000366003190112610173576040517f00000000000000000000000000000000000000000000000000000000000000006001600160a01b03168152602090f35b346101735760003660031901126101735760206040516127108152f35b34610173576000366003190112610173576040517f00000000000000000000000000000000000000000000000000000000000000006001600160a01b03168152602090f35b34610173576000366003190112610173576002546040516001600160a01b039091168152602090f35b346101735760003660031901126101735760206040516113888152f35b346101735760403660031901126101735761001b610cd1611229565b610cd961123f565b60243590611903565b34610173576000366003190112610173576040517f00000000000000000000000000000000000000000000000000000000000000006001600160a01b03168152602090f35b34610173576000366003190112610173576000546040516001600160a01b039091168152602090f35b34610173576000366003190112610173576020600454604051908152f35b3461017357600036600319011261017357610d8761123f565b600080546001600160a01b0319811682556001600160a01b03167f8be0079c531659141344cd1fd0a4f28419497f9722a3daafe3b4186f6b6457e08280a3005b3461017357602036600319011261017357610de0611229565b610de861123f565b6001600160a01b039081169081158015610e4e575b610e3d57816002549182167ffdef5fa97f9834c3ce5c25f08d33b4e5a200f1055bc73fa7b69cc974c47b7b34600080a36001600160a01b03191617600255005b6040516231010160e51b8152600490fd5b50807f0000000000000000000000000000000000000000000000000000000000000000168214610dfd565b3461017357602036600319011261017357600435610e9561123f565b6113888111610ed5577f528d9479e9f9889a87a3c30c7f7ba537e5e59c4c85a37733b16e57c62df6130260406004548151908152836020820152a1600455005b60405163cd4e616760e01b8152600490fd5b34610173576000366003190112610173576003546040516001600160a01b039091168152602090f35b346101735760403660031901126101735760043567ffffffffffffffff811161017357610f419036906004016111f8565b9060243567ffffffffffffffff811161017357610f629036906004016111f8565b90938184036111c45750610f758361131b565b93610f8360405195866112b1565b838552601f19610f928561131b565b013660208701376002546001600160a01b031660005b858110610ff5578660405180916020820160208352815180915260206040840192019060005b818110610fdc575050500390f35b8251845285945060209384019390920191600101610fce565b6110a790600060405161100781611295565b600381526060366020830137611026611021848b8b6118f3565b6112e2565b61102f82611333565b6001600160a01b0391821690527f00000000000000000000000000000000000000000000000000000000000000001661106782611356565b528461107282611366565b5261107e8388886118f3565b35604051948592839263d06ca61f60e01b8452600484015260406024840152604483019061138a565b03817f00000000000000000000000000000000000000000000000000000000000000006001600160a01b03165afa80600091611113575b6110fa93506110ff575060006110f4828a611376565b526112d3565b610fa8565b61110890611366565b516110f4828a611376565b919290503d806000833e61112781836112b1565b60208282810103126101735781519167ffffffffffffffff831161017357818101601f8483010112156101735782810151906111628261131b565b9361117060405195866112b1565b8285526020850193820160208460051b83850101011161017357602081830101935b60208460051b838501010185106111b4575050505050906110fa9291906110de565b8451815260209485019401611192565b62461bcd60e51b815260206004820152600f60248201526e098cadccee8d040dad2e6dac2e8c6d608b1b6044820152606490fd5b9181601f840112156101735782359167ffffffffffffffff8311610173576020808501948460051b01011161017357565b600435906001600160a01b038216820361017357565b6000546001600160a01b0316330361125357565b60405163118cdaa760e01b8152336004820152602490fd5b67ffffffffffffffff811161127f57604052565b634e487b7160e01b600052604160045260246000fd5b6080810190811067ffffffffffffffff82111761127f57604052565b90601f8019910116810190811067ffffffffffffffff82111761127f57604052565b60001981146103e95760010190565b356001600160a01b03811681036101735790565b919082039182116103e957565b90816020910312610173575180151581036101735790565b67ffffffffffffffff811161127f5760051b60200190565b8051156113405760200190565b634e487b7160e01b600052603260045260246000fd5b8051600110156113405760400190565b8051600210156113405760600190565b80518210156113405760209160051b010190565b90815180825260208080930193019160005b8281106113aa575050505090565b83516001600160a01b03168552938101939281019260010161139c565b91926080936113ec92979695978452602084015260a0604084015260a083019061138a565b6001600160a01b0390951660608201520152565b6040805163095ea7b360e01b81526001600160a01b037f0000000000000000000000000000000000000000000000000000000000000000811660048301526024820185905297989760009792969316949192906020816044818b8a5af180156118e9576118ca575b5085519867ffffffffffffffff9260e08b018481118c8210176118b6579062ffffff918952878c5260018060a01b037f00000000000000000000000000000000000000000000000000000000000000001660208d015216878b01523060608b01528460808b01528760a08b01528760c08b01528651996304e45aaf60e01b8b5260018060a01b0381511660048c015260018060a01b0360208201511660248c015262ffffff888201511660448c015260018060a01b0360608201511660648c0152608081015160848c015260a081015160a48c015260c060018060a01b039101511660c48b015260208a60e4818b60018060a01b037f0000000000000000000000000000000000000000000000000000000000000000165af180899161187b575b899a9b50156000146115f8575050855163a9059cbb60e01b81523360048201526024810194909452509194602093869350604492508391905af19081156115ef57506115d3575090565b6115eb9060203d60201161035f5761035181836112b1565b5090565b513d84823e3d90fd5b929695509296509250801561187257835163095ea7b360e01b81527f00000000000000000000000000000000000000000000000000000000000000006001600160a01b0316600482018190526024820183905290602081806044810103818c7f00000000000000000000000000000000000000000000000000000000000000006001600160a01b03165af1801561186857611849575b50845195606087019081118782101761183557855260028652843660208801377f00000000000000000000000000000000000000000000000000000000000000006001600160a01b03166116e187611333565b526116eb86611356565b6001600160a01b039097169687905284516370a0823160e01b808252306004830152909690946020886024818c5afa97881561182b578a986117f7575b50823b156117f357908980949392611757895197889687958694635c11d79560e01b86523092600487016113c7565b03925af190816117e0575b5061176e575050505090565b60209060248394959693518097819382523060048301525afa9182156117d65750906117a2575b61179f92506112f6565b90565b506020823d6020116117ce575b816117bc602093836112b1565b810103126101735761179f9151611795565b3d91506117af565b51903d90823e3d90fd5b6117ec9096919661126b565b9438611762565b8980fd5b9097506020813d602011611823575b81611813602093836112b1565b810103126117f357519638611728565b3d9150611806565b87513d8c823e3d90fd5b634e487b7160e01b89526041600452602489fd5b6118619060203d60201161035f5761035181836112b1565b503861168e565b86513d8b823e3d90fd5b50505050505090565b905060208b3d6020116118ae575b81611896602093836112b1565b810103126118aa57995198998a9990611589565b8880fd5b3d9150611889565b634e487b7160e01b8a52604160045260248afd5b6118e29060203d60201161035f5761035181836112b1565b5038611468565b87513d8a823e3d90fd5b91908110156113405760051b0190565b81156119e3576001600160a01b0390811680611981575060008080809481948254165af1903d1561197b573d9067ffffffffffffffff82116119675760405191611957601f8201601f1916602001846112b1565b825260203d92013e5b1561032557565b634e487b7160e01b81526041600452602490fd5b50611960565b6000805460405163a9059cbb60e01b815293166001600160a01b031660048401526024830193909352909160209183918290816044810103925af18015610366576119c95750565b6119e09060203d811161035f5761035181836112b1565b50565b505056fea2646970667358221220bc96eec9fd070d3e20870894597ade1ce9b087aa69a38e3f179e27550457bf9664736f6c63430008140033","opcodes":"PUSH1 0xE0 PUSH1 0x40 SWAP1 DUP1 DUP3 MSTORE CALLVALUE PUSH3 0x2A5 JUMPI PUSH1 0xA0 DUP2 PUSH3 0x1D17 DUP1 CODESIZE SUB DUP1 SWAP2 PUSH3 0x25 DUP3 DUP6 PUSH3 0x2AA JUMP JUMPDEST DUP4 CODECOPY DUP2 ADD SUB SLT PUSH3 0x2A5 JUMPI PUSH3 0x3B DUP2 PUSH3 0x2E4 JUMP JUMPDEST SWAP1 PUSH3 0x4A PUSH1 0x20 DUP3 ADD PUSH3 0x2E4 JUMP JUMPDEST SWAP1 PUSH3 0x58 DUP5 DUP3 ADD PUSH3 0x2E4 JUMP JUMPDEST SWAP3 PUSH1 0x80 PUSH3 0x69 PUSH1 0x60 DUP5 ADD PUSH3 0x2E4 JUMP JUMPDEST SWAP3 ADD MLOAD SWAP4 CALLER ISZERO PUSH3 0x28D JUMPI PUSH1 0x0 DUP1 SLOAD CALLER PUSH1 0x1 PUSH1 0x1 PUSH1 0xA0 SHL SUB NOT DUP1 DUP4 AND DUP3 OR DUP5 SSTORE DUP10 MLOAD SWAP1 SWAP7 PUSH1 0x1 PUSH1 0x1 PUSH1 0xA0 SHL SUB SWAP7 SWAP5 SWAP6 SWAP5 SWAP2 SWAP4 SWAP1 SWAP3 DUP8 SWAP3 SWAP2 DUP4 AND PUSH32 0x8BE0079C531659141344CD1FD0A4F28419497F9722A3DAAFE3B4186F6B6457E0 DUP9 DUP1 LOG3 PUSH1 0x1 DUP1 SSTORE AND SWAP2 DUP3 ISZERO DUP1 ISZERO PUSH3 0x282 JUMPI JUMPDEST PUSH3 0x273 JUMPI POP DUP5 AND SWAP6 DUP7 ISZERO PUSH3 0x262 JUMPI PUSH2 0x1388 DUP9 GT PUSH3 0x251 JUMPI DUP2 DUP6 PUSH1 0x20 SWAP3 PUSH1 0x4 SWAP5 PUSH1 0x80 MSTORE AND PUSH1 0xA0 MSTORE DUP10 MLOAD SWAP3 DUP4 DUP1 SWAP3 PUSH4 0x15AB88C9 PUSH1 0xE3 SHL DUP3 MSTORE GAS STATICCALL SWAP3 DUP4 ISZERO PUSH3 0x246 JUMPI SWAP1 DUP2 DUP6 SWAP4 SWAP3 SWAP5 PUSH3 0x1FB JUMPI JUMPDEST POP POP DUP3 PUSH1 0xC0 MSTORE AND SWAP2 DUP3 ISZERO SWAP2 DUP3 ISZERO PUSH3 0x1EE JUMPI JUMPDEST POP POP PUSH3 0x1DE JUMPI DUP2 PUSH1 0x2 SLOAD AND OR PUSH1 0x2 SSTORE PUSH1 0x3 SLOAD AND OR PUSH1 0x3 SSTORE PUSH1 0x4 SSTORE MLOAD PUSH2 0x1A1D SWAP1 DUP2 PUSH3 0x2FA DUP3 CODECOPY PUSH1 0x80 MLOAD DUP2 DUP2 DUP2 PUSH2 0x5A0 ADD MSTORE DUP2 DUP2 PUSH2 0x675 ADD MSTORE DUP2 DUP2 PUSH2 0x6DC ADD MSTORE DUP2 DUP2 PUSH2 0xC40 ADD MSTORE DUP2 DUP2 PUSH2 0x10AB ADD MSTORE PUSH2 0x1615 ADD MSTORE PUSH1 0xA0 MLOAD DUP2 DUP2 DUP2 PUSH2 0xBDE ADD MSTORE DUP2 DUP2 PUSH2 0x1418 ADD MSTORE PUSH2 0x155F ADD MSTORE PUSH1 0xC0 MLOAD DUP2 DUP2 DUP2 PUSH2 0x611 ADD MSTORE DUP2 DUP2 PUSH2 0xAAD ADD MSTORE DUP2 DUP2 PUSH2 0xCF8 ADD MSTORE DUP2 DUP2 PUSH2 0xE52 ADD MSTORE DUP2 DUP2 PUSH2 0x103E ADD MSTORE DUP2 DUP2 PUSH2 0x1499 ADD MSTORE DUP2 DUP2 PUSH2 0x1659 ADD MSTORE PUSH2 0x16B0 ADD MSTORE RETURN JUMPDEST DUP5 MLOAD PUSH3 0x310101 PUSH1 0xE5 SHL DUP2 MSTORE PUSH1 0x4 SWAP1 REVERT JUMPDEST AND DUP3 EQ SWAP1 POP CODESIZE DUP1 PUSH3 0x138 JUMP JUMPDEST SWAP2 SWAP4 POP SWAP2 POP PUSH1 0x20 DUP3 RETURNDATASIZE DUP3 GT PUSH3 0x23D JUMPI JUMPDEST DUP2 PUSH3 0x21B PUSH1 0x20 SWAP4 DUP4 PUSH3 0x2AA JUMP JUMPDEST DUP2 ADD SUB SLT PUSH3 0x23A JUMPI POP PUSH3 0x231 DUP4 SWAP2 PUSH3 0x2E4 JUMP JUMPDEST SWAP2 CODESIZE DUP1 PUSH3 0x125 JUMP JUMPDEST DUP1 REVERT JUMPDEST RETURNDATASIZE SWAP2 POP PUSH3 0x20C JUMP JUMPDEST DUP9 MLOAD SWAP1 RETURNDATASIZE SWAP1 DUP3 RETURNDATACOPY RETURNDATASIZE SWAP1 REVERT JUMPDEST DUP9 MLOAD PUSH4 0xCD4E6167 PUSH1 0xE0 SHL DUP2 MSTORE PUSH1 0x4 SWAP1 REVERT JUMPDEST DUP9 MLOAD PUSH4 0xED1B8B3 PUSH1 0xE3 SHL DUP2 MSTORE PUSH1 0x4 SWAP1 REVERT JUMPDEST PUSH4 0x466D7FEF PUSH1 0xE0 SHL DUP2 MSTORE PUSH1 0x4 SWAP1 REVERT JUMPDEST POP DUP6 DUP9 AND ISZERO PUSH3 0xD6 JUMP JUMPDEST DUP6 MLOAD PUSH4 0x1E4FBDF7 PUSH1 0xE0 SHL DUP2 MSTORE PUSH1 0x0 PUSH1 0x4 DUP3 ADD MSTORE PUSH1 0x24 SWAP1 REVERT JUMPDEST PUSH1 0x0 DUP1 REVERT JUMPDEST PUSH1 0x1F SWAP1 SWAP2 ADD PUSH1 0x1F NOT AND DUP2 ADD SWAP1 PUSH1 0x1 PUSH1 0x1 PUSH1 0x40 SHL SUB DUP3 GT SWAP1 DUP3 LT OR PUSH3 0x2CE JUMPI PUSH1 0x40 MSTORE JUMP JUMPDEST PUSH4 0x4E487B71 PUSH1 0xE0 SHL PUSH1 0x0 MSTORE PUSH1 0x41 PUSH1 0x4 MSTORE PUSH1 0x24 PUSH1 0x0 REVERT JUMPDEST MLOAD SWAP1 PUSH1 0x1 PUSH1 0x1 PUSH1 0xA0 SHL SUB DUP3 AND DUP3 SUB PUSH3 0x2A5 JUMPI JUMP INVALID PUSH1 0x80 DUP1 PUSH1 0x40 MSTORE PUSH1 0x4 CALLDATASIZE LT ISZERO PUSH2 0x1D JUMPI JUMPDEST POP CALLDATASIZE ISZERO PUSH2 0x1B JUMPI PUSH1 0x0 DUP1 REVERT JUMPDEST STOP JUMPDEST PUSH1 0x0 CALLDATALOAD PUSH1 0xE0 SHR SWAP1 DUP2 PUSH4 0x273EFEE0 EQ PUSH2 0xF10 JUMPI POP DUP1 PUSH4 0x46904840 EQ PUSH2 0xEE7 JUMPI DUP1 PUSH4 0x69FE0E2D EQ PUSH2 0xE79 JUMPI DUP1 PUSH4 0x6B5B2C31 EQ PUSH2 0xDC7 JUMPI DUP1 PUSH4 0x715018A6 EQ PUSH2 0xD6E JUMPI DUP1 PUSH4 0x8ABDF5AA EQ PUSH2 0xD50 JUMPI DUP1 PUSH4 0x8DA5CB5B EQ PUSH2 0xD27 JUMPI DUP1 PUSH4 0x8DD95002 EQ PUSH2 0xCE2 JUMPI DUP1 PUSH4 0x95CCEA67 EQ PUSH2 0xCB5 JUMPI DUP1 PUSH4 0xBC063E1A EQ PUSH2 0xC98 JUMPI DUP1 PUSH4 0xC1D8D1D9 EQ PUSH2 0xC6F JUMPI DUP1 PUSH4 0xD20CCDC2 EQ PUSH2 0xC2A JUMPI DUP1 PUSH4 0xD73792A9 EQ PUSH2 0xC0D JUMPI DUP1 PUSH4 0xE47AAF6D EQ PUSH2 0xBC8 JUMPI DUP1 PUSH4 0xE74B981B EQ PUSH2 0xB47 JUMPI DUP1 PUSH4 0xF1AE159C EQ PUSH2 0x178 JUMPI PUSH4 0xF2FDE38B EQ PUSH2 0xE5 JUMPI CODESIZE PUSH2 0xF JUMP JUMPDEST CALLVALUE PUSH2 0x173 JUMPI PUSH1 0x20 CALLDATASIZE PUSH1 0x3 NOT ADD SLT PUSH2 0x173 JUMPI PUSH2 0xFE PUSH2 0x1229 JUMP JUMPDEST PUSH2 0x106 PUSH2 0x123F JUMP JUMPDEST PUSH1 0x1 PUSH1 0x1 PUSH1 0xA0 SHL SUB SWAP1 DUP2 AND SWAP1 DUP2 ISZERO PUSH2 0x15A JUMPI PUSH1 0x0 SLOAD DUP3 PUSH12 0xFFFFFFFFFFFFFFFFFFFFFFFF PUSH1 0xA0 SHL DUP3 AND OR PUSH1 0x0 SSTORE AND PUSH32 0x8BE0079C531659141344CD1FD0A4F28419497F9722A3DAAFE3B4186F6B6457E0 PUSH1 0x0 DUP1 LOG3 STOP JUMPDEST PUSH1 0x40 MLOAD PUSH4 0x1E4FBDF7 PUSH1 0xE0 SHL DUP2 MSTORE PUSH1 0x0 PUSH1 0x4 DUP3 ADD MSTORE PUSH1 0x24 SWAP1 REVERT JUMPDEST PUSH1 0x0 DUP1 REVERT JUMPDEST CALLVALUE PUSH2 0x173 JUMPI PUSH1 0x40 CALLDATASIZE PUSH1 0x3 NOT ADD SLT PUSH2 0x173 JUMPI PUSH8 0xFFFFFFFFFFFFFFFF DUP1 PUSH1 0x4 CALLDATALOAD GT PUSH2 0x173 JUMPI CALLDATASIZE PUSH1 0x23 PUSH1 0x4 CALLDATALOAD ADD SLT ISZERO PUSH2 0x173 JUMPI PUSH1 0x4 CALLDATALOAD PUSH1 0x4 ADD CALLDATALOAD GT PUSH2 0x173 JUMPI CALLDATASIZE PUSH1 0x24 PUSH2 0x120 PUSH1 0x4 CALLDATALOAD PUSH1 0x4 ADD CALLDATALOAD MUL PUSH1 0x4 CALLDATALOAD ADD ADD GT PUSH2 0x173 JUMPI PUSH1 0x2 PUSH1 0x1 SLOAD EQ PUSH2 0xB35 JUMPI PUSH1 0x2 PUSH1 0x1 SSTORE PUSH1 0x24 CALLDATALOAD TIMESTAMP GT PUSH2 0xB23 JUMPI PUSH1 0x4 CALLDATALOAD PUSH1 0x4 ADD CALLDATALOAD ISZERO PUSH2 0xB11 JUMPI PUSH1 0x2 SLOAD PUSH1 0x40 MLOAD PUSH4 0x70A08231 PUSH1 0xE0 SHL DUP2 MSTORE ADDRESS PUSH1 0x4 DUP3 ADD MSTORE PUSH1 0x1 PUSH1 0x1 PUSH1 0xA0 SHL SUB SWAP1 SWAP2 AND SWAP1 PUSH1 0x20 DUP2 PUSH1 0x24 DUP2 DUP6 GAS STATICCALL SWAP1 DUP2 ISZERO PUSH2 0x366 JUMPI PUSH1 0x0 SWAP2 PUSH2 0xADF JUMPI JUMPDEST POP PUSH1 0x0 SWAP1 PUSH1 0x0 JUMPDEST PUSH1 0x4 CALLDATALOAD PUSH1 0x4 ADD CALLDATALOAD DUP2 LT PUSH2 0x445 JUMPI POP PUSH1 0x40 MLOAD PUSH4 0x70A08231 PUSH1 0xE0 SHL DUP2 MSTORE ADDRESS PUSH1 0x4 DUP3 ADD MSTORE SWAP1 PUSH1 0x20 DUP3 PUSH1 0x24 DUP2 DUP8 GAS STATICCALL DUP1 ISZERO PUSH2 0x366 JUMPI PUSH1 0x0 SWAP1 PUSH2 0x411 JUMPI JUMPDEST PUSH2 0x274 SWAP3 POP PUSH2 0x12F6 JUMP JUMPDEST SWAP2 DUP3 ISZERO PUSH2 0x3FF JUMPI PUSH1 0x4 SLOAD DUP1 DUP5 MUL SWAP1 DUP5 DUP3 DIV SUB PUSH2 0x3E9 JUMPI PUSH2 0x2710 SWAP1 DIV SWAP2 PUSH2 0x29A DUP4 DUP6 PUSH2 0x12F6 JUMP JUMPDEST SWAP3 DUP1 PUSH2 0x372 JUMPI JUMPDEST PUSH1 0x40 MLOAD PUSH4 0xA9059CBB PUSH1 0xE0 SHL DUP2 MSTORE CALLER PUSH1 0x4 DUP3 ADD MSTORE PUSH1 0x24 DUP2 ADD DUP6 SWAP1 MSTORE PUSH1 0x20 DUP2 PUSH1 0x44 DUP2 PUSH1 0x0 DUP9 GAS CALL SWAP1 DUP2 ISZERO PUSH2 0x366 JUMPI PUSH1 0x0 SWAP2 PUSH2 0x337 JUMPI JUMPDEST POP ISZERO PUSH2 0x325 JUMPI PUSH1 0x20 SWAP5 PUSH1 0x40 MLOAD SWAP3 DUP4 MSTORE DUP6 DUP4 ADD MSTORE PUSH1 0x40 DUP3 ADD MSTORE DUP3 PUSH1 0x60 DUP3 ADD MSTORE PUSH32 0xC5F91541570EE410396E78FFF4D3EF181D35EC6E43CC346F958F4FE06B56C472 PUSH1 0x80 CALLER SWAP3 LOG3 PUSH1 0x1 DUP1 SSTORE PUSH1 0x40 MLOAD SWAP1 DUP2 MSTORE RETURN JUMPDEST PUSH1 0x40 MLOAD PUSH4 0x12171D83 PUSH1 0xE3 SHL DUP2 MSTORE PUSH1 0x4 SWAP1 REVERT JUMPDEST PUSH2 0x359 SWAP2 POP PUSH1 0x20 RETURNDATASIZE PUSH1 0x20 GT PUSH2 0x35F JUMPI JUMPDEST PUSH2 0x351 DUP2 DUP4 PUSH2 0x12B1 JUMP JUMPDEST DUP2 ADD SWAP1 PUSH2 0x1303 JUMP JUMPDEST DUP7 PUSH2 0x2D5 JUMP JUMPDEST POP RETURNDATASIZE PUSH2 0x347 JUMP JUMPDEST PUSH1 0x40 MLOAD RETURNDATASIZE PUSH1 0x0 DUP3 RETURNDATACOPY RETURNDATASIZE SWAP1 REVERT JUMPDEST PUSH1 0x3 SLOAD PUSH1 0x40 MLOAD PUSH4 0xA9059CBB PUSH1 0xE0 SHL DUP2 MSTORE PUSH1 0x1 PUSH1 0x1 PUSH1 0xA0 SHL SUB SWAP1 SWAP2 AND PUSH1 0x4 DUP3 ADD MSTORE PUSH1 0x24 DUP2 ADD DUP3 SWAP1 MSTORE PUSH1 0x20 DUP2 PUSH1 0x44 DUP2 PUSH1 0x0 DUP9 GAS CALL SWAP1 DUP2 ISZERO PUSH2 0x366 JUMPI PUSH1 0x0 SWAP2 PUSH2 0x3CA JUMPI JUMPDEST POP PUSH2 0x2A1 JUMPI PUSH1 0x40 MLOAD PUSH4 0x12171D83 PUSH1 0xE3 SHL DUP2 MSTORE PUSH1 0x4 SWAP1 REVERT JUMPDEST PUSH2 0x3E3 SWAP2 POP PUSH1 0x20 RETURNDATASIZE PUSH1 0x20 GT PUSH2 0x35F JUMPI PUSH2 0x351 DUP2 DUP4 PUSH2 0x12B1 JUMP JUMPDEST DUP7 PUSH2 0x3B3 JUMP JUMPDEST PUSH4 0x4E487B71 PUSH1 0xE0 SHL PUSH1 0x0 MSTORE PUSH1 0x11 PUSH1 0x4 MSTORE PUSH1 0x24 PUSH1 0x0 REVERT JUMPDEST PUSH1 0x40 MLOAD PUSH4 0xBB2875C3 PUSH1 0xE0 SHL DUP2 MSTORE PUSH1 0x4 SWAP1 REVERT JUMPDEST POP PUSH1 0x20 DUP3 RETURNDATASIZE PUSH1 0x20 GT PUSH2 0x43D JUMPI JUMPDEST DUP2 PUSH2 0x42B PUSH1 0x20 SWAP4 DUP4 PUSH2 0x12B1 JUMP JUMPDEST DUP2 ADD SUB SLT PUSH2 0x173 JUMPI PUSH2 0x274 SWAP2 MLOAD PUSH2 0x26A JUMP JUMPDEST RETURNDATASIZE SWAP2 POP PUSH2 0x41E JUMP JUMPDEST PUSH1 0x1 PUSH1 0x1 PUSH1 0xA0 SHL SUB PUSH2 0x461 PUSH1 0x4 CALLDATALOAD PUSH2 0x120 DUP5 MUL ADD PUSH1 0x24 ADD PUSH2 0x12E2 JUMP JUMPDEST AND ISZERO DUP1 ISZERO PUSH2 0xA96 JUMPI JUMPDEST DUP1 ISZERO PUSH2 0xA71 JUMPI JUMPDEST PUSH2 0xA5F JUMPI PUSH1 0x44 PUSH2 0x120 DUP3 MUL PUSH1 0x4 CALLDATALOAD ADD ADD CALLDATALOAD ISZERO PUSH2 0x75A JUMPI PUSH1 0xC4 PUSH2 0x120 DUP3 MUL PUSH1 0x4 CALLDATALOAD ADD ADD CALLDATALOAD PUSH2 0x9A0 JUMPI JUMPDEST PUSH1 0x1 PUSH1 0x1 PUSH1 0xA0 SHL SUB PUSH2 0x4B5 PUSH1 0x4 CALLDATALOAD PUSH2 0x120 DUP5 MUL ADD PUSH1 0x24 ADD PUSH2 0x12E2 JUMP JUMPDEST AND PUSH1 0x40 MLOAD PUSH4 0x70A08231 PUSH1 0xE0 SHL DUP2 MSTORE ADDRESS PUSH1 0x4 DUP3 ADD MSTORE PUSH1 0x20 DUP2 PUSH1 0x24 DUP2 DUP6 GAS STATICCALL SWAP1 DUP2 ISZERO PUSH2 0x366 JUMPI PUSH1 0x0 SWAP2 PUSH2 0x96E JUMPI JUMPDEST POP PUSH1 0x40 MLOAD PUSH4 0x23B872DD PUSH1 0xE0 SHL DUP2 MSTORE CALLER PUSH1 0x4 DUP3 ADD MSTORE ADDRESS PUSH1 0x24 DUP3 ADD MSTORE PUSH1 0x44 PUSH2 0x120 DUP6 MUL PUSH1 0x4 CALLDATALOAD ADD ADD CALLDATALOAD PUSH1 0x44 DUP3 ADD MSTORE PUSH1 0x20 DUP2 PUSH1 0x64 DUP2 PUSH1 0x0 DUP8 GAS CALL SWAP1 DUP2 ISZERO PUSH2 0x366 JUMPI PUSH1 0x0 SWAP2 PUSH2 0x94F JUMPI JUMPDEST POP ISZERO PUSH2 0x325 JUMPI PUSH1 0x40 MLOAD PUSH4 0x70A08231 PUSH1 0xE0 SHL DUP2 MSTORE ADDRESS PUSH1 0x4 DUP3 ADD MSTORE SWAP1 PUSH1 0x20 DUP3 PUSH1 0x24 DUP2 DUP7 GAS STATICCALL DUP1 ISZERO PUSH2 0x366 JUMPI PUSH1 0x0 SWAP1 PUSH2 0x91B JUMPI JUMPDEST PUSH2 0x562 SWAP3 POP PUSH2 0x12F6 JUMP JUMPDEST SWAP1 PUSH1 0x2 PUSH1 0x84 PUSH2 0x120 DUP6 MUL PUSH1 0x4 CALLDATALOAD ADD ADD CALLDATALOAD LT ISZERO PUSH2 0x173 JUMPI PUSH1 0x4 CALLDATALOAD PUSH2 0x120 DUP5 MUL ADD PUSH1 0x84 ADD CALLDATALOAD PUSH2 0x8D5 JUMPI PUSH1 0x40 MLOAD PUSH4 0x95EA7B3 PUSH1 0xE0 SHL DUP2 MSTORE PUSH1 0x1 PUSH1 0x1 PUSH1 0xA0 SHL SUB PUSH32 0x0 AND PUSH1 0x4 DUP3 ADD MSTORE PUSH1 0x24 DUP2 ADD DUP4 SWAP1 MSTORE PUSH1 0x20 DUP2 PUSH1 0x44 DUP2 PUSH1 0x0 DUP7 GAS CALL DUP1 ISZERO PUSH2 0x366 JUMPI PUSH2 0x8B6 JUMPI JUMPDEST POP PUSH1 0x40 MLOAD PUSH2 0x5EF DUP2 PUSH2 0x1295 JUMP JUMPDEST PUSH1 0x3 DUP2 MSTORE PUSH1 0x60 CALLDATASIZE PUSH1 0x20 DUP4 ADD CALLDATACOPY DUP2 PUSH2 0x605 DUP3 PUSH2 0x1333 JUMP JUMPDEST MSTORE PUSH2 0x60F DUP2 PUSH2 0x1356 JUMP JUMPDEST PUSH32 0x0 PUSH1 0x1 PUSH1 0x1 PUSH1 0xA0 SHL SUB AND SWAP1 MSTORE DUP7 PUSH2 0x645 DUP3 PUSH2 0x1366 JUMP JUMPDEST MSTORE PUSH1 0x40 MLOAD PUSH4 0x70A08231 PUSH1 0xE0 SHL DUP2 MSTORE ADDRESS PUSH1 0x4 DUP3 ADD MSTORE SWAP1 PUSH1 0x20 DUP3 PUSH1 0x24 DUP2 DUP12 GAS STATICCALL SWAP2 DUP3 ISZERO PUSH2 0x366 JUMPI PUSH1 0x0 SWAP3 PUSH2 0x882 JUMPI JUMPDEST POP PUSH32 0x0 PUSH1 0x1 PUSH1 0x1 PUSH1 0xA0 SHL SUB AND EXTCODESIZE ISZERO PUSH2 0x173 JUMPI PUSH1 0x0 PUSH2 0x6D7 SWAP2 PUSH1 0x40 MLOAD DUP1 SWAP4 DUP2 SWAP3 PUSH4 0x5C11D795 PUSH1 0xE0 SHL DUP4 MSTORE PUSH1 0x24 CALLDATALOAD SWAP1 ADDRESS SWAP1 PUSH1 0x64 PUSH2 0x120 DUP14 MUL PUSH1 0x4 CALLDATALOAD ADD ADD CALLDATALOAD DUP12 PUSH1 0x4 DUP8 ADD PUSH2 0x13C7 JUMP JUMPDEST SUB DUP2 DUP4 PUSH32 0x0 PUSH1 0x1 PUSH1 0x1 PUSH1 0xA0 SHL SUB AND GAS CALL SWAP1 DUP2 PUSH2 0x873 JUMPI JUMPDEST POP PUSH2 0x804 JUMPI POP PUSH1 0x40 MLOAD PUSH4 0xA9059CBB PUSH1 0xE0 SHL DUP2 MSTORE CALLER PUSH1 0x4 DUP3 ADD MSTORE PUSH1 0x24 DUP2 ADD DUP4 SWAP1 MSTORE SWAP1 PUSH1 0x20 SWAP1 DUP3 SWAP1 PUSH1 0x44 SWAP1 DUP3 SWAP1 PUSH1 0x0 SWAP1 GAS CALL DUP1 ISZERO PUSH2 0x366 JUMPI PUSH2 0x7E5 JUMPI JUMPDEST POP PUSH1 0x0 JUMPDEST SWAP1 JUMPDEST DUP2 PUSH2 0x77D JUMPI JUMPDEST POP PUSH2 0x768 JUMPI JUMPDEST PUSH2 0x763 SWAP1 PUSH2 0x12D3 JUMP JUMPDEST PUSH2 0x231 JUMP JUMPDEST SWAP2 PUSH2 0x775 PUSH2 0x763 SWAP2 PUSH2 0x12D3 JUMP JUMPDEST SWAP3 SWAP1 POP PUSH2 0x75A JUMP JUMPDEST PUSH1 0x1 PUSH1 0x1 PUSH1 0xA0 SHL SUB PUSH2 0x799 PUSH1 0x4 CALLDATALOAD PUSH2 0x120 DUP7 MUL ADD PUSH1 0x24 ADD PUSH2 0x12E2 JUMP JUMPDEST AND SWAP1 PUSH1 0x40 MLOAD SWAP1 DUP2 MSTORE DUP3 PUSH1 0x20 DUP3 ADD MSTORE PUSH1 0x84 PUSH2 0x120 DUP6 MUL PUSH1 0x4 CALLDATALOAD ADD ADD CALLDATALOAD PUSH1 0x40 DUP3 ADD MSTORE PUSH32 0xA2C87ABC3341789E0370A7BAABED4F58835304C2B16A29536744AD19FCFD2E84 PUSH1 0x60 CALLER SWAP3 LOG3 DUP6 PUSH2 0x754 JUMP JUMPDEST PUSH2 0x7FD SWAP1 PUSH1 0x20 RETURNDATASIZE PUSH1 0x20 GT PUSH2 0x35F JUMPI PUSH2 0x351 DUP2 DUP4 PUSH2 0x12B1 JUMP JUMPDEST POP DUP6 PUSH2 0x748 JUMP JUMPDEST PUSH1 0x40 MLOAD PUSH4 0x70A08231 PUSH1 0xE0 SHL DUP2 MSTORE ADDRESS PUSH1 0x4 DUP3 ADD MSTORE SWAP2 POP PUSH1 0x20 DUP3 PUSH1 0x24 DUP2 DUP11 GAS STATICCALL DUP1 ISZERO PUSH2 0x366 JUMPI PUSH1 0x0 SWAP1 PUSH2 0x83F JUMPI JUMPDEST PUSH2 0x83A SWAP3 POP PUSH2 0x12F6 JUMP JUMPDEST PUSH2 0x74C JUMP JUMPDEST POP PUSH1 0x20 DUP3 RETURNDATASIZE PUSH1 0x20 GT PUSH2 0x86B JUMPI JUMPDEST DUP2 PUSH2 0x859 PUSH1 0x20 SWAP4 DUP4 PUSH2 0x12B1 JUMP JUMPDEST DUP2 ADD SUB SLT PUSH2 0x173 JUMPI PUSH2 0x83A SWAP2 MLOAD PUSH2 0x830 JUMP JUMPDEST RETURNDATASIZE SWAP2 POP PUSH2 0x84C JUMP JUMPDEST PUSH2 0x87C SWAP1 PUSH2 0x126B JUMP JUMPDEST DUP9 PUSH2 0x70D JUMP JUMPDEST SWAP1 SWAP2 POP PUSH1 0x20 DUP2 RETURNDATASIZE PUSH1 0x20 GT PUSH2 0x8AE JUMPI JUMPDEST DUP2 PUSH2 0x89E PUSH1 0x20 SWAP4 DUP4 PUSH2 0x12B1 JUMP JUMPDEST DUP2 ADD SUB SLT PUSH2 0x173 JUMPI MLOAD SWAP1 DUP9 PUSH2 0x672 JUMP JUMPDEST RETURNDATASIZE SWAP2 POP PUSH2 0x891 JUMP JUMPDEST PUSH2 0x8CE SWAP1 PUSH1 0x20 RETURNDATASIZE PUSH1 0x20 GT PUSH2 0x35F JUMPI PUSH2 0x351 DUP2 DUP4 PUSH2 0x12B1 JUMP JUMPDEST POP DUP7 PUSH2 0x5E2 JUMP JUMPDEST PUSH1 0x4 CALLDATALOAD PUSH2 0x120 DUP5 MUL ADD PUSH1 0xA4 ADD CALLDATALOAD PUSH3 0xFFFFFF DUP2 AND SWAP1 SUB PUSH2 0x173 JUMPI PUSH2 0x915 SWAP1 PUSH1 0x24 CALLDATALOAD SWAP1 DUP8 SWAP1 PUSH1 0x4 CALLDATALOAD PUSH2 0x120 DUP8 MUL ADD PUSH1 0x64 DUP2 ADD CALLDATALOAD SWAP2 PUSH1 0xA4 SWAP1 SWAP2 ADD CALLDATALOAD SWAP1 DUP7 SWAP1 PUSH2 0x1400 JUMP JUMPDEST SWAP1 PUSH2 0x74E JUMP JUMPDEST POP PUSH1 0x20 DUP3 RETURNDATASIZE PUSH1 0x20 GT PUSH2 0x947 JUMPI JUMPDEST DUP2 PUSH2 0x935 PUSH1 0x20 SWAP4 DUP4 PUSH2 0x12B1 JUMP JUMPDEST DUP2 ADD SUB SLT PUSH2 0x173 JUMPI PUSH2 0x562 SWAP2 MLOAD PUSH2 0x558 JUMP JUMPDEST RETURNDATASIZE SWAP2 POP PUSH2 0x928 JUMP JUMPDEST PUSH2 0x968 SWAP2 POP PUSH1 0x20 RETURNDATASIZE PUSH1 0x20 GT PUSH2 0x35F JUMPI PUSH2 0x351 DUP2 DUP4 PUSH2 0x12B1 JUMP JUMPDEST DUP8 PUSH2 0x527 JUMP JUMPDEST SWAP1 POP PUSH1 0x20 DUP2 RETURNDATASIZE PUSH1 0x20 GT PUSH2 0x998 JUMPI JUMPDEST DUP2 PUSH2 0x989 PUSH1 0x20 SWAP4 DUP4 PUSH2 0x12B1 JUMP JUMPDEST DUP2 ADD SUB SLT PUSH2 0x173 JUMPI MLOAD DUP7 PUSH2 0x4E1 JUMP JUMPDEST RETURNDATASIZE SWAP2 POP PUSH2 0x97C JUMP JUMPDEST PUSH1 0x1 PUSH1 0x1 PUSH1 0xA0 SHL SUB PUSH2 0x9BC PUSH1 0x4 CALLDATALOAD PUSH2 0x120 DUP5 MUL ADD PUSH1 0x24 ADD PUSH2 0x12E2 JUMP JUMPDEST AND PUSH1 0xE4 PUSH2 0x120 DUP4 MUL PUSH1 0x4 CALLDATALOAD ADD ADD CALLDATALOAD PUSH1 0xFF DUP2 AND DUP2 SUB PUSH2 0x173 JUMPI DUP2 EXTCODESIZE ISZERO PUSH2 0x173 JUMPI PUSH1 0x40 MLOAD PUSH4 0xD505ACCF PUSH1 0xE0 SHL DUP2 MSTORE CALLER PUSH1 0x4 DUP1 DUP4 ADD SWAP2 SWAP1 SWAP2 MSTORE ADDRESS PUSH1 0x24 DUP4 ADD MSTORE CALLDATALOAD PUSH2 0x120 DUP6 MUL ADD PUSH1 0x44 DUP2 DUP2 ADD CALLDATALOAD SWAP1 DUP4 ADD MSTORE PUSH1 0xC4 DUP1 DUP3 ADD CALLDATALOAD PUSH1 0x64 DUP5 ADD MSTORE PUSH1 0xFF SWAP4 SWAP1 SWAP4 AND PUSH1 0x84 DUP4 ADD MSTORE PUSH2 0x104 DUP2 ADD CALLDATALOAD PUSH1 0xA4 DUP4 ADD MSTORE PUSH2 0x124 ADD CALLDATALOAD SWAP2 DUP2 ADD SWAP2 SWAP1 SWAP2 MSTORE SWAP1 PUSH1 0x0 SWAP1 DUP3 SWAP1 PUSH1 0xE4 SWAP1 DUP3 SWAP1 DUP5 SWAP1 GAS CALL PUSH2 0xA50 JUMPI JUMPDEST POP PUSH2 0x499 JUMP JUMPDEST PUSH2 0xA59 SWAP1 PUSH2 0x126B JUMP JUMPDEST DUP5 PUSH2 0xA4A JUMP JUMPDEST PUSH1 0x40 MLOAD PUSH4 0xC1AB6DC1 PUSH1 0xE0 SHL DUP2 MSTORE PUSH1 0x4 SWAP1 REVERT JUMPDEST POP DUP4 PUSH1 0x1 PUSH1 0x1 PUSH1 0xA0 SHL SUB PUSH2 0xA8F PUSH1 0x4 CALLDATALOAD PUSH2 0x120 DUP6 MUL ADD PUSH1 0x24 ADD PUSH2 0x12E2 JUMP JUMPDEST AND EQ PUSH2 0x471 JUMP JUMPDEST POP PUSH2 0xAAB PUSH1 0x24 PUSH2 0x120 DUP4 MUL PUSH1 0x4 CALLDATALOAD ADD ADD PUSH2 0x12E2 JUMP JUMPDEST PUSH32 0x0 PUSH1 0x1 PUSH1 0x1 PUSH1 0xA0 SHL SUB SWAP1 DUP2 AND SWAP2 AND EQ PUSH2 0x46A JUMP JUMPDEST SWAP1 POP PUSH1 0x20 DUP2 RETURNDATASIZE PUSH1 0x20 GT PUSH2 0xB09 JUMPI JUMPDEST DUP2 PUSH2 0xAFA PUSH1 0x20 SWAP4 DUP4 PUSH2 0x12B1 JUMP JUMPDEST DUP2 ADD SUB SLT PUSH2 0x173 JUMPI MLOAD DUP3 PUSH2 0x22A JUMP JUMPDEST RETURNDATASIZE SWAP2 POP PUSH2 0xAED JUMP JUMPDEST PUSH1 0x40 MLOAD PUSH4 0x86724C7F PUSH1 0xE0 SHL DUP2 MSTORE PUSH1 0x4 SWAP1 REVERT JUMPDEST PUSH1 0x40 MLOAD PUSH4 0x1AB7DA6B PUSH1 0xE0 SHL DUP2 MSTORE PUSH1 0x4 SWAP1 REVERT JUMPDEST PUSH1 0x40 MLOAD PUSH4 0x3EE5AEB5 PUSH1 0xE0 SHL DUP2 MSTORE PUSH1 0x4 SWAP1 REVERT JUMPDEST CALLVALUE PUSH2 0x173 JUMPI PUSH1 0x20 CALLDATASIZE PUSH1 0x3 NOT ADD SLT PUSH2 0x173 JUMPI PUSH2 0xB60 PUSH2 0x1229 JUMP JUMPDEST PUSH2 0xB68 PUSH2 0x123F JUMP JUMPDEST PUSH1 0x1 PUSH1 0x1 PUSH1 0xA0 SHL SUB SWAP1 DUP2 AND SWAP1 DUP2 ISZERO PUSH2 0xBB6 JUMPI DUP2 PUSH1 0x3 SLOAD SWAP2 DUP3 AND PUSH32 0xAAEBCF1BFA00580E41D966056B48521FA9F202645C86D4DDF28113E617C1B1D3 PUSH1 0x0 DUP1 LOG3 PUSH1 0x1 PUSH1 0x1 PUSH1 0xA0 SHL SUB NOT AND OR PUSH1 0x3 SSTORE STOP JUMPDEST PUSH1 0x40 MLOAD PUSH4 0xED1B8B3 PUSH1 0xE3 SHL DUP2 MSTORE PUSH1 0x4 SWAP1 REVERT JUMPDEST CALLVALUE PUSH2 0x173 JUMPI PUSH1 0x0 CALLDATASIZE PUSH1 0x3 NOT ADD SLT PUSH2 0x173 JUMPI PUSH1 0x40 MLOAD PUSH32 0x0 PUSH1 0x1 PUSH1 0x1 PUSH1 0xA0 SHL SUB AND DUP2 MSTORE PUSH1 0x20 SWAP1 RETURN JUMPDEST CALLVALUE PUSH2 0x173 JUMPI PUSH1 0x0 CALLDATASIZE PUSH1 0x3 NOT ADD SLT PUSH2 0x173 JUMPI PUSH1 0x20 PUSH1 0x40 MLOAD PUSH2 0x2710 DUP2 MSTORE RETURN JUMPDEST CALLVALUE PUSH2 0x173 JUMPI PUSH1 0x0 CALLDATASIZE PUSH1 0x3 NOT ADD SLT PUSH2 0x173 JUMPI PUSH1 0x40 MLOAD PUSH32 0x0 PUSH1 0x1 PUSH1 0x1 PUSH1 0xA0 SHL SUB AND DUP2 MSTORE PUSH1 0x20 SWAP1 RETURN JUMPDEST CALLVALUE PUSH2 0x173 JUMPI PUSH1 0x0 CALLDATASIZE PUSH1 0x3 NOT ADD SLT PUSH2 0x173 JUMPI PUSH1 0x2 SLOAD PUSH1 0x40 MLOAD PUSH1 0x1 PUSH1 0x1 PUSH1 0xA0 SHL SUB SWAP1 SWAP2 AND DUP2 MSTORE PUSH1 0x20 SWAP1 RETURN JUMPDEST CALLVALUE PUSH2 0x173 JUMPI PUSH1 0x0 CALLDATASIZE PUSH1 0x3 NOT ADD SLT PUSH2 0x173 JUMPI PUSH1 0x20 PUSH1 0x40 MLOAD PUSH2 0x1388 DUP2 MSTORE RETURN JUMPDEST CALLVALUE PUSH2 0x173 JUMPI PUSH1 0x40 CALLDATASIZE PUSH1 0x3 NOT ADD SLT PUSH2 0x173 JUMPI PUSH2 0x1B PUSH2 0xCD1 PUSH2 0x1229 JUMP JUMPDEST PUSH2 0xCD9 PUSH2 0x123F JUMP JUMPDEST PUSH1 0x24 CALLDATALOAD SWAP1 PUSH2 0x1903 JUMP JUMPDEST CALLVALUE PUSH2 0x173 JUMPI PUSH1 0x0 CALLDATASIZE PUSH1 0x3 NOT ADD SLT PUSH2 0x173 JUMPI PUSH1 0x40 MLOAD PUSH32 0x0 PUSH1 0x1 PUSH1 0x1 PUSH1 0xA0 SHL SUB AND DUP2 MSTORE PUSH1 0x20 SWAP1 RETURN JUMPDEST CALLVALUE PUSH2 0x173 JUMPI PUSH1 0x0 CALLDATASIZE PUSH1 0x3 NOT ADD SLT PUSH2 0x173 JUMPI PUSH1 0x0 SLOAD PUSH1 0x40 MLOAD PUSH1 0x1 PUSH1 0x1 PUSH1 0xA0 SHL SUB SWAP1 SWAP2 AND DUP2 MSTORE PUSH1 0x20 SWAP1 RETURN JUMPDEST CALLVALUE PUSH2 0x173 JUMPI PUSH1 0x0 CALLDATASIZE PUSH1 0x3 NOT ADD SLT PUSH2 0x173 JUMPI PUSH1 0x20 PUSH1 0x4 SLOAD PUSH1 0x40 MLOAD SWAP1 DUP2 MSTORE RETURN JUMPDEST CALLVALUE PUSH2 0x173 JUMPI PUSH1 0x0 CALLDATASIZE PUSH1 0x3 NOT ADD SLT PUSH2 0x173 JUMPI PUSH2 0xD87 PUSH2 0x123F JUMP JUMPDEST PUSH1 0x0 DUP1 SLOAD PUSH1 0x1 PUSH1 0x1 PUSH1 0xA0 SHL SUB NOT DUP2 AND DUP3 SSTORE PUSH1 0x1 PUSH1 0x1 PUSH1 0xA0 SHL SUB AND PUSH32 0x8BE0079C531659141344CD1FD0A4F28419497F9722A3DAAFE3B4186F6B6457E0 DUP3 DUP1 LOG3 STOP JUMPDEST CALLVALUE PUSH2 0x173 JUMPI PUSH1 0x20 CALLDATASIZE PUSH1 0x3 NOT ADD SLT PUSH2 0x173 JUMPI PUSH2 0xDE0 PUSH2 0x1229 JUMP JUMPDEST PUSH2 0xDE8 PUSH2 0x123F JUMP JUMPDEST PUSH1 0x1 PUSH1 0x1 PUSH1 0xA0 SHL SUB SWAP1 DUP2 AND SWAP1 DUP2 ISZERO DUP1 ISZERO PUSH2 0xE4E JUMPI JUMPDEST PUSH2 0xE3D JUMPI DUP2 PUSH1 0x2 SLOAD SWAP2 DUP3 AND PUSH32 0xFDEF5FA97F9834C3CE5C25F08D33B4E5A200F1055BC73FA7B69CC974C47B7B34 PUSH1 0x0 DUP1 LOG3 PUSH1 0x1 PUSH1 0x1 PUSH1 0xA0 SHL SUB NOT AND OR PUSH1 0x2 SSTORE STOP JUMPDEST PUSH1 0x40 MLOAD PUSH3 0x310101 PUSH1 0xE5 SHL DUP2 MSTORE PUSH1 0x4 SWAP1 REVERT JUMPDEST POP DUP1 PUSH32 0x0 AND DUP3 EQ PUSH2 0xDFD JUMP JUMPDEST CALLVALUE PUSH2 0x173 JUMPI PUSH1 0x20 CALLDATASIZE PUSH1 0x3 NOT ADD SLT PUSH2 0x173 JUMPI PUSH1 0x4 CALLDATALOAD PUSH2 0xE95 PUSH2 0x123F JUMP JUMPDEST PUSH2 0x1388 DUP2 GT PUSH2 0xED5 JUMPI PUSH32 0x528D9479E9F9889A87A3C30C7F7BA537E5E59C4C85A37733B16E57C62DF61302 PUSH1 0x40 PUSH1 0x4 SLOAD DUP2 MLOAD SWAP1 DUP2 MSTORE DUP4 PUSH1 0x20 DUP3 ADD MSTORE LOG1 PUSH1 0x4 SSTORE STOP JUMPDEST PUSH1 0x40 MLOAD PUSH4 0xCD4E6167 PUSH1 0xE0 SHL DUP2 MSTORE PUSH1 0x4 SWAP1 REVERT JUMPDEST CALLVALUE PUSH2 0x173 JUMPI PUSH1 0x0 CALLDATASIZE PUSH1 0x3 NOT ADD SLT PUSH2 0x173 JUMPI PUSH1 0x3 SLOAD PUSH1 0x40 MLOAD PUSH1 0x1 PUSH1 0x1 PUSH1 0xA0 SHL SUB SWAP1 SWAP2 AND DUP2 MSTORE PUSH1 0x20 SWAP1 RETURN JUMPDEST CALLVALUE PUSH2 0x173 JUMPI PUSH1 0x40 CALLDATASIZE PUSH1 0x3 NOT ADD SLT PUSH2 0x173 JUMPI PUSH1 0x4 CALLDATALOAD PUSH8 0xFFFFFFFFFFFFFFFF DUP2 GT PUSH2 0x173 JUMPI PUSH2 0xF41 SWAP1 CALLDATASIZE SWAP1 PUSH1 0x4 ADD PUSH2 0x11F8 JUMP JUMPDEST SWAP1 PUSH1 0x24 CALLDATALOAD PUSH8 0xFFFFFFFFFFFFFFFF DUP2 GT PUSH2 0x173 JUMPI PUSH2 0xF62 SWAP1 CALLDATASIZE SWAP1 PUSH1 0x4 ADD PUSH2 0x11F8 JUMP JUMPDEST SWAP1 SWAP4 DUP2 DUP5 SUB PUSH2 0x11C4 JUMPI POP PUSH2 0xF75 DUP4 PUSH2 0x131B JUMP JUMPDEST SWAP4 PUSH2 0xF83 PUSH1 0x40 MLOAD SWAP6 DUP7 PUSH2 0x12B1 JUMP JUMPDEST DUP4 DUP6 MSTORE PUSH1 0x1F NOT PUSH2 0xF92 DUP6 PUSH2 0x131B JUMP JUMPDEST ADD CALLDATASIZE PUSH1 0x20 DUP8 ADD CALLDATACOPY PUSH1 0x2 SLOAD PUSH1 0x1 PUSH1 0x1 PUSH1 0xA0 SHL SUB AND PUSH1 0x0 JUMPDEST DUP6 DUP2 LT PUSH2 0xFF5 JUMPI DUP7 PUSH1 0x40 MLOAD DUP1 SWAP2 PUSH1 0x20 DUP3 ADD PUSH1 0x20 DUP4 MSTORE DUP2 MLOAD DUP1 SWAP2 MSTORE PUSH1 0x20 PUSH1 0x40 DUP5 ADD SWAP3 ADD SWAP1 PUSH1 0x0 JUMPDEST DUP2 DUP2 LT PUSH2 0xFDC JUMPI POP POP POP SUB SWAP1 RETURN JUMPDEST DUP3 MLOAD DUP5 MSTORE DUP6 SWAP5 POP PUSH1 0x20 SWAP4 DUP5 ADD SWAP4 SWAP1 SWAP3 ADD SWAP2 PUSH1 0x1 ADD PUSH2 0xFCE JUMP JUMPDEST PUSH2 0x10A7 SWAP1 PUSH1 0x0 PUSH1 0x40 MLOAD PUSH2 0x1007 DUP2 PUSH2 0x1295 JUMP JUMPDEST PUSH1 0x3 DUP2 MSTORE PUSH1 0x60 CALLDATASIZE PUSH1 0x20 DUP4 ADD CALLDATACOPY PUSH2 0x1026 PUSH2 0x1021 DUP5 DUP12 DUP12 PUSH2 0x18F3 JUMP JUMPDEST PUSH2 0x12E2 JUMP JUMPDEST PUSH2 0x102F DUP3 PUSH2 0x1333 JUMP JUMPDEST PUSH1 0x1 PUSH1 0x1 PUSH1 0xA0 SHL SUB SWAP2 DUP3 AND SWAP1 MSTORE PUSH32 0x0 AND PUSH2 0x1067 DUP3 PUSH2 0x1356 JUMP JUMPDEST MSTORE DUP5 PUSH2 0x1072 DUP3 PUSH2 0x1366 JUMP JUMPDEST MSTORE PUSH2 0x107E DUP4 DUP9 DUP9 PUSH2 0x18F3 JUMP JUMPDEST CALLDATALOAD PUSH1 0x40 MLOAD SWAP5 DUP6 SWAP3 DUP4 SWAP3 PUSH4 0xD06CA61F PUSH1 0xE0 SHL DUP5 MSTORE PUSH1 0x4 DUP5 ADD MSTORE PUSH1 0x40 PUSH1 0x24 DUP5 ADD MSTORE PUSH1 0x44 DUP4 ADD SWAP1 PUSH2 0x138A JUMP JUMPDEST SUB DUP2 PUSH32 0x0 PUSH1 0x1 PUSH1 0x1 PUSH1 0xA0 SHL SUB AND GAS STATICCALL DUP1 PUSH1 0x0 SWAP2 PUSH2 0x1113 JUMPI JUMPDEST PUSH2 0x10FA SWAP4 POP PUSH2 0x10FF JUMPI POP PUSH1 0x0 PUSH2 0x10F4 DUP3 DUP11 PUSH2 0x1376 JUMP JUMPDEST MSTORE PUSH2 0x12D3 JUMP JUMPDEST PUSH2 0xFA8 JUMP JUMPDEST PUSH2 0x1108 SWAP1 PUSH2 0x1366 JUMP JUMPDEST MLOAD PUSH2 0x10F4 DUP3 DUP11 PUSH2 0x1376 JUMP JUMPDEST SWAP2 SWAP3 SWAP1 POP RETURNDATASIZE DUP1 PUSH1 0x0 DUP4 RETURNDATACOPY PUSH2 0x1127 DUP2 DUP4 PUSH2 0x12B1 JUMP JUMPDEST PUSH1 0x20 DUP3 DUP3 DUP2 ADD SUB SLT PUSH2 0x173 JUMPI DUP2 MLOAD SWAP2 PUSH8 0xFFFFFFFFFFFFFFFF DUP4 GT PUSH2 0x173 JUMPI DUP2 DUP2 ADD PUSH1 0x1F DUP5 DUP4 ADD ADD SLT ISZERO PUSH2 0x173 JUMPI DUP3 DUP2 ADD MLOAD SWAP1 PUSH2 0x1162 DUP3 PUSH2 0x131B JUMP JUMPDEST SWAP4 PUSH2 0x1170 PUSH1 0x40 MLOAD SWAP6 DUP7 PUSH2 0x12B1 JUMP JUMPDEST DUP3 DUP6 MSTORE PUSH1 0x20 DUP6 ADD SWAP4 DUP3 ADD PUSH1 0x20 DUP5 PUSH1 0x5 SHL DUP4 DUP6 ADD ADD ADD GT PUSH2 0x173 JUMPI PUSH1 0x20 DUP2 DUP4 ADD ADD SWAP4 JUMPDEST PUSH1 0x20 DUP5 PUSH1 0x5 SHL DUP4 DUP6 ADD ADD ADD DUP6 LT PUSH2 0x11B4 JUMPI POP POP POP POP POP SWAP1 PUSH2 0x10FA SWAP3 SWAP2 SWAP1 PUSH2 0x10DE JUMP JUMPDEST DUP5 MLOAD DUP2 MSTORE PUSH1 0x20 SWAP5 DUP6 ADD SWAP5 ADD PUSH2 0x1192 JUMP JUMPDEST PUSH3 0x461BCD PUSH1 0xE5 SHL DUP2 MSTORE PUSH1 0x20 PUSH1 0x4 DUP3 ADD MSTORE PUSH1 0xF PUSH1 0x24 DUP3 ADD MSTORE PUSH15 0x98CADCCEE8D040DAD2E6DAC2E8C6D PUSH1 0x8B SHL PUSH1 0x44 DUP3 ADD MSTORE PUSH1 0x64 SWAP1 REVERT JUMPDEST SWAP2 DUP2 PUSH1 0x1F DUP5 ADD SLT ISZERO PUSH2 0x173 JUMPI DUP3 CALLDATALOAD SWAP2 PUSH8 0xFFFFFFFFFFFFFFFF DUP4 GT PUSH2 0x173 JUMPI PUSH1 0x20 DUP1 DUP6 ADD SWAP5 DUP5 PUSH1 0x5 SHL ADD ADD GT PUSH2 0x173 JUMPI JUMP JUMPDEST PUSH1 0x4 CALLDATALOAD SWAP1 PUSH1 0x1 PUSH1 0x1 PUSH1 0xA0 SHL SUB DUP3 AND DUP3 SUB PUSH2 0x173 JUMPI JUMP JUMPDEST PUSH1 0x0 SLOAD PUSH1 0x1 PUSH1 0x1 PUSH1 0xA0 SHL SUB AND CALLER SUB PUSH2 0x1253 JUMPI JUMP JUMPDEST PUSH1 0x40 MLOAD PUSH4 0x118CDAA7 PUSH1 0xE0 SHL DUP2 MSTORE CALLER PUSH1 0x4 DUP3 ADD MSTORE PUSH1 0x24 SWAP1 REVERT JUMPDEST PUSH8 0xFFFFFFFFFFFFFFFF DUP2 GT PUSH2 0x127F JUMPI PUSH1 0x40 MSTORE JUMP JUMPDEST PUSH4 0x4E487B71 PUSH1 0xE0 SHL PUSH1 0x0 MSTORE PUSH1 0x41 PUSH1 0x4 MSTORE PUSH1 0x24 PUSH1 0x0 REVERT JUMPDEST PUSH1 0x80 DUP2 ADD SWAP1 DUP2 LT PUSH8 0xFFFFFFFFFFFFFFFF DUP3 GT OR PUSH2 0x127F JUMPI PUSH1 0x40 MSTORE JUMP JUMPDEST SWAP1 PUSH1 0x1F DUP1 NOT SWAP2 ADD AND DUP2 ADD SWAP1 DUP2 LT PUSH8 0xFFFFFFFFFFFFFFFF DUP3 GT OR PUSH2 0x127F JUMPI PUSH1 0x40 MSTORE JUMP JUMPDEST PUSH1 0x0 NOT DUP2 EQ PUSH2 0x3E9 JUMPI PUSH1 0x1 ADD SWAP1 JUMP JUMPDEST CALLDATALOAD PUSH1 0x1 PUSH1 0x1 PUSH1 0xA0 SHL SUB DUP2 AND DUP2 SUB PUSH2 0x173 JUMPI SWAP1 JUMP JUMPDEST SWAP2 SWAP1 DUP3 SUB SWAP2 DUP3 GT PUSH2 0x3E9 JUMPI JUMP JUMPDEST SWAP1 DUP2 PUSH1 0x20 SWAP2 SUB SLT PUSH2 0x173 JUMPI MLOAD DUP1 ISZERO ISZERO DUP2 SUB PUSH2 0x173 JUMPI SWAP1 JUMP JUMPDEST PUSH8 0xFFFFFFFFFFFFFFFF DUP2 GT PUSH2 0x127F JUMPI PUSH1 0x5 SHL PUSH1 0x20 ADD SWAP1 JUMP JUMPDEST DUP1 MLOAD ISZERO PUSH2 0x1340 JUMPI PUSH1 0x20 ADD SWAP1 JUMP JUMPDEST PUSH4 0x4E487B71 PUSH1 0xE0 SHL PUSH1 0x0 MSTORE PUSH1 0x32 PUSH1 0x4 MSTORE PUSH1 0x24 PUSH1 0x0 REVERT JUMPDEST DUP1 MLOAD PUSH1 0x1 LT ISZERO PUSH2 0x1340 JUMPI PUSH1 0x40 ADD SWAP1 JUMP JUMPDEST DUP1 MLOAD PUSH1 0x2 LT ISZERO PUSH2 0x1340 JUMPI PUSH1 0x60 ADD SWAP1 JUMP JUMPDEST DUP1 MLOAD DUP3 LT ISZERO PUSH2 0x1340 JUMPI PUSH1 0x20 SWAP2 PUSH1 0x5 SHL ADD ADD SWAP1 JUMP JUMPDEST SWAP1 DUP2 MLOAD DUP1 DUP3 MSTORE PUSH1 0x20 DUP1 DUP1 SWAP4 ADD SWAP4 ADD SWAP2 PUSH1 0x0 JUMPDEST DUP3 DUP2 LT PUSH2 0x13AA JUMPI POP POP POP POP SWAP1 JUMP JUMPDEST DUP4 MLOAD PUSH1 0x1 PUSH1 0x1 PUSH1 0xA0 SHL SUB AND DUP6 MSTORE SWAP4 DUP2 ADD SWAP4 SWAP3 DUP2 ADD SWAP3 PUSH1 0x1 ADD PUSH2 0x139C JUMP JUMPDEST SWAP2 SWAP3 PUSH1 0x80 SWAP4 PUSH2 0x13EC SWAP3 SWAP8 SWAP7 SWAP6 SWAP8 DUP5 MSTORE PUSH1 0x20 DUP5 ADD MSTORE PUSH1 0xA0 PUSH1 0x40 DUP5 ADD MSTORE PUSH1 0xA0 DUP4 ADD SWAP1 PUSH2 0x138A JUMP JUMPDEST PUSH1 0x1 PUSH1 0x1 PUSH1 0xA0 SHL SUB SWAP1 SWAP6 AND PUSH1 0x60 DUP3 ADD MSTORE ADD MSTORE JUMP JUMPDEST PUSH1 0x40 DUP1 MLOAD PUSH4 0x95EA7B3 PUSH1 0xE0 SHL DUP2 MSTORE PUSH1 0x1 PUSH1 0x1 PUSH1 0xA0 SHL SUB PUSH32 0x0 DUP2 AND PUSH1 0x4 DUP4 ADD MSTORE PUSH1 0x24 DUP3 ADD DUP6 SWAP1 MSTORE SWAP8 SWAP9 SWAP8 PUSH1 0x0 SWAP8 SWAP3 SWAP7 SWAP4 AND SWAP5 SWAP2 SWAP3 SWAP1 PUSH1 0x20 DUP2 PUSH1 0x44 DUP2 DUP12 DUP11 GAS CALL DUP1 ISZERO PUSH2 0x18E9 JUMPI PUSH2 0x18CA JUMPI JUMPDEST POP DUP6 MLOAD SWAP9 PUSH8 0xFFFFFFFFFFFFFFFF SWAP3 PUSH1 0xE0 DUP12 ADD DUP5 DUP2 GT DUP13 DUP3 LT OR PUSH2 0x18B6 JUMPI SWAP1 PUSH3 0xFFFFFF SWAP2 DUP10 MSTORE DUP8 DUP13 MSTORE PUSH1 0x1 DUP1 PUSH1 0xA0 SHL SUB PUSH32 0x0 AND PUSH1 0x20 DUP14 ADD MSTORE AND DUP8 DUP12 ADD MSTORE ADDRESS PUSH1 0x60 DUP12 ADD MSTORE DUP5 PUSH1 0x80 DUP12 ADD MSTORE DUP8 PUSH1 0xA0 DUP12 ADD MSTORE DUP8 PUSH1 0xC0 DUP12 ADD MSTORE DUP7 MLOAD SWAP10 PUSH4 0x4E45AAF PUSH1 0xE0 SHL DUP12 MSTORE PUSH1 0x1 DUP1 PUSH1 0xA0 SHL SUB DUP2 MLOAD AND PUSH1 0x4 DUP13 ADD MSTORE PUSH1 0x1 DUP1 PUSH1 0xA0 SHL SUB PUSH1 0x20 DUP3 ADD MLOAD AND PUSH1 0x24 DUP13 ADD MSTORE PUSH3 0xFFFFFF DUP9 DUP3 ADD MLOAD AND PUSH1 0x44 DUP13 ADD MSTORE PUSH1 0x1 DUP1 PUSH1 0xA0 SHL SUB PUSH1 0x60 DUP3 ADD MLOAD AND PUSH1 0x64 DUP13 ADD MSTORE PUSH1 0x80 DUP2 ADD MLOAD PUSH1 0x84 DUP13 ADD MSTORE PUSH1 0xA0 DUP2 ADD MLOAD PUSH1 0xA4 DUP13 ADD MSTORE PUSH1 0xC0 PUSH1 0x1 DUP1 PUSH1 0xA0 SHL SUB SWAP2 ADD MLOAD AND PUSH1 0xC4 DUP12 ADD MSTORE PUSH1 0x20 DUP11 PUSH1 0xE4 DUP2 DUP12 PUSH1 0x1 DUP1 PUSH1 0xA0 SHL SUB PUSH32 0x0 AND GAS CALL DUP1 DUP10 SWAP2 PUSH2 0x187B JUMPI JUMPDEST DUP10 SWAP11 SWAP12 POP ISZERO PUSH1 0x0 EQ PUSH2 0x15F8 JUMPI POP POP DUP6 MLOAD PUSH4 0xA9059CBB PUSH1 0xE0 SHL DUP2 MSTORE CALLER PUSH1 0x4 DUP3 ADD MSTORE PUSH1 0x24 DUP2 ADD SWAP5 SWAP1 SWAP5 MSTORE POP SWAP2 SWAP5 PUSH1 0x20 SWAP4 DUP7 SWAP4 POP PUSH1 0x44 SWAP3 POP DUP4 SWAP2 SWAP1 GAS CALL SWAP1 DUP2 ISZERO PUSH2 0x15EF JUMPI POP PUSH2 0x15D3 JUMPI POP SWAP1 JUMP JUMPDEST PUSH2 0x15EB SWAP1 PUSH1 0x20 RETURNDATASIZE PUSH1 0x20 GT PUSH2 0x35F JUMPI PUSH2 0x351 DUP2 DUP4 PUSH2 0x12B1 JUMP JUMPDEST POP SWAP1 JUMP JUMPDEST MLOAD RETURNDATASIZE DUP5 DUP3 RETURNDATACOPY RETURNDATASIZE SWAP1 REVERT JUMPDEST SWAP3 SWAP7 SWAP6 POP SWAP3 SWAP7 POP SWAP3 POP DUP1 ISZERO PUSH2 0x1872 JUMPI DUP4 MLOAD PUSH4 0x95EA7B3 PUSH1 0xE0 SHL DUP2 MSTORE PUSH32 0x0 PUSH1 0x1 PUSH1 0x1 PUSH1 0xA0 SHL SUB AND PUSH1 0x4 DUP3 ADD DUP2 SWAP1 MSTORE PUSH1 0x24 DUP3 ADD DUP4 SWAP1 MSTORE SWAP1 PUSH1 0x20 DUP2 DUP1 PUSH1 0x44 DUP2 ADD SUB DUP2 DUP13 PUSH32 0x0 PUSH1 0x1 PUSH1 0x1 PUSH1 0xA0 SHL SUB AND GAS CALL DUP1 ISZERO PUSH2 0x1868 JUMPI PUSH2 0x1849 JUMPI JUMPDEST POP DUP5 MLOAD SWAP6 PUSH1 0x60 DUP8 ADD SWAP1 DUP2 GT DUP8 DUP3 LT OR PUSH2 0x1835 JUMPI DUP6 MSTORE PUSH1 0x2 DUP7 MSTORE DUP5 CALLDATASIZE PUSH1 0x20 DUP9 ADD CALLDATACOPY PUSH32 0x0 PUSH1 0x1 PUSH1 0x1 PUSH1 0xA0 SHL SUB AND PUSH2 0x16E1 DUP8 PUSH2 0x1333 JUMP JUMPDEST MSTORE PUSH2 0x16EB DUP7 PUSH2 0x1356 JUMP JUMPDEST PUSH1 0x1 PUSH1 0x1 PUSH1 0xA0 SHL SUB SWAP1 SWAP8 AND SWAP7 DUP8 SWAP1 MSTORE DUP5 MLOAD PUSH4 0x70A08231 PUSH1 0xE0 SHL DUP1 DUP3 MSTORE ADDRESS PUSH1 0x4 DUP4 ADD MSTORE SWAP1 SWAP7 SWAP1 SWAP5 PUSH1 0x20 DUP9 PUSH1 0x24 DUP2 DUP13 GAS STATICCALL SWAP8 DUP9 ISZERO PUSH2 0x182B JUMPI DUP11 SWAP9 PUSH2 0x17F7 JUMPI JUMPDEST POP DUP3 EXTCODESIZE ISZERO PUSH2 0x17F3 JUMPI SWAP1 DUP10 DUP1 SWAP5 SWAP4 SWAP3 PUSH2 0x1757 DUP10 MLOAD SWAP8 DUP9 SWAP7 DUP8 SWAP6 DUP7 SWAP5 PUSH4 0x5C11D795 PUSH1 0xE0 SHL DUP7 MSTORE ADDRESS SWAP3 PUSH1 0x4 DUP8 ADD PUSH2 0x13C7 JUMP JUMPDEST SUB SWAP3 GAS CALL SWAP1 DUP2 PUSH2 0x17E0 JUMPI JUMPDEST POP PUSH2 0x176E JUMPI POP POP POP POP SWAP1 JUMP JUMPDEST PUSH1 0x20 SWAP1 PUSH1 0x24 DUP4 SWAP5 SWAP6 SWAP7 SWAP4 MLOAD DUP1 SWAP8 DUP2 SWAP4 DUP3 MSTORE ADDRESS PUSH1 0x4 DUP4 ADD MSTORE GAS STATICCALL SWAP2 DUP3 ISZERO PUSH2 0x17D6 JUMPI POP SWAP1 PUSH2 0x17A2 JUMPI JUMPDEST PUSH2 0x179F SWAP3 POP PUSH2 0x12F6 JUMP JUMPDEST SWAP1 JUMP JUMPDEST POP PUSH1 0x20 DUP3 RETURNDATASIZE PUSH1 0x20 GT PUSH2 0x17CE JUMPI JUMPDEST DUP2 PUSH2 0x17BC PUSH1 0x20 SWAP4 DUP4 PUSH2 0x12B1 JUMP JUMPDEST DUP2 ADD SUB SLT PUSH2 0x173 JUMPI PUSH2 0x179F SWAP2 MLOAD PUSH2 0x1795 JUMP JUMPDEST RETURNDATASIZE SWAP2 POP PUSH2 0x17AF JUMP JUMPDEST MLOAD SWAP1 RETURNDATASIZE SWAP1 DUP3 RETURNDATACOPY RETURNDATASIZE SWAP1 REVERT JUMPDEST PUSH2 0x17EC SWAP1 SWAP7 SWAP2 SWAP7 PUSH2 0x126B JUMP JUMPDEST SWAP5 CODESIZE PUSH2 0x1762 JUMP JUMPDEST DUP10 DUP1 REVERT JUMPDEST SWAP1 SWAP8 POP PUSH1 0x20 DUP2 RETURNDATASIZE PUSH1 0x20 GT PUSH2 0x1823 JUMPI JUMPDEST DUP2 PUSH2 0x1813 PUSH1 0x20 SWAP4 DUP4 PUSH2 0x12B1 JUMP JUMPDEST DUP2 ADD SUB SLT PUSH2 0x17F3 JUMPI MLOAD SWAP7 CODESIZE PUSH2 0x1728 JUMP JUMPDEST RETURNDATASIZE SWAP2 POP PUSH2 0x1806 JUMP JUMPDEST DUP8 MLOAD RETURNDATASIZE DUP13 DUP3 RETURNDATACOPY RETURNDATASIZE SWAP1 REVERT JUMPDEST PUSH4 0x4E487B71 PUSH1 0xE0 SHL DUP10 MSTORE PUSH1 0x41 PUSH1 0x4 MSTORE PUSH1 0x24 DUP10 REVERT JUMPDEST PUSH2 0x1861 SWAP1 PUSH1 0x20 RETURNDATASIZE PUSH1 0x20 GT PUSH2 0x35F JUMPI PUSH2 0x351 DUP2 DUP4 PUSH2 0x12B1 JUMP JUMPDEST POP CODESIZE PUSH2 0x168E JUMP JUMPDEST DUP7 MLOAD RETURNDATASIZE DUP12 DUP3 RETURNDATACOPY RETURNDATASIZE SWAP1 REVERT JUMPDEST POP POP POP POP POP POP SWAP1 JUMP JUMPDEST SWAP1 POP PUSH1 0x20 DUP12 RETURNDATASIZE PUSH1 0x20 GT PUSH2 0x18AE JUMPI JUMPDEST DUP2 PUSH2 0x1896 PUSH1 0x20 SWAP4 DUP4 PUSH2 0x12B1 JUMP JUMPDEST DUP2 ADD SUB SLT PUSH2 0x18AA JUMPI SWAP10 MLOAD SWAP9 SWAP10 DUP11 SWAP10 SWAP1 PUSH2 0x1589 JUMP JUMPDEST DUP9 DUP1 REVERT JUMPDEST RETURNDATASIZE SWAP2 POP PUSH2 0x1889 JUMP JUMPDEST PUSH4 0x4E487B71 PUSH1 0xE0 SHL DUP11 MSTORE PUSH1 0x41 PUSH1 0x4 MSTORE PUSH1 0x24 DUP11 REVERT JUMPDEST PUSH2 0x18E2 SWAP1 PUSH1 0x20 RETURNDATASIZE PUSH1 0x20 GT PUSH2 0x35F JUMPI PUSH2 0x351 DUP2 DUP4 PUSH2 0x12B1 JUMP JUMPDEST POP CODESIZE PUSH2 0x1468 JUMP JUMPDEST DUP8 MLOAD RETURNDATASIZE DUP11 DUP3 RETURNDATACOPY RETURNDATASIZE SWAP1 REVERT JUMPDEST SWAP2 SWAP1 DUP2 LT ISZERO PUSH2 0x1340 JUMPI PUSH1 0x5 SHL ADD SWAP1 JUMP JUMPDEST DUP2 ISZERO PUSH2 0x19E3 JUMPI PUSH1 0x1 PUSH1 0x1 PUSH1 0xA0 SHL SUB SWAP1 DUP2 AND DUP1 PUSH2 0x1981 JUMPI POP PUSH1 0x0 DUP1 DUP1 DUP1 SWAP5 DUP2 SWAP5 DUP3 SLOAD AND GAS CALL SWAP1 RETURNDATASIZE ISZERO PUSH2 0x197B JUMPI RETURNDATASIZE SWAP1 PUSH8 0xFFFFFFFFFFFFFFFF DUP3 GT PUSH2 0x1967 JUMPI PUSH1 0x40 MLOAD SWAP2 PUSH2 0x1957 PUSH1 0x1F DUP3 ADD PUSH1 0x1F NOT AND PUSH1 0x20 ADD DUP5 PUSH2 0x12B1 JUMP JUMPDEST DUP3 MSTORE PUSH1 0x20 RETURNDATASIZE SWAP3 ADD RETURNDATACOPY JUMPDEST ISZERO PUSH2 0x325 JUMPI JUMP JUMPDEST PUSH4 0x4E487B71 PUSH1 0xE0 SHL DUP2 MSTORE PUSH1 0x41 PUSH1 0x4 MSTORE PUSH1 0x24 SWAP1 REVERT JUMPDEST POP PUSH2 0x1960 JUMP JUMPDEST PUSH1 0x0 DUP1 SLOAD PUSH1 0x40 MLOAD PUSH4 0xA9059CBB PUSH1 0xE0 SHL DUP2 MSTORE SWAP4 AND PUSH1 0x1 PUSH1 0x1 PUSH1 0xA0 SHL SUB AND PUSH1 0x4 DUP5 ADD MSTORE PUSH1 0x24 DUP4 ADD SWAP4 SWAP1 SWAP4 MSTORE SWAP1 SWAP2 PUSH1 0x20 SWAP2 DUP4 SWAP2 DUP3 SWAP1 DUP2 PUSH1 0x44 DUP2 ADD SUB SWAP3 GAS CALL DUP1 ISZERO PUSH2 0x366 JUMPI PUSH2 0x19C9 JUMPI POP JUMP JUMPDEST PUSH2 0x19E0 SWAP1 PUSH1 0x20 RETURNDATASIZE DUP2 GT PUSH2 0x35F JUMPI PUSH2 0x351 DUP2 DUP4 PUSH2 0x12B1 JUMP JUMPDEST POP JUMP JUMPDEST POP POP JUMP INVALID LOG2 PUSH5 0x6970667358 0x22 SLT KECCAK256 0xBC SWAP7 0xEE 0xC9 REVERT SMOD 0xD RETURNDATACOPY KECCAK256 DUP8 ADDMOD SWAP5 MSIZE PUSH27 0xDE1CE9B087AA69A38E3F179E27550457BF9664736F6C6343000814 STOP CALLER "},"methodIdentifiers":{"FEE_DENOMINATOR()":"d73792a9","MAX_FEE()":"bc063e1a","WBNB()":"8dd95002","batchSwapToToken((address,uint256,uint256,uint8,uint24,uint256,uint8,bytes32,bytes32)[],uint256)":"f1ae159c","emergencyWithdraw(address,uint256)":"95ccea67","feeRecipient()":"46904840","getEstimatedOutputs(address[],uint256[])":"273efee0","outputToken()":"c1d8d1d9","owner()":"8da5cb5b","pancakeRouterV2()":"d20ccdc2","pancakeRouterV3()":"e47aaf6d","renounceOwnership()":"715018a6","serviceFee()":"8abdf5aa","setFee(uint256)":"69fe0e2d","setFeeRecipient(address)":"e74b981b","setOutputToken(address)":"6b5b2c31","transferOwnership(address)":"f2fde38b"}}}}}