{"contracts/DustSwapRouter.sol":{"DustSwapRouter":{"abi":[{"inputs":[{"internalType":"address","name":"_pancakeRouter","type":"address"}],"stateMutability":"nonpayable","type":"constructor"},{"inputs":[],"name":"DeadlineExpired","type":"error"},{"inputs":[],"name":"EmptySwapList","type":"error"},{"inputs":[],"name":"InsufficientOutput","type":"error"},{"inputs":[],"name":"InvalidRouter","type":"error"},{"inputs":[],"name":"InvalidToken","type":"error"},{"inputs":[{"internalType":"address","name":"owner","type":"address"}],"name":"OwnableInvalidOwner","type":"error"},{"inputs":[{"internalType":"address","name":"account","type":"address"}],"name":"OwnableUnauthorizedAccount","type":"error"},{"inputs":[],"name":"ReentrancyGuardReentrantCall","type":"error"},{"inputs":[],"name":"TransferFailed","type":"error"},{"anonymous":false,"inputs":[{"indexed":true,"internalType":"address","name":"user","type":"address"},{"indexed":false,"internalType":"uint256","name":"tokensSwapped","type":"uint256"},{"indexed":false,"internalType":"uint256","name":"totalBNBReceived","type":"uint256"}],"name":"BatchSwapCompleted","type":"event"},{"anonymous":false,"inputs":[{"indexed":true,"internalType":"address","name":"user","type":"address"},{"indexed":true,"internalType":"address","name":"token","type":"address"},{"indexed":false,"internalType":"uint256","name":"amount","type":"uint256"}],"name":"EmergencyWithdraw","type":"event"},{"anonymous":false,"inputs":[{"indexed":true,"internalType":"address","name":"previousOwner","type":"address"},{"indexed":true,"internalType":"address","name":"newOwner","type":"address"}],"name":"OwnershipTransferred","type":"event"},{"anonymous":false,"inputs":[{"indexed":true,"internalType":"address","name":"user","type":"address"},{"indexed":true,"internalType":"address","name":"tokenIn","type":"address"},{"indexed":false,"internalType":"uint256","name":"amountIn","type":"uint256"},{"indexed":false,"internalType":"uint256","name":"amountOut","type":"uint256"}],"name":"SingleSwapCompleted","type":"event"},{"inputs":[],"name":"WBNB","outputs":[{"internalType":"address","name":"","type":"address"}],"stateMutability":"view","type":"function"},{"inputs":[{"internalType":"address[]","name":"tokens","type":"address[]"},{"internalType":"uint256[]","name":"amounts","type":"uint256[]"},{"internalType":"uint256[]","name":"minAmountsOut","type":"uint256[]"},{"internalType":"uint256","name":"deadline","type":"uint256"}],"name":"batchSwapExactTokensForETH","outputs":[{"internalType":"uint256","name":"totalBNBReceived","type":"uint256"}],"stateMutability":"nonpayable","type":"function"},{"inputs":[{"internalType":"address[]","name":"tokensIn","type":"address[]"},{"internalType":"uint256[]","name":"amountsIn","type":"uint256[]"},{"internalType":"address","name":"tokenOut","type":"address"},{"internalType":"uint256[]","name":"minAmountsOut","type":"uint256[]"},{"internalType":"uint256","name":"deadline","type":"uint256"}],"name":"batchSwapExactTokensForTokens","outputs":[{"internalType":"uint256","name":"totalTokensReceived","type":"uint256"}],"stateMutability":"nonpayable","type":"function"},{"inputs":[{"internalType":"address","name":"token","type":"address"},{"internalType":"uint256","name":"amount","type":"uint256"}],"name":"emergencyWithdraw","outputs":[],"stateMutability":"nonpayable","type":"function"},{"inputs":[{"internalType":"address[]","name":"tokens","type":"address[]"},{"internalType":"uint256[]","name":"amounts","type":"uint256[]"}],"name":"getEstimatedBNBOutputs","outputs":[{"internalType":"uint256[]","name":"estimatedOutputs","type":"uint256[]"}],"stateMutability":"view","type":"function"},{"inputs":[],"name":"owner","outputs":[{"internalType":"address","name":"","type":"address"}],"stateMutability":"view","type":"function"},{"inputs":[],"name":"pancakeRouter","outputs":[{"internalType":"contract IPancakeRouter02","name":"","type":"address"}],"stateMutability":"view","type":"function"},{"inputs":[],"name":"renounceOwnership","outputs":[],"stateMutability":"nonpayable","type":"function"},{"inputs":[{"internalType":"address","name":"newOwner","type":"address"}],"name":"transferOwnership","outputs":[],"stateMutability":"nonpayable","type":"function"},{"stateMutability":"payable","type":"receive"}],"evm":{"bytecode":{"linkReferences":{},"object":"60c060409080825234620001855762000032906200162e80380380916200002782856200018a565b8339810190620001c4565b33156200016d5760008054336001600160a01b0319821681178355845192936001600160a01b039290919083167f8be0079c531659141344cd1fd0a4f28419497f9722a3daafe3b4186f6b6457e08680a360018055169081156200015e57506020816004926080528451928380926315ab88c960e31b82525afa9182156200015357916200011e575b5060a052516114489081620001e6823960805181818161012c0152818161038d01528181610471015281816108ba01528181610d830152610e98015260a0518181816104140152818161069f0152818161077d015281816108de0152610e1b0152f35b62000144915060203d81116200014b575b6200013b81836200018a565b810190620001c4565b38620000bb565b503d6200012f565b8351903d90823e3d90fd5b63466d7fef60e01b8152600490fd5b8151631e4fbdf760e01b815260006004820152602490fd5b600080fd5b601f909101601f19168101906001600160401b03821190821017620001ae57604052565b634e487b7160e01b600052604160045260246000fd5b908160209103126200018557516001600160a01b038116810362000185579056fe6080604052600436101561001b575b361561001957600080fd5b005b60003560e01c8063135c8e8914610a6b5780636b77dd371461082e578063715018a6146107d55780638da5cb5b146107ac5780638dd950021461076757806395ccea6714610742578063b93b25951461015b578063c21ebd07146101165763f2fde38b0361000e57346101115760203660031901126101115761009c6110eb565b6100a4611101565b6001600160a01b039081169081156100f857600054826bffffffffffffffffffffffff60a01b821617600055167f8be0079c531659141344cd1fd0a4f28419497f9722a3daafe3b4186f6b6457e0600080a3005b604051631e4fbdf760e01b815260006004820152602490fd5b600080fd5b34610111576000366003190112610111576040517f00000000000000000000000000000000000000000000000000000000000000006001600160a01b03168152602090f35b346101115760803660031901126101115767ffffffffffffffff6004358181116101115761018d9036906004016110ba565b90602435838111610111576101a69036906004016110ba565b93604435908111610111576101bf9036906004016110ba565b906101c861133c565b606435421161073057841561071e57858514801590610714575b6106d657479360005b86811061026c57866101fd87476111b6565b80610243575b60209160405190815281838201527fc767de13f13f210028ee47bbc51d3b5c5bdd470eddf6cc16787d8f41f82d537e60403392a260018055604051908152f35b600080808084335af16102546112fc565b50610203575b6040516312171d8360e31b8152600490fd5b6001600160a01b03610287610282838a8661113c565b61114c565b16158015610694575b6106825761029f81898761113c565b3515610679576001600160a01b036102bb610282838a8661113c565b16906040516370a0823160e01b8152306004820152602081602481865afa90811561051f57600091610647575b5061032560206102f9848d8b61113c565b6040516323b872dd60e01b81523360048201523060248201529035604482015291829081906064820190565b03816000885af190811561051f57600091610628575b501561025a576040516370a0823160e01b815230600482015290602082602481875afa801561051f576000906105f4575b61037692506111b6565b60405163095ea7b360e01b81526001600160a01b037f0000000000000000000000000000000000000000000000000000000000000000166004820152602481018290526020816044816000885af1801561051f576105d5575b5061046c60008a6103fc61028286604051936103ea85611160565b6002855260403660208701378a61113c565b610405826111db565b6001600160a01b0391821690527f00000000000000000000000000000000000000000000000000000000000000001661043d826111e8565b52610449858a8a61113c565b6040516318cbafe560e01b815293849283926064359130913589600487016112c3565b0381837f00000000000000000000000000000000000000000000000000000000000000006001600160a01b03165af1600091816105b0575b5061052b575060405163a9059cbb60e01b8152336004820152602481019190915291602090839060449082906000905af191821561051f576104eb926104f0575b5061112d565b6101eb565b6105119060203d602011610518575b610509818361117c565b81019061119e565b50896104e5565b503d6104ff565b6040513d6000823e3d90fd5b925061053b610282838b8761113c565b83518060001981011161059a576104eb9461055a9160001901906111f8565b51604051928352602083015260018060a01b0316907f1aa3261573bea280c7ed9ac232f8790370c62aa2da9b8fc62f8176be616bbb1060403392a361112d565b634e487b7160e01b600052601160045260246000fd5b6105ce9192503d806000833e6105c6818361117c565b81019061120c565b908c6104a4565b6105ed9060203d60201161051857610509818361117c565b508a6103cf565b506020823d602011610620575b8161060e6020938361117c565b8101031261011157610376915161036c565b3d9150610601565b610641915060203d60201161051857610509818361117c565b8b61033b565b90506020813d602011610671575b816106626020938361117c565b8101031261011157518a6102e8565b3d9150610655565b6104eb9061112d565b60405163c1ab6dc160e01b8152600490fd5b506001600160a01b037f00000000000000000000000000000000000000000000000000000000000000008116906106cf610282848b8761113c565b1614610290565b60405162461bcd60e51b8152602060048201526016602482015275082e4e4c2f240d8cadccee8d0e640dad2e6dac2e8c6d60531b6044820152606490fd5b50818514156101e2565b6040516386724c7f60e01b8152600490fd5b604051631ab7da6b60e01b8152600490fd5b346101115760403660031901126101115761001961075e6110eb565b6024359061135f565b34610111576000366003190112610111576040517f00000000000000000000000000000000000000000000000000000000000000006001600160a01b03168152602090f35b34610111576000366003190112610111576000546040516001600160a01b039091168152602090f35b34610111576000366003190112610111576107ee611101565b600080546001600160a01b0319811682556001600160a01b03167f8be0079c531659141344cd1fd0a4f28419497f9722a3daafe3b4186f6b6457e08280a3005b346101115760403660031901126101115767ffffffffffffffff600435818111610111576108609036906004016110ba565b9160249081359081116101115761087b9036906004016110ba565b939092610887826111c3565b92610895604051948561117c565b8284526108a1836111c3565b6020968588019691601f19013688376001600160a01b037f00000000000000000000000000000000000000000000000000000000000000008116947f00000000000000000000000000000000000000000000000000000000000000008216919060005b8b89821061094e578a8c604051928392818401908285525180915260408401929160005b82811061093757505050500390f35b835185528695509381019392810192600101610928565b90858789610a0e94868e868a61096861028283858761113c565b16158015610a58575b610a44576040966000966109a5610282846109c3966109e8988d80519b6109978d611160565b60028d5236908d013761113c565b8d6109af886111db565b911690528d6109bd876111e8565b5261113c565b35918551958694859463d06ca61f60e01b865260048601528401526044830190611286565b03818d5afa60009181610a27575b50610a1357506000610a08828d6111f8565b5261112d565b610904565b610a1c906111e8565b51610a08828d6111f8565b610a3d9192503d806000833e6105c6818361117c565b908f6109f6565b935050505060009250610a0891508d6111f8565b50610a6481888861113c565b3515610971565b346101115760a03660031901126101115760043567ffffffffffffffff811161011157610a9c9036906004016110ba565b9060243567ffffffffffffffff811161011157610abd9036906004016110ba565b60443592916001600160a01b03841684036101115760643567ffffffffffffffff811161011157610af29036906004016110ba565b93610afb61133c565b608435421161073057861561071e576001600160a01b03861615610682578387148015906110b0575b6106d6576040516370a0823160e01b8152306004820152946020866024816001600160a01b038b165afa95861561051f5760009661107c575b5060005b888110610c93576040516370a0823160e01b815230600482015289908990896020826024816001600160a01b0387165afa801561051f57600090610c5f575b610baa92506111b6565b9081610bf2575b5060209160405190815281838201527fc767de13f13f210028ee47bbc51d3b5c5bdd470eddf6cc16787d8f41f82d537e60403392a260018055604051908152f35b60405163a9059cbb60e01b81523360048201526024810183905290602090829060449082906000906001600160a01b03165af190811561051f57600091610c40575b501561025a5782610bb1565b610c59915060203d60201161051857610509818361117c565b83610c34565b506020823d602011610c8b575b81610c796020938361117c565b8101031261011157610baa9151610ba0565b3d9150610c6c565b6001600160a01b03610ca9610282838c8761113c565b1615801561105a575b61105157610cc181878761113c565b3515611051576001600160a01b03610cdd610282838c8761113c565b16906040516370a0823160e01b8152306004820152602081602481865afa90811561051f5760009161101f575b50610d1b60206102f9848b8b61113c565b03816000885af190811561051f57600091611000575b501561025a576040516370a0823160e01b815230600482015290602082602481875afa801561051f57600090610fcc575b610d6c92506111b6565b60405163095ea7b360e01b81526001600160a01b037f0000000000000000000000000000000000000000000000000000000000000000166004820152602481018290526020816044816000885af1801561051f57610fad575b5060405180608081011067ffffffffffffffff608083011117610f9757610e03610282848e608085016040526003855260603660208701378961113c565b610e0c826111db565b6001600160a01b0391821690527f000000000000000000000000000000000000000000000000000000000000000016610e44826111e8565b52805160021015610f81576001600160a01b038b166060820152610e9390600090610e7085888b61113c565b6040516338ed173960e01b815293849283926084359130913589600487016112c3565b0381837f00000000000000000000000000000000000000000000000000000000000000006001600160a01b03165af160009181610f64575b50610f35575060405163a9059cbb60e01b8152336004820152602481019190915291602090839060449082906000905af191821561051f57610f1192610f16575061112d565b610b61565b610f2e9060203d60201161051857610509818361117c565b508a6104e5565b9250610f45610282838d8861113c565b83518060001981011161059a57610f119461055a9160001901906111f8565b610f7a9192503d806000833e6105c6818361117c565b908d610ecb565b634e487b7160e01b600052603260045260246000fd5b634e487b7160e01b600052604160045260246000fd5b610fc59060203d60201161051857610509818361117c565b508b610dc5565b506020823d602011610ff8575b81610fe66020938361117c565b8101031261011157610d6c9151610d62565b3d9150610fd9565b611019915060203d60201161051857610509818361117c565b8c610d31565b90506020813d602011611049575b8161103a6020938361117c565b8101031261011157518b610d0a565b3d915061102d565b610f119061112d565b506001600160a01b0388811690611075610282848d8861113c565b1614610cb2565b9095506020813d6020116110a8575b816110986020938361117c565b8101031261011157519488610b5d565b3d915061108b565b5084871415610b24565b9181601f840112156101115782359167ffffffffffffffff8311610111576020808501948460051b01011161011157565b600435906001600160a01b038216820361011157565b6000546001600160a01b0316330361111557565b60405163118cdaa760e01b8152336004820152602490fd5b600019811461059a5760010190565b9190811015610f815760051b0190565b356001600160a01b03811681036101115790565b6060810190811067ffffffffffffffff821117610f9757604052565b90601f8019910116810190811067ffffffffffffffff821117610f9757604052565b90816020910312610111575180151581036101115790565b9190820391821161059a57565b67ffffffffffffffff8111610f975760051b60200190565b805115610f815760200190565b805160011015610f815760400190565b8051821015610f815760209160051b010190565b60209081818403126101115780519067ffffffffffffffff821161011157019180601f84011215610111578251611242816111c3565b93611250604051958661117c565b818552838086019260051b820101928311610111578301905b828210611277575050505090565b81518152908301908301611269565b90815180825260208080930193019160005b8281106112a6575050505090565b83516001600160a01b031685529381019392810192600101611298565b91926080936112e892979695978452602084015260a0604084015260a0830190611286565b6001600160a01b0390951660608201520152565b3d15611337573d9067ffffffffffffffff8211610f97576040519161132b601f8201601f19166020018461117c565b82523d6000602084013e565b606090565b60026001541461134d576002600155565b604051633ee5aeb560e01b8152600490fd5b811561140e576001600160a01b031690816113ba57600080808084335af16113856112fc565b501561025a575b6040519081527ff24ef89f38eadc1bde50701ad6e4d6d11a2dc24f7cf834a486991f388332850460203392a3565b60405163a9059cbb60e01b8152336004820152602481018290526020816044816000875af1801561051f576113f0575b5061138c565b6114079060203d811161051857610509818361117c565b50386113ea565b505056fea2646970667358221220dad1039eed94d01c6c4615ef1d3ad909b9c62b8b8e84560161c8e926a5864abb64736f6c63430008140033","opcodes":"PUSH1 0xC0 PUSH1 0x40 SWAP1 DUP1 DUP3 MSTORE CALLVALUE PUSH3 0x185 JUMPI PUSH3 0x32 SWAP1 PUSH3 0x162E DUP1 CODESIZE SUB DUP1 SWAP2 PUSH3 0x27 DUP3 DUP6 PUSH3 0x18A JUMP JUMPDEST DUP4 CODECOPY DUP2 ADD SWAP1 PUSH3 0x1C4 JUMP JUMPDEST CALLER ISZERO PUSH3 0x16D JUMPI PUSH1 0x0 DUP1 SLOAD CALLER PUSH1 0x1 PUSH1 0x1 PUSH1 0xA0 SHL SUB NOT DUP3 AND DUP2 OR DUP4 SSTORE DUP5 MLOAD SWAP3 SWAP4 PUSH1 0x1 PUSH1 0x1 PUSH1 0xA0 SHL SUB SWAP3 SWAP1 SWAP2 SWAP1 DUP4 AND PUSH32 0x8BE0079C531659141344CD1FD0A4F28419497F9722A3DAAFE3B4186F6B6457E0 DUP7 DUP1 LOG3 PUSH1 0x1 DUP1 SSTORE AND SWAP1 DUP2 ISZERO PUSH3 0x15E JUMPI POP PUSH1 0x20 DUP2 PUSH1 0x4 SWAP3 PUSH1 0x80 MSTORE DUP5 MLOAD SWAP3 DUP4 DUP1 SWAP3 PUSH4 0x15AB88C9 PUSH1 0xE3 SHL DUP3 MSTORE GAS STATICCALL SWAP2 DUP3 ISZERO PUSH3 0x153 JUMPI SWAP2 PUSH3 0x11E JUMPI JUMPDEST POP PUSH1 0xA0 MSTORE MLOAD PUSH2 0x1448 SWAP1 DUP2 PUSH3 0x1E6 DUP3 CODECOPY PUSH1 0x80 MLOAD DUP2 DUP2 DUP2 PUSH2 0x12C ADD MSTORE DUP2 DUP2 PUSH2 0x38D ADD MSTORE DUP2 DUP2 PUSH2 0x471 ADD MSTORE DUP2 DUP2 PUSH2 0x8BA ADD MSTORE DUP2 DUP2 PUSH2 0xD83 ADD MSTORE PUSH2 0xE98 ADD MSTORE PUSH1 0xA0 MLOAD DUP2 DUP2 DUP2 PUSH2 0x414 ADD MSTORE DUP2 DUP2 PUSH2 0x69F ADD MSTORE DUP2 DUP2 PUSH2 0x77D ADD MSTORE DUP2 DUP2 PUSH2 0x8DE ADD MSTORE PUSH2 0xE1B ADD MSTORE RETURN JUMPDEST PUSH3 0x144 SWAP2 POP PUSH1 0x20 RETURNDATASIZE DUP2 GT PUSH3 0x14B JUMPI JUMPDEST PUSH3 0x13B DUP2 DUP4 PUSH3 0x18A JUMP JUMPDEST DUP2 ADD SWAP1 PUSH3 0x1C4 JUMP JUMPDEST CODESIZE PUSH3 0xBB JUMP JUMPDEST POP RETURNDATASIZE PUSH3 0x12F JUMP JUMPDEST DUP4 MLOAD SWAP1 RETURNDATASIZE SWAP1 DUP3 RETURNDATACOPY RETURNDATASIZE SWAP1 REVERT JUMPDEST PUSH4 0x466D7FEF PUSH1 0xE0 SHL DUP2 MSTORE PUSH1 0x4 SWAP1 REVERT JUMPDEST DUP2 MLOAD PUSH4 0x1E4FBDF7 PUSH1 0xE0 SHL DUP2 MSTORE PUSH1 0x0 PUSH1 0x4 DUP3 ADD MSTORE PUSH1 0x24 SWAP1 REVERT JUMPDEST PUSH1 0x0 DUP1 REVERT JUMPDEST PUSH1 0x1F SWAP1 SWAP2 ADD PUSH1 0x1F NOT AND DUP2 ADD SWAP1 PUSH1 0x1 PUSH1 0x1 PUSH1 0x40 SHL SUB DUP3 GT SWAP1 DUP3 LT OR PUSH3 0x1AE JUMPI PUSH1 0x40 MSTORE JUMP JUMPDEST PUSH4 0x4E487B71 PUSH1 0xE0 SHL PUSH1 0x0 MSTORE PUSH1 0x41 PUSH1 0x4 MSTORE PUSH1 0x24 PUSH1 0x0 REVERT JUMPDEST SWAP1 DUP2 PUSH1 0x20 SWAP2 SUB SLT PUSH3 0x185 JUMPI MLOAD PUSH1 0x1 PUSH1 0x1 PUSH1 0xA0 SHL SUB DUP2 AND DUP2 SUB PUSH3 0x185 JUMPI SWAP1 JUMP INVALID PUSH1 0x80 PUSH1 0x40 MSTORE PUSH1 0x4 CALLDATASIZE LT ISZERO PUSH2 0x1B JUMPI JUMPDEST CALLDATASIZE ISZERO PUSH2 0x19 JUMPI PUSH1 0x0 DUP1 REVERT JUMPDEST STOP JUMPDEST PUSH1 0x0 CALLDATALOAD PUSH1 0xE0 SHR DUP1 PUSH4 0x135C8E89 EQ PUSH2 0xA6B JUMPI DUP1 PUSH4 0x6B77DD37 EQ PUSH2 0x82E JUMPI DUP1 PUSH4 0x715018A6 EQ PUSH2 0x7D5 JUMPI DUP1 PUSH4 0x8DA5CB5B EQ PUSH2 0x7AC JUMPI DUP1 PUSH4 0x8DD95002 EQ PUSH2 0x767 JUMPI DUP1 PUSH4 0x95CCEA67 EQ PUSH2 0x742 JUMPI DUP1 PUSH4 0xB93B2595 EQ PUSH2 0x15B JUMPI DUP1 PUSH4 0xC21EBD07 EQ PUSH2 0x116 JUMPI PUSH4 0xF2FDE38B SUB PUSH2 0xE JUMPI CALLVALUE PUSH2 0x111 JUMPI PUSH1 0x20 CALLDATASIZE PUSH1 0x3 NOT ADD SLT PUSH2 0x111 JUMPI PUSH2 0x9C PUSH2 0x10EB JUMP JUMPDEST PUSH2 0xA4 PUSH2 0x1101 JUMP JUMPDEST PUSH1 0x1 PUSH1 0x1 PUSH1 0xA0 SHL SUB SWAP1 DUP2 AND SWAP1 DUP2 ISZERO PUSH2 0xF8 JUMPI PUSH1 0x0 SLOAD DUP3 PUSH12 0xFFFFFFFFFFFFFFFFFFFFFFFF PUSH1 0xA0 SHL DUP3 AND OR PUSH1 0x0 SSTORE AND PUSH32 0x8BE0079C531659141344CD1FD0A4F28419497F9722A3DAAFE3B4186F6B6457E0 PUSH1 0x0 DUP1 LOG3 STOP JUMPDEST PUSH1 0x40 MLOAD PUSH4 0x1E4FBDF7 PUSH1 0xE0 SHL DUP2 MSTORE PUSH1 0x0 PUSH1 0x4 DUP3 ADD MSTORE PUSH1 0x24 SWAP1 REVERT JUMPDEST PUSH1 0x0 DUP1 REVERT JUMPDEST CALLVALUE PUSH2 0x111 JUMPI PUSH1 0x0 CALLDATASIZE PUSH1 0x3 NOT ADD SLT PUSH2 0x111 JUMPI PUSH1 0x40 MLOAD PUSH32 0x0 PUSH1 0x1 PUSH1 0x1 PUSH1 0xA0 SHL SUB AND DUP2 MSTORE PUSH1 0x20 SWAP1 RETURN JUMPDEST CALLVALUE PUSH2 0x111 JUMPI PUSH1 0x80 CALLDATASIZE PUSH1 0x3 NOT ADD SLT PUSH2 0x111 JUMPI PUSH8 0xFFFFFFFFFFFFFFFF PUSH1 0x4 CALLDATALOAD DUP2 DUP2 GT PUSH2 0x111 JUMPI PUSH2 0x18D SWAP1 CALLDATASIZE SWAP1 PUSH1 0x4 ADD PUSH2 0x10BA JUMP JUMPDEST SWAP1 PUSH1 0x24 CALLDATALOAD DUP4 DUP2 GT PUSH2 0x111 JUMPI PUSH2 0x1A6 SWAP1 CALLDATASIZE SWAP1 PUSH1 0x4 ADD PUSH2 0x10BA JUMP JUMPDEST SWAP4 PUSH1 0x44 CALLDATALOAD SWAP1 DUP2 GT PUSH2 0x111 JUMPI PUSH2 0x1BF SWAP1 CALLDATASIZE SWAP1 PUSH1 0x4 ADD PUSH2 0x10BA JUMP JUMPDEST SWAP1 PUSH2 0x1C8 PUSH2 0x133C JUMP JUMPDEST PUSH1 0x64 CALLDATALOAD TIMESTAMP GT PUSH2 0x730 JUMPI DUP5 ISZERO PUSH2 0x71E JUMPI DUP6 DUP6 EQ DUP1 ISZERO SWAP1 PUSH2 0x714 JUMPI JUMPDEST PUSH2 0x6D6 JUMPI SELFBALANCE SWAP4 PUSH1 0x0 JUMPDEST DUP7 DUP2 LT PUSH2 0x26C JUMPI DUP7 PUSH2 0x1FD DUP8 SELFBALANCE PUSH2 0x11B6 JUMP JUMPDEST DUP1 PUSH2 0x243 JUMPI JUMPDEST PUSH1 0x20 SWAP2 PUSH1 0x40 MLOAD SWAP1 DUP2 MSTORE DUP2 DUP4 DUP3 ADD MSTORE PUSH32 0xC767DE13F13F210028EE47BBC51D3B5C5BDD470EDDF6CC16787D8F41F82D537E PUSH1 0x40 CALLER SWAP3 LOG2 PUSH1 0x1 DUP1 SSTORE PUSH1 0x40 MLOAD SWAP1 DUP2 MSTORE RETURN JUMPDEST PUSH1 0x0 DUP1 DUP1 DUP1 DUP5 CALLER GAS CALL PUSH2 0x254 PUSH2 0x12FC JUMP JUMPDEST POP PUSH2 0x203 JUMPI JUMPDEST PUSH1 0x40 MLOAD PUSH4 0x12171D83 PUSH1 0xE3 SHL DUP2 MSTORE PUSH1 0x4 SWAP1 REVERT JUMPDEST PUSH1 0x1 PUSH1 0x1 PUSH1 0xA0 SHL SUB PUSH2 0x287 PUSH2 0x282 DUP4 DUP11 DUP7 PUSH2 0x113C JUMP JUMPDEST PUSH2 0x114C JUMP JUMPDEST AND ISZERO DUP1 ISZERO PUSH2 0x694 JUMPI JUMPDEST PUSH2 0x682 JUMPI PUSH2 0x29F DUP2 DUP10 DUP8 PUSH2 0x113C JUMP JUMPDEST CALLDATALOAD ISZERO PUSH2 0x679 JUMPI PUSH1 0x1 PUSH1 0x1 PUSH1 0xA0 SHL SUB PUSH2 0x2BB PUSH2 0x282 DUP4 DUP11 DUP7 PUSH2 0x113C JUMP JUMPDEST AND SWAP1 PUSH1 0x40 MLOAD PUSH4 0x70A08231 PUSH1 0xE0 SHL DUP2 MSTORE ADDRESS PUSH1 0x4 DUP3 ADD MSTORE PUSH1 0x20 DUP2 PUSH1 0x24 DUP2 DUP7 GAS STATICCALL SWAP1 DUP2 ISZERO PUSH2 0x51F JUMPI PUSH1 0x0 SWAP2 PUSH2 0x647 JUMPI JUMPDEST POP PUSH2 0x325 PUSH1 0x20 PUSH2 0x2F9 DUP5 DUP14 DUP12 PUSH2 0x113C JUMP JUMPDEST PUSH1 0x40 MLOAD PUSH4 0x23B872DD PUSH1 0xE0 SHL DUP2 MSTORE CALLER PUSH1 0x4 DUP3 ADD MSTORE ADDRESS PUSH1 0x24 DUP3 ADD MSTORE SWAP1 CALLDATALOAD PUSH1 0x44 DUP3 ADD MSTORE SWAP2 DUP3 SWAP1 DUP2 SWAP1 PUSH1 0x64 DUP3 ADD SWAP1 JUMP JUMPDEST SUB DUP2 PUSH1 0x0 DUP9 GAS CALL SWAP1 DUP2 ISZERO PUSH2 0x51F JUMPI PUSH1 0x0 SWAP2 PUSH2 0x628 JUMPI JUMPDEST POP ISZERO PUSH2 0x25A JUMPI PUSH1 0x40 MLOAD PUSH4 0x70A08231 PUSH1 0xE0 SHL DUP2 MSTORE ADDRESS PUSH1 0x4 DUP3 ADD MSTORE SWAP1 PUSH1 0x20 DUP3 PUSH1 0x24 DUP2 DUP8 GAS STATICCALL DUP1 ISZERO PUSH2 0x51F JUMPI PUSH1 0x0 SWAP1 PUSH2 0x5F4 JUMPI JUMPDEST PUSH2 0x376 SWAP3 POP PUSH2 0x11B6 JUMP JUMPDEST PUSH1 0x40 MLOAD PUSH4 0x95EA7B3 PUSH1 0xE0 SHL DUP2 MSTORE PUSH1 0x1 PUSH1 0x1 PUSH1 0xA0 SHL SUB PUSH32 0x0 AND PUSH1 0x4 DUP3 ADD MSTORE PUSH1 0x24 DUP2 ADD DUP3 SWAP1 MSTORE PUSH1 0x20 DUP2 PUSH1 0x44 DUP2 PUSH1 0x0 DUP9 GAS CALL DUP1 ISZERO PUSH2 0x51F JUMPI PUSH2 0x5D5 JUMPI JUMPDEST POP PUSH2 0x46C PUSH1 0x0 DUP11 PUSH2 0x3FC PUSH2 0x282 DUP7 PUSH1 0x40 MLOAD SWAP4 PUSH2 0x3EA DUP6 PUSH2 0x1160 JUMP JUMPDEST PUSH1 0x2 DUP6 MSTORE PUSH1 0x40 CALLDATASIZE PUSH1 0x20 DUP8 ADD CALLDATACOPY DUP11 PUSH2 0x113C JUMP JUMPDEST PUSH2 0x405 DUP3 PUSH2 0x11DB JUMP JUMPDEST PUSH1 0x1 PUSH1 0x1 PUSH1 0xA0 SHL SUB SWAP2 DUP3 AND SWAP1 MSTORE PUSH32 0x0 AND PUSH2 0x43D DUP3 PUSH2 0x11E8 JUMP JUMPDEST MSTORE PUSH2 0x449 DUP6 DUP11 DUP11 PUSH2 0x113C JUMP JUMPDEST PUSH1 0x40 MLOAD PUSH4 0x18CBAFE5 PUSH1 0xE0 SHL DUP2 MSTORE SWAP4 DUP5 SWAP3 DUP4 SWAP3 PUSH1 0x64 CALLDATALOAD SWAP2 ADDRESS SWAP2 CALLDATALOAD DUP10 PUSH1 0x4 DUP8 ADD PUSH2 0x12C3 JUMP JUMPDEST SUB DUP2 DUP4 PUSH32 0x0 PUSH1 0x1 PUSH1 0x1 PUSH1 0xA0 SHL SUB AND GAS CALL PUSH1 0x0 SWAP2 DUP2 PUSH2 0x5B0 JUMPI JUMPDEST POP PUSH2 0x52B JUMPI POP PUSH1 0x40 MLOAD PUSH4 0xA9059CBB PUSH1 0xE0 SHL DUP2 MSTORE CALLER PUSH1 0x4 DUP3 ADD MSTORE PUSH1 0x24 DUP2 ADD SWAP2 SWAP1 SWAP2 MSTORE SWAP2 PUSH1 0x20 SWAP1 DUP4 SWAP1 PUSH1 0x44 SWAP1 DUP3 SWAP1 PUSH1 0x0 SWAP1 GAS CALL SWAP2 DUP3 ISZERO PUSH2 0x51F JUMPI PUSH2 0x4EB SWAP3 PUSH2 0x4F0 JUMPI JUMPDEST POP PUSH2 0x112D JUMP JUMPDEST PUSH2 0x1EB JUMP JUMPDEST PUSH2 0x511 SWAP1 PUSH1 0x20 RETURNDATASIZE PUSH1 0x20 GT PUSH2 0x518 JUMPI JUMPDEST PUSH2 0x509 DUP2 DUP4 PUSH2 0x117C JUMP JUMPDEST DUP2 ADD SWAP1 PUSH2 0x119E JUMP JUMPDEST POP DUP10 PUSH2 0x4E5 JUMP JUMPDEST POP RETURNDATASIZE PUSH2 0x4FF JUMP JUMPDEST PUSH1 0x40 MLOAD RETURNDATASIZE PUSH1 0x0 DUP3 RETURNDATACOPY RETURNDATASIZE SWAP1 REVERT JUMPDEST SWAP3 POP PUSH2 0x53B PUSH2 0x282 DUP4 DUP12 DUP8 PUSH2 0x113C JUMP JUMPDEST DUP4 MLOAD DUP1 PUSH1 0x0 NOT DUP2 ADD GT PUSH2 0x59A JUMPI PUSH2 0x4EB SWAP5 PUSH2 0x55A SWAP2 PUSH1 0x0 NOT ADD SWAP1 PUSH2 0x11F8 JUMP JUMPDEST MLOAD PUSH1 0x40 MLOAD SWAP3 DUP4 MSTORE PUSH1 0x20 DUP4 ADD MSTORE PUSH1 0x1 DUP1 PUSH1 0xA0 SHL SUB AND SWAP1 PUSH32 0x1AA3261573BEA280C7ED9AC232F8790370C62AA2DA9B8FC62F8176BE616BBB10 PUSH1 0x40 CALLER SWAP3 LOG3 PUSH2 0x112D JUMP JUMPDEST PUSH4 0x4E487B71 PUSH1 0xE0 SHL PUSH1 0x0 MSTORE PUSH1 0x11 PUSH1 0x4 MSTORE PUSH1 0x24 PUSH1 0x0 REVERT JUMPDEST PUSH2 0x5CE SWAP2 SWAP3 POP RETURNDATASIZE DUP1 PUSH1 0x0 DUP4 RETURNDATACOPY PUSH2 0x5C6 DUP2 DUP4 PUSH2 0x117C JUMP JUMPDEST DUP2 ADD SWAP1 PUSH2 0x120C JUMP JUMPDEST SWAP1 DUP13 PUSH2 0x4A4 JUMP JUMPDEST PUSH2 0x5ED SWAP1 PUSH1 0x20 RETURNDATASIZE PUSH1 0x20 GT PUSH2 0x518 JUMPI PUSH2 0x509 DUP2 DUP4 PUSH2 0x117C JUMP JUMPDEST POP DUP11 PUSH2 0x3CF JUMP JUMPDEST POP PUSH1 0x20 DUP3 RETURNDATASIZE PUSH1 0x20 GT PUSH2 0x620 JUMPI JUMPDEST DUP2 PUSH2 0x60E PUSH1 0x20 SWAP4 DUP4 PUSH2 0x117C JUMP JUMPDEST DUP2 ADD SUB SLT PUSH2 0x111 JUMPI PUSH2 0x376 SWAP2 MLOAD PUSH2 0x36C JUMP JUMPDEST RETURNDATASIZE SWAP2 POP PUSH2 0x601 JUMP JUMPDEST PUSH2 0x641 SWAP2 POP PUSH1 0x20 RETURNDATASIZE PUSH1 0x20 GT PUSH2 0x518 JUMPI PUSH2 0x509 DUP2 DUP4 PUSH2 0x117C JUMP JUMPDEST DUP12 PUSH2 0x33B JUMP JUMPDEST SWAP1 POP PUSH1 0x20 DUP2 RETURNDATASIZE PUSH1 0x20 GT PUSH2 0x671 JUMPI JUMPDEST DUP2 PUSH2 0x662 PUSH1 0x20 SWAP4 DUP4 PUSH2 0x117C JUMP JUMPDEST DUP2 ADD SUB SLT PUSH2 0x111 JUMPI MLOAD DUP11 PUSH2 0x2E8 JUMP JUMPDEST RETURNDATASIZE SWAP2 POP PUSH2 0x655 JUMP JUMPDEST PUSH2 0x4EB SWAP1 PUSH2 0x112D JUMP JUMPDEST PUSH1 0x40 MLOAD PUSH4 0xC1AB6DC1 PUSH1 0xE0 SHL DUP2 MSTORE PUSH1 0x4 SWAP1 REVERT JUMPDEST POP PUSH1 0x1 PUSH1 0x1 PUSH1 0xA0 SHL SUB PUSH32 0x0 DUP2 AND SWAP1 PUSH2 0x6CF PUSH2 0x282 DUP5 DUP12 DUP8 PUSH2 0x113C JUMP JUMPDEST AND EQ PUSH2 0x290 JUMP JUMPDEST PUSH1 0x40 MLOAD PUSH3 0x461BCD PUSH1 0xE5 SHL DUP2 MSTORE PUSH1 0x20 PUSH1 0x4 DUP3 ADD MSTORE PUSH1 0x16 PUSH1 0x24 DUP3 ADD MSTORE PUSH22 0x82E4E4C2F240D8CADCCEE8D0E640DAD2E6DAC2E8C6D PUSH1 0x53 SHL PUSH1 0x44 DUP3 ADD MSTORE PUSH1 0x64 SWAP1 REVERT JUMPDEST POP DUP2 DUP6 EQ ISZERO PUSH2 0x1E2 JUMP JUMPDEST PUSH1 0x40 MLOAD PUSH4 0x86724C7F PUSH1 0xE0 SHL DUP2 MSTORE PUSH1 0x4 SWAP1 REVERT JUMPDEST PUSH1 0x40 MLOAD PUSH4 0x1AB7DA6B PUSH1 0xE0 SHL DUP2 MSTORE PUSH1 0x4 SWAP1 REVERT JUMPDEST CALLVALUE PUSH2 0x111 JUMPI PUSH1 0x40 CALLDATASIZE PUSH1 0x3 NOT ADD SLT PUSH2 0x111 JUMPI PUSH2 0x19 PUSH2 0x75E PUSH2 0x10EB JUMP JUMPDEST PUSH1 0x24 CALLDATALOAD SWAP1 PUSH2 0x135F JUMP JUMPDEST CALLVALUE PUSH2 0x111 JUMPI PUSH1 0x0 CALLDATASIZE PUSH1 0x3 NOT ADD SLT PUSH2 0x111 JUMPI PUSH1 0x40 MLOAD PUSH32 0x0 PUSH1 0x1 PUSH1 0x1 PUSH1 0xA0 SHL SUB AND DUP2 MSTORE PUSH1 0x20 SWAP1 RETURN JUMPDEST CALLVALUE PUSH2 0x111 JUMPI PUSH1 0x0 CALLDATASIZE PUSH1 0x3 NOT ADD SLT PUSH2 0x111 JUMPI PUSH1 0x0 SLOAD PUSH1 0x40 MLOAD PUSH1 0x1 PUSH1 0x1 PUSH1 0xA0 SHL SUB SWAP1 SWAP2 AND DUP2 MSTORE PUSH1 0x20 SWAP1 RETURN JUMPDEST CALLVALUE PUSH2 0x111 JUMPI PUSH1 0x0 CALLDATASIZE PUSH1 0x3 NOT ADD SLT PUSH2 0x111 JUMPI PUSH2 0x7EE PUSH2 0x1101 JUMP JUMPDEST PUSH1 0x0 DUP1 SLOAD PUSH1 0x1 PUSH1 0x1 PUSH1 0xA0 SHL SUB NOT DUP2 AND DUP3 SSTORE PUSH1 0x1 PUSH1 0x1 PUSH1 0xA0 SHL SUB AND PUSH32 0x8BE0079C531659141344CD1FD0A4F28419497F9722A3DAAFE3B4186F6B6457E0 DUP3 DUP1 LOG3 STOP JUMPDEST CALLVALUE PUSH2 0x111 JUMPI PUSH1 0x40 CALLDATASIZE PUSH1 0x3 NOT ADD SLT PUSH2 0x111 JUMPI PUSH8 0xFFFFFFFFFFFFFFFF PUSH1 0x4 CALLDATALOAD DUP2 DUP2 GT PUSH2 0x111 JUMPI PUSH2 0x860 SWAP1 CALLDATASIZE SWAP1 PUSH1 0x4 ADD PUSH2 0x10BA JUMP JUMPDEST SWAP2 PUSH1 0x24 SWAP1 DUP2 CALLDATALOAD SWAP1 DUP2 GT PUSH2 0x111 JUMPI PUSH2 0x87B SWAP1 CALLDATASIZE SWAP1 PUSH1 0x4 ADD PUSH2 0x10BA JUMP JUMPDEST SWAP4 SWAP1 SWAP3 PUSH2 0x887 DUP3 PUSH2 0x11C3 JUMP JUMPDEST SWAP3 PUSH2 0x895 PUSH1 0x40 MLOAD SWAP5 DUP6 PUSH2 0x117C JUMP JUMPDEST DUP3 DUP5 MSTORE PUSH2 0x8A1 DUP4 PUSH2 0x11C3 JUMP JUMPDEST PUSH1 0x20 SWAP7 DUP6 DUP9 ADD SWAP7 SWAP2 PUSH1 0x1F NOT ADD CALLDATASIZE DUP9 CALLDATACOPY PUSH1 0x1 PUSH1 0x1 PUSH1 0xA0 SHL SUB PUSH32 0x0 DUP2 AND SWAP5 PUSH32 0x0 DUP3 AND SWAP2 SWAP1 PUSH1 0x0 JUMPDEST DUP12 DUP10 DUP3 LT PUSH2 0x94E JUMPI DUP11 DUP13 PUSH1 0x40 MLOAD SWAP3 DUP4 SWAP3 DUP2 DUP5 ADD SWAP1 DUP3 DUP6 MSTORE MLOAD DUP1 SWAP2 MSTORE PUSH1 0x40 DUP5 ADD SWAP3 SWAP2 PUSH1 0x0 JUMPDEST DUP3 DUP2 LT PUSH2 0x937 JUMPI POP POP POP POP SUB SWAP1 RETURN JUMPDEST DUP4 MLOAD DUP6 MSTORE DUP7 SWAP6 POP SWAP4 DUP2 ADD SWAP4 SWAP3 DUP2 ADD SWAP3 PUSH1 0x1 ADD PUSH2 0x928 JUMP JUMPDEST SWAP1 DUP6 DUP8 DUP10 PUSH2 0xA0E SWAP5 DUP7 DUP15 DUP7 DUP11 PUSH2 0x968 PUSH2 0x282 DUP4 DUP6 DUP8 PUSH2 0x113C JUMP JUMPDEST AND ISZERO DUP1 ISZERO PUSH2 0xA58 JUMPI JUMPDEST PUSH2 0xA44 JUMPI PUSH1 0x40 SWAP7 PUSH1 0x0 SWAP7 PUSH2 0x9A5 PUSH2 0x282 DUP5 PUSH2 0x9C3 SWAP7 PUSH2 0x9E8 SWAP9 DUP14 DUP1 MLOAD SWAP12 PUSH2 0x997 DUP14 PUSH2 0x1160 JUMP JUMPDEST PUSH1 0x2 DUP14 MSTORE CALLDATASIZE SWAP1 DUP14 ADD CALLDATACOPY PUSH2 0x113C JUMP JUMPDEST DUP14 PUSH2 0x9AF DUP9 PUSH2 0x11DB JUMP JUMPDEST SWAP2 AND SWAP1 MSTORE DUP14 PUSH2 0x9BD DUP8 PUSH2 0x11E8 JUMP JUMPDEST MSTORE PUSH2 0x113C JUMP JUMPDEST CALLDATALOAD SWAP2 DUP6 MLOAD SWAP6 DUP7 SWAP5 DUP6 SWAP5 PUSH4 0xD06CA61F PUSH1 0xE0 SHL DUP7 MSTORE PUSH1 0x4 DUP7 ADD MSTORE DUP5 ADD MSTORE PUSH1 0x44 DUP4 ADD SWAP1 PUSH2 0x1286 JUMP JUMPDEST SUB DUP2 DUP14 GAS STATICCALL PUSH1 0x0 SWAP2 DUP2 PUSH2 0xA27 JUMPI JUMPDEST POP PUSH2 0xA13 JUMPI POP PUSH1 0x0 PUSH2 0xA08 DUP3 DUP14 PUSH2 0x11F8 JUMP JUMPDEST MSTORE PUSH2 0x112D JUMP JUMPDEST PUSH2 0x904 JUMP JUMPDEST PUSH2 0xA1C SWAP1 PUSH2 0x11E8 JUMP JUMPDEST MLOAD PUSH2 0xA08 DUP3 DUP14 PUSH2 0x11F8 JUMP JUMPDEST PUSH2 0xA3D SWAP2 SWAP3 POP RETURNDATASIZE DUP1 PUSH1 0x0 DUP4 RETURNDATACOPY PUSH2 0x5C6 DUP2 DUP4 PUSH2 0x117C JUMP JUMPDEST SWAP1 DUP16 PUSH2 0x9F6 JUMP JUMPDEST SWAP4 POP POP POP POP PUSH1 0x0 SWAP3 POP PUSH2 0xA08 SWAP2 POP DUP14 PUSH2 0x11F8 JUMP JUMPDEST POP PUSH2 0xA64 DUP2 DUP9 DUP9 PUSH2 0x113C JUMP JUMPDEST CALLDATALOAD ISZERO PUSH2 0x971 JUMP JUMPDEST CALLVALUE PUSH2 0x111 JUMPI PUSH1 0xA0 CALLDATASIZE PUSH1 0x3 NOT ADD SLT PUSH2 0x111 JUMPI PUSH1 0x4 CALLDATALOAD PUSH8 0xFFFFFFFFFFFFFFFF DUP2 GT PUSH2 0x111 JUMPI PUSH2 0xA9C SWAP1 CALLDATASIZE SWAP1 PUSH1 0x4 ADD PUSH2 0x10BA JUMP JUMPDEST SWAP1 PUSH1 0x24 CALLDATALOAD PUSH8 0xFFFFFFFFFFFFFFFF DUP2 GT PUSH2 0x111 JUMPI PUSH2 0xABD SWAP1 CALLDATASIZE SWAP1 PUSH1 0x4 ADD PUSH2 0x10BA JUMP JUMPDEST PUSH1 0x44 CALLDATALOAD SWAP3 SWAP2 PUSH1 0x1 PUSH1 0x1 PUSH1 0xA0 SHL SUB DUP5 AND DUP5 SUB PUSH2 0x111 JUMPI PUSH1 0x64 CALLDATALOAD PUSH8 0xFFFFFFFFFFFFFFFF DUP2 GT PUSH2 0x111 JUMPI PUSH2 0xAF2 SWAP1 CALLDATASIZE SWAP1 PUSH1 0x4 ADD PUSH2 0x10BA JUMP JUMPDEST SWAP4 PUSH2 0xAFB PUSH2 0x133C JUMP JUMPDEST PUSH1 0x84 CALLDATALOAD TIMESTAMP GT PUSH2 0x730 JUMPI DUP7 ISZERO PUSH2 0x71E JUMPI PUSH1 0x1 PUSH1 0x1 PUSH1 0xA0 SHL SUB DUP7 AND ISZERO PUSH2 0x682 JUMPI DUP4 DUP8 EQ DUP1 ISZERO SWAP1 PUSH2 0x10B0 JUMPI JUMPDEST PUSH2 0x6D6 JUMPI PUSH1 0x40 MLOAD PUSH4 0x70A08231 PUSH1 0xE0 SHL DUP2 MSTORE ADDRESS PUSH1 0x4 DUP3 ADD MSTORE SWAP5 PUSH1 0x20 DUP7 PUSH1 0x24 DUP2 PUSH1 0x1 PUSH1 0x1 PUSH1 0xA0 SHL SUB DUP12 AND GAS STATICCALL SWAP6 DUP7 ISZERO PUSH2 0x51F JUMPI PUSH1 0x0 SWAP7 PUSH2 0x107C JUMPI JUMPDEST POP PUSH1 0x0 JUMPDEST DUP9 DUP2 LT PUSH2 0xC93 JUMPI PUSH1 0x40 MLOAD PUSH4 0x70A08231 PUSH1 0xE0 SHL DUP2 MSTORE ADDRESS PUSH1 0x4 DUP3 ADD MSTORE DUP10 SWAP1 DUP10 SWAP1 DUP10 PUSH1 0x20 DUP3 PUSH1 0x24 DUP2 PUSH1 0x1 PUSH1 0x1 PUSH1 0xA0 SHL SUB DUP8 AND GAS STATICCALL DUP1 ISZERO PUSH2 0x51F JUMPI PUSH1 0x0 SWAP1 PUSH2 0xC5F JUMPI JUMPDEST PUSH2 0xBAA SWAP3 POP PUSH2 0x11B6 JUMP JUMPDEST SWAP1 DUP2 PUSH2 0xBF2 JUMPI JUMPDEST POP PUSH1 0x20 SWAP2 PUSH1 0x40 MLOAD SWAP1 DUP2 MSTORE DUP2 DUP4 DUP3 ADD MSTORE PUSH32 0xC767DE13F13F210028EE47BBC51D3B5C5BDD470EDDF6CC16787D8F41F82D537E PUSH1 0x40 CALLER SWAP3 LOG2 PUSH1 0x1 DUP1 SSTORE PUSH1 0x40 MLOAD SWAP1 DUP2 MSTORE RETURN JUMPDEST PUSH1 0x40 MLOAD PUSH4 0xA9059CBB PUSH1 0xE0 SHL DUP2 MSTORE CALLER PUSH1 0x4 DUP3 ADD MSTORE PUSH1 0x24 DUP2 ADD DUP4 SWAP1 MSTORE SWAP1 PUSH1 0x20 SWAP1 DUP3 SWAP1 PUSH1 0x44 SWAP1 DUP3 SWAP1 PUSH1 0x0 SWAP1 PUSH1 0x1 PUSH1 0x1 PUSH1 0xA0 SHL SUB AND GAS CALL SWAP1 DUP2 ISZERO PUSH2 0x51F JUMPI PUSH1 0x0 SWAP2 PUSH2 0xC40 JUMPI JUMPDEST POP ISZERO PUSH2 0x25A JUMPI DUP3 PUSH2 0xBB1 JUMP JUMPDEST PUSH2 0xC59 SWAP2 POP PUSH1 0x20 RETURNDATASIZE PUSH1 0x20 GT PUSH2 0x518 JUMPI PUSH2 0x509 DUP2 DUP4 PUSH2 0x117C JUMP JUMPDEST DUP4 PUSH2 0xC34 JUMP JUMPDEST POP PUSH1 0x20 DUP3 RETURNDATASIZE PUSH1 0x20 GT PUSH2 0xC8B JUMPI JUMPDEST DUP2 PUSH2 0xC79 PUSH1 0x20 SWAP4 DUP4 PUSH2 0x117C JUMP JUMPDEST DUP2 ADD SUB SLT PUSH2 0x111 JUMPI PUSH2 0xBAA SWAP2 MLOAD PUSH2 0xBA0 JUMP JUMPDEST RETURNDATASIZE SWAP2 POP PUSH2 0xC6C JUMP JUMPDEST PUSH1 0x1 PUSH1 0x1 PUSH1 0xA0 SHL SUB PUSH2 0xCA9 PUSH2 0x282 DUP4 DUP13 DUP8 PUSH2 0x113C JUMP JUMPDEST AND ISZERO DUP1 ISZERO PUSH2 0x105A JUMPI JUMPDEST PUSH2 0x1051 JUMPI PUSH2 0xCC1 DUP2 DUP8 DUP8 PUSH2 0x113C JUMP JUMPDEST CALLDATALOAD ISZERO PUSH2 0x1051 JUMPI PUSH1 0x1 PUSH1 0x1 PUSH1 0xA0 SHL SUB PUSH2 0xCDD PUSH2 0x282 DUP4 DUP13 DUP8 PUSH2 0x113C JUMP JUMPDEST AND SWAP1 PUSH1 0x40 MLOAD PUSH4 0x70A08231 PUSH1 0xE0 SHL DUP2 MSTORE ADDRESS PUSH1 0x4 DUP3 ADD MSTORE PUSH1 0x20 DUP2 PUSH1 0x24 DUP2 DUP7 GAS STATICCALL SWAP1 DUP2 ISZERO PUSH2 0x51F JUMPI PUSH1 0x0 SWAP2 PUSH2 0x101F JUMPI JUMPDEST POP PUSH2 0xD1B PUSH1 0x20 PUSH2 0x2F9 DUP5 DUP12 DUP12 PUSH2 0x113C JUMP JUMPDEST SUB DUP2 PUSH1 0x0 DUP9 GAS CALL SWAP1 DUP2 ISZERO PUSH2 0x51F JUMPI PUSH1 0x0 SWAP2 PUSH2 0x1000 JUMPI JUMPDEST POP ISZERO PUSH2 0x25A JUMPI PUSH1 0x40 MLOAD PUSH4 0x70A08231 PUSH1 0xE0 SHL DUP2 MSTORE ADDRESS PUSH1 0x4 DUP3 ADD MSTORE SWAP1 PUSH1 0x20 DUP3 PUSH1 0x24 DUP2 DUP8 GAS STATICCALL DUP1 ISZERO PUSH2 0x51F JUMPI PUSH1 0x0 SWAP1 PUSH2 0xFCC JUMPI JUMPDEST PUSH2 0xD6C SWAP3 POP PUSH2 0x11B6 JUMP JUMPDEST PUSH1 0x40 MLOAD PUSH4 0x95EA7B3 PUSH1 0xE0 SHL DUP2 MSTORE PUSH1 0x1 PUSH1 0x1 PUSH1 0xA0 SHL SUB PUSH32 0x0 AND PUSH1 0x4 DUP3 ADD MSTORE PUSH1 0x24 DUP2 ADD DUP3 SWAP1 MSTORE PUSH1 0x20 DUP2 PUSH1 0x44 DUP2 PUSH1 0x0 DUP9 GAS CALL DUP1 ISZERO PUSH2 0x51F JUMPI PUSH2 0xFAD JUMPI JUMPDEST POP PUSH1 0x40 MLOAD DUP1 PUSH1 0x80 DUP2 ADD LT PUSH8 0xFFFFFFFFFFFFFFFF PUSH1 0x80 DUP4 ADD GT OR PUSH2 0xF97 JUMPI PUSH2 0xE03 PUSH2 0x282 DUP5 DUP15 PUSH1 0x80 DUP6 ADD PUSH1 0x40 MSTORE PUSH1 0x3 DUP6 MSTORE PUSH1 0x60 CALLDATASIZE PUSH1 0x20 DUP8 ADD CALLDATACOPY DUP10 PUSH2 0x113C JUMP JUMPDEST PUSH2 0xE0C DUP3 PUSH2 0x11DB JUMP JUMPDEST PUSH1 0x1 PUSH1 0x1 PUSH1 0xA0 SHL SUB SWAP2 DUP3 AND SWAP1 MSTORE PUSH32 0x0 AND PUSH2 0xE44 DUP3 PUSH2 0x11E8 JUMP JUMPDEST MSTORE DUP1 MLOAD PUSH1 0x2 LT ISZERO PUSH2 0xF81 JUMPI PUSH1 0x1 PUSH1 0x1 PUSH1 0xA0 SHL SUB DUP12 AND PUSH1 0x60 DUP3 ADD MSTORE PUSH2 0xE93 SWAP1 PUSH1 0x0 SWAP1 PUSH2 0xE70 DUP6 DUP9 DUP12 PUSH2 0x113C JUMP JUMPDEST PUSH1 0x40 MLOAD PUSH4 0x38ED1739 PUSH1 0xE0 SHL DUP2 MSTORE SWAP4 DUP5 SWAP3 DUP4 SWAP3 PUSH1 0x84 CALLDATALOAD SWAP2 ADDRESS SWAP2 CALLDATALOAD DUP10 PUSH1 0x4 DUP8 ADD PUSH2 0x12C3 JUMP JUMPDEST SUB DUP2 DUP4 PUSH32 0x0 PUSH1 0x1 PUSH1 0x1 PUSH1 0xA0 SHL SUB AND GAS CALL PUSH1 0x0 SWAP2 DUP2 PUSH2 0xF64 JUMPI JUMPDEST POP PUSH2 0xF35 JUMPI POP PUSH1 0x40 MLOAD PUSH4 0xA9059CBB PUSH1 0xE0 SHL DUP2 MSTORE CALLER PUSH1 0x4 DUP3 ADD MSTORE PUSH1 0x24 DUP2 ADD SWAP2 SWAP1 SWAP2 MSTORE SWAP2 PUSH1 0x20 SWAP1 DUP4 SWAP1 PUSH1 0x44 SWAP1 DUP3 SWAP1 PUSH1 0x0 SWAP1 GAS CALL SWAP2 DUP3 ISZERO PUSH2 0x51F JUMPI PUSH2 0xF11 SWAP3 PUSH2 0xF16 JUMPI POP PUSH2 0x112D JUMP JUMPDEST PUSH2 0xB61 JUMP JUMPDEST PUSH2 0xF2E SWAP1 PUSH1 0x20 RETURNDATASIZE PUSH1 0x20 GT PUSH2 0x518 JUMPI PUSH2 0x509 DUP2 DUP4 PUSH2 0x117C JUMP JUMPDEST POP DUP11 PUSH2 0x4E5 JUMP JUMPDEST SWAP3 POP PUSH2 0xF45 PUSH2 0x282 DUP4 DUP14 DUP9 PUSH2 0x113C JUMP JUMPDEST DUP4 MLOAD DUP1 PUSH1 0x0 NOT DUP2 ADD GT PUSH2 0x59A JUMPI PUSH2 0xF11 SWAP5 PUSH2 0x55A SWAP2 PUSH1 0x0 NOT ADD SWAP1 PUSH2 0x11F8 JUMP JUMPDEST PUSH2 0xF7A SWAP2 SWAP3 POP RETURNDATASIZE DUP1 PUSH1 0x0 DUP4 RETURNDATACOPY PUSH2 0x5C6 DUP2 DUP4 PUSH2 0x117C JUMP JUMPDEST SWAP1 DUP14 PUSH2 0xECB JUMP JUMPDEST PUSH4 0x4E487B71 PUSH1 0xE0 SHL PUSH1 0x0 MSTORE PUSH1 0x32 PUSH1 0x4 MSTORE PUSH1 0x24 PUSH1 0x0 REVERT JUMPDEST PUSH4 0x4E487B71 PUSH1 0xE0 SHL PUSH1 0x0 MSTORE PUSH1 0x41 PUSH1 0x4 MSTORE PUSH1 0x24 PUSH1 0x0 REVERT JUMPDEST PUSH2 0xFC5 SWAP1 PUSH1 0x20 RETURNDATASIZE PUSH1 0x20 GT PUSH2 0x518 JUMPI PUSH2 0x509 DUP2 DUP4 PUSH2 0x117C JUMP JUMPDEST POP DUP12 PUSH2 0xDC5 JUMP JUMPDEST POP PUSH1 0x20 DUP3 RETURNDATASIZE PUSH1 0x20 GT PUSH2 0xFF8 JUMPI JUMPDEST DUP2 PUSH2 0xFE6 PUSH1 0x20 SWAP4 DUP4 PUSH2 0x117C JUMP JUMPDEST DUP2 ADD SUB SLT PUSH2 0x111 JUMPI PUSH2 0xD6C SWAP2 MLOAD PUSH2 0xD62 JUMP JUMPDEST RETURNDATASIZE SWAP2 POP PUSH2 0xFD9 JUMP JUMPDEST PUSH2 0x1019 SWAP2 POP PUSH1 0x20 RETURNDATASIZE PUSH1 0x20 GT PUSH2 0x518 JUMPI PUSH2 0x509 DUP2 DUP4 PUSH2 0x117C JUMP JUMPDEST DUP13 PUSH2 0xD31 JUMP JUMPDEST SWAP1 POP PUSH1 0x20 DUP2 RETURNDATASIZE PUSH1 0x20 GT PUSH2 0x1049 JUMPI JUMPDEST DUP2 PUSH2 0x103A PUSH1 0x20 SWAP4 DUP4 PUSH2 0x117C JUMP JUMPDEST DUP2 ADD SUB SLT PUSH2 0x111 JUMPI MLOAD DUP12 PUSH2 0xD0A JUMP JUMPDEST RETURNDATASIZE SWAP2 POP PUSH2 0x102D JUMP JUMPDEST PUSH2 0xF11 SWAP1 PUSH2 0x112D JUMP JUMPDEST POP PUSH1 0x1 PUSH1 0x1 PUSH1 0xA0 SHL SUB DUP9 DUP2 AND SWAP1 PUSH2 0x1075 PUSH2 0x282 DUP5 DUP14 DUP9 PUSH2 0x113C JUMP JUMPDEST AND EQ PUSH2 0xCB2 JUMP JUMPDEST SWAP1 SWAP6 POP PUSH1 0x20 DUP2 RETURNDATASIZE PUSH1 0x20 GT PUSH2 0x10A8 JUMPI JUMPDEST DUP2 PUSH2 0x1098 PUSH1 0x20 SWAP4 DUP4 PUSH2 0x117C JUMP JUMPDEST DUP2 ADD SUB SLT PUSH2 0x111 JUMPI MLOAD SWAP5 DUP9 PUSH2 0xB5D JUMP JUMPDEST RETURNDATASIZE SWAP2 POP PUSH2 0x108B JUMP JUMPDEST POP DUP5 DUP8 EQ ISZERO PUSH2 0xB24 JUMP JUMPDEST SWAP2 DUP2 PUSH1 0x1F DUP5 ADD SLT ISZERO PUSH2 0x111 JUMPI DUP3 CALLDATALOAD SWAP2 PUSH8 0xFFFFFFFFFFFFFFFF DUP4 GT PUSH2 0x111 JUMPI PUSH1 0x20 DUP1 DUP6 ADD SWAP5 DUP5 PUSH1 0x5 SHL ADD ADD GT PUSH2 0x111 JUMPI JUMP JUMPDEST PUSH1 0x4 CALLDATALOAD SWAP1 PUSH1 0x1 PUSH1 0x1 PUSH1 0xA0 SHL SUB DUP3 AND DUP3 SUB PUSH2 0x111 JUMPI JUMP JUMPDEST PUSH1 0x0 SLOAD PUSH1 0x1 PUSH1 0x1 PUSH1 0xA0 SHL SUB AND CALLER SUB PUSH2 0x1115 JUMPI JUMP JUMPDEST PUSH1 0x40 MLOAD PUSH4 0x118CDAA7 PUSH1 0xE0 SHL DUP2 MSTORE CALLER PUSH1 0x4 DUP3 ADD MSTORE PUSH1 0x24 SWAP1 REVERT JUMPDEST PUSH1 0x0 NOT DUP2 EQ PUSH2 0x59A JUMPI PUSH1 0x1 ADD SWAP1 JUMP JUMPDEST SWAP2 SWAP1 DUP2 LT ISZERO PUSH2 0xF81 JUMPI PUSH1 0x5 SHL ADD SWAP1 JUMP JUMPDEST CALLDATALOAD PUSH1 0x1 PUSH1 0x1 PUSH1 0xA0 SHL SUB DUP2 AND DUP2 SUB PUSH2 0x111 JUMPI SWAP1 JUMP JUMPDEST PUSH1 0x60 DUP2 ADD SWAP1 DUP2 LT PUSH8 0xFFFFFFFFFFFFFFFF DUP3 GT OR PUSH2 0xF97 JUMPI PUSH1 0x40 MSTORE JUMP JUMPDEST SWAP1 PUSH1 0x1F DUP1 NOT SWAP2 ADD AND DUP2 ADD SWAP1 DUP2 LT PUSH8 0xFFFFFFFFFFFFFFFF DUP3 GT OR PUSH2 0xF97 JUMPI PUSH1 0x40 MSTORE JUMP JUMPDEST SWAP1 DUP2 PUSH1 0x20 SWAP2 SUB SLT PUSH2 0x111 JUMPI MLOAD DUP1 ISZERO ISZERO DUP2 SUB PUSH2 0x111 JUMPI SWAP1 JUMP JUMPDEST SWAP2 SWAP1 DUP3 SUB SWAP2 DUP3 GT PUSH2 0x59A JUMPI JUMP JUMPDEST PUSH8 0xFFFFFFFFFFFFFFFF DUP2 GT PUSH2 0xF97 JUMPI PUSH1 0x5 SHL PUSH1 0x20 ADD SWAP1 JUMP JUMPDEST DUP1 MLOAD ISZERO PUSH2 0xF81 JUMPI PUSH1 0x20 ADD SWAP1 JUMP JUMPDEST DUP1 MLOAD PUSH1 0x1 LT ISZERO PUSH2 0xF81 JUMPI PUSH1 0x40 ADD SWAP1 JUMP JUMPDEST DUP1 MLOAD DUP3 LT ISZERO PUSH2 0xF81 JUMPI PUSH1 0x20 SWAP2 PUSH1 0x5 SHL ADD ADD SWAP1 JUMP JUMPDEST PUSH1 0x20 SWAP1 DUP2 DUP2 DUP5 SUB SLT PUSH2 0x111 JUMPI DUP1 MLOAD SWAP1 PUSH8 0xFFFFFFFFFFFFFFFF DUP3 GT PUSH2 0x111 JUMPI ADD SWAP2 DUP1 PUSH1 0x1F DUP5 ADD SLT ISZERO PUSH2 0x111 JUMPI DUP3 MLOAD PUSH2 0x1242 DUP2 PUSH2 0x11C3 JUMP JUMPDEST SWAP4 PUSH2 0x1250 PUSH1 0x40 MLOAD SWAP6 DUP7 PUSH2 0x117C JUMP JUMPDEST DUP2 DUP6 MSTORE DUP4 DUP1 DUP7 ADD SWAP3 PUSH1 0x5 SHL DUP3 ADD ADD SWAP3 DUP4 GT PUSH2 0x111 JUMPI DUP4 ADD SWAP1 JUMPDEST DUP3 DUP3 LT PUSH2 0x1277 JUMPI POP POP POP POP SWAP1 JUMP JUMPDEST DUP2 MLOAD DUP2 MSTORE SWAP1 DUP4 ADD SWAP1 DUP4 ADD PUSH2 0x1269 JUMP JUMPDEST SWAP1 DUP2 MLOAD DUP1 DUP3 MSTORE PUSH1 0x20 DUP1 DUP1 SWAP4 ADD SWAP4 ADD SWAP2 PUSH1 0x0 JUMPDEST DUP3 DUP2 LT PUSH2 0x12A6 JUMPI POP POP POP POP SWAP1 JUMP JUMPDEST DUP4 MLOAD PUSH1 0x1 PUSH1 0x1 PUSH1 0xA0 SHL SUB AND DUP6 MSTORE SWAP4 DUP2 ADD SWAP4 SWAP3 DUP2 ADD SWAP3 PUSH1 0x1 ADD PUSH2 0x1298 JUMP JUMPDEST SWAP2 SWAP3 PUSH1 0x80 SWAP4 PUSH2 0x12E8 SWAP3 SWAP8 SWAP7 SWAP6 SWAP8 DUP5 MSTORE PUSH1 0x20 DUP5 ADD MSTORE PUSH1 0xA0 PUSH1 0x40 DUP5 ADD MSTORE PUSH1 0xA0 DUP4 ADD SWAP1 PUSH2 0x1286 JUMP JUMPDEST PUSH1 0x1 PUSH1 0x1 PUSH1 0xA0 SHL SUB SWAP1 SWAP6 AND PUSH1 0x60 DUP3 ADD MSTORE ADD MSTORE JUMP JUMPDEST RETURNDATASIZE ISZERO PUSH2 0x1337 JUMPI RETURNDATASIZE SWAP1 PUSH8 0xFFFFFFFFFFFFFFFF DUP3 GT PUSH2 0xF97 JUMPI PUSH1 0x40 MLOAD SWAP2 PUSH2 0x132B PUSH1 0x1F DUP3 ADD PUSH1 0x1F NOT AND PUSH1 0x20 ADD DUP5 PUSH2 0x117C JUMP JUMPDEST DUP3 MSTORE RETURNDATASIZE PUSH1 0x0 PUSH1 0x20 DUP5 ADD RETURNDATACOPY JUMP JUMPDEST PUSH1 0x60 SWAP1 JUMP JUMPDEST PUSH1 0x2 PUSH1 0x1 SLOAD EQ PUSH2 0x134D JUMPI PUSH1 0x2 PUSH1 0x1 SSTORE JUMP JUMPDEST PUSH1 0x40 MLOAD PUSH4 0x3EE5AEB5 PUSH1 0xE0 SHL DUP2 MSTORE PUSH1 0x4 SWAP1 REVERT JUMPDEST DUP2 ISZERO PUSH2 0x140E JUMPI PUSH1 0x1 PUSH1 0x1 PUSH1 0xA0 SHL SUB AND SWAP1 DUP2 PUSH2 0x13BA JUMPI PUSH1 0x0 DUP1 DUP1 DUP1 DUP5 CALLER GAS CALL PUSH2 0x1385 PUSH2 0x12FC JUMP JUMPDEST POP ISZERO PUSH2 0x25A JUMPI JUMPDEST PUSH1 0x40 MLOAD SWAP1 DUP2 MSTORE PUSH32 0xF24EF89F38EADC1BDE50701AD6E4D6D11A2DC24F7CF834A486991F3883328504 PUSH1 0x20 CALLER SWAP3 LOG3 JUMP JUMPDEST PUSH1 0x40 MLOAD PUSH4 0xA9059CBB PUSH1 0xE0 SHL DUP2 MSTORE CALLER PUSH1 0x4 DUP3 ADD MSTORE PUSH1 0x24 DUP2 ADD DUP3 SWAP1 MSTORE PUSH1 0x20 DUP2 PUSH1 0x44 DUP2 PUSH1 0x0 DUP8 GAS CALL DUP1 ISZERO PUSH2 0x51F JUMPI PUSH2 0x13F0 JUMPI JUMPDEST POP PUSH2 0x138C JUMP JUMPDEST PUSH2 0x1407 SWAP1 PUSH1 0x20 RETURNDATASIZE DUP2 GT PUSH2 0x518 JUMPI PUSH2 0x509 DUP2 DUP4 PUSH2 0x117C JUMP JUMPDEST POP CODESIZE PUSH2 0x13EA JUMP JUMPDEST POP POP JUMP INVALID LOG2 PUSH5 0x6970667358 0x22 SLT KECCAK256 0xDA 0xD1 SUB SWAP15 0xED SWAP5 0xD0 SHR PUSH13 0x4615EF1D3AD909B9C62B8B8E84 JUMP ADD PUSH2 0xC8E9 0x26 0xA5 DUP7 0x4A 0xBB PUSH5 0x736F6C6343 STOP ADDMOD EQ STOP CALLER "},"methodIdentifiers":{"WBNB()":"8dd95002","batchSwapExactTokensForETH(address[],uint256[],uint256[],uint256)":"b93b2595","batchSwapExactTokensForTokens(address[],uint256[],address,uint256[],uint256)":"135c8e89","emergencyWithdraw(address,uint256)":"95ccea67","getEstimatedBNBOutputs(address[],uint256[])":"6b77dd37","owner()":"8da5cb5b","pancakeRouter()":"c21ebd07","renounceOwnership()":"715018a6","transferOwnership(address)":"f2fde38b"}}}}}