{"contracts/DustSwapRouterX.sol":{"DustSwapRouterX":{"abi":[{"inputs":[{"internalType":"address","name":"_pancakeRouterV2","type":"address"},{"internalType":"address","name":"_pancakeRouterV3","type":"address"},{"internalType":"address","name":"_outputToken","type":"address"},{"internalType":"address","name":"_feeRecipient","type":"address"},{"internalType":"uint256","name":"_initialFee","type":"uint256"}],"stateMutability":"nonpayable","type":"constructor"},{"inputs":[],"name":"DeadlineExpired","type":"error"},{"inputs":[],"name":"ECDSAInvalidSignature","type":"error"},{"inputs":[{"internalType":"uint256","name":"length","type":"uint256"}],"name":"ECDSAInvalidSignatureLength","type":"error"},{"inputs":[{"internalType":"bytes32","name":"s","type":"bytes32"}],"name":"ECDSAInvalidSignatureS","type":"error"},{"inputs":[],"name":"EmptySwapList","type":"error"},{"inputs":[],"name":"FeeTooHigh","type":"error"},{"inputs":[],"name":"InsufficientOutput","type":"error"},{"inputs":[],"name":"InvalidFeeRecipient","type":"error"},{"inputs":[],"name":"InvalidNonce","type":"error"},{"inputs":[],"name":"InvalidOutputToken","type":"error"},{"inputs":[],"name":"InvalidRouter","type":"error"},{"inputs":[],"name":"InvalidSignature","type":"error"},{"inputs":[],"name":"InvalidToken","type":"error"},{"inputs":[],"name":"NoPendingOutputToken","type":"error"},{"inputs":[{"internalType":"address","name":"owner","type":"address"}],"name":"OwnableInvalidOwner","type":"error"},{"inputs":[{"internalType":"address","name":"account","type":"address"}],"name":"OwnableUnauthorizedAccount","type":"error"},{"inputs":[],"name":"ReentrancyGuardReentrantCall","type":"error"},{"inputs":[{"internalType":"uint256","name":"activeAt","type":"uint256"}],"name":"TimelockActive","type":"error"},{"inputs":[],"name":"TransferFailed","type":"error"},{"anonymous":false,"inputs":[{"indexed":true,"internalType":"address","name":"user","type":"address"},{"indexed":false,"internalType":"uint256","name":"tokensSwapped","type":"uint256"},{"indexed":false,"internalType":"uint256","name":"totalOutput","type":"uint256"},{"indexed":false,"internalType":"uint256","name":"fee","type":"uint256"},{"indexed":false,"internalType":"uint256","name":"userAmount","type":"uint256"},{"indexed":true,"internalType":"address","name":"outputToken","type":"address"}],"name":"BatchSwapCompleted","type":"event"},{"anonymous":false,"inputs":[{"indexed":true,"internalType":"address","name":"oldRecipient","type":"address"},{"indexed":true,"internalType":"address","name":"newRecipient","type":"address"}],"name":"FeeRecipientUpdated","type":"event"},{"anonymous":false,"inputs":[{"indexed":false,"internalType":"uint256","name":"oldFee","type":"uint256"},{"indexed":false,"internalType":"uint256","name":"newFee","type":"uint256"}],"name":"FeeUpdated","type":"event"},{"anonymous":false,"inputs":[{"indexed":true,"internalType":"address","name":"owner","type":"address"},{"indexed":false,"internalType":"uint256","name":"wordPos","type":"uint256"},{"indexed":false,"internalType":"uint256","name":"mask","type":"uint256"}],"name":"NonceInvalidation","type":"event"},{"anonymous":false,"inputs":[{"indexed":true,"internalType":"address","name":"cancelledToken","type":"address"}],"name":"OutputTokenProposalCancelled","type":"event"},{"anonymous":false,"inputs":[{"indexed":true,"internalType":"address","name":"newToken","type":"address"},{"indexed":false,"internalType":"uint256","name":"activeAt","type":"uint256"}],"name":"OutputTokenProposed","type":"event"},{"anonymous":false,"inputs":[{"indexed":true,"internalType":"address","name":"oldToken","type":"address"},{"indexed":true,"internalType":"address","name":"newToken","type":"address"}],"name":"OutputTokenUpdated","type":"event"},{"anonymous":false,"inputs":[{"indexed":true,"internalType":"address","name":"previousOwner","type":"address"},{"indexed":true,"internalType":"address","name":"newOwner","type":"address"}],"name":"OwnershipTransferred","type":"event"},{"anonymous":false,"inputs":[{"indexed":true,"internalType":"address","name":"user","type":"address"},{"indexed":true,"internalType":"address","name":"token","type":"address"},{"indexed":false,"internalType":"uint256","name":"amountIn","type":"uint256"},{"indexed":false,"internalType":"uint256","name":"amountOut","type":"uint256"},{"indexed":false,"internalType":"enum DustSwapRouterX.RouterVersion","name":"version","type":"uint8"}],"name":"SingleSwapCompleted","type":"event"},{"inputs":[],"name":"DOMAIN_SEPARATOR","outputs":[{"internalType":"bytes32","name":"","type":"bytes32"}],"stateMutability":"view","type":"function"},{"inputs":[],"name":"FEE_DENOMINATOR","outputs":[{"internalType":"uint256","name":"","type":"uint256"}],"stateMutability":"view","type":"function"},{"inputs":[],"name":"MAX_FEE","outputs":[{"internalType":"uint256","name":"","type":"uint256"}],"stateMutability":"view","type":"function"},{"inputs":[],"name":"OUTPUT_TOKEN_TIMELOCK","outputs":[{"internalType":"uint256","name":"","type":"uint256"}],"stateMutability":"view","type":"function"},{"inputs":[],"name":"PERMIT_TRANSFER_TYPEHASH","outputs":[{"internalType":"bytes32","name":"","type":"bytes32"}],"stateMutability":"view","type":"function"},{"inputs":[],"name":"TOKEN_PERMISSIONS_TYPEHASH","outputs":[{"internalType":"bytes32","name":"","type":"bytes32"}],"stateMutability":"view","type":"function"},{"inputs":[],"name":"WBNB","outputs":[{"internalType":"address","name":"","type":"address"}],"stateMutability":"view","type":"function"},{"inputs":[],"name":"applyOutputToken","outputs":[],"stateMutability":"nonpayable","type":"function"},{"inputs":[{"components":[{"internalType":"address","name":"token","type":"address"},{"internalType":"uint256","name":"amount","type":"uint256"},{"internalType":"uint256","name":"minAmountOut","type":"uint256"},{"internalType":"enum DustSwapRouterX.RouterVersion","name":"version","type":"uint8"},{"internalType":"uint24","name":"v3Fee","type":"uint24"},{"internalType":"uint256","name":"permit2Nonce","type":"uint256"},{"internalType":"uint256","name":"permit2Deadline","type":"uint256"},{"internalType":"bytes","name":"permit2Sig","type":"bytes"},{"internalType":"uint256","name":"permitDeadline","type":"uint256"},{"internalType":"uint8","name":"permitV","type":"uint8"},{"internalType":"bytes32","name":"permitR","type":"bytes32"},{"internalType":"bytes32","name":"permitS","type":"bytes32"}],"internalType":"struct DustSwapRouterX.SwapInstruction[]","name":"instructions","type":"tuple[]"},{"internalType":"uint256","name":"deadline","type":"uint256"}],"name":"batchSwapToToken","outputs":[{"internalType":"uint256","name":"userAmount","type":"uint256"}],"stateMutability":"nonpayable","type":"function"},{"inputs":[],"name":"cancelOutputToken","outputs":[],"stateMutability":"nonpayable","type":"function"},{"inputs":[{"internalType":"address","name":"token","type":"address"},{"internalType":"uint256","name":"amount","type":"uint256"}],"name":"emergencyWithdraw","outputs":[],"stateMutability":"nonpayable","type":"function"},{"inputs":[],"name":"feeRecipient","outputs":[{"internalType":"address","name":"","type":"address"}],"stateMutability":"view","type":"function"},{"inputs":[{"internalType":"address[]","name":"tokens","type":"address[]"},{"internalType":"uint256[]","name":"amounts","type":"uint256[]"}],"name":"getEstimatedOutputs","outputs":[{"internalType":"uint256[]","name":"estimates","type":"uint256[]"}],"stateMutability":"view","type":"function"},{"inputs":[{"internalType":"uint256","name":"wordPos","type":"uint256"},{"internalType":"uint256","name":"mask","type":"uint256"}],"name":"invalidateNonces","outputs":[],"stateMutability":"nonpayable","type":"function"},{"inputs":[{"internalType":"address","name":"","type":"address"},{"internalType":"uint256","name":"","type":"uint256"}],"name":"nonceBitmap","outputs":[{"internalType":"uint256","name":"","type":"uint256"}],"stateMutability":"view","type":"function"},{"inputs":[],"name":"outputToken","outputs":[{"internalType":"address","name":"","type":"address"}],"stateMutability":"view","type":"function"},{"inputs":[],"name":"owner","outputs":[{"internalType":"address","name":"","type":"address"}],"stateMutability":"view","type":"function"},{"inputs":[],"name":"pancakeRouterV2","outputs":[{"internalType":"contract IPancakeRouter02","name":"","type":"address"}],"stateMutability":"view","type":"function"},{"inputs":[],"name":"pancakeRouterV3","outputs":[{"internalType":"contract IPancakeV3SwapRouter","name":"","type":"address"}],"stateMutability":"view","type":"function"},{"inputs":[],"name":"pendingOutputToken","outputs":[{"internalType":"address","name":"","type":"address"}],"stateMutability":"view","type":"function"},{"inputs":[],"name":"pendingOutputTokenActiveAt","outputs":[{"internalType":"uint256","name":"","type":"uint256"}],"stateMutability":"view","type":"function"},{"inputs":[{"internalType":"address","name":"_newToken","type":"address"}],"name":"proposeOutputToken","outputs":[],"stateMutability":"nonpayable","type":"function"},{"inputs":[],"name":"renounceOwnership","outputs":[],"stateMutability":"nonpayable","type":"function"},{"inputs":[],"name":"serviceFee","outputs":[{"internalType":"uint256","name":"","type":"uint256"}],"stateMutability":"view","type":"function"},{"inputs":[{"internalType":"uint256","name":"_newFee","type":"uint256"}],"name":"setFee","outputs":[],"stateMutability":"nonpayable","type":"function"},{"inputs":[{"internalType":"address","name":"_newRecipient","type":"address"}],"name":"setFeeRecipient","outputs":[],"stateMutability":"nonpayable","type":"function"},{"inputs":[{"internalType":"address","name":"newOwner","type":"address"}],"name":"transferOwnership","outputs":[],"stateMutability":"nonpayable","type":"function"},{"stateMutability":"payable","type":"receive"}],"evm":{"bytecode":{"linkReferences":{},"object":"6101006040818152346200033d5760a0826200252f803803809162000025828562000342565b8339810103126200033d576200003b826200037c565b6020906200004b8285016200037c565b620000588486016200037c565b94608062000069606083016200037c565b910151923315620003255760008054336001600160a01b0319808316821784558951939a90956001600160a01b0395919493909286929183167f8be0079c531659141344cd1fd0a4f28419497f9722a3daafe3b4186f6b6457e08e80a3600180551691821580156200031a575b6200030b57508316948515620002fa576113888711620002e957818489926004946080521660a0528951928380926315ab88c960e31b82525afa918215620002df5783918a9362000299575b508260c052169182159182156200028c575b50506200027c5781600354161760035560065416176006556007558151908101917f8cad95687ba82c2ce50e74f7b754645e5117c3a5bec8151c0726d5857980a86683527fbb9ef1c19d254c3a436bda7cbd5ee057a57e19a2190e5c8796cee57c173c5fd6818301524660608301523060808301526080825260a082019382851060018060401b0386111762000268575083905251902060e05261219d908162000392823960805181818161033301528181610e1c01528181610ef101528181610f58015281816116ce0152611db9015260a05181818161029601528181611bbd0152611d03015260c0518181816104140152818161066301528181610e8d015281816114060152818161166101528181611c3d01528181611dfd0152611e54015260e051818181610cc301526114a80152f35b634e487b7160e01b81526041600452602490fd5b85516231010160e51b8152600490fd5b1682149050388062000134565b88809294508193503d8311620002d7575b620002b6818362000342565b81010312620002d357620002cb83916200037c565b913862000122565b8880fd5b503d620002aa565b88513d8b823e3d90fd5b885163cd4e616760e01b8152600490fd5b8851630ed1b8b360e31b8152600490fd5b63466d7fef60e01b8152600490fd5b5084871615620000d6565b8551631e4fbdf760e01b815260006004820152602490fd5b600080fd5b601f909101601f19168101906001600160401b038211908210176200036657604052565b634e487b7160e01b600052604160045260246000fd5b51906001600160a01b03821682036200033d5756fe608080604052600436101561001d575b50361561001b57600080fd5b005b60003560e01c908163273efee014611535575080632bce68d2146114cb5780633644e51514611490578063413510ea1461080d57806346904840146107e457806349fcf0e41461077f5780634fe02b441461073757806350fd70c41461068b5780636078af92146105aa578063696c11e51461056f57806369fe0e2d146105015780636a19c9c7146104e3578063715018a61461048a5780638abdf5aa1461046c5780638da5cb5b146104435780638dd95002146103fe578063901a5402146103d557806395ccea67146103a8578063bc063e1a1461038b578063c1d8d1d914610362578063d20ccdc21461031d578063d73792a914610300578063e0555801146102c5578063e47aaf6d14610280578063e74b981b146101ff578063ed56dac9146101e15763f2fde38b14610153573861000f565b346101dc5760203660031901126101dc5761016c61184a565b610174611860565b6001600160a01b039081169081156101c357600054826001600160601b0360a01b821617600055167f8be0079c531659141344cd1fd0a4f28419497f9722a3daafe3b4186f6b6457e0600080a3005b604051631e4fbdf760e01b815260006004820152602490fd5b600080fd5b346101dc5760003660031901126101dc5760206040516202a3008152f35b346101dc5760203660031901126101dc5761021861184a565b610220611860565b6001600160a01b0390811690811561026e57816006549182167faaebcf1bfa00580e41d966056b48521fa9f202645c86d4ddf28113e617c1b1d3600080a36001600160a01b03191617600655005b604051630ed1b8b360e31b8152600490fd5b346101dc5760003660031901126101dc576040517f00000000000000000000000000000000000000000000000000000000000000006001600160a01b03168152602090f35b346101dc5760003660031901126101dc5760206040517f939c21a48a8dbe3a9a2404a1d46691e4d39f6583d6ec6b35714604c986d801068152f35b346101dc5760003660031901126101dc5760206040516127108152f35b346101dc5760003660031901126101dc576040517f00000000000000000000000000000000000000000000000000000000000000006001600160a01b03168152602090f35b346101dc5760003660031901126101dc576003546040516001600160a01b039091168152602090f35b346101dc5760003660031901126101dc5760206040516113888152f35b346101dc5760403660031901126101dc5761001b6103c461184a565b6103cc611860565b602435906120a7565b346101dc5760003660031901126101dc576004546040516001600160a01b039091168152602090f35b346101dc5760003660031901126101dc576040517f00000000000000000000000000000000000000000000000000000000000000006001600160a01b03168152602090f35b346101dc5760003660031901126101dc576000546040516001600160a01b039091168152602090f35b346101dc5760003660031901126101dc576020600754604051908152f35b346101dc5760003660031901126101dc576104a3611860565b600080546001600160a01b0319811682556001600160a01b03167f8be0079c531659141344cd1fd0a4f28419497f9722a3daafe3b4186f6b6457e08280a3005b346101dc5760003660031901126101dc576020600554604051908152f35b346101dc5760203660031901126101dc5760043561051d611860565b611388811161055d577f528d9479e9f9889a87a3c30c7f7ba537e5e59c4c85a37733b16e57c62df6130260406007548151908152836020820152a1600755005b60405163cd4e616760e01b8152600490fd5b346101dc5760003660031901126101dc5760206040517f618358ac3db8dc274f0cd8829da7e234bd48cd73c4a740aede1adec9846d06a18152f35b346101dc5760203660031901126101dc576105c361184a565b6105cb611860565b6001600160a01b0390811690811590811561065f575b5061064e57806001600160601b0360a01b60045416176004556202a3004201804211610638576020817f29de7ba5cd5ca8e6f6a34f38a4b954ecabe1538ae30bb80e43569719b04a111e92600555604051908152a2005b634e487b7160e01b600052601160045260246000fd5b6040516231010160e51b8152600490fd5b90507f0000000000000000000000000000000000000000000000000000000000000000168114826105e1565b346101dc5760003660031901126101dc576106a4611860565b6004546001600160a01b038082169182156107255760055480421061070d5750600354906001600160601b0360a01b908482841617600355166004556000600555167ffdef5fa97f9834c3ce5c25f08d33b4e5a200f1055bc73fa7b69cc974c47b7b34600080a3005b602490604051906350ba9f2960e01b82526004820152fd5b6040516322fc91fd60e21b8152600490fd5b346101dc5760403660031901126101dc576001600160a01b0361075861184a565b16600052600260205260406000206024356000526020526020604060002054604051908152f35b346101dc5760003660031901126101dc57610798611860565b6004546001600160a01b0381168015610725577f075237797d8ac452994d7896e187caf611428526b127868f65e5e3b0b721a370600080a26001600160a01b0319166004556000600555005b346101dc5760003660031901126101dc576006546040516001600160a01b039091168152602090f35b346101dc5760403660031901126101dc576004356001600160401b0381116101dc5761083d90369060040161181a565b60026001541461147e576002600155602435421161122457801561146c576003546040516370a0823160e01b81523060048201526001600160a01b0390911692602082602481875afa9182156109ce57600092611438575b5060009260005b818110610a975750506040516370a0823160e01b8152306004820152919050602082602481875afa80156109ce57600090610a63575b6108dc92506118fe565b918215610a515760075480840290848204036106385761271090049161090283856118fe565b92806109da575b60405163a9059cbb60e01b8152336004820152602481018590526020816044816000885af19081156109ce5760009161099f575b501561098d576020946040519283528583015260408201528260608201527fc5f91541570ee410396e78fff4d3ef181d35ec6e43cc346f958f4fe06b56c47260803392a360018055604051908152f35b6040516312171d8360e31b8152600490fd5b6109c1915060203d6020116109c7575b6109b981836118ba565b81019061190b565b8661093d565b503d6109af565b6040513d6000823e3d90fd5b60065460405163a9059cbb60e01b81526001600160a01b039091166004820152602481018290526020816044816000885af19081156109ce57600091610a32575b50610909576040516312171d8360e31b8152600490fd5b610a4b915060203d6020116109c7576109b981836118ba565b86610a1b565b60405163bb2875c360e01b8152600490fd5b506020823d602011610a8f575b81610a7d602093836118ba565b810103126101dc576108dc91516108d2565b3d9150610a70565b61017e19833603018160051b84013512156101dc576001600160a01b03610ac6600583901b85013585016118ea565b161580156113f2575b80156113cf575b6113bd5760208160051b8401358401013515610fd6576001600160a01b03610b06600583901b85013585016118ea565b166040516370a0823160e01b8152306004820152602081602481855afa9081156109ce5760009161138b575b50600583901b850135850160e0810190610b4d908290611923565b15905061123f57600584901b860135860160c001358015611236575b610b8c610b7d8660051b89013589016118ea565b928660051b8901358901611923565b92909180421161122457600160ff60a08960051b8c01358c010135161b336000526002602052604060002060a08960051b8c01358c01013560081c6000526020526040600020818154188091551615611212576040519160208301907f618358ac3db8dc274f0cd8829da7e234bd48cd73c4a740aede1adec9846d06a1825260018060a01b0316604084015260609260208960051b8c01358c01013584820152838152610c388161189f565b51902091604051927f939c21a48a8dbe3a9a2404a1d46691e4d39f6583d6ec6b35714604c986d8010660208501526040840152309083015260a08760051b8a01358a010135608083015260a082015260a081528060c08101106001600160401b0360c0830111176111fc5760c0810160405260c0815160208301209160e081019261190160f01b84527f000000000000000000000000000000000000000000000000000000000000000060e2830152610102820152604282820152610cfe82820161189f565b01519020610d0b83611955565b90610d1960405192836118ba565b83825236848401116101dc576000602085610d4896610d3f968387013784010152611970565b90929192611a3c565b336001600160a01b03909116036111ea576040516323b872dd60e01b81523360048201523060248201526020600585901b87013587018101356044830152816064816000875af19081156109ce576000916111cb575b501561098d575b6040516370a0823160e01b815230600482015290602082602481865afa80156109ce57600090611197575b610dda92506118fe565b90600260608460051b8701358701013510156101dc5760608360051b860135860101351560001461114f5760405163095ea7b360e01b81526001600160a01b037f0000000000000000000000000000000000000000000000000000000000000000166004820152602481018390526020816044816000865af180156109ce57611130575b50604051610e6b8161189f565b60038152606036602083013781610e8182611ad8565b52610e8b81611afb565b7f00000000000000000000000000000000000000000000000000000000000000006001600160a01b0316905288610ec182611b0b565b526040516370a0823160e01b8152306004820152906020826024818d5afa9182156109ce576000926110fc575b507f00000000000000000000000000000000000000000000000000000000000000006001600160a01b03163b156101dc576000610f539160405180938192635c11d79560e01b83528b60243591604030928d60051b8101350101358b60048701611b6c565b0381837f00000000000000000000000000000000000000000000000000000000000000006001600160a01b03165af190816110ed575b5061107e575060405163a9059cbb60e01b81523360048201526024810183905290602090829060449082906000905af180156109ce5761105f575b5060005b905b81610ff9575b50610fe4575b610fdf906118db565b61089c565b93610ff1610fdf916118db565b949050610fd6565b6001600160a01b03611013600585901b87013587016118ea565b169060405190815282602082015260608460051b8701358701013560408201527fa2c87abc3341789e0370a7baabed4f58835304c2b16a29536744ad19fcfd2e8460603392a387610fd0565b6110779060203d6020116109c7576109b981836118ba565b5087610fc4565b6040516370a0823160e01b815230600482015291506020826024818c5afa80156109ce576000906110b9575b6110b492506118fe565b610fc8565b506020823d6020116110e5575b816110d3602093836118ba565b810103126101dc576110b491516110aa565b3d91506110c6565b6110f69061188c565b8a610f89565b9091506020813d602011611128575b81611118602093836118ba565b810103126101dc5751908a610eee565b3d915061110b565b6111489060203d6020116109c7576109b981836118ba565b5088610e5e565b600583901b85013585016080013562ffffff811690036101dc5761119190602435908990600586901b8801358801604081013591608090910135908690611ba5565b90610fca565b506020823d6020116111c3575b816111b1602093836118ba565b810103126101dc57610dda9151610dd0565b3d91506111a4565b6111e4915060203d6020116109c7576109b981836118ba565b89610d9e565b604051638baa579f60e01b8152600490fd5b634e487b7160e01b600052604160045260246000fd5b604051633ab3447f60e11b8152600490fd5b604051631ab7da6b60e01b8152600490fd5b50602435610b69565b506101008360051b860135860101356112ce575b6040516323b872dd60e01b81523360048201523060248201526020600585901b87013587018101356044830152816064816000875af19081156109ce576000916112af575b50610da5576040516312171d8360e31b8152600490fd5b6112c8915060203d6020116109c7576109b981836118ba565b89611298565b6001600160a01b036112e8600585901b87013587016118ea565b166101208460051b8701358701013560ff811681036101dc57813b156101dc5760405163d505accf60e01b8152336004820152306024820152600586901b880135880160208101356044830152610100810135606483015260ff92909216608482015261014082013560a48201526101609091013560c482015290600090829060e490829084905af161137c575b50611253565b6113859061188c565b88611376565b90506020813d6020116113b5575b816113a6602093836118ba565b810103126101dc575188610b32565b3d9150611399565b60405163c1ab6dc160e01b8152600490fd5b50856001600160a01b036113eb600584901b86013586016118ea565b1614610ad6565b506114048160051b84013584016118ea565b7f00000000000000000000000000000000000000000000000000000000000000006001600160a01b03908116911614610acf565b9091506020813d602011611464575b81611454602093836118ba565b810103126101dc57519084610895565b3d9150611447565b6040516386724c7f60e01b8152600490fd5b604051633ee5aeb560e01b8152600490fd5b346101dc5760003660031901126101dc5760206040517f00000000000000000000000000000000000000000000000000000000000000008152f35b346101dc5760403660031901126101dc57600435602435336000526002602052604060002082600052602052604060002081815417905560405191825260208201527f8bde7bf9be24658f5c1d48843fb04034cae6c6ceacf23b0cf97b724e4cdc599f60403392a2005b346101dc5760403660031901126101dc576004356001600160401b0381116101dc5761156590369060040161181a565b906024356001600160401b0381116101dc5761158590369060040161181a565b90938184036117e6575061159883611ac1565b936115a660405195866118ba565b838552601f196115b585611ac1565b013660208701376003546001600160a01b031660005b858110611618578660405180916020820160208352815180915260206040840192019060005b8181106115ff575050500390f35b82518452859450602093840193909201916001016115f1565b6116ca90600060405161162a8161189f565b600381526060366020830137611649611644848b8b612097565b6118ea565b61165282611ad8565b6001600160a01b0391821690527f00000000000000000000000000000000000000000000000000000000000000001661168a82611afb565b528461169582611b0b565b526116a1838888612097565b35604051948592839263d06ca61f60e01b84526004840152604060248401526044830190611b2f565b03817f00000000000000000000000000000000000000000000000000000000000000006001600160a01b03165afa80600091611736575b61171d935061172257506000611717828a611b1b565b526118db565b6115cb565b61172b90611b0b565b51611717828a611b1b565b919290503d806000833e61174a81836118ba565b60208282810103126101dc578151916001600160401b0383116101dc57818101601f8483010112156101dc57828101519061178482611ac1565b9361179260405195866118ba565b8285526020850193820160208460051b8385010101116101dc57602081830101935b60208460051b838501010185106117d65750505050509061171d929190611701565b84518152602094850194016117b4565b62461bcd60e51b815260206004820152600f60248201526e098cadccee8d040dad2e6dac2e8c6d608b1b6044820152606490fd5b9181601f840112156101dc578235916001600160401b0383116101dc576020808501948460051b0101116101dc57565b600435906001600160a01b03821682036101dc57565b6000546001600160a01b0316330361187457565b60405163118cdaa760e01b8152336004820152602490fd5b6001600160401b0381116111fc57604052565b608081019081106001600160401b038211176111fc57604052565b90601f801991011681019081106001600160401b038211176111fc57604052565b60001981146106385760010190565b356001600160a01b03811681036101dc5790565b9190820391821161063857565b908160209103126101dc575180151581036101dc5790565b903590601e19813603018212156101dc57018035906001600160401b0382116101dc576020019181360383136101dc57565b6001600160401b0381116111fc57601f01601f191660200190565b81519190604183036119a15761199a92506020820151906060604084015193015160001a906119ac565b9192909190565b505060009160029190565b91907f7fffffffffffffffffffffffffffffff5d576e7357a4501ddfe92f46681b20a08411611a3057926020929160ff608095604051948552168484015260408301526060820152600092839182805260015afa15611a245780516001600160a01b03811615611a1b57918190565b50809160019190565b604051903d90823e3d90fd5b50505060009160039190565b6004811015611aab5780611a4e575050565b60018103611a685760405163f645eedf60e01b8152600490fd5b60028103611a895760405163fce698f760e01b815260048101839052602490fd5b600314611a935750565b602490604051906335e2f38360e21b82526004820152fd5b634e487b7160e01b600052602160045260246000fd5b6001600160401b0381116111fc5760051b60200190565b805115611ae55760200190565b634e487b7160e01b600052603260045260246000fd5b805160011015611ae55760400190565b805160021015611ae55760600190565b8051821015611ae55760209160051b010190565b90815180825260208080930193019160005b828110611b4f575050505090565b83516001600160a01b031685529381019392810192600101611b41565b9192608093611b9192979695978452602084015260a0604084015260a0830190611b2f565b6001600160a01b0390951660608201520152565b6040805163095ea7b360e01b81526001600160a01b037f0000000000000000000000000000000000000000000000000000000000000000811660048301526024820185905297989760009792969316949192906020816044818b8a5af1801561208d5761206e575b508551986001600160401b039260e08b018481118c82101761205a579062ffffff918952878c5260018060a01b037f00000000000000000000000000000000000000000000000000000000000000001660208d015216878b01523060608b01528460808b01528760a08b01528760c08b01528651996304e45aaf60e01b8b5260018060a01b0381511660048c015260018060a01b0360208201511660248c015262ffffff888201511660448c015260018060a01b0360608201511660648c0152608081015160848c015260a081015160a48c015260c060018060a01b039101511660c48b015260208a60e4818b60018060a01b037f0000000000000000000000000000000000000000000000000000000000000000165af180899161201f575b899a9b5015600014611d9c575050855163a9059cbb60e01b81523360048201526024810194909452509194602093869350604492508391905af1908115611d935750611d77575090565b611d8f9060203d6020116109c7576109b981836118ba565b5090565b513d84823e3d90fd5b929695509296509250801561201657835163095ea7b360e01b81527f00000000000000000000000000000000000000000000000000000000000000006001600160a01b0316600482018190526024820183905290602081806044810103818c7f00000000000000000000000000000000000000000000000000000000000000006001600160a01b03165af1801561200c57611fed575b508451956060870190811187821017611fd957855260028652843660208801377f00000000000000000000000000000000000000000000000000000000000000006001600160a01b0316611e8587611ad8565b52611e8f86611afb565b6001600160a01b039097169687905284516370a0823160e01b808252306004830152909690946020886024818c5afa978815611fcf578a98611f9b575b50823b15611f9757908980949392611efb895197889687958694635c11d79560e01b8652309260048701611b6c565b03925af19081611f84575b50611f12575050505090565b60209060248394959693518097819382523060048301525afa918215611f7a575090611f46575b611f4392506118fe565b90565b506020823d602011611f72575b81611f60602093836118ba565b810103126101dc57611f439151611f39565b3d9150611f53565b51903d90823e3d90fd5b611f909096919661188c565b9438611f06565b8980fd5b9097506020813d602011611fc7575b81611fb7602093836118ba565b81010312611f9757519638611ecc565b3d9150611faa565b87513d8c823e3d90fd5b634e487b7160e01b89526041600452602489fd5b6120059060203d6020116109c7576109b981836118ba565b5038611e32565b86513d8b823e3d90fd5b50505050505090565b905060208b3d602011612052575b8161203a602093836118ba565b8101031261204e57995198998a9990611d2d565b8880fd5b3d915061202d565b634e487b7160e01b8a52604160045260248afd5b6120869060203d6020116109c7576109b981836118ba565b5038611c0d565b87513d8a823e3d90fd5b9190811015611ae55760051b0190565b8115612163576001600160a01b0390811680612101575060008080809481948254165af1903d156120fb573d906120dd82611955565b916120eb60405193846118ba565b825260203d92013e5b1561098d57565b506120f4565b6000805460405163a9059cbb60e01b815293166001600160a01b031660048401526024830193909352909160209183918290816044810103925af180156109ce576121495750565b6121609060203d81116109c7576109b981836118ba565b50565b505056fea2646970667358221220b55ad2633f6abbfab07c451d775dfef3cb8e3c88b6f9be675248d2b709ad667564736f6c63430008140033","opcodes":"PUSH2 0x100 PUSH1 0x40 DUP2 DUP2 MSTORE CALLVALUE PUSH3 0x33D JUMPI PUSH1 0xA0 DUP3 PUSH3 0x252F DUP1 CODESIZE SUB DUP1 SWAP2 PUSH3 0x25 DUP3 DUP6 PUSH3 0x342 JUMP JUMPDEST DUP4 CODECOPY DUP2 ADD SUB SLT PUSH3 0x33D JUMPI PUSH3 0x3B DUP3 PUSH3 0x37C JUMP JUMPDEST PUSH1 0x20 SWAP1 PUSH3 0x4B DUP3 DUP6 ADD PUSH3 0x37C JUMP JUMPDEST PUSH3 0x58 DUP5 DUP7 ADD PUSH3 0x37C JUMP JUMPDEST SWAP5 PUSH1 0x80 PUSH3 0x69 PUSH1 0x60 DUP4 ADD PUSH3 0x37C JUMP JUMPDEST SWAP2 ADD MLOAD SWAP3 CALLER ISZERO PUSH3 0x325 JUMPI PUSH1 0x0 DUP1 SLOAD CALLER PUSH1 0x1 PUSH1 0x1 PUSH1 0xA0 SHL SUB NOT DUP1 DUP4 AND DUP3 OR DUP5 SSTORE DUP10 MLOAD SWAP4 SWAP11 SWAP1 SWAP6 PUSH1 0x1 PUSH1 0x1 PUSH1 0xA0 SHL SUB SWAP6 SWAP2 SWAP5 SWAP4 SWAP1 SWAP3 DUP7 SWAP3 SWAP2 DUP4 AND PUSH32 0x8BE0079C531659141344CD1FD0A4F28419497F9722A3DAAFE3B4186F6B6457E0 DUP15 DUP1 LOG3 PUSH1 0x1 DUP1 SSTORE AND SWAP2 DUP3 ISZERO DUP1 ISZERO PUSH3 0x31A JUMPI JUMPDEST PUSH3 0x30B JUMPI POP DUP4 AND SWAP5 DUP6 ISZERO PUSH3 0x2FA JUMPI PUSH2 0x1388 DUP8 GT PUSH3 0x2E9 JUMPI DUP2 DUP5 DUP10 SWAP3 PUSH1 0x4 SWAP5 PUSH1 0x80 MSTORE AND PUSH1 0xA0 MSTORE DUP10 MLOAD SWAP3 DUP4 DUP1 SWAP3 PUSH4 0x15AB88C9 PUSH1 0xE3 SHL DUP3 MSTORE GAS STATICCALL SWAP2 DUP3 ISZERO PUSH3 0x2DF JUMPI DUP4 SWAP2 DUP11 SWAP4 PUSH3 0x299 JUMPI JUMPDEST POP DUP3 PUSH1 0xC0 MSTORE AND SWAP2 DUP3 ISZERO SWAP2 DUP3 ISZERO PUSH3 0x28C JUMPI JUMPDEST POP POP PUSH3 0x27C JUMPI DUP2 PUSH1 0x3 SLOAD AND OR PUSH1 0x3 SSTORE PUSH1 0x6 SLOAD AND OR PUSH1 0x6 SSTORE PUSH1 0x7 SSTORE DUP2 MLOAD SWAP1 DUP2 ADD SWAP2 PUSH32 0x8CAD95687BA82C2CE50E74F7B754645E5117C3A5BEC8151C0726D5857980A866 DUP4 MSTORE PUSH32 0xBB9EF1C19D254C3A436BDA7CBD5EE057A57E19A2190E5C8796CEE57C173C5FD6 DUP2 DUP4 ADD MSTORE CHAINID PUSH1 0x60 DUP4 ADD MSTORE ADDRESS PUSH1 0x80 DUP4 ADD MSTORE PUSH1 0x80 DUP3 MSTORE PUSH1 0xA0 DUP3 ADD SWAP4 DUP3 DUP6 LT PUSH1 0x1 DUP1 PUSH1 0x40 SHL SUB DUP7 GT OR PUSH3 0x268 JUMPI POP DUP4 SWAP1 MSTORE MLOAD SWAP1 KECCAK256 PUSH1 0xE0 MSTORE PUSH2 0x219D SWAP1 DUP2 PUSH3 0x392 DUP3 CODECOPY PUSH1 0x80 MLOAD DUP2 DUP2 DUP2 PUSH2 0x333 ADD MSTORE DUP2 DUP2 PUSH2 0xE1C ADD MSTORE DUP2 DUP2 PUSH2 0xEF1 ADD MSTORE DUP2 DUP2 PUSH2 0xF58 ADD MSTORE DUP2 DUP2 PUSH2 0x16CE ADD MSTORE PUSH2 0x1DB9 ADD MSTORE PUSH1 0xA0 MLOAD DUP2 DUP2 DUP2 PUSH2 0x296 ADD MSTORE DUP2 DUP2 PUSH2 0x1BBD ADD MSTORE PUSH2 0x1D03 ADD MSTORE PUSH1 0xC0 MLOAD DUP2 DUP2 DUP2 PUSH2 0x414 ADD MSTORE DUP2 DUP2 PUSH2 0x663 ADD MSTORE DUP2 DUP2 PUSH2 0xE8D ADD MSTORE DUP2 DUP2 PUSH2 0x1406 ADD MSTORE DUP2 DUP2 PUSH2 0x1661 ADD MSTORE DUP2 DUP2 PUSH2 0x1C3D ADD MSTORE DUP2 DUP2 PUSH2 0x1DFD ADD MSTORE PUSH2 0x1E54 ADD MSTORE PUSH1 0xE0 MLOAD DUP2 DUP2 DUP2 PUSH2 0xCC3 ADD MSTORE PUSH2 0x14A8 ADD MSTORE RETURN JUMPDEST PUSH4 0x4E487B71 PUSH1 0xE0 SHL DUP2 MSTORE PUSH1 0x41 PUSH1 0x4 MSTORE PUSH1 0x24 SWAP1 REVERT JUMPDEST DUP6 MLOAD PUSH3 0x310101 PUSH1 0xE5 SHL DUP2 MSTORE PUSH1 0x4 SWAP1 REVERT JUMPDEST AND DUP3 EQ SWAP1 POP CODESIZE DUP1 PUSH3 0x134 JUMP JUMPDEST DUP9 DUP1 SWAP3 SWAP5 POP DUP2 SWAP4 POP RETURNDATASIZE DUP4 GT PUSH3 0x2D7 JUMPI JUMPDEST PUSH3 0x2B6 DUP2 DUP4 PUSH3 0x342 JUMP JUMPDEST DUP2 ADD SUB SLT PUSH3 0x2D3 JUMPI PUSH3 0x2CB DUP4 SWAP2 PUSH3 0x37C JUMP JUMPDEST SWAP2 CODESIZE PUSH3 0x122 JUMP JUMPDEST DUP9 DUP1 REVERT JUMPDEST POP RETURNDATASIZE PUSH3 0x2AA JUMP JUMPDEST DUP9 MLOAD RETURNDATASIZE DUP12 DUP3 RETURNDATACOPY RETURNDATASIZE SWAP1 REVERT JUMPDEST DUP9 MLOAD PUSH4 0xCD4E6167 PUSH1 0xE0 SHL DUP2 MSTORE PUSH1 0x4 SWAP1 REVERT JUMPDEST DUP9 MLOAD PUSH4 0xED1B8B3 PUSH1 0xE3 SHL DUP2 MSTORE PUSH1 0x4 SWAP1 REVERT JUMPDEST PUSH4 0x466D7FEF PUSH1 0xE0 SHL DUP2 MSTORE PUSH1 0x4 SWAP1 REVERT JUMPDEST POP DUP5 DUP8 AND ISZERO PUSH3 0xD6 JUMP JUMPDEST DUP6 MLOAD PUSH4 0x1E4FBDF7 PUSH1 0xE0 SHL DUP2 MSTORE PUSH1 0x0 PUSH1 0x4 DUP3 ADD MSTORE PUSH1 0x24 SWAP1 REVERT JUMPDEST PUSH1 0x0 DUP1 REVERT JUMPDEST PUSH1 0x1F SWAP1 SWAP2 ADD PUSH1 0x1F NOT AND DUP2 ADD SWAP1 PUSH1 0x1 PUSH1 0x1 PUSH1 0x40 SHL SUB DUP3 GT SWAP1 DUP3 LT OR PUSH3 0x366 JUMPI PUSH1 0x40 MSTORE JUMP JUMPDEST PUSH4 0x4E487B71 PUSH1 0xE0 SHL PUSH1 0x0 MSTORE PUSH1 0x41 PUSH1 0x4 MSTORE PUSH1 0x24 PUSH1 0x0 REVERT JUMPDEST MLOAD SWAP1 PUSH1 0x1 PUSH1 0x1 PUSH1 0xA0 SHL SUB DUP3 AND DUP3 SUB PUSH3 0x33D JUMPI JUMP INVALID PUSH1 0x80 DUP1 PUSH1 0x40 MSTORE PUSH1 0x4 CALLDATASIZE LT ISZERO PUSH2 0x1D JUMPI JUMPDEST POP CALLDATASIZE ISZERO PUSH2 0x1B JUMPI PUSH1 0x0 DUP1 REVERT JUMPDEST STOP JUMPDEST PUSH1 0x0 CALLDATALOAD PUSH1 0xE0 SHR SWAP1 DUP2 PUSH4 0x273EFEE0 EQ PUSH2 0x1535 JUMPI POP DUP1 PUSH4 0x2BCE68D2 EQ PUSH2 0x14CB JUMPI DUP1 PUSH4 0x3644E515 EQ PUSH2 0x1490 JUMPI DUP1 PUSH4 0x413510EA EQ PUSH2 0x80D JUMPI DUP1 PUSH4 0x46904840 EQ PUSH2 0x7E4 JUMPI DUP1 PUSH4 0x49FCF0E4 EQ PUSH2 0x77F JUMPI DUP1 PUSH4 0x4FE02B44 EQ PUSH2 0x737 JUMPI DUP1 PUSH4 0x50FD70C4 EQ PUSH2 0x68B JUMPI DUP1 PUSH4 0x6078AF92 EQ PUSH2 0x5AA JUMPI DUP1 PUSH4 0x696C11E5 EQ PUSH2 0x56F JUMPI DUP1 PUSH4 0x69FE0E2D EQ PUSH2 0x501 JUMPI DUP1 PUSH4 0x6A19C9C7 EQ PUSH2 0x4E3 JUMPI DUP1 PUSH4 0x715018A6 EQ PUSH2 0x48A JUMPI DUP1 PUSH4 0x8ABDF5AA EQ PUSH2 0x46C JUMPI DUP1 PUSH4 0x8DA5CB5B EQ PUSH2 0x443 JUMPI DUP1 PUSH4 0x8DD95002 EQ PUSH2 0x3FE JUMPI DUP1 PUSH4 0x901A5402 EQ PUSH2 0x3D5 JUMPI DUP1 PUSH4 0x95CCEA67 EQ PUSH2 0x3A8 JUMPI DUP1 PUSH4 0xBC063E1A EQ PUSH2 0x38B JUMPI DUP1 PUSH4 0xC1D8D1D9 EQ PUSH2 0x362 JUMPI DUP1 PUSH4 0xD20CCDC2 EQ PUSH2 0x31D JUMPI DUP1 PUSH4 0xD73792A9 EQ PUSH2 0x300 JUMPI DUP1 PUSH4 0xE0555801 EQ PUSH2 0x2C5 JUMPI DUP1 PUSH4 0xE47AAF6D EQ PUSH2 0x280 JUMPI DUP1 PUSH4 0xE74B981B EQ PUSH2 0x1FF JUMPI DUP1 PUSH4 0xED56DAC9 EQ PUSH2 0x1E1 JUMPI PUSH4 0xF2FDE38B EQ PUSH2 0x153 JUMPI CODESIZE PUSH2 0xF JUMP JUMPDEST CALLVALUE PUSH2 0x1DC JUMPI PUSH1 0x20 CALLDATASIZE PUSH1 0x3 NOT ADD SLT PUSH2 0x1DC JUMPI PUSH2 0x16C PUSH2 0x184A JUMP JUMPDEST PUSH2 0x174 PUSH2 0x1860 JUMP JUMPDEST PUSH1 0x1 PUSH1 0x1 PUSH1 0xA0 SHL SUB SWAP1 DUP2 AND SWAP1 DUP2 ISZERO PUSH2 0x1C3 JUMPI PUSH1 0x0 SLOAD DUP3 PUSH1 0x1 PUSH1 0x1 PUSH1 0x60 SHL SUB PUSH1 0xA0 SHL DUP3 AND OR PUSH1 0x0 SSTORE AND PUSH32 0x8BE0079C531659141344CD1FD0A4F28419497F9722A3DAAFE3B4186F6B6457E0 PUSH1 0x0 DUP1 LOG3 STOP JUMPDEST PUSH1 0x40 MLOAD PUSH4 0x1E4FBDF7 PUSH1 0xE0 SHL DUP2 MSTORE PUSH1 0x0 PUSH1 0x4 DUP3 ADD MSTORE PUSH1 0x24 SWAP1 REVERT JUMPDEST PUSH1 0x0 DUP1 REVERT JUMPDEST CALLVALUE PUSH2 0x1DC JUMPI PUSH1 0x0 CALLDATASIZE PUSH1 0x3 NOT ADD SLT PUSH2 0x1DC JUMPI PUSH1 0x20 PUSH1 0x40 MLOAD PUSH3 0x2A300 DUP2 MSTORE RETURN JUMPDEST CALLVALUE PUSH2 0x1DC JUMPI PUSH1 0x20 CALLDATASIZE PUSH1 0x3 NOT ADD SLT PUSH2 0x1DC JUMPI PUSH2 0x218 PUSH2 0x184A JUMP JUMPDEST PUSH2 0x220 PUSH2 0x1860 JUMP JUMPDEST PUSH1 0x1 PUSH1 0x1 PUSH1 0xA0 SHL SUB SWAP1 DUP2 AND SWAP1 DUP2 ISZERO PUSH2 0x26E JUMPI DUP2 PUSH1 0x6 SLOAD SWAP2 DUP3 AND PUSH32 0xAAEBCF1BFA00580E41D966056B48521FA9F202645C86D4DDF28113E617C1B1D3 PUSH1 0x0 DUP1 LOG3 PUSH1 0x1 PUSH1 0x1 PUSH1 0xA0 SHL SUB NOT AND OR PUSH1 0x6 SSTORE STOP JUMPDEST PUSH1 0x40 MLOAD PUSH4 0xED1B8B3 PUSH1 0xE3 SHL DUP2 MSTORE PUSH1 0x4 SWAP1 REVERT JUMPDEST CALLVALUE PUSH2 0x1DC JUMPI PUSH1 0x0 CALLDATASIZE PUSH1 0x3 NOT ADD SLT PUSH2 0x1DC JUMPI PUSH1 0x40 MLOAD PUSH32 0x0 PUSH1 0x1 PUSH1 0x1 PUSH1 0xA0 SHL SUB AND DUP2 MSTORE PUSH1 0x20 SWAP1 RETURN JUMPDEST CALLVALUE PUSH2 0x1DC JUMPI PUSH1 0x0 CALLDATASIZE PUSH1 0x3 NOT ADD SLT PUSH2 0x1DC JUMPI PUSH1 0x20 PUSH1 0x40 MLOAD PUSH32 0x939C21A48A8DBE3A9A2404A1D46691E4D39F6583D6EC6B35714604C986D80106 DUP2 MSTORE RETURN JUMPDEST CALLVALUE PUSH2 0x1DC JUMPI PUSH1 0x0 CALLDATASIZE PUSH1 0x3 NOT ADD SLT PUSH2 0x1DC JUMPI PUSH1 0x20 PUSH1 0x40 MLOAD PUSH2 0x2710 DUP2 MSTORE RETURN JUMPDEST CALLVALUE PUSH2 0x1DC JUMPI PUSH1 0x0 CALLDATASIZE PUSH1 0x3 NOT ADD SLT PUSH2 0x1DC JUMPI PUSH1 0x40 MLOAD PUSH32 0x0 PUSH1 0x1 PUSH1 0x1 PUSH1 0xA0 SHL SUB AND DUP2 MSTORE PUSH1 0x20 SWAP1 RETURN JUMPDEST CALLVALUE PUSH2 0x1DC JUMPI PUSH1 0x0 CALLDATASIZE PUSH1 0x3 NOT ADD SLT PUSH2 0x1DC JUMPI PUSH1 0x3 SLOAD PUSH1 0x40 MLOAD PUSH1 0x1 PUSH1 0x1 PUSH1 0xA0 SHL SUB SWAP1 SWAP2 AND DUP2 MSTORE PUSH1 0x20 SWAP1 RETURN JUMPDEST CALLVALUE PUSH2 0x1DC JUMPI PUSH1 0x0 CALLDATASIZE PUSH1 0x3 NOT ADD SLT PUSH2 0x1DC JUMPI PUSH1 0x20 PUSH1 0x40 MLOAD PUSH2 0x1388 DUP2 MSTORE RETURN JUMPDEST CALLVALUE PUSH2 0x1DC JUMPI PUSH1 0x40 CALLDATASIZE PUSH1 0x3 NOT ADD SLT PUSH2 0x1DC JUMPI PUSH2 0x1B PUSH2 0x3C4 PUSH2 0x184A JUMP JUMPDEST PUSH2 0x3CC PUSH2 0x1860 JUMP JUMPDEST PUSH1 0x24 CALLDATALOAD SWAP1 PUSH2 0x20A7 JUMP JUMPDEST CALLVALUE PUSH2 0x1DC JUMPI PUSH1 0x0 CALLDATASIZE PUSH1 0x3 NOT ADD SLT PUSH2 0x1DC JUMPI PUSH1 0x4 SLOAD PUSH1 0x40 MLOAD PUSH1 0x1 PUSH1 0x1 PUSH1 0xA0 SHL SUB SWAP1 SWAP2 AND DUP2 MSTORE PUSH1 0x20 SWAP1 RETURN JUMPDEST CALLVALUE PUSH2 0x1DC JUMPI PUSH1 0x0 CALLDATASIZE PUSH1 0x3 NOT ADD SLT PUSH2 0x1DC JUMPI PUSH1 0x40 MLOAD PUSH32 0x0 PUSH1 0x1 PUSH1 0x1 PUSH1 0xA0 SHL SUB AND DUP2 MSTORE PUSH1 0x20 SWAP1 RETURN JUMPDEST CALLVALUE PUSH2 0x1DC JUMPI PUSH1 0x0 CALLDATASIZE PUSH1 0x3 NOT ADD SLT PUSH2 0x1DC JUMPI PUSH1 0x0 SLOAD PUSH1 0x40 MLOAD PUSH1 0x1 PUSH1 0x1 PUSH1 0xA0 SHL SUB SWAP1 SWAP2 AND DUP2 MSTORE PUSH1 0x20 SWAP1 RETURN JUMPDEST CALLVALUE PUSH2 0x1DC JUMPI PUSH1 0x0 CALLDATASIZE PUSH1 0x3 NOT ADD SLT PUSH2 0x1DC JUMPI PUSH1 0x20 PUSH1 0x7 SLOAD PUSH1 0x40 MLOAD SWAP1 DUP2 MSTORE RETURN JUMPDEST CALLVALUE PUSH2 0x1DC JUMPI PUSH1 0x0 CALLDATASIZE PUSH1 0x3 NOT ADD SLT PUSH2 0x1DC JUMPI PUSH2 0x4A3 PUSH2 0x1860 JUMP JUMPDEST PUSH1 0x0 DUP1 SLOAD PUSH1 0x1 PUSH1 0x1 PUSH1 0xA0 SHL SUB NOT DUP2 AND DUP3 SSTORE PUSH1 0x1 PUSH1 0x1 PUSH1 0xA0 SHL SUB AND PUSH32 0x8BE0079C531659141344CD1FD0A4F28419497F9722A3DAAFE3B4186F6B6457E0 DUP3 DUP1 LOG3 STOP JUMPDEST CALLVALUE PUSH2 0x1DC JUMPI PUSH1 0x0 CALLDATASIZE PUSH1 0x3 NOT ADD SLT PUSH2 0x1DC JUMPI PUSH1 0x20 PUSH1 0x5 SLOAD PUSH1 0x40 MLOAD SWAP1 DUP2 MSTORE RETURN JUMPDEST CALLVALUE PUSH2 0x1DC JUMPI PUSH1 0x20 CALLDATASIZE PUSH1 0x3 NOT ADD SLT PUSH2 0x1DC JUMPI PUSH1 0x4 CALLDATALOAD PUSH2 0x51D PUSH2 0x1860 JUMP JUMPDEST PUSH2 0x1388 DUP2 GT PUSH2 0x55D JUMPI PUSH32 0x528D9479E9F9889A87A3C30C7F7BA537E5E59C4C85A37733B16E57C62DF61302 PUSH1 0x40 PUSH1 0x7 SLOAD DUP2 MLOAD SWAP1 DUP2 MSTORE DUP4 PUSH1 0x20 DUP3 ADD MSTORE LOG1 PUSH1 0x7 SSTORE STOP JUMPDEST PUSH1 0x40 MLOAD PUSH4 0xCD4E6167 PUSH1 0xE0 SHL DUP2 MSTORE PUSH1 0x4 SWAP1 REVERT JUMPDEST CALLVALUE PUSH2 0x1DC JUMPI PUSH1 0x0 CALLDATASIZE PUSH1 0x3 NOT ADD SLT PUSH2 0x1DC JUMPI PUSH1 0x20 PUSH1 0x40 MLOAD PUSH32 0x618358AC3DB8DC274F0CD8829DA7E234BD48CD73C4A740AEDE1ADEC9846D06A1 DUP2 MSTORE RETURN JUMPDEST CALLVALUE PUSH2 0x1DC JUMPI PUSH1 0x20 CALLDATASIZE PUSH1 0x3 NOT ADD SLT PUSH2 0x1DC JUMPI PUSH2 0x5C3 PUSH2 0x184A JUMP JUMPDEST PUSH2 0x5CB PUSH2 0x1860 JUMP JUMPDEST PUSH1 0x1 PUSH1 0x1 PUSH1 0xA0 SHL SUB SWAP1 DUP2 AND SWAP1 DUP2 ISZERO SWAP1 DUP2 ISZERO PUSH2 0x65F JUMPI JUMPDEST POP PUSH2 0x64E JUMPI DUP1 PUSH1 0x1 PUSH1 0x1 PUSH1 0x60 SHL SUB PUSH1 0xA0 SHL PUSH1 0x4 SLOAD AND OR PUSH1 0x4 SSTORE PUSH3 0x2A300 TIMESTAMP ADD DUP1 TIMESTAMP GT PUSH2 0x638 JUMPI PUSH1 0x20 DUP2 PUSH32 0x29DE7BA5CD5CA8E6F6A34F38A4B954ECABE1538AE30BB80E43569719B04A111E SWAP3 PUSH1 0x5 SSTORE PUSH1 0x40 MLOAD SWAP1 DUP2 MSTORE LOG2 STOP JUMPDEST PUSH4 0x4E487B71 PUSH1 0xE0 SHL PUSH1 0x0 MSTORE PUSH1 0x11 PUSH1 0x4 MSTORE PUSH1 0x24 PUSH1 0x0 REVERT JUMPDEST PUSH1 0x40 MLOAD PUSH3 0x310101 PUSH1 0xE5 SHL DUP2 MSTORE PUSH1 0x4 SWAP1 REVERT JUMPDEST SWAP1 POP PUSH32 0x0 AND DUP2 EQ DUP3 PUSH2 0x5E1 JUMP JUMPDEST CALLVALUE PUSH2 0x1DC JUMPI PUSH1 0x0 CALLDATASIZE PUSH1 0x3 NOT ADD SLT PUSH2 0x1DC JUMPI PUSH2 0x6A4 PUSH2 0x1860 JUMP JUMPDEST PUSH1 0x4 SLOAD PUSH1 0x1 PUSH1 0x1 PUSH1 0xA0 SHL SUB DUP1 DUP3 AND SWAP2 DUP3 ISZERO PUSH2 0x725 JUMPI PUSH1 0x5 SLOAD DUP1 TIMESTAMP LT PUSH2 0x70D JUMPI POP PUSH1 0x3 SLOAD SWAP1 PUSH1 0x1 PUSH1 0x1 PUSH1 0x60 SHL SUB PUSH1 0xA0 SHL SWAP1 DUP5 DUP3 DUP5 AND OR PUSH1 0x3 SSTORE AND PUSH1 0x4 SSTORE PUSH1 0x0 PUSH1 0x5 SSTORE AND PUSH32 0xFDEF5FA97F9834C3CE5C25F08D33B4E5A200F1055BC73FA7B69CC974C47B7B34 PUSH1 0x0 DUP1 LOG3 STOP JUMPDEST PUSH1 0x24 SWAP1 PUSH1 0x40 MLOAD SWAP1 PUSH4 0x50BA9F29 PUSH1 0xE0 SHL DUP3 MSTORE PUSH1 0x4 DUP3 ADD MSTORE REVERT JUMPDEST PUSH1 0x40 MLOAD PUSH4 0x22FC91FD PUSH1 0xE2 SHL DUP2 MSTORE PUSH1 0x4 SWAP1 REVERT JUMPDEST CALLVALUE PUSH2 0x1DC JUMPI PUSH1 0x40 CALLDATASIZE PUSH1 0x3 NOT ADD SLT PUSH2 0x1DC JUMPI PUSH1 0x1 PUSH1 0x1 PUSH1 0xA0 SHL SUB PUSH2 0x758 PUSH2 0x184A JUMP JUMPDEST AND PUSH1 0x0 MSTORE PUSH1 0x2 PUSH1 0x20 MSTORE PUSH1 0x40 PUSH1 0x0 KECCAK256 PUSH1 0x24 CALLDATALOAD PUSH1 0x0 MSTORE PUSH1 0x20 MSTORE PUSH1 0x20 PUSH1 0x40 PUSH1 0x0 KECCAK256 SLOAD PUSH1 0x40 MLOAD SWAP1 DUP2 MSTORE RETURN JUMPDEST CALLVALUE PUSH2 0x1DC JUMPI PUSH1 0x0 CALLDATASIZE PUSH1 0x3 NOT ADD SLT PUSH2 0x1DC JUMPI PUSH2 0x798 PUSH2 0x1860 JUMP JUMPDEST PUSH1 0x4 SLOAD PUSH1 0x1 PUSH1 0x1 PUSH1 0xA0 SHL SUB DUP2 AND DUP1 ISZERO PUSH2 0x725 JUMPI PUSH32 0x75237797D8AC452994D7896E187CAF611428526B127868F65E5E3B0B721A370 PUSH1 0x0 DUP1 LOG2 PUSH1 0x1 PUSH1 0x1 PUSH1 0xA0 SHL SUB NOT AND PUSH1 0x4 SSTORE PUSH1 0x0 PUSH1 0x5 SSTORE STOP JUMPDEST CALLVALUE PUSH2 0x1DC JUMPI PUSH1 0x0 CALLDATASIZE PUSH1 0x3 NOT ADD SLT PUSH2 0x1DC JUMPI PUSH1 0x6 SLOAD PUSH1 0x40 MLOAD PUSH1 0x1 PUSH1 0x1 PUSH1 0xA0 SHL SUB SWAP1 SWAP2 AND DUP2 MSTORE PUSH1 0x20 SWAP1 RETURN JUMPDEST CALLVALUE PUSH2 0x1DC JUMPI PUSH1 0x40 CALLDATASIZE PUSH1 0x3 NOT ADD SLT PUSH2 0x1DC JUMPI PUSH1 0x4 CALLDATALOAD PUSH1 0x1 PUSH1 0x1 PUSH1 0x40 SHL SUB DUP2 GT PUSH2 0x1DC JUMPI PUSH2 0x83D SWAP1 CALLDATASIZE SWAP1 PUSH1 0x4 ADD PUSH2 0x181A JUMP JUMPDEST PUSH1 0x2 PUSH1 0x1 SLOAD EQ PUSH2 0x147E JUMPI PUSH1 0x2 PUSH1 0x1 SSTORE PUSH1 0x24 CALLDATALOAD TIMESTAMP GT PUSH2 0x1224 JUMPI DUP1 ISZERO PUSH2 0x146C JUMPI PUSH1 0x3 SLOAD PUSH1 0x40 MLOAD PUSH4 0x70A08231 PUSH1 0xE0 SHL DUP2 MSTORE ADDRESS PUSH1 0x4 DUP3 ADD MSTORE PUSH1 0x1 PUSH1 0x1 PUSH1 0xA0 SHL SUB SWAP1 SWAP2 AND SWAP3 PUSH1 0x20 DUP3 PUSH1 0x24 DUP2 DUP8 GAS STATICCALL SWAP2 DUP3 ISZERO PUSH2 0x9CE JUMPI PUSH1 0x0 SWAP3 PUSH2 0x1438 JUMPI JUMPDEST POP PUSH1 0x0 SWAP3 PUSH1 0x0 JUMPDEST DUP2 DUP2 LT PUSH2 0xA97 JUMPI POP POP PUSH1 0x40 MLOAD PUSH4 0x70A08231 PUSH1 0xE0 SHL DUP2 MSTORE ADDRESS PUSH1 0x4 DUP3 ADD MSTORE SWAP2 SWAP1 POP PUSH1 0x20 DUP3 PUSH1 0x24 DUP2 DUP8 GAS STATICCALL DUP1 ISZERO PUSH2 0x9CE JUMPI PUSH1 0x0 SWAP1 PUSH2 0xA63 JUMPI JUMPDEST PUSH2 0x8DC SWAP3 POP PUSH2 0x18FE JUMP JUMPDEST SWAP2 DUP3 ISZERO PUSH2 0xA51 JUMPI PUSH1 0x7 SLOAD DUP1 DUP5 MUL SWAP1 DUP5 DUP3 DIV SUB PUSH2 0x638 JUMPI PUSH2 0x2710 SWAP1 DIV SWAP2 PUSH2 0x902 DUP4 DUP6 PUSH2 0x18FE JUMP JUMPDEST SWAP3 DUP1 PUSH2 0x9DA JUMPI JUMPDEST PUSH1 0x40 MLOAD PUSH4 0xA9059CBB PUSH1 0xE0 SHL DUP2 MSTORE CALLER PUSH1 0x4 DUP3 ADD MSTORE PUSH1 0x24 DUP2 ADD DUP6 SWAP1 MSTORE PUSH1 0x20 DUP2 PUSH1 0x44 DUP2 PUSH1 0x0 DUP9 GAS CALL SWAP1 DUP2 ISZERO PUSH2 0x9CE JUMPI PUSH1 0x0 SWAP2 PUSH2 0x99F JUMPI JUMPDEST POP ISZERO PUSH2 0x98D JUMPI PUSH1 0x20 SWAP5 PUSH1 0x40 MLOAD SWAP3 DUP4 MSTORE DUP6 DUP4 ADD MSTORE PUSH1 0x40 DUP3 ADD MSTORE DUP3 PUSH1 0x60 DUP3 ADD MSTORE PUSH32 0xC5F91541570EE410396E78FFF4D3EF181D35EC6E43CC346F958F4FE06B56C472 PUSH1 0x80 CALLER SWAP3 LOG3 PUSH1 0x1 DUP1 SSTORE PUSH1 0x40 MLOAD SWAP1 DUP2 MSTORE RETURN JUMPDEST PUSH1 0x40 MLOAD PUSH4 0x12171D83 PUSH1 0xE3 SHL DUP2 MSTORE PUSH1 0x4 SWAP1 REVERT JUMPDEST PUSH2 0x9C1 SWAP2 POP PUSH1 0x20 RETURNDATASIZE PUSH1 0x20 GT PUSH2 0x9C7 JUMPI JUMPDEST PUSH2 0x9B9 DUP2 DUP4 PUSH2 0x18BA JUMP JUMPDEST DUP2 ADD SWAP1 PUSH2 0x190B JUMP JUMPDEST DUP7 PUSH2 0x93D JUMP JUMPDEST POP RETURNDATASIZE PUSH2 0x9AF JUMP JUMPDEST PUSH1 0x40 MLOAD RETURNDATASIZE PUSH1 0x0 DUP3 RETURNDATACOPY RETURNDATASIZE SWAP1 REVERT JUMPDEST PUSH1 0x6 SLOAD PUSH1 0x40 MLOAD PUSH4 0xA9059CBB PUSH1 0xE0 SHL DUP2 MSTORE PUSH1 0x1 PUSH1 0x1 PUSH1 0xA0 SHL SUB SWAP1 SWAP2 AND PUSH1 0x4 DUP3 ADD MSTORE PUSH1 0x24 DUP2 ADD DUP3 SWAP1 MSTORE PUSH1 0x20 DUP2 PUSH1 0x44 DUP2 PUSH1 0x0 DUP9 GAS CALL SWAP1 DUP2 ISZERO PUSH2 0x9CE JUMPI PUSH1 0x0 SWAP2 PUSH2 0xA32 JUMPI JUMPDEST POP PUSH2 0x909 JUMPI PUSH1 0x40 MLOAD PUSH4 0x12171D83 PUSH1 0xE3 SHL DUP2 MSTORE PUSH1 0x4 SWAP1 REVERT JUMPDEST PUSH2 0xA4B SWAP2 POP PUSH1 0x20 RETURNDATASIZE PUSH1 0x20 GT PUSH2 0x9C7 JUMPI PUSH2 0x9B9 DUP2 DUP4 PUSH2 0x18BA JUMP JUMPDEST DUP7 PUSH2 0xA1B JUMP JUMPDEST PUSH1 0x40 MLOAD PUSH4 0xBB2875C3 PUSH1 0xE0 SHL DUP2 MSTORE PUSH1 0x4 SWAP1 REVERT JUMPDEST POP PUSH1 0x20 DUP3 RETURNDATASIZE PUSH1 0x20 GT PUSH2 0xA8F JUMPI JUMPDEST DUP2 PUSH2 0xA7D PUSH1 0x20 SWAP4 DUP4 PUSH2 0x18BA JUMP JUMPDEST DUP2 ADD SUB SLT PUSH2 0x1DC JUMPI PUSH2 0x8DC SWAP2 MLOAD PUSH2 0x8D2 JUMP JUMPDEST RETURNDATASIZE SWAP2 POP PUSH2 0xA70 JUMP JUMPDEST PUSH2 0x17E NOT DUP4 CALLDATASIZE SUB ADD DUP2 PUSH1 0x5 SHL DUP5 ADD CALLDATALOAD SLT ISZERO PUSH2 0x1DC JUMPI PUSH1 0x1 PUSH1 0x1 PUSH1 0xA0 SHL SUB PUSH2 0xAC6 PUSH1 0x5 DUP4 SWAP1 SHL DUP6 ADD CALLDATALOAD DUP6 ADD PUSH2 0x18EA JUMP JUMPDEST AND ISZERO DUP1 ISZERO PUSH2 0x13F2 JUMPI JUMPDEST DUP1 ISZERO PUSH2 0x13CF JUMPI JUMPDEST PUSH2 0x13BD JUMPI PUSH1 0x20 DUP2 PUSH1 0x5 SHL DUP5 ADD CALLDATALOAD DUP5 ADD ADD CALLDATALOAD ISZERO PUSH2 0xFD6 JUMPI PUSH1 0x1 PUSH1 0x1 PUSH1 0xA0 SHL SUB PUSH2 0xB06 PUSH1 0x5 DUP4 SWAP1 SHL DUP6 ADD CALLDATALOAD DUP6 ADD PUSH2 0x18EA JUMP JUMPDEST AND PUSH1 0x40 MLOAD PUSH4 0x70A08231 PUSH1 0xE0 SHL DUP2 MSTORE ADDRESS PUSH1 0x4 DUP3 ADD MSTORE PUSH1 0x20 DUP2 PUSH1 0x24 DUP2 DUP6 GAS STATICCALL SWAP1 DUP2 ISZERO PUSH2 0x9CE JUMPI PUSH1 0x0 SWAP2 PUSH2 0x138B JUMPI JUMPDEST POP PUSH1 0x5 DUP4 SWAP1 SHL DUP6 ADD CALLDATALOAD DUP6 ADD PUSH1 0xE0 DUP2 ADD SWAP1 PUSH2 0xB4D SWAP1 DUP3 SWAP1 PUSH2 0x1923 JUMP JUMPDEST ISZERO SWAP1 POP PUSH2 0x123F JUMPI PUSH1 0x5 DUP5 SWAP1 SHL DUP7 ADD CALLDATALOAD DUP7 ADD PUSH1 0xC0 ADD CALLDATALOAD DUP1 ISZERO PUSH2 0x1236 JUMPI JUMPDEST PUSH2 0xB8C PUSH2 0xB7D DUP7 PUSH1 0x5 SHL DUP10 ADD CALLDATALOAD DUP10 ADD PUSH2 0x18EA JUMP JUMPDEST SWAP3 DUP7 PUSH1 0x5 SHL DUP10 ADD CALLDATALOAD DUP10 ADD PUSH2 0x1923 JUMP JUMPDEST SWAP3 SWAP1 SWAP2 DUP1 TIMESTAMP GT PUSH2 0x1224 JUMPI PUSH1 0x1 PUSH1 0xFF PUSH1 0xA0 DUP10 PUSH1 0x5 SHL DUP13 ADD CALLDATALOAD DUP13 ADD ADD CALLDATALOAD AND SHL CALLER PUSH1 0x0 MSTORE PUSH1 0x2 PUSH1 0x20 MSTORE PUSH1 0x40 PUSH1 0x0 KECCAK256 PUSH1 0xA0 DUP10 PUSH1 0x5 SHL DUP13 ADD CALLDATALOAD DUP13 ADD ADD CALLDATALOAD PUSH1 0x8 SHR PUSH1 0x0 MSTORE PUSH1 0x20 MSTORE PUSH1 0x40 PUSH1 0x0 KECCAK256 DUP2 DUP2 SLOAD XOR DUP1 SWAP2 SSTORE AND ISZERO PUSH2 0x1212 JUMPI PUSH1 0x40 MLOAD SWAP2 PUSH1 0x20 DUP4 ADD SWAP1 PUSH32 0x618358AC3DB8DC274F0CD8829DA7E234BD48CD73C4A740AEDE1ADEC9846D06A1 DUP3 MSTORE PUSH1 0x1 DUP1 PUSH1 0xA0 SHL SUB AND PUSH1 0x40 DUP5 ADD MSTORE PUSH1 0x60 SWAP3 PUSH1 0x20 DUP10 PUSH1 0x5 SHL DUP13 ADD CALLDATALOAD DUP13 ADD ADD CALLDATALOAD DUP5 DUP3 ADD MSTORE DUP4 DUP2 MSTORE PUSH2 0xC38 DUP2 PUSH2 0x189F JUMP JUMPDEST MLOAD SWAP1 KECCAK256 SWAP2 PUSH1 0x40 MLOAD SWAP3 PUSH32 0x939C21A48A8DBE3A9A2404A1D46691E4D39F6583D6EC6B35714604C986D80106 PUSH1 0x20 DUP6 ADD MSTORE PUSH1 0x40 DUP5 ADD MSTORE ADDRESS SWAP1 DUP4 ADD MSTORE PUSH1 0xA0 DUP8 PUSH1 0x5 SHL DUP11 ADD CALLDATALOAD DUP11 ADD ADD CALLDATALOAD PUSH1 0x80 DUP4 ADD MSTORE PUSH1 0xA0 DUP3 ADD MSTORE PUSH1 0xA0 DUP2 MSTORE DUP1 PUSH1 0xC0 DUP2 ADD LT PUSH1 0x1 PUSH1 0x1 PUSH1 0x40 SHL SUB PUSH1 0xC0 DUP4 ADD GT OR PUSH2 0x11FC JUMPI PUSH1 0xC0 DUP2 ADD PUSH1 0x40 MSTORE PUSH1 0xC0 DUP2 MLOAD PUSH1 0x20 DUP4 ADD KECCAK256 SWAP2 PUSH1 0xE0 DUP2 ADD SWAP3 PUSH2 0x1901 PUSH1 0xF0 SHL DUP5 MSTORE PUSH32 0x0 PUSH1 0xE2 DUP4 ADD MSTORE PUSH2 0x102 DUP3 ADD MSTORE PUSH1 0x42 DUP3 DUP3 ADD MSTORE PUSH2 0xCFE DUP3 DUP3 ADD PUSH2 0x189F JUMP JUMPDEST ADD MLOAD SWAP1 KECCAK256 PUSH2 0xD0B DUP4 PUSH2 0x1955 JUMP JUMPDEST SWAP1 PUSH2 0xD19 PUSH1 0x40 MLOAD SWAP3 DUP4 PUSH2 0x18BA JUMP JUMPDEST DUP4 DUP3 MSTORE CALLDATASIZE DUP5 DUP5 ADD GT PUSH2 0x1DC JUMPI PUSH1 0x0 PUSH1 0x20 DUP6 PUSH2 0xD48 SWAP7 PUSH2 0xD3F SWAP7 DUP4 DUP8 ADD CALLDATACOPY DUP5 ADD ADD MSTORE PUSH2 0x1970 JUMP JUMPDEST SWAP1 SWAP3 SWAP2 SWAP3 PUSH2 0x1A3C JUMP JUMPDEST CALLER PUSH1 0x1 PUSH1 0x1 PUSH1 0xA0 SHL SUB SWAP1 SWAP2 AND SUB PUSH2 0x11EA JUMPI PUSH1 0x40 MLOAD PUSH4 0x23B872DD PUSH1 0xE0 SHL DUP2 MSTORE CALLER PUSH1 0x4 DUP3 ADD MSTORE ADDRESS PUSH1 0x24 DUP3 ADD MSTORE PUSH1 0x20 PUSH1 0x5 DUP6 SWAP1 SHL DUP8 ADD CALLDATALOAD DUP8 ADD DUP2 ADD CALLDATALOAD PUSH1 0x44 DUP4 ADD MSTORE DUP2 PUSH1 0x64 DUP2 PUSH1 0x0 DUP8 GAS CALL SWAP1 DUP2 ISZERO PUSH2 0x9CE JUMPI PUSH1 0x0 SWAP2 PUSH2 0x11CB JUMPI JUMPDEST POP ISZERO PUSH2 0x98D JUMPI JUMPDEST PUSH1 0x40 MLOAD PUSH4 0x70A08231 PUSH1 0xE0 SHL DUP2 MSTORE ADDRESS PUSH1 0x4 DUP3 ADD MSTORE SWAP1 PUSH1 0x20 DUP3 PUSH1 0x24 DUP2 DUP7 GAS STATICCALL DUP1 ISZERO PUSH2 0x9CE JUMPI PUSH1 0x0 SWAP1 PUSH2 0x1197 JUMPI JUMPDEST PUSH2 0xDDA SWAP3 POP PUSH2 0x18FE JUMP JUMPDEST SWAP1 PUSH1 0x2 PUSH1 0x60 DUP5 PUSH1 0x5 SHL DUP8 ADD CALLDATALOAD DUP8 ADD ADD CALLDATALOAD LT ISZERO PUSH2 0x1DC JUMPI PUSH1 0x60 DUP4 PUSH1 0x5 SHL DUP7 ADD CALLDATALOAD DUP7 ADD ADD CALLDATALOAD ISZERO PUSH1 0x0 EQ PUSH2 0x114F JUMPI PUSH1 0x40 MLOAD PUSH4 0x95EA7B3 PUSH1 0xE0 SHL DUP2 MSTORE PUSH1 0x1 PUSH1 0x1 PUSH1 0xA0 SHL SUB PUSH32 0x0 AND PUSH1 0x4 DUP3 ADD MSTORE PUSH1 0x24 DUP2 ADD DUP4 SWAP1 MSTORE PUSH1 0x20 DUP2 PUSH1 0x44 DUP2 PUSH1 0x0 DUP7 GAS CALL DUP1 ISZERO PUSH2 0x9CE JUMPI PUSH2 0x1130 JUMPI JUMPDEST POP PUSH1 0x40 MLOAD PUSH2 0xE6B DUP2 PUSH2 0x189F JUMP JUMPDEST PUSH1 0x3 DUP2 MSTORE PUSH1 0x60 CALLDATASIZE PUSH1 0x20 DUP4 ADD CALLDATACOPY DUP2 PUSH2 0xE81 DUP3 PUSH2 0x1AD8 JUMP JUMPDEST MSTORE PUSH2 0xE8B DUP2 PUSH2 0x1AFB JUMP JUMPDEST PUSH32 0x0 PUSH1 0x1 PUSH1 0x1 PUSH1 0xA0 SHL SUB AND SWAP1 MSTORE DUP9 PUSH2 0xEC1 DUP3 PUSH2 0x1B0B JUMP JUMPDEST MSTORE PUSH1 0x40 MLOAD PUSH4 0x70A08231 PUSH1 0xE0 SHL DUP2 MSTORE ADDRESS PUSH1 0x4 DUP3 ADD MSTORE SWAP1 PUSH1 0x20 DUP3 PUSH1 0x24 DUP2 DUP14 GAS STATICCALL SWAP2 DUP3 ISZERO PUSH2 0x9CE JUMPI PUSH1 0x0 SWAP3 PUSH2 0x10FC JUMPI JUMPDEST POP PUSH32 0x0 PUSH1 0x1 PUSH1 0x1 PUSH1 0xA0 SHL SUB AND EXTCODESIZE ISZERO PUSH2 0x1DC JUMPI PUSH1 0x0 PUSH2 0xF53 SWAP2 PUSH1 0x40 MLOAD DUP1 SWAP4 DUP2 SWAP3 PUSH4 0x5C11D795 PUSH1 0xE0 SHL DUP4 MSTORE DUP12 PUSH1 0x24 CALLDATALOAD SWAP2 PUSH1 0x40 ADDRESS SWAP3 DUP14 PUSH1 0x5 SHL DUP2 ADD CALLDATALOAD ADD ADD CALLDATALOAD DUP12 PUSH1 0x4 DUP8 ADD PUSH2 0x1B6C JUMP JUMPDEST SUB DUP2 DUP4 PUSH32 0x0 PUSH1 0x1 PUSH1 0x1 PUSH1 0xA0 SHL SUB AND GAS CALL SWAP1 DUP2 PUSH2 0x10ED JUMPI JUMPDEST POP PUSH2 0x107E JUMPI POP PUSH1 0x40 MLOAD PUSH4 0xA9059CBB PUSH1 0xE0 SHL DUP2 MSTORE CALLER PUSH1 0x4 DUP3 ADD MSTORE PUSH1 0x24 DUP2 ADD DUP4 SWAP1 MSTORE SWAP1 PUSH1 0x20 SWAP1 DUP3 SWAP1 PUSH1 0x44 SWAP1 DUP3 SWAP1 PUSH1 0x0 SWAP1 GAS CALL DUP1 ISZERO PUSH2 0x9CE JUMPI PUSH2 0x105F JUMPI JUMPDEST POP PUSH1 0x0 JUMPDEST SWAP1 JUMPDEST DUP2 PUSH2 0xFF9 JUMPI JUMPDEST POP PUSH2 0xFE4 JUMPI JUMPDEST PUSH2 0xFDF SWAP1 PUSH2 0x18DB JUMP JUMPDEST PUSH2 0x89C JUMP JUMPDEST SWAP4 PUSH2 0xFF1 PUSH2 0xFDF SWAP2 PUSH2 0x18DB JUMP JUMPDEST SWAP5 SWAP1 POP PUSH2 0xFD6 JUMP JUMPDEST PUSH1 0x1 PUSH1 0x1 PUSH1 0xA0 SHL SUB PUSH2 0x1013 PUSH1 0x5 DUP6 SWAP1 SHL DUP8 ADD CALLDATALOAD DUP8 ADD PUSH2 0x18EA JUMP JUMPDEST AND SWAP1 PUSH1 0x40 MLOAD SWAP1 DUP2 MSTORE DUP3 PUSH1 0x20 DUP3 ADD MSTORE PUSH1 0x60 DUP5 PUSH1 0x5 SHL DUP8 ADD CALLDATALOAD DUP8 ADD ADD CALLDATALOAD PUSH1 0x40 DUP3 ADD MSTORE PUSH32 0xA2C87ABC3341789E0370A7BAABED4F58835304C2B16A29536744AD19FCFD2E84 PUSH1 0x60 CALLER SWAP3 LOG3 DUP8 PUSH2 0xFD0 JUMP JUMPDEST PUSH2 0x1077 SWAP1 PUSH1 0x20 RETURNDATASIZE PUSH1 0x20 GT PUSH2 0x9C7 JUMPI PUSH2 0x9B9 DUP2 DUP4 PUSH2 0x18BA JUMP JUMPDEST POP DUP8 PUSH2 0xFC4 JUMP JUMPDEST PUSH1 0x40 MLOAD PUSH4 0x70A08231 PUSH1 0xE0 SHL DUP2 MSTORE ADDRESS PUSH1 0x4 DUP3 ADD MSTORE SWAP2 POP PUSH1 0x20 DUP3 PUSH1 0x24 DUP2 DUP13 GAS STATICCALL DUP1 ISZERO PUSH2 0x9CE JUMPI PUSH1 0x0 SWAP1 PUSH2 0x10B9 JUMPI JUMPDEST PUSH2 0x10B4 SWAP3 POP PUSH2 0x18FE JUMP JUMPDEST PUSH2 0xFC8 JUMP JUMPDEST POP PUSH1 0x20 DUP3 RETURNDATASIZE PUSH1 0x20 GT PUSH2 0x10E5 JUMPI JUMPDEST DUP2 PUSH2 0x10D3 PUSH1 0x20 SWAP4 DUP4 PUSH2 0x18BA JUMP JUMPDEST DUP2 ADD SUB SLT PUSH2 0x1DC JUMPI PUSH2 0x10B4 SWAP2 MLOAD PUSH2 0x10AA JUMP JUMPDEST RETURNDATASIZE SWAP2 POP PUSH2 0x10C6 JUMP JUMPDEST PUSH2 0x10F6 SWAP1 PUSH2 0x188C JUMP JUMPDEST DUP11 PUSH2 0xF89 JUMP JUMPDEST SWAP1 SWAP2 POP PUSH1 0x20 DUP2 RETURNDATASIZE PUSH1 0x20 GT PUSH2 0x1128 JUMPI JUMPDEST DUP2 PUSH2 0x1118 PUSH1 0x20 SWAP4 DUP4 PUSH2 0x18BA JUMP JUMPDEST DUP2 ADD SUB SLT PUSH2 0x1DC JUMPI MLOAD SWAP1 DUP11 PUSH2 0xEEE JUMP JUMPDEST RETURNDATASIZE SWAP2 POP PUSH2 0x110B JUMP JUMPDEST PUSH2 0x1148 SWAP1 PUSH1 0x20 RETURNDATASIZE PUSH1 0x20 GT PUSH2 0x9C7 JUMPI PUSH2 0x9B9 DUP2 DUP4 PUSH2 0x18BA JUMP JUMPDEST POP DUP9 PUSH2 0xE5E JUMP JUMPDEST PUSH1 0x5 DUP4 SWAP1 SHL DUP6 ADD CALLDATALOAD DUP6 ADD PUSH1 0x80 ADD CALLDATALOAD PUSH3 0xFFFFFF DUP2 AND SWAP1 SUB PUSH2 0x1DC JUMPI PUSH2 0x1191 SWAP1 PUSH1 0x24 CALLDATALOAD SWAP1 DUP10 SWAP1 PUSH1 0x5 DUP7 SWAP1 SHL DUP9 ADD CALLDATALOAD DUP9 ADD PUSH1 0x40 DUP2 ADD CALLDATALOAD SWAP2 PUSH1 0x80 SWAP1 SWAP2 ADD CALLDATALOAD SWAP1 DUP7 SWAP1 PUSH2 0x1BA5 JUMP JUMPDEST SWAP1 PUSH2 0xFCA JUMP JUMPDEST POP PUSH1 0x20 DUP3 RETURNDATASIZE PUSH1 0x20 GT PUSH2 0x11C3 JUMPI JUMPDEST DUP2 PUSH2 0x11B1 PUSH1 0x20 SWAP4 DUP4 PUSH2 0x18BA JUMP JUMPDEST DUP2 ADD SUB SLT PUSH2 0x1DC JUMPI PUSH2 0xDDA SWAP2 MLOAD PUSH2 0xDD0 JUMP JUMPDEST RETURNDATASIZE SWAP2 POP PUSH2 0x11A4 JUMP JUMPDEST PUSH2 0x11E4 SWAP2 POP PUSH1 0x20 RETURNDATASIZE PUSH1 0x20 GT PUSH2 0x9C7 JUMPI PUSH2 0x9B9 DUP2 DUP4 PUSH2 0x18BA JUMP JUMPDEST DUP10 PUSH2 0xD9E JUMP JUMPDEST PUSH1 0x40 MLOAD PUSH4 0x8BAA579F PUSH1 0xE0 SHL DUP2 MSTORE PUSH1 0x4 SWAP1 REVERT JUMPDEST PUSH4 0x4E487B71 PUSH1 0xE0 SHL PUSH1 0x0 MSTORE PUSH1 0x41 PUSH1 0x4 MSTORE PUSH1 0x24 PUSH1 0x0 REVERT JUMPDEST PUSH1 0x40 MLOAD PUSH4 0x3AB3447F PUSH1 0xE1 SHL DUP2 MSTORE PUSH1 0x4 SWAP1 REVERT JUMPDEST PUSH1 0x40 MLOAD PUSH4 0x1AB7DA6B PUSH1 0xE0 SHL DUP2 MSTORE PUSH1 0x4 SWAP1 REVERT JUMPDEST POP PUSH1 0x24 CALLDATALOAD PUSH2 0xB69 JUMP JUMPDEST POP PUSH2 0x100 DUP4 PUSH1 0x5 SHL DUP7 ADD CALLDATALOAD DUP7 ADD ADD CALLDATALOAD PUSH2 0x12CE JUMPI JUMPDEST PUSH1 0x40 MLOAD PUSH4 0x23B872DD PUSH1 0xE0 SHL DUP2 MSTORE CALLER PUSH1 0x4 DUP3 ADD MSTORE ADDRESS PUSH1 0x24 DUP3 ADD MSTORE PUSH1 0x20 PUSH1 0x5 DUP6 SWAP1 SHL DUP8 ADD CALLDATALOAD DUP8 ADD DUP2 ADD CALLDATALOAD PUSH1 0x44 DUP4 ADD MSTORE DUP2 PUSH1 0x64 DUP2 PUSH1 0x0 DUP8 GAS CALL SWAP1 DUP2 ISZERO PUSH2 0x9CE JUMPI PUSH1 0x0 SWAP2 PUSH2 0x12AF JUMPI JUMPDEST POP PUSH2 0xDA5 JUMPI PUSH1 0x40 MLOAD PUSH4 0x12171D83 PUSH1 0xE3 SHL DUP2 MSTORE PUSH1 0x4 SWAP1 REVERT JUMPDEST PUSH2 0x12C8 SWAP2 POP PUSH1 0x20 RETURNDATASIZE PUSH1 0x20 GT PUSH2 0x9C7 JUMPI PUSH2 0x9B9 DUP2 DUP4 PUSH2 0x18BA JUMP JUMPDEST DUP10 PUSH2 0x1298 JUMP JUMPDEST PUSH1 0x1 PUSH1 0x1 PUSH1 0xA0 SHL SUB PUSH2 0x12E8 PUSH1 0x5 DUP6 SWAP1 SHL DUP8 ADD CALLDATALOAD DUP8 ADD PUSH2 0x18EA JUMP JUMPDEST AND PUSH2 0x120 DUP5 PUSH1 0x5 SHL DUP8 ADD CALLDATALOAD DUP8 ADD ADD CALLDATALOAD PUSH1 0xFF DUP2 AND DUP2 SUB PUSH2 0x1DC JUMPI DUP2 EXTCODESIZE ISZERO PUSH2 0x1DC JUMPI PUSH1 0x40 MLOAD PUSH4 0xD505ACCF PUSH1 0xE0 SHL DUP2 MSTORE CALLER PUSH1 0x4 DUP3 ADD MSTORE ADDRESS PUSH1 0x24 DUP3 ADD MSTORE PUSH1 0x5 DUP7 SWAP1 SHL DUP9 ADD CALLDATALOAD DUP9 ADD PUSH1 0x20 DUP2 ADD CALLDATALOAD PUSH1 0x44 DUP4 ADD MSTORE PUSH2 0x100 DUP2 ADD CALLDATALOAD PUSH1 0x64 DUP4 ADD MSTORE PUSH1 0xFF SWAP3 SWAP1 SWAP3 AND PUSH1 0x84 DUP3 ADD MSTORE PUSH2 0x140 DUP3 ADD CALLDATALOAD PUSH1 0xA4 DUP3 ADD MSTORE PUSH2 0x160 SWAP1 SWAP2 ADD CALLDATALOAD PUSH1 0xC4 DUP3 ADD MSTORE SWAP1 PUSH1 0x0 SWAP1 DUP3 SWAP1 PUSH1 0xE4 SWAP1 DUP3 SWAP1 DUP5 SWAP1 GAS CALL PUSH2 0x137C JUMPI JUMPDEST POP PUSH2 0x1253 JUMP JUMPDEST PUSH2 0x1385 SWAP1 PUSH2 0x188C JUMP JUMPDEST DUP9 PUSH2 0x1376 JUMP JUMPDEST SWAP1 POP PUSH1 0x20 DUP2 RETURNDATASIZE PUSH1 0x20 GT PUSH2 0x13B5 JUMPI JUMPDEST DUP2 PUSH2 0x13A6 PUSH1 0x20 SWAP4 DUP4 PUSH2 0x18BA JUMP JUMPDEST DUP2 ADD SUB SLT PUSH2 0x1DC JUMPI MLOAD DUP9 PUSH2 0xB32 JUMP JUMPDEST RETURNDATASIZE SWAP2 POP PUSH2 0x1399 JUMP JUMPDEST PUSH1 0x40 MLOAD PUSH4 0xC1AB6DC1 PUSH1 0xE0 SHL DUP2 MSTORE PUSH1 0x4 SWAP1 REVERT JUMPDEST POP DUP6 PUSH1 0x1 PUSH1 0x1 PUSH1 0xA0 SHL SUB PUSH2 0x13EB PUSH1 0x5 DUP5 SWAP1 SHL DUP7 ADD CALLDATALOAD DUP7 ADD PUSH2 0x18EA JUMP JUMPDEST AND EQ PUSH2 0xAD6 JUMP JUMPDEST POP PUSH2 0x1404 DUP2 PUSH1 0x5 SHL DUP5 ADD CALLDATALOAD DUP5 ADD PUSH2 0x18EA JUMP JUMPDEST PUSH32 0x0 PUSH1 0x1 PUSH1 0x1 PUSH1 0xA0 SHL SUB SWAP1 DUP2 AND SWAP2 AND EQ PUSH2 0xACF JUMP JUMPDEST SWAP1 SWAP2 POP PUSH1 0x20 DUP2 RETURNDATASIZE PUSH1 0x20 GT PUSH2 0x1464 JUMPI JUMPDEST DUP2 PUSH2 0x1454 PUSH1 0x20 SWAP4 DUP4 PUSH2 0x18BA JUMP JUMPDEST DUP2 ADD SUB SLT PUSH2 0x1DC JUMPI MLOAD SWAP1 DUP5 PUSH2 0x895 JUMP JUMPDEST RETURNDATASIZE SWAP2 POP PUSH2 0x1447 JUMP JUMPDEST PUSH1 0x40 MLOAD PUSH4 0x86724C7F PUSH1 0xE0 SHL DUP2 MSTORE PUSH1 0x4 SWAP1 REVERT JUMPDEST PUSH1 0x40 MLOAD PUSH4 0x3EE5AEB5 PUSH1 0xE0 SHL DUP2 MSTORE PUSH1 0x4 SWAP1 REVERT JUMPDEST CALLVALUE PUSH2 0x1DC JUMPI PUSH1 0x0 CALLDATASIZE PUSH1 0x3 NOT ADD SLT PUSH2 0x1DC JUMPI PUSH1 0x20 PUSH1 0x40 MLOAD PUSH32 0x0 DUP2 MSTORE RETURN JUMPDEST CALLVALUE PUSH2 0x1DC JUMPI PUSH1 0x40 CALLDATASIZE PUSH1 0x3 NOT ADD SLT PUSH2 0x1DC JUMPI PUSH1 0x4 CALLDATALOAD PUSH1 0x24 CALLDATALOAD CALLER PUSH1 0x0 MSTORE PUSH1 0x2 PUSH1 0x20 MSTORE PUSH1 0x40 PUSH1 0x0 KECCAK256 DUP3 PUSH1 0x0 MSTORE PUSH1 0x20 MSTORE PUSH1 0x40 PUSH1 0x0 KECCAK256 DUP2 DUP2 SLOAD OR SWAP1 SSTORE PUSH1 0x40 MLOAD SWAP2 DUP3 MSTORE PUSH1 0x20 DUP3 ADD MSTORE PUSH32 0x8BDE7BF9BE24658F5C1D48843FB04034CAE6C6CEACF23B0CF97B724E4CDC599F PUSH1 0x40 CALLER SWAP3 LOG2 STOP JUMPDEST CALLVALUE PUSH2 0x1DC JUMPI PUSH1 0x40 CALLDATASIZE PUSH1 0x3 NOT ADD SLT PUSH2 0x1DC JUMPI PUSH1 0x4 CALLDATALOAD PUSH1 0x1 PUSH1 0x1 PUSH1 0x40 SHL SUB DUP2 GT PUSH2 0x1DC JUMPI PUSH2 0x1565 SWAP1 CALLDATASIZE SWAP1 PUSH1 0x4 ADD PUSH2 0x181A JUMP JUMPDEST SWAP1 PUSH1 0x24 CALLDATALOAD PUSH1 0x1 PUSH1 0x1 PUSH1 0x40 SHL SUB DUP2 GT PUSH2 0x1DC JUMPI PUSH2 0x1585 SWAP1 CALLDATASIZE SWAP1 PUSH1 0x4 ADD PUSH2 0x181A JUMP JUMPDEST SWAP1 SWAP4 DUP2 DUP5 SUB PUSH2 0x17E6 JUMPI POP PUSH2 0x1598 DUP4 PUSH2 0x1AC1 JUMP JUMPDEST SWAP4 PUSH2 0x15A6 PUSH1 0x40 MLOAD SWAP6 DUP7 PUSH2 0x18BA JUMP JUMPDEST DUP4 DUP6 MSTORE PUSH1 0x1F NOT PUSH2 0x15B5 DUP6 PUSH2 0x1AC1 JUMP JUMPDEST ADD CALLDATASIZE PUSH1 0x20 DUP8 ADD CALLDATACOPY PUSH1 0x3 SLOAD PUSH1 0x1 PUSH1 0x1 PUSH1 0xA0 SHL SUB AND PUSH1 0x0 JUMPDEST DUP6 DUP2 LT PUSH2 0x1618 JUMPI DUP7 PUSH1 0x40 MLOAD DUP1 SWAP2 PUSH1 0x20 DUP3 ADD PUSH1 0x20 DUP4 MSTORE DUP2 MLOAD DUP1 SWAP2 MSTORE PUSH1 0x20 PUSH1 0x40 DUP5 ADD SWAP3 ADD SWAP1 PUSH1 0x0 JUMPDEST DUP2 DUP2 LT PUSH2 0x15FF JUMPI POP POP POP SUB SWAP1 RETURN JUMPDEST DUP3 MLOAD DUP5 MSTORE DUP6 SWAP5 POP PUSH1 0x20 SWAP4 DUP5 ADD SWAP4 SWAP1 SWAP3 ADD SWAP2 PUSH1 0x1 ADD PUSH2 0x15F1 JUMP JUMPDEST PUSH2 0x16CA SWAP1 PUSH1 0x0 PUSH1 0x40 MLOAD PUSH2 0x162A DUP2 PUSH2 0x189F JUMP JUMPDEST PUSH1 0x3 DUP2 MSTORE PUSH1 0x60 CALLDATASIZE PUSH1 0x20 DUP4 ADD CALLDATACOPY PUSH2 0x1649 PUSH2 0x1644 DUP5 DUP12 DUP12 PUSH2 0x2097 JUMP JUMPDEST PUSH2 0x18EA JUMP JUMPDEST PUSH2 0x1652 DUP3 PUSH2 0x1AD8 JUMP JUMPDEST PUSH1 0x1 PUSH1 0x1 PUSH1 0xA0 SHL SUB SWAP2 DUP3 AND SWAP1 MSTORE PUSH32 0x0 AND PUSH2 0x168A DUP3 PUSH2 0x1AFB JUMP JUMPDEST MSTORE DUP5 PUSH2 0x1695 DUP3 PUSH2 0x1B0B JUMP JUMPDEST MSTORE PUSH2 0x16A1 DUP4 DUP9 DUP9 PUSH2 0x2097 JUMP JUMPDEST CALLDATALOAD PUSH1 0x40 MLOAD SWAP5 DUP6 SWAP3 DUP4 SWAP3 PUSH4 0xD06CA61F PUSH1 0xE0 SHL DUP5 MSTORE PUSH1 0x4 DUP5 ADD MSTORE PUSH1 0x40 PUSH1 0x24 DUP5 ADD MSTORE PUSH1 0x44 DUP4 ADD SWAP1 PUSH2 0x1B2F JUMP JUMPDEST SUB DUP2 PUSH32 0x0 PUSH1 0x1 PUSH1 0x1 PUSH1 0xA0 SHL SUB AND GAS STATICCALL DUP1 PUSH1 0x0 SWAP2 PUSH2 0x1736 JUMPI JUMPDEST PUSH2 0x171D SWAP4 POP PUSH2 0x1722 JUMPI POP PUSH1 0x0 PUSH2 0x1717 DUP3 DUP11 PUSH2 0x1B1B JUMP JUMPDEST MSTORE PUSH2 0x18DB JUMP JUMPDEST PUSH2 0x15CB JUMP JUMPDEST PUSH2 0x172B SWAP1 PUSH2 0x1B0B JUMP JUMPDEST MLOAD PUSH2 0x1717 DUP3 DUP11 PUSH2 0x1B1B JUMP JUMPDEST SWAP2 SWAP3 SWAP1 POP RETURNDATASIZE DUP1 PUSH1 0x0 DUP4 RETURNDATACOPY PUSH2 0x174A DUP2 DUP4 PUSH2 0x18BA JUMP JUMPDEST PUSH1 0x20 DUP3 DUP3 DUP2 ADD SUB SLT PUSH2 0x1DC JUMPI DUP2 MLOAD SWAP2 PUSH1 0x1 PUSH1 0x1 PUSH1 0x40 SHL SUB DUP4 GT PUSH2 0x1DC JUMPI DUP2 DUP2 ADD PUSH1 0x1F DUP5 DUP4 ADD ADD SLT ISZERO PUSH2 0x1DC JUMPI DUP3 DUP2 ADD MLOAD SWAP1 PUSH2 0x1784 DUP3 PUSH2 0x1AC1 JUMP JUMPDEST SWAP4 PUSH2 0x1792 PUSH1 0x40 MLOAD SWAP6 DUP7 PUSH2 0x18BA JUMP JUMPDEST DUP3 DUP6 MSTORE PUSH1 0x20 DUP6 ADD SWAP4 DUP3 ADD PUSH1 0x20 DUP5 PUSH1 0x5 SHL DUP4 DUP6 ADD ADD ADD GT PUSH2 0x1DC JUMPI PUSH1 0x20 DUP2 DUP4 ADD ADD SWAP4 JUMPDEST PUSH1 0x20 DUP5 PUSH1 0x5 SHL DUP4 DUP6 ADD ADD ADD DUP6 LT PUSH2 0x17D6 JUMPI POP POP POP POP POP SWAP1 PUSH2 0x171D SWAP3 SWAP2 SWAP1 PUSH2 0x1701 JUMP JUMPDEST DUP5 MLOAD DUP2 MSTORE PUSH1 0x20 SWAP5 DUP6 ADD SWAP5 ADD PUSH2 0x17B4 JUMP JUMPDEST PUSH3 0x461BCD PUSH1 0xE5 SHL DUP2 MSTORE PUSH1 0x20 PUSH1 0x4 DUP3 ADD MSTORE PUSH1 0xF PUSH1 0x24 DUP3 ADD MSTORE PUSH15 0x98CADCCEE8D040DAD2E6DAC2E8C6D PUSH1 0x8B SHL PUSH1 0x44 DUP3 ADD MSTORE PUSH1 0x64 SWAP1 REVERT JUMPDEST SWAP2 DUP2 PUSH1 0x1F DUP5 ADD SLT ISZERO PUSH2 0x1DC JUMPI DUP3 CALLDATALOAD SWAP2 PUSH1 0x1 PUSH1 0x1 PUSH1 0x40 SHL SUB DUP4 GT PUSH2 0x1DC JUMPI PUSH1 0x20 DUP1 DUP6 ADD SWAP5 DUP5 PUSH1 0x5 SHL ADD ADD GT PUSH2 0x1DC JUMPI JUMP JUMPDEST PUSH1 0x4 CALLDATALOAD SWAP1 PUSH1 0x1 PUSH1 0x1 PUSH1 0xA0 SHL SUB DUP3 AND DUP3 SUB PUSH2 0x1DC JUMPI JUMP JUMPDEST PUSH1 0x0 SLOAD PUSH1 0x1 PUSH1 0x1 PUSH1 0xA0 SHL SUB AND CALLER SUB PUSH2 0x1874 JUMPI JUMP JUMPDEST PUSH1 0x40 MLOAD PUSH4 0x118CDAA7 PUSH1 0xE0 SHL DUP2 MSTORE CALLER PUSH1 0x4 DUP3 ADD MSTORE PUSH1 0x24 SWAP1 REVERT JUMPDEST PUSH1 0x1 PUSH1 0x1 PUSH1 0x40 SHL SUB DUP2 GT PUSH2 0x11FC JUMPI PUSH1 0x40 MSTORE JUMP JUMPDEST PUSH1 0x80 DUP2 ADD SWAP1 DUP2 LT PUSH1 0x1 PUSH1 0x1 PUSH1 0x40 SHL SUB DUP3 GT OR PUSH2 0x11FC JUMPI PUSH1 0x40 MSTORE JUMP JUMPDEST SWAP1 PUSH1 0x1F DUP1 NOT SWAP2 ADD AND DUP2 ADD SWAP1 DUP2 LT PUSH1 0x1 PUSH1 0x1 PUSH1 0x40 SHL SUB DUP3 GT OR PUSH2 0x11FC JUMPI PUSH1 0x40 MSTORE JUMP JUMPDEST PUSH1 0x0 NOT DUP2 EQ PUSH2 0x638 JUMPI PUSH1 0x1 ADD SWAP1 JUMP JUMPDEST CALLDATALOAD PUSH1 0x1 PUSH1 0x1 PUSH1 0xA0 SHL SUB DUP2 AND DUP2 SUB PUSH2 0x1DC JUMPI SWAP1 JUMP JUMPDEST SWAP2 SWAP1 DUP3 SUB SWAP2 DUP3 GT PUSH2 0x638 JUMPI JUMP JUMPDEST SWAP1 DUP2 PUSH1 0x20 SWAP2 SUB SLT PUSH2 0x1DC JUMPI MLOAD DUP1 ISZERO ISZERO DUP2 SUB PUSH2 0x1DC JUMPI SWAP1 JUMP JUMPDEST SWAP1 CALLDATALOAD SWAP1 PUSH1 0x1E NOT DUP2 CALLDATASIZE SUB ADD DUP3 SLT ISZERO PUSH2 0x1DC JUMPI ADD DUP1 CALLDATALOAD SWAP1 PUSH1 0x1 PUSH1 0x1 PUSH1 0x40 SHL SUB DUP3 GT PUSH2 0x1DC JUMPI PUSH1 0x20 ADD SWAP2 DUP2 CALLDATASIZE SUB DUP4 SGT PUSH2 0x1DC JUMPI JUMP JUMPDEST PUSH1 0x1 PUSH1 0x1 PUSH1 0x40 SHL SUB DUP2 GT PUSH2 0x11FC JUMPI PUSH1 0x1F ADD PUSH1 0x1F NOT AND PUSH1 0x20 ADD SWAP1 JUMP JUMPDEST DUP2 MLOAD SWAP2 SWAP1 PUSH1 0x41 DUP4 SUB PUSH2 0x19A1 JUMPI PUSH2 0x199A SWAP3 POP PUSH1 0x20 DUP3 ADD MLOAD SWAP1 PUSH1 0x60 PUSH1 0x40 DUP5 ADD MLOAD SWAP4 ADD MLOAD PUSH1 0x0 BYTE SWAP1 PUSH2 0x19AC JUMP JUMPDEST SWAP2 SWAP3 SWAP1 SWAP2 SWAP1 JUMP JUMPDEST POP POP PUSH1 0x0 SWAP2 PUSH1 0x2 SWAP2 SWAP1 JUMP JUMPDEST SWAP2 SWAP1 PUSH32 0x7FFFFFFFFFFFFFFFFFFFFFFFFFFFFFFF5D576E7357A4501DDFE92F46681B20A0 DUP5 GT PUSH2 0x1A30 JUMPI SWAP3 PUSH1 0x20 SWAP3 SWAP2 PUSH1 0xFF PUSH1 0x80 SWAP6 PUSH1 0x40 MLOAD SWAP5 DUP6 MSTORE AND DUP5 DUP5 ADD MSTORE PUSH1 0x40 DUP4 ADD MSTORE PUSH1 0x60 DUP3 ADD MSTORE PUSH1 0x0 SWAP3 DUP4 SWAP2 DUP3 DUP1 MSTORE PUSH1 0x1 GAS STATICCALL ISZERO PUSH2 0x1A24 JUMPI DUP1 MLOAD PUSH1 0x1 PUSH1 0x1 PUSH1 0xA0 SHL SUB DUP2 AND ISZERO PUSH2 0x1A1B JUMPI SWAP2 DUP2 SWAP1 JUMP JUMPDEST POP DUP1 SWAP2 PUSH1 0x1 SWAP2 SWAP1 JUMP JUMPDEST PUSH1 0x40 MLOAD SWAP1 RETURNDATASIZE SWAP1 DUP3 RETURNDATACOPY RETURNDATASIZE SWAP1 REVERT JUMPDEST POP POP POP PUSH1 0x0 SWAP2 PUSH1 0x3 SWAP2 SWAP1 JUMP JUMPDEST PUSH1 0x4 DUP2 LT ISZERO PUSH2 0x1AAB JUMPI DUP1 PUSH2 0x1A4E JUMPI POP POP JUMP JUMPDEST PUSH1 0x1 DUP2 SUB PUSH2 0x1A68 JUMPI PUSH1 0x40 MLOAD PUSH4 0xF645EEDF PUSH1 0xE0 SHL DUP2 MSTORE PUSH1 0x4 SWAP1 REVERT JUMPDEST PUSH1 0x2 DUP2 SUB PUSH2 0x1A89 JUMPI PUSH1 0x40 MLOAD PUSH4 0xFCE698F7 PUSH1 0xE0 SHL DUP2 MSTORE PUSH1 0x4 DUP2 ADD DUP4 SWAP1 MSTORE PUSH1 0x24 SWAP1 REVERT JUMPDEST PUSH1 0x3 EQ PUSH2 0x1A93 JUMPI POP JUMP JUMPDEST PUSH1 0x24 SWAP1 PUSH1 0x40 MLOAD SWAP1 PUSH4 0x35E2F383 PUSH1 0xE2 SHL DUP3 MSTORE PUSH1 0x4 DUP3 ADD MSTORE REVERT JUMPDEST PUSH4 0x4E487B71 PUSH1 0xE0 SHL PUSH1 0x0 MSTORE PUSH1 0x21 PUSH1 0x4 MSTORE PUSH1 0x24 PUSH1 0x0 REVERT JUMPDEST PUSH1 0x1 PUSH1 0x1 PUSH1 0x40 SHL SUB DUP2 GT PUSH2 0x11FC JUMPI PUSH1 0x5 SHL PUSH1 0x20 ADD SWAP1 JUMP JUMPDEST DUP1 MLOAD ISZERO PUSH2 0x1AE5 JUMPI PUSH1 0x20 ADD SWAP1 JUMP JUMPDEST PUSH4 0x4E487B71 PUSH1 0xE0 SHL PUSH1 0x0 MSTORE PUSH1 0x32 PUSH1 0x4 MSTORE PUSH1 0x24 PUSH1 0x0 REVERT JUMPDEST DUP1 MLOAD PUSH1 0x1 LT ISZERO PUSH2 0x1AE5 JUMPI PUSH1 0x40 ADD SWAP1 JUMP JUMPDEST DUP1 MLOAD PUSH1 0x2 LT ISZERO PUSH2 0x1AE5 JUMPI PUSH1 0x60 ADD SWAP1 JUMP JUMPDEST DUP1 MLOAD DUP3 LT ISZERO PUSH2 0x1AE5 JUMPI PUSH1 0x20 SWAP2 PUSH1 0x5 SHL ADD ADD SWAP1 JUMP JUMPDEST SWAP1 DUP2 MLOAD DUP1 DUP3 MSTORE PUSH1 0x20 DUP1 DUP1 SWAP4 ADD SWAP4 ADD SWAP2 PUSH1 0x0 JUMPDEST DUP3 DUP2 LT PUSH2 0x1B4F JUMPI POP POP POP POP SWAP1 JUMP JUMPDEST DUP4 MLOAD PUSH1 0x1 PUSH1 0x1 PUSH1 0xA0 SHL SUB AND DUP6 MSTORE SWAP4 DUP2 ADD SWAP4 SWAP3 DUP2 ADD SWAP3 PUSH1 0x1 ADD PUSH2 0x1B41 JUMP JUMPDEST SWAP2 SWAP3 PUSH1 0x80 SWAP4 PUSH2 0x1B91 SWAP3 SWAP8 SWAP7 SWAP6 SWAP8 DUP5 MSTORE PUSH1 0x20 DUP5 ADD MSTORE PUSH1 0xA0 PUSH1 0x40 DUP5 ADD MSTORE PUSH1 0xA0 DUP4 ADD SWAP1 PUSH2 0x1B2F JUMP JUMPDEST PUSH1 0x1 PUSH1 0x1 PUSH1 0xA0 SHL SUB SWAP1 SWAP6 AND PUSH1 0x60 DUP3 ADD MSTORE ADD MSTORE JUMP JUMPDEST PUSH1 0x40 DUP1 MLOAD PUSH4 0x95EA7B3 PUSH1 0xE0 SHL DUP2 MSTORE PUSH1 0x1 PUSH1 0x1 PUSH1 0xA0 SHL SUB PUSH32 0x0 DUP2 AND PUSH1 0x4 DUP4 ADD MSTORE PUSH1 0x24 DUP3 ADD DUP6 SWAP1 MSTORE SWAP8 SWAP9 SWAP8 PUSH1 0x0 SWAP8 SWAP3 SWAP7 SWAP4 AND SWAP5 SWAP2 SWAP3 SWAP1 PUSH1 0x20 DUP2 PUSH1 0x44 DUP2 DUP12 DUP11 GAS CALL DUP1 ISZERO PUSH2 0x208D JUMPI PUSH2 0x206E JUMPI JUMPDEST POP DUP6 MLOAD SWAP9 PUSH1 0x1 PUSH1 0x1 PUSH1 0x40 SHL SUB SWAP3 PUSH1 0xE0 DUP12 ADD DUP5 DUP2 GT DUP13 DUP3 LT OR PUSH2 0x205A JUMPI SWAP1 PUSH3 0xFFFFFF SWAP2 DUP10 MSTORE DUP8 DUP13 MSTORE PUSH1 0x1 DUP1 PUSH1 0xA0 SHL SUB PUSH32 0x0 AND PUSH1 0x20 DUP14 ADD MSTORE AND DUP8 DUP12 ADD MSTORE ADDRESS PUSH1 0x60 DUP12 ADD MSTORE DUP5 PUSH1 0x80 DUP12 ADD MSTORE DUP8 PUSH1 0xA0 DUP12 ADD MSTORE DUP8 PUSH1 0xC0 DUP12 ADD MSTORE DUP7 MLOAD SWAP10 PUSH4 0x4E45AAF PUSH1 0xE0 SHL DUP12 MSTORE PUSH1 0x1 DUP1 PUSH1 0xA0 SHL SUB DUP2 MLOAD AND PUSH1 0x4 DUP13 ADD MSTORE PUSH1 0x1 DUP1 PUSH1 0xA0 SHL SUB PUSH1 0x20 DUP3 ADD MLOAD AND PUSH1 0x24 DUP13 ADD MSTORE PUSH3 0xFFFFFF DUP9 DUP3 ADD MLOAD AND PUSH1 0x44 DUP13 ADD MSTORE PUSH1 0x1 DUP1 PUSH1 0xA0 SHL SUB PUSH1 0x60 DUP3 ADD MLOAD AND PUSH1 0x64 DUP13 ADD MSTORE PUSH1 0x80 DUP2 ADD MLOAD PUSH1 0x84 DUP13 ADD MSTORE PUSH1 0xA0 DUP2 ADD MLOAD PUSH1 0xA4 DUP13 ADD MSTORE PUSH1 0xC0 PUSH1 0x1 DUP1 PUSH1 0xA0 SHL SUB SWAP2 ADD MLOAD AND PUSH1 0xC4 DUP12 ADD MSTORE PUSH1 0x20 DUP11 PUSH1 0xE4 DUP2 DUP12 PUSH1 0x1 DUP1 PUSH1 0xA0 SHL SUB PUSH32 0x0 AND GAS CALL DUP1 DUP10 SWAP2 PUSH2 0x201F JUMPI JUMPDEST DUP10 SWAP11 SWAP12 POP ISZERO PUSH1 0x0 EQ PUSH2 0x1D9C JUMPI POP POP DUP6 MLOAD PUSH4 0xA9059CBB PUSH1 0xE0 SHL DUP2 MSTORE CALLER PUSH1 0x4 DUP3 ADD MSTORE PUSH1 0x24 DUP2 ADD SWAP5 SWAP1 SWAP5 MSTORE POP SWAP2 SWAP5 PUSH1 0x20 SWAP4 DUP7 SWAP4 POP PUSH1 0x44 SWAP3 POP DUP4 SWAP2 SWAP1 GAS CALL SWAP1 DUP2 ISZERO PUSH2 0x1D93 JUMPI POP PUSH2 0x1D77 JUMPI POP SWAP1 JUMP JUMPDEST PUSH2 0x1D8F SWAP1 PUSH1 0x20 RETURNDATASIZE PUSH1 0x20 GT PUSH2 0x9C7 JUMPI PUSH2 0x9B9 DUP2 DUP4 PUSH2 0x18BA JUMP JUMPDEST POP SWAP1 JUMP JUMPDEST MLOAD RETURNDATASIZE DUP5 DUP3 RETURNDATACOPY RETURNDATASIZE SWAP1 REVERT JUMPDEST SWAP3 SWAP7 SWAP6 POP SWAP3 SWAP7 POP SWAP3 POP DUP1 ISZERO PUSH2 0x2016 JUMPI DUP4 MLOAD PUSH4 0x95EA7B3 PUSH1 0xE0 SHL DUP2 MSTORE PUSH32 0x0 PUSH1 0x1 PUSH1 0x1 PUSH1 0xA0 SHL SUB AND PUSH1 0x4 DUP3 ADD DUP2 SWAP1 MSTORE PUSH1 0x24 DUP3 ADD DUP4 SWAP1 MSTORE SWAP1 PUSH1 0x20 DUP2 DUP1 PUSH1 0x44 DUP2 ADD SUB DUP2 DUP13 PUSH32 0x0 PUSH1 0x1 PUSH1 0x1 PUSH1 0xA0 SHL SUB AND GAS CALL DUP1 ISZERO PUSH2 0x200C JUMPI PUSH2 0x1FED JUMPI JUMPDEST POP DUP5 MLOAD SWAP6 PUSH1 0x60 DUP8 ADD SWAP1 DUP2 GT DUP8 DUP3 LT OR PUSH2 0x1FD9 JUMPI DUP6 MSTORE PUSH1 0x2 DUP7 MSTORE DUP5 CALLDATASIZE PUSH1 0x20 DUP9 ADD CALLDATACOPY PUSH32 0x0 PUSH1 0x1 PUSH1 0x1 PUSH1 0xA0 SHL SUB AND PUSH2 0x1E85 DUP8 PUSH2 0x1AD8 JUMP JUMPDEST MSTORE PUSH2 0x1E8F DUP7 PUSH2 0x1AFB JUMP JUMPDEST PUSH1 0x1 PUSH1 0x1 PUSH1 0xA0 SHL SUB SWAP1 SWAP8 AND SWAP7 DUP8 SWAP1 MSTORE DUP5 MLOAD PUSH4 0x70A08231 PUSH1 0xE0 SHL DUP1 DUP3 MSTORE ADDRESS PUSH1 0x4 DUP4 ADD MSTORE SWAP1 SWAP7 SWAP1 SWAP5 PUSH1 0x20 DUP9 PUSH1 0x24 DUP2 DUP13 GAS STATICCALL SWAP8 DUP9 ISZERO PUSH2 0x1FCF JUMPI DUP11 SWAP9 PUSH2 0x1F9B JUMPI JUMPDEST POP DUP3 EXTCODESIZE ISZERO PUSH2 0x1F97 JUMPI SWAP1 DUP10 DUP1 SWAP5 SWAP4 SWAP3 PUSH2 0x1EFB DUP10 MLOAD SWAP8 DUP9 SWAP7 DUP8 SWAP6 DUP7 SWAP5 PUSH4 0x5C11D795 PUSH1 0xE0 SHL DUP7 MSTORE ADDRESS SWAP3 PUSH1 0x4 DUP8 ADD PUSH2 0x1B6C JUMP JUMPDEST SUB SWAP3 GAS CALL SWAP1 DUP2 PUSH2 0x1F84 JUMPI JUMPDEST POP PUSH2 0x1F12 JUMPI POP POP POP POP SWAP1 JUMP JUMPDEST PUSH1 0x20 SWAP1 PUSH1 0x24 DUP4 SWAP5 SWAP6 SWAP7 SWAP4 MLOAD DUP1 SWAP8 DUP2 SWAP4 DUP3 MSTORE ADDRESS PUSH1 0x4 DUP4 ADD MSTORE GAS STATICCALL SWAP2 DUP3 ISZERO PUSH2 0x1F7A JUMPI POP SWAP1 PUSH2 0x1F46 JUMPI JUMPDEST PUSH2 0x1F43 SWAP3 POP PUSH2 0x18FE JUMP JUMPDEST SWAP1 JUMP JUMPDEST POP PUSH1 0x20 DUP3 RETURNDATASIZE PUSH1 0x20 GT PUSH2 0x1F72 JUMPI JUMPDEST DUP2 PUSH2 0x1F60 PUSH1 0x20 SWAP4 DUP4 PUSH2 0x18BA JUMP JUMPDEST DUP2 ADD SUB SLT PUSH2 0x1DC JUMPI PUSH2 0x1F43 SWAP2 MLOAD PUSH2 0x1F39 JUMP JUMPDEST RETURNDATASIZE SWAP2 POP PUSH2 0x1F53 JUMP JUMPDEST MLOAD SWAP1 RETURNDATASIZE SWAP1 DUP3 RETURNDATACOPY RETURNDATASIZE SWAP1 REVERT JUMPDEST PUSH2 0x1F90 SWAP1 SWAP7 SWAP2 SWAP7 PUSH2 0x188C JUMP JUMPDEST SWAP5 CODESIZE PUSH2 0x1F06 JUMP JUMPDEST DUP10 DUP1 REVERT JUMPDEST SWAP1 SWAP8 POP PUSH1 0x20 DUP2 RETURNDATASIZE PUSH1 0x20 GT PUSH2 0x1FC7 JUMPI JUMPDEST DUP2 PUSH2 0x1FB7 PUSH1 0x20 SWAP4 DUP4 PUSH2 0x18BA JUMP JUMPDEST DUP2 ADD SUB SLT PUSH2 0x1F97 JUMPI MLOAD SWAP7 CODESIZE PUSH2 0x1ECC JUMP JUMPDEST RETURNDATASIZE SWAP2 POP PUSH2 0x1FAA JUMP JUMPDEST DUP8 MLOAD RETURNDATASIZE DUP13 DUP3 RETURNDATACOPY RETURNDATASIZE SWAP1 REVERT JUMPDEST PUSH4 0x4E487B71 PUSH1 0xE0 SHL DUP10 MSTORE PUSH1 0x41 PUSH1 0x4 MSTORE PUSH1 0x24 DUP10 REVERT JUMPDEST PUSH2 0x2005 SWAP1 PUSH1 0x20 RETURNDATASIZE PUSH1 0x20 GT PUSH2 0x9C7 JUMPI PUSH2 0x9B9 DUP2 DUP4 PUSH2 0x18BA JUMP JUMPDEST POP CODESIZE PUSH2 0x1E32 JUMP JUMPDEST DUP7 MLOAD RETURNDATASIZE DUP12 DUP3 RETURNDATACOPY RETURNDATASIZE SWAP1 REVERT JUMPDEST POP POP POP POP POP POP SWAP1 JUMP JUMPDEST SWAP1 POP PUSH1 0x20 DUP12 RETURNDATASIZE PUSH1 0x20 GT PUSH2 0x2052 JUMPI JUMPDEST DUP2 PUSH2 0x203A PUSH1 0x20 SWAP4 DUP4 PUSH2 0x18BA JUMP JUMPDEST DUP2 ADD SUB SLT PUSH2 0x204E JUMPI SWAP10 MLOAD SWAP9 SWAP10 DUP11 SWAP10 SWAP1 PUSH2 0x1D2D JUMP JUMPDEST DUP9 DUP1 REVERT JUMPDEST RETURNDATASIZE SWAP2 POP PUSH2 0x202D JUMP JUMPDEST PUSH4 0x4E487B71 PUSH1 0xE0 SHL DUP11 MSTORE PUSH1 0x41 PUSH1 0x4 MSTORE PUSH1 0x24 DUP11 REVERT JUMPDEST PUSH2 0x2086 SWAP1 PUSH1 0x20 RETURNDATASIZE PUSH1 0x20 GT PUSH2 0x9C7 JUMPI PUSH2 0x9B9 DUP2 DUP4 PUSH2 0x18BA JUMP JUMPDEST POP CODESIZE PUSH2 0x1C0D JUMP JUMPDEST DUP8 MLOAD RETURNDATASIZE DUP11 DUP3 RETURNDATACOPY RETURNDATASIZE SWAP1 REVERT JUMPDEST SWAP2 SWAP1 DUP2 LT ISZERO PUSH2 0x1AE5 JUMPI PUSH1 0x5 SHL ADD SWAP1 JUMP JUMPDEST DUP2 ISZERO PUSH2 0x2163 JUMPI PUSH1 0x1 PUSH1 0x1 PUSH1 0xA0 SHL SUB SWAP1 DUP2 AND DUP1 PUSH2 0x2101 JUMPI POP PUSH1 0x0 DUP1 DUP1 DUP1 SWAP5 DUP2 SWAP5 DUP3 SLOAD AND GAS CALL SWAP1 RETURNDATASIZE ISZERO PUSH2 0x20FB JUMPI RETURNDATASIZE SWAP1 PUSH2 0x20DD DUP3 PUSH2 0x1955 JUMP JUMPDEST SWAP2 PUSH2 0x20EB PUSH1 0x40 MLOAD SWAP4 DUP5 PUSH2 0x18BA JUMP JUMPDEST DUP3 MSTORE PUSH1 0x20 RETURNDATASIZE SWAP3 ADD RETURNDATACOPY JUMPDEST ISZERO PUSH2 0x98D JUMPI JUMP JUMPDEST POP PUSH2 0x20F4 JUMP JUMPDEST PUSH1 0x0 DUP1 SLOAD PUSH1 0x40 MLOAD PUSH4 0xA9059CBB PUSH1 0xE0 SHL DUP2 MSTORE SWAP4 AND PUSH1 0x1 PUSH1 0x1 PUSH1 0xA0 SHL SUB AND PUSH1 0x4 DUP5 ADD MSTORE PUSH1 0x24 DUP4 ADD SWAP4 SWAP1 SWAP4 MSTORE SWAP1 SWAP2 PUSH1 0x20 SWAP2 DUP4 SWAP2 DUP3 SWAP1 DUP2 PUSH1 0x44 DUP2 ADD SUB SWAP3 GAS CALL DUP1 ISZERO PUSH2 0x9CE JUMPI PUSH2 0x2149 JUMPI POP JUMP JUMPDEST PUSH2 0x2160 SWAP1 PUSH1 0x20 RETURNDATASIZE DUP2 GT PUSH2 0x9C7 JUMPI PUSH2 0x9B9 DUP2 DUP4 PUSH2 0x18BA JUMP JUMPDEST POP JUMP JUMPDEST POP POP JUMP INVALID LOG2 PUSH5 0x6970667358 0x22 SLT KECCAK256 0xB5 GAS 0xD2 PUSH4 0x3F6ABBFA 0xB0 PUSH29 0x451D775DFEF3CB8E3C88B6F9BE675248D2B709AD667564736F6C634300 ADDMOD EQ STOP CALLER "},"methodIdentifiers":{"DOMAIN_SEPARATOR()":"3644e515","FEE_DENOMINATOR()":"d73792a9","MAX_FEE()":"bc063e1a","OUTPUT_TOKEN_TIMELOCK()":"ed56dac9","PERMIT_TRANSFER_TYPEHASH()":"e0555801","TOKEN_PERMISSIONS_TYPEHASH()":"696c11e5","WBNB()":"8dd95002","applyOutputToken()":"50fd70c4","batchSwapToToken((address,uint256,uint256,uint8,uint24,uint256,uint256,bytes,uint256,uint8,bytes32,bytes32)[],uint256)":"413510ea","cancelOutputToken()":"49fcf0e4","emergencyWithdraw(address,uint256)":"95ccea67","feeRecipient()":"46904840","getEstimatedOutputs(address[],uint256[])":"273efee0","invalidateNonces(uint256,uint256)":"2bce68d2","nonceBitmap(address,uint256)":"4fe02b44","outputToken()":"c1d8d1d9","owner()":"8da5cb5b","pancakeRouterV2()":"d20ccdc2","pancakeRouterV3()":"e47aaf6d","pendingOutputToken()":"901a5402","pendingOutputTokenActiveAt()":"6a19c9c7","proposeOutputToken(address)":"6078af92","renounceOwnership()":"715018a6","serviceFee()":"8abdf5aa","setFee(uint256)":"69fe0e2d","setFeeRecipient(address)":"e74b981b","transferOwnership(address)":"f2fde38b"}}}}}