{"contracts/DustSwapRouterX.sol":{"DustSwapRouterX":{"abi":[{"inputs":[{"internalType":"address","name":"_pancakeRouterV2","type":"address"},{"internalType":"address","name":"_pancakeRouterV3","type":"address"},{"internalType":"address","name":"_outputToken","type":"address"},{"internalType":"address","name":"_feeRecipient","type":"address"},{"internalType":"uint256","name":"_initialFee","type":"uint256"}],"stateMutability":"nonpayable","type":"constructor"},{"inputs":[],"name":"DeadlineExpired","type":"error"},{"inputs":[],"name":"EmptySwapList","type":"error"},{"inputs":[],"name":"FeeTooHigh","type":"error"},{"inputs":[],"name":"InsufficientOutput","type":"error"},{"inputs":[],"name":"InvalidFeeRecipient","type":"error"},{"inputs":[],"name":"InvalidOutputToken","type":"error"},{"inputs":[],"name":"InvalidRouter","type":"error"},{"inputs":[],"name":"InvalidToken","type":"error"},{"inputs":[{"internalType":"address","name":"owner","type":"address"}],"name":"OwnableInvalidOwner","type":"error"},{"inputs":[{"internalType":"address","name":"account","type":"address"}],"name":"OwnableUnauthorizedAccount","type":"error"},{"inputs":[],"name":"ReentrancyGuardReentrantCall","type":"error"},{"inputs":[],"name":"TransferFailed","type":"error"},{"anonymous":false,"inputs":[{"indexed":true,"internalType":"address","name":"user","type":"address"},{"indexed":false,"internalType":"uint256","name":"tokensSwapped","type":"uint256"},{"indexed":false,"internalType":"uint256","name":"totalOutput","type":"uint256"},{"indexed":false,"internalType":"uint256","name":"fee","type":"uint256"},{"indexed":false,"internalType":"uint256","name":"userAmount","type":"uint256"},{"indexed":true,"internalType":"address","name":"outputToken","type":"address"}],"name":"BatchSwapCompleted","type":"event"},{"anonymous":false,"inputs":[{"indexed":true,"internalType":"address","name":"oldRecipient","type":"address"},{"indexed":true,"internalType":"address","name":"newRecipient","type":"address"}],"name":"FeeRecipientUpdated","type":"event"},{"anonymous":false,"inputs":[{"indexed":false,"internalType":"uint256","name":"oldFee","type":"uint256"},{"indexed":false,"internalType":"uint256","name":"newFee","type":"uint256"}],"name":"FeeUpdated","type":"event"},{"anonymous":false,"inputs":[{"indexed":true,"internalType":"address","name":"oldToken","type":"address"},{"indexed":true,"internalType":"address","name":"newToken","type":"address"}],"name":"OutputTokenUpdated","type":"event"},{"anonymous":false,"inputs":[{"indexed":true,"internalType":"address","name":"previousOwner","type":"address"},{"indexed":true,"internalType":"address","name":"newOwner","type":"address"}],"name":"OwnershipTransferred","type":"event"},{"anonymous":false,"inputs":[{"indexed":true,"internalType":"address","name":"user","type":"address"},{"indexed":true,"internalType":"address","name":"token","type":"address"},{"indexed":false,"internalType":"uint256","name":"amountIn","type":"uint256"},{"indexed":false,"internalType":"uint256","name":"amountOut","type":"uint256"},{"indexed":false,"internalType":"enum DustSwapRouterX.RouterVersion","name":"version","type":"uint8"}],"name":"SingleSwapCompleted","type":"event"},{"inputs":[],"name":"FEE_DENOMINATOR","outputs":[{"internalType":"uint256","name":"","type":"uint256"}],"stateMutability":"view","type":"function"},{"inputs":[],"name":"MAX_FEE","outputs":[{"internalType":"uint256","name":"","type":"uint256"}],"stateMutability":"view","type":"function"},{"inputs":[],"name":"WBNB","outputs":[{"internalType":"address","name":"","type":"address"}],"stateMutability":"view","type":"function"},{"inputs":[{"components":[{"internalType":"address","name":"token","type":"address"},{"internalType":"uint256","name":"amount","type":"uint256"},{"internalType":"uint256","name":"minAmountOut","type":"uint256"},{"internalType":"enum DustSwapRouterX.RouterVersion","name":"version","type":"uint8"},{"internalType":"uint24","name":"v3Fee","type":"uint24"}],"internalType":"struct DustSwapRouterX.SwapInstruction[]","name":"instructions","type":"tuple[]"},{"internalType":"uint256","name":"deadline","type":"uint256"}],"name":"batchSwapToToken","outputs":[{"internalType":"uint256","name":"userAmount","type":"uint256"}],"stateMutability":"nonpayable","type":"function"},{"inputs":[{"internalType":"address","name":"token","type":"address"},{"internalType":"uint256","name":"amount","type":"uint256"}],"name":"emergencyWithdraw","outputs":[],"stateMutability":"nonpayable","type":"function"},{"inputs":[],"name":"feeRecipient","outputs":[{"internalType":"address","name":"","type":"address"}],"stateMutability":"view","type":"function"},{"inputs":[{"internalType":"address[]","name":"tokens","type":"address[]"},{"internalType":"uint256[]","name":"amounts","type":"uint256[]"}],"name":"getEstimatedOutputs","outputs":[{"internalType":"uint256[]","name":"estimates","type":"uint256[]"}],"stateMutability":"view","type":"function"},{"inputs":[],"name":"outputToken","outputs":[{"internalType":"address","name":"","type":"address"}],"stateMutability":"view","type":"function"},{"inputs":[],"name":"owner","outputs":[{"internalType":"address","name":"","type":"address"}],"stateMutability":"view","type":"function"},{"inputs":[],"name":"pancakeRouterV2","outputs":[{"internalType":"contract IPancakeRouter02","name":"","type":"address"}],"stateMutability":"view","type":"function"},{"inputs":[],"name":"pancakeRouterV3","outputs":[{"internalType":"contract IPancakeV3SwapRouter","name":"","type":"address"}],"stateMutability":"view","type":"function"},{"inputs":[],"name":"renounceOwnership","outputs":[],"stateMutability":"nonpayable","type":"function"},{"inputs":[],"name":"serviceFee","outputs":[{"internalType":"uint256","name":"","type":"uint256"}],"stateMutability":"view","type":"function"},{"inputs":[{"internalType":"uint256","name":"_newFee","type":"uint256"}],"name":"setFee","outputs":[],"stateMutability":"nonpayable","type":"function"},{"inputs":[{"internalType":"address","name":"_newRecipient","type":"address"}],"name":"setFeeRecipient","outputs":[],"stateMutability":"nonpayable","type":"function"},{"inputs":[{"internalType":"address","name":"_newToken","type":"address"}],"name":"setOutputToken","outputs":[],"stateMutability":"nonpayable","type":"function"},{"inputs":[{"internalType":"address","name":"newOwner","type":"address"}],"name":"transferOwnership","outputs":[],"stateMutability":"nonpayable","type":"function"},{"stateMutability":"payable","type":"receive"}],"evm":{"bytecode":{"linkReferences":{},"object":"60e060409080825234620002a55760a08162001c2f8038038091620000258285620002aa565b833981010312620002a5576200003b81620002e4565b906200004a60208201620002e4565b9062000058848201620002e4565b9260806200006960608401620002e4565b9201519333156200028d5760008054336001600160a01b031980831682178455895190966001600160a01b03969495949193909287929183167f8be0079c531659141344cd1fd0a4f28419497f9722a3daafe3b4186f6b6457e08880a36001805516918215801562000282575b620002735750841695861562000262576113888811620002515781856020926004946080521660a0528951928380926315ab88c960e31b82525afa9283156200024657908185939294620001fb575b50508260c05216918215918215620001ee575b5050620001de578160025416176002556003541617600355600455516119359081620002fa823960805181818161027101528181610927015281816109fc01528181610a6201528181610fc3015261152d015260a05181818161020f015281816113300152611477015260c051818181610329015281816104830152818161099801528181610d6501528181610f56015281816113b10152818161157101526115c80152f35b84516231010160e51b8152600490fd5b1682149050388062000138565b91935091506020823d82116200023d575b816200021b60209383620002aa565b810103126200023a5750620002318391620002e4565b91388062000125565b80fd5b3d91506200020c565b8851903d90823e3d90fd5b885163cd4e616760e01b8152600490fd5b8851630ed1b8b360e31b8152600490fd5b63466d7fef60e01b8152600490fd5b5085881615620000d6565b8551631e4fbdf760e01b815260006004820152602490fd5b600080fd5b601f909101601f19168101906001600160401b03821190821017620002ce57604052565b634e487b7160e01b600052604160045260246000fd5b51906001600160a01b0382168203620002a55756fe608080604052600436101561001d575b50361561001b57600080fd5b005b60003560e01c908163273efee014610e28575080634690484014610dff578063647ebac01461051857806369fe0e2d146104aa5780636b5b2c31146103f8578063715018a61461039f5780638abdf5aa146103815780638da5cb5b146103585780638dd950021461031357806395ccea67146102e6578063bc063e1a146102c9578063c1d8d1d9146102a0578063d20ccdc21461025b578063d73792a91461023e578063e47aaf6d146101f9578063e74b981b146101785763f2fde38b146100e5573861000f565b34610173576020366003190112610173576100fe611141565b610106611157565b6001600160a01b0390811690811561015a57600054826bffffffffffffffffffffffff60a01b821617600055167f8be0079c531659141344cd1fd0a4f28419497f9722a3daafe3b4186f6b6457e0600080a3005b604051631e4fbdf760e01b815260006004820152602490fd5b600080fd5b3461017357602036600319011261017357610191611141565b610199611157565b6001600160a01b039081169081156101e757816003549182167faaebcf1bfa00580e41d966056b48521fa9f202645c86d4ddf28113e617c1b1d3600080a36001600160a01b03191617600355005b604051630ed1b8b360e31b8152600490fd5b34610173576000366003190112610173576040517f00000000000000000000000000000000000000000000000000000000000000006001600160a01b03168152602090f35b346101735760003660031901126101735760206040516127108152f35b34610173576000366003190112610173576040517f00000000000000000000000000000000000000000000000000000000000000006001600160a01b03168152602090f35b34610173576000366003190112610173576002546040516001600160a01b039091168152602090f35b346101735760003660031901126101735760206040516113888152f35b346101735760403660031901126101735761001b610302611141565b61030a611157565b6024359061181b565b34610173576000366003190112610173576040517f00000000000000000000000000000000000000000000000000000000000000006001600160a01b03168152602090f35b34610173576000366003190112610173576000546040516001600160a01b039091168152602090f35b34610173576000366003190112610173576020600454604051908152f35b34610173576000366003190112610173576103b8611157565b600080546001600160a01b0319811682556001600160a01b03167f8be0079c531659141344cd1fd0a4f28419497f9722a3daafe3b4186f6b6457e08280a3005b3461017357602036600319011261017357610411611141565b610419611157565b6001600160a01b03908116908115801561047f575b61046e57816002549182167ffdef5fa97f9834c3ce5c25f08d33b4e5a200f1055bc73fa7b69cc974c47b7b34600080a36001600160a01b03191617600255005b6040516231010160e51b8152600490fd5b50807f000000000000000000000000000000000000000000000000000000000000000016821461042e565b34610173576020366003190112610173576004356104c6611157565b6113888111610506577f528d9479e9f9889a87a3c30c7f7ba537e5e59c4c85a37733b16e57c62df6130260406004548151908152836020820152a1600455005b60405163cd4e616760e01b8152600490fd5b346101735760403660031901126101735767ffffffffffffffff8060043511610173573660236004350112156101735760043560040135116101735736602460a0600435600401350260043501011161017357600260015414610ded5760026001556024354211610ddb576004356004013515610dc9576002546040516370a0823160e01b81523060048201526001600160a01b0390911690602081602481855afa90811561070557600091610d97575b5060009060005b6004356004013581106107e457506040516370a0823160e01b815230600482015290602082602481875afa8015610705576000906107b0575b6106139250611226565b91821561079e576004548084029084820403610788576127109004916106398385611226565b9280610711575b60405163a9059cbb60e01b8152336004820152602481018590526020816044816000885af1908115610705576000916106d6575b50156106c4576020946040519283528583015260408201528260608201527fc5f91541570ee410396e78fff4d3ef181d35ec6e43cc346f958f4fe06b56c47260803392a360018055604051908152f35b6040516312171d8360e31b8152600490fd5b6106f8915060203d6020116106fe575b6106f081836111c9565b81019061120e565b86610674565b503d6106e6565b6040513d6000823e3d90fd5b60035460405163a9059cbb60e01b81526001600160a01b039091166004820152602481018290526020816044816000885af190811561070557600091610769575b50610640576040516312171d8360e31b8152600490fd5b610782915060203d6020116106fe576106f081836111c9565b86610752565b634e487b7160e01b600052601160045260246000fd5b60405163bb2875c360e01b8152600490fd5b506020823d6020116107dc575b816107ca602093836111c9565b81010312610173576106139151610609565b3d91506107bd565b6001600160a01b036107ff60043560a08402016024016111fa565b16158015610d4f575b8015610d2b575b610d1957604460a0820260043501013515610d10576001600160a01b0361083f60043560a08402016024016111fa565b166040516370a0823160e01b8152306004820152602081602481855afa90811561070557600091610cde575b506040516323b872dd60e01b8152336004820152306024820152604460a0850260043501013560448201526020816064816000875af190811561070557600091610cbf575b50156106c4576040516370a0823160e01b815230600482015290602082602481865afa801561070557600090610c8b575b6108eb9250611226565b906002608460a0850260043501013510156101735760043560a084020160840135610c4d5760405163095ea7b360e01b81526001600160a01b037f0000000000000000000000000000000000000000000000000000000000000000166004820152602481018390526020816044816000865af1801561070557610c2e575b50604051610976816111ad565b6003815260603660208301378161098c8261124b565b526109968161126e565b7f00000000000000000000000000000000000000000000000000000000000000006001600160a01b03169052866109cc8261127e565b526040516370a0823160e01b8152306004820152906020826024818b5afa91821561070557600092610bfa575b507f00000000000000000000000000000000000000000000000000000000000000006001600160a01b03163b15610173576000610a5d9160405180938192635c11d79560e01b8352602435903090606460a08d026004350101358b600487016112df565b0381837f00000000000000000000000000000000000000000000000000000000000000006001600160a01b03165af19081610beb575b50610b7c575060405163a9059cbb60e01b81523360048201526024810183905290602090829060449082906000905af1801561070557610b5d575b5060005b80610ae8575b5050610ae3906111eb565b6105d0565b610af6610ae39392956111eb565b946001600160a01b03610b1260043560a08602016024016111fa565b16916040519182526020820152608460a0840260043501013560408201527fa2c87abc3341789e0370a7baabed4f58835304c2b16a29536744ad19fcfd2e8460603392a39085610ad8565b610b759060203d6020116106fe576106f081836111c9565b5085610ace565b6040516370a0823160e01b815230600482015291506020826024818a5afa801561070557600090610bb7575b610bb29250611226565b610ad2565b506020823d602011610be3575b81610bd1602093836111c9565b8101031261017357610bb29151610ba8565b3d9150610bc4565b610bf490611183565b88610a93565b9091506020813d602011610c26575b81610c16602093836111c9565b81010312610173575190886109f9565b3d9150610c09565b610c469060203d6020116106fe576106f081836111c9565b5086610969565b60043560a084020160a4013562ffffff8116900361017357610bb29060243590879060043560a087020160648101359160a490910135908690611318565b506020823d602011610cb7575b81610ca5602093836111c9565b81010312610173576108eb91516108e1565b3d9150610c98565b610cd8915060203d6020116106fe576106f081836111c9565b876108b0565b90506020813d602011610d08575b81610cf9602093836111c9565b8101031261017357518661086b565b3d9150610cec565b610ae3906111eb565b60405163c1ab6dc160e01b8152600490fd5b50836001600160a01b03610d4860043560a08502016024016111fa565b161461080f565b50610d63602460a0830260043501016111fa565b7f00000000000000000000000000000000000000000000000000000000000000006001600160a01b03908116911614610808565b90506020813d602011610dc1575b81610db2602093836111c9565b810103126101735751826105c9565b3d9150610da5565b6040516386724c7f60e01b8152600490fd5b604051631ab7da6b60e01b8152600490fd5b604051633ee5aeb560e01b8152600490fd5b34610173576000366003190112610173576003546040516001600160a01b039091168152602090f35b346101735760403660031901126101735760043567ffffffffffffffff811161017357610e59903690600401611110565b9060243567ffffffffffffffff811161017357610e7a903690600401611110565b90938184036110dc5750610e8d83611233565b93610e9b60405195866111c9565b838552601f19610eaa85611233565b013660208701376002546001600160a01b031660005b858110610f0d578660405180916020820160208352815180915260206040840192019060005b818110610ef4575050500390f35b8251845285945060209384019390920191600101610ee6565b610fbf906000604051610f1f816111ad565b600381526060366020830137610f3e610f39848b8b61180b565b6111fa565b610f478261124b565b6001600160a01b0391821690527f000000000000000000000000000000000000000000000000000000000000000016610f7f8261126e565b5284610f8a8261127e565b52610f9683888861180b565b35604051948592839263d06ca61f60e01b845260048401526040602484015260448301906112a2565b03817f00000000000000000000000000000000000000000000000000000000000000006001600160a01b03165afa8060009161102b575b61101293506110175750600061100c828a61128e565b526111eb565b610ec0565b6110209061127e565b5161100c828a61128e565b919290503d806000833e61103f81836111c9565b60208282810103126101735781519167ffffffffffffffff831161017357818101601f84830101121561017357828101519061107a82611233565b9361108860405195866111c9565b8285526020850193820160208460051b83850101011161017357602081830101935b60208460051b838501010185106110cc57505050505090611012929190610ff6565b84518152602094850194016110aa565b62461bcd60e51b815260206004820152600f60248201526e098cadccee8d040dad2e6dac2e8c6d608b1b6044820152606490fd5b9181601f840112156101735782359167ffffffffffffffff8311610173576020808501948460051b01011161017357565b600435906001600160a01b038216820361017357565b6000546001600160a01b0316330361116b57565b60405163118cdaa760e01b8152336004820152602490fd5b67ffffffffffffffff811161119757604052565b634e487b7160e01b600052604160045260246000fd5b6080810190811067ffffffffffffffff82111761119757604052565b90601f8019910116810190811067ffffffffffffffff82111761119757604052565b60001981146107885760010190565b356001600160a01b03811681036101735790565b90816020910312610173575180151581036101735790565b9190820391821161078857565b67ffffffffffffffff81116111975760051b60200190565b8051156112585760200190565b634e487b7160e01b600052603260045260246000fd5b8051600110156112585760400190565b8051600210156112585760600190565b80518210156112585760209160051b010190565b90815180825260208080930193019160005b8281106112c2575050505090565b83516001600160a01b0316855293810193928101926001016112b4565b919260809361130492979695978452602084015260a0604084015260a08301906112a2565b6001600160a01b0390951660608201520152565b6040805163095ea7b360e01b81526001600160a01b037f0000000000000000000000000000000000000000000000000000000000000000811660048301526024820185905297989760009792969316949192906020816044818b8a5af18015611801576117e2575b5085519867ffffffffffffffff9260e08b018481118c8210176117ce579062ffffff918952878c5260018060a01b037f00000000000000000000000000000000000000000000000000000000000000001660208d015216878b01523060608b01528460808b01528760a08b01528760c08b01528651996304e45aaf60e01b8b5260018060a01b0381511660048c015260018060a01b0360208201511660248c015262ffffff888201511660448c015260018060a01b0360608201511660648c0152608081015160848c015260a081015160a48c015260c060018060a01b039101511660c48b015260208a60e4818b60018060a01b037f0000000000000000000000000000000000000000000000000000000000000000165af1808991611793575b899a9b5015600014611510575050855163a9059cbb60e01b81523360048201526024810194909452509194602093869350604492508391905af190811561150757506114eb575090565b6115039060203d6020116106fe576106f081836111c9565b5090565b513d84823e3d90fd5b929695509296509250801561178a57835163095ea7b360e01b81527f00000000000000000000000000000000000000000000000000000000000000006001600160a01b0316600482018190526024820183905290602081806044810103818c7f00000000000000000000000000000000000000000000000000000000000000006001600160a01b03165af1801561178057611761575b50845195606087019081118782101761174d57855260028652843660208801377f00000000000000000000000000000000000000000000000000000000000000006001600160a01b03166115f98761124b565b526116038661126e565b6001600160a01b039097169687905284516370a0823160e01b808252306004830152909690946020886024818c5afa978815611743578a9861170f575b50823b1561170b5790898094939261166f895197889687958694635c11d79560e01b86523092600487016112df565b03925af190816116f8575b50611686575050505090565b60209060248394959693518097819382523060048301525afa9182156116ee5750906116ba575b6116b79250611226565b90565b506020823d6020116116e6575b816116d4602093836111c9565b81010312610173576116b791516116ad565b3d91506116c7565b51903d90823e3d90fd5b61170490969196611183565b943861167a565b8980fd5b9097506020813d60201161173b575b8161172b602093836111c9565b8101031261170b57519638611640565b3d915061171e565b87513d8c823e3d90fd5b634e487b7160e01b89526041600452602489fd5b6117799060203d6020116106fe576106f081836111c9565b50386115a6565b86513d8b823e3d90fd5b50505050505090565b905060208b3d6020116117c6575b816117ae602093836111c9565b810103126117c257995198998a99906114a1565b8880fd5b3d91506117a1565b634e487b7160e01b8a52604160045260248afd5b6117fa9060203d6020116106fe576106f081836111c9565b5038611380565b87513d8a823e3d90fd5b91908110156112585760051b0190565b81156118fb576001600160a01b0390811680611899575060008080809481948254165af1903d15611893573d9067ffffffffffffffff821161187f576040519161186f601f8201601f1916602001846111c9565b825260203d92013e5b156106c457565b634e487b7160e01b81526041600452602490fd5b50611878565b6000805460405163a9059cbb60e01b815293166001600160a01b031660048401526024830193909352909160209183918290816044810103925af18015610705576118e15750565b6118f89060203d81116106fe576106f081836111c9565b50565b505056fea26469706673582212205d12ee3cc13d9a453533c06ad48ac226d675881fd7de76134bf7ce487c11a5b964736f6c63430008140033","opcodes":"PUSH1 0xE0 PUSH1 0x40 SWAP1 DUP1 DUP3 MSTORE CALLVALUE PUSH3 0x2A5 JUMPI PUSH1 0xA0 DUP2 PUSH3 0x1C2F DUP1 CODESIZE SUB DUP1 SWAP2 PUSH3 0x25 DUP3 DUP6 PUSH3 0x2AA JUMP JUMPDEST DUP4 CODECOPY DUP2 ADD SUB SLT PUSH3 0x2A5 JUMPI PUSH3 0x3B DUP2 PUSH3 0x2E4 JUMP JUMPDEST SWAP1 PUSH3 0x4A PUSH1 0x20 DUP3 ADD PUSH3 0x2E4 JUMP JUMPDEST SWAP1 PUSH3 0x58 DUP5 DUP3 ADD PUSH3 0x2E4 JUMP JUMPDEST SWAP3 PUSH1 0x80 PUSH3 0x69 PUSH1 0x60 DUP5 ADD PUSH3 0x2E4 JUMP JUMPDEST SWAP3 ADD MLOAD SWAP4 CALLER ISZERO PUSH3 0x28D JUMPI PUSH1 0x0 DUP1 SLOAD CALLER PUSH1 0x1 PUSH1 0x1 PUSH1 0xA0 SHL SUB NOT DUP1 DUP4 AND DUP3 OR DUP5 SSTORE DUP10 MLOAD SWAP1 SWAP7 PUSH1 0x1 PUSH1 0x1 PUSH1 0xA0 SHL SUB SWAP7 SWAP5 SWAP6 SWAP5 SWAP2 SWAP4 SWAP1 SWAP3 DUP8 SWAP3 SWAP2 DUP4 AND PUSH32 0x8BE0079C531659141344CD1FD0A4F28419497F9722A3DAAFE3B4186F6B6457E0 DUP9 DUP1 LOG3 PUSH1 0x1 DUP1 SSTORE AND SWAP2 DUP3 ISZERO DUP1 ISZERO PUSH3 0x282 JUMPI JUMPDEST PUSH3 0x273 JUMPI POP DUP5 AND SWAP6 DUP7 ISZERO PUSH3 0x262 JUMPI PUSH2 0x1388 DUP9 GT PUSH3 0x251 JUMPI DUP2 DUP6 PUSH1 0x20 SWAP3 PUSH1 0x4 SWAP5 PUSH1 0x80 MSTORE AND PUSH1 0xA0 MSTORE DUP10 MLOAD SWAP3 DUP4 DUP1 SWAP3 PUSH4 0x15AB88C9 PUSH1 0xE3 SHL DUP3 MSTORE GAS STATICCALL SWAP3 DUP4 ISZERO PUSH3 0x246 JUMPI SWAP1 DUP2 DUP6 SWAP4 SWAP3 SWAP5 PUSH3 0x1FB JUMPI JUMPDEST POP POP DUP3 PUSH1 0xC0 MSTORE AND SWAP2 DUP3 ISZERO SWAP2 DUP3 ISZERO PUSH3 0x1EE JUMPI JUMPDEST POP POP PUSH3 0x1DE JUMPI DUP2 PUSH1 0x2 SLOAD AND OR PUSH1 0x2 SSTORE PUSH1 0x3 SLOAD AND OR PUSH1 0x3 SSTORE PUSH1 0x4 SSTORE MLOAD PUSH2 0x1935 SWAP1 DUP2 PUSH3 0x2FA DUP3 CODECOPY PUSH1 0x80 MLOAD DUP2 DUP2 DUP2 PUSH2 0x271 ADD MSTORE DUP2 DUP2 PUSH2 0x927 ADD MSTORE DUP2 DUP2 PUSH2 0x9FC ADD MSTORE DUP2 DUP2 PUSH2 0xA62 ADD MSTORE DUP2 DUP2 PUSH2 0xFC3 ADD MSTORE PUSH2 0x152D ADD MSTORE PUSH1 0xA0 MLOAD DUP2 DUP2 DUP2 PUSH2 0x20F ADD MSTORE DUP2 DUP2 PUSH2 0x1330 ADD MSTORE PUSH2 0x1477 ADD MSTORE PUSH1 0xC0 MLOAD DUP2 DUP2 DUP2 PUSH2 0x329 ADD MSTORE DUP2 DUP2 PUSH2 0x483 ADD MSTORE DUP2 DUP2 PUSH2 0x998 ADD MSTORE DUP2 DUP2 PUSH2 0xD65 ADD MSTORE DUP2 DUP2 PUSH2 0xF56 ADD MSTORE DUP2 DUP2 PUSH2 0x13B1 ADD MSTORE DUP2 DUP2 PUSH2 0x1571 ADD MSTORE PUSH2 0x15C8 ADD MSTORE RETURN JUMPDEST DUP5 MLOAD PUSH3 0x310101 PUSH1 0xE5 SHL DUP2 MSTORE PUSH1 0x4 SWAP1 REVERT JUMPDEST AND DUP3 EQ SWAP1 POP CODESIZE DUP1 PUSH3 0x138 JUMP JUMPDEST SWAP2 SWAP4 POP SWAP2 POP PUSH1 0x20 DUP3 RETURNDATASIZE DUP3 GT PUSH3 0x23D JUMPI JUMPDEST DUP2 PUSH3 0x21B PUSH1 0x20 SWAP4 DUP4 PUSH3 0x2AA JUMP JUMPDEST DUP2 ADD SUB SLT PUSH3 0x23A JUMPI POP PUSH3 0x231 DUP4 SWAP2 PUSH3 0x2E4 JUMP JUMPDEST SWAP2 CODESIZE DUP1 PUSH3 0x125 JUMP JUMPDEST DUP1 REVERT JUMPDEST RETURNDATASIZE SWAP2 POP PUSH3 0x20C JUMP JUMPDEST DUP9 MLOAD SWAP1 RETURNDATASIZE SWAP1 DUP3 RETURNDATACOPY RETURNDATASIZE SWAP1 REVERT JUMPDEST DUP9 MLOAD PUSH4 0xCD4E6167 PUSH1 0xE0 SHL DUP2 MSTORE PUSH1 0x4 SWAP1 REVERT JUMPDEST DUP9 MLOAD PUSH4 0xED1B8B3 PUSH1 0xE3 SHL DUP2 MSTORE PUSH1 0x4 SWAP1 REVERT JUMPDEST PUSH4 0x466D7FEF PUSH1 0xE0 SHL DUP2 MSTORE PUSH1 0x4 SWAP1 REVERT JUMPDEST POP DUP6 DUP9 AND ISZERO PUSH3 0xD6 JUMP JUMPDEST DUP6 MLOAD PUSH4 0x1E4FBDF7 PUSH1 0xE0 SHL DUP2 MSTORE PUSH1 0x0 PUSH1 0x4 DUP3 ADD MSTORE PUSH1 0x24 SWAP1 REVERT JUMPDEST PUSH1 0x0 DUP1 REVERT JUMPDEST PUSH1 0x1F SWAP1 SWAP2 ADD PUSH1 0x1F NOT AND DUP2 ADD SWAP1 PUSH1 0x1 PUSH1 0x1 PUSH1 0x40 SHL SUB DUP3 GT SWAP1 DUP3 LT OR PUSH3 0x2CE JUMPI PUSH1 0x40 MSTORE JUMP JUMPDEST PUSH4 0x4E487B71 PUSH1 0xE0 SHL PUSH1 0x0 MSTORE PUSH1 0x41 PUSH1 0x4 MSTORE PUSH1 0x24 PUSH1 0x0 REVERT JUMPDEST MLOAD SWAP1 PUSH1 0x1 PUSH1 0x1 PUSH1 0xA0 SHL SUB DUP3 AND DUP3 SUB PUSH3 0x2A5 JUMPI JUMP INVALID PUSH1 0x80 DUP1 PUSH1 0x40 MSTORE PUSH1 0x4 CALLDATASIZE LT ISZERO PUSH2 0x1D JUMPI JUMPDEST POP CALLDATASIZE ISZERO PUSH2 0x1B JUMPI PUSH1 0x0 DUP1 REVERT JUMPDEST STOP JUMPDEST PUSH1 0x0 CALLDATALOAD PUSH1 0xE0 SHR SWAP1 DUP2 PUSH4 0x273EFEE0 EQ PUSH2 0xE28 JUMPI POP DUP1 PUSH4 0x46904840 EQ PUSH2 0xDFF JUMPI DUP1 PUSH4 0x647EBAC0 EQ PUSH2 0x518 JUMPI DUP1 PUSH4 0x69FE0E2D EQ PUSH2 0x4AA JUMPI DUP1 PUSH4 0x6B5B2C31 EQ PUSH2 0x3F8 JUMPI DUP1 PUSH4 0x715018A6 EQ PUSH2 0x39F JUMPI DUP1 PUSH4 0x8ABDF5AA EQ PUSH2 0x381 JUMPI DUP1 PUSH4 0x8DA5CB5B EQ PUSH2 0x358 JUMPI DUP1 PUSH4 0x8DD95002 EQ PUSH2 0x313 JUMPI DUP1 PUSH4 0x95CCEA67 EQ PUSH2 0x2E6 JUMPI DUP1 PUSH4 0xBC063E1A EQ PUSH2 0x2C9 JUMPI DUP1 PUSH4 0xC1D8D1D9 EQ PUSH2 0x2A0 JUMPI DUP1 PUSH4 0xD20CCDC2 EQ PUSH2 0x25B JUMPI DUP1 PUSH4 0xD73792A9 EQ PUSH2 0x23E JUMPI DUP1 PUSH4 0xE47AAF6D EQ PUSH2 0x1F9 JUMPI DUP1 PUSH4 0xE74B981B EQ PUSH2 0x178 JUMPI PUSH4 0xF2FDE38B EQ PUSH2 0xE5 JUMPI CODESIZE PUSH2 0xF JUMP JUMPDEST CALLVALUE PUSH2 0x173 JUMPI PUSH1 0x20 CALLDATASIZE PUSH1 0x3 NOT ADD SLT PUSH2 0x173 JUMPI PUSH2 0xFE PUSH2 0x1141 JUMP JUMPDEST PUSH2 0x106 PUSH2 0x1157 JUMP JUMPDEST PUSH1 0x1 PUSH1 0x1 PUSH1 0xA0 SHL SUB SWAP1 DUP2 AND SWAP1 DUP2 ISZERO PUSH2 0x15A JUMPI PUSH1 0x0 SLOAD DUP3 PUSH12 0xFFFFFFFFFFFFFFFFFFFFFFFF PUSH1 0xA0 SHL DUP3 AND OR PUSH1 0x0 SSTORE AND PUSH32 0x8BE0079C531659141344CD1FD0A4F28419497F9722A3DAAFE3B4186F6B6457E0 PUSH1 0x0 DUP1 LOG3 STOP JUMPDEST PUSH1 0x40 MLOAD PUSH4 0x1E4FBDF7 PUSH1 0xE0 SHL DUP2 MSTORE PUSH1 0x0 PUSH1 0x4 DUP3 ADD MSTORE PUSH1 0x24 SWAP1 REVERT JUMPDEST PUSH1 0x0 DUP1 REVERT JUMPDEST CALLVALUE PUSH2 0x173 JUMPI PUSH1 0x20 CALLDATASIZE PUSH1 0x3 NOT ADD SLT PUSH2 0x173 JUMPI PUSH2 0x191 PUSH2 0x1141 JUMP JUMPDEST PUSH2 0x199 PUSH2 0x1157 JUMP JUMPDEST PUSH1 0x1 PUSH1 0x1 PUSH1 0xA0 SHL SUB SWAP1 DUP2 AND SWAP1 DUP2 ISZERO PUSH2 0x1E7 JUMPI DUP2 PUSH1 0x3 SLOAD SWAP2 DUP3 AND PUSH32 0xAAEBCF1BFA00580E41D966056B48521FA9F202645C86D4DDF28113E617C1B1D3 PUSH1 0x0 DUP1 LOG3 PUSH1 0x1 PUSH1 0x1 PUSH1 0xA0 SHL SUB NOT AND OR PUSH1 0x3 SSTORE STOP JUMPDEST PUSH1 0x40 MLOAD PUSH4 0xED1B8B3 PUSH1 0xE3 SHL DUP2 MSTORE PUSH1 0x4 SWAP1 REVERT JUMPDEST CALLVALUE PUSH2 0x173 JUMPI PUSH1 0x0 CALLDATASIZE PUSH1 0x3 NOT ADD SLT PUSH2 0x173 JUMPI PUSH1 0x40 MLOAD PUSH32 0x0 PUSH1 0x1 PUSH1 0x1 PUSH1 0xA0 SHL SUB AND DUP2 MSTORE PUSH1 0x20 SWAP1 RETURN JUMPDEST CALLVALUE PUSH2 0x173 JUMPI PUSH1 0x0 CALLDATASIZE PUSH1 0x3 NOT ADD SLT PUSH2 0x173 JUMPI PUSH1 0x20 PUSH1 0x40 MLOAD PUSH2 0x2710 DUP2 MSTORE RETURN JUMPDEST CALLVALUE PUSH2 0x173 JUMPI PUSH1 0x0 CALLDATASIZE PUSH1 0x3 NOT ADD SLT PUSH2 0x173 JUMPI PUSH1 0x40 MLOAD PUSH32 0x0 PUSH1 0x1 PUSH1 0x1 PUSH1 0xA0 SHL SUB AND DUP2 MSTORE PUSH1 0x20 SWAP1 RETURN JUMPDEST CALLVALUE PUSH2 0x173 JUMPI PUSH1 0x0 CALLDATASIZE PUSH1 0x3 NOT ADD SLT PUSH2 0x173 JUMPI PUSH1 0x2 SLOAD PUSH1 0x40 MLOAD PUSH1 0x1 PUSH1 0x1 PUSH1 0xA0 SHL SUB SWAP1 SWAP2 AND DUP2 MSTORE PUSH1 0x20 SWAP1 RETURN JUMPDEST CALLVALUE PUSH2 0x173 JUMPI PUSH1 0x0 CALLDATASIZE PUSH1 0x3 NOT ADD SLT PUSH2 0x173 JUMPI PUSH1 0x20 PUSH1 0x40 MLOAD PUSH2 0x1388 DUP2 MSTORE RETURN JUMPDEST CALLVALUE PUSH2 0x173 JUMPI PUSH1 0x40 CALLDATASIZE PUSH1 0x3 NOT ADD SLT PUSH2 0x173 JUMPI PUSH2 0x1B PUSH2 0x302 PUSH2 0x1141 JUMP JUMPDEST PUSH2 0x30A PUSH2 0x1157 JUMP JUMPDEST PUSH1 0x24 CALLDATALOAD SWAP1 PUSH2 0x181B JUMP JUMPDEST CALLVALUE PUSH2 0x173 JUMPI PUSH1 0x0 CALLDATASIZE PUSH1 0x3 NOT ADD SLT PUSH2 0x173 JUMPI PUSH1 0x40 MLOAD PUSH32 0x0 PUSH1 0x1 PUSH1 0x1 PUSH1 0xA0 SHL SUB AND DUP2 MSTORE PUSH1 0x20 SWAP1 RETURN JUMPDEST CALLVALUE PUSH2 0x173 JUMPI PUSH1 0x0 CALLDATASIZE PUSH1 0x3 NOT ADD SLT PUSH2 0x173 JUMPI PUSH1 0x0 SLOAD PUSH1 0x40 MLOAD PUSH1 0x1 PUSH1 0x1 PUSH1 0xA0 SHL SUB SWAP1 SWAP2 AND DUP2 MSTORE PUSH1 0x20 SWAP1 RETURN JUMPDEST CALLVALUE PUSH2 0x173 JUMPI PUSH1 0x0 CALLDATASIZE PUSH1 0x3 NOT ADD SLT PUSH2 0x173 JUMPI PUSH1 0x20 PUSH1 0x4 SLOAD PUSH1 0x40 MLOAD SWAP1 DUP2 MSTORE RETURN JUMPDEST CALLVALUE PUSH2 0x173 JUMPI PUSH1 0x0 CALLDATASIZE PUSH1 0x3 NOT ADD SLT PUSH2 0x173 JUMPI PUSH2 0x3B8 PUSH2 0x1157 JUMP JUMPDEST PUSH1 0x0 DUP1 SLOAD PUSH1 0x1 PUSH1 0x1 PUSH1 0xA0 SHL SUB NOT DUP2 AND DUP3 SSTORE PUSH1 0x1 PUSH1 0x1 PUSH1 0xA0 SHL SUB AND PUSH32 0x8BE0079C531659141344CD1FD0A4F28419497F9722A3DAAFE3B4186F6B6457E0 DUP3 DUP1 LOG3 STOP JUMPDEST CALLVALUE PUSH2 0x173 JUMPI PUSH1 0x20 CALLDATASIZE PUSH1 0x3 NOT ADD SLT PUSH2 0x173 JUMPI PUSH2 0x411 PUSH2 0x1141 JUMP JUMPDEST PUSH2 0x419 PUSH2 0x1157 JUMP JUMPDEST PUSH1 0x1 PUSH1 0x1 PUSH1 0xA0 SHL SUB SWAP1 DUP2 AND SWAP1 DUP2 ISZERO DUP1 ISZERO PUSH2 0x47F JUMPI JUMPDEST PUSH2 0x46E JUMPI DUP2 PUSH1 0x2 SLOAD SWAP2 DUP3 AND PUSH32 0xFDEF5FA97F9834C3CE5C25F08D33B4E5A200F1055BC73FA7B69CC974C47B7B34 PUSH1 0x0 DUP1 LOG3 PUSH1 0x1 PUSH1 0x1 PUSH1 0xA0 SHL SUB NOT AND OR PUSH1 0x2 SSTORE STOP JUMPDEST PUSH1 0x40 MLOAD PUSH3 0x310101 PUSH1 0xE5 SHL DUP2 MSTORE PUSH1 0x4 SWAP1 REVERT JUMPDEST POP DUP1 PUSH32 0x0 AND DUP3 EQ PUSH2 0x42E JUMP JUMPDEST CALLVALUE PUSH2 0x173 JUMPI PUSH1 0x20 CALLDATASIZE PUSH1 0x3 NOT ADD SLT PUSH2 0x173 JUMPI PUSH1 0x4 CALLDATALOAD PUSH2 0x4C6 PUSH2 0x1157 JUMP JUMPDEST PUSH2 0x1388 DUP2 GT PUSH2 0x506 JUMPI PUSH32 0x528D9479E9F9889A87A3C30C7F7BA537E5E59C4C85A37733B16E57C62DF61302 PUSH1 0x40 PUSH1 0x4 SLOAD DUP2 MLOAD SWAP1 DUP2 MSTORE DUP4 PUSH1 0x20 DUP3 ADD MSTORE LOG1 PUSH1 0x4 SSTORE STOP JUMPDEST PUSH1 0x40 MLOAD PUSH4 0xCD4E6167 PUSH1 0xE0 SHL DUP2 MSTORE PUSH1 0x4 SWAP1 REVERT JUMPDEST CALLVALUE PUSH2 0x173 JUMPI PUSH1 0x40 CALLDATASIZE PUSH1 0x3 NOT ADD SLT PUSH2 0x173 JUMPI PUSH8 0xFFFFFFFFFFFFFFFF DUP1 PUSH1 0x4 CALLDATALOAD GT PUSH2 0x173 JUMPI CALLDATASIZE PUSH1 0x23 PUSH1 0x4 CALLDATALOAD ADD SLT ISZERO PUSH2 0x173 JUMPI PUSH1 0x4 CALLDATALOAD PUSH1 0x4 ADD CALLDATALOAD GT PUSH2 0x173 JUMPI CALLDATASIZE PUSH1 0x24 PUSH1 0xA0 PUSH1 0x4 CALLDATALOAD PUSH1 0x4 ADD CALLDATALOAD MUL PUSH1 0x4 CALLDATALOAD ADD ADD GT PUSH2 0x173 JUMPI PUSH1 0x2 PUSH1 0x1 SLOAD EQ PUSH2 0xDED JUMPI PUSH1 0x2 PUSH1 0x1 SSTORE PUSH1 0x24 CALLDATALOAD TIMESTAMP GT PUSH2 0xDDB JUMPI PUSH1 0x4 CALLDATALOAD PUSH1 0x4 ADD CALLDATALOAD ISZERO PUSH2 0xDC9 JUMPI PUSH1 0x2 SLOAD PUSH1 0x40 MLOAD PUSH4 0x70A08231 PUSH1 0xE0 SHL DUP2 MSTORE ADDRESS PUSH1 0x4 DUP3 ADD MSTORE PUSH1 0x1 PUSH1 0x1 PUSH1 0xA0 SHL SUB SWAP1 SWAP2 AND SWAP1 PUSH1 0x20 DUP2 PUSH1 0x24 DUP2 DUP6 GAS STATICCALL SWAP1 DUP2 ISZERO PUSH2 0x705 JUMPI PUSH1 0x0 SWAP2 PUSH2 0xD97 JUMPI JUMPDEST POP PUSH1 0x0 SWAP1 PUSH1 0x0 JUMPDEST PUSH1 0x4 CALLDATALOAD PUSH1 0x4 ADD CALLDATALOAD DUP2 LT PUSH2 0x7E4 JUMPI POP PUSH1 0x40 MLOAD PUSH4 0x70A08231 PUSH1 0xE0 SHL DUP2 MSTORE ADDRESS PUSH1 0x4 DUP3 ADD MSTORE SWAP1 PUSH1 0x20 DUP3 PUSH1 0x24 DUP2 DUP8 GAS STATICCALL DUP1 ISZERO PUSH2 0x705 JUMPI PUSH1 0x0 SWAP1 PUSH2 0x7B0 JUMPI JUMPDEST PUSH2 0x613 SWAP3 POP PUSH2 0x1226 JUMP JUMPDEST SWAP2 DUP3 ISZERO PUSH2 0x79E JUMPI PUSH1 0x4 SLOAD DUP1 DUP5 MUL SWAP1 DUP5 DUP3 DIV SUB PUSH2 0x788 JUMPI PUSH2 0x2710 SWAP1 DIV SWAP2 PUSH2 0x639 DUP4 DUP6 PUSH2 0x1226 JUMP JUMPDEST SWAP3 DUP1 PUSH2 0x711 JUMPI JUMPDEST PUSH1 0x40 MLOAD PUSH4 0xA9059CBB PUSH1 0xE0 SHL DUP2 MSTORE CALLER PUSH1 0x4 DUP3 ADD MSTORE PUSH1 0x24 DUP2 ADD DUP6 SWAP1 MSTORE PUSH1 0x20 DUP2 PUSH1 0x44 DUP2 PUSH1 0x0 DUP9 GAS CALL SWAP1 DUP2 ISZERO PUSH2 0x705 JUMPI PUSH1 0x0 SWAP2 PUSH2 0x6D6 JUMPI JUMPDEST POP ISZERO PUSH2 0x6C4 JUMPI PUSH1 0x20 SWAP5 PUSH1 0x40 MLOAD SWAP3 DUP4 MSTORE DUP6 DUP4 ADD MSTORE PUSH1 0x40 DUP3 ADD MSTORE DUP3 PUSH1 0x60 DUP3 ADD MSTORE PUSH32 0xC5F91541570EE410396E78FFF4D3EF181D35EC6E43CC346F958F4FE06B56C472 PUSH1 0x80 CALLER SWAP3 LOG3 PUSH1 0x1 DUP1 SSTORE PUSH1 0x40 MLOAD SWAP1 DUP2 MSTORE RETURN JUMPDEST PUSH1 0x40 MLOAD PUSH4 0x12171D83 PUSH1 0xE3 SHL DUP2 MSTORE PUSH1 0x4 SWAP1 REVERT JUMPDEST PUSH2 0x6F8 SWAP2 POP PUSH1 0x20 RETURNDATASIZE PUSH1 0x20 GT PUSH2 0x6FE JUMPI JUMPDEST PUSH2 0x6F0 DUP2 DUP4 PUSH2 0x11C9 JUMP JUMPDEST DUP2 ADD SWAP1 PUSH2 0x120E JUMP JUMPDEST DUP7 PUSH2 0x674 JUMP JUMPDEST POP RETURNDATASIZE PUSH2 0x6E6 JUMP JUMPDEST PUSH1 0x40 MLOAD RETURNDATASIZE PUSH1 0x0 DUP3 RETURNDATACOPY RETURNDATASIZE SWAP1 REVERT JUMPDEST PUSH1 0x3 SLOAD PUSH1 0x40 MLOAD PUSH4 0xA9059CBB PUSH1 0xE0 SHL DUP2 MSTORE PUSH1 0x1 PUSH1 0x1 PUSH1 0xA0 SHL SUB SWAP1 SWAP2 AND PUSH1 0x4 DUP3 ADD MSTORE PUSH1 0x24 DUP2 ADD DUP3 SWAP1 MSTORE PUSH1 0x20 DUP2 PUSH1 0x44 DUP2 PUSH1 0x0 DUP9 GAS CALL SWAP1 DUP2 ISZERO PUSH2 0x705 JUMPI PUSH1 0x0 SWAP2 PUSH2 0x769 JUMPI JUMPDEST POP PUSH2 0x640 JUMPI PUSH1 0x40 MLOAD PUSH4 0x12171D83 PUSH1 0xE3 SHL DUP2 MSTORE PUSH1 0x4 SWAP1 REVERT JUMPDEST PUSH2 0x782 SWAP2 POP PUSH1 0x20 RETURNDATASIZE PUSH1 0x20 GT PUSH2 0x6FE JUMPI PUSH2 0x6F0 DUP2 DUP4 PUSH2 0x11C9 JUMP JUMPDEST DUP7 PUSH2 0x752 JUMP JUMPDEST PUSH4 0x4E487B71 PUSH1 0xE0 SHL PUSH1 0x0 MSTORE PUSH1 0x11 PUSH1 0x4 MSTORE PUSH1 0x24 PUSH1 0x0 REVERT JUMPDEST PUSH1 0x40 MLOAD PUSH4 0xBB2875C3 PUSH1 0xE0 SHL DUP2 MSTORE PUSH1 0x4 SWAP1 REVERT JUMPDEST POP PUSH1 0x20 DUP3 RETURNDATASIZE PUSH1 0x20 GT PUSH2 0x7DC JUMPI JUMPDEST DUP2 PUSH2 0x7CA PUSH1 0x20 SWAP4 DUP4 PUSH2 0x11C9 JUMP JUMPDEST DUP2 ADD SUB SLT PUSH2 0x173 JUMPI PUSH2 0x613 SWAP2 MLOAD PUSH2 0x609 JUMP JUMPDEST RETURNDATASIZE SWAP2 POP PUSH2 0x7BD JUMP JUMPDEST PUSH1 0x1 PUSH1 0x1 PUSH1 0xA0 SHL SUB PUSH2 0x7FF PUSH1 0x4 CALLDATALOAD PUSH1 0xA0 DUP5 MUL ADD PUSH1 0x24 ADD PUSH2 0x11FA JUMP JUMPDEST AND ISZERO DUP1 ISZERO PUSH2 0xD4F JUMPI JUMPDEST DUP1 ISZERO PUSH2 0xD2B JUMPI JUMPDEST PUSH2 0xD19 JUMPI PUSH1 0x44 PUSH1 0xA0 DUP3 MUL PUSH1 0x4 CALLDATALOAD ADD ADD CALLDATALOAD ISZERO PUSH2 0xD10 JUMPI PUSH1 0x1 PUSH1 0x1 PUSH1 0xA0 SHL SUB PUSH2 0x83F PUSH1 0x4 CALLDATALOAD PUSH1 0xA0 DUP5 MUL ADD PUSH1 0x24 ADD PUSH2 0x11FA JUMP JUMPDEST AND PUSH1 0x40 MLOAD PUSH4 0x70A08231 PUSH1 0xE0 SHL DUP2 MSTORE ADDRESS PUSH1 0x4 DUP3 ADD MSTORE PUSH1 0x20 DUP2 PUSH1 0x24 DUP2 DUP6 GAS STATICCALL SWAP1 DUP2 ISZERO PUSH2 0x705 JUMPI PUSH1 0x0 SWAP2 PUSH2 0xCDE JUMPI JUMPDEST POP PUSH1 0x40 MLOAD PUSH4 0x23B872DD PUSH1 0xE0 SHL DUP2 MSTORE CALLER PUSH1 0x4 DUP3 ADD MSTORE ADDRESS PUSH1 0x24 DUP3 ADD MSTORE PUSH1 0x44 PUSH1 0xA0 DUP6 MUL PUSH1 0x4 CALLDATALOAD ADD ADD CALLDATALOAD PUSH1 0x44 DUP3 ADD MSTORE PUSH1 0x20 DUP2 PUSH1 0x64 DUP2 PUSH1 0x0 DUP8 GAS CALL SWAP1 DUP2 ISZERO PUSH2 0x705 JUMPI PUSH1 0x0 SWAP2 PUSH2 0xCBF JUMPI JUMPDEST POP ISZERO PUSH2 0x6C4 JUMPI PUSH1 0x40 MLOAD PUSH4 0x70A08231 PUSH1 0xE0 SHL DUP2 MSTORE ADDRESS PUSH1 0x4 DUP3 ADD MSTORE SWAP1 PUSH1 0x20 DUP3 PUSH1 0x24 DUP2 DUP7 GAS STATICCALL DUP1 ISZERO PUSH2 0x705 JUMPI PUSH1 0x0 SWAP1 PUSH2 0xC8B JUMPI JUMPDEST PUSH2 0x8EB SWAP3 POP PUSH2 0x1226 JUMP JUMPDEST SWAP1 PUSH1 0x2 PUSH1 0x84 PUSH1 0xA0 DUP6 MUL PUSH1 0x4 CALLDATALOAD ADD ADD CALLDATALOAD LT ISZERO PUSH2 0x173 JUMPI PUSH1 0x4 CALLDATALOAD PUSH1 0xA0 DUP5 MUL ADD PUSH1 0x84 ADD CALLDATALOAD PUSH2 0xC4D JUMPI PUSH1 0x40 MLOAD PUSH4 0x95EA7B3 PUSH1 0xE0 SHL DUP2 MSTORE PUSH1 0x1 PUSH1 0x1 PUSH1 0xA0 SHL SUB PUSH32 0x0 AND PUSH1 0x4 DUP3 ADD MSTORE PUSH1 0x24 DUP2 ADD DUP4 SWAP1 MSTORE PUSH1 0x20 DUP2 PUSH1 0x44 DUP2 PUSH1 0x0 DUP7 GAS CALL DUP1 ISZERO PUSH2 0x705 JUMPI PUSH2 0xC2E JUMPI JUMPDEST POP PUSH1 0x40 MLOAD PUSH2 0x976 DUP2 PUSH2 0x11AD JUMP JUMPDEST PUSH1 0x3 DUP2 MSTORE PUSH1 0x60 CALLDATASIZE PUSH1 0x20 DUP4 ADD CALLDATACOPY DUP2 PUSH2 0x98C DUP3 PUSH2 0x124B JUMP JUMPDEST MSTORE PUSH2 0x996 DUP2 PUSH2 0x126E JUMP JUMPDEST PUSH32 0x0 PUSH1 0x1 PUSH1 0x1 PUSH1 0xA0 SHL SUB AND SWAP1 MSTORE DUP7 PUSH2 0x9CC DUP3 PUSH2 0x127E JUMP JUMPDEST MSTORE PUSH1 0x40 MLOAD PUSH4 0x70A08231 PUSH1 0xE0 SHL DUP2 MSTORE ADDRESS PUSH1 0x4 DUP3 ADD MSTORE SWAP1 PUSH1 0x20 DUP3 PUSH1 0x24 DUP2 DUP12 GAS STATICCALL SWAP2 DUP3 ISZERO PUSH2 0x705 JUMPI PUSH1 0x0 SWAP3 PUSH2 0xBFA JUMPI JUMPDEST POP PUSH32 0x0 PUSH1 0x1 PUSH1 0x1 PUSH1 0xA0 SHL SUB AND EXTCODESIZE ISZERO PUSH2 0x173 JUMPI PUSH1 0x0 PUSH2 0xA5D SWAP2 PUSH1 0x40 MLOAD DUP1 SWAP4 DUP2 SWAP3 PUSH4 0x5C11D795 PUSH1 0xE0 SHL DUP4 MSTORE PUSH1 0x24 CALLDATALOAD SWAP1 ADDRESS SWAP1 PUSH1 0x64 PUSH1 0xA0 DUP14 MUL PUSH1 0x4 CALLDATALOAD ADD ADD CALLDATALOAD DUP12 PUSH1 0x4 DUP8 ADD PUSH2 0x12DF JUMP JUMPDEST SUB DUP2 DUP4 PUSH32 0x0 PUSH1 0x1 PUSH1 0x1 PUSH1 0xA0 SHL SUB AND GAS CALL SWAP1 DUP2 PUSH2 0xBEB JUMPI JUMPDEST POP PUSH2 0xB7C JUMPI POP PUSH1 0x40 MLOAD PUSH4 0xA9059CBB PUSH1 0xE0 SHL DUP2 MSTORE CALLER PUSH1 0x4 DUP3 ADD MSTORE PUSH1 0x24 DUP2 ADD DUP4 SWAP1 MSTORE SWAP1 PUSH1 0x20 SWAP1 DUP3 SWAP1 PUSH1 0x44 SWAP1 DUP3 SWAP1 PUSH1 0x0 SWAP1 GAS CALL DUP1 ISZERO PUSH2 0x705 JUMPI PUSH2 0xB5D JUMPI JUMPDEST POP PUSH1 0x0 JUMPDEST DUP1 PUSH2 0xAE8 JUMPI JUMPDEST POP POP PUSH2 0xAE3 SWAP1 PUSH2 0x11EB JUMP JUMPDEST PUSH2 0x5D0 JUMP JUMPDEST PUSH2 0xAF6 PUSH2 0xAE3 SWAP4 SWAP3 SWAP6 PUSH2 0x11EB JUMP JUMPDEST SWAP5 PUSH1 0x1 PUSH1 0x1 PUSH1 0xA0 SHL SUB PUSH2 0xB12 PUSH1 0x4 CALLDATALOAD PUSH1 0xA0 DUP7 MUL ADD PUSH1 0x24 ADD PUSH2 0x11FA JUMP JUMPDEST AND SWAP2 PUSH1 0x40 MLOAD SWAP2 DUP3 MSTORE PUSH1 0x20 DUP3 ADD MSTORE PUSH1 0x84 PUSH1 0xA0 DUP5 MUL PUSH1 0x4 CALLDATALOAD ADD ADD CALLDATALOAD PUSH1 0x40 DUP3 ADD MSTORE PUSH32 0xA2C87ABC3341789E0370A7BAABED4F58835304C2B16A29536744AD19FCFD2E84 PUSH1 0x60 CALLER SWAP3 LOG3 SWAP1 DUP6 PUSH2 0xAD8 JUMP JUMPDEST PUSH2 0xB75 SWAP1 PUSH1 0x20 RETURNDATASIZE PUSH1 0x20 GT PUSH2 0x6FE JUMPI PUSH2 0x6F0 DUP2 DUP4 PUSH2 0x11C9 JUMP JUMPDEST POP DUP6 PUSH2 0xACE JUMP JUMPDEST PUSH1 0x40 MLOAD PUSH4 0x70A08231 PUSH1 0xE0 SHL DUP2 MSTORE ADDRESS PUSH1 0x4 DUP3 ADD MSTORE SWAP2 POP PUSH1 0x20 DUP3 PUSH1 0x24 DUP2 DUP11 GAS STATICCALL DUP1 ISZERO PUSH2 0x705 JUMPI PUSH1 0x0 SWAP1 PUSH2 0xBB7 JUMPI JUMPDEST PUSH2 0xBB2 SWAP3 POP PUSH2 0x1226 JUMP JUMPDEST PUSH2 0xAD2 JUMP JUMPDEST POP PUSH1 0x20 DUP3 RETURNDATASIZE PUSH1 0x20 GT PUSH2 0xBE3 JUMPI JUMPDEST DUP2 PUSH2 0xBD1 PUSH1 0x20 SWAP4 DUP4 PUSH2 0x11C9 JUMP JUMPDEST DUP2 ADD SUB SLT PUSH2 0x173 JUMPI PUSH2 0xBB2 SWAP2 MLOAD PUSH2 0xBA8 JUMP JUMPDEST RETURNDATASIZE SWAP2 POP PUSH2 0xBC4 JUMP JUMPDEST PUSH2 0xBF4 SWAP1 PUSH2 0x1183 JUMP JUMPDEST DUP9 PUSH2 0xA93 JUMP JUMPDEST SWAP1 SWAP2 POP PUSH1 0x20 DUP2 RETURNDATASIZE PUSH1 0x20 GT PUSH2 0xC26 JUMPI JUMPDEST DUP2 PUSH2 0xC16 PUSH1 0x20 SWAP4 DUP4 PUSH2 0x11C9 JUMP JUMPDEST DUP2 ADD SUB SLT PUSH2 0x173 JUMPI MLOAD SWAP1 DUP9 PUSH2 0x9F9 JUMP JUMPDEST RETURNDATASIZE SWAP2 POP PUSH2 0xC09 JUMP JUMPDEST PUSH2 0xC46 SWAP1 PUSH1 0x20 RETURNDATASIZE PUSH1 0x20 GT PUSH2 0x6FE JUMPI PUSH2 0x6F0 DUP2 DUP4 PUSH2 0x11C9 JUMP JUMPDEST POP DUP7 PUSH2 0x969 JUMP JUMPDEST PUSH1 0x4 CALLDATALOAD PUSH1 0xA0 DUP5 MUL ADD PUSH1 0xA4 ADD CALLDATALOAD PUSH3 0xFFFFFF DUP2 AND SWAP1 SUB PUSH2 0x173 JUMPI PUSH2 0xBB2 SWAP1 PUSH1 0x24 CALLDATALOAD SWAP1 DUP8 SWAP1 PUSH1 0x4 CALLDATALOAD PUSH1 0xA0 DUP8 MUL ADD PUSH1 0x64 DUP2 ADD CALLDATALOAD SWAP2 PUSH1 0xA4 SWAP1 SWAP2 ADD CALLDATALOAD SWAP1 DUP7 SWAP1 PUSH2 0x1318 JUMP JUMPDEST POP PUSH1 0x20 DUP3 RETURNDATASIZE PUSH1 0x20 GT PUSH2 0xCB7 JUMPI JUMPDEST DUP2 PUSH2 0xCA5 PUSH1 0x20 SWAP4 DUP4 PUSH2 0x11C9 JUMP JUMPDEST DUP2 ADD SUB SLT PUSH2 0x173 JUMPI PUSH2 0x8EB SWAP2 MLOAD PUSH2 0x8E1 JUMP JUMPDEST RETURNDATASIZE SWAP2 POP PUSH2 0xC98 JUMP JUMPDEST PUSH2 0xCD8 SWAP2 POP PUSH1 0x20 RETURNDATASIZE PUSH1 0x20 GT PUSH2 0x6FE JUMPI PUSH2 0x6F0 DUP2 DUP4 PUSH2 0x11C9 JUMP JUMPDEST DUP8 PUSH2 0x8B0 JUMP JUMPDEST SWAP1 POP PUSH1 0x20 DUP2 RETURNDATASIZE PUSH1 0x20 GT PUSH2 0xD08 JUMPI JUMPDEST DUP2 PUSH2 0xCF9 PUSH1 0x20 SWAP4 DUP4 PUSH2 0x11C9 JUMP JUMPDEST DUP2 ADD SUB SLT PUSH2 0x173 JUMPI MLOAD DUP7 PUSH2 0x86B JUMP JUMPDEST RETURNDATASIZE SWAP2 POP PUSH2 0xCEC JUMP JUMPDEST PUSH2 0xAE3 SWAP1 PUSH2 0x11EB JUMP JUMPDEST PUSH1 0x40 MLOAD PUSH4 0xC1AB6DC1 PUSH1 0xE0 SHL DUP2 MSTORE PUSH1 0x4 SWAP1 REVERT JUMPDEST POP DUP4 PUSH1 0x1 PUSH1 0x1 PUSH1 0xA0 SHL SUB PUSH2 0xD48 PUSH1 0x4 CALLDATALOAD PUSH1 0xA0 DUP6 MUL ADD PUSH1 0x24 ADD PUSH2 0x11FA JUMP JUMPDEST AND EQ PUSH2 0x80F JUMP JUMPDEST POP PUSH2 0xD63 PUSH1 0x24 PUSH1 0xA0 DUP4 MUL PUSH1 0x4 CALLDATALOAD ADD ADD PUSH2 0x11FA JUMP JUMPDEST PUSH32 0x0 PUSH1 0x1 PUSH1 0x1 PUSH1 0xA0 SHL SUB SWAP1 DUP2 AND SWAP2 AND EQ PUSH2 0x808 JUMP JUMPDEST SWAP1 POP PUSH1 0x20 DUP2 RETURNDATASIZE PUSH1 0x20 GT PUSH2 0xDC1 JUMPI JUMPDEST DUP2 PUSH2 0xDB2 PUSH1 0x20 SWAP4 DUP4 PUSH2 0x11C9 JUMP JUMPDEST DUP2 ADD SUB SLT PUSH2 0x173 JUMPI MLOAD DUP3 PUSH2 0x5C9 JUMP JUMPDEST RETURNDATASIZE SWAP2 POP PUSH2 0xDA5 JUMP JUMPDEST PUSH1 0x40 MLOAD PUSH4 0x86724C7F PUSH1 0xE0 SHL DUP2 MSTORE PUSH1 0x4 SWAP1 REVERT JUMPDEST PUSH1 0x40 MLOAD PUSH4 0x1AB7DA6B PUSH1 0xE0 SHL DUP2 MSTORE PUSH1 0x4 SWAP1 REVERT JUMPDEST PUSH1 0x40 MLOAD PUSH4 0x3EE5AEB5 PUSH1 0xE0 SHL DUP2 MSTORE PUSH1 0x4 SWAP1 REVERT JUMPDEST CALLVALUE PUSH2 0x173 JUMPI PUSH1 0x0 CALLDATASIZE PUSH1 0x3 NOT ADD SLT PUSH2 0x173 JUMPI PUSH1 0x3 SLOAD PUSH1 0x40 MLOAD PUSH1 0x1 PUSH1 0x1 PUSH1 0xA0 SHL SUB SWAP1 SWAP2 AND DUP2 MSTORE PUSH1 0x20 SWAP1 RETURN JUMPDEST CALLVALUE PUSH2 0x173 JUMPI PUSH1 0x40 CALLDATASIZE PUSH1 0x3 NOT ADD SLT PUSH2 0x173 JUMPI PUSH1 0x4 CALLDATALOAD PUSH8 0xFFFFFFFFFFFFFFFF DUP2 GT PUSH2 0x173 JUMPI PUSH2 0xE59 SWAP1 CALLDATASIZE SWAP1 PUSH1 0x4 ADD PUSH2 0x1110 JUMP JUMPDEST SWAP1 PUSH1 0x24 CALLDATALOAD PUSH8 0xFFFFFFFFFFFFFFFF DUP2 GT PUSH2 0x173 JUMPI PUSH2 0xE7A SWAP1 CALLDATASIZE SWAP1 PUSH1 0x4 ADD PUSH2 0x1110 JUMP JUMPDEST SWAP1 SWAP4 DUP2 DUP5 SUB PUSH2 0x10DC JUMPI POP PUSH2 0xE8D DUP4 PUSH2 0x1233 JUMP JUMPDEST SWAP4 PUSH2 0xE9B PUSH1 0x40 MLOAD SWAP6 DUP7 PUSH2 0x11C9 JUMP JUMPDEST DUP4 DUP6 MSTORE PUSH1 0x1F NOT PUSH2 0xEAA DUP6 PUSH2 0x1233 JUMP JUMPDEST ADD CALLDATASIZE PUSH1 0x20 DUP8 ADD CALLDATACOPY PUSH1 0x2 SLOAD PUSH1 0x1 PUSH1 0x1 PUSH1 0xA0 SHL SUB AND PUSH1 0x0 JUMPDEST DUP6 DUP2 LT PUSH2 0xF0D JUMPI DUP7 PUSH1 0x40 MLOAD DUP1 SWAP2 PUSH1 0x20 DUP3 ADD PUSH1 0x20 DUP4 MSTORE DUP2 MLOAD DUP1 SWAP2 MSTORE PUSH1 0x20 PUSH1 0x40 DUP5 ADD SWAP3 ADD SWAP1 PUSH1 0x0 JUMPDEST DUP2 DUP2 LT PUSH2 0xEF4 JUMPI POP POP POP SUB SWAP1 RETURN JUMPDEST DUP3 MLOAD DUP5 MSTORE DUP6 SWAP5 POP PUSH1 0x20 SWAP4 DUP5 ADD SWAP4 SWAP1 SWAP3 ADD SWAP2 PUSH1 0x1 ADD PUSH2 0xEE6 JUMP JUMPDEST PUSH2 0xFBF SWAP1 PUSH1 0x0 PUSH1 0x40 MLOAD PUSH2 0xF1F DUP2 PUSH2 0x11AD JUMP JUMPDEST PUSH1 0x3 DUP2 MSTORE PUSH1 0x60 CALLDATASIZE PUSH1 0x20 DUP4 ADD CALLDATACOPY PUSH2 0xF3E PUSH2 0xF39 DUP5 DUP12 DUP12 PUSH2 0x180B JUMP JUMPDEST PUSH2 0x11FA JUMP JUMPDEST PUSH2 0xF47 DUP3 PUSH2 0x124B JUMP JUMPDEST PUSH1 0x1 PUSH1 0x1 PUSH1 0xA0 SHL SUB SWAP2 DUP3 AND SWAP1 MSTORE PUSH32 0x0 AND PUSH2 0xF7F DUP3 PUSH2 0x126E JUMP JUMPDEST MSTORE DUP5 PUSH2 0xF8A DUP3 PUSH2 0x127E JUMP JUMPDEST MSTORE PUSH2 0xF96 DUP4 DUP9 DUP9 PUSH2 0x180B JUMP JUMPDEST CALLDATALOAD PUSH1 0x40 MLOAD SWAP5 DUP6 SWAP3 DUP4 SWAP3 PUSH4 0xD06CA61F PUSH1 0xE0 SHL DUP5 MSTORE PUSH1 0x4 DUP5 ADD MSTORE PUSH1 0x40 PUSH1 0x24 DUP5 ADD MSTORE PUSH1 0x44 DUP4 ADD SWAP1 PUSH2 0x12A2 JUMP JUMPDEST SUB DUP2 PUSH32 0x0 PUSH1 0x1 PUSH1 0x1 PUSH1 0xA0 SHL SUB AND GAS STATICCALL DUP1 PUSH1 0x0 SWAP2 PUSH2 0x102B JUMPI JUMPDEST PUSH2 0x1012 SWAP4 POP PUSH2 0x1017 JUMPI POP PUSH1 0x0 PUSH2 0x100C DUP3 DUP11 PUSH2 0x128E JUMP JUMPDEST MSTORE PUSH2 0x11EB JUMP JUMPDEST PUSH2 0xEC0 JUMP JUMPDEST PUSH2 0x1020 SWAP1 PUSH2 0x127E JUMP JUMPDEST MLOAD PUSH2 0x100C DUP3 DUP11 PUSH2 0x128E JUMP JUMPDEST SWAP2 SWAP3 SWAP1 POP RETURNDATASIZE DUP1 PUSH1 0x0 DUP4 RETURNDATACOPY PUSH2 0x103F DUP2 DUP4 PUSH2 0x11C9 JUMP JUMPDEST PUSH1 0x20 DUP3 DUP3 DUP2 ADD SUB SLT PUSH2 0x173 JUMPI DUP2 MLOAD SWAP2 PUSH8 0xFFFFFFFFFFFFFFFF DUP4 GT PUSH2 0x173 JUMPI DUP2 DUP2 ADD PUSH1 0x1F DUP5 DUP4 ADD ADD SLT ISZERO PUSH2 0x173 JUMPI DUP3 DUP2 ADD MLOAD SWAP1 PUSH2 0x107A DUP3 PUSH2 0x1233 JUMP JUMPDEST SWAP4 PUSH2 0x1088 PUSH1 0x40 MLOAD SWAP6 DUP7 PUSH2 0x11C9 JUMP JUMPDEST DUP3 DUP6 MSTORE PUSH1 0x20 DUP6 ADD SWAP4 DUP3 ADD PUSH1 0x20 DUP5 PUSH1 0x5 SHL DUP4 DUP6 ADD ADD ADD GT PUSH2 0x173 JUMPI PUSH1 0x20 DUP2 DUP4 ADD ADD SWAP4 JUMPDEST PUSH1 0x20 DUP5 PUSH1 0x5 SHL DUP4 DUP6 ADD ADD ADD DUP6 LT PUSH2 0x10CC JUMPI POP POP POP POP POP SWAP1 PUSH2 0x1012 SWAP3 SWAP2 SWAP1 PUSH2 0xFF6 JUMP JUMPDEST DUP5 MLOAD DUP2 MSTORE PUSH1 0x20 SWAP5 DUP6 ADD SWAP5 ADD PUSH2 0x10AA JUMP JUMPDEST PUSH3 0x461BCD PUSH1 0xE5 SHL DUP2 MSTORE PUSH1 0x20 PUSH1 0x4 DUP3 ADD MSTORE PUSH1 0xF PUSH1 0x24 DUP3 ADD MSTORE PUSH15 0x98CADCCEE8D040DAD2E6DAC2E8C6D PUSH1 0x8B SHL PUSH1 0x44 DUP3 ADD MSTORE PUSH1 0x64 SWAP1 REVERT JUMPDEST SWAP2 DUP2 PUSH1 0x1F DUP5 ADD SLT ISZERO PUSH2 0x173 JUMPI DUP3 CALLDATALOAD SWAP2 PUSH8 0xFFFFFFFFFFFFFFFF DUP4 GT PUSH2 0x173 JUMPI PUSH1 0x20 DUP1 DUP6 ADD SWAP5 DUP5 PUSH1 0x5 SHL ADD ADD GT PUSH2 0x173 JUMPI JUMP JUMPDEST PUSH1 0x4 CALLDATALOAD SWAP1 PUSH1 0x1 PUSH1 0x1 PUSH1 0xA0 SHL SUB DUP3 AND DUP3 SUB PUSH2 0x173 JUMPI JUMP JUMPDEST PUSH1 0x0 SLOAD PUSH1 0x1 PUSH1 0x1 PUSH1 0xA0 SHL SUB AND CALLER SUB PUSH2 0x116B JUMPI JUMP JUMPDEST PUSH1 0x40 MLOAD PUSH4 0x118CDAA7 PUSH1 0xE0 SHL DUP2 MSTORE CALLER PUSH1 0x4 DUP3 ADD MSTORE PUSH1 0x24 SWAP1 REVERT JUMPDEST PUSH8 0xFFFFFFFFFFFFFFFF DUP2 GT PUSH2 0x1197 JUMPI PUSH1 0x40 MSTORE JUMP JUMPDEST PUSH4 0x4E487B71 PUSH1 0xE0 SHL PUSH1 0x0 MSTORE PUSH1 0x41 PUSH1 0x4 MSTORE PUSH1 0x24 PUSH1 0x0 REVERT JUMPDEST PUSH1 0x80 DUP2 ADD SWAP1 DUP2 LT PUSH8 0xFFFFFFFFFFFFFFFF DUP3 GT OR PUSH2 0x1197 JUMPI PUSH1 0x40 MSTORE JUMP JUMPDEST SWAP1 PUSH1 0x1F DUP1 NOT SWAP2 ADD AND DUP2 ADD SWAP1 DUP2 LT PUSH8 0xFFFFFFFFFFFFFFFF DUP3 GT OR PUSH2 0x1197 JUMPI PUSH1 0x40 MSTORE JUMP JUMPDEST PUSH1 0x0 NOT DUP2 EQ PUSH2 0x788 JUMPI PUSH1 0x1 ADD SWAP1 JUMP JUMPDEST CALLDATALOAD PUSH1 0x1 PUSH1 0x1 PUSH1 0xA0 SHL SUB DUP2 AND DUP2 SUB PUSH2 0x173 JUMPI SWAP1 JUMP JUMPDEST SWAP1 DUP2 PUSH1 0x20 SWAP2 SUB SLT PUSH2 0x173 JUMPI MLOAD DUP1 ISZERO ISZERO DUP2 SUB PUSH2 0x173 JUMPI SWAP1 JUMP JUMPDEST SWAP2 SWAP1 DUP3 SUB SWAP2 DUP3 GT PUSH2 0x788 JUMPI JUMP JUMPDEST PUSH8 0xFFFFFFFFFFFFFFFF DUP2 GT PUSH2 0x1197 JUMPI PUSH1 0x5 SHL PUSH1 0x20 ADD SWAP1 JUMP JUMPDEST DUP1 MLOAD ISZERO PUSH2 0x1258 JUMPI PUSH1 0x20 ADD SWAP1 JUMP JUMPDEST PUSH4 0x4E487B71 PUSH1 0xE0 SHL PUSH1 0x0 MSTORE PUSH1 0x32 PUSH1 0x4 MSTORE PUSH1 0x24 PUSH1 0x0 REVERT JUMPDEST DUP1 MLOAD PUSH1 0x1 LT ISZERO PUSH2 0x1258 JUMPI PUSH1 0x40 ADD SWAP1 JUMP JUMPDEST DUP1 MLOAD PUSH1 0x2 LT ISZERO PUSH2 0x1258 JUMPI PUSH1 0x60 ADD SWAP1 JUMP JUMPDEST DUP1 MLOAD DUP3 LT ISZERO PUSH2 0x1258 JUMPI PUSH1 0x20 SWAP2 PUSH1 0x5 SHL ADD ADD SWAP1 JUMP JUMPDEST SWAP1 DUP2 MLOAD DUP1 DUP3 MSTORE PUSH1 0x20 DUP1 DUP1 SWAP4 ADD SWAP4 ADD SWAP2 PUSH1 0x0 JUMPDEST DUP3 DUP2 LT PUSH2 0x12C2 JUMPI POP POP POP POP SWAP1 JUMP JUMPDEST DUP4 MLOAD PUSH1 0x1 PUSH1 0x1 PUSH1 0xA0 SHL SUB AND DUP6 MSTORE SWAP4 DUP2 ADD SWAP4 SWAP3 DUP2 ADD SWAP3 PUSH1 0x1 ADD PUSH2 0x12B4 JUMP JUMPDEST SWAP2 SWAP3 PUSH1 0x80 SWAP4 PUSH2 0x1304 SWAP3 SWAP8 SWAP7 SWAP6 SWAP8 DUP5 MSTORE PUSH1 0x20 DUP5 ADD MSTORE PUSH1 0xA0 PUSH1 0x40 DUP5 ADD MSTORE PUSH1 0xA0 DUP4 ADD SWAP1 PUSH2 0x12A2 JUMP JUMPDEST PUSH1 0x1 PUSH1 0x1 PUSH1 0xA0 SHL SUB SWAP1 SWAP6 AND PUSH1 0x60 DUP3 ADD MSTORE ADD MSTORE JUMP JUMPDEST PUSH1 0x40 DUP1 MLOAD PUSH4 0x95EA7B3 PUSH1 0xE0 SHL DUP2 MSTORE PUSH1 0x1 PUSH1 0x1 PUSH1 0xA0 SHL SUB PUSH32 0x0 DUP2 AND PUSH1 0x4 DUP4 ADD MSTORE PUSH1 0x24 DUP3 ADD DUP6 SWAP1 MSTORE SWAP8 SWAP9 SWAP8 PUSH1 0x0 SWAP8 SWAP3 SWAP7 SWAP4 AND SWAP5 SWAP2 SWAP3 SWAP1 PUSH1 0x20 DUP2 PUSH1 0x44 DUP2 DUP12 DUP11 GAS CALL DUP1 ISZERO PUSH2 0x1801 JUMPI PUSH2 0x17E2 JUMPI JUMPDEST POP DUP6 MLOAD SWAP9 PUSH8 0xFFFFFFFFFFFFFFFF SWAP3 PUSH1 0xE0 DUP12 ADD DUP5 DUP2 GT DUP13 DUP3 LT OR PUSH2 0x17CE JUMPI SWAP1 PUSH3 0xFFFFFF SWAP2 DUP10 MSTORE DUP8 DUP13 MSTORE PUSH1 0x1 DUP1 PUSH1 0xA0 SHL SUB PUSH32 0x0 AND PUSH1 0x20 DUP14 ADD MSTORE AND DUP8 DUP12 ADD MSTORE ADDRESS PUSH1 0x60 DUP12 ADD MSTORE DUP5 PUSH1 0x80 DUP12 ADD MSTORE DUP8 PUSH1 0xA0 DUP12 ADD MSTORE DUP8 PUSH1 0xC0 DUP12 ADD MSTORE DUP7 MLOAD SWAP10 PUSH4 0x4E45AAF PUSH1 0xE0 SHL DUP12 MSTORE PUSH1 0x1 DUP1 PUSH1 0xA0 SHL SUB DUP2 MLOAD AND PUSH1 0x4 DUP13 ADD MSTORE PUSH1 0x1 DUP1 PUSH1 0xA0 SHL SUB PUSH1 0x20 DUP3 ADD MLOAD AND PUSH1 0x24 DUP13 ADD MSTORE PUSH3 0xFFFFFF DUP9 DUP3 ADD MLOAD AND PUSH1 0x44 DUP13 ADD MSTORE PUSH1 0x1 DUP1 PUSH1 0xA0 SHL SUB PUSH1 0x60 DUP3 ADD MLOAD AND PUSH1 0x64 DUP13 ADD MSTORE PUSH1 0x80 DUP2 ADD MLOAD PUSH1 0x84 DUP13 ADD MSTORE PUSH1 0xA0 DUP2 ADD MLOAD PUSH1 0xA4 DUP13 ADD MSTORE PUSH1 0xC0 PUSH1 0x1 DUP1 PUSH1 0xA0 SHL SUB SWAP2 ADD MLOAD AND PUSH1 0xC4 DUP12 ADD MSTORE PUSH1 0x20 DUP11 PUSH1 0xE4 DUP2 DUP12 PUSH1 0x1 DUP1 PUSH1 0xA0 SHL SUB PUSH32 0x0 AND GAS CALL DUP1 DUP10 SWAP2 PUSH2 0x1793 JUMPI JUMPDEST DUP10 SWAP11 SWAP12 POP ISZERO PUSH1 0x0 EQ PUSH2 0x1510 JUMPI POP POP DUP6 MLOAD PUSH4 0xA9059CBB PUSH1 0xE0 SHL DUP2 MSTORE CALLER PUSH1 0x4 DUP3 ADD MSTORE PUSH1 0x24 DUP2 ADD SWAP5 SWAP1 SWAP5 MSTORE POP SWAP2 SWAP5 PUSH1 0x20 SWAP4 DUP7 SWAP4 POP PUSH1 0x44 SWAP3 POP DUP4 SWAP2 SWAP1 GAS CALL SWAP1 DUP2 ISZERO PUSH2 0x1507 JUMPI POP PUSH2 0x14EB JUMPI POP SWAP1 JUMP JUMPDEST PUSH2 0x1503 SWAP1 PUSH1 0x20 RETURNDATASIZE PUSH1 0x20 GT PUSH2 0x6FE JUMPI PUSH2 0x6F0 DUP2 DUP4 PUSH2 0x11C9 JUMP JUMPDEST POP SWAP1 JUMP JUMPDEST MLOAD RETURNDATASIZE DUP5 DUP3 RETURNDATACOPY RETURNDATASIZE SWAP1 REVERT JUMPDEST SWAP3 SWAP7 SWAP6 POP SWAP3 SWAP7 POP SWAP3 POP DUP1 ISZERO PUSH2 0x178A JUMPI DUP4 MLOAD PUSH4 0x95EA7B3 PUSH1 0xE0 SHL DUP2 MSTORE PUSH32 0x0 PUSH1 0x1 PUSH1 0x1 PUSH1 0xA0 SHL SUB AND PUSH1 0x4 DUP3 ADD DUP2 SWAP1 MSTORE PUSH1 0x24 DUP3 ADD DUP4 SWAP1 MSTORE SWAP1 PUSH1 0x20 DUP2 DUP1 PUSH1 0x44 DUP2 ADD SUB DUP2 DUP13 PUSH32 0x0 PUSH1 0x1 PUSH1 0x1 PUSH1 0xA0 SHL SUB AND GAS CALL DUP1 ISZERO PUSH2 0x1780 JUMPI PUSH2 0x1761 JUMPI JUMPDEST POP DUP5 MLOAD SWAP6 PUSH1 0x60 DUP8 ADD SWAP1 DUP2 GT DUP8 DUP3 LT OR PUSH2 0x174D JUMPI DUP6 MSTORE PUSH1 0x2 DUP7 MSTORE DUP5 CALLDATASIZE PUSH1 0x20 DUP9 ADD CALLDATACOPY PUSH32 0x0 PUSH1 0x1 PUSH1 0x1 PUSH1 0xA0 SHL SUB AND PUSH2 0x15F9 DUP8 PUSH2 0x124B JUMP JUMPDEST MSTORE PUSH2 0x1603 DUP7 PUSH2 0x126E JUMP JUMPDEST PUSH1 0x1 PUSH1 0x1 PUSH1 0xA0 SHL SUB SWAP1 SWAP8 AND SWAP7 DUP8 SWAP1 MSTORE DUP5 MLOAD PUSH4 0x70A08231 PUSH1 0xE0 SHL DUP1 DUP3 MSTORE ADDRESS PUSH1 0x4 DUP4 ADD MSTORE SWAP1 SWAP7 SWAP1 SWAP5 PUSH1 0x20 DUP9 PUSH1 0x24 DUP2 DUP13 GAS STATICCALL SWAP8 DUP9 ISZERO PUSH2 0x1743 JUMPI DUP11 SWAP9 PUSH2 0x170F JUMPI JUMPDEST POP DUP3 EXTCODESIZE ISZERO PUSH2 0x170B JUMPI SWAP1 DUP10 DUP1 SWAP5 SWAP4 SWAP3 PUSH2 0x166F DUP10 MLOAD SWAP8 DUP9 SWAP7 DUP8 SWAP6 DUP7 SWAP5 PUSH4 0x5C11D795 PUSH1 0xE0 SHL DUP7 MSTORE ADDRESS SWAP3 PUSH1 0x4 DUP8 ADD PUSH2 0x12DF JUMP JUMPDEST SUB SWAP3 GAS CALL SWAP1 DUP2 PUSH2 0x16F8 JUMPI JUMPDEST POP PUSH2 0x1686 JUMPI POP POP POP POP SWAP1 JUMP JUMPDEST PUSH1 0x20 SWAP1 PUSH1 0x24 DUP4 SWAP5 SWAP6 SWAP7 SWAP4 MLOAD DUP1 SWAP8 DUP2 SWAP4 DUP3 MSTORE ADDRESS PUSH1 0x4 DUP4 ADD MSTORE GAS STATICCALL SWAP2 DUP3 ISZERO PUSH2 0x16EE JUMPI POP SWAP1 PUSH2 0x16BA JUMPI JUMPDEST PUSH2 0x16B7 SWAP3 POP PUSH2 0x1226 JUMP JUMPDEST SWAP1 JUMP JUMPDEST POP PUSH1 0x20 DUP3 RETURNDATASIZE PUSH1 0x20 GT PUSH2 0x16E6 JUMPI JUMPDEST DUP2 PUSH2 0x16D4 PUSH1 0x20 SWAP4 DUP4 PUSH2 0x11C9 JUMP JUMPDEST DUP2 ADD SUB SLT PUSH2 0x173 JUMPI PUSH2 0x16B7 SWAP2 MLOAD PUSH2 0x16AD JUMP JUMPDEST RETURNDATASIZE SWAP2 POP PUSH2 0x16C7 JUMP JUMPDEST MLOAD SWAP1 RETURNDATASIZE SWAP1 DUP3 RETURNDATACOPY RETURNDATASIZE SWAP1 REVERT JUMPDEST PUSH2 0x1704 SWAP1 SWAP7 SWAP2 SWAP7 PUSH2 0x1183 JUMP JUMPDEST SWAP5 CODESIZE PUSH2 0x167A JUMP JUMPDEST DUP10 DUP1 REVERT JUMPDEST SWAP1 SWAP8 POP PUSH1 0x20 DUP2 RETURNDATASIZE PUSH1 0x20 GT PUSH2 0x173B JUMPI JUMPDEST DUP2 PUSH2 0x172B PUSH1 0x20 SWAP4 DUP4 PUSH2 0x11C9 JUMP JUMPDEST DUP2 ADD SUB SLT PUSH2 0x170B JUMPI MLOAD SWAP7 CODESIZE PUSH2 0x1640 JUMP JUMPDEST RETURNDATASIZE SWAP2 POP PUSH2 0x171E JUMP JUMPDEST DUP8 MLOAD RETURNDATASIZE DUP13 DUP3 RETURNDATACOPY RETURNDATASIZE SWAP1 REVERT JUMPDEST PUSH4 0x4E487B71 PUSH1 0xE0 SHL DUP10 MSTORE PUSH1 0x41 PUSH1 0x4 MSTORE PUSH1 0x24 DUP10 REVERT JUMPDEST PUSH2 0x1779 SWAP1 PUSH1 0x20 RETURNDATASIZE PUSH1 0x20 GT PUSH2 0x6FE JUMPI PUSH2 0x6F0 DUP2 DUP4 PUSH2 0x11C9 JUMP JUMPDEST POP CODESIZE PUSH2 0x15A6 JUMP JUMPDEST DUP7 MLOAD RETURNDATASIZE DUP12 DUP3 RETURNDATACOPY RETURNDATASIZE SWAP1 REVERT JUMPDEST POP POP POP POP POP POP SWAP1 JUMP JUMPDEST SWAP1 POP PUSH1 0x20 DUP12 RETURNDATASIZE PUSH1 0x20 GT PUSH2 0x17C6 JUMPI JUMPDEST DUP2 PUSH2 0x17AE PUSH1 0x20 SWAP4 DUP4 PUSH2 0x11C9 JUMP JUMPDEST DUP2 ADD SUB SLT PUSH2 0x17C2 JUMPI SWAP10 MLOAD SWAP9 SWAP10 DUP11 SWAP10 SWAP1 PUSH2 0x14A1 JUMP JUMPDEST DUP9 DUP1 REVERT JUMPDEST RETURNDATASIZE SWAP2 POP PUSH2 0x17A1 JUMP JUMPDEST PUSH4 0x4E487B71 PUSH1 0xE0 SHL DUP11 MSTORE PUSH1 0x41 PUSH1 0x4 MSTORE PUSH1 0x24 DUP11 REVERT JUMPDEST PUSH2 0x17FA SWAP1 PUSH1 0x20 RETURNDATASIZE PUSH1 0x20 GT PUSH2 0x6FE JUMPI PUSH2 0x6F0 DUP2 DUP4 PUSH2 0x11C9 JUMP JUMPDEST POP CODESIZE PUSH2 0x1380 JUMP JUMPDEST DUP8 MLOAD RETURNDATASIZE DUP11 DUP3 RETURNDATACOPY RETURNDATASIZE SWAP1 REVERT JUMPDEST SWAP2 SWAP1 DUP2 LT ISZERO PUSH2 0x1258 JUMPI PUSH1 0x5 SHL ADD SWAP1 JUMP JUMPDEST DUP2 ISZERO PUSH2 0x18FB JUMPI PUSH1 0x1 PUSH1 0x1 PUSH1 0xA0 SHL SUB SWAP1 DUP2 AND DUP1 PUSH2 0x1899 JUMPI POP PUSH1 0x0 DUP1 DUP1 DUP1 SWAP5 DUP2 SWAP5 DUP3 SLOAD AND GAS CALL SWAP1 RETURNDATASIZE ISZERO PUSH2 0x1893 JUMPI RETURNDATASIZE SWAP1 PUSH8 0xFFFFFFFFFFFFFFFF DUP3 GT PUSH2 0x187F JUMPI PUSH1 0x40 MLOAD SWAP2 PUSH2 0x186F PUSH1 0x1F DUP3 ADD PUSH1 0x1F NOT AND PUSH1 0x20 ADD DUP5 PUSH2 0x11C9 JUMP JUMPDEST DUP3 MSTORE PUSH1 0x20 RETURNDATASIZE SWAP3 ADD RETURNDATACOPY JUMPDEST ISZERO PUSH2 0x6C4 JUMPI JUMP JUMPDEST PUSH4 0x4E487B71 PUSH1 0xE0 SHL DUP2 MSTORE PUSH1 0x41 PUSH1 0x4 MSTORE PUSH1 0x24 SWAP1 REVERT JUMPDEST POP PUSH2 0x1878 JUMP JUMPDEST PUSH1 0x0 DUP1 SLOAD PUSH1 0x40 MLOAD PUSH4 0xA9059CBB PUSH1 0xE0 SHL DUP2 MSTORE SWAP4 AND PUSH1 0x1 PUSH1 0x1 PUSH1 0xA0 SHL SUB AND PUSH1 0x4 DUP5 ADD MSTORE PUSH1 0x24 DUP4 ADD SWAP4 SWAP1 SWAP4 MSTORE SWAP1 SWAP2 PUSH1 0x20 SWAP2 DUP4 SWAP2 DUP3 SWAP1 DUP2 PUSH1 0x44 DUP2 ADD SUB SWAP3 GAS CALL DUP1 ISZERO PUSH2 0x705 JUMPI PUSH2 0x18E1 JUMPI POP JUMP JUMPDEST PUSH2 0x18F8 SWAP1 PUSH1 0x20 RETURNDATASIZE DUP2 GT PUSH2 0x6FE JUMPI PUSH2 0x6F0 DUP2 DUP4 PUSH2 0x11C9 JUMP JUMPDEST POP JUMP JUMPDEST POP POP JUMP INVALID LOG2 PUSH5 0x6970667358 0x22 SLT KECCAK256 0x5D SLT 0xEE EXTCODECOPY 0xC1 RETURNDATASIZE SWAP11 GASLIMIT CALLDATALOAD CALLER 0xC0 PUSH11 0xD48AC226D675881FD7DE76 SGT 0x4B 0xF7 0xCE BASEFEE PUSH29 0x11A5B964736F6C63430008140033000000000000000000000000000000 "},"methodIdentifiers":{"FEE_DENOMINATOR()":"d73792a9","MAX_FEE()":"bc063e1a","WBNB()":"8dd95002","batchSwapToToken((address,uint256,uint256,uint8,uint24)[],uint256)":"647ebac0","emergencyWithdraw(address,uint256)":"95ccea67","feeRecipient()":"46904840","getEstimatedOutputs(address[],uint256[])":"273efee0","outputToken()":"c1d8d1d9","owner()":"8da5cb5b","pancakeRouterV2()":"d20ccdc2","pancakeRouterV3()":"e47aaf6d","renounceOwnership()":"715018a6","serviceFee()":"8abdf5aa","setFee(uint256)":"69fe0e2d","setFeeRecipient(address)":"e74b981b","setOutputToken(address)":"6b5b2c31","transferOwnership(address)":"f2fde38b"}}}}}