{"contracts/DustSwapRouterX.sol":{"DustSwapRouterX":{"abi":[{"inputs":[{"internalType":"address","name":"_pancakeRouterV2","type":"address"},{"internalType":"address","name":"_pancakeRouterV3","type":"address"},{"internalType":"address","name":"_outputToken","type":"address"},{"internalType":"address","name":"_feeRecipient","type":"address"},{"internalType":"uint256","name":"_initialFee","type":"uint256"}],"stateMutability":"nonpayable","type":"constructor"},{"inputs":[],"name":"DeadlineExpired","type":"error"},{"inputs":[],"name":"ECDSAInvalidSignature","type":"error"},{"inputs":[{"internalType":"uint256","name":"length","type":"uint256"}],"name":"ECDSAInvalidSignatureLength","type":"error"},{"inputs":[{"internalType":"bytes32","name":"s","type":"bytes32"}],"name":"ECDSAInvalidSignatureS","type":"error"},{"inputs":[],"name":"EmptySwapList","type":"error"},{"inputs":[],"name":"FeeTooHigh","type":"error"},{"inputs":[],"name":"InsufficientOutput","type":"error"},{"inputs":[],"name":"InvalidFeeRecipient","type":"error"},{"inputs":[],"name":"InvalidNonce","type":"error"},{"inputs":[],"name":"InvalidOutputToken","type":"error"},{"inputs":[],"name":"InvalidRouter","type":"error"},{"inputs":[],"name":"InvalidSignature","type":"error"},{"inputs":[],"name":"InvalidToken","type":"error"},{"inputs":[],"name":"NoPendingProposal","type":"error"},{"inputs":[{"internalType":"address","name":"owner","type":"address"}],"name":"OwnableInvalidOwner","type":"error"},{"inputs":[{"internalType":"address","name":"account","type":"address"}],"name":"OwnableUnauthorizedAccount","type":"error"},{"inputs":[],"name":"ReentrancyGuardReentrantCall","type":"error"},{"inputs":[{"internalType":"uint256","name":"activeAt","type":"uint256"}],"name":"TimelockActive","type":"error"},{"inputs":[],"name":"TransferFailed","type":"error"},{"anonymous":false,"inputs":[{"indexed":true,"internalType":"address","name":"user","type":"address"},{"indexed":false,"internalType":"uint256","name":"tokensSwapped","type":"uint256"},{"indexed":false,"internalType":"uint256","name":"totalOutput","type":"uint256"},{"indexed":false,"internalType":"uint256","name":"fee","type":"uint256"},{"indexed":false,"internalType":"uint256","name":"userAmount","type":"uint256"},{"indexed":true,"internalType":"address","name":"outputToken","type":"address"}],"name":"BatchSwapCompleted","type":"event"},{"anonymous":false,"inputs":[{"indexed":false,"internalType":"uint256","name":"cancelledFee","type":"uint256"}],"name":"FeeProposalCancelled","type":"event"},{"anonymous":false,"inputs":[{"indexed":false,"internalType":"uint256","name":"newFee","type":"uint256"},{"indexed":false,"internalType":"uint256","name":"activeAt","type":"uint256"}],"name":"FeeProposed","type":"event"},{"anonymous":false,"inputs":[{"indexed":true,"internalType":"address","name":"cancelledRecipient","type":"address"}],"name":"FeeRecipientProposalCancelled","type":"event"},{"anonymous":false,"inputs":[{"indexed":true,"internalType":"address","name":"newRecipient","type":"address"},{"indexed":false,"internalType":"uint256","name":"activeAt","type":"uint256"}],"name":"FeeRecipientProposed","type":"event"},{"anonymous":false,"inputs":[{"indexed":true,"internalType":"address","name":"oldRecipient","type":"address"},{"indexed":true,"internalType":"address","name":"newRecipient","type":"address"}],"name":"FeeRecipientUpdated","type":"event"},{"anonymous":false,"inputs":[{"indexed":false,"internalType":"uint256","name":"oldFee","type":"uint256"},{"indexed":false,"internalType":"uint256","name":"newFee","type":"uint256"}],"name":"FeeUpdated","type":"event"},{"anonymous":false,"inputs":[{"indexed":true,"internalType":"address","name":"owner","type":"address"},{"indexed":false,"internalType":"uint256","name":"wordPos","type":"uint256"},{"indexed":false,"internalType":"uint256","name":"mask","type":"uint256"}],"name":"NonceInvalidation","type":"event"},{"anonymous":false,"inputs":[{"indexed":true,"internalType":"address","name":"cancelledToken","type":"address"}],"name":"OutputTokenProposalCancelled","type":"event"},{"anonymous":false,"inputs":[{"indexed":true,"internalType":"address","name":"newToken","type":"address"},{"indexed":false,"internalType":"uint256","name":"activeAt","type":"uint256"}],"name":"OutputTokenProposed","type":"event"},{"anonymous":false,"inputs":[{"indexed":true,"internalType":"address","name":"oldToken","type":"address"},{"indexed":true,"internalType":"address","name":"newToken","type":"address"}],"name":"OutputTokenUpdated","type":"event"},{"anonymous":false,"inputs":[{"indexed":true,"internalType":"address","name":"previousOwner","type":"address"},{"indexed":true,"internalType":"address","name":"newOwner","type":"address"}],"name":"OwnershipTransferred","type":"event"},{"anonymous":false,"inputs":[{"indexed":true,"internalType":"address","name":"user","type":"address"},{"indexed":true,"internalType":"address","name":"token","type":"address"},{"indexed":false,"internalType":"uint256","name":"amountIn","type":"uint256"},{"indexed":false,"internalType":"uint256","name":"amountOut","type":"uint256"},{"indexed":false,"internalType":"enum DustSwapRouterX.RouterVersion","name":"version","type":"uint8"}],"name":"SingleSwapCompleted","type":"event"},{"inputs":[],"name":"DOMAIN_SEPARATOR","outputs":[{"internalType":"bytes32","name":"","type":"bytes32"}],"stateMutability":"view","type":"function"},{"inputs":[],"name":"FEE_DENOMINATOR","outputs":[{"internalType":"uint256","name":"","type":"uint256"}],"stateMutability":"view","type":"function"},{"inputs":[],"name":"MAX_FEE","outputs":[{"internalType":"uint256","name":"","type":"uint256"}],"stateMutability":"view","type":"function"},{"inputs":[],"name":"PERMIT_TRANSFER_TYPEHASH","outputs":[{"internalType":"bytes32","name":"","type":"bytes32"}],"stateMutability":"view","type":"function"},{"inputs":[],"name":"TIMELOCK","outputs":[{"internalType":"uint256","name":"","type":"uint256"}],"stateMutability":"view","type":"function"},{"inputs":[],"name":"TOKEN_PERMISSIONS_TYPEHASH","outputs":[{"internalType":"bytes32","name":"","type":"bytes32"}],"stateMutability":"view","type":"function"},{"inputs":[],"name":"WBNB","outputs":[{"internalType":"address","name":"","type":"address"}],"stateMutability":"view","type":"function"},{"inputs":[],"name":"applyFee","outputs":[],"stateMutability":"nonpayable","type":"function"},{"inputs":[],"name":"applyFeeRecipient","outputs":[],"stateMutability":"nonpayable","type":"function"},{"inputs":[],"name":"applyOutputToken","outputs":[],"stateMutability":"nonpayable","type":"function"},{"inputs":[{"components":[{"internalType":"address","name":"token","type":"address"},{"internalType":"uint256","name":"amount","type":"uint256"},{"internalType":"uint256","name":"minAmountOut","type":"uint256"},{"internalType":"enum DustSwapRouterX.RouterVersion","name":"version","type":"uint8"},{"internalType":"uint24","name":"v3Fee","type":"uint24"},{"internalType":"uint256","name":"permit2Nonce","type":"uint256"},{"internalType":"uint256","name":"permit2Deadline","type":"uint256"},{"internalType":"bytes","name":"permit2Sig","type":"bytes"},{"internalType":"uint256","name":"permitDeadline","type":"uint256"},{"internalType":"uint8","name":"permitV","type":"uint8"},{"internalType":"bytes32","name":"permitR","type":"bytes32"},{"internalType":"bytes32","name":"permitS","type":"bytes32"}],"internalType":"struct DustSwapRouterX.SwapInstruction[]","name":"instructions","type":"tuple[]"},{"internalType":"uint256","name":"deadline","type":"uint256"}],"name":"batchSwapToToken","outputs":[{"internalType":"uint256","name":"userAmount","type":"uint256"}],"stateMutability":"nonpayable","type":"function"},{"inputs":[],"name":"cancelFee","outputs":[],"stateMutability":"nonpayable","type":"function"},{"inputs":[],"name":"cancelFeeRecipient","outputs":[],"stateMutability":"nonpayable","type":"function"},{"inputs":[],"name":"cancelOutputToken","outputs":[],"stateMutability":"nonpayable","type":"function"},{"inputs":[{"internalType":"address","name":"token","type":"address"},{"internalType":"uint256","name":"amount","type":"uint256"}],"name":"emergencyWithdraw","outputs":[],"stateMutability":"nonpayable","type":"function"},{"inputs":[],"name":"feeRecipient","outputs":[{"internalType":"address","name":"","type":"address"}],"stateMutability":"view","type":"function"},{"inputs":[{"internalType":"address[]","name":"tokens","type":"address[]"},{"internalType":"uint256[]","name":"amounts","type":"uint256[]"}],"name":"getEstimatedOutputs","outputs":[{"internalType":"uint256[]","name":"estimates","type":"uint256[]"}],"stateMutability":"view","type":"function"},{"inputs":[{"internalType":"uint256","name":"wordPos","type":"uint256"},{"internalType":"uint256","name":"mask","type":"uint256"}],"name":"invalidateNonces","outputs":[],"stateMutability":"nonpayable","type":"function"},{"inputs":[{"internalType":"address","name":"","type":"address"},{"internalType":"uint256","name":"","type":"uint256"}],"name":"nonceBitmap","outputs":[{"internalType":"uint256","name":"","type":"uint256"}],"stateMutability":"view","type":"function"},{"inputs":[],"name":"outputToken","outputs":[{"internalType":"address","name":"","type":"address"}],"stateMutability":"view","type":"function"},{"inputs":[],"name":"owner","outputs":[{"internalType":"address","name":"","type":"address"}],"stateMutability":"view","type":"function"},{"inputs":[],"name":"pancakeRouterV2","outputs":[{"internalType":"contract IPancakeRouter02","name":"","type":"address"}],"stateMutability":"view","type":"function"},{"inputs":[],"name":"pancakeRouterV3","outputs":[{"internalType":"contract IPancakeV3SwapRouter","name":"","type":"address"}],"stateMutability":"view","type":"function"},{"inputs":[],"name":"pendingFee","outputs":[{"internalType":"uint256","name":"","type":"uint256"}],"stateMutability":"view","type":"function"},{"inputs":[],"name":"pendingFeeActiveAt","outputs":[{"internalType":"uint256","name":"","type":"uint256"}],"stateMutability":"view","type":"function"},{"inputs":[],"name":"pendingFeeRecipient","outputs":[{"internalType":"address","name":"","type":"address"}],"stateMutability":"view","type":"function"},{"inputs":[],"name":"pendingFeeRecipientActiveAt","outputs":[{"internalType":"uint256","name":"","type":"uint256"}],"stateMutability":"view","type":"function"},{"inputs":[],"name":"pendingOutputToken","outputs":[{"internalType":"address","name":"","type":"address"}],"stateMutability":"view","type":"function"},{"inputs":[],"name":"pendingOutputTokenActiveAt","outputs":[{"internalType":"uint256","name":"","type":"uint256"}],"stateMutability":"view","type":"function"},{"inputs":[{"internalType":"uint256","name":"_newFee","type":"uint256"}],"name":"proposeFee","outputs":[],"stateMutability":"nonpayable","type":"function"},{"inputs":[{"internalType":"address","name":"_newRecipient","type":"address"}],"name":"proposeFeeRecipient","outputs":[],"stateMutability":"nonpayable","type":"function"},{"inputs":[{"internalType":"address","name":"_newToken","type":"address"}],"name":"proposeOutputToken","outputs":[],"stateMutability":"nonpayable","type":"function"},{"inputs":[],"name":"renounceOwnership","outputs":[],"stateMutability":"nonpayable","type":"function"},{"inputs":[],"name":"serviceFee","outputs":[{"internalType":"uint256","name":"","type":"uint256"}],"stateMutability":"view","type":"function"},{"inputs":[{"internalType":"address","name":"newOwner","type":"address"}],"name":"transferOwnership","outputs":[],"stateMutability":"nonpayable","type":"function"},{"stateMutability":"payable","type":"receive"}],"evm":{"bytecode":{"linkReferences":{},"object":"610100604081815234620003445760a08262002822803803809162000025828562000349565b83398101031262000344576200003b8262000383565b6020906200004b82850162000383565b6200005884860162000383565b946080620000696060830162000383565b9101519233156200032c5760008054336001600160a01b0319808316821784558951939a90956001600160a01b0395919493909286929183167f8be0079c531659141344cd1fd0a4f28419497f9722a3daafe3b4186f6b6457e08e80a36001805516918215801562000321575b620003125750831694851562000301576113888711620002f057818489926004946080521660a0528951928380926315ab88c960e31b82525afa918215620002e65783918a93620002a0575b508260c0521691821591821562000293575b5050620002835781600354161760035560065416176006556009558151908101917f8cad95687ba82c2ce50e74f7b754645e5117c3a5bec8151c0726d5857980a86683527fbb9ef1c19d254c3a436bda7cbd5ee057a57e19a2190e5c8796cee57c173c5fd6818301524660608301523060808301526080825260a082019382851060018060401b038611176200026f575083905251902060e05261248990816200039982396080518181816104550152818161106401528181611139015281816111a0015281816119150152612052015260a05181818161026e01528181611e620152611fa9015260c0518181816105d30152818161086e015281816110d50152818161164e015281816118a801528181611ee301528181612096015281816120f401526121dc015260e051818181610f0b01526116f00152f35b634e487b7160e01b81526041600452602490fd5b85516231010160e51b8152600490fd5b1682149050388062000134565b88809294508193503d8311620002de575b620002bd818362000349565b81010312620002da57620002d2839162000383565b913862000122565b8880fd5b503d620002b1565b88513d8b823e3d90fd5b885163cd4e616760e01b8152600490fd5b8851630ed1b8b360e31b8152600490fd5b63466d7fef60e01b8152600490fd5b5084871615620000d6565b8551631e4fbdf760e01b815260006004820152602490fd5b600080fd5b601f909101601f19168101906001600160401b038211908210176200036d57604052565b634e487b7160e01b600052604160045260246000fd5b51906001600160a01b0382168203620003445756fe6080604052600436101561001b575b361561001957600080fd5b005b60003560e01c806314025dcd14611a64578063273efee01461177d5780632bce68d2146117135780633644e515146116d8578063413510ea14610a555780634690484014610a2c57806349fcf0e4146109c75780634fe02b441461097f57806350fd70c4146108fd5780635efc228e146108965780636078af92146107cb578063643090bc146107ad578063696c11e5146107725780636a19c9c714610754578063715018a6146106fb578063733ec0c4146106675780637aadef8b146106495780638abdf5aa1461062b5780638da5cb5b146106025780638dd95002146105bd578063901a54021461059457806395ccea6714610567578063b5c86c46146104e8578063bc063e1a146104cb578063c1d8d1d9146104a2578063c22481d414610484578063d20ccdc21461043f578063d73792a914610422578063d99426a51461038e578063dc49c1b214610370578063dcc9def5146102d8578063e05558011461029d578063e47aaf6d14610258578063e4dcfa6e1461022f5763f2fde38b0361000e573461022a57602036600319011261022a576101ba611aee565b6101c2611b04565b6001600160a01b0390811690811561021157600054826001600160601b0360a01b821617600055167f8be0079c531659141344cd1fd0a4f28419497f9722a3daafe3b4186f6b6457e0600080a3005b604051631e4fbdf760e01b815260006004820152602490fd5b600080fd5b3461022a57600036600319011261022a576007546040516001600160a01b039091168152602090f35b3461022a57600036600319011261022a576040517f00000000000000000000000000000000000000000000000000000000000000006001600160a01b03168152602090f35b3461022a57600036600319011261022a5760206040517f939c21a48a8dbe3a9a2404a1d46691e4d39f6583d6ec6b35714604c986d801068152f35b3461022a57600036600319011261022a576102f1611b04565b600b54801561035e57804210610346576009547f528d9479e9f9889a87a3c30c7f7ba537e5e59c4c85a37733b16e57c62df613026040600a54928151908152836020820152a16009556000600a819055600b55005b602490604051906350ba9f2960e01b82526004820152fd5b6040516358b89db560e11b8152600490fd5b3461022a57600036600319011261022a576020600b54604051908152f35b3461022a57602036600319011261022a576004356103aa611b04565b61138881116104105780600a556202a30042018042116103fa577ff737d309c7ec2dfc95ac81f194900d7820487d0a7e5f81627c1e9b0b06d71afe9181604092600b5582519182526020820152a1005b634e487b7160e01b600052601160045260246000fd5b60405163cd4e616760e01b8152600490fd5b3461022a57600036600319011261022a5760206040516127108152f35b3461022a57600036600319011261022a576040517f00000000000000000000000000000000000000000000000000000000000000006001600160a01b03168152602090f35b3461022a57600036600319011261022a576020600854604051908152f35b3461022a57600036600319011261022a576003546040516001600160a01b039091168152602090f35b3461022a57600036600319011261022a5760206040516113888152f35b3461022a57600036600319011261022a57610501611b04565b600854801561035e57804210610346576006546007546001600160a01b0380821690819084167faaebcf1bfa00580e41d966056b48521fa9f202645c86d4ddf28113e617c1b1d3600080a36001600160a01b031992831617600655166007556000600855005b3461022a57604036600319011261022a57610019610583611aee565b61058b611b04565b60243590612393565b3461022a57600036600319011261022a576004546040516001600160a01b039091168152602090f35b3461022a57600036600319011261022a576040517f00000000000000000000000000000000000000000000000000000000000000006001600160a01b03168152602090f35b3461022a57600036600319011261022a576000546040516001600160a01b039091168152602090f35b3461022a57600036600319011261022a576020600954604051908152f35b3461022a57600036600319011261022a5760206040516202a3008152f35b3461022a57602036600319011261022a57610680611aee565b610688611b04565b6001600160a01b031680156106e957806001600160601b0360a01b60075416176007556202a30042018042116103fa576020817fd25bd1071600ba5b7ee8abcdb6b4d39b01f5a7f2818f41f73682b87d802911cd92600855604051908152a2005b604051630ed1b8b360e31b8152600490fd5b3461022a57600036600319011261022a57610714611b04565b600080546001600160a01b0319811682556001600160a01b03167f8be0079c531659141344cd1fd0a4f28419497f9722a3daafe3b4186f6b6457e08280a3005b3461022a57600036600319011261022a576020600554604051908152f35b3461022a57600036600319011261022a5760206040517f618358ac3db8dc274f0cd8829da7e234bd48cd73c4a740aede1adec9846d06a18152f35b3461022a57600036600319011261022a576020600a54604051908152f35b3461022a57602036600319011261022a576107e4611aee565b6107ec611b04565b6001600160a01b0390811690811590811561086a575b5061085957806001600160601b0360a01b60045416176004556202a30042018042116103fa576020817f29de7ba5cd5ca8e6f6a34f38a4b954ecabe1538ae30bb80e43569719b04a111e92600555604051908152a2005b6040516231010160e51b8152600490fd5b90507f000000000000000000000000000000000000000000000000000000000000000016811482610802565b3461022a57600036600319011261022a576108af611b04565b6008541561035e576007546001600160a01b0381167f3e28ced8fcb9933a225edba42bb1f70c43c60d8a79ffa26f769aac0f5544e1a5600080a26001600160a01b0319166007556000600855005b3461022a57600036600319011261022a57610916611b04565b6004546001600160a01b0380821691821561035e576005548042106103465750600354906001600160601b0360a01b908482841617600355166004556000600555167ffdef5fa97f9834c3ce5c25f08d33b4e5a200f1055bc73fa7b69cc974c47b7b34600080a3005b3461022a57604036600319011261022a576001600160a01b036109a0611aee565b16600052600260205260406000206024356000526020526020604060002054604051908152f35b3461022a57600036600319011261022a576109e0611b04565b6004546001600160a01b038116801561035e577f075237797d8ac452994d7896e187caf611428526b127868f65e5e3b0b721a370600080a26001600160a01b0319166004556000600555005b3461022a57600036600319011261022a576006546040516001600160a01b039091168152602090f35b3461022a57604036600319011261022a576004356001600160401b03811161022a57610a85903690600401611abe565b6002600154146116c6576002600155602435421161146c5780156116b4576003546040516370a0823160e01b81523060048201526001600160a01b0390911692602082602481875afa918215610c1657600092611680575b5060009260005b818110610cdf5750506040516370a0823160e01b8152306004820152919050602082602481875afa8015610c1657600090610cab575b610b249250611ba2565b918215610c995760095480840290848204036103fa57612710900491610b4a8385611ba2565b9280610c22575b60405163a9059cbb60e01b8152336004820152602481018590526020816044816000885af1908115610c1657600091610be7575b5015610bd5576020946040519283528583015260408201528260608201527fc5f91541570ee410396e78fff4d3ef181d35ec6e43cc346f958f4fe06b56c47260803392a360018055604051908152f35b6040516312171d8360e31b8152600490fd5b610c09915060203d602011610c0f575b610c018183611b5e565b810190611baf565b86610b85565b503d610bf7565b6040513d6000823e3d90fd5b60065460405163a9059cbb60e01b81526001600160a01b039091166004820152602481018290526020816044816000885af1908115610c1657600091610c7a575b50610b51576040516312171d8360e31b8152600490fd5b610c93915060203d602011610c0f57610c018183611b5e565b86610c63565b60405163bb2875c360e01b8152600490fd5b506020823d602011610cd7575b81610cc560209383611b5e565b8101031261022a57610b249151610b1a565b3d9150610cb8565b61017e19833603018160051b840135121561022a576001600160a01b03610d0e600583901b8501358501611b8e565b1615801561163a575b8015611617575b6116055760208160051b840135840101351561121e576001600160a01b03610d4e600583901b8501358501611b8e565b166040516370a0823160e01b8152306004820152602081602481855afa908115610c16576000916115d3575b50600583901b850135850160e0810190610d95908290611bc7565b15905061148757600584901b860135860160c00135801561147e575b610dd4610dc58660051b8901358901611b8e565b928660051b8901358901611bc7565b92909180421161146c57600160ff60a08960051b8c01358c010135161b336000526002602052604060002060a08960051b8c01358c01013560081c600052602052604060002081815418809155161561145a576040519160208301907f618358ac3db8dc274f0cd8829da7e234bd48cd73c4a740aede1adec9846d06a1825260018060a01b0316604084015260609260208960051b8c01358c01013584820152838152610e8081611b43565b51902091604051927f939c21a48a8dbe3a9a2404a1d46691e4d39f6583d6ec6b35714604c986d8010660208501526040840152309083015260a08760051b8a01358a010135608083015260a082015260a081528060c08101106001600160401b0360c0830111176114445760c0810160405260c0815160208301209160e081019261190160f01b84527f000000000000000000000000000000000000000000000000000000000000000060e2830152610102820152604282820152610f46828201611b43565b01519020610f5383611bf9565b90610f616040519283611b5e565b838252368484011161022a576000602085610f9096610f87968387013784010152611c14565b90929192611ce0565b336001600160a01b0390911603611432576040516323b872dd60e01b81523360048201523060248201526020600585901b87013587018101356044830152816064816000875af1908115610c1657600091611413575b5015610bd5575b6040516370a0823160e01b815230600482015290602082602481865afa8015610c16576000906113df575b6110229250611ba2565b90600260608460051b87013587010135101561022a5760608360051b86013586010135156000146113975760405163095ea7b360e01b81526001600160a01b037f0000000000000000000000000000000000000000000000000000000000000000166004820152602481018390526020816044816000865af18015610c1657611378575b506040516110b381611b43565b600381526060366020830137816110c982611d7c565b526110d381611d9f565b7f00000000000000000000000000000000000000000000000000000000000000006001600160a01b031690528861110982611daf565b526040516370a0823160e01b8152306004820152906020826024818d5afa918215610c1657600092611344575b507f00000000000000000000000000000000000000000000000000000000000000006001600160a01b03163b1561022a57600061119b9160405180938192635c11d79560e01b83528b60243591604030928d60051b8101350101358b60048701611e10565b0381837f00000000000000000000000000000000000000000000000000000000000000006001600160a01b03165af19081611335575b506112c6575060405163a9059cbb60e01b81523360048201526024810183905290602090829060449082906000905af18015610c16576112a7575b5060005b905b81611241575b5061122c575b61122790611b7f565b610ae4565b9361123961122791611b7f565b94905061121e565b6001600160a01b0361125b600585901b8701358701611b8e565b169060405190815282602082015260608460051b8701358701013560408201527fa2c87abc3341789e0370a7baabed4f58835304c2b16a29536744ad19fcfd2e8460603392a387611218565b6112bf9060203d602011610c0f57610c018183611b5e565b508761120c565b6040516370a0823160e01b815230600482015291506020826024818c5afa8015610c1657600090611301575b6112fc9250611ba2565b611210565b506020823d60201161132d575b8161131b60209383611b5e565b8101031261022a576112fc91516112f2565b3d915061130e565b61133e90611b30565b8a6111d1565b9091506020813d602011611370575b8161136060209383611b5e565b8101031261022a5751908a611136565b3d9150611353565b6113909060203d602011610c0f57610c018183611b5e565b50886110a6565b600583901b85013585016080013562ffffff8116900361022a576113d990602435908990600586901b8801358801604081013591608090910135908690611e49565b90611212565b506020823d60201161140b575b816113f960209383611b5e565b8101031261022a576110229151611018565b3d91506113ec565b61142c915060203d602011610c0f57610c018183611b5e565b89610fe6565b604051638baa579f60e01b8152600490fd5b634e487b7160e01b600052604160045260246000fd5b604051633ab3447f60e11b8152600490fd5b604051631ab7da6b60e01b8152600490fd5b50602435610db1565b506101008360051b86013586010135611516575b6040516323b872dd60e01b81523360048201523060248201526020600585901b87013587018101356044830152816064816000875af1908115610c16576000916114f7575b50610fed576040516312171d8360e31b8152600490fd5b611510915060203d602011610c0f57610c018183611b5e565b896114e0565b6001600160a01b03611530600585901b8701358701611b8e565b166101208460051b8701358701013560ff8116810361022a57813b1561022a5760405163d505accf60e01b8152336004820152306024820152600586901b880135880160208101356044830152610100810135606483015260ff92909216608482015261014082013560a48201526101609091013560c482015290600090829060e490829084905af16115c4575b5061149b565b6115cd90611b30565b886115be565b90506020813d6020116115fd575b816115ee60209383611b5e565b8101031261022a575188610d7a565b3d91506115e1565b60405163c1ab6dc160e01b8152600490fd5b50856001600160a01b03611633600584901b8601358601611b8e565b1614610d1e565b5061164c8160051b8401358401611b8e565b7f00000000000000000000000000000000000000000000000000000000000000006001600160a01b03908116911614610d17565b9091506020813d6020116116ac575b8161169c60209383611b5e565b8101031261022a57519084610add565b3d915061168f565b6040516386724c7f60e01b8152600490fd5b604051633ee5aeb560e01b8152600490fd5b3461022a57600036600319011261022a5760206040517f00000000000000000000000000000000000000000000000000000000000000008152f35b3461022a57604036600319011261022a57600435602435336000526002602052604060002082600052602052604060002081815417905560405191825260208201527f8bde7bf9be24658f5c1d48843fb04034cae6c6ceacf23b0cf97b724e4cdc599f60403392a2005b3461022a57604036600319011261022a576004356001600160401b03811161022a576117ad903690600401611abe565b6024356001600160401b03811161022a576117cc903690600401611abe565b808394929403611a2d576117df83611d65565b936117ed6040519586611b5e565b838552601f196117fc85611d65565b013660208701376003546001600160a01b031660005b85811061185f578660405180916020820160208352815180915260206040840192019060005b818110611846575050500390f35b8251845285945060209384019390920191600101611838565b61191190600060405161187181611b43565b60038152606036602083013761189061188b848b8b612383565b611b8e565b61189982611d7c565b6001600160a01b0391821690527f0000000000000000000000000000000000000000000000000000000000000000166118d182611d9f565b52846118dc82611daf565b526118e8838888612383565b35604051948592839263d06ca61f60e01b84526004840152604060248401526044830190611dd3565b03817f00000000000000000000000000000000000000000000000000000000000000006001600160a01b03165afa8060009161197d575b61196493506119695750600061195e828a611dbf565b52611b7f565b611812565b61197290611daf565b5161195e828a611dbf565b919290503d806000833e6119918183611b5e565b602082828101031261022a578151916001600160401b03831161022a57818101601f84830101121561022a5782810151906119cb82611d65565b936119d96040519586611b5e565b8285526020850193820160208460051b83850101011161022a57602081830101935b60208460051b83850101018510611a1d57505050505090611964929190611948565b84518152602094850194016119fb565b60405162461bcd60e51b815260206004820152600f60248201526e098cadccee8d040dad2e6dac2e8c6d608b1b6044820152606490fd5b3461022a57600036600319011261022a57611a7d611b04565b600b541561035e577f2deddd1421c6af279bef431a0556923b575d045194f9a28ed0e009e1c65780bb6020600a54604051908152a16000600a819055600b55005b9181601f8401121561022a578235916001600160401b03831161022a576020808501948460051b01011161022a57565b600435906001600160a01b038216820361022a57565b6000546001600160a01b03163303611b1857565b60405163118cdaa760e01b8152336004820152602490fd5b6001600160401b03811161144457604052565b608081019081106001600160401b0382111761144457604052565b90601f801991011681019081106001600160401b0382111761144457604052565b60001981146103fa5760010190565b356001600160a01b038116810361022a5790565b919082039182116103fa57565b9081602091031261022a5751801515810361022a5790565b903590601e198136030182121561022a57018035906001600160401b03821161022a5760200191813603831361022a57565b6001600160401b03811161144457601f01601f191660200190565b8151919060418303611c4557611c3e92506020820151906060604084015193015160001a90611c50565b9192909190565b505060009160029190565b91907f7fffffffffffffffffffffffffffffff5d576e7357a4501ddfe92f46681b20a08411611cd457926020929160ff608095604051948552168484015260408301526060820152600092839182805260015afa15611cc85780516001600160a01b03811615611cbf57918190565b50809160019190565b604051903d90823e3d90fd5b50505060009160039190565b6004811015611d4f5780611cf2575050565b60018103611d0c5760405163f645eedf60e01b8152600490fd5b60028103611d2d5760405163fce698f760e01b815260048101839052602490fd5b600314611d375750565b602490604051906335e2f38360e21b82526004820152fd5b634e487b7160e01b600052602160045260246000fd5b6001600160401b0381116114445760051b60200190565b805115611d895760200190565b634e487b7160e01b600052603260045260246000fd5b805160011015611d895760400190565b805160021015611d895760600190565b8051821015611d895760209160051b010190565b90815180825260208080930193019160005b828110611df3575050505090565b83516001600160a01b031685529381019392810192600101611de5565b9192608093611e3592979695978452602084015260a0604084015260a0830190611dd3565b6001600160a01b0390951660608201520152565b6040805163095ea7b360e01b8082526001600160a01b037f0000000000000000000000000000000000000000000000000000000000000000811660048401526024830186905293909316976000979296949594929392916020816044818c8e5af180156122cb57612364575b5086519460e086018681106001600160401b03821117612350579062ffffff9189528a875260018060a01b037f000000000000000000000000000000000000000000000000000000000000000016602088015216878601523060608601528560808601528760a08601528760c08601528651946304e45aaf60e01b865260018060a01b03815116600487015260018060a01b03602082015116602487015262ffffff8882015116604487015260018060a01b0360608201511660648701526080810151608487015260a081015160a487015260c060018060a01b039101511660c486015260208560e4818b60018060a01b037f0000000000000000000000000000000000000000000000000000000000000000165af188958161231c575b5061203e575050845163a9059cbb60e01b81523360048201526024810194909452509394919350602091849150604490829087905af19081156120355750612019575090565b6120319060203d602011610c0f57610c018183611b5e565b5090565b513d84823e3d90fd5b9193975091935086156123125784519283527f00000000000000000000000000000000000000000000000000000000000000006001600160a01b0316600484018190526024840188905292602081806044810103818a7f00000000000000000000000000000000000000000000000000000000000000006001600160a01b03165af18015612308576122e9575b50845192606084018481106001600160401b038211176122d557865260028452853660208601377f00000000000000000000000000000000000000000000000000000000000000006001600160a01b031661212585611d7c565b5261212f84611d9f565b6001600160a01b039095169485905285516370a0823160e01b808252306004830152909490936020866024818a5afa9586156122cb578996612297575b50823b156122935791899189809461219b8b5197889687958694635c11d79560e01b8652309260048701611e10565b03925af19081612280575b5061220e575050815163a9059cbb60e01b8152336004820152602481019490945250909190602082604481866001600160a01b037f0000000000000000000000000000000000000000000000000000000000000000165af19081156120355750612019575090565b60209194929550602484518097819382523060048301525afa918215612276575090612242575b61223f9250611ba2565b90565b506020823d60201161226e575b8161225c60209383611b5e565b8101031261022a5761223f9151612235565b3d915061224f565b51903d90823e3d90fd5b61228c90969196611b30565b94386121a6565b8880fd5b9095506020813d6020116122c3575b816122b360209383611b5e565b810103126122935751943861216c565b3d91506122a6565b88513d8b823e3d90fd5b634e487b7160e01b88526041600452602488fd5b6123019060203d602011610c0f57610c018183611b5e565b50386120cb565b86513d89823e3d90fd5b5050505050905090565b9095506020813d602011612348575b8161233860209383611b5e565b8101031261229357519438611fd3565b3d915061232b565b634e487b7160e01b8a52604160045260248afd5b61237c9060203d602011610c0f57610c018183611b5e565b5038611eb5565b9190811015611d895760051b0190565b811561244f576001600160a01b03908116806123ed575060008080809481948254165af1903d156123e7573d906123c982611bf9565b916123d76040519384611b5e565b825260203d92013e5b15610bd557565b506123e0565b6000805460405163a9059cbb60e01b815293166001600160a01b031660048401526024830193909352909160209183918290816044810103925af18015610c16576124355750565b61244c9060203d8111610c0f57610c018183611b5e565b50565b505056fea2646970667358221220772570dea566523ad22cabaa0c372e840bb5418d5e4b1c96c53a56de581f235964736f6c63430008140033","opcodes":"PUSH2 0x100 PUSH1 0x40 DUP2 DUP2 MSTORE CALLVALUE PUSH3 0x344 JUMPI PUSH1 0xA0 DUP3 PUSH3 0x2822 DUP1 CODESIZE SUB DUP1 SWAP2 PUSH3 0x25 DUP3 DUP6 PUSH3 0x349 JUMP JUMPDEST DUP4 CODECOPY DUP2 ADD SUB SLT PUSH3 0x344 JUMPI PUSH3 0x3B DUP3 PUSH3 0x383 JUMP JUMPDEST PUSH1 0x20 SWAP1 PUSH3 0x4B DUP3 DUP6 ADD PUSH3 0x383 JUMP JUMPDEST PUSH3 0x58 DUP5 DUP7 ADD PUSH3 0x383 JUMP JUMPDEST SWAP5 PUSH1 0x80 PUSH3 0x69 PUSH1 0x60 DUP4 ADD PUSH3 0x383 JUMP JUMPDEST SWAP2 ADD MLOAD SWAP3 CALLER ISZERO PUSH3 0x32C JUMPI PUSH1 0x0 DUP1 SLOAD CALLER PUSH1 0x1 PUSH1 0x1 PUSH1 0xA0 SHL SUB NOT DUP1 DUP4 AND DUP3 OR DUP5 SSTORE DUP10 MLOAD SWAP4 SWAP11 SWAP1 SWAP6 PUSH1 0x1 PUSH1 0x1 PUSH1 0xA0 SHL SUB SWAP6 SWAP2 SWAP5 SWAP4 SWAP1 SWAP3 DUP7 SWAP3 SWAP2 DUP4 AND PUSH32 0x8BE0079C531659141344CD1FD0A4F28419497F9722A3DAAFE3B4186F6B6457E0 DUP15 DUP1 LOG3 PUSH1 0x1 DUP1 SSTORE AND SWAP2 DUP3 ISZERO DUP1 ISZERO PUSH3 0x321 JUMPI JUMPDEST PUSH3 0x312 JUMPI POP DUP4 AND SWAP5 DUP6 ISZERO PUSH3 0x301 JUMPI PUSH2 0x1388 DUP8 GT PUSH3 0x2F0 JUMPI DUP2 DUP5 DUP10 SWAP3 PUSH1 0x4 SWAP5 PUSH1 0x80 MSTORE AND PUSH1 0xA0 MSTORE DUP10 MLOAD SWAP3 DUP4 DUP1 SWAP3 PUSH4 0x15AB88C9 PUSH1 0xE3 SHL DUP3 MSTORE GAS STATICCALL SWAP2 DUP3 ISZERO PUSH3 0x2E6 JUMPI DUP4 SWAP2 DUP11 SWAP4 PUSH3 0x2A0 JUMPI JUMPDEST POP DUP3 PUSH1 0xC0 MSTORE AND SWAP2 DUP3 ISZERO SWAP2 DUP3 ISZERO PUSH3 0x293 JUMPI JUMPDEST POP POP PUSH3 0x283 JUMPI DUP2 PUSH1 0x3 SLOAD AND OR PUSH1 0x3 SSTORE PUSH1 0x6 SLOAD AND OR PUSH1 0x6 SSTORE PUSH1 0x9 SSTORE DUP2 MLOAD SWAP1 DUP2 ADD SWAP2 PUSH32 0x8CAD95687BA82C2CE50E74F7B754645E5117C3A5BEC8151C0726D5857980A866 DUP4 MSTORE PUSH32 0xBB9EF1C19D254C3A436BDA7CBD5EE057A57E19A2190E5C8796CEE57C173C5FD6 DUP2 DUP4 ADD MSTORE CHAINID PUSH1 0x60 DUP4 ADD MSTORE ADDRESS PUSH1 0x80 DUP4 ADD MSTORE PUSH1 0x80 DUP3 MSTORE PUSH1 0xA0 DUP3 ADD SWAP4 DUP3 DUP6 LT PUSH1 0x1 DUP1 PUSH1 0x40 SHL SUB DUP7 GT OR PUSH3 0x26F JUMPI POP DUP4 SWAP1 MSTORE MLOAD SWAP1 KECCAK256 PUSH1 0xE0 MSTORE PUSH2 0x2489 SWAP1 DUP2 PUSH3 0x399 DUP3 CODECOPY PUSH1 0x80 MLOAD DUP2 DUP2 DUP2 PUSH2 0x455 ADD MSTORE DUP2 DUP2 PUSH2 0x1064 ADD MSTORE DUP2 DUP2 PUSH2 0x1139 ADD MSTORE DUP2 DUP2 PUSH2 0x11A0 ADD MSTORE DUP2 DUP2 PUSH2 0x1915 ADD MSTORE PUSH2 0x2052 ADD MSTORE PUSH1 0xA0 MLOAD DUP2 DUP2 DUP2 PUSH2 0x26E ADD MSTORE DUP2 DUP2 PUSH2 0x1E62 ADD MSTORE PUSH2 0x1FA9 ADD MSTORE PUSH1 0xC0 MLOAD DUP2 DUP2 DUP2 PUSH2 0x5D3 ADD MSTORE DUP2 DUP2 PUSH2 0x86E ADD MSTORE DUP2 DUP2 PUSH2 0x10D5 ADD MSTORE DUP2 DUP2 PUSH2 0x164E ADD MSTORE DUP2 DUP2 PUSH2 0x18A8 ADD MSTORE DUP2 DUP2 PUSH2 0x1EE3 ADD MSTORE DUP2 DUP2 PUSH2 0x2096 ADD MSTORE DUP2 DUP2 PUSH2 0x20F4 ADD MSTORE PUSH2 0x21DC ADD MSTORE PUSH1 0xE0 MLOAD DUP2 DUP2 DUP2 PUSH2 0xF0B ADD MSTORE PUSH2 0x16F0 ADD MSTORE RETURN JUMPDEST PUSH4 0x4E487B71 PUSH1 0xE0 SHL DUP2 MSTORE PUSH1 0x41 PUSH1 0x4 MSTORE PUSH1 0x24 SWAP1 REVERT JUMPDEST DUP6 MLOAD PUSH3 0x310101 PUSH1 0xE5 SHL DUP2 MSTORE PUSH1 0x4 SWAP1 REVERT JUMPDEST AND DUP3 EQ SWAP1 POP CODESIZE DUP1 PUSH3 0x134 JUMP JUMPDEST DUP9 DUP1 SWAP3 SWAP5 POP DUP2 SWAP4 POP RETURNDATASIZE DUP4 GT PUSH3 0x2DE JUMPI JUMPDEST PUSH3 0x2BD DUP2 DUP4 PUSH3 0x349 JUMP JUMPDEST DUP2 ADD SUB SLT PUSH3 0x2DA JUMPI PUSH3 0x2D2 DUP4 SWAP2 PUSH3 0x383 JUMP JUMPDEST SWAP2 CODESIZE PUSH3 0x122 JUMP JUMPDEST DUP9 DUP1 REVERT JUMPDEST POP RETURNDATASIZE PUSH3 0x2B1 JUMP JUMPDEST DUP9 MLOAD RETURNDATASIZE DUP12 DUP3 RETURNDATACOPY RETURNDATASIZE SWAP1 REVERT JUMPDEST DUP9 MLOAD PUSH4 0xCD4E6167 PUSH1 0xE0 SHL DUP2 MSTORE PUSH1 0x4 SWAP1 REVERT JUMPDEST DUP9 MLOAD PUSH4 0xED1B8B3 PUSH1 0xE3 SHL DUP2 MSTORE PUSH1 0x4 SWAP1 REVERT JUMPDEST PUSH4 0x466D7FEF PUSH1 0xE0 SHL DUP2 MSTORE PUSH1 0x4 SWAP1 REVERT JUMPDEST POP DUP5 DUP8 AND ISZERO PUSH3 0xD6 JUMP JUMPDEST DUP6 MLOAD PUSH4 0x1E4FBDF7 PUSH1 0xE0 SHL DUP2 MSTORE PUSH1 0x0 PUSH1 0x4 DUP3 ADD MSTORE PUSH1 0x24 SWAP1 REVERT JUMPDEST PUSH1 0x0 DUP1 REVERT JUMPDEST PUSH1 0x1F SWAP1 SWAP2 ADD PUSH1 0x1F NOT AND DUP2 ADD SWAP1 PUSH1 0x1 PUSH1 0x1 PUSH1 0x40 SHL SUB DUP3 GT SWAP1 DUP3 LT OR PUSH3 0x36D JUMPI PUSH1 0x40 MSTORE JUMP JUMPDEST PUSH4 0x4E487B71 PUSH1 0xE0 SHL PUSH1 0x0 MSTORE PUSH1 0x41 PUSH1 0x4 MSTORE PUSH1 0x24 PUSH1 0x0 REVERT JUMPDEST MLOAD SWAP1 PUSH1 0x1 PUSH1 0x1 PUSH1 0xA0 SHL SUB DUP3 AND DUP3 SUB PUSH3 0x344 JUMPI JUMP INVALID PUSH1 0x80 PUSH1 0x40 MSTORE PUSH1 0x4 CALLDATASIZE LT ISZERO PUSH2 0x1B JUMPI JUMPDEST CALLDATASIZE ISZERO PUSH2 0x19 JUMPI PUSH1 0x0 DUP1 REVERT JUMPDEST STOP JUMPDEST PUSH1 0x0 CALLDATALOAD PUSH1 0xE0 SHR DUP1 PUSH4 0x14025DCD EQ PUSH2 0x1A64 JUMPI DUP1 PUSH4 0x273EFEE0 EQ PUSH2 0x177D JUMPI DUP1 PUSH4 0x2BCE68D2 EQ PUSH2 0x1713 JUMPI DUP1 PUSH4 0x3644E515 EQ PUSH2 0x16D8 JUMPI DUP1 PUSH4 0x413510EA EQ PUSH2 0xA55 JUMPI DUP1 PUSH4 0x46904840 EQ PUSH2 0xA2C JUMPI DUP1 PUSH4 0x49FCF0E4 EQ PUSH2 0x9C7 JUMPI DUP1 PUSH4 0x4FE02B44 EQ PUSH2 0x97F JUMPI DUP1 PUSH4 0x50FD70C4 EQ PUSH2 0x8FD JUMPI DUP1 PUSH4 0x5EFC228E EQ PUSH2 0x896 JUMPI DUP1 PUSH4 0x6078AF92 EQ PUSH2 0x7CB JUMPI DUP1 PUSH4 0x643090BC EQ PUSH2 0x7AD JUMPI DUP1 PUSH4 0x696C11E5 EQ PUSH2 0x772 JUMPI DUP1 PUSH4 0x6A19C9C7 EQ PUSH2 0x754 JUMPI DUP1 PUSH4 0x715018A6 EQ PUSH2 0x6FB JUMPI DUP1 PUSH4 0x733EC0C4 EQ PUSH2 0x667 JUMPI DUP1 PUSH4 0x7AADEF8B EQ PUSH2 0x649 JUMPI DUP1 PUSH4 0x8ABDF5AA EQ PUSH2 0x62B JUMPI DUP1 PUSH4 0x8DA5CB5B EQ PUSH2 0x602 JUMPI DUP1 PUSH4 0x8DD95002 EQ PUSH2 0x5BD JUMPI DUP1 PUSH4 0x901A5402 EQ PUSH2 0x594 JUMPI DUP1 PUSH4 0x95CCEA67 EQ PUSH2 0x567 JUMPI DUP1 PUSH4 0xB5C86C46 EQ PUSH2 0x4E8 JUMPI DUP1 PUSH4 0xBC063E1A EQ PUSH2 0x4CB JUMPI DUP1 PUSH4 0xC1D8D1D9 EQ PUSH2 0x4A2 JUMPI DUP1 PUSH4 0xC22481D4 EQ PUSH2 0x484 JUMPI DUP1 PUSH4 0xD20CCDC2 EQ PUSH2 0x43F JUMPI DUP1 PUSH4 0xD73792A9 EQ PUSH2 0x422 JUMPI DUP1 PUSH4 0xD99426A5 EQ PUSH2 0x38E JUMPI DUP1 PUSH4 0xDC49C1B2 EQ PUSH2 0x370 JUMPI DUP1 PUSH4 0xDCC9DEF5 EQ PUSH2 0x2D8 JUMPI DUP1 PUSH4 0xE0555801 EQ PUSH2 0x29D JUMPI DUP1 PUSH4 0xE47AAF6D EQ PUSH2 0x258 JUMPI DUP1 PUSH4 0xE4DCFA6E EQ PUSH2 0x22F JUMPI PUSH4 0xF2FDE38B SUB PUSH2 0xE JUMPI CALLVALUE PUSH2 0x22A JUMPI PUSH1 0x20 CALLDATASIZE PUSH1 0x3 NOT ADD SLT PUSH2 0x22A JUMPI PUSH2 0x1BA PUSH2 0x1AEE JUMP JUMPDEST PUSH2 0x1C2 PUSH2 0x1B04 JUMP JUMPDEST PUSH1 0x1 PUSH1 0x1 PUSH1 0xA0 SHL SUB SWAP1 DUP2 AND SWAP1 DUP2 ISZERO PUSH2 0x211 JUMPI PUSH1 0x0 SLOAD DUP3 PUSH1 0x1 PUSH1 0x1 PUSH1 0x60 SHL SUB PUSH1 0xA0 SHL DUP3 AND OR PUSH1 0x0 SSTORE AND PUSH32 0x8BE0079C531659141344CD1FD0A4F28419497F9722A3DAAFE3B4186F6B6457E0 PUSH1 0x0 DUP1 LOG3 STOP JUMPDEST PUSH1 0x40 MLOAD PUSH4 0x1E4FBDF7 PUSH1 0xE0 SHL DUP2 MSTORE PUSH1 0x0 PUSH1 0x4 DUP3 ADD MSTORE PUSH1 0x24 SWAP1 REVERT JUMPDEST PUSH1 0x0 DUP1 REVERT JUMPDEST CALLVALUE PUSH2 0x22A JUMPI PUSH1 0x0 CALLDATASIZE PUSH1 0x3 NOT ADD SLT PUSH2 0x22A JUMPI PUSH1 0x7 SLOAD PUSH1 0x40 MLOAD PUSH1 0x1 PUSH1 0x1 PUSH1 0xA0 SHL SUB SWAP1 SWAP2 AND DUP2 MSTORE PUSH1 0x20 SWAP1 RETURN JUMPDEST CALLVALUE PUSH2 0x22A JUMPI PUSH1 0x0 CALLDATASIZE PUSH1 0x3 NOT ADD SLT PUSH2 0x22A JUMPI PUSH1 0x40 MLOAD PUSH32 0x0 PUSH1 0x1 PUSH1 0x1 PUSH1 0xA0 SHL SUB AND DUP2 MSTORE PUSH1 0x20 SWAP1 RETURN JUMPDEST CALLVALUE PUSH2 0x22A JUMPI PUSH1 0x0 CALLDATASIZE PUSH1 0x3 NOT ADD SLT PUSH2 0x22A JUMPI PUSH1 0x20 PUSH1 0x40 MLOAD PUSH32 0x939C21A48A8DBE3A9A2404A1D46691E4D39F6583D6EC6B35714604C986D80106 DUP2 MSTORE RETURN JUMPDEST CALLVALUE PUSH2 0x22A JUMPI PUSH1 0x0 CALLDATASIZE PUSH1 0x3 NOT ADD SLT PUSH2 0x22A JUMPI PUSH2 0x2F1 PUSH2 0x1B04 JUMP JUMPDEST PUSH1 0xB SLOAD DUP1 ISZERO PUSH2 0x35E JUMPI DUP1 TIMESTAMP LT PUSH2 0x346 JUMPI PUSH1 0x9 SLOAD PUSH32 0x528D9479E9F9889A87A3C30C7F7BA537E5E59C4C85A37733B16E57C62DF61302 PUSH1 0x40 PUSH1 0xA SLOAD SWAP3 DUP2 MLOAD SWAP1 DUP2 MSTORE DUP4 PUSH1 0x20 DUP3 ADD MSTORE LOG1 PUSH1 0x9 SSTORE PUSH1 0x0 PUSH1 0xA DUP2 SWAP1 SSTORE PUSH1 0xB SSTORE STOP JUMPDEST PUSH1 0x24 SWAP1 PUSH1 0x40 MLOAD SWAP1 PUSH4 0x50BA9F29 PUSH1 0xE0 SHL DUP3 MSTORE PUSH1 0x4 DUP3 ADD MSTORE REVERT JUMPDEST PUSH1 0x40 MLOAD PUSH4 0x58B89DB5 PUSH1 0xE1 SHL DUP2 MSTORE PUSH1 0x4 SWAP1 REVERT JUMPDEST CALLVALUE PUSH2 0x22A JUMPI PUSH1 0x0 CALLDATASIZE PUSH1 0x3 NOT ADD SLT PUSH2 0x22A JUMPI PUSH1 0x20 PUSH1 0xB SLOAD PUSH1 0x40 MLOAD SWAP1 DUP2 MSTORE RETURN JUMPDEST CALLVALUE PUSH2 0x22A JUMPI PUSH1 0x20 CALLDATASIZE PUSH1 0x3 NOT ADD SLT PUSH2 0x22A JUMPI PUSH1 0x4 CALLDATALOAD PUSH2 0x3AA PUSH2 0x1B04 JUMP JUMPDEST PUSH2 0x1388 DUP2 GT PUSH2 0x410 JUMPI DUP1 PUSH1 0xA SSTORE PUSH3 0x2A300 TIMESTAMP ADD DUP1 TIMESTAMP GT PUSH2 0x3FA JUMPI PUSH32 0xF737D309C7EC2DFC95AC81F194900D7820487D0A7E5F81627C1E9B0B06D71AFE SWAP2 DUP2 PUSH1 0x40 SWAP3 PUSH1 0xB SSTORE DUP3 MLOAD SWAP2 DUP3 MSTORE PUSH1 0x20 DUP3 ADD MSTORE LOG1 STOP JUMPDEST PUSH4 0x4E487B71 PUSH1 0xE0 SHL PUSH1 0x0 MSTORE PUSH1 0x11 PUSH1 0x4 MSTORE PUSH1 0x24 PUSH1 0x0 REVERT JUMPDEST PUSH1 0x40 MLOAD PUSH4 0xCD4E6167 PUSH1 0xE0 SHL DUP2 MSTORE PUSH1 0x4 SWAP1 REVERT JUMPDEST CALLVALUE PUSH2 0x22A JUMPI PUSH1 0x0 CALLDATASIZE PUSH1 0x3 NOT ADD SLT PUSH2 0x22A JUMPI PUSH1 0x20 PUSH1 0x40 MLOAD PUSH2 0x2710 DUP2 MSTORE RETURN JUMPDEST CALLVALUE PUSH2 0x22A JUMPI PUSH1 0x0 CALLDATASIZE PUSH1 0x3 NOT ADD SLT PUSH2 0x22A JUMPI PUSH1 0x40 MLOAD PUSH32 0x0 PUSH1 0x1 PUSH1 0x1 PUSH1 0xA0 SHL SUB AND DUP2 MSTORE PUSH1 0x20 SWAP1 RETURN JUMPDEST CALLVALUE PUSH2 0x22A JUMPI PUSH1 0x0 CALLDATASIZE PUSH1 0x3 NOT ADD SLT PUSH2 0x22A JUMPI PUSH1 0x20 PUSH1 0x8 SLOAD PUSH1 0x40 MLOAD SWAP1 DUP2 MSTORE RETURN JUMPDEST CALLVALUE PUSH2 0x22A JUMPI PUSH1 0x0 CALLDATASIZE PUSH1 0x3 NOT ADD SLT PUSH2 0x22A JUMPI PUSH1 0x3 SLOAD PUSH1 0x40 MLOAD PUSH1 0x1 PUSH1 0x1 PUSH1 0xA0 SHL SUB SWAP1 SWAP2 AND DUP2 MSTORE PUSH1 0x20 SWAP1 RETURN JUMPDEST CALLVALUE PUSH2 0x22A JUMPI PUSH1 0x0 CALLDATASIZE PUSH1 0x3 NOT ADD SLT PUSH2 0x22A JUMPI PUSH1 0x20 PUSH1 0x40 MLOAD PUSH2 0x1388 DUP2 MSTORE RETURN JUMPDEST CALLVALUE PUSH2 0x22A JUMPI PUSH1 0x0 CALLDATASIZE PUSH1 0x3 NOT ADD SLT PUSH2 0x22A JUMPI PUSH2 0x501 PUSH2 0x1B04 JUMP JUMPDEST PUSH1 0x8 SLOAD DUP1 ISZERO PUSH2 0x35E JUMPI DUP1 TIMESTAMP LT PUSH2 0x346 JUMPI PUSH1 0x6 SLOAD PUSH1 0x7 SLOAD PUSH1 0x1 PUSH1 0x1 PUSH1 0xA0 SHL SUB DUP1 DUP3 AND SWAP1 DUP2 SWAP1 DUP5 AND PUSH32 0xAAEBCF1BFA00580E41D966056B48521FA9F202645C86D4DDF28113E617C1B1D3 PUSH1 0x0 DUP1 LOG3 PUSH1 0x1 PUSH1 0x1 PUSH1 0xA0 SHL SUB NOT SWAP3 DUP4 AND OR PUSH1 0x6 SSTORE AND PUSH1 0x7 SSTORE PUSH1 0x0 PUSH1 0x8 SSTORE STOP JUMPDEST CALLVALUE PUSH2 0x22A JUMPI PUSH1 0x40 CALLDATASIZE PUSH1 0x3 NOT ADD SLT PUSH2 0x22A JUMPI PUSH2 0x19 PUSH2 0x583 PUSH2 0x1AEE JUMP JUMPDEST PUSH2 0x58B PUSH2 0x1B04 JUMP JUMPDEST PUSH1 0x24 CALLDATALOAD SWAP1 PUSH2 0x2393 JUMP JUMPDEST CALLVALUE PUSH2 0x22A JUMPI PUSH1 0x0 CALLDATASIZE PUSH1 0x3 NOT ADD SLT PUSH2 0x22A JUMPI PUSH1 0x4 SLOAD PUSH1 0x40 MLOAD PUSH1 0x1 PUSH1 0x1 PUSH1 0xA0 SHL SUB SWAP1 SWAP2 AND DUP2 MSTORE PUSH1 0x20 SWAP1 RETURN JUMPDEST CALLVALUE PUSH2 0x22A JUMPI PUSH1 0x0 CALLDATASIZE PUSH1 0x3 NOT ADD SLT PUSH2 0x22A JUMPI PUSH1 0x40 MLOAD PUSH32 0x0 PUSH1 0x1 PUSH1 0x1 PUSH1 0xA0 SHL SUB AND DUP2 MSTORE PUSH1 0x20 SWAP1 RETURN JUMPDEST CALLVALUE PUSH2 0x22A JUMPI PUSH1 0x0 CALLDATASIZE PUSH1 0x3 NOT ADD SLT PUSH2 0x22A JUMPI PUSH1 0x0 SLOAD PUSH1 0x40 MLOAD PUSH1 0x1 PUSH1 0x1 PUSH1 0xA0 SHL SUB SWAP1 SWAP2 AND DUP2 MSTORE PUSH1 0x20 SWAP1 RETURN JUMPDEST CALLVALUE PUSH2 0x22A JUMPI PUSH1 0x0 CALLDATASIZE PUSH1 0x3 NOT ADD SLT PUSH2 0x22A JUMPI PUSH1 0x20 PUSH1 0x9 SLOAD PUSH1 0x40 MLOAD SWAP1 DUP2 MSTORE RETURN JUMPDEST CALLVALUE PUSH2 0x22A JUMPI PUSH1 0x0 CALLDATASIZE PUSH1 0x3 NOT ADD SLT PUSH2 0x22A JUMPI PUSH1 0x20 PUSH1 0x40 MLOAD PUSH3 0x2A300 DUP2 MSTORE RETURN JUMPDEST CALLVALUE PUSH2 0x22A JUMPI PUSH1 0x20 CALLDATASIZE PUSH1 0x3 NOT ADD SLT PUSH2 0x22A JUMPI PUSH2 0x680 PUSH2 0x1AEE JUMP JUMPDEST PUSH2 0x688 PUSH2 0x1B04 JUMP JUMPDEST PUSH1 0x1 PUSH1 0x1 PUSH1 0xA0 SHL SUB AND DUP1 ISZERO PUSH2 0x6E9 JUMPI DUP1 PUSH1 0x1 PUSH1 0x1 PUSH1 0x60 SHL SUB PUSH1 0xA0 SHL PUSH1 0x7 SLOAD AND OR PUSH1 0x7 SSTORE PUSH3 0x2A300 TIMESTAMP ADD DUP1 TIMESTAMP GT PUSH2 0x3FA JUMPI PUSH1 0x20 DUP2 PUSH32 0xD25BD1071600BA5B7EE8ABCDB6B4D39B01F5A7F2818F41F73682B87D802911CD SWAP3 PUSH1 0x8 SSTORE PUSH1 0x40 MLOAD SWAP1 DUP2 MSTORE LOG2 STOP JUMPDEST PUSH1 0x40 MLOAD PUSH4 0xED1B8B3 PUSH1 0xE3 SHL DUP2 MSTORE PUSH1 0x4 SWAP1 REVERT JUMPDEST CALLVALUE PUSH2 0x22A JUMPI PUSH1 0x0 CALLDATASIZE PUSH1 0x3 NOT ADD SLT PUSH2 0x22A JUMPI PUSH2 0x714 PUSH2 0x1B04 JUMP JUMPDEST PUSH1 0x0 DUP1 SLOAD PUSH1 0x1 PUSH1 0x1 PUSH1 0xA0 SHL SUB NOT DUP2 AND DUP3 SSTORE PUSH1 0x1 PUSH1 0x1 PUSH1 0xA0 SHL SUB AND PUSH32 0x8BE0079C531659141344CD1FD0A4F28419497F9722A3DAAFE3B4186F6B6457E0 DUP3 DUP1 LOG3 STOP JUMPDEST CALLVALUE PUSH2 0x22A JUMPI PUSH1 0x0 CALLDATASIZE PUSH1 0x3 NOT ADD SLT PUSH2 0x22A JUMPI PUSH1 0x20 PUSH1 0x5 SLOAD PUSH1 0x40 MLOAD SWAP1 DUP2 MSTORE RETURN JUMPDEST CALLVALUE PUSH2 0x22A JUMPI PUSH1 0x0 CALLDATASIZE PUSH1 0x3 NOT ADD SLT PUSH2 0x22A JUMPI PUSH1 0x20 PUSH1 0x40 MLOAD PUSH32 0x618358AC3DB8DC274F0CD8829DA7E234BD48CD73C4A740AEDE1ADEC9846D06A1 DUP2 MSTORE RETURN JUMPDEST CALLVALUE PUSH2 0x22A JUMPI PUSH1 0x0 CALLDATASIZE PUSH1 0x3 NOT ADD SLT PUSH2 0x22A JUMPI PUSH1 0x20 PUSH1 0xA SLOAD PUSH1 0x40 MLOAD SWAP1 DUP2 MSTORE RETURN JUMPDEST CALLVALUE PUSH2 0x22A JUMPI PUSH1 0x20 CALLDATASIZE PUSH1 0x3 NOT ADD SLT PUSH2 0x22A JUMPI PUSH2 0x7E4 PUSH2 0x1AEE JUMP JUMPDEST PUSH2 0x7EC PUSH2 0x1B04 JUMP JUMPDEST PUSH1 0x1 PUSH1 0x1 PUSH1 0xA0 SHL SUB SWAP1 DUP2 AND SWAP1 DUP2 ISZERO SWAP1 DUP2 ISZERO PUSH2 0x86A JUMPI JUMPDEST POP PUSH2 0x859 JUMPI DUP1 PUSH1 0x1 PUSH1 0x1 PUSH1 0x60 SHL SUB PUSH1 0xA0 SHL PUSH1 0x4 SLOAD AND OR PUSH1 0x4 SSTORE PUSH3 0x2A300 TIMESTAMP ADD DUP1 TIMESTAMP GT PUSH2 0x3FA JUMPI PUSH1 0x20 DUP2 PUSH32 0x29DE7BA5CD5CA8E6F6A34F38A4B954ECABE1538AE30BB80E43569719B04A111E SWAP3 PUSH1 0x5 SSTORE PUSH1 0x40 MLOAD SWAP1 DUP2 MSTORE LOG2 STOP JUMPDEST PUSH1 0x40 MLOAD PUSH3 0x310101 PUSH1 0xE5 SHL DUP2 MSTORE PUSH1 0x4 SWAP1 REVERT JUMPDEST SWAP1 POP PUSH32 0x0 AND DUP2 EQ DUP3 PUSH2 0x802 JUMP JUMPDEST CALLVALUE PUSH2 0x22A JUMPI PUSH1 0x0 CALLDATASIZE PUSH1 0x3 NOT ADD SLT PUSH2 0x22A JUMPI PUSH2 0x8AF PUSH2 0x1B04 JUMP JUMPDEST PUSH1 0x8 SLOAD ISZERO PUSH2 0x35E JUMPI PUSH1 0x7 SLOAD PUSH1 0x1 PUSH1 0x1 PUSH1 0xA0 SHL SUB DUP2 AND PUSH32 0x3E28CED8FCB9933A225EDBA42BB1F70C43C60D8A79FFA26F769AAC0F5544E1A5 PUSH1 0x0 DUP1 LOG2 PUSH1 0x1 PUSH1 0x1 PUSH1 0xA0 SHL SUB NOT AND PUSH1 0x7 SSTORE PUSH1 0x0 PUSH1 0x8 SSTORE STOP JUMPDEST CALLVALUE PUSH2 0x22A JUMPI PUSH1 0x0 CALLDATASIZE PUSH1 0x3 NOT ADD SLT PUSH2 0x22A JUMPI PUSH2 0x916 PUSH2 0x1B04 JUMP JUMPDEST PUSH1 0x4 SLOAD PUSH1 0x1 PUSH1 0x1 PUSH1 0xA0 SHL SUB DUP1 DUP3 AND SWAP2 DUP3 ISZERO PUSH2 0x35E JUMPI PUSH1 0x5 SLOAD DUP1 TIMESTAMP LT PUSH2 0x346 JUMPI POP PUSH1 0x3 SLOAD SWAP1 PUSH1 0x1 PUSH1 0x1 PUSH1 0x60 SHL SUB PUSH1 0xA0 SHL SWAP1 DUP5 DUP3 DUP5 AND OR PUSH1 0x3 SSTORE AND PUSH1 0x4 SSTORE PUSH1 0x0 PUSH1 0x5 SSTORE AND PUSH32 0xFDEF5FA97F9834C3CE5C25F08D33B4E5A200F1055BC73FA7B69CC974C47B7B34 PUSH1 0x0 DUP1 LOG3 STOP JUMPDEST CALLVALUE PUSH2 0x22A JUMPI PUSH1 0x40 CALLDATASIZE PUSH1 0x3 NOT ADD SLT PUSH2 0x22A JUMPI PUSH1 0x1 PUSH1 0x1 PUSH1 0xA0 SHL SUB PUSH2 0x9A0 PUSH2 0x1AEE JUMP JUMPDEST AND PUSH1 0x0 MSTORE PUSH1 0x2 PUSH1 0x20 MSTORE PUSH1 0x40 PUSH1 0x0 KECCAK256 PUSH1 0x24 CALLDATALOAD PUSH1 0x0 MSTORE PUSH1 0x20 MSTORE PUSH1 0x20 PUSH1 0x40 PUSH1 0x0 KECCAK256 SLOAD PUSH1 0x40 MLOAD SWAP1 DUP2 MSTORE RETURN JUMPDEST CALLVALUE PUSH2 0x22A JUMPI PUSH1 0x0 CALLDATASIZE PUSH1 0x3 NOT ADD SLT PUSH2 0x22A JUMPI PUSH2 0x9E0 PUSH2 0x1B04 JUMP JUMPDEST PUSH1 0x4 SLOAD PUSH1 0x1 PUSH1 0x1 PUSH1 0xA0 SHL SUB DUP2 AND DUP1 ISZERO PUSH2 0x35E JUMPI PUSH32 0x75237797D8AC452994D7896E187CAF611428526B127868F65E5E3B0B721A370 PUSH1 0x0 DUP1 LOG2 PUSH1 0x1 PUSH1 0x1 PUSH1 0xA0 SHL SUB NOT AND PUSH1 0x4 SSTORE PUSH1 0x0 PUSH1 0x5 SSTORE STOP JUMPDEST CALLVALUE PUSH2 0x22A JUMPI PUSH1 0x0 CALLDATASIZE PUSH1 0x3 NOT ADD SLT PUSH2 0x22A JUMPI PUSH1 0x6 SLOAD PUSH1 0x40 MLOAD PUSH1 0x1 PUSH1 0x1 PUSH1 0xA0 SHL SUB SWAP1 SWAP2 AND DUP2 MSTORE PUSH1 0x20 SWAP1 RETURN JUMPDEST CALLVALUE PUSH2 0x22A JUMPI PUSH1 0x40 CALLDATASIZE PUSH1 0x3 NOT ADD SLT PUSH2 0x22A JUMPI PUSH1 0x4 CALLDATALOAD PUSH1 0x1 PUSH1 0x1 PUSH1 0x40 SHL SUB DUP2 GT PUSH2 0x22A JUMPI PUSH2 0xA85 SWAP1 CALLDATASIZE SWAP1 PUSH1 0x4 ADD PUSH2 0x1ABE JUMP JUMPDEST PUSH1 0x2 PUSH1 0x1 SLOAD EQ PUSH2 0x16C6 JUMPI PUSH1 0x2 PUSH1 0x1 SSTORE PUSH1 0x24 CALLDATALOAD TIMESTAMP GT PUSH2 0x146C JUMPI DUP1 ISZERO PUSH2 0x16B4 JUMPI PUSH1 0x3 SLOAD PUSH1 0x40 MLOAD PUSH4 0x70A08231 PUSH1 0xE0 SHL DUP2 MSTORE ADDRESS PUSH1 0x4 DUP3 ADD MSTORE PUSH1 0x1 PUSH1 0x1 PUSH1 0xA0 SHL SUB SWAP1 SWAP2 AND SWAP3 PUSH1 0x20 DUP3 PUSH1 0x24 DUP2 DUP8 GAS STATICCALL SWAP2 DUP3 ISZERO PUSH2 0xC16 JUMPI PUSH1 0x0 SWAP3 PUSH2 0x1680 JUMPI JUMPDEST POP PUSH1 0x0 SWAP3 PUSH1 0x0 JUMPDEST DUP2 DUP2 LT PUSH2 0xCDF JUMPI POP POP PUSH1 0x40 MLOAD PUSH4 0x70A08231 PUSH1 0xE0 SHL DUP2 MSTORE ADDRESS PUSH1 0x4 DUP3 ADD MSTORE SWAP2 SWAP1 POP PUSH1 0x20 DUP3 PUSH1 0x24 DUP2 DUP8 GAS STATICCALL DUP1 ISZERO PUSH2 0xC16 JUMPI PUSH1 0x0 SWAP1 PUSH2 0xCAB JUMPI JUMPDEST PUSH2 0xB24 SWAP3 POP PUSH2 0x1BA2 JUMP JUMPDEST SWAP2 DUP3 ISZERO PUSH2 0xC99 JUMPI PUSH1 0x9 SLOAD DUP1 DUP5 MUL SWAP1 DUP5 DUP3 DIV SUB PUSH2 0x3FA JUMPI PUSH2 0x2710 SWAP1 DIV SWAP2 PUSH2 0xB4A DUP4 DUP6 PUSH2 0x1BA2 JUMP JUMPDEST SWAP3 DUP1 PUSH2 0xC22 JUMPI JUMPDEST PUSH1 0x40 MLOAD PUSH4 0xA9059CBB PUSH1 0xE0 SHL DUP2 MSTORE CALLER PUSH1 0x4 DUP3 ADD MSTORE PUSH1 0x24 DUP2 ADD DUP6 SWAP1 MSTORE PUSH1 0x20 DUP2 PUSH1 0x44 DUP2 PUSH1 0x0 DUP9 GAS CALL SWAP1 DUP2 ISZERO PUSH2 0xC16 JUMPI PUSH1 0x0 SWAP2 PUSH2 0xBE7 JUMPI JUMPDEST POP ISZERO PUSH2 0xBD5 JUMPI PUSH1 0x20 SWAP5 PUSH1 0x40 MLOAD SWAP3 DUP4 MSTORE DUP6 DUP4 ADD MSTORE PUSH1 0x40 DUP3 ADD MSTORE DUP3 PUSH1 0x60 DUP3 ADD MSTORE PUSH32 0xC5F91541570EE410396E78FFF4D3EF181D35EC6E43CC346F958F4FE06B56C472 PUSH1 0x80 CALLER SWAP3 LOG3 PUSH1 0x1 DUP1 SSTORE PUSH1 0x40 MLOAD SWAP1 DUP2 MSTORE RETURN JUMPDEST PUSH1 0x40 MLOAD PUSH4 0x12171D83 PUSH1 0xE3 SHL DUP2 MSTORE PUSH1 0x4 SWAP1 REVERT JUMPDEST PUSH2 0xC09 SWAP2 POP PUSH1 0x20 RETURNDATASIZE PUSH1 0x20 GT PUSH2 0xC0F JUMPI JUMPDEST PUSH2 0xC01 DUP2 DUP4 PUSH2 0x1B5E JUMP JUMPDEST DUP2 ADD SWAP1 PUSH2 0x1BAF JUMP JUMPDEST DUP7 PUSH2 0xB85 JUMP JUMPDEST POP RETURNDATASIZE PUSH2 0xBF7 JUMP JUMPDEST PUSH1 0x40 MLOAD RETURNDATASIZE PUSH1 0x0 DUP3 RETURNDATACOPY RETURNDATASIZE SWAP1 REVERT JUMPDEST PUSH1 0x6 SLOAD PUSH1 0x40 MLOAD PUSH4 0xA9059CBB PUSH1 0xE0 SHL DUP2 MSTORE PUSH1 0x1 PUSH1 0x1 PUSH1 0xA0 SHL SUB SWAP1 SWAP2 AND PUSH1 0x4 DUP3 ADD MSTORE PUSH1 0x24 DUP2 ADD DUP3 SWAP1 MSTORE PUSH1 0x20 DUP2 PUSH1 0x44 DUP2 PUSH1 0x0 DUP9 GAS CALL SWAP1 DUP2 ISZERO PUSH2 0xC16 JUMPI PUSH1 0x0 SWAP2 PUSH2 0xC7A JUMPI JUMPDEST POP PUSH2 0xB51 JUMPI PUSH1 0x40 MLOAD PUSH4 0x12171D83 PUSH1 0xE3 SHL DUP2 MSTORE PUSH1 0x4 SWAP1 REVERT JUMPDEST PUSH2 0xC93 SWAP2 POP PUSH1 0x20 RETURNDATASIZE PUSH1 0x20 GT PUSH2 0xC0F JUMPI PUSH2 0xC01 DUP2 DUP4 PUSH2 0x1B5E JUMP JUMPDEST DUP7 PUSH2 0xC63 JUMP JUMPDEST PUSH1 0x40 MLOAD PUSH4 0xBB2875C3 PUSH1 0xE0 SHL DUP2 MSTORE PUSH1 0x4 SWAP1 REVERT JUMPDEST POP PUSH1 0x20 DUP3 RETURNDATASIZE PUSH1 0x20 GT PUSH2 0xCD7 JUMPI JUMPDEST DUP2 PUSH2 0xCC5 PUSH1 0x20 SWAP4 DUP4 PUSH2 0x1B5E JUMP JUMPDEST DUP2 ADD SUB SLT PUSH2 0x22A JUMPI PUSH2 0xB24 SWAP2 MLOAD PUSH2 0xB1A JUMP JUMPDEST RETURNDATASIZE SWAP2 POP PUSH2 0xCB8 JUMP JUMPDEST PUSH2 0x17E NOT DUP4 CALLDATASIZE SUB ADD DUP2 PUSH1 0x5 SHL DUP5 ADD CALLDATALOAD SLT ISZERO PUSH2 0x22A JUMPI PUSH1 0x1 PUSH1 0x1 PUSH1 0xA0 SHL SUB PUSH2 0xD0E PUSH1 0x5 DUP4 SWAP1 SHL DUP6 ADD CALLDATALOAD DUP6 ADD PUSH2 0x1B8E JUMP JUMPDEST AND ISZERO DUP1 ISZERO PUSH2 0x163A JUMPI JUMPDEST DUP1 ISZERO PUSH2 0x1617 JUMPI JUMPDEST PUSH2 0x1605 JUMPI PUSH1 0x20 DUP2 PUSH1 0x5 SHL DUP5 ADD CALLDATALOAD DUP5 ADD ADD CALLDATALOAD ISZERO PUSH2 0x121E JUMPI PUSH1 0x1 PUSH1 0x1 PUSH1 0xA0 SHL SUB PUSH2 0xD4E PUSH1 0x5 DUP4 SWAP1 SHL DUP6 ADD CALLDATALOAD DUP6 ADD PUSH2 0x1B8E JUMP JUMPDEST AND PUSH1 0x40 MLOAD PUSH4 0x70A08231 PUSH1 0xE0 SHL DUP2 MSTORE ADDRESS PUSH1 0x4 DUP3 ADD MSTORE PUSH1 0x20 DUP2 PUSH1 0x24 DUP2 DUP6 GAS STATICCALL SWAP1 DUP2 ISZERO PUSH2 0xC16 JUMPI PUSH1 0x0 SWAP2 PUSH2 0x15D3 JUMPI JUMPDEST POP PUSH1 0x5 DUP4 SWAP1 SHL DUP6 ADD CALLDATALOAD DUP6 ADD PUSH1 0xE0 DUP2 ADD SWAP1 PUSH2 0xD95 SWAP1 DUP3 SWAP1 PUSH2 0x1BC7 JUMP JUMPDEST ISZERO SWAP1 POP PUSH2 0x1487 JUMPI PUSH1 0x5 DUP5 SWAP1 SHL DUP7 ADD CALLDATALOAD DUP7 ADD PUSH1 0xC0 ADD CALLDATALOAD DUP1 ISZERO PUSH2 0x147E JUMPI JUMPDEST PUSH2 0xDD4 PUSH2 0xDC5 DUP7 PUSH1 0x5 SHL DUP10 ADD CALLDATALOAD DUP10 ADD PUSH2 0x1B8E JUMP JUMPDEST SWAP3 DUP7 PUSH1 0x5 SHL DUP10 ADD CALLDATALOAD DUP10 ADD PUSH2 0x1BC7 JUMP JUMPDEST SWAP3 SWAP1 SWAP2 DUP1 TIMESTAMP GT PUSH2 0x146C JUMPI PUSH1 0x1 PUSH1 0xFF PUSH1 0xA0 DUP10 PUSH1 0x5 SHL DUP13 ADD CALLDATALOAD DUP13 ADD ADD CALLDATALOAD AND SHL CALLER PUSH1 0x0 MSTORE PUSH1 0x2 PUSH1 0x20 MSTORE PUSH1 0x40 PUSH1 0x0 KECCAK256 PUSH1 0xA0 DUP10 PUSH1 0x5 SHL DUP13 ADD CALLDATALOAD DUP13 ADD ADD CALLDATALOAD PUSH1 0x8 SHR PUSH1 0x0 MSTORE PUSH1 0x20 MSTORE PUSH1 0x40 PUSH1 0x0 KECCAK256 DUP2 DUP2 SLOAD XOR DUP1 SWAP2 SSTORE AND ISZERO PUSH2 0x145A JUMPI PUSH1 0x40 MLOAD SWAP2 PUSH1 0x20 DUP4 ADD SWAP1 PUSH32 0x618358AC3DB8DC274F0CD8829DA7E234BD48CD73C4A740AEDE1ADEC9846D06A1 DUP3 MSTORE PUSH1 0x1 DUP1 PUSH1 0xA0 SHL SUB AND PUSH1 0x40 DUP5 ADD MSTORE PUSH1 0x60 SWAP3 PUSH1 0x20 DUP10 PUSH1 0x5 SHL DUP13 ADD CALLDATALOAD DUP13 ADD ADD CALLDATALOAD DUP5 DUP3 ADD MSTORE DUP4 DUP2 MSTORE PUSH2 0xE80 DUP2 PUSH2 0x1B43 JUMP JUMPDEST MLOAD SWAP1 KECCAK256 SWAP2 PUSH1 0x40 MLOAD SWAP3 PUSH32 0x939C21A48A8DBE3A9A2404A1D46691E4D39F6583D6EC6B35714604C986D80106 PUSH1 0x20 DUP6 ADD MSTORE PUSH1 0x40 DUP5 ADD MSTORE ADDRESS SWAP1 DUP4 ADD MSTORE PUSH1 0xA0 DUP8 PUSH1 0x5 SHL DUP11 ADD CALLDATALOAD DUP11 ADD ADD CALLDATALOAD PUSH1 0x80 DUP4 ADD MSTORE PUSH1 0xA0 DUP3 ADD MSTORE PUSH1 0xA0 DUP2 MSTORE DUP1 PUSH1 0xC0 DUP2 ADD LT PUSH1 0x1 PUSH1 0x1 PUSH1 0x40 SHL SUB PUSH1 0xC0 DUP4 ADD GT OR PUSH2 0x1444 JUMPI PUSH1 0xC0 DUP2 ADD PUSH1 0x40 MSTORE PUSH1 0xC0 DUP2 MLOAD PUSH1 0x20 DUP4 ADD KECCAK256 SWAP2 PUSH1 0xE0 DUP2 ADD SWAP3 PUSH2 0x1901 PUSH1 0xF0 SHL DUP5 MSTORE PUSH32 0x0 PUSH1 0xE2 DUP4 ADD MSTORE PUSH2 0x102 DUP3 ADD MSTORE PUSH1 0x42 DUP3 DUP3 ADD MSTORE PUSH2 0xF46 DUP3 DUP3 ADD PUSH2 0x1B43 JUMP JUMPDEST ADD MLOAD SWAP1 KECCAK256 PUSH2 0xF53 DUP4 PUSH2 0x1BF9 JUMP JUMPDEST SWAP1 PUSH2 0xF61 PUSH1 0x40 MLOAD SWAP3 DUP4 PUSH2 0x1B5E JUMP JUMPDEST DUP4 DUP3 MSTORE CALLDATASIZE DUP5 DUP5 ADD GT PUSH2 0x22A JUMPI PUSH1 0x0 PUSH1 0x20 DUP6 PUSH2 0xF90 SWAP7 PUSH2 0xF87 SWAP7 DUP4 DUP8 ADD CALLDATACOPY DUP5 ADD ADD MSTORE PUSH2 0x1C14 JUMP JUMPDEST SWAP1 SWAP3 SWAP2 SWAP3 PUSH2 0x1CE0 JUMP JUMPDEST CALLER PUSH1 0x1 PUSH1 0x1 PUSH1 0xA0 SHL SUB SWAP1 SWAP2 AND SUB PUSH2 0x1432 JUMPI PUSH1 0x40 MLOAD PUSH4 0x23B872DD PUSH1 0xE0 SHL DUP2 MSTORE CALLER PUSH1 0x4 DUP3 ADD MSTORE ADDRESS PUSH1 0x24 DUP3 ADD MSTORE PUSH1 0x20 PUSH1 0x5 DUP6 SWAP1 SHL DUP8 ADD CALLDATALOAD DUP8 ADD DUP2 ADD CALLDATALOAD PUSH1 0x44 DUP4 ADD MSTORE DUP2 PUSH1 0x64 DUP2 PUSH1 0x0 DUP8 GAS CALL SWAP1 DUP2 ISZERO PUSH2 0xC16 JUMPI PUSH1 0x0 SWAP2 PUSH2 0x1413 JUMPI JUMPDEST POP ISZERO PUSH2 0xBD5 JUMPI JUMPDEST PUSH1 0x40 MLOAD PUSH4 0x70A08231 PUSH1 0xE0 SHL DUP2 MSTORE ADDRESS PUSH1 0x4 DUP3 ADD MSTORE SWAP1 PUSH1 0x20 DUP3 PUSH1 0x24 DUP2 DUP7 GAS STATICCALL DUP1 ISZERO PUSH2 0xC16 JUMPI PUSH1 0x0 SWAP1 PUSH2 0x13DF JUMPI JUMPDEST PUSH2 0x1022 SWAP3 POP PUSH2 0x1BA2 JUMP JUMPDEST SWAP1 PUSH1 0x2 PUSH1 0x60 DUP5 PUSH1 0x5 SHL DUP8 ADD CALLDATALOAD DUP8 ADD ADD CALLDATALOAD LT ISZERO PUSH2 0x22A JUMPI PUSH1 0x60 DUP4 PUSH1 0x5 SHL DUP7 ADD CALLDATALOAD DUP7 ADD ADD CALLDATALOAD ISZERO PUSH1 0x0 EQ PUSH2 0x1397 JUMPI PUSH1 0x40 MLOAD PUSH4 0x95EA7B3 PUSH1 0xE0 SHL DUP2 MSTORE PUSH1 0x1 PUSH1 0x1 PUSH1 0xA0 SHL SUB PUSH32 0x0 AND PUSH1 0x4 DUP3 ADD MSTORE PUSH1 0x24 DUP2 ADD DUP4 SWAP1 MSTORE PUSH1 0x20 DUP2 PUSH1 0x44 DUP2 PUSH1 0x0 DUP7 GAS CALL DUP1 ISZERO PUSH2 0xC16 JUMPI PUSH2 0x1378 JUMPI JUMPDEST POP PUSH1 0x40 MLOAD PUSH2 0x10B3 DUP2 PUSH2 0x1B43 JUMP JUMPDEST PUSH1 0x3 DUP2 MSTORE PUSH1 0x60 CALLDATASIZE PUSH1 0x20 DUP4 ADD CALLDATACOPY DUP2 PUSH2 0x10C9 DUP3 PUSH2 0x1D7C JUMP JUMPDEST MSTORE PUSH2 0x10D3 DUP2 PUSH2 0x1D9F JUMP JUMPDEST PUSH32 0x0 PUSH1 0x1 PUSH1 0x1 PUSH1 0xA0 SHL SUB AND SWAP1 MSTORE DUP9 PUSH2 0x1109 DUP3 PUSH2 0x1DAF JUMP JUMPDEST MSTORE PUSH1 0x40 MLOAD PUSH4 0x70A08231 PUSH1 0xE0 SHL DUP2 MSTORE ADDRESS PUSH1 0x4 DUP3 ADD MSTORE SWAP1 PUSH1 0x20 DUP3 PUSH1 0x24 DUP2 DUP14 GAS STATICCALL SWAP2 DUP3 ISZERO PUSH2 0xC16 JUMPI PUSH1 0x0 SWAP3 PUSH2 0x1344 JUMPI JUMPDEST POP PUSH32 0x0 PUSH1 0x1 PUSH1 0x1 PUSH1 0xA0 SHL SUB AND EXTCODESIZE ISZERO PUSH2 0x22A JUMPI PUSH1 0x0 PUSH2 0x119B SWAP2 PUSH1 0x40 MLOAD DUP1 SWAP4 DUP2 SWAP3 PUSH4 0x5C11D795 PUSH1 0xE0 SHL DUP4 MSTORE DUP12 PUSH1 0x24 CALLDATALOAD SWAP2 PUSH1 0x40 ADDRESS SWAP3 DUP14 PUSH1 0x5 SHL DUP2 ADD CALLDATALOAD ADD ADD CALLDATALOAD DUP12 PUSH1 0x4 DUP8 ADD PUSH2 0x1E10 JUMP JUMPDEST SUB DUP2 DUP4 PUSH32 0x0 PUSH1 0x1 PUSH1 0x1 PUSH1 0xA0 SHL SUB AND GAS CALL SWAP1 DUP2 PUSH2 0x1335 JUMPI JUMPDEST POP PUSH2 0x12C6 JUMPI POP PUSH1 0x40 MLOAD PUSH4 0xA9059CBB PUSH1 0xE0 SHL DUP2 MSTORE CALLER PUSH1 0x4 DUP3 ADD MSTORE PUSH1 0x24 DUP2 ADD DUP4 SWAP1 MSTORE SWAP1 PUSH1 0x20 SWAP1 DUP3 SWAP1 PUSH1 0x44 SWAP1 DUP3 SWAP1 PUSH1 0x0 SWAP1 GAS CALL DUP1 ISZERO PUSH2 0xC16 JUMPI PUSH2 0x12A7 JUMPI JUMPDEST POP PUSH1 0x0 JUMPDEST SWAP1 JUMPDEST DUP2 PUSH2 0x1241 JUMPI JUMPDEST POP PUSH2 0x122C JUMPI JUMPDEST PUSH2 0x1227 SWAP1 PUSH2 0x1B7F JUMP JUMPDEST PUSH2 0xAE4 JUMP JUMPDEST SWAP4 PUSH2 0x1239 PUSH2 0x1227 SWAP2 PUSH2 0x1B7F JUMP JUMPDEST SWAP5 SWAP1 POP PUSH2 0x121E JUMP JUMPDEST PUSH1 0x1 PUSH1 0x1 PUSH1 0xA0 SHL SUB PUSH2 0x125B PUSH1 0x5 DUP6 SWAP1 SHL DUP8 ADD CALLDATALOAD DUP8 ADD PUSH2 0x1B8E JUMP JUMPDEST AND SWAP1 PUSH1 0x40 MLOAD SWAP1 DUP2 MSTORE DUP3 PUSH1 0x20 DUP3 ADD MSTORE PUSH1 0x60 DUP5 PUSH1 0x5 SHL DUP8 ADD CALLDATALOAD DUP8 ADD ADD CALLDATALOAD PUSH1 0x40 DUP3 ADD MSTORE PUSH32 0xA2C87ABC3341789E0370A7BAABED4F58835304C2B16A29536744AD19FCFD2E84 PUSH1 0x60 CALLER SWAP3 LOG3 DUP8 PUSH2 0x1218 JUMP JUMPDEST PUSH2 0x12BF SWAP1 PUSH1 0x20 RETURNDATASIZE PUSH1 0x20 GT PUSH2 0xC0F JUMPI PUSH2 0xC01 DUP2 DUP4 PUSH2 0x1B5E JUMP JUMPDEST POP DUP8 PUSH2 0x120C JUMP JUMPDEST PUSH1 0x40 MLOAD PUSH4 0x70A08231 PUSH1 0xE0 SHL DUP2 MSTORE ADDRESS PUSH1 0x4 DUP3 ADD MSTORE SWAP2 POP PUSH1 0x20 DUP3 PUSH1 0x24 DUP2 DUP13 GAS STATICCALL DUP1 ISZERO PUSH2 0xC16 JUMPI PUSH1 0x0 SWAP1 PUSH2 0x1301 JUMPI JUMPDEST PUSH2 0x12FC SWAP3 POP PUSH2 0x1BA2 JUMP JUMPDEST PUSH2 0x1210 JUMP JUMPDEST POP PUSH1 0x20 DUP3 RETURNDATASIZE PUSH1 0x20 GT PUSH2 0x132D JUMPI JUMPDEST DUP2 PUSH2 0x131B PUSH1 0x20 SWAP4 DUP4 PUSH2 0x1B5E JUMP JUMPDEST DUP2 ADD SUB SLT PUSH2 0x22A JUMPI PUSH2 0x12FC SWAP2 MLOAD PUSH2 0x12F2 JUMP JUMPDEST RETURNDATASIZE SWAP2 POP PUSH2 0x130E JUMP JUMPDEST PUSH2 0x133E SWAP1 PUSH2 0x1B30 JUMP JUMPDEST DUP11 PUSH2 0x11D1 JUMP JUMPDEST SWAP1 SWAP2 POP PUSH1 0x20 DUP2 RETURNDATASIZE PUSH1 0x20 GT PUSH2 0x1370 JUMPI JUMPDEST DUP2 PUSH2 0x1360 PUSH1 0x20 SWAP4 DUP4 PUSH2 0x1B5E JUMP JUMPDEST DUP2 ADD SUB SLT PUSH2 0x22A JUMPI MLOAD SWAP1 DUP11 PUSH2 0x1136 JUMP JUMPDEST RETURNDATASIZE SWAP2 POP PUSH2 0x1353 JUMP JUMPDEST PUSH2 0x1390 SWAP1 PUSH1 0x20 RETURNDATASIZE PUSH1 0x20 GT PUSH2 0xC0F JUMPI PUSH2 0xC01 DUP2 DUP4 PUSH2 0x1B5E JUMP JUMPDEST POP DUP9 PUSH2 0x10A6 JUMP JUMPDEST PUSH1 0x5 DUP4 SWAP1 SHL DUP6 ADD CALLDATALOAD DUP6 ADD PUSH1 0x80 ADD CALLDATALOAD PUSH3 0xFFFFFF DUP2 AND SWAP1 SUB PUSH2 0x22A JUMPI PUSH2 0x13D9 SWAP1 PUSH1 0x24 CALLDATALOAD SWAP1 DUP10 SWAP1 PUSH1 0x5 DUP7 SWAP1 SHL DUP9 ADD CALLDATALOAD DUP9 ADD PUSH1 0x40 DUP2 ADD CALLDATALOAD SWAP2 PUSH1 0x80 SWAP1 SWAP2 ADD CALLDATALOAD SWAP1 DUP7 SWAP1 PUSH2 0x1E49 JUMP JUMPDEST SWAP1 PUSH2 0x1212 JUMP JUMPDEST POP PUSH1 0x20 DUP3 RETURNDATASIZE PUSH1 0x20 GT PUSH2 0x140B JUMPI JUMPDEST DUP2 PUSH2 0x13F9 PUSH1 0x20 SWAP4 DUP4 PUSH2 0x1B5E JUMP JUMPDEST DUP2 ADD SUB SLT PUSH2 0x22A JUMPI PUSH2 0x1022 SWAP2 MLOAD PUSH2 0x1018 JUMP JUMPDEST RETURNDATASIZE SWAP2 POP PUSH2 0x13EC JUMP JUMPDEST PUSH2 0x142C SWAP2 POP PUSH1 0x20 RETURNDATASIZE PUSH1 0x20 GT PUSH2 0xC0F JUMPI PUSH2 0xC01 DUP2 DUP4 PUSH2 0x1B5E JUMP JUMPDEST DUP10 PUSH2 0xFE6 JUMP JUMPDEST PUSH1 0x40 MLOAD PUSH4 0x8BAA579F PUSH1 0xE0 SHL DUP2 MSTORE PUSH1 0x4 SWAP1 REVERT JUMPDEST PUSH4 0x4E487B71 PUSH1 0xE0 SHL PUSH1 0x0 MSTORE PUSH1 0x41 PUSH1 0x4 MSTORE PUSH1 0x24 PUSH1 0x0 REVERT JUMPDEST PUSH1 0x40 MLOAD PUSH4 0x3AB3447F PUSH1 0xE1 SHL DUP2 MSTORE PUSH1 0x4 SWAP1 REVERT JUMPDEST PUSH1 0x40 MLOAD PUSH4 0x1AB7DA6B PUSH1 0xE0 SHL DUP2 MSTORE PUSH1 0x4 SWAP1 REVERT JUMPDEST POP PUSH1 0x24 CALLDATALOAD PUSH2 0xDB1 JUMP JUMPDEST POP PUSH2 0x100 DUP4 PUSH1 0x5 SHL DUP7 ADD CALLDATALOAD DUP7 ADD ADD CALLDATALOAD PUSH2 0x1516 JUMPI JUMPDEST PUSH1 0x40 MLOAD PUSH4 0x23B872DD PUSH1 0xE0 SHL DUP2 MSTORE CALLER PUSH1 0x4 DUP3 ADD MSTORE ADDRESS PUSH1 0x24 DUP3 ADD MSTORE PUSH1 0x20 PUSH1 0x5 DUP6 SWAP1 SHL DUP8 ADD CALLDATALOAD DUP8 ADD DUP2 ADD CALLDATALOAD PUSH1 0x44 DUP4 ADD MSTORE DUP2 PUSH1 0x64 DUP2 PUSH1 0x0 DUP8 GAS CALL SWAP1 DUP2 ISZERO PUSH2 0xC16 JUMPI PUSH1 0x0 SWAP2 PUSH2 0x14F7 JUMPI JUMPDEST POP PUSH2 0xFED JUMPI PUSH1 0x40 MLOAD PUSH4 0x12171D83 PUSH1 0xE3 SHL DUP2 MSTORE PUSH1 0x4 SWAP1 REVERT JUMPDEST PUSH2 0x1510 SWAP2 POP PUSH1 0x20 RETURNDATASIZE PUSH1 0x20 GT PUSH2 0xC0F JUMPI PUSH2 0xC01 DUP2 DUP4 PUSH2 0x1B5E JUMP JUMPDEST DUP10 PUSH2 0x14E0 JUMP JUMPDEST PUSH1 0x1 PUSH1 0x1 PUSH1 0xA0 SHL SUB PUSH2 0x1530 PUSH1 0x5 DUP6 SWAP1 SHL DUP8 ADD CALLDATALOAD DUP8 ADD PUSH2 0x1B8E JUMP JUMPDEST AND PUSH2 0x120 DUP5 PUSH1 0x5 SHL DUP8 ADD CALLDATALOAD DUP8 ADD ADD CALLDATALOAD PUSH1 0xFF DUP2 AND DUP2 SUB PUSH2 0x22A JUMPI DUP2 EXTCODESIZE ISZERO PUSH2 0x22A JUMPI PUSH1 0x40 MLOAD PUSH4 0xD505ACCF PUSH1 0xE0 SHL DUP2 MSTORE CALLER PUSH1 0x4 DUP3 ADD MSTORE ADDRESS PUSH1 0x24 DUP3 ADD MSTORE PUSH1 0x5 DUP7 SWAP1 SHL DUP9 ADD CALLDATALOAD DUP9 ADD PUSH1 0x20 DUP2 ADD CALLDATALOAD PUSH1 0x44 DUP4 ADD MSTORE PUSH2 0x100 DUP2 ADD CALLDATALOAD PUSH1 0x64 DUP4 ADD MSTORE PUSH1 0xFF SWAP3 SWAP1 SWAP3 AND PUSH1 0x84 DUP3 ADD MSTORE PUSH2 0x140 DUP3 ADD CALLDATALOAD PUSH1 0xA4 DUP3 ADD MSTORE PUSH2 0x160 SWAP1 SWAP2 ADD CALLDATALOAD PUSH1 0xC4 DUP3 ADD MSTORE SWAP1 PUSH1 0x0 SWAP1 DUP3 SWAP1 PUSH1 0xE4 SWAP1 DUP3 SWAP1 DUP5 SWAP1 GAS CALL PUSH2 0x15C4 JUMPI JUMPDEST POP PUSH2 0x149B JUMP JUMPDEST PUSH2 0x15CD SWAP1 PUSH2 0x1B30 JUMP JUMPDEST DUP9 PUSH2 0x15BE JUMP JUMPDEST SWAP1 POP PUSH1 0x20 DUP2 RETURNDATASIZE PUSH1 0x20 GT PUSH2 0x15FD JUMPI JUMPDEST DUP2 PUSH2 0x15EE PUSH1 0x20 SWAP4 DUP4 PUSH2 0x1B5E JUMP JUMPDEST DUP2 ADD SUB SLT PUSH2 0x22A JUMPI MLOAD DUP9 PUSH2 0xD7A JUMP JUMPDEST RETURNDATASIZE SWAP2 POP PUSH2 0x15E1 JUMP JUMPDEST PUSH1 0x40 MLOAD PUSH4 0xC1AB6DC1 PUSH1 0xE0 SHL DUP2 MSTORE PUSH1 0x4 SWAP1 REVERT JUMPDEST POP DUP6 PUSH1 0x1 PUSH1 0x1 PUSH1 0xA0 SHL SUB PUSH2 0x1633 PUSH1 0x5 DUP5 SWAP1 SHL DUP7 ADD CALLDATALOAD DUP7 ADD PUSH2 0x1B8E JUMP JUMPDEST AND EQ PUSH2 0xD1E JUMP JUMPDEST POP PUSH2 0x164C DUP2 PUSH1 0x5 SHL DUP5 ADD CALLDATALOAD DUP5 ADD PUSH2 0x1B8E JUMP JUMPDEST PUSH32 0x0 PUSH1 0x1 PUSH1 0x1 PUSH1 0xA0 SHL SUB SWAP1 DUP2 AND SWAP2 AND EQ PUSH2 0xD17 JUMP JUMPDEST SWAP1 SWAP2 POP PUSH1 0x20 DUP2 RETURNDATASIZE PUSH1 0x20 GT PUSH2 0x16AC JUMPI JUMPDEST DUP2 PUSH2 0x169C PUSH1 0x20 SWAP4 DUP4 PUSH2 0x1B5E JUMP JUMPDEST DUP2 ADD SUB SLT PUSH2 0x22A JUMPI MLOAD SWAP1 DUP5 PUSH2 0xADD JUMP JUMPDEST RETURNDATASIZE SWAP2 POP PUSH2 0x168F JUMP JUMPDEST PUSH1 0x40 MLOAD PUSH4 0x86724C7F PUSH1 0xE0 SHL DUP2 MSTORE PUSH1 0x4 SWAP1 REVERT JUMPDEST PUSH1 0x40 MLOAD PUSH4 0x3EE5AEB5 PUSH1 0xE0 SHL DUP2 MSTORE PUSH1 0x4 SWAP1 REVERT JUMPDEST CALLVALUE PUSH2 0x22A JUMPI PUSH1 0x0 CALLDATASIZE PUSH1 0x3 NOT ADD SLT PUSH2 0x22A JUMPI PUSH1 0x20 PUSH1 0x40 MLOAD PUSH32 0x0 DUP2 MSTORE RETURN JUMPDEST CALLVALUE PUSH2 0x22A JUMPI PUSH1 0x40 CALLDATASIZE PUSH1 0x3 NOT ADD SLT PUSH2 0x22A JUMPI PUSH1 0x4 CALLDATALOAD PUSH1 0x24 CALLDATALOAD CALLER PUSH1 0x0 MSTORE PUSH1 0x2 PUSH1 0x20 MSTORE PUSH1 0x40 PUSH1 0x0 KECCAK256 DUP3 PUSH1 0x0 MSTORE PUSH1 0x20 MSTORE PUSH1 0x40 PUSH1 0x0 KECCAK256 DUP2 DUP2 SLOAD OR SWAP1 SSTORE PUSH1 0x40 MLOAD SWAP2 DUP3 MSTORE PUSH1 0x20 DUP3 ADD MSTORE PUSH32 0x8BDE7BF9BE24658F5C1D48843FB04034CAE6C6CEACF23B0CF97B724E4CDC599F PUSH1 0x40 CALLER SWAP3 LOG2 STOP JUMPDEST CALLVALUE PUSH2 0x22A JUMPI PUSH1 0x40 CALLDATASIZE PUSH1 0x3 NOT ADD SLT PUSH2 0x22A JUMPI PUSH1 0x4 CALLDATALOAD PUSH1 0x1 PUSH1 0x1 PUSH1 0x40 SHL SUB DUP2 GT PUSH2 0x22A JUMPI PUSH2 0x17AD SWAP1 CALLDATASIZE SWAP1 PUSH1 0x4 ADD PUSH2 0x1ABE JUMP JUMPDEST PUSH1 0x24 CALLDATALOAD PUSH1 0x1 PUSH1 0x1 PUSH1 0x40 SHL SUB DUP2 GT PUSH2 0x22A JUMPI PUSH2 0x17CC SWAP1 CALLDATASIZE SWAP1 PUSH1 0x4 ADD PUSH2 0x1ABE JUMP JUMPDEST DUP1 DUP4 SWAP5 SWAP3 SWAP5 SUB PUSH2 0x1A2D JUMPI PUSH2 0x17DF DUP4 PUSH2 0x1D65 JUMP JUMPDEST SWAP4 PUSH2 0x17ED PUSH1 0x40 MLOAD SWAP6 DUP7 PUSH2 0x1B5E JUMP JUMPDEST DUP4 DUP6 MSTORE PUSH1 0x1F NOT PUSH2 0x17FC DUP6 PUSH2 0x1D65 JUMP JUMPDEST ADD CALLDATASIZE PUSH1 0x20 DUP8 ADD CALLDATACOPY PUSH1 0x3 SLOAD PUSH1 0x1 PUSH1 0x1 PUSH1 0xA0 SHL SUB AND PUSH1 0x0 JUMPDEST DUP6 DUP2 LT PUSH2 0x185F JUMPI DUP7 PUSH1 0x40 MLOAD DUP1 SWAP2 PUSH1 0x20 DUP3 ADD PUSH1 0x20 DUP4 MSTORE DUP2 MLOAD DUP1 SWAP2 MSTORE PUSH1 0x20 PUSH1 0x40 DUP5 ADD SWAP3 ADD SWAP1 PUSH1 0x0 JUMPDEST DUP2 DUP2 LT PUSH2 0x1846 JUMPI POP POP POP SUB SWAP1 RETURN JUMPDEST DUP3 MLOAD DUP5 MSTORE DUP6 SWAP5 POP PUSH1 0x20 SWAP4 DUP5 ADD SWAP4 SWAP1 SWAP3 ADD SWAP2 PUSH1 0x1 ADD PUSH2 0x1838 JUMP JUMPDEST PUSH2 0x1911 SWAP1 PUSH1 0x0 PUSH1 0x40 MLOAD PUSH2 0x1871 DUP2 PUSH2 0x1B43 JUMP JUMPDEST PUSH1 0x3 DUP2 MSTORE PUSH1 0x60 CALLDATASIZE PUSH1 0x20 DUP4 ADD CALLDATACOPY PUSH2 0x1890 PUSH2 0x188B DUP5 DUP12 DUP12 PUSH2 0x2383 JUMP JUMPDEST PUSH2 0x1B8E JUMP JUMPDEST PUSH2 0x1899 DUP3 PUSH2 0x1D7C JUMP JUMPDEST PUSH1 0x1 PUSH1 0x1 PUSH1 0xA0 SHL SUB SWAP2 DUP3 AND SWAP1 MSTORE PUSH32 0x0 AND PUSH2 0x18D1 DUP3 PUSH2 0x1D9F JUMP JUMPDEST MSTORE DUP5 PUSH2 0x18DC DUP3 PUSH2 0x1DAF JUMP JUMPDEST MSTORE PUSH2 0x18E8 DUP4 DUP9 DUP9 PUSH2 0x2383 JUMP JUMPDEST CALLDATALOAD PUSH1 0x40 MLOAD SWAP5 DUP6 SWAP3 DUP4 SWAP3 PUSH4 0xD06CA61F PUSH1 0xE0 SHL DUP5 MSTORE PUSH1 0x4 DUP5 ADD MSTORE PUSH1 0x40 PUSH1 0x24 DUP5 ADD MSTORE PUSH1 0x44 DUP4 ADD SWAP1 PUSH2 0x1DD3 JUMP JUMPDEST SUB DUP2 PUSH32 0x0 PUSH1 0x1 PUSH1 0x1 PUSH1 0xA0 SHL SUB AND GAS STATICCALL DUP1 PUSH1 0x0 SWAP2 PUSH2 0x197D JUMPI JUMPDEST PUSH2 0x1964 SWAP4 POP PUSH2 0x1969 JUMPI POP PUSH1 0x0 PUSH2 0x195E DUP3 DUP11 PUSH2 0x1DBF JUMP JUMPDEST MSTORE PUSH2 0x1B7F JUMP JUMPDEST PUSH2 0x1812 JUMP JUMPDEST PUSH2 0x1972 SWAP1 PUSH2 0x1DAF JUMP JUMPDEST MLOAD PUSH2 0x195E DUP3 DUP11 PUSH2 0x1DBF JUMP JUMPDEST SWAP2 SWAP3 SWAP1 POP RETURNDATASIZE DUP1 PUSH1 0x0 DUP4 RETURNDATACOPY PUSH2 0x1991 DUP2 DUP4 PUSH2 0x1B5E JUMP JUMPDEST PUSH1 0x20 DUP3 DUP3 DUP2 ADD SUB SLT PUSH2 0x22A JUMPI DUP2 MLOAD SWAP2 PUSH1 0x1 PUSH1 0x1 PUSH1 0x40 SHL SUB DUP4 GT PUSH2 0x22A JUMPI DUP2 DUP2 ADD PUSH1 0x1F DUP5 DUP4 ADD ADD SLT ISZERO PUSH2 0x22A JUMPI DUP3 DUP2 ADD MLOAD SWAP1 PUSH2 0x19CB DUP3 PUSH2 0x1D65 JUMP JUMPDEST SWAP4 PUSH2 0x19D9 PUSH1 0x40 MLOAD SWAP6 DUP7 PUSH2 0x1B5E JUMP JUMPDEST DUP3 DUP6 MSTORE PUSH1 0x20 DUP6 ADD SWAP4 DUP3 ADD PUSH1 0x20 DUP5 PUSH1 0x5 SHL DUP4 DUP6 ADD ADD ADD GT PUSH2 0x22A JUMPI PUSH1 0x20 DUP2 DUP4 ADD ADD SWAP4 JUMPDEST PUSH1 0x20 DUP5 PUSH1 0x5 SHL DUP4 DUP6 ADD ADD ADD DUP6 LT PUSH2 0x1A1D JUMPI POP POP POP POP POP SWAP1 PUSH2 0x1964 SWAP3 SWAP2 SWAP1 PUSH2 0x1948 JUMP JUMPDEST DUP5 MLOAD DUP2 MSTORE PUSH1 0x20 SWAP5 DUP6 ADD SWAP5 ADD PUSH2 0x19FB JUMP JUMPDEST PUSH1 0x40 MLOAD PUSH3 0x461BCD PUSH1 0xE5 SHL DUP2 MSTORE PUSH1 0x20 PUSH1 0x4 DUP3 ADD MSTORE PUSH1 0xF PUSH1 0x24 DUP3 ADD MSTORE PUSH15 0x98CADCCEE8D040DAD2E6DAC2E8C6D PUSH1 0x8B SHL PUSH1 0x44 DUP3 ADD MSTORE PUSH1 0x64 SWAP1 REVERT JUMPDEST CALLVALUE PUSH2 0x22A JUMPI PUSH1 0x0 CALLDATASIZE PUSH1 0x3 NOT ADD SLT PUSH2 0x22A JUMPI PUSH2 0x1A7D PUSH2 0x1B04 JUMP JUMPDEST PUSH1 0xB SLOAD ISZERO PUSH2 0x35E JUMPI PUSH32 0x2DEDDD1421C6AF279BEF431A0556923B575D045194F9A28ED0E009E1C65780BB PUSH1 0x20 PUSH1 0xA SLOAD PUSH1 0x40 MLOAD SWAP1 DUP2 MSTORE LOG1 PUSH1 0x0 PUSH1 0xA DUP2 SWAP1 SSTORE PUSH1 0xB SSTORE STOP JUMPDEST SWAP2 DUP2 PUSH1 0x1F DUP5 ADD SLT ISZERO PUSH2 0x22A JUMPI DUP3 CALLDATALOAD SWAP2 PUSH1 0x1 PUSH1 0x1 PUSH1 0x40 SHL SUB DUP4 GT PUSH2 0x22A JUMPI PUSH1 0x20 DUP1 DUP6 ADD SWAP5 DUP5 PUSH1 0x5 SHL ADD ADD GT PUSH2 0x22A JUMPI JUMP JUMPDEST PUSH1 0x4 CALLDATALOAD SWAP1 PUSH1 0x1 PUSH1 0x1 PUSH1 0xA0 SHL SUB DUP3 AND DUP3 SUB PUSH2 0x22A JUMPI JUMP JUMPDEST PUSH1 0x0 SLOAD PUSH1 0x1 PUSH1 0x1 PUSH1 0xA0 SHL SUB AND CALLER SUB PUSH2 0x1B18 JUMPI JUMP JUMPDEST PUSH1 0x40 MLOAD PUSH4 0x118CDAA7 PUSH1 0xE0 SHL DUP2 MSTORE CALLER PUSH1 0x4 DUP3 ADD MSTORE PUSH1 0x24 SWAP1 REVERT JUMPDEST PUSH1 0x1 PUSH1 0x1 PUSH1 0x40 SHL SUB DUP2 GT PUSH2 0x1444 JUMPI PUSH1 0x40 MSTORE JUMP JUMPDEST PUSH1 0x80 DUP2 ADD SWAP1 DUP2 LT PUSH1 0x1 PUSH1 0x1 PUSH1 0x40 SHL SUB DUP3 GT OR PUSH2 0x1444 JUMPI PUSH1 0x40 MSTORE JUMP JUMPDEST SWAP1 PUSH1 0x1F DUP1 NOT SWAP2 ADD AND DUP2 ADD SWAP1 DUP2 LT PUSH1 0x1 PUSH1 0x1 PUSH1 0x40 SHL SUB DUP3 GT OR PUSH2 0x1444 JUMPI PUSH1 0x40 MSTORE JUMP JUMPDEST PUSH1 0x0 NOT DUP2 EQ PUSH2 0x3FA JUMPI PUSH1 0x1 ADD SWAP1 JUMP JUMPDEST CALLDATALOAD PUSH1 0x1 PUSH1 0x1 PUSH1 0xA0 SHL SUB DUP2 AND DUP2 SUB PUSH2 0x22A JUMPI SWAP1 JUMP JUMPDEST SWAP2 SWAP1 DUP3 SUB SWAP2 DUP3 GT PUSH2 0x3FA JUMPI JUMP JUMPDEST SWAP1 DUP2 PUSH1 0x20 SWAP2 SUB SLT PUSH2 0x22A JUMPI MLOAD DUP1 ISZERO ISZERO DUP2 SUB PUSH2 0x22A JUMPI SWAP1 JUMP JUMPDEST SWAP1 CALLDATALOAD SWAP1 PUSH1 0x1E NOT DUP2 CALLDATASIZE SUB ADD DUP3 SLT ISZERO PUSH2 0x22A JUMPI ADD DUP1 CALLDATALOAD SWAP1 PUSH1 0x1 PUSH1 0x1 PUSH1 0x40 SHL SUB DUP3 GT PUSH2 0x22A JUMPI PUSH1 0x20 ADD SWAP2 DUP2 CALLDATASIZE SUB DUP4 SGT PUSH2 0x22A JUMPI JUMP JUMPDEST PUSH1 0x1 PUSH1 0x1 PUSH1 0x40 SHL SUB DUP2 GT PUSH2 0x1444 JUMPI PUSH1 0x1F ADD PUSH1 0x1F NOT AND PUSH1 0x20 ADD SWAP1 JUMP JUMPDEST DUP2 MLOAD SWAP2 SWAP1 PUSH1 0x41 DUP4 SUB PUSH2 0x1C45 JUMPI PUSH2 0x1C3E SWAP3 POP PUSH1 0x20 DUP3 ADD MLOAD SWAP1 PUSH1 0x60 PUSH1 0x40 DUP5 ADD MLOAD SWAP4 ADD MLOAD PUSH1 0x0 BYTE SWAP1 PUSH2 0x1C50 JUMP JUMPDEST SWAP2 SWAP3 SWAP1 SWAP2 SWAP1 JUMP JUMPDEST POP POP PUSH1 0x0 SWAP2 PUSH1 0x2 SWAP2 SWAP1 JUMP JUMPDEST SWAP2 SWAP1 PUSH32 0x7FFFFFFFFFFFFFFFFFFFFFFFFFFFFFFF5D576E7357A4501DDFE92F46681B20A0 DUP5 GT PUSH2 0x1CD4 JUMPI SWAP3 PUSH1 0x20 SWAP3 SWAP2 PUSH1 0xFF PUSH1 0x80 SWAP6 PUSH1 0x40 MLOAD SWAP5 DUP6 MSTORE AND DUP5 DUP5 ADD MSTORE PUSH1 0x40 DUP4 ADD MSTORE PUSH1 0x60 DUP3 ADD MSTORE PUSH1 0x0 SWAP3 DUP4 SWAP2 DUP3 DUP1 MSTORE PUSH1 0x1 GAS STATICCALL ISZERO PUSH2 0x1CC8 JUMPI DUP1 MLOAD PUSH1 0x1 PUSH1 0x1 PUSH1 0xA0 SHL SUB DUP2 AND ISZERO PUSH2 0x1CBF JUMPI SWAP2 DUP2 SWAP1 JUMP JUMPDEST POP DUP1 SWAP2 PUSH1 0x1 SWAP2 SWAP1 JUMP JUMPDEST PUSH1 0x40 MLOAD SWAP1 RETURNDATASIZE SWAP1 DUP3 RETURNDATACOPY RETURNDATASIZE SWAP1 REVERT JUMPDEST POP POP POP PUSH1 0x0 SWAP2 PUSH1 0x3 SWAP2 SWAP1 JUMP JUMPDEST PUSH1 0x4 DUP2 LT ISZERO PUSH2 0x1D4F JUMPI DUP1 PUSH2 0x1CF2 JUMPI POP POP JUMP JUMPDEST PUSH1 0x1 DUP2 SUB PUSH2 0x1D0C JUMPI PUSH1 0x40 MLOAD PUSH4 0xF645EEDF PUSH1 0xE0 SHL DUP2 MSTORE PUSH1 0x4 SWAP1 REVERT JUMPDEST PUSH1 0x2 DUP2 SUB PUSH2 0x1D2D JUMPI PUSH1 0x40 MLOAD PUSH4 0xFCE698F7 PUSH1 0xE0 SHL DUP2 MSTORE PUSH1 0x4 DUP2 ADD DUP4 SWAP1 MSTORE PUSH1 0x24 SWAP1 REVERT JUMPDEST PUSH1 0x3 EQ PUSH2 0x1D37 JUMPI POP JUMP JUMPDEST PUSH1 0x24 SWAP1 PUSH1 0x40 MLOAD SWAP1 PUSH4 0x35E2F383 PUSH1 0xE2 SHL DUP3 MSTORE PUSH1 0x4 DUP3 ADD MSTORE REVERT JUMPDEST PUSH4 0x4E487B71 PUSH1 0xE0 SHL PUSH1 0x0 MSTORE PUSH1 0x21 PUSH1 0x4 MSTORE PUSH1 0x24 PUSH1 0x0 REVERT JUMPDEST PUSH1 0x1 PUSH1 0x1 PUSH1 0x40 SHL SUB DUP2 GT PUSH2 0x1444 JUMPI PUSH1 0x5 SHL PUSH1 0x20 ADD SWAP1 JUMP JUMPDEST DUP1 MLOAD ISZERO PUSH2 0x1D89 JUMPI PUSH1 0x20 ADD SWAP1 JUMP JUMPDEST PUSH4 0x4E487B71 PUSH1 0xE0 SHL PUSH1 0x0 MSTORE PUSH1 0x32 PUSH1 0x4 MSTORE PUSH1 0x24 PUSH1 0x0 REVERT JUMPDEST DUP1 MLOAD PUSH1 0x1 LT ISZERO PUSH2 0x1D89 JUMPI PUSH1 0x40 ADD SWAP1 JUMP JUMPDEST DUP1 MLOAD PUSH1 0x2 LT ISZERO PUSH2 0x1D89 JUMPI PUSH1 0x60 ADD SWAP1 JUMP JUMPDEST DUP1 MLOAD DUP3 LT ISZERO PUSH2 0x1D89 JUMPI PUSH1 0x20 SWAP2 PUSH1 0x5 SHL ADD ADD SWAP1 JUMP JUMPDEST SWAP1 DUP2 MLOAD DUP1 DUP3 MSTORE PUSH1 0x20 DUP1 DUP1 SWAP4 ADD SWAP4 ADD SWAP2 PUSH1 0x0 JUMPDEST DUP3 DUP2 LT PUSH2 0x1DF3 JUMPI POP POP POP POP SWAP1 JUMP JUMPDEST DUP4 MLOAD PUSH1 0x1 PUSH1 0x1 PUSH1 0xA0 SHL SUB AND DUP6 MSTORE SWAP4 DUP2 ADD SWAP4 SWAP3 DUP2 ADD SWAP3 PUSH1 0x1 ADD PUSH2 0x1DE5 JUMP JUMPDEST SWAP2 SWAP3 PUSH1 0x80 SWAP4 PUSH2 0x1E35 SWAP3 SWAP8 SWAP7 SWAP6 SWAP8 DUP5 MSTORE PUSH1 0x20 DUP5 ADD MSTORE PUSH1 0xA0 PUSH1 0x40 DUP5 ADD MSTORE PUSH1 0xA0 DUP4 ADD SWAP1 PUSH2 0x1DD3 JUMP JUMPDEST PUSH1 0x1 PUSH1 0x1 PUSH1 0xA0 SHL SUB SWAP1 SWAP6 AND PUSH1 0x60 DUP3 ADD MSTORE ADD MSTORE JUMP JUMPDEST PUSH1 0x40 DUP1 MLOAD PUSH4 0x95EA7B3 PUSH1 0xE0 SHL DUP1 DUP3 MSTORE PUSH1 0x1 PUSH1 0x1 PUSH1 0xA0 SHL SUB PUSH32 0x0 DUP2 AND PUSH1 0x4 DUP5 ADD MSTORE PUSH1 0x24 DUP4 ADD DUP7 SWAP1 MSTORE SWAP4 SWAP1 SWAP4 AND SWAP8 PUSH1 0x0 SWAP8 SWAP3 SWAP7 SWAP5 SWAP6 SWAP5 SWAP3 SWAP4 SWAP3 SWAP2 PUSH1 0x20 DUP2 PUSH1 0x44 DUP2 DUP13 DUP15 GAS CALL DUP1 ISZERO PUSH2 0x22CB JUMPI PUSH2 0x2364 JUMPI JUMPDEST POP DUP7 MLOAD SWAP5 PUSH1 0xE0 DUP7 ADD DUP7 DUP2 LT PUSH1 0x1 PUSH1 0x1 PUSH1 0x40 SHL SUB DUP3 GT OR PUSH2 0x2350 JUMPI SWAP1 PUSH3 0xFFFFFF SWAP2 DUP10 MSTORE DUP11 DUP8 MSTORE PUSH1 0x1 DUP1 PUSH1 0xA0 SHL SUB PUSH32 0x0 AND PUSH1 0x20 DUP9 ADD MSTORE AND DUP8 DUP7 ADD MSTORE ADDRESS PUSH1 0x60 DUP7 ADD MSTORE DUP6 PUSH1 0x80 DUP7 ADD MSTORE DUP8 PUSH1 0xA0 DUP7 ADD MSTORE DUP8 PUSH1 0xC0 DUP7 ADD MSTORE DUP7 MLOAD SWAP5 PUSH4 0x4E45AAF PUSH1 0xE0 SHL DUP7 MSTORE PUSH1 0x1 DUP1 PUSH1 0xA0 SHL SUB DUP2 MLOAD AND PUSH1 0x4 DUP8 ADD MSTORE PUSH1 0x1 DUP1 PUSH1 0xA0 SHL SUB PUSH1 0x20 DUP3 ADD MLOAD AND PUSH1 0x24 DUP8 ADD MSTORE PUSH3 0xFFFFFF DUP9 DUP3 ADD MLOAD AND PUSH1 0x44 DUP8 ADD MSTORE PUSH1 0x1 DUP1 PUSH1 0xA0 SHL SUB PUSH1 0x60 DUP3 ADD MLOAD AND PUSH1 0x64 DUP8 ADD MSTORE PUSH1 0x80 DUP2 ADD MLOAD PUSH1 0x84 DUP8 ADD MSTORE PUSH1 0xA0 DUP2 ADD MLOAD PUSH1 0xA4 DUP8 ADD MSTORE PUSH1 0xC0 PUSH1 0x1 DUP1 PUSH1 0xA0 SHL SUB SWAP2 ADD MLOAD AND PUSH1 0xC4 DUP7 ADD MSTORE PUSH1 0x20 DUP6 PUSH1 0xE4 DUP2 DUP12 PUSH1 0x1 DUP1 PUSH1 0xA0 SHL SUB PUSH32 0x0 AND GAS CALL DUP9 SWAP6 DUP2 PUSH2 0x231C JUMPI JUMPDEST POP PUSH2 0x203E JUMPI POP POP DUP5 MLOAD PUSH4 0xA9059CBB PUSH1 0xE0 SHL DUP2 MSTORE CALLER PUSH1 0x4 DUP3 ADD MSTORE PUSH1 0x24 DUP2 ADD SWAP5 SWAP1 SWAP5 MSTORE POP SWAP4 SWAP5 SWAP2 SWAP4 POP PUSH1 0x20 SWAP2 DUP5 SWAP2 POP PUSH1 0x44 SWAP1 DUP3 SWAP1 DUP8 SWAP1 GAS CALL SWAP1 DUP2 ISZERO PUSH2 0x2035 JUMPI POP PUSH2 0x2019 JUMPI POP SWAP1 JUMP JUMPDEST PUSH2 0x2031 SWAP1 PUSH1 0x20 RETURNDATASIZE PUSH1 0x20 GT PUSH2 0xC0F JUMPI PUSH2 0xC01 DUP2 DUP4 PUSH2 0x1B5E JUMP JUMPDEST POP SWAP1 JUMP JUMPDEST MLOAD RETURNDATASIZE DUP5 DUP3 RETURNDATACOPY RETURNDATASIZE SWAP1 REVERT JUMPDEST SWAP2 SWAP4 SWAP8 POP SWAP2 SWAP4 POP DUP7 ISZERO PUSH2 0x2312 JUMPI DUP5 MLOAD SWAP3 DUP4 MSTORE PUSH32 0x0 PUSH1 0x1 PUSH1 0x1 PUSH1 0xA0 SHL SUB AND PUSH1 0x4 DUP5 ADD DUP2 SWAP1 MSTORE PUSH1 0x24 DUP5 ADD DUP9 SWAP1 MSTORE SWAP3 PUSH1 0x20 DUP2 DUP1 PUSH1 0x44 DUP2 ADD SUB DUP2 DUP11 PUSH32 0x0 PUSH1 0x1 PUSH1 0x1 PUSH1 0xA0 SHL SUB AND GAS CALL DUP1 ISZERO PUSH2 0x2308 JUMPI PUSH2 0x22E9 JUMPI JUMPDEST POP DUP5 MLOAD SWAP3 PUSH1 0x60 DUP5 ADD DUP5 DUP2 LT PUSH1 0x1 PUSH1 0x1 PUSH1 0x40 SHL SUB DUP3 GT OR PUSH2 0x22D5 JUMPI DUP7 MSTORE PUSH1 0x2 DUP5 MSTORE DUP6 CALLDATASIZE PUSH1 0x20 DUP7 ADD CALLDATACOPY PUSH32 0x0 PUSH1 0x1 PUSH1 0x1 PUSH1 0xA0 SHL SUB AND PUSH2 0x2125 DUP6 PUSH2 0x1D7C JUMP JUMPDEST MSTORE PUSH2 0x212F DUP5 PUSH2 0x1D9F JUMP JUMPDEST PUSH1 0x1 PUSH1 0x1 PUSH1 0xA0 SHL SUB SWAP1 SWAP6 AND SWAP5 DUP6 SWAP1 MSTORE DUP6 MLOAD PUSH4 0x70A08231 PUSH1 0xE0 SHL DUP1 DUP3 MSTORE ADDRESS PUSH1 0x4 DUP4 ADD MSTORE SWAP1 SWAP5 SWAP1 SWAP4 PUSH1 0x20 DUP7 PUSH1 0x24 DUP2 DUP11 GAS STATICCALL SWAP6 DUP7 ISZERO PUSH2 0x22CB JUMPI DUP10 SWAP7 PUSH2 0x2297 JUMPI JUMPDEST POP DUP3 EXTCODESIZE ISZERO PUSH2 0x2293 JUMPI SWAP2 DUP10 SWAP2 DUP10 DUP1 SWAP5 PUSH2 0x219B DUP12 MLOAD SWAP8 DUP9 SWAP7 DUP8 SWAP6 DUP7 SWAP5 PUSH4 0x5C11D795 PUSH1 0xE0 SHL DUP7 MSTORE ADDRESS SWAP3 PUSH1 0x4 DUP8 ADD PUSH2 0x1E10 JUMP JUMPDEST SUB SWAP3 GAS CALL SWAP1 DUP2 PUSH2 0x2280 JUMPI JUMPDEST POP PUSH2 0x220E JUMPI POP POP DUP2 MLOAD PUSH4 0xA9059CBB PUSH1 0xE0 SHL DUP2 MSTORE CALLER PUSH1 0x4 DUP3 ADD MSTORE PUSH1 0x24 DUP2 ADD SWAP5 SWAP1 SWAP5 MSTORE POP SWAP1 SWAP2 SWAP1 PUSH1 0x20 DUP3 PUSH1 0x44 DUP2 DUP7 PUSH1 0x1 PUSH1 0x1 PUSH1 0xA0 SHL SUB PUSH32 0x0 AND GAS CALL SWAP1 DUP2 ISZERO PUSH2 0x2035 JUMPI POP PUSH2 0x2019 JUMPI POP SWAP1 JUMP JUMPDEST PUSH1 0x20 SWAP2 SWAP5 SWAP3 SWAP6 POP PUSH1 0x24 DUP5 MLOAD DUP1 SWAP8 DUP2 SWAP4 DUP3 MSTORE ADDRESS PUSH1 0x4 DUP4 ADD MSTORE GAS STATICCALL SWAP2 DUP3 ISZERO PUSH2 0x2276 JUMPI POP SWAP1 PUSH2 0x2242 JUMPI JUMPDEST PUSH2 0x223F SWAP3 POP PUSH2 0x1BA2 JUMP JUMPDEST SWAP1 JUMP JUMPDEST POP PUSH1 0x20 DUP3 RETURNDATASIZE PUSH1 0x20 GT PUSH2 0x226E JUMPI JUMPDEST DUP2 PUSH2 0x225C PUSH1 0x20 SWAP4 DUP4 PUSH2 0x1B5E JUMP JUMPDEST DUP2 ADD SUB SLT PUSH2 0x22A JUMPI PUSH2 0x223F SWAP2 MLOAD PUSH2 0x2235 JUMP JUMPDEST RETURNDATASIZE SWAP2 POP PUSH2 0x224F JUMP JUMPDEST MLOAD SWAP1 RETURNDATASIZE SWAP1 DUP3 RETURNDATACOPY RETURNDATASIZE SWAP1 REVERT JUMPDEST PUSH2 0x228C SWAP1 SWAP7 SWAP2 SWAP7 PUSH2 0x1B30 JUMP JUMPDEST SWAP5 CODESIZE PUSH2 0x21A6 JUMP JUMPDEST DUP9 DUP1 REVERT JUMPDEST SWAP1 SWAP6 POP PUSH1 0x20 DUP2 RETURNDATASIZE PUSH1 0x20 GT PUSH2 0x22C3 JUMPI JUMPDEST DUP2 PUSH2 0x22B3 PUSH1 0x20 SWAP4 DUP4 PUSH2 0x1B5E JUMP JUMPDEST DUP2 ADD SUB SLT PUSH2 0x2293 JUMPI MLOAD SWAP5 CODESIZE PUSH2 0x216C JUMP JUMPDEST RETURNDATASIZE SWAP2 POP PUSH2 0x22A6 JUMP JUMPDEST DUP9 MLOAD RETURNDATASIZE DUP12 DUP3 RETURNDATACOPY RETURNDATASIZE SWAP1 REVERT JUMPDEST PUSH4 0x4E487B71 PUSH1 0xE0 SHL DUP9 MSTORE PUSH1 0x41 PUSH1 0x4 MSTORE PUSH1 0x24 DUP9 REVERT JUMPDEST PUSH2 0x2301 SWAP1 PUSH1 0x20 RETURNDATASIZE PUSH1 0x20 GT PUSH2 0xC0F JUMPI PUSH2 0xC01 DUP2 DUP4 PUSH2 0x1B5E JUMP JUMPDEST POP CODESIZE PUSH2 0x20CB JUMP JUMPDEST DUP7 MLOAD RETURNDATASIZE DUP10 DUP3 RETURNDATACOPY RETURNDATASIZE SWAP1 REVERT JUMPDEST POP POP POP POP POP SWAP1 POP SWAP1 JUMP JUMPDEST SWAP1 SWAP6 POP PUSH1 0x20 DUP2 RETURNDATASIZE PUSH1 0x20 GT PUSH2 0x2348 JUMPI JUMPDEST DUP2 PUSH2 0x2338 PUSH1 0x20 SWAP4 DUP4 PUSH2 0x1B5E JUMP JUMPDEST DUP2 ADD SUB SLT PUSH2 0x2293 JUMPI MLOAD SWAP5 CODESIZE PUSH2 0x1FD3 JUMP JUMPDEST RETURNDATASIZE SWAP2 POP PUSH2 0x232B JUMP JUMPDEST PUSH4 0x4E487B71 PUSH1 0xE0 SHL DUP11 MSTORE PUSH1 0x41 PUSH1 0x4 MSTORE PUSH1 0x24 DUP11 REVERT JUMPDEST PUSH2 0x237C SWAP1 PUSH1 0x20 RETURNDATASIZE PUSH1 0x20 GT PUSH2 0xC0F JUMPI PUSH2 0xC01 DUP2 DUP4 PUSH2 0x1B5E JUMP JUMPDEST POP CODESIZE PUSH2 0x1EB5 JUMP JUMPDEST SWAP2 SWAP1 DUP2 LT ISZERO PUSH2 0x1D89 JUMPI PUSH1 0x5 SHL ADD SWAP1 JUMP JUMPDEST DUP2 ISZERO PUSH2 0x244F JUMPI PUSH1 0x1 PUSH1 0x1 PUSH1 0xA0 SHL SUB SWAP1 DUP2 AND DUP1 PUSH2 0x23ED JUMPI POP PUSH1 0x0 DUP1 DUP1 DUP1 SWAP5 DUP2 SWAP5 DUP3 SLOAD AND GAS CALL SWAP1 RETURNDATASIZE ISZERO PUSH2 0x23E7 JUMPI RETURNDATASIZE SWAP1 PUSH2 0x23C9 DUP3 PUSH2 0x1BF9 JUMP JUMPDEST SWAP2 PUSH2 0x23D7 PUSH1 0x40 MLOAD SWAP4 DUP5 PUSH2 0x1B5E JUMP JUMPDEST DUP3 MSTORE PUSH1 0x20 RETURNDATASIZE SWAP3 ADD RETURNDATACOPY JUMPDEST ISZERO PUSH2 0xBD5 JUMPI JUMP JUMPDEST POP PUSH2 0x23E0 JUMP JUMPDEST PUSH1 0x0 DUP1 SLOAD PUSH1 0x40 MLOAD PUSH4 0xA9059CBB PUSH1 0xE0 SHL DUP2 MSTORE SWAP4 AND PUSH1 0x1 PUSH1 0x1 PUSH1 0xA0 SHL SUB AND PUSH1 0x4 DUP5 ADD MSTORE PUSH1 0x24 DUP4 ADD SWAP4 SWAP1 SWAP4 MSTORE SWAP1 SWAP2 PUSH1 0x20 SWAP2 DUP4 SWAP2 DUP3 SWAP1 DUP2 PUSH1 0x44 DUP2 ADD SUB SWAP3 GAS CALL DUP1 ISZERO PUSH2 0xC16 JUMPI PUSH2 0x2435 JUMPI POP JUMP JUMPDEST PUSH2 0x244C SWAP1 PUSH1 0x20 RETURNDATASIZE DUP2 GT PUSH2 0xC0F JUMPI PUSH2 0xC01 DUP2 DUP4 PUSH2 0x1B5E JUMP JUMPDEST POP JUMP JUMPDEST POP POP JUMP INVALID LOG2 PUSH5 0x6970667358 0x22 SLT KECCAK256 PUSH24 0x2570DEA566523AD22CABAA0C372E840BB5418D5E4B1C96C5 GASPRICE JUMP 0xDE PC 0x1F 0x23 MSIZE PUSH5 0x736F6C6343 STOP ADDMOD EQ STOP CALLER "},"methodIdentifiers":{"DOMAIN_SEPARATOR()":"3644e515","FEE_DENOMINATOR()":"d73792a9","MAX_FEE()":"bc063e1a","PERMIT_TRANSFER_TYPEHASH()":"e0555801","TIMELOCK()":"7aadef8b","TOKEN_PERMISSIONS_TYPEHASH()":"696c11e5","WBNB()":"8dd95002","applyFee()":"dcc9def5","applyFeeRecipient()":"b5c86c46","applyOutputToken()":"50fd70c4","batchSwapToToken((address,uint256,uint256,uint8,uint24,uint256,uint256,bytes,uint256,uint8,bytes32,bytes32)[],uint256)":"413510ea","cancelFee()":"14025dcd","cancelFeeRecipient()":"5efc228e","cancelOutputToken()":"49fcf0e4","emergencyWithdraw(address,uint256)":"95ccea67","feeRecipient()":"46904840","getEstimatedOutputs(address[],uint256[])":"273efee0","invalidateNonces(uint256,uint256)":"2bce68d2","nonceBitmap(address,uint256)":"4fe02b44","outputToken()":"c1d8d1d9","owner()":"8da5cb5b","pancakeRouterV2()":"d20ccdc2","pancakeRouterV3()":"e47aaf6d","pendingFee()":"643090bc","pendingFeeActiveAt()":"dc49c1b2","pendingFeeRecipient()":"e4dcfa6e","pendingFeeRecipientActiveAt()":"c22481d4","pendingOutputToken()":"901a5402","pendingOutputTokenActiveAt()":"6a19c9c7","proposeFee(uint256)":"d99426a5","proposeFeeRecipient(address)":"733ec0c4","proposeOutputToken(address)":"6078af92","renounceOwnership()":"715018a6","serviceFee()":"8abdf5aa","transferOwnership(address)":"f2fde38b"}}}}}