{"contracts/DustSwapRouterV2V3.sol":{"DustSwapRouterV2V3":{"abi":[{"inputs":[{"internalType":"address","name":"_pancakeRouterV2","type":"address"},{"internalType":"address","name":"_pancakeRouterV3","type":"address"},{"internalType":"address","name":"_feeRecipient","type":"address"}],"stateMutability":"nonpayable","type":"constructor"},{"inputs":[],"name":"DeadlineExpired","type":"error"},{"inputs":[],"name":"EmptySwapList","type":"error"},{"inputs":[],"name":"InsufficientOutput","type":"error"},{"inputs":[],"name":"InvalidFee","type":"error"},{"inputs":[],"name":"InvalidFeeRecipient","type":"error"},{"inputs":[],"name":"InvalidRouter","type":"error"},{"inputs":[],"name":"InvalidToken","type":"error"},{"inputs":[{"internalType":"address","name":"owner","type":"address"}],"name":"OwnableInvalidOwner","type":"error"},{"inputs":[{"internalType":"address","name":"account","type":"address"}],"name":"OwnableUnauthorizedAccount","type":"error"},{"inputs":[],"name":"ReentrancyGuardReentrantCall","type":"error"},{"inputs":[],"name":"TransferFailed","type":"error"},{"anonymous":false,"inputs":[{"indexed":true,"internalType":"address","name":"user","type":"address"},{"indexed":false,"internalType":"uint256","name":"tokensSwapped","type":"uint256"},{"indexed":false,"internalType":"uint256","name":"totalBNBReceived","type":"uint256"},{"indexed":false,"internalType":"uint256","name":"serviceFee","type":"uint256"},{"indexed":false,"internalType":"uint256","name":"userAmount","type":"uint256"}],"name":"BatchSwapCompleted","type":"event"},{"anonymous":false,"inputs":[{"indexed":true,"internalType":"address","name":"oldRecipient","type":"address"},{"indexed":true,"internalType":"address","name":"newRecipient","type":"address"}],"name":"FeeRecipientUpdated","type":"event"},{"anonymous":false,"inputs":[{"indexed":true,"internalType":"address","name":"previousOwner","type":"address"},{"indexed":true,"internalType":"address","name":"newOwner","type":"address"}],"name":"OwnershipTransferred","type":"event"},{"anonymous":false,"inputs":[{"indexed":true,"internalType":"address","name":"user","type":"address"},{"indexed":true,"internalType":"address","name":"token","type":"address"},{"indexed":false,"internalType":"uint256","name":"amountIn","type":"uint256"},{"indexed":false,"internalType":"uint256","name":"bnbOut","type":"uint256"},{"indexed":false,"internalType":"enum DustSwapRouterV2V3.RouterVersion","name":"version","type":"uint8"}],"name":"SingleSwapCompleted","type":"event"},{"inputs":[],"name":"FEE_DENOMINATOR","outputs":[{"internalType":"uint256","name":"","type":"uint256"}],"stateMutability":"view","type":"function"},{"inputs":[],"name":"SERVICE_FEE_PERCENT","outputs":[{"internalType":"uint256","name":"","type":"uint256"}],"stateMutability":"view","type":"function"},{"inputs":[],"name":"WBNB","outputs":[{"internalType":"address","name":"","type":"address"}],"stateMutability":"view","type":"function"},{"inputs":[{"components":[{"internalType":"address","name":"token","type":"address"},{"internalType":"uint256","name":"amount","type":"uint256"},{"internalType":"uint256","name":"minAmountOut","type":"uint256"},{"internalType":"enum DustSwapRouterV2V3.RouterVersion","name":"version","type":"uint8"},{"internalType":"uint24","name":"v3Fee","type":"uint24"}],"internalType":"struct DustSwapRouterV2V3.SwapInstruction[]","name":"instructions","type":"tuple[]"},{"internalType":"uint256","name":"deadline","type":"uint256"}],"name":"batchSwapToBNB","outputs":[{"internalType":"uint256","name":"userAmount","type":"uint256"}],"stateMutability":"nonpayable","type":"function"},{"inputs":[{"internalType":"address","name":"token","type":"address"},{"internalType":"uint256","name":"amount","type":"uint256"}],"name":"emergencyWithdraw","outputs":[],"stateMutability":"nonpayable","type":"function"},{"inputs":[],"name":"feeRecipient","outputs":[{"internalType":"address","name":"","type":"address"}],"stateMutability":"view","type":"function"},{"inputs":[],"name":"owner","outputs":[{"internalType":"address","name":"","type":"address"}],"stateMutability":"view","type":"function"},{"inputs":[],"name":"pancakeRouterV2","outputs":[{"internalType":"contract IPancakeRouter02","name":"","type":"address"}],"stateMutability":"view","type":"function"},{"inputs":[],"name":"pancakeRouterV3","outputs":[{"internalType":"contract IPancakeV3SwapRouter","name":"","type":"address"}],"stateMutability":"view","type":"function"},{"inputs":[],"name":"renounceOwnership","outputs":[],"stateMutability":"nonpayable","type":"function"},{"inputs":[{"internalType":"address","name":"_newFeeRecipient","type":"address"}],"name":"setFeeRecipient","outputs":[],"stateMutability":"nonpayable","type":"function"},{"inputs":[{"internalType":"address","name":"newOwner","type":"address"}],"name":"transferOwnership","outputs":[],"stateMutability":"nonpayable","type":"function"},{"stateMutability":"payable","type":"receive"}],"evm":{"bytecode":{"linkReferences":{},"object":"60e060409080825234620002205760608162001398803803809162000025828562000225565b83398101031262000220576200003b816200025f565b62000056836200004e602085016200025f565b93016200025f565b903315620002085760008054336001600160a01b03198083168217845587519095939490936001600160a01b0393909284929183167f8be0079c531659141344cd1fd0a4f28419497f9722a3daafe3b4186f6b6457e08880a360018055169283158015620001fd575b620001ee57508116948515620001dd5760808390521660a05284516315ab88c960e31b815290602090829060049082905afa918215620001d25780926200018b575b505060c052600254161760025551611123908162000275823960805181818161023f015281816106b10152818161076e015281816107c301528181610b460152610c61015260a0518181816101de015281816109820152610aaa015260c0518181816102b10152818161074601528181610a0801528181610b8b01528181610bf10152610e730152f35b9091506020823d8211620001c9575b81620001a96020938362000225565b81010312620001c65750620001be906200025f565b388062000101565b80fd5b3d91506200019a565b8551903d90823e3d90fd5b8651630ed1b8b360e31b8152600490fd5b63466d7fef60e01b8152600490fd5b5082871615620000bf565b8351631e4fbdf760e01b815260006004820152602490fd5b600080fd5b601f909101601f19168101906001600160401b038211908210176200024957604052565b634e487b7160e01b600052604160045260246000fd5b51906001600160a01b0382168203620002205756fe608080604052600436101561001d575b50361561001b57600080fd5b005b60003560e01c90816304d87f3914610efa575080634690484014610ed15780635092364014610362578063715018a6146103095780638da5cb5b146102e05780638dd950021461029b57806395ccea671461026e578063d20ccdc214610229578063d73792a91461020d578063e47aaf6d146101c8578063e74b981b146101415763f2fde38b146100ae573861000f565b3461013c57602036600319011261013c576100c7610f14565b6100cf610f2a565b6001600160a01b0390811690811561012357600054826bffffffffffffffffffffffff60a01b821617600055167f8be0079c531659141344cd1fd0a4f28419497f9722a3daafe3b4186f6b6457e0600080a3005b604051631e4fbdf760e01b815260006004820152602490fd5b600080fd5b3461013c57602036600319011261013c5761015a610f14565b610162610f2a565b6001600160a01b039081169081156101b657600254826bffffffffffffffffffffffff60a01b821617600255167faaebcf1bfa00580e41d966056b48521fa9f202645c86d4ddf28113e617c1b1d3600080a3005b604051630ed1b8b360e31b8152600490fd5b3461013c57600036600319011261013c576040517f00000000000000000000000000000000000000000000000000000000000000006001600160a01b03168152602090f35b3461013c57600036600319011261013c57602060405160648152f35b3461013c57600036600319011261013c576040517f00000000000000000000000000000000000000000000000000000000000000006001600160a01b03168152602090f35b3461013c57604036600319011261013c5761001b61028a610f14565b610292610f2a565b60243590611054565b3461013c57600036600319011261013c576040517f00000000000000000000000000000000000000000000000000000000000000006001600160a01b03168152602090f35b3461013c57600036600319011261013c576000546040516001600160a01b039091168152602090f35b3461013c57600036600319011261013c57610322610f2a565b600080546001600160a01b0319811682556001600160a01b03167f8be0079c531659141344cd1fd0a4f28419497f9722a3daafe3b4186f6b6457e08280a3005b3461013c57604036600319011261013c5767ffffffffffffffff6004351161013c5736602360043501121561013c5767ffffffffffffffff600435600401351161013c5736602460a0600435600401350260043501011161013c57600260015414610ebf5760026001556024354211610ead576004356004013515610e9b574760005b600435600401358110610500576103fc8247610f90565b80156104ee57600a8102818104600a036104d857606490049061041f8282610f90565b90826104a6575b8161047d575b602092604051916004356004013583528483015260408201528160608201527f788dbb508fb70253f6b188d53b81c01671ee1c1d0659d189b95b5cef318b87c760803392a260018055604051908152f35b600080808085335af161048e610f9d565b5061042c575b6040516312171d8360e31b8152600490fd5b60008080808660018060a01b03600254165af16104c1610f9d565b50610426576040516312171d8360e31b8152600490fd5b634e487b7160e01b600052601160045260246000fd5b60405163bb2875c360e01b8152600490fd5b60a0600435828202013603602319011261013c5760405160a0810181811067ffffffffffffffff82111761091e5760405260043560a0830201602401356001600160a01b038116900361013c5760043560a083020160248101358252604481013560208301526064810135604083015260840135600281101561013c57606082015260043560a083020160a4013562ffffff8116900361013c5760043560a083020160a48101356080830152602401356001600160a01b0316158015610e59575b610e4757602081015115610e415780516040516370a0823160e01b81523060048201526001600160a01b0390911690602081602481855afa9081156108ea57600091610e0f575b506020830151604051906323b872dd60e01b825233600483015230602483015260448201526020816064816000875af19081156108ea57600091610df0575b5015610494576040516370a0823160e01b815230600482015290602082602481865afa80156108ea57600090610dbc575b6106829250610f90565b90606083015160028110156108a55761096957604083810151905163095ea7b360e01b81526001600160a01b037f0000000000000000000000000000000000000000000000000000000000000000166004820152602481018490524791906020816044816000885af180156108ea5761094a575b506040519081606081011067ffffffffffffffff60608401111761091e57606082016040526002825260403660208401378361073183610fdd565b52815160011015610934576001600160a01b037f0000000000000000000000000000000000000000000000000000000000000000811660408401527f0000000000000000000000000000000000000000000000000000000000000000163b1561013c5760405163791ac94760e01b815291600091839182916107be91602435913091908b60048701610fea565b0381837f00000000000000000000000000000000000000000000000000000000000000006001600160a01b03165af19081610906575b506108f6575060405163a9059cbb60e01b81523360048201526024810183905290602090829060449082906000905af180156108ea576108bb575b5060005b8061084e575b5050505b60001981146104d8576001016103e5565b606060018060a01b038451169301519060028210156108a557604051928352602083015260408201527fa2c87abc3341789e0370a7baabed4f58835304c2b16a29536744ad19fcfd2e8460603392a3828080610839565b634e487b7160e01b600052602160045260246000fd5b6108dc9060203d6020116108e3575b6108d48183610f56565b810190610f78565b508461082f565b503d6108ca565b6040513d6000823e3d90fd5b610901915047610f90565b610833565b67ffffffffffffffff811161091e57604052876107f4565b634e487b7160e01b600052604160045260246000fd5b634e487b7160e01b600052603260045260246000fd5b6109629060203d6020116108e3576108d48183610f56565b50876106f6565b6040838101516080850151915163095ea7b360e01b81527f00000000000000000000000000000000000000000000000000000000000000006001600160a01b031660048201526024810185905262ffffff909216916020816044816000885af180156108ea57610d9d575b50604051918260e081011067ffffffffffffffff60e08501111761091e5760e0830160409081528484526001600160a01b037f0000000000000000000000000000000000000000000000000000000000000000811660208087019182528387019485523060608801908152608088018a815260a08901978852600060c08a0181815296516304e45aaf60e01b81529951861660048b01529351851660248a0152955162ffffff166044890152518316606488015293516084870152935160a48601529051811660c48501529091839160e49183917f0000000000000000000000000000000000000000000000000000000000000000165af160009181610d69575b50610b37575060405163a9059cbb60e01b81523360048201526024810183905290602090829060449082906000905af180156108ea57610b18575b506000610833565b610b309060203d6020116108e3576108d48183610f56565b5084610b10565b60405163095ea7b360e01b81527f00000000000000000000000000000000000000000000000000000000000000006001600160a01b03166004820152602481018290529091506020818060448101038160007f00000000000000000000000000000000000000000000000000000000000000006001600160a01b03165af180156108ea57610d4a575b5060405180604081011067ffffffffffffffff60408301111761091e576040810160405260018152602036818301377f00000000000000000000000000000000000000000000000000000000000000006001600160a01b0316610c2282610fdd565b52479161012c420142116104d8576040516318cbafe560e01b81529160009183918291610c5c914261012c01913091908060048701610fea565b0381837f00000000000000000000000000000000000000000000000000000000000000006001600160a01b03165af180156108ea57610ca1575b506109019047610f90565b3d806000833e610cb18183610f56565b602082828101031261013c57815167ffffffffffffffff811161013c57818301601f82850101121561013c57808301519067ffffffffffffffff821161091e5760208260051b9260405190610d0883860183610f56565b81520192840160208383870101011161013c57602081850101925b60208383870101018410610d3a5750505050610c96565b8351815260209384019301610d23565b610d629060203d6020116108e3576108d48183610f56565b5085610bc0565b9091506020813d602011610d95575b81610d8560209383610f56565b8101031261013c57519087610ad5565b3d9150610d78565b610db59060203d6020116108e3576108d48183610f56565b50876109d4565b506020823d602011610de8575b81610dd660209383610f56565b8101031261013c576106829151610678565b3d9150610dc9565b610e09915060203d6020116108e3576108d48183610f56565b86610647565b90506020813d602011610e39575b81610e2a60209383610f56565b8101031261013c575185610608565b3d9150610e1d565b5061083d565b60405163c1ab6dc160e01b8152600490fd5b5060043560a0830201602401356001600160a01b039081167f0000000000000000000000000000000000000000000000000000000000000000909116146105c1565b6040516386724c7f60e01b8152600490fd5b604051631ab7da6b60e01b8152600490fd5b604051633ee5aeb560e01b8152600490fd5b3461013c57600036600319011261013c576002546040516001600160a01b039091168152602090f35b3461013c57600036600319011261013c5780600a60209252f35b600435906001600160a01b038216820361013c57565b6000546001600160a01b03163303610f3e57565b60405163118cdaa760e01b8152336004820152602490fd5b90601f8019910116810190811067ffffffffffffffff82111761091e57604052565b9081602091031261013c5751801515810361013c5790565b919082039182116104d857565b3d15610fd8573d9067ffffffffffffffff821161091e5760405191610fcc601f8201601f191660200184610f56565b82523d6000602084013e565b606090565b8051156109345760200190565b9291909594939560a084019084526020918285015260a0604085015282518091528160c0850193019160005b8281106110375750505050906080919460018060a01b031660608201520152565b83516001600160a01b031685529381019392810192600101611016565b81156110e9576001600160a01b03908116806110875750600080809381938254165af161107f610f9d565b501561049457565b6000805460405163a9059cbb60e01b815293166001600160a01b031660048401526024830193909352909160209183918290816044810103925af180156108ea576110cf5750565b6110e69060203d81116108e3576108d48183610f56565b50565b505056fea2646970667358221220978270bc7070aed108842e4fc618190ee3a91f2904e9191ddaa37dad77f64c9664736f6c63430008140033","opcodes":"PUSH1 0xE0 PUSH1 0x40 SWAP1 DUP1 DUP3 MSTORE CALLVALUE PUSH3 0x220 JUMPI PUSH1 0x60 DUP2 PUSH3 0x1398 DUP1 CODESIZE SUB DUP1 SWAP2 PUSH3 0x25 DUP3 DUP6 PUSH3 0x225 JUMP JUMPDEST DUP4 CODECOPY DUP2 ADD SUB SLT PUSH3 0x220 JUMPI PUSH3 0x3B DUP2 PUSH3 0x25F JUMP JUMPDEST PUSH3 0x56 DUP4 PUSH3 0x4E PUSH1 0x20 DUP6 ADD PUSH3 0x25F JUMP JUMPDEST SWAP4 ADD PUSH3 0x25F JUMP JUMPDEST SWAP1 CALLER ISZERO PUSH3 0x208 JUMPI PUSH1 0x0 DUP1 SLOAD CALLER PUSH1 0x1 PUSH1 0x1 PUSH1 0xA0 SHL SUB NOT DUP1 DUP4 AND DUP3 OR DUP5 SSTORE DUP8 MLOAD SWAP1 SWAP6 SWAP4 SWAP5 SWAP1 SWAP4 PUSH1 0x1 PUSH1 0x1 PUSH1 0xA0 SHL SUB SWAP4 SWAP1 SWAP3 DUP5 SWAP3 SWAP2 DUP4 AND PUSH32 0x8BE0079C531659141344CD1FD0A4F28419497F9722A3DAAFE3B4186F6B6457E0 DUP9 DUP1 LOG3 PUSH1 0x1 DUP1 SSTORE AND SWAP3 DUP4 ISZERO DUP1 ISZERO PUSH3 0x1FD JUMPI JUMPDEST PUSH3 0x1EE JUMPI POP DUP2 AND SWAP5 DUP6 ISZERO PUSH3 0x1DD JUMPI PUSH1 0x80 DUP4 SWAP1 MSTORE AND PUSH1 0xA0 MSTORE DUP5 MLOAD PUSH4 0x15AB88C9 PUSH1 0xE3 SHL DUP2 MSTORE SWAP1 PUSH1 0x20 SWAP1 DUP3 SWAP1 PUSH1 0x4 SWAP1 DUP3 SWAP1 GAS STATICCALL SWAP2 DUP3 ISZERO PUSH3 0x1D2 JUMPI DUP1 SWAP3 PUSH3 0x18B JUMPI JUMPDEST POP POP PUSH1 0xC0 MSTORE PUSH1 0x2 SLOAD AND OR PUSH1 0x2 SSTORE MLOAD PUSH2 0x1123 SWAP1 DUP2 PUSH3 0x275 DUP3 CODECOPY PUSH1 0x80 MLOAD DUP2 DUP2 DUP2 PUSH2 0x23F ADD MSTORE DUP2 DUP2 PUSH2 0x6B1 ADD MSTORE DUP2 DUP2 PUSH2 0x76E ADD MSTORE DUP2 DUP2 PUSH2 0x7C3 ADD MSTORE DUP2 DUP2 PUSH2 0xB46 ADD MSTORE PUSH2 0xC61 ADD MSTORE PUSH1 0xA0 MLOAD DUP2 DUP2 DUP2 PUSH2 0x1DE ADD MSTORE DUP2 DUP2 PUSH2 0x982 ADD MSTORE PUSH2 0xAAA ADD MSTORE PUSH1 0xC0 MLOAD DUP2 DUP2 DUP2 PUSH2 0x2B1 ADD MSTORE DUP2 DUP2 PUSH2 0x746 ADD MSTORE DUP2 DUP2 PUSH2 0xA08 ADD MSTORE DUP2 DUP2 PUSH2 0xB8B ADD MSTORE DUP2 DUP2 PUSH2 0xBF1 ADD MSTORE PUSH2 0xE73 ADD MSTORE RETURN JUMPDEST SWAP1 SWAP2 POP PUSH1 0x20 DUP3 RETURNDATASIZE DUP3 GT PUSH3 0x1C9 JUMPI JUMPDEST DUP2 PUSH3 0x1A9 PUSH1 0x20 SWAP4 DUP4 PUSH3 0x225 JUMP JUMPDEST DUP2 ADD SUB SLT PUSH3 0x1C6 JUMPI POP PUSH3 0x1BE SWAP1 PUSH3 0x25F JUMP JUMPDEST CODESIZE DUP1 PUSH3 0x101 JUMP JUMPDEST DUP1 REVERT JUMPDEST RETURNDATASIZE SWAP2 POP PUSH3 0x19A JUMP JUMPDEST DUP6 MLOAD SWAP1 RETURNDATASIZE SWAP1 DUP3 RETURNDATACOPY RETURNDATASIZE SWAP1 REVERT JUMPDEST DUP7 MLOAD PUSH4 0xED1B8B3 PUSH1 0xE3 SHL DUP2 MSTORE PUSH1 0x4 SWAP1 REVERT JUMPDEST PUSH4 0x466D7FEF PUSH1 0xE0 SHL DUP2 MSTORE PUSH1 0x4 SWAP1 REVERT JUMPDEST POP DUP3 DUP8 AND ISZERO PUSH3 0xBF JUMP JUMPDEST DUP4 MLOAD PUSH4 0x1E4FBDF7 PUSH1 0xE0 SHL DUP2 MSTORE PUSH1 0x0 PUSH1 0x4 DUP3 ADD MSTORE PUSH1 0x24 SWAP1 REVERT JUMPDEST PUSH1 0x0 DUP1 REVERT JUMPDEST PUSH1 0x1F SWAP1 SWAP2 ADD PUSH1 0x1F NOT AND DUP2 ADD SWAP1 PUSH1 0x1 PUSH1 0x1 PUSH1 0x40 SHL SUB DUP3 GT SWAP1 DUP3 LT OR PUSH3 0x249 JUMPI PUSH1 0x40 MSTORE JUMP JUMPDEST PUSH4 0x4E487B71 PUSH1 0xE0 SHL PUSH1 0x0 MSTORE PUSH1 0x41 PUSH1 0x4 MSTORE PUSH1 0x24 PUSH1 0x0 REVERT JUMPDEST MLOAD SWAP1 PUSH1 0x1 PUSH1 0x1 PUSH1 0xA0 SHL SUB DUP3 AND DUP3 SUB PUSH3 0x220 JUMPI JUMP INVALID PUSH1 0x80 DUP1 PUSH1 0x40 MSTORE PUSH1 0x4 CALLDATASIZE LT ISZERO PUSH2 0x1D JUMPI JUMPDEST POP CALLDATASIZE ISZERO PUSH2 0x1B JUMPI PUSH1 0x0 DUP1 REVERT JUMPDEST STOP JUMPDEST PUSH1 0x0 CALLDATALOAD PUSH1 0xE0 SHR SWAP1 DUP2 PUSH4 0x4D87F39 EQ PUSH2 0xEFA JUMPI POP DUP1 PUSH4 0x46904840 EQ PUSH2 0xED1 JUMPI DUP1 PUSH4 0x50923640 EQ PUSH2 0x362 JUMPI DUP1 PUSH4 0x715018A6 EQ PUSH2 0x309 JUMPI DUP1 PUSH4 0x8DA5CB5B EQ PUSH2 0x2E0 JUMPI DUP1 PUSH4 0x8DD95002 EQ PUSH2 0x29B JUMPI DUP1 PUSH4 0x95CCEA67 EQ PUSH2 0x26E JUMPI DUP1 PUSH4 0xD20CCDC2 EQ PUSH2 0x229 JUMPI DUP1 PUSH4 0xD73792A9 EQ PUSH2 0x20D JUMPI DUP1 PUSH4 0xE47AAF6D EQ PUSH2 0x1C8 JUMPI DUP1 PUSH4 0xE74B981B EQ PUSH2 0x141 JUMPI PUSH4 0xF2FDE38B EQ PUSH2 0xAE JUMPI CODESIZE PUSH2 0xF JUMP JUMPDEST CALLVALUE PUSH2 0x13C JUMPI PUSH1 0x20 CALLDATASIZE PUSH1 0x3 NOT ADD SLT PUSH2 0x13C JUMPI PUSH2 0xC7 PUSH2 0xF14 JUMP JUMPDEST PUSH2 0xCF PUSH2 0xF2A JUMP JUMPDEST PUSH1 0x1 PUSH1 0x1 PUSH1 0xA0 SHL SUB SWAP1 DUP2 AND SWAP1 DUP2 ISZERO PUSH2 0x123 JUMPI PUSH1 0x0 SLOAD DUP3 PUSH12 0xFFFFFFFFFFFFFFFFFFFFFFFF PUSH1 0xA0 SHL DUP3 AND OR PUSH1 0x0 SSTORE AND PUSH32 0x8BE0079C531659141344CD1FD0A4F28419497F9722A3DAAFE3B4186F6B6457E0 PUSH1 0x0 DUP1 LOG3 STOP JUMPDEST PUSH1 0x40 MLOAD PUSH4 0x1E4FBDF7 PUSH1 0xE0 SHL DUP2 MSTORE PUSH1 0x0 PUSH1 0x4 DUP3 ADD MSTORE PUSH1 0x24 SWAP1 REVERT JUMPDEST PUSH1 0x0 DUP1 REVERT JUMPDEST CALLVALUE PUSH2 0x13C JUMPI PUSH1 0x20 CALLDATASIZE PUSH1 0x3 NOT ADD SLT PUSH2 0x13C JUMPI PUSH2 0x15A PUSH2 0xF14 JUMP JUMPDEST PUSH2 0x162 PUSH2 0xF2A JUMP JUMPDEST PUSH1 0x1 PUSH1 0x1 PUSH1 0xA0 SHL SUB SWAP1 DUP2 AND SWAP1 DUP2 ISZERO PUSH2 0x1B6 JUMPI PUSH1 0x2 SLOAD DUP3 PUSH12 0xFFFFFFFFFFFFFFFFFFFFFFFF PUSH1 0xA0 SHL DUP3 AND OR PUSH1 0x2 SSTORE AND PUSH32 0xAAEBCF1BFA00580E41D966056B48521FA9F202645C86D4DDF28113E617C1B1D3 PUSH1 0x0 DUP1 LOG3 STOP JUMPDEST PUSH1 0x40 MLOAD PUSH4 0xED1B8B3 PUSH1 0xE3 SHL DUP2 MSTORE PUSH1 0x4 SWAP1 REVERT JUMPDEST CALLVALUE PUSH2 0x13C JUMPI PUSH1 0x0 CALLDATASIZE PUSH1 0x3 NOT ADD SLT PUSH2 0x13C JUMPI PUSH1 0x40 MLOAD PUSH32 0x0 PUSH1 0x1 PUSH1 0x1 PUSH1 0xA0 SHL SUB AND DUP2 MSTORE PUSH1 0x20 SWAP1 RETURN JUMPDEST CALLVALUE PUSH2 0x13C JUMPI PUSH1 0x0 CALLDATASIZE PUSH1 0x3 NOT ADD SLT PUSH2 0x13C JUMPI PUSH1 0x20 PUSH1 0x40 MLOAD PUSH1 0x64 DUP2 MSTORE RETURN JUMPDEST CALLVALUE PUSH2 0x13C JUMPI PUSH1 0x0 CALLDATASIZE PUSH1 0x3 NOT ADD SLT PUSH2 0x13C JUMPI PUSH1 0x40 MLOAD PUSH32 0x0 PUSH1 0x1 PUSH1 0x1 PUSH1 0xA0 SHL SUB AND DUP2 MSTORE PUSH1 0x20 SWAP1 RETURN JUMPDEST CALLVALUE PUSH2 0x13C JUMPI PUSH1 0x40 CALLDATASIZE PUSH1 0x3 NOT ADD SLT PUSH2 0x13C JUMPI PUSH2 0x1B PUSH2 0x28A PUSH2 0xF14 JUMP JUMPDEST PUSH2 0x292 PUSH2 0xF2A JUMP JUMPDEST PUSH1 0x24 CALLDATALOAD SWAP1 PUSH2 0x1054 JUMP JUMPDEST CALLVALUE PUSH2 0x13C JUMPI PUSH1 0x0 CALLDATASIZE PUSH1 0x3 NOT ADD SLT PUSH2 0x13C JUMPI PUSH1 0x40 MLOAD PUSH32 0x0 PUSH1 0x1 PUSH1 0x1 PUSH1 0xA0 SHL SUB AND DUP2 MSTORE PUSH1 0x20 SWAP1 RETURN JUMPDEST CALLVALUE PUSH2 0x13C JUMPI PUSH1 0x0 CALLDATASIZE PUSH1 0x3 NOT ADD SLT PUSH2 0x13C JUMPI PUSH1 0x0 SLOAD PUSH1 0x40 MLOAD PUSH1 0x1 PUSH1 0x1 PUSH1 0xA0 SHL SUB SWAP1 SWAP2 AND DUP2 MSTORE PUSH1 0x20 SWAP1 RETURN JUMPDEST CALLVALUE PUSH2 0x13C JUMPI PUSH1 0x0 CALLDATASIZE PUSH1 0x3 NOT ADD SLT PUSH2 0x13C JUMPI PUSH2 0x322 PUSH2 0xF2A JUMP JUMPDEST PUSH1 0x0 DUP1 SLOAD PUSH1 0x1 PUSH1 0x1 PUSH1 0xA0 SHL SUB NOT DUP2 AND DUP3 SSTORE PUSH1 0x1 PUSH1 0x1 PUSH1 0xA0 SHL SUB AND PUSH32 0x8BE0079C531659141344CD1FD0A4F28419497F9722A3DAAFE3B4186F6B6457E0 DUP3 DUP1 LOG3 STOP JUMPDEST CALLVALUE PUSH2 0x13C JUMPI PUSH1 0x40 CALLDATASIZE PUSH1 0x3 NOT ADD SLT PUSH2 0x13C JUMPI PUSH8 0xFFFFFFFFFFFFFFFF PUSH1 0x4 CALLDATALOAD GT PUSH2 0x13C JUMPI CALLDATASIZE PUSH1 0x23 PUSH1 0x4 CALLDATALOAD ADD SLT ISZERO PUSH2 0x13C JUMPI PUSH8 0xFFFFFFFFFFFFFFFF PUSH1 0x4 CALLDATALOAD PUSH1 0x4 ADD CALLDATALOAD GT PUSH2 0x13C JUMPI CALLDATASIZE PUSH1 0x24 PUSH1 0xA0 PUSH1 0x4 CALLDATALOAD PUSH1 0x4 ADD CALLDATALOAD MUL PUSH1 0x4 CALLDATALOAD ADD ADD GT PUSH2 0x13C JUMPI PUSH1 0x2 PUSH1 0x1 SLOAD EQ PUSH2 0xEBF JUMPI PUSH1 0x2 PUSH1 0x1 SSTORE PUSH1 0x24 CALLDATALOAD TIMESTAMP GT PUSH2 0xEAD JUMPI PUSH1 0x4 CALLDATALOAD PUSH1 0x4 ADD CALLDATALOAD ISZERO PUSH2 0xE9B JUMPI SELFBALANCE PUSH1 0x0 JUMPDEST PUSH1 0x4 CALLDATALOAD PUSH1 0x4 ADD CALLDATALOAD DUP2 LT PUSH2 0x500 JUMPI PUSH2 0x3FC DUP3 SELFBALANCE PUSH2 0xF90 JUMP JUMPDEST DUP1 ISZERO PUSH2 0x4EE JUMPI PUSH1 0xA DUP2 MUL DUP2 DUP2 DIV PUSH1 0xA SUB PUSH2 0x4D8 JUMPI PUSH1 0x64 SWAP1 DIV SWAP1 PUSH2 0x41F DUP3 DUP3 PUSH2 0xF90 JUMP JUMPDEST SWAP1 DUP3 PUSH2 0x4A6 JUMPI JUMPDEST DUP2 PUSH2 0x47D JUMPI JUMPDEST PUSH1 0x20 SWAP3 PUSH1 0x40 MLOAD SWAP2 PUSH1 0x4 CALLDATALOAD PUSH1 0x4 ADD CALLDATALOAD DUP4 MSTORE DUP5 DUP4 ADD MSTORE PUSH1 0x40 DUP3 ADD MSTORE DUP2 PUSH1 0x60 DUP3 ADD MSTORE PUSH32 0x788DBB508FB70253F6B188D53B81C01671EE1C1D0659D189B95B5CEF318B87C7 PUSH1 0x80 CALLER SWAP3 LOG2 PUSH1 0x1 DUP1 SSTORE PUSH1 0x40 MLOAD SWAP1 DUP2 MSTORE RETURN JUMPDEST PUSH1 0x0 DUP1 DUP1 DUP1 DUP6 CALLER GAS CALL PUSH2 0x48E PUSH2 0xF9D JUMP JUMPDEST POP PUSH2 0x42C JUMPI JUMPDEST PUSH1 0x40 MLOAD PUSH4 0x12171D83 PUSH1 0xE3 SHL DUP2 MSTORE PUSH1 0x4 SWAP1 REVERT JUMPDEST PUSH1 0x0 DUP1 DUP1 DUP1 DUP7 PUSH1 0x1 DUP1 PUSH1 0xA0 SHL SUB PUSH1 0x2 SLOAD AND GAS CALL PUSH2 0x4C1 PUSH2 0xF9D JUMP JUMPDEST POP PUSH2 0x426 JUMPI PUSH1 0x40 MLOAD PUSH4 0x12171D83 PUSH1 0xE3 SHL DUP2 MSTORE PUSH1 0x4 SWAP1 REVERT JUMPDEST PUSH4 0x4E487B71 PUSH1 0xE0 SHL PUSH1 0x0 MSTORE PUSH1 0x11 PUSH1 0x4 MSTORE PUSH1 0x24 PUSH1 0x0 REVERT JUMPDEST PUSH1 0x40 MLOAD PUSH4 0xBB2875C3 PUSH1 0xE0 SHL DUP2 MSTORE PUSH1 0x4 SWAP1 REVERT JUMPDEST PUSH1 0xA0 PUSH1 0x4 CALLDATALOAD DUP3 DUP3 MUL ADD CALLDATASIZE SUB PUSH1 0x23 NOT ADD SLT PUSH2 0x13C JUMPI PUSH1 0x40 MLOAD PUSH1 0xA0 DUP2 ADD DUP2 DUP2 LT PUSH8 0xFFFFFFFFFFFFFFFF DUP3 GT OR PUSH2 0x91E JUMPI PUSH1 0x40 MSTORE PUSH1 0x4 CALLDATALOAD PUSH1 0xA0 DUP4 MUL ADD PUSH1 0x24 ADD CALLDATALOAD PUSH1 0x1 PUSH1 0x1 PUSH1 0xA0 SHL SUB DUP2 AND SWAP1 SUB PUSH2 0x13C JUMPI PUSH1 0x4 CALLDATALOAD PUSH1 0xA0 DUP4 MUL ADD PUSH1 0x24 DUP2 ADD CALLDATALOAD DUP3 MSTORE PUSH1 0x44 DUP2 ADD CALLDATALOAD PUSH1 0x20 DUP4 ADD MSTORE PUSH1 0x64 DUP2 ADD CALLDATALOAD PUSH1 0x40 DUP4 ADD MSTORE PUSH1 0x84 ADD CALLDATALOAD PUSH1 0x2 DUP2 LT ISZERO PUSH2 0x13C JUMPI PUSH1 0x60 DUP3 ADD MSTORE PUSH1 0x4 CALLDATALOAD PUSH1 0xA0 DUP4 MUL ADD PUSH1 0xA4 ADD CALLDATALOAD PUSH3 0xFFFFFF DUP2 AND SWAP1 SUB PUSH2 0x13C JUMPI PUSH1 0x4 CALLDATALOAD PUSH1 0xA0 DUP4 MUL ADD PUSH1 0xA4 DUP2 ADD CALLDATALOAD PUSH1 0x80 DUP4 ADD MSTORE PUSH1 0x24 ADD CALLDATALOAD PUSH1 0x1 PUSH1 0x1 PUSH1 0xA0 SHL SUB AND ISZERO DUP1 ISZERO PUSH2 0xE59 JUMPI JUMPDEST PUSH2 0xE47 JUMPI PUSH1 0x20 DUP2 ADD MLOAD ISZERO PUSH2 0xE41 JUMPI DUP1 MLOAD PUSH1 0x40 MLOAD PUSH4 0x70A08231 PUSH1 0xE0 SHL DUP2 MSTORE ADDRESS PUSH1 0x4 DUP3 ADD MSTORE PUSH1 0x1 PUSH1 0x1 PUSH1 0xA0 SHL SUB SWAP1 SWAP2 AND SWAP1 PUSH1 0x20 DUP2 PUSH1 0x24 DUP2 DUP6 GAS STATICCALL SWAP1 DUP2 ISZERO PUSH2 0x8EA JUMPI PUSH1 0x0 SWAP2 PUSH2 0xE0F JUMPI JUMPDEST POP PUSH1 0x20 DUP4 ADD MLOAD PUSH1 0x40 MLOAD SWAP1 PUSH4 0x23B872DD PUSH1 0xE0 SHL DUP3 MSTORE CALLER PUSH1 0x4 DUP4 ADD MSTORE ADDRESS PUSH1 0x24 DUP4 ADD MSTORE PUSH1 0x44 DUP3 ADD MSTORE PUSH1 0x20 DUP2 PUSH1 0x64 DUP2 PUSH1 0x0 DUP8 GAS CALL SWAP1 DUP2 ISZERO PUSH2 0x8EA JUMPI PUSH1 0x0 SWAP2 PUSH2 0xDF0 JUMPI JUMPDEST POP ISZERO PUSH2 0x494 JUMPI PUSH1 0x40 MLOAD PUSH4 0x70A08231 PUSH1 0xE0 SHL DUP2 MSTORE ADDRESS PUSH1 0x4 DUP3 ADD MSTORE SWAP1 PUSH1 0x20 DUP3 PUSH1 0x24 DUP2 DUP7 GAS STATICCALL DUP1 ISZERO PUSH2 0x8EA JUMPI PUSH1 0x0 SWAP1 PUSH2 0xDBC JUMPI JUMPDEST PUSH2 0x682 SWAP3 POP PUSH2 0xF90 JUMP JUMPDEST SWAP1 PUSH1 0x60 DUP4 ADD MLOAD PUSH1 0x2 DUP2 LT ISZERO PUSH2 0x8A5 JUMPI PUSH2 0x969 JUMPI PUSH1 0x40 DUP4 DUP2 ADD MLOAD SWAP1 MLOAD PUSH4 0x95EA7B3 PUSH1 0xE0 SHL DUP2 MSTORE PUSH1 0x1 PUSH1 0x1 PUSH1 0xA0 SHL SUB PUSH32 0x0 AND PUSH1 0x4 DUP3 ADD MSTORE PUSH1 0x24 DUP2 ADD DUP5 SWAP1 MSTORE SELFBALANCE SWAP2 SWAP1 PUSH1 0x20 DUP2 PUSH1 0x44 DUP2 PUSH1 0x0 DUP9 GAS CALL DUP1 ISZERO PUSH2 0x8EA JUMPI PUSH2 0x94A JUMPI JUMPDEST POP PUSH1 0x40 MLOAD SWAP1 DUP2 PUSH1 0x60 DUP2 ADD LT PUSH8 0xFFFFFFFFFFFFFFFF PUSH1 0x60 DUP5 ADD GT OR PUSH2 0x91E JUMPI PUSH1 0x60 DUP3 ADD PUSH1 0x40 MSTORE PUSH1 0x2 DUP3 MSTORE PUSH1 0x40 CALLDATASIZE PUSH1 0x20 DUP5 ADD CALLDATACOPY DUP4 PUSH2 0x731 DUP4 PUSH2 0xFDD JUMP JUMPDEST MSTORE DUP2 MLOAD PUSH1 0x1 LT ISZERO PUSH2 0x934 JUMPI PUSH1 0x1 PUSH1 0x1 PUSH1 0xA0 SHL SUB PUSH32 0x0 DUP2 AND PUSH1 0x40 DUP5 ADD MSTORE PUSH32 0x0 AND EXTCODESIZE ISZERO PUSH2 0x13C JUMPI PUSH1 0x40 MLOAD PUSH4 0x791AC947 PUSH1 0xE0 SHL DUP2 MSTORE SWAP2 PUSH1 0x0 SWAP2 DUP4 SWAP2 DUP3 SWAP2 PUSH2 0x7BE SWAP2 PUSH1 0x24 CALLDATALOAD SWAP2 ADDRESS SWAP2 SWAP1 DUP12 PUSH1 0x4 DUP8 ADD PUSH2 0xFEA JUMP JUMPDEST SUB DUP2 DUP4 PUSH32 0x0 PUSH1 0x1 PUSH1 0x1 PUSH1 0xA0 SHL SUB AND GAS CALL SWAP1 DUP2 PUSH2 0x906 JUMPI JUMPDEST POP PUSH2 0x8F6 JUMPI POP PUSH1 0x40 MLOAD PUSH4 0xA9059CBB PUSH1 0xE0 SHL DUP2 MSTORE CALLER PUSH1 0x4 DUP3 ADD MSTORE PUSH1 0x24 DUP2 ADD DUP4 SWAP1 MSTORE SWAP1 PUSH1 0x20 SWAP1 DUP3 SWAP1 PUSH1 0x44 SWAP1 DUP3 SWAP1 PUSH1 0x0 SWAP1 GAS CALL DUP1 ISZERO PUSH2 0x8EA JUMPI PUSH2 0x8BB JUMPI JUMPDEST POP PUSH1 0x0 JUMPDEST DUP1 PUSH2 0x84E JUMPI JUMPDEST POP POP POP JUMPDEST PUSH1 0x0 NOT DUP2 EQ PUSH2 0x4D8 JUMPI PUSH1 0x1 ADD PUSH2 0x3E5 JUMP JUMPDEST PUSH1 0x60 PUSH1 0x1 DUP1 PUSH1 0xA0 SHL SUB DUP5 MLOAD AND SWAP4 ADD MLOAD SWAP1 PUSH1 0x2 DUP3 LT ISZERO PUSH2 0x8A5 JUMPI PUSH1 0x40 MLOAD SWAP3 DUP4 MSTORE PUSH1 0x20 DUP4 ADD MSTORE PUSH1 0x40 DUP3 ADD MSTORE PUSH32 0xA2C87ABC3341789E0370A7BAABED4F58835304C2B16A29536744AD19FCFD2E84 PUSH1 0x60 CALLER SWAP3 LOG3 DUP3 DUP1 DUP1 PUSH2 0x839 JUMP JUMPDEST PUSH4 0x4E487B71 PUSH1 0xE0 SHL PUSH1 0x0 MSTORE PUSH1 0x21 PUSH1 0x4 MSTORE PUSH1 0x24 PUSH1 0x0 REVERT JUMPDEST PUSH2 0x8DC SWAP1 PUSH1 0x20 RETURNDATASIZE PUSH1 0x20 GT PUSH2 0x8E3 JUMPI JUMPDEST PUSH2 0x8D4 DUP2 DUP4 PUSH2 0xF56 JUMP JUMPDEST DUP2 ADD SWAP1 PUSH2 0xF78 JUMP JUMPDEST POP DUP5 PUSH2 0x82F JUMP JUMPDEST POP RETURNDATASIZE PUSH2 0x8CA JUMP JUMPDEST PUSH1 0x40 MLOAD RETURNDATASIZE PUSH1 0x0 DUP3 RETURNDATACOPY RETURNDATASIZE SWAP1 REVERT JUMPDEST PUSH2 0x901 SWAP2 POP SELFBALANCE PUSH2 0xF90 JUMP JUMPDEST PUSH2 0x833 JUMP JUMPDEST PUSH8 0xFFFFFFFFFFFFFFFF DUP2 GT PUSH2 0x91E JUMPI PUSH1 0x40 MSTORE DUP8 PUSH2 0x7F4 JUMP JUMPDEST PUSH4 0x4E487B71 PUSH1 0xE0 SHL PUSH1 0x0 MSTORE PUSH1 0x41 PUSH1 0x4 MSTORE PUSH1 0x24 PUSH1 0x0 REVERT JUMPDEST PUSH4 0x4E487B71 PUSH1 0xE0 SHL PUSH1 0x0 MSTORE PUSH1 0x32 PUSH1 0x4 MSTORE PUSH1 0x24 PUSH1 0x0 REVERT JUMPDEST PUSH2 0x962 SWAP1 PUSH1 0x20 RETURNDATASIZE PUSH1 0x20 GT PUSH2 0x8E3 JUMPI PUSH2 0x8D4 DUP2 DUP4 PUSH2 0xF56 JUMP JUMPDEST POP DUP8 PUSH2 0x6F6 JUMP JUMPDEST PUSH1 0x40 DUP4 DUP2 ADD MLOAD PUSH1 0x80 DUP6 ADD MLOAD SWAP2 MLOAD PUSH4 0x95EA7B3 PUSH1 0xE0 SHL DUP2 MSTORE PUSH32 0x0 PUSH1 0x1 PUSH1 0x1 PUSH1 0xA0 SHL SUB AND PUSH1 0x4 DUP3 ADD MSTORE PUSH1 0x24 DUP2 ADD DUP6 SWAP1 MSTORE PUSH3 0xFFFFFF SWAP1 SWAP3 AND SWAP2 PUSH1 0x20 DUP2 PUSH1 0x44 DUP2 PUSH1 0x0 DUP9 GAS CALL DUP1 ISZERO PUSH2 0x8EA JUMPI PUSH2 0xD9D JUMPI JUMPDEST POP PUSH1 0x40 MLOAD SWAP2 DUP3 PUSH1 0xE0 DUP2 ADD LT PUSH8 0xFFFFFFFFFFFFFFFF PUSH1 0xE0 DUP6 ADD GT OR PUSH2 0x91E JUMPI PUSH1 0xE0 DUP4 ADD PUSH1 0x40 SWAP1 DUP2 MSTORE DUP5 DUP5 MSTORE PUSH1 0x1 PUSH1 0x1 PUSH1 0xA0 SHL SUB PUSH32 0x0 DUP2 AND PUSH1 0x20 DUP1 DUP8 ADD SWAP2 DUP3 MSTORE DUP4 DUP8 ADD SWAP5 DUP6 MSTORE ADDRESS PUSH1 0x60 DUP9 ADD SWAP1 DUP2 MSTORE PUSH1 0x80 DUP9 ADD DUP11 DUP2 MSTORE PUSH1 0xA0 DUP10 ADD SWAP8 DUP9 MSTORE PUSH1 0x0 PUSH1 0xC0 DUP11 ADD DUP2 DUP2 MSTORE SWAP7 MLOAD PUSH4 0x4E45AAF PUSH1 0xE0 SHL DUP2 MSTORE SWAP10 MLOAD DUP7 AND PUSH1 0x4 DUP12 ADD MSTORE SWAP4 MLOAD DUP6 AND PUSH1 0x24 DUP11 ADD MSTORE SWAP6 MLOAD PUSH3 0xFFFFFF AND PUSH1 0x44 DUP10 ADD MSTORE MLOAD DUP4 AND PUSH1 0x64 DUP9 ADD MSTORE SWAP4 MLOAD PUSH1 0x84 DUP8 ADD MSTORE SWAP4 MLOAD PUSH1 0xA4 DUP7 ADD MSTORE SWAP1 MLOAD DUP2 AND PUSH1 0xC4 DUP6 ADD MSTORE SWAP1 SWAP2 DUP4 SWAP2 PUSH1 0xE4 SWAP2 DUP4 SWAP2 PUSH32 0x0 AND GAS CALL PUSH1 0x0 SWAP2 DUP2 PUSH2 0xD69 JUMPI JUMPDEST POP PUSH2 0xB37 JUMPI POP PUSH1 0x40 MLOAD PUSH4 0xA9059CBB PUSH1 0xE0 SHL DUP2 MSTORE CALLER PUSH1 0x4 DUP3 ADD MSTORE PUSH1 0x24 DUP2 ADD DUP4 SWAP1 MSTORE SWAP1 PUSH1 0x20 SWAP1 DUP3 SWAP1 PUSH1 0x44 SWAP1 DUP3 SWAP1 PUSH1 0x0 SWAP1 GAS CALL DUP1 ISZERO PUSH2 0x8EA JUMPI PUSH2 0xB18 JUMPI JUMPDEST POP PUSH1 0x0 PUSH2 0x833 JUMP JUMPDEST PUSH2 0xB30 SWAP1 PUSH1 0x20 RETURNDATASIZE PUSH1 0x20 GT PUSH2 0x8E3 JUMPI PUSH2 0x8D4 DUP2 DUP4 PUSH2 0xF56 JUMP JUMPDEST POP DUP5 PUSH2 0xB10 JUMP JUMPDEST PUSH1 0x40 MLOAD PUSH4 0x95EA7B3 PUSH1 0xE0 SHL DUP2 MSTORE PUSH32 0x0 PUSH1 0x1 PUSH1 0x1 PUSH1 0xA0 SHL SUB AND PUSH1 0x4 DUP3 ADD MSTORE PUSH1 0x24 DUP2 ADD DUP3 SWAP1 MSTORE SWAP1 SWAP2 POP PUSH1 0x20 DUP2 DUP1 PUSH1 0x44 DUP2 ADD SUB DUP2 PUSH1 0x0 PUSH32 0x0 PUSH1 0x1 PUSH1 0x1 PUSH1 0xA0 SHL SUB AND GAS CALL DUP1 ISZERO PUSH2 0x8EA JUMPI PUSH2 0xD4A JUMPI JUMPDEST POP PUSH1 0x40 MLOAD DUP1 PUSH1 0x40 DUP2 ADD LT PUSH8 0xFFFFFFFFFFFFFFFF PUSH1 0x40 DUP4 ADD GT OR PUSH2 0x91E JUMPI PUSH1 0x40 DUP2 ADD PUSH1 0x40 MSTORE PUSH1 0x1 DUP2 MSTORE PUSH1 0x20 CALLDATASIZE DUP2 DUP4 ADD CALLDATACOPY PUSH32 0x0 PUSH1 0x1 PUSH1 0x1 PUSH1 0xA0 SHL SUB AND PUSH2 0xC22 DUP3 PUSH2 0xFDD JUMP JUMPDEST MSTORE SELFBALANCE SWAP2 PUSH2 0x12C TIMESTAMP ADD TIMESTAMP GT PUSH2 0x4D8 JUMPI PUSH1 0x40 MLOAD PUSH4 0x18CBAFE5 PUSH1 0xE0 SHL DUP2 MSTORE SWAP2 PUSH1 0x0 SWAP2 DUP4 SWAP2 DUP3 SWAP2 PUSH2 0xC5C SWAP2 TIMESTAMP PUSH2 0x12C ADD SWAP2 ADDRESS SWAP2 SWAP1 DUP1 PUSH1 0x4 DUP8 ADD PUSH2 0xFEA JUMP JUMPDEST SUB DUP2 DUP4 PUSH32 0x0 PUSH1 0x1 PUSH1 0x1 PUSH1 0xA0 SHL SUB AND GAS CALL DUP1 ISZERO PUSH2 0x8EA JUMPI PUSH2 0xCA1 JUMPI JUMPDEST POP PUSH2 0x901 SWAP1 SELFBALANCE PUSH2 0xF90 JUMP JUMPDEST RETURNDATASIZE DUP1 PUSH1 0x0 DUP4 RETURNDATACOPY PUSH2 0xCB1 DUP2 DUP4 PUSH2 0xF56 JUMP JUMPDEST PUSH1 0x20 DUP3 DUP3 DUP2 ADD SUB SLT PUSH2 0x13C JUMPI DUP2 MLOAD PUSH8 0xFFFFFFFFFFFFFFFF DUP2 GT PUSH2 0x13C JUMPI DUP2 DUP4 ADD PUSH1 0x1F DUP3 DUP6 ADD ADD SLT ISZERO PUSH2 0x13C JUMPI DUP1 DUP4 ADD MLOAD SWAP1 PUSH8 0xFFFFFFFFFFFFFFFF DUP3 GT PUSH2 0x91E JUMPI PUSH1 0x20 DUP3 PUSH1 0x5 SHL SWAP3 PUSH1 0x40 MLOAD SWAP1 PUSH2 0xD08 DUP4 DUP7 ADD DUP4 PUSH2 0xF56 JUMP JUMPDEST DUP2 MSTORE ADD SWAP3 DUP5 ADD PUSH1 0x20 DUP4 DUP4 DUP8 ADD ADD ADD GT PUSH2 0x13C JUMPI PUSH1 0x20 DUP2 DUP6 ADD ADD SWAP3 JUMPDEST PUSH1 0x20 DUP4 DUP4 DUP8 ADD ADD ADD DUP5 LT PUSH2 0xD3A JUMPI POP POP POP POP PUSH2 0xC96 JUMP JUMPDEST DUP4 MLOAD DUP2 MSTORE PUSH1 0x20 SWAP4 DUP5 ADD SWAP4 ADD PUSH2 0xD23 JUMP JUMPDEST PUSH2 0xD62 SWAP1 PUSH1 0x20 RETURNDATASIZE PUSH1 0x20 GT PUSH2 0x8E3 JUMPI PUSH2 0x8D4 DUP2 DUP4 PUSH2 0xF56 JUMP JUMPDEST POP DUP6 PUSH2 0xBC0 JUMP JUMPDEST SWAP1 SWAP2 POP PUSH1 0x20 DUP2 RETURNDATASIZE PUSH1 0x20 GT PUSH2 0xD95 JUMPI JUMPDEST DUP2 PUSH2 0xD85 PUSH1 0x20 SWAP4 DUP4 PUSH2 0xF56 JUMP JUMPDEST DUP2 ADD SUB SLT PUSH2 0x13C JUMPI MLOAD SWAP1 DUP8 PUSH2 0xAD5 JUMP JUMPDEST RETURNDATASIZE SWAP2 POP PUSH2 0xD78 JUMP JUMPDEST PUSH2 0xDB5 SWAP1 PUSH1 0x20 RETURNDATASIZE PUSH1 0x20 GT PUSH2 0x8E3 JUMPI PUSH2 0x8D4 DUP2 DUP4 PUSH2 0xF56 JUMP JUMPDEST POP DUP8 PUSH2 0x9D4 JUMP JUMPDEST POP PUSH1 0x20 DUP3 RETURNDATASIZE PUSH1 0x20 GT PUSH2 0xDE8 JUMPI JUMPDEST DUP2 PUSH2 0xDD6 PUSH1 0x20 SWAP4 DUP4 PUSH2 0xF56 JUMP JUMPDEST DUP2 ADD SUB SLT PUSH2 0x13C JUMPI PUSH2 0x682 SWAP2 MLOAD PUSH2 0x678 JUMP JUMPDEST RETURNDATASIZE SWAP2 POP PUSH2 0xDC9 JUMP JUMPDEST PUSH2 0xE09 SWAP2 POP PUSH1 0x20 RETURNDATASIZE PUSH1 0x20 GT PUSH2 0x8E3 JUMPI PUSH2 0x8D4 DUP2 DUP4 PUSH2 0xF56 JUMP JUMPDEST DUP7 PUSH2 0x647 JUMP JUMPDEST SWAP1 POP PUSH1 0x20 DUP2 RETURNDATASIZE PUSH1 0x20 GT PUSH2 0xE39 JUMPI JUMPDEST DUP2 PUSH2 0xE2A PUSH1 0x20 SWAP4 DUP4 PUSH2 0xF56 JUMP JUMPDEST DUP2 ADD SUB SLT PUSH2 0x13C JUMPI MLOAD DUP6 PUSH2 0x608 JUMP JUMPDEST RETURNDATASIZE SWAP2 POP PUSH2 0xE1D JUMP JUMPDEST POP PUSH2 0x83D JUMP JUMPDEST PUSH1 0x40 MLOAD PUSH4 0xC1AB6DC1 PUSH1 0xE0 SHL DUP2 MSTORE PUSH1 0x4 SWAP1 REVERT JUMPDEST POP PUSH1 0x4 CALLDATALOAD PUSH1 0xA0 DUP4 MUL ADD PUSH1 0x24 ADD CALLDATALOAD PUSH1 0x1 PUSH1 0x1 PUSH1 0xA0 SHL SUB SWAP1 DUP2 AND PUSH32 0x0 SWAP1 SWAP2 AND EQ PUSH2 0x5C1 JUMP JUMPDEST PUSH1 0x40 MLOAD PUSH4 0x86724C7F PUSH1 0xE0 SHL DUP2 MSTORE PUSH1 0x4 SWAP1 REVERT JUMPDEST PUSH1 0x40 MLOAD PUSH4 0x1AB7DA6B PUSH1 0xE0 SHL DUP2 MSTORE PUSH1 0x4 SWAP1 REVERT JUMPDEST PUSH1 0x40 MLOAD PUSH4 0x3EE5AEB5 PUSH1 0xE0 SHL DUP2 MSTORE PUSH1 0x4 SWAP1 REVERT JUMPDEST CALLVALUE PUSH2 0x13C JUMPI PUSH1 0x0 CALLDATASIZE PUSH1 0x3 NOT ADD SLT PUSH2 0x13C JUMPI PUSH1 0x2 SLOAD PUSH1 0x40 MLOAD PUSH1 0x1 PUSH1 0x1 PUSH1 0xA0 SHL SUB SWAP1 SWAP2 AND DUP2 MSTORE PUSH1 0x20 SWAP1 RETURN JUMPDEST CALLVALUE PUSH2 0x13C JUMPI PUSH1 0x0 CALLDATASIZE PUSH1 0x3 NOT ADD SLT PUSH2 0x13C JUMPI DUP1 PUSH1 0xA PUSH1 0x20 SWAP3 MSTORE RETURN JUMPDEST PUSH1 0x4 CALLDATALOAD SWAP1 PUSH1 0x1 PUSH1 0x1 PUSH1 0xA0 SHL SUB DUP3 AND DUP3 SUB PUSH2 0x13C JUMPI JUMP JUMPDEST PUSH1 0x0 SLOAD PUSH1 0x1 PUSH1 0x1 PUSH1 0xA0 SHL SUB AND CALLER SUB PUSH2 0xF3E JUMPI JUMP JUMPDEST PUSH1 0x40 MLOAD PUSH4 0x118CDAA7 PUSH1 0xE0 SHL DUP2 MSTORE CALLER PUSH1 0x4 DUP3 ADD MSTORE PUSH1 0x24 SWAP1 REVERT JUMPDEST SWAP1 PUSH1 0x1F DUP1 NOT SWAP2 ADD AND DUP2 ADD SWAP1 DUP2 LT PUSH8 0xFFFFFFFFFFFFFFFF DUP3 GT OR PUSH2 0x91E JUMPI PUSH1 0x40 MSTORE JUMP JUMPDEST SWAP1 DUP2 PUSH1 0x20 SWAP2 SUB SLT PUSH2 0x13C JUMPI MLOAD DUP1 ISZERO ISZERO DUP2 SUB PUSH2 0x13C JUMPI SWAP1 JUMP JUMPDEST SWAP2 SWAP1 DUP3 SUB SWAP2 DUP3 GT PUSH2 0x4D8 JUMPI JUMP JUMPDEST RETURNDATASIZE ISZERO PUSH2 0xFD8 JUMPI RETURNDATASIZE SWAP1 PUSH8 0xFFFFFFFFFFFFFFFF DUP3 GT PUSH2 0x91E JUMPI PUSH1 0x40 MLOAD SWAP2 PUSH2 0xFCC PUSH1 0x1F DUP3 ADD PUSH1 0x1F NOT AND PUSH1 0x20 ADD DUP5 PUSH2 0xF56 JUMP JUMPDEST DUP3 MSTORE RETURNDATASIZE PUSH1 0x0 PUSH1 0x20 DUP5 ADD RETURNDATACOPY JUMP JUMPDEST PUSH1 0x60 SWAP1 JUMP JUMPDEST DUP1 MLOAD ISZERO PUSH2 0x934 JUMPI PUSH1 0x20 ADD SWAP1 JUMP JUMPDEST SWAP3 SWAP2 SWAP1 SWAP6 SWAP5 SWAP4 SWAP6 PUSH1 0xA0 DUP5 ADD SWAP1 DUP5 MSTORE PUSH1 0x20 SWAP2 DUP3 DUP6 ADD MSTORE PUSH1 0xA0 PUSH1 0x40 DUP6 ADD MSTORE DUP3 MLOAD DUP1 SWAP2 MSTORE DUP2 PUSH1 0xC0 DUP6 ADD SWAP4 ADD SWAP2 PUSH1 0x0 JUMPDEST DUP3 DUP2 LT PUSH2 0x1037 JUMPI POP POP POP POP SWAP1 PUSH1 0x80 SWAP2 SWAP5 PUSH1 0x1 DUP1 PUSH1 0xA0 SHL SUB AND PUSH1 0x60 DUP3 ADD MSTORE ADD MSTORE JUMP JUMPDEST DUP4 MLOAD PUSH1 0x1 PUSH1 0x1 PUSH1 0xA0 SHL SUB AND DUP6 MSTORE SWAP4 DUP2 ADD SWAP4 SWAP3 DUP2 ADD SWAP3 PUSH1 0x1 ADD PUSH2 0x1016 JUMP JUMPDEST DUP2 ISZERO PUSH2 0x10E9 JUMPI PUSH1 0x1 PUSH1 0x1 PUSH1 0xA0 SHL SUB SWAP1 DUP2 AND DUP1 PUSH2 0x1087 JUMPI POP PUSH1 0x0 DUP1 DUP1 SWAP4 DUP2 SWAP4 DUP3 SLOAD AND GAS CALL PUSH2 0x107F PUSH2 0xF9D JUMP JUMPDEST POP ISZERO PUSH2 0x494 JUMPI JUMP JUMPDEST PUSH1 0x0 DUP1 SLOAD PUSH1 0x40 MLOAD PUSH4 0xA9059CBB PUSH1 0xE0 SHL DUP2 MSTORE SWAP4 AND PUSH1 0x1 PUSH1 0x1 PUSH1 0xA0 SHL SUB AND PUSH1 0x4 DUP5 ADD MSTORE PUSH1 0x24 DUP4 ADD SWAP4 SWAP1 SWAP4 MSTORE SWAP1 SWAP2 PUSH1 0x20 SWAP2 DUP4 SWAP2 DUP3 SWAP1 DUP2 PUSH1 0x44 DUP2 ADD SUB SWAP3 GAS CALL DUP1 ISZERO PUSH2 0x8EA JUMPI PUSH2 0x10CF JUMPI POP JUMP JUMPDEST PUSH2 0x10E6 SWAP1 PUSH1 0x20 RETURNDATASIZE DUP2 GT PUSH2 0x8E3 JUMPI PUSH2 0x8D4 DUP2 DUP4 PUSH2 0xF56 JUMP JUMPDEST POP JUMP JUMPDEST POP POP JUMP INVALID LOG2 PUSH5 0x6970667358 0x22 SLT KECCAK256 SWAP8 DUP3 PUSH17 0xBC7070AED108842E4FC618190EE3A91F29 DIV 0xE9 NOT SAR 0xDA LOG3 PUSH30 0xAD77F64C9664736F6C634300081400330000000000000000000000000000 "},"methodIdentifiers":{"FEE_DENOMINATOR()":"d73792a9","SERVICE_FEE_PERCENT()":"04d87f39","WBNB()":"8dd95002","batchSwapToBNB((address,uint256,uint256,uint8,uint24)[],uint256)":"50923640","emergencyWithdraw(address,uint256)":"95ccea67","feeRecipient()":"46904840","owner()":"8da5cb5b","pancakeRouterV2()":"d20ccdc2","pancakeRouterV3()":"e47aaf6d","renounceOwnership()":"715018a6","setFeeRecipient(address)":"e74b981b","transferOwnership(address)":"f2fde38b"}}}}}