{
  "_format": "hh-sol-artifact-1",
  "contractName": "DustSwapRouterV2V3",
  "sourceName": "contracts/DustSwapRouterV2V3.sol",
  "abi": [
    {
      "inputs": [
        {
          "internalType": "address",
          "name": "_pancakeRouterV2",
          "type": "address"
        },
        {
          "internalType": "address",
          "name": "_pancakeRouterV3",
          "type": "address"
        },
        {
          "internalType": "address",
          "name": "_feeRecipient",
          "type": "address"
        }
      ],
      "stateMutability": "nonpayable",
      "type": "constructor"
    },
    {
      "inputs": [],
      "name": "DeadlineExpired",
      "type": "error"
    },
    {
      "inputs": [],
      "name": "EmptySwapList",
      "type": "error"
    },
    {
      "inputs": [],
      "name": "InsufficientOutput",
      "type": "error"
    },
    {
      "inputs": [],
      "name": "InvalidFee",
      "type": "error"
    },
    {
      "inputs": [],
      "name": "InvalidFeeRecipient",
      "type": "error"
    },
    {
      "inputs": [],
      "name": "InvalidRouter",
      "type": "error"
    },
    {
      "inputs": [],
      "name": "InvalidToken",
      "type": "error"
    },
    {
      "inputs": [
        {
          "internalType": "address",
          "name": "owner",
          "type": "address"
        }
      ],
      "name": "OwnableInvalidOwner",
      "type": "error"
    },
    {
      "inputs": [
        {
          "internalType": "address",
          "name": "account",
          "type": "address"
        }
      ],
      "name": "OwnableUnauthorizedAccount",
      "type": "error"
    },
    {
      "inputs": [],
      "name": "ReentrancyGuardReentrantCall",
      "type": "error"
    },
    {
      "inputs": [],
      "name": "TransferFailed",
      "type": "error"
    },
    {
      "anonymous": false,
      "inputs": [
        {
          "indexed": true,
          "internalType": "address",
          "name": "user",
          "type": "address"
        },
        {
          "indexed": false,
          "internalType": "uint256",
          "name": "tokensSwapped",
          "type": "uint256"
        },
        {
          "indexed": false,
          "internalType": "uint256",
          "name": "totalBNBReceived",
          "type": "uint256"
        },
        {
          "indexed": false,
          "internalType": "uint256",
          "name": "serviceFee",
          "type": "uint256"
        },
        {
          "indexed": false,
          "internalType": "uint256",
          "name": "userAmount",
          "type": "uint256"
        }
      ],
      "name": "BatchSwapCompleted",
      "type": "event"
    },
    {
      "anonymous": false,
      "inputs": [
        {
          "indexed": true,
          "internalType": "address",
          "name": "oldRecipient",
          "type": "address"
        },
        {
          "indexed": true,
          "internalType": "address",
          "name": "newRecipient",
          "type": "address"
        }
      ],
      "name": "FeeRecipientUpdated",
      "type": "event"
    },
    {
      "anonymous": false,
      "inputs": [
        {
          "indexed": true,
          "internalType": "address",
          "name": "previousOwner",
          "type": "address"
        },
        {
          "indexed": true,
          "internalType": "address",
          "name": "newOwner",
          "type": "address"
        }
      ],
      "name": "OwnershipTransferred",
      "type": "event"
    },
    {
      "anonymous": false,
      "inputs": [
        {
          "indexed": true,
          "internalType": "address",
          "name": "user",
          "type": "address"
        },
        {
          "indexed": true,
          "internalType": "address",
          "name": "token",
          "type": "address"
        },
        {
          "indexed": false,
          "internalType": "uint256",
          "name": "amountIn",
          "type": "uint256"
        },
        {
          "indexed": false,
          "internalType": "uint256",
          "name": "bnbOut",
          "type": "uint256"
        },
        {
          "indexed": false,
          "internalType": "enum DustSwapRouterV2V3.RouterVersion",
          "name": "version",
          "type": "uint8"
        }
      ],
      "name": "SingleSwapCompleted",
      "type": "event"
    },
    {
      "inputs": [],
      "name": "FEE_DENOMINATOR",
      "outputs": [
        {
          "internalType": "uint256",
          "name": "",
          "type": "uint256"
        }
      ],
      "stateMutability": "view",
      "type": "function"
    },
    {
      "inputs": [],
      "name": "SERVICE_FEE_PERCENT",
      "outputs": [
        {
          "internalType": "uint256",
          "name": "",
          "type": "uint256"
        }
      ],
      "stateMutability": "view",
      "type": "function"
    },
    {
      "inputs": [],
      "name": "WBNB",
      "outputs": [
        {
          "internalType": "address",
          "name": "",
          "type": "address"
        }
      ],
      "stateMutability": "view",
      "type": "function"
    },
    {
      "inputs": [
        {
          "components": [
            {
              "internalType": "address",
              "name": "token",
              "type": "address"
            },
            {
              "internalType": "uint256",
              "name": "amount",
              "type": "uint256"
            },
            {
              "internalType": "uint256",
              "name": "minAmountOut",
              "type": "uint256"
            },
            {
              "internalType": "enum DustSwapRouterV2V3.RouterVersion",
              "name": "version",
              "type": "uint8"
            },
            {
              "internalType": "uint24",
              "name": "v3Fee",
              "type": "uint24"
            }
          ],
          "internalType": "struct DustSwapRouterV2V3.SwapInstruction[]",
          "name": "instructions",
          "type": "tuple[]"
        },
        {
          "internalType": "uint256",
          "name": "deadline",
          "type": "uint256"
        }
      ],
      "name": "batchSwapToBNB",
      "outputs": [
        {
          "internalType": "uint256",
          "name": "userAmount",
          "type": "uint256"
        }
      ],
      "stateMutability": "nonpayable",
      "type": "function"
    },
    {
      "inputs": [
        {
          "internalType": "address",
          "name": "token",
          "type": "address"
        },
        {
          "internalType": "uint256",
          "name": "amount",
          "type": "uint256"
        }
      ],
      "name": "emergencyWithdraw",
      "outputs": [],
      "stateMutability": "nonpayable",
      "type": "function"
    },
    {
      "inputs": [],
      "name": "feeRecipient",
      "outputs": [
        {
          "internalType": "address",
          "name": "",
          "type": "address"
        }
      ],
      "stateMutability": "view",
      "type": "function"
    },
    {
      "inputs": [],
      "name": "owner",
      "outputs": [
        {
          "internalType": "address",
          "name": "",
          "type": "address"
        }
      ],
      "stateMutability": "view",
      "type": "function"
    },
    {
      "inputs": [],
      "name": "pancakeRouterV2",
      "outputs": [
        {
          "internalType": "contract IPancakeRouter02",
          "name": "",
          "type": "address"
        }
      ],
      "stateMutability": "view",
      "type": "function"
    },
    {
      "inputs": [],
      "name": "pancakeRouterV3",
      "outputs": [
        {
          "internalType": "contract IPancakeV3SwapRouter",
          "name": "",
          "type": "address"
        }
      ],
      "stateMutability": "view",
      "type": "function"
    },
    {
      "inputs": [],
      "name": "renounceOwnership",
      "outputs": [],
      "stateMutability": "nonpayable",
      "type": "function"
    },
    {
      "inputs": [
        {
          "internalType": "address",
          "name": "_newFeeRecipient",
          "type": "address"
        }
      ],
      "name": "setFeeRecipient",
      "outputs": [],
      "stateMutability": "nonpayable",
      "type": "function"
    },
    {
      "inputs": [
        {
          "internalType": "address",
          "name": "newOwner",
          "type": "address"
        }
      ],
      "name": "transferOwnership",
      "outputs": [],
      "stateMutability": "nonpayable",
      "type": "function"
    },
    {
      "stateMutability": "payable",
      "type": "receive"
    }
  ],
  "bytecode": "0x60e060409080825234620002205760608162001398803803809162000025828562000225565b83398101031262000220576200003b816200025f565b62000056836200004e602085016200025f565b93016200025f565b903315620002085760008054336001600160a01b03198083168217845587519095939490936001600160a01b0393909284929183167f8be0079c531659141344cd1fd0a4f28419497f9722a3daafe3b4186f6b6457e08880a360018055169283158015620001fd575b620001ee57508116948515620001dd5760808390521660a05284516315ab88c960e31b815290602090829060049082905afa918215620001d25780926200018b575b505060c052600254161760025551611123908162000275823960805181818161023f015281816106b10152818161076e015281816107c301528181610b460152610c61015260a0518181816101de015281816109820152610aaa015260c0518181816102b10152818161074601528181610a0801528181610b8b01528181610bf10152610e730152f35b9091506020823d8211620001c9575b81620001a96020938362000225565b81010312620001c65750620001be906200025f565b388062000101565b80fd5b3d91506200019a565b8551903d90823e3d90fd5b8651630ed1b8b360e31b8152600490fd5b63466d7fef60e01b8152600490fd5b5082871615620000bf565b8351631e4fbdf760e01b815260006004820152602490fd5b600080fd5b601f909101601f19168101906001600160401b038211908210176200024957604052565b634e487b7160e01b600052604160045260246000fd5b51906001600160a01b0382168203620002205756fe608080604052600436101561001d575b50361561001b57600080fd5b005b60003560e01c90816304d87f3914610efa575080634690484014610ed15780635092364014610362578063715018a6146103095780638da5cb5b146102e05780638dd950021461029b57806395ccea671461026e578063d20ccdc214610229578063d73792a91461020d578063e47aaf6d146101c8578063e74b981b146101415763f2fde38b146100ae573861000f565b3461013c57602036600319011261013c576100c7610f14565b6100cf610f2a565b6001600160a01b0390811690811561012357600054826bffffffffffffffffffffffff60a01b821617600055167f8be0079c531659141344cd1fd0a4f28419497f9722a3daafe3b4186f6b6457e0600080a3005b604051631e4fbdf760e01b815260006004820152602490fd5b600080fd5b3461013c57602036600319011261013c5761015a610f14565b610162610f2a565b6001600160a01b039081169081156101b657600254826bffffffffffffffffffffffff60a01b821617600255167faaebcf1bfa00580e41d966056b48521fa9f202645c86d4ddf28113e617c1b1d3600080a3005b604051630ed1b8b360e31b8152600490fd5b3461013c57600036600319011261013c576040517f00000000000000000000000000000000000000000000000000000000000000006001600160a01b03168152602090f35b3461013c57600036600319011261013c57602060405160648152f35b3461013c57600036600319011261013c576040517f00000000000000000000000000000000000000000000000000000000000000006001600160a01b03168152602090f35b3461013c57604036600319011261013c5761001b61028a610f14565b610292610f2a565b60243590611054565b3461013c57600036600319011261013c576040517f00000000000000000000000000000000000000000000000000000000000000006001600160a01b03168152602090f35b3461013c57600036600319011261013c576000546040516001600160a01b039091168152602090f35b3461013c57600036600319011261013c57610322610f2a565b600080546001600160a01b0319811682556001600160a01b03167f8be0079c531659141344cd1fd0a4f28419497f9722a3daafe3b4186f6b6457e08280a3005b3461013c57604036600319011261013c5767ffffffffffffffff6004351161013c5736602360043501121561013c5767ffffffffffffffff600435600401351161013c5736602460a0600435600401350260043501011161013c57600260015414610ebf5760026001556024354211610ead576004356004013515610e9b574760005b600435600401358110610500576103fc8247610f90565b80156104ee57600a8102818104600a036104d857606490049061041f8282610f90565b90826104a6575b8161047d575b602092604051916004356004013583528483015260408201528160608201527f788dbb508fb70253f6b188d53b81c01671ee1c1d0659d189b95b5cef318b87c760803392a260018055604051908152f35b600080808085335af161048e610f9d565b5061042c575b6040516312171d8360e31b8152600490fd5b60008080808660018060a01b03600254165af16104c1610f9d565b50610426576040516312171d8360e31b8152600490fd5b634e487b7160e01b600052601160045260246000fd5b60405163bb2875c360e01b8152600490fd5b60a0600435828202013603602319011261013c5760405160a0810181811067ffffffffffffffff82111761091e5760405260043560a0830201602401356001600160a01b038116900361013c5760043560a083020160248101358252604481013560208301526064810135604083015260840135600281101561013c57606082015260043560a083020160a4013562ffffff8116900361013c5760043560a083020160a48101356080830152602401356001600160a01b0316158015610e59575b610e4757602081015115610e415780516040516370a0823160e01b81523060048201526001600160a01b0390911690602081602481855afa9081156108ea57600091610e0f575b506020830151604051906323b872dd60e01b825233600483015230602483015260448201526020816064816000875af19081156108ea57600091610df0575b5015610494576040516370a0823160e01b815230600482015290602082602481865afa80156108ea57600090610dbc575b6106829250610f90565b90606083015160028110156108a55761096957604083810151905163095ea7b360e01b81526001600160a01b037f0000000000000000000000000000000000000000000000000000000000000000166004820152602481018490524791906020816044816000885af180156108ea5761094a575b506040519081606081011067ffffffffffffffff60608401111761091e57606082016040526002825260403660208401378361073183610fdd565b52815160011015610934576001600160a01b037f0000000000000000000000000000000000000000000000000000000000000000811660408401527f0000000000000000000000000000000000000000000000000000000000000000163b1561013c5760405163791ac94760e01b815291600091839182916107be91602435913091908b60048701610fea565b0381837f00000000000000000000000000000000000000000000000000000000000000006001600160a01b03165af19081610906575b506108f6575060405163a9059cbb60e01b81523360048201526024810183905290602090829060449082906000905af180156108ea576108bb575b5060005b8061084e575b5050505b60001981146104d8576001016103e5565b606060018060a01b038451169301519060028210156108a557604051928352602083015260408201527fa2c87abc3341789e0370a7baabed4f58835304c2b16a29536744ad19fcfd2e8460603392a3828080610839565b634e487b7160e01b600052602160045260246000fd5b6108dc9060203d6020116108e3575b6108d48183610f56565b810190610f78565b508461082f565b503d6108ca565b6040513d6000823e3d90fd5b610901915047610f90565b610833565b67ffffffffffffffff811161091e57604052876107f4565b634e487b7160e01b600052604160045260246000fd5b634e487b7160e01b600052603260045260246000fd5b6109629060203d6020116108e3576108d48183610f56565b50876106f6565b6040838101516080850151915163095ea7b360e01b81527f00000000000000000000000000000000000000000000000000000000000000006001600160a01b031660048201526024810185905262ffffff909216916020816044816000885af180156108ea57610d9d575b50604051918260e081011067ffffffffffffffff60e08501111761091e5760e0830160409081528484526001600160a01b037f0000000000000000000000000000000000000000000000000000000000000000811660208087019182528387019485523060608801908152608088018a815260a08901978852600060c08a0181815296516304e45aaf60e01b81529951861660048b01529351851660248a0152955162ffffff166044890152518316606488015293516084870152935160a48601529051811660c48501529091839160e49183917f0000000000000000000000000000000000000000000000000000000000000000165af160009181610d69575b50610b37575060405163a9059cbb60e01b81523360048201526024810183905290602090829060449082906000905af180156108ea57610b18575b506000610833565b610b309060203d6020116108e3576108d48183610f56565b5084610b10565b60405163095ea7b360e01b81527f00000000000000000000000000000000000000000000000000000000000000006001600160a01b03166004820152602481018290529091506020818060448101038160007f00000000000000000000000000000000000000000000000000000000000000006001600160a01b03165af180156108ea57610d4a575b5060405180604081011067ffffffffffffffff60408301111761091e576040810160405260018152602036818301377f00000000000000000000000000000000000000000000000000000000000000006001600160a01b0316610c2282610fdd565b52479161012c420142116104d8576040516318cbafe560e01b81529160009183918291610c5c914261012c01913091908060048701610fea565b0381837f00000000000000000000000000000000000000000000000000000000000000006001600160a01b03165af180156108ea57610ca1575b506109019047610f90565b3d806000833e610cb18183610f56565b602082828101031261013c57815167ffffffffffffffff811161013c57818301601f82850101121561013c57808301519067ffffffffffffffff821161091e5760208260051b9260405190610d0883860183610f56565b81520192840160208383870101011161013c57602081850101925b60208383870101018410610d3a5750505050610c96565b8351815260209384019301610d23565b610d629060203d6020116108e3576108d48183610f56565b5085610bc0565b9091506020813d602011610d95575b81610d8560209383610f56565b8101031261013c57519087610ad5565b3d9150610d78565b610db59060203d6020116108e3576108d48183610f56565b50876109d4565b506020823d602011610de8575b81610dd660209383610f56565b8101031261013c576106829151610678565b3d9150610dc9565b610e09915060203d6020116108e3576108d48183610f56565b86610647565b90506020813d602011610e39575b81610e2a60209383610f56565b8101031261013c575185610608565b3d9150610e1d565b5061083d565b60405163c1ab6dc160e01b8152600490fd5b5060043560a0830201602401356001600160a01b039081167f0000000000000000000000000000000000000000000000000000000000000000909116146105c1565b6040516386724c7f60e01b8152600490fd5b604051631ab7da6b60e01b8152600490fd5b604051633ee5aeb560e01b8152600490fd5b3461013c57600036600319011261013c576002546040516001600160a01b039091168152602090f35b3461013c57600036600319011261013c5780600a60209252f35b600435906001600160a01b038216820361013c57565b6000546001600160a01b03163303610f3e57565b60405163118cdaa760e01b8152336004820152602490fd5b90601f8019910116810190811067ffffffffffffffff82111761091e57604052565b9081602091031261013c5751801515810361013c5790565b919082039182116104d857565b3d15610fd8573d9067ffffffffffffffff821161091e5760405191610fcc601f8201601f191660200184610f56565b82523d6000602084013e565b606090565b8051156109345760200190565b9291909594939560a084019084526020918285015260a0604085015282518091528160c0850193019160005b8281106110375750505050906080919460018060a01b031660608201520152565b83516001600160a01b031685529381019392810192600101611016565b81156110e9576001600160a01b03908116806110875750600080809381938254165af161107f610f9d565b501561049457565b6000805460405163a9059cbb60e01b815293166001600160a01b031660048401526024830193909352909160209183918290816044810103925af180156108ea576110cf5750565b6110e69060203d81116108e3576108d48183610f56565b50565b505056fea2646970667358221220b8bd4c8225bf7d43a8718d843be04d95b034321d95eaa401d3ceb0da412ab9d564736f6c63430008140033",
  "linkReferences": {},
  "deployedLinkReferences": {}
}