{
  "_format": "hh-sol-artifact-1",
  "contractName": "DustSwapRouterV2V3",
  "sourceName": "contracts/DustSwapRouterV2V3.sol",
  "abi": [
    {
      "inputs": [
        {
          "internalType": "address",
          "name": "_pancakeRouterV2",
          "type": "address"
        },
        {
          "internalType": "address",
          "name": "_pancakeRouterV3",
          "type": "address"
        },
        {
          "internalType": "address",
          "name": "_feeRecipient",
          "type": "address"
        }
      ],
      "stateMutability": "nonpayable",
      "type": "constructor"
    },
    {
      "inputs": [],
      "name": "DeadlineExpired",
      "type": "error"
    },
    {
      "inputs": [],
      "name": "EmptySwapList",
      "type": "error"
    },
    {
      "inputs": [],
      "name": "InsufficientOutput",
      "type": "error"
    },
    {
      "inputs": [],
      "name": "InvalidFee",
      "type": "error"
    },
    {
      "inputs": [],
      "name": "InvalidFeeRecipient",
      "type": "error"
    },
    {
      "inputs": [],
      "name": "InvalidRouter",
      "type": "error"
    },
    {
      "inputs": [],
      "name": "InvalidToken",
      "type": "error"
    },
    {
      "inputs": [
        {
          "internalType": "address",
          "name": "owner",
          "type": "address"
        }
      ],
      "name": "OwnableInvalidOwner",
      "type": "error"
    },
    {
      "inputs": [
        {
          "internalType": "address",
          "name": "account",
          "type": "address"
        }
      ],
      "name": "OwnableUnauthorizedAccount",
      "type": "error"
    },
    {
      "inputs": [],
      "name": "ReentrancyGuardReentrantCall",
      "type": "error"
    },
    {
      "inputs": [],
      "name": "TransferFailed",
      "type": "error"
    },
    {
      "anonymous": false,
      "inputs": [
        {
          "indexed": true,
          "internalType": "address",
          "name": "user",
          "type": "address"
        },
        {
          "indexed": false,
          "internalType": "uint256",
          "name": "tokensSwapped",
          "type": "uint256"
        },
        {
          "indexed": false,
          "internalType": "uint256",
          "name": "totalBNBReceived",
          "type": "uint256"
        },
        {
          "indexed": false,
          "internalType": "uint256",
          "name": "serviceFee",
          "type": "uint256"
        },
        {
          "indexed": false,
          "internalType": "uint256",
          "name": "userAmount",
          "type": "uint256"
        }
      ],
      "name": "BatchSwapCompleted",
      "type": "event"
    },
    {
      "anonymous": false,
      "inputs": [
        {
          "indexed": true,
          "internalType": "address",
          "name": "oldRecipient",
          "type": "address"
        },
        {
          "indexed": true,
          "internalType": "address",
          "name": "newRecipient",
          "type": "address"
        }
      ],
      "name": "FeeRecipientUpdated",
      "type": "event"
    },
    {
      "anonymous": false,
      "inputs": [
        {
          "indexed": true,
          "internalType": "address",
          "name": "previousOwner",
          "type": "address"
        },
        {
          "indexed": true,
          "internalType": "address",
          "name": "newOwner",
          "type": "address"
        }
      ],
      "name": "OwnershipTransferred",
      "type": "event"
    },
    {
      "anonymous": false,
      "inputs": [
        {
          "indexed": true,
          "internalType": "address",
          "name": "user",
          "type": "address"
        },
        {
          "indexed": true,
          "internalType": "address",
          "name": "token",
          "type": "address"
        },
        {
          "indexed": false,
          "internalType": "uint256",
          "name": "amountIn",
          "type": "uint256"
        },
        {
          "indexed": false,
          "internalType": "uint256",
          "name": "bnbOut",
          "type": "uint256"
        },
        {
          "indexed": false,
          "internalType": "enum DustSwapRouterV2V3.RouterVersion",
          "name": "version",
          "type": "uint8"
        }
      ],
      "name": "SingleSwapCompleted",
      "type": "event"
    },
    {
      "inputs": [],
      "name": "FEE_DENOMINATOR",
      "outputs": [
        {
          "internalType": "uint256",
          "name": "",
          "type": "uint256"
        }
      ],
      "stateMutability": "view",
      "type": "function"
    },
    {
      "inputs": [],
      "name": "SERVICE_FEE_PERCENT",
      "outputs": [
        {
          "internalType": "uint256",
          "name": "",
          "type": "uint256"
        }
      ],
      "stateMutability": "view",
      "type": "function"
    },
    {
      "inputs": [],
      "name": "WBNB",
      "outputs": [
        {
          "internalType": "address",
          "name": "",
          "type": "address"
        }
      ],
      "stateMutability": "view",
      "type": "function"
    },
    {
      "inputs": [
        {
          "components": [
            {
              "internalType": "address",
              "name": "token",
              "type": "address"
            },
            {
              "internalType": "uint256",
              "name": "amount",
              "type": "uint256"
            },
            {
              "internalType": "uint256",
              "name": "minAmountOut",
              "type": "uint256"
            },
            {
              "internalType": "enum DustSwapRouterV2V3.RouterVersion",
              "name": "version",
              "type": "uint8"
            },
            {
              "internalType": "uint24",
              "name": "v3Fee",
              "type": "uint24"
            }
          ],
          "internalType": "struct DustSwapRouterV2V3.SwapInstruction[]",
          "name": "instructions",
          "type": "tuple[]"
        },
        {
          "internalType": "uint256",
          "name": "deadline",
          "type": "uint256"
        }
      ],
      "name": "batchSwapToBNB",
      "outputs": [
        {
          "internalType": "uint256",
          "name": "userAmount",
          "type": "uint256"
        }
      ],
      "stateMutability": "nonpayable",
      "type": "function"
    },
    {
      "inputs": [
        {
          "internalType": "address",
          "name": "token",
          "type": "address"
        },
        {
          "internalType": "uint256",
          "name": "amount",
          "type": "uint256"
        }
      ],
      "name": "emergencyWithdraw",
      "outputs": [],
      "stateMutability": "nonpayable",
      "type": "function"
    },
    {
      "inputs": [],
      "name": "feeRecipient",
      "outputs": [
        {
          "internalType": "address",
          "name": "",
          "type": "address"
        }
      ],
      "stateMutability": "view",
      "type": "function"
    },
    {
      "inputs": [],
      "name": "owner",
      "outputs": [
        {
          "internalType": "address",
          "name": "",
          "type": "address"
        }
      ],
      "stateMutability": "view",
      "type": "function"
    },
    {
      "inputs": [],
      "name": "pancakeRouterV2",
      "outputs": [
        {
          "internalType": "contract IPancakeRouter02",
          "name": "",
          "type": "address"
        }
      ],
      "stateMutability": "view",
      "type": "function"
    },
    {
      "inputs": [],
      "name": "pancakeRouterV3",
      "outputs": [
        {
          "internalType": "contract IPancakeV3SwapRouter",
          "name": "",
          "type": "address"
        }
      ],
      "stateMutability": "view",
      "type": "function"
    },
    {
      "inputs": [],
      "name": "renounceOwnership",
      "outputs": [],
      "stateMutability": "nonpayable",
      "type": "function"
    },
    {
      "inputs": [
        {
          "internalType": "address",
          "name": "_newFeeRecipient",
          "type": "address"
        }
      ],
      "name": "setFeeRecipient",
      "outputs": [],
      "stateMutability": "nonpayable",
      "type": "function"
    },
    {
      "inputs": [
        {
          "internalType": "address",
          "name": "newOwner",
          "type": "address"
        }
      ],
      "name": "transferOwnership",
      "outputs": [],
      "stateMutability": "nonpayable",
      "type": "function"
    },
    {
      "stateMutability": "payable",
      "type": "receive"
    }
  ],
  "bytecode": "0x60e06040908082523462000219576060816200136580380380916200002582856200021e565b83398101031262000219576200003b8162000258565b62000056836200004e6020850162000258565b930162000258565b903315620002015760008054336001600160a01b03198083168217845587519095939490936001600160a01b0393909284929183167f8be0079c531659141344cd1fd0a4f28419497f9722a3daafe3b4186f6b6457e08880a360018055169283158015620001f6575b620001e757508116948515620001d65760808390521660a05284516315ab88c960e31b815290602090829060049082905afa918215620001cb57809262000184575b505060c0526002541617600255516110f790816200026e823960805181818161023f015281816106b10152818161079c01528181610b2a0152610c46015260a0518181816101de015281816109660152610a8e015260c0518181816102b10152818161073e015281816109ec01528181610b6f01528181610bd60152610dcb0152f35b9091506020823d8211620001c2575b81620001a2602093836200021e565b81010312620001bf5750620001b79062000258565b388062000101565b80fd5b3d915062000193565b8551903d90823e3d90fd5b8651630ed1b8b360e31b8152600490fd5b63466d7fef60e01b8152600490fd5b5082871615620000bf565b8351631e4fbdf760e01b815260006004820152602490fd5b600080fd5b601f909101601f19168101906001600160401b038211908210176200024257604052565b634e487b7160e01b600052604160045260246000fd5b51906001600160a01b0382168203620002195756fe608080604052600436101561001d575b50361561001b57600080fd5b005b60003560e01c90816304d87f3914610e52575080634690484014610e295780635092364014610362578063715018a6146103095780638da5cb5b146102e05780638dd950021461029b57806395ccea671461026e578063d20ccdc214610229578063d73792a91461020d578063e47aaf6d146101c8578063e74b981b146101415763f2fde38b146100ae573861000f565b3461013c57602036600319011261013c576100c7610e6c565b6100cf610e82565b6001600160a01b0390811690811561012357600054826bffffffffffffffffffffffff60a01b821617600055167f8be0079c531659141344cd1fd0a4f28419497f9722a3daafe3b4186f6b6457e0600080a3005b604051631e4fbdf760e01b815260006004820152602490fd5b600080fd5b3461013c57602036600319011261013c5761015a610e6c565b610162610e82565b6001600160a01b039081169081156101b657600254826bffffffffffffffffffffffff60a01b821617600255167faaebcf1bfa00580e41d966056b48521fa9f202645c86d4ddf28113e617c1b1d3600080a3005b604051630ed1b8b360e31b8152600490fd5b3461013c57600036600319011261013c576040517f00000000000000000000000000000000000000000000000000000000000000006001600160a01b03168152602090f35b3461013c57600036600319011261013c57602060405160648152f35b3461013c57600036600319011261013c576040517f00000000000000000000000000000000000000000000000000000000000000006001600160a01b03168152602090f35b3461013c57604036600319011261013c5761001b61028a610e6c565b610292610e82565b60243590611028565b3461013c57600036600319011261013c576040517f00000000000000000000000000000000000000000000000000000000000000006001600160a01b03168152602090f35b3461013c57600036600319011261013c576000546040516001600160a01b039091168152602090f35b3461013c57600036600319011261013c57610322610e82565b600080546001600160a01b0319811682556001600160a01b03167f8be0079c531659141344cd1fd0a4f28419497f9722a3daafe3b4186f6b6457e08280a3005b3461013c57604036600319011261013c5767ffffffffffffffff6004351161013c5736602360043501121561013c5767ffffffffffffffff600435600401351161013c5736602460a0600435600401350260043501011161013c57600260015414610e175760026001556024354211610e05576004356004013515610df3574760005b600435600401358110610500576103fc8247610ee8565b80156104ee57600a8102818104600a036104d857606490049061041f8282610ee8565b90826104a6575b8161047d575b602092604051916004356004013583528483015260408201528160608201527f788dbb508fb70253f6b188d53b81c01671ee1c1d0659d189b95b5cef318b87c760803392a260018055604051908152f35b600080808085335af161048e610ef5565b5061042c575b6040516312171d8360e31b8152600490fd5b60008080808660018060a01b03600254165af16104c1610ef5565b50610426576040516312171d8360e31b8152600490fd5b634e487b7160e01b600052601160045260246000fd5b60405163bb2875c360e01b8152600490fd5b60a0600435828202013603602319011261013c5760405160a0810181811067ffffffffffffffff8211176109185760405260043560a0830201602401356001600160a01b038116900361013c5760043560a083020160248101358252604481013560208301526064810135604083015260840135600281101561013c57606082015260043560a083020160a4013562ffffff8116900361013c5760043560a083020160a48101356080830152602401356001600160a01b0316158015610db1575b610d9f57602081015115610d995780516040516370a0823160e01b81523060048201526001600160a01b0390911690602081602481855afa9081156108c357600091610d67575b506020830151604051906323b872dd60e01b825233600483015230602483015260448201526020816064816000875af19081156108c357600091610d48575b5015610494576040516370a0823160e01b815230600482015290602082602481865afa80156108c357600090610d14575b6106829250610ee8565b906060830151600281101561087e5761094d57604083810151905163095ea7b360e01b81526001600160a01b037f0000000000000000000000000000000000000000000000000000000000000000166004820152602481018490524791906020816044816000885af180156108c35761092e575b506040519081606081011067ffffffffffffffff60608401111761091857606082016040526002825260403660208401378361073183610f35565b52815160011015610902577f00000000000000000000000000000000000000000000000000000000000000006001600160a01b0316604080840191909152516318cbafe560e01b8152916000918391829161079791602435913091908b60048701610fbe565b0381837f00000000000000000000000000000000000000000000000000000000000000006001600160a01b03165af190816108df575b506108cf575060405163a9059cbb60e01b81523360048201526024810183905290602090829060449082906000905af180156108c357610894575b5060005b80610827575b5050505b60001981146104d8576001016103e5565b606060018060a01b0384511693015190600282101561087e57604051928352602083015260408201527fa2c87abc3341789e0370a7baabed4f58835304c2b16a29536744ad19fcfd2e8460603392a3828080610812565b634e487b7160e01b600052602160045260246000fd5b6108b59060203d6020116108bc575b6108ad8183610eae565b810190610ed0565b5084610808565b503d6108a3565b6040513d6000823e3d90fd5b6108da915047610ee8565b61080c565b6108fb903d806000833e6108f38183610eae565b810190610f42565b50876107cd565b634e487b7160e01b600052603260045260246000fd5b634e487b7160e01b600052604160045260246000fd5b6109469060203d6020116108bc576108ad8183610eae565b50876106f6565b6040838101516080850151915163095ea7b360e01b81527f00000000000000000000000000000000000000000000000000000000000000006001600160a01b031660048201526024810185905262ffffff909216916020816044816000885af180156108c357610cf5575b50604051918260e081011067ffffffffffffffff60e0850111176109185760e0830160409081528484526001600160a01b037f0000000000000000000000000000000000000000000000000000000000000000811660208087019182528387019485523060608801908152608088018a815260a08901978852600060c08a0181815296516304e45aaf60e01b81529951861660048b01529351851660248a0152955162ffffff166044890152518316606488015293516084870152935160a48601529051811660c48501529091839160e49183917f0000000000000000000000000000000000000000000000000000000000000000165af160009181610cc1575b50610b1b575060405163a9059cbb60e01b81523360048201526024810183905290602090829060449082906000905af180156108c357610afc575b50600061080c565b610b149060203d6020116108bc576108ad8183610eae565b5084610af4565b60405163095ea7b360e01b81527f00000000000000000000000000000000000000000000000000000000000000006001600160a01b03166004820152602481018290529091506020818060448101038160007f00000000000000000000000000000000000000000000000000000000000000006001600160a01b03165af180156108c357610ca2575b506040519081604081011067ffffffffffffffff604084011117610918576040820160405260018252602036818401377f00000000000000000000000000000000000000000000000000000000000000006001600160a01b0316610c0783610f35565b52479061012c420142116104d8576040516318cbafe560e01b81529260009184918291610c41914261012c01913091908060048701610fbe565b0381837f00000000000000000000000000000000000000000000000000000000000000006001600160a01b03165af19182156108c3576108da92610c87575b5047610ee8565b610c9b903d806000833e6108f38183610eae565b5086610c80565b610cba9060203d6020116108bc576108ad8183610eae565b5085610ba4565b9091506020813d602011610ced575b81610cdd60209383610eae565b8101031261013c57519087610ab9565b3d9150610cd0565b610d0d9060203d6020116108bc576108ad8183610eae565b50876109b8565b506020823d602011610d40575b81610d2e60209383610eae565b8101031261013c576106829151610678565b3d9150610d21565b610d61915060203d6020116108bc576108ad8183610eae565b86610647565b90506020813d602011610d91575b81610d8260209383610eae565b8101031261013c575185610608565b3d9150610d75565b50610816565b60405163c1ab6dc160e01b8152600490fd5b5060043560a0830201602401356001600160a01b039081167f0000000000000000000000000000000000000000000000000000000000000000909116146105c1565b6040516386724c7f60e01b8152600490fd5b604051631ab7da6b60e01b8152600490fd5b604051633ee5aeb560e01b8152600490fd5b3461013c57600036600319011261013c576002546040516001600160a01b039091168152602090f35b3461013c57600036600319011261013c5780600a60209252f35b600435906001600160a01b038216820361013c57565b6000546001600160a01b03163303610e9657565b60405163118cdaa760e01b8152336004820152602490fd5b90601f8019910116810190811067ffffffffffffffff82111761091857604052565b9081602091031261013c5751801515810361013c5790565b919082039182116104d857565b3d15610f30573d9067ffffffffffffffff82116109185760405191610f24601f8201601f191660200184610eae565b82523d6000602084013e565b606090565b8051156109025760200190565b90602090818382031261013c57825167ffffffffffffffff9384821161013c570181601f8201121561013c578051938411610918578360051b9060405194610f8c85840187610eae565b8552838086019282010192831161013c578301905b828210610faf575050505090565b81518152908301908301610fa1565b9291909594939560a084019084526020918285015260a0604085015282518091528160c0850193019160005b82811061100b5750505050906080919460018060a01b031660608201520152565b83516001600160a01b031685529381019392810192600101610fea565b81156110bd576001600160a01b039081168061105b5750600080809381938254165af1611053610ef5565b501561049457565b6000805460405163a9059cbb60e01b815293166001600160a01b031660048401526024830193909352909160209183918290816044810103925af180156108c3576110a35750565b6110ba9060203d81116108bc576108ad8183610eae565b50565b505056fea2646970667358221220202059261ddea7b12a9c3aab66a4e2f1153bb637f1ca56fe6d8fb3400c59ad8e64736f6c63430008140033",
  "linkReferences": {},
  "deployedLinkReferences": {}
}